{
  "contractName": "Doctor",
  "abi": [
    {
      "inputs": [
        {
          "internalType": "contract EHR",
          "name": "ehrAddress",
          "type": "address"
        }
      ],
      "payable": false,
      "stateMutability": "nonpayable",
      "type": "constructor"
    },
    {
      "anonymous": false,
      "inputs": [],
      "name": "AddressDoesNotBelongToAnyDoctor",
      "type": "event"
    },
    {
      "anonymous": false,
      "inputs": [
        {
          "indexed": false,
          "internalType": "address",
          "name": "doctorAddress",
          "type": "address"
        }
      ],
      "name": "DoctorAdded",
      "type": "event"
    },
    {
      "constant": true,
      "inputs": [
        {
          "internalType": "uint256",
          "name": "",
          "type": "uint256"
        }
      ],
      "name": "doctors",
      "outputs": [
        {
          "internalType": "address",
          "name": "owner",
          "type": "address"
        },
        {
          "internalType": "uint256",
          "name": "doctorId",
          "type": "uint256"
        },
        {
          "internalType": "string",
          "name": "firstName",
          "type": "string"
        },
        {
          "internalType": "string",
          "name": "lastName",
          "type": "string"
        },
        {
          "internalType": "string",
          "name": "emailAddress",
          "type": "string"
        },
        {
          "internalType": "string",
          "name": "dob",
          "type": "string"
        }
      ],
      "payable": false,
      "stateMutability": "view",
      "type": "function"
    },
    {
      "constant": true,
      "inputs": [],
      "name": "numDoctors",
      "outputs": [
        {
          "internalType": "uint256",
          "name": "",
          "type": "uint256"
        }
      ],
      "payable": false,
      "stateMutability": "view",
      "type": "function"
    },
    {
      "constant": false,
      "inputs": [
        {
          "internalType": "string",
          "name": "_firstName",
          "type": "string"
        },
        {
          "internalType": "string",
          "name": "_lastName",
          "type": "string"
        },
        {
          "internalType": "string",
          "name": "_emailAddress",
          "type": "string"
        },
        {
          "internalType": "string",
          "name": "_dob",
          "type": "string"
        }
      ],
      "name": "create",
      "outputs": [
        {
          "internalType": "uint256",
          "name": "",
          "type": "uint256"
        }
      ],
      "payable": false,
      "stateMutability": "nonpayable",
      "type": "function"
    },
    {
      "constant": true,
      "inputs": [
        {
          "internalType": "uint256",
          "name": "doctorId",
          "type": "uint256"
        }
      ],
      "name": "isValidDoctorId",
      "outputs": [
        {
          "internalType": "bool",
          "name": "",
          "type": "bool"
        }
      ],
      "payable": false,
      "stateMutability": "view",
      "type": "function"
    },
    {
      "constant": true,
      "inputs": [
        {
          "internalType": "address",
          "name": "owner",
          "type": "address"
        }
      ],
      "name": "isSender",
      "outputs": [
        {
          "internalType": "bool",
          "name": "",
          "type": "bool"
        }
      ],
      "payable": false,
      "stateMutability": "view",
      "type": "function"
    },
    {
      "constant": true,
      "inputs": [
        {
          "internalType": "uint256",
          "name": "patientId",
          "type": "uint256"
        },
        {
          "internalType": "address",
          "name": "owner",
          "type": "address"
        }
      ],
      "name": "isPatientInListOfPatients",
      "outputs": [
        {
          "internalType": "bool",
          "name": "",
          "type": "bool"
        }
      ],
      "payable": false,
      "stateMutability": "view",
      "type": "function"
    },
    {
      "constant": false,
      "inputs": [
        {
          "internalType": "uint256",
          "name": "doctorId",
          "type": "uint256"
        },
        {
          "internalType": "uint256",
          "name": "patientId",
          "type": "uint256"
        }
      ],
      "name": "registerPatient",
      "outputs": [],
      "payable": false,
      "stateMutability": "nonpayable",
      "type": "function"
    },
    {
      "constant": false,
      "inputs": [
        {
          "internalType": "uint256",
          "name": "doctorId",
          "type": "uint256"
        },
        {
          "internalType": "uint256",
          "name": "patientId",
          "type": "uint256"
        }
      ],
      "name": "unregisterPatient",
      "outputs": [],
      "payable": false,
      "stateMutability": "nonpayable",
      "type": "function"
    },
    {
      "constant": true,
      "inputs": [
        {
          "internalType": "uint256",
          "name": "doctorId",
          "type": "uint256"
        }
      ],
      "name": "getDoctorAddressFromDoctorId",
      "outputs": [
        {
          "internalType": "address",
          "name": "",
          "type": "address"
        }
      ],
      "payable": false,
      "stateMutability": "view",
      "type": "function"
    },
    {
      "constant": true,
      "inputs": [
        {
          "internalType": "address",
          "name": "patientAddress",
          "type": "address"
        },
        {
          "internalType": "uint256",
          "name": "patientNoOfRecords",
          "type": "uint256"
        }
      ],
      "name": "doctorViewAllRecords",
      "outputs": [
        {
          "internalType": "uint256[]",
          "name": "",
          "type": "uint256[]"
        }
      ],
      "payable": false,
      "stateMutability": "view",
      "type": "function"
    },
    {
      "constant": true,
      "inputs": [
        {
          "internalType": "uint256",
          "name": "doctorId",
          "type": "uint256"
        }
      ],
      "name": "getFirstName",
      "outputs": [
        {
          "internalType": "string",
          "name": "",
          "type": "string"
        }
      ],
      "payable": false,
      "stateMutability": "view",
      "type": "function"
    },
    {
      "constant": false,
      "inputs": [
        {
          "internalType": "uint256",
          "name": "doctorId",
          "type": "uint256"
        },
        {
          "internalType": "string",
          "name": "_firstName",
          "type": "string"
        }
      ],
      "name": "setFirstName",
      "outputs": [],
      "payable": false,
      "stateMutability": "nonpayable",
      "type": "function"
    },
    {
      "constant": true,
      "inputs": [
        {
          "internalType": "uint256",
          "name": "doctorId",
          "type": "uint256"
        }
      ],
      "name": "getLastName",
      "outputs": [
        {
          "internalType": "string",
          "name": "",
          "type": "string"
        }
      ],
      "payable": false,
      "stateMutability": "view",
      "type": "function"
    },
    {
      "constant": false,
      "inputs": [
        {
          "internalType": "uint256",
          "name": "doctorId",
          "type": "uint256"
        },
        {
          "internalType": "string",
          "name": "_lastName",
          "type": "string"
        }
      ],
      "name": "setLastName",
      "outputs": [],
      "payable": false,
      "stateMutability": "nonpayable",
      "type": "function"
    },
    {
      "constant": true,
      "inputs": [
        {
          "internalType": "uint256",
          "name": "doctorId",
          "type": "uint256"
        }
      ],
      "name": "getEmailAddress",
      "outputs": [
        {
          "internalType": "string",
          "name": "",
          "type": "string"
        }
      ],
      "payable": false,
      "stateMutability": "view",
      "type": "function"
    },
    {
      "constant": false,
      "inputs": [
        {
          "internalType": "uint256",
          "name": "doctorId",
          "type": "uint256"
        },
        {
          "internalType": "string",
          "name": "_emailAddress",
          "type": "string"
        }
      ],
      "name": "setEmailAddress",
      "outputs": [],
      "payable": false,
      "stateMutability": "nonpayable",
      "type": "function"
    },
    {
      "constant": true,
      "inputs": [
        {
          "internalType": "uint256",
          "name": "doctorId",
          "type": "uint256"
        }
      ],
      "name": "getDob",
      "outputs": [
        {
          "internalType": "string",
          "name": "",
          "type": "string"
        }
      ],
      "payable": false,
      "stateMutability": "view",
      "type": "function"
    },
    {
      "constant": false,
      "inputs": [
        {
          "internalType": "uint256",
          "name": "doctorId",
          "type": "uint256"
        },
        {
          "internalType": "string",
          "name": "_dob",
          "type": "string"
        }
      ],
      "name": "setDob",
      "outputs": [],
      "payable": false,
      "stateMutability": "nonpayable",
      "type": "function"
    },
    {
      "constant": false,
      "inputs": [
        {
          "internalType": "address",
          "name": "doctorAddress",
          "type": "address"
        }
      ],
      "name": "getDoctorIdFromDoctorAddress",
      "outputs": [
        {
          "internalType": "uint256",
          "name": "",
          "type": "uint256"
        }
      ],
      "payable": false,
      "stateMutability": "nonpayable",
      "type": "function"
    }
  ],
  "bytecode": "0x6080604052600060015534801561001557600080fd5b5060405161233a38038061233a8339818101604052602081101561003857600080fd5b8101908080519060200190929190505050806000806101000a81548173ffffffffffffffffffffffffffffffffffffffff021916908373ffffffffffffffffffffffffffffffffffffffff160217905550506122a1806100996000396000f3fe608060405234801561001057600080fd5b50600436106101215760003560e01c806371f26a5c116100ad578063ab16ae2a11610071578063ab16ae2a14610c56578063ae185dce14610c8e578063e31e750c14610cc6578063e384346314610d6d578063fcda42c714610dc957610121565b806371f26a5c1461072f57806378ff6ee3146107f45780639cc5804814610a885780639ebd51f814610aee578063a9a3870314610bb357610121565b80633a17f75a116100f45780633a17f75a146103895780635c6a5bb11461044e5780635fc7fc641461046c578063632b7bf0146104b25780636efb1b841461050a57610121565b8063172a56c114610126578063174029f6146101cd5780631851611c146102745780632013fd1e146102e2575b600080fd5b6101526004803603602081101561013c57600080fd5b8101908080359060200190929190505050610e8e565b6040518080602001828103825283818151815260200191508051906020019080838360005b83811015610192578082015181840152602081019050610177565b50505050905090810190601f1680156101bf5780820380516001836020036101000a031916815260200191505b509250505060405180910390f35b6101f9600480360360208110156101e357600080fd5b8101908080359060200190929190505050610fc6565b6040518080602001828103825283818151815260200191508051906020019080838360005b8381101561023957808201518184015260208101905061021e565b50505050905090810190601f1680156102665780820380516001836020036101000a031916815260200191505b509250505060405180910390f35b6102a06004803603602081101561028a57600080fd5b81019080803590602001909291905050506110fe565b604051808273ffffffffffffffffffffffffffffffffffffffff1673ffffffffffffffffffffffffffffffffffffffff16815260200191505060405180910390f35b61030e600480360360208110156102f857600080fd5b810190808035906020019092919050505061113e565b6040518080602001828103825283818151815260200191508051906020019080838360005b8381101561034e578082015181840152602081019050610333565b50505050905090810190601f16801561037b5780820380516001836020036101000a031916815260200191505b509250505060405180910390f35b61044c6004803603604081101561039f57600080fd5b8101908080359060200190929190803590602001906401000000008111156103c657600080fd5b8201836020820111156103d857600080fd5b803590602001918460018302840111640100000000831117156103fa57600080fd5b91908080601f016020809104026020016040519081016040528093929190818152602001838380828437600081840152601f19601f820116905080830192505050505050509192919290505050611276565b005b610456611325565b6040518082815260200191505060405180910390f35b6104986004803603602081101561048257600080fd5b810190808035906020019092919050505061132b565b604051808215151515815260200191505060405180910390f35b6104f4600480360360208110156104c857600080fd5b81019080803573ffffffffffffffffffffffffffffffffffffffff16906020019092919050505061134a565b6040518082815260200191505060405180910390f35b6105366004803603602081101561052057600080fd5b810190808035906020019092919050505061140f565b604051808773ffffffffffffffffffffffffffffffffffffffff1673ffffffffffffffffffffffffffffffffffffffff16815260200186815260200180602001806020018060200180602001858103855289818151815260200191508051906020019080838360005b838110156105ba57808201518184015260208101905061059f565b50505050905090810190601f1680156105e75780820380516001836020036101000a031916815260200191505b50858103845288818151815260200191508051906020019080838360005b83811015610620578082015181840152602081019050610605565b50505050905090810190601f16801561064d5780820380516001836020036101000a031916815260200191505b50858103835287818151815260200191508051906020019080838360005b8381101561068657808201518184015260208101905061066b565b50505050905090810190601f1680156106b35780820380516001836020036101000a031916815260200191505b50858103825286818151815260200191508051906020019080838360005b838110156106ec5780820151818401526020810190506106d1565b50505050905090810190601f1680156107195780820380516001836020036101000a031916815260200191505b509a505050505050505050505060405180910390f35b6107f26004803603604081101561074557600080fd5b81019080803590602001909291908035906020019064010000000081111561076c57600080fd5b82018360208201111561077e57600080fd5b803590602001918460018302840111640100000000831117156107a057600080fd5b91908080601f016020809104026020016040519081016040528093929190818152602001838380828437600081840152601f19601f8201169050808301925050505050505091929192905050506116cb565b005b610a726004803603608081101561080a57600080fd5b810190808035906020019064010000000081111561082757600080fd5b82018360208201111561083957600080fd5b8035906020019184600183028401116401000000008311171561085b57600080fd5b91908080601f016020809104026020016040519081016040528093929190818152602001838380828437600081840152601f19601f820116905080830192505050505050509192919290803590602001906401000000008111156108be57600080fd5b8201836020820111156108d057600080fd5b803590602001918460018302840111640100000000831117156108f257600080fd5b91908080601f016020809104026020016040519081016040528093929190818152602001838380828437600081840152601f19601f8201169050808301925050505050505091929192908035906020019064010000000081111561095557600080fd5b82018360208201111561096757600080fd5b8035906020019184600183028401116401000000008311171561098957600080fd5b91908080601f016020809104026020016040519081016040528093929190818152602001838380828437600081840152601f19601f820116905080830192505050505050509192919290803590602001906401000000008111156109ec57600080fd5b8201836020820111156109fe57600080fd5b80359060200191846001830284011164010000000083111715610a2057600080fd5b91908080601f016020809104026020016040519081016040528093929190818152602001838380828437600081840152601f19601f82011690508083019250505050505050919291929050505061177a565b6040518082815260200191505060405180910390f35b610ad460048036036040811015610a9e57600080fd5b8101908080359060200190929190803573ffffffffffffffffffffffffffffffffffffffff16906020019092919050505061194e565b604051808215151515815260200191505060405180910390f35b610bb160048036036040811015610b0457600080fd5b810190808035906020019092919080359060200190640100000000811115610b2b57600080fd5b820183602082011115610b3d57600080fd5b80359060200191846001830284011164010000000083111715610b5f57600080fd5b91908080601f016020809104026020016040519081016040528093929190818152602001838380828437600081840152601f19601f820116905080830192505050505050509192919290505050611a2e565b005b610bff60048036036040811015610bc957600080fd5b81019080803573ffffffffffffffffffffffffffffffffffffffff16906020019092919080359060200190929190505050611add565b6040518080602001828103825283818151815260200191508051906020019060200280838360005b83811015610c42578082015181840152602081019050610c27565b505050509050019250505060405180910390f35b610c8c60048036036040811015610c6c57600080fd5b810190808035906020019092919080359060200190929190505050611ce7565b005b610cc460048036036040811015610ca457600080fd5b810190808035906020019092919080359060200190929190505050611dab565b005b610cf260048036036020811015610cdc57600080fd5b8101908080359060200190929190505050611e6f565b6040518080602001828103825283818151815260200191508051906020019080838360005b83811015610d32578082015181840152602081019050610d17565b50505050905090810190601f168015610d5f5780820380516001836020036101000a031916815260200191505b509250505060405180910390f35b610daf60048036036020811015610d8357600080fd5b81019080803573ffffffffffffffffffffffffffffffffffffffff169060200190929190505050611fa7565b604051808215151515815260200191505060405180910390f35b610e8c60048036036040811015610ddf57600080fd5b810190808035906020019092919080359060200190640100000000811115610e0657600080fd5b820183602082011115610e1857600080fd5b80359060200191846001830284011164010000000083111715610e3a57600080fd5b91908080601f016020809104026020016040519081016040528093929190818152602001838380828437600081840152601f19601f82011690508083019250505050505050919291929050505061204c565b005b6060816001548110610e9f57600080fd5b823273ffffffffffffffffffffffffffffffffffffffff166002600083815260200190815260200160002060000160009054906101000a900473ffffffffffffffffffffffffffffffffffffffff1673ffffffffffffffffffffffffffffffffffffffff1614610f0e57600080fd5b600260008581526020019081526020016000206002018054600181600116156101000203166002900480601f016020809104026020016040519081016040528092919081815260200182805460018160011615610100020316600290048015610fb85780601f10610f8d57610100808354040283529160200191610fb8565b820191906000526020600020905b815481529060010190602001808311610f9b57829003601f168201915b505050505092505050919050565b6060816001548110610fd757600080fd5b823273ffffffffffffffffffffffffffffffffffffffff166002600083815260200190815260200160002060000160009054906101000a900473ffffffffffffffffffffffffffffffffffffffff1673ffffffffffffffffffffffffffffffffffffffff161461104657600080fd5b600260008581526020019081526020016000206003018054600181600116156101000203166002900480601f0160208091040260200160405190810160405280929190818152602001828054600181600116156101000203166002900480156110f05780601f106110c5576101008083540402835291602001916110f0565b820191906000526020600020905b8154815290600101906020018083116110d357829003601f168201915b505050505092505050919050565b60006002600083815260200190815260200160002060000160009054906101000a900473ffffffffffffffffffffffffffffffffffffffff169050919050565b606081600154811061114f57600080fd5b823273ffffffffffffffffffffffffffffffffffffffff166002600083815260200190815260200160002060000160009054906101000a900473ffffffffffffffffffffffffffffffffffffffff1673ffffffffffffffffffffffffffffffffffffffff16146111be57600080fd5b600260008581526020019081526020016000206005018054600181600116156101000203166002900480601f0160208091040260200160405190810160405280929190818152602001828054600181600116156101000203166002900480156112685780601f1061123d57610100808354040283529160200191611268565b820191906000526020600020905b81548152906001019060200180831161124b57829003601f168201915b505050505092505050919050565b81600154811061128557600080fd5b823273ffffffffffffffffffffffffffffffffffffffff166002600083815260200190815260200160002060000160009054906101000a900473ffffffffffffffffffffffffffffffffffffffff1673ffffffffffffffffffffffffffffffffffffffff16146112f457600080fd5b8260026000868152602001908152602001600020600201908051906020019061131e9291906120fb565b5050505050565b60015481565b60006001548210156113405760019050611345565b600090505b919050565b600080600090505b6001548110156113dc578273ffffffffffffffffffffffffffffffffffffffff166002600083815260200190815260200160002060000160009054906101000a900473ffffffffffffffffffffffffffffffffffffffff1673ffffffffffffffffffffffffffffffffffffffff1614156113cf578091505061140a565b8080600101915050611352565b507fe22a148a0a3a6f21d7b5a1276fdb67f1e21e87d00e9799cda356fa16a6e3ea5760405160405180910390a15b919050565b60026020528060005260406000206000915090508060000160009054906101000a900473ffffffffffffffffffffffffffffffffffffffff1690806001015490806002018054600181600116156101000203166002900480601f0160208091040260200160405190810160405280929190818152602001828054600181600116156101000203166002900480156114e75780601f106114bc576101008083540402835291602001916114e7565b820191906000526020600020905b8154815290600101906020018083116114ca57829003601f168201915b505050505090806003018054600181600116156101000203166002900480601f0160208091040260200160405190810160405280929190818152602001828054600181600116156101000203166002900480156115855780601f1061155a57610100808354040283529160200191611585565b820191906000526020600020905b81548152906001019060200180831161156857829003601f168201915b505050505090806004018054600181600116156101000203166002900480601f0160208091040260200160405190810160405280929190818152602001828054600181600116156101000203166002900480156116235780601f106115f857610100808354040283529160200191611623565b820191906000526020600020905b81548152906001019060200180831161160657829003601f168201915b505050505090806005018054600181600116156101000203166002900480601f0160208091040260200160405190810160405280929190818152602001828054600181600116156101000203166002900480156116c15780601f10611696576101008083540402835291602001916116c1565b820191906000526020600020905b8154815290600101906020018083116116a457829003601f168201915b5050505050905086565b8160015481106116da57600080fd5b823273ffffffffffffffffffffffffffffffffffffffff166002600083815260200190815260200160002060000160009054906101000a900473ffffffffffffffffffffffffffffffffffffffff1673ffffffffffffffffffffffffffffffffffffffff161461174957600080fd5b826002600086815260200190815260200160002060050190805190602001906117739291906120fb565b5050505050565b6000806001600081548092919060010191905055905061179861217b565b8181602001818152505033816000019073ffffffffffffffffffffffffffffffffffffffff16908173ffffffffffffffffffffffffffffffffffffffff1681525050868160400181905250858160600181905250848160800181905250838160a00181905250806002600084815260200190815260200160002060008201518160000160006101000a81548173ffffffffffffffffffffffffffffffffffffffff021916908373ffffffffffffffffffffffffffffffffffffffff16021790555060208201518160010155604082015181600201908051906020019061187f9291906121c7565b50606082015181600301908051906020019061189c9291906121c7565b5060808201518160040190805190602001906118b99291906121c7565b5060a08201518160050190805190602001906118d69291906121c7565b509050507f69908b2e63170aa89ef89719bbe3b4c92cccc38653968ab25f4464eff7c28ac88160000151604051808273ffffffffffffffffffffffffffffffffffffffff1673ffffffffffffffffffffffffffffffffffffffff16815260200191505060405180910390a18192505050949350505050565b600080600090505b600154811015611a225760006002600083815260200190815260200160002090508373ffffffffffffffffffffffffffffffffffffffff168160000160009054906101000a900473ffffffffffffffffffffffffffffffffffffffff1673ffffffffffffffffffffffffffffffffffffffff161415611a14576001151581600601600087815260200190815260200160002060009054906101000a900460ff1615151415611a0957600192505050611a28565b600092505050611a28565b508080600101915050611956565b50600090505b92915050565b816001548110611a3d57600080fd5b823273ffffffffffffffffffffffffffffffffffffffff166002600083815260200190815260200160002060000160009054906101000a900473ffffffffffffffffffffffffffffffffffffffff1673ffffffffffffffffffffffffffffffffffffffff1614611aac57600080fd5b82600260008681526020019081526020016000206004019080519060200190611ad69291906120fb565b5050505050565b60608082604051908082528060200260200182016040528015611b0f5781602001602082028038833980820191505090505b509050600080905060008090505b6000809054906101000a900473ffffffffffffffffffffffffffffffffffffffff1673ffffffffffffffffffffffffffffffffffffffff16637988d0566040518163ffffffff1660e01b815260040160206040518083038186803b158015611b8457600080fd5b505afa158015611b98573d6000803e3d6000fd5b505050506040513d6020811015611bae57600080fd5b8101908080519060200190929190505050811015611cdb576000809054906101000a900473ffffffffffffffffffffffffffffffffffffffff1673ffffffffffffffffffffffffffffffffffffffff16630224ad4482886040518363ffffffff1660e01b8152600401808381526020018273ffffffffffffffffffffffffffffffffffffffff1673ffffffffffffffffffffffffffffffffffffffff1681526020019250505060206040518083038186803b158015611c6c57600080fd5b505afa158015611c80573d6000803e3d6000fd5b505050506040513d6020811015611c9657600080fd5b810190808051906020019092919050505015611cce5780838381518110611cb957fe5b60200260200101818152505081806001019250505b8080600101915050611b1d565b50819250505092915050565b816001548110611cf657600080fd5b823273ffffffffffffffffffffffffffffffffffffffff166002600083815260200190815260200160002060000160009054906101000a900473ffffffffffffffffffffffffffffffffffffffff1673ffffffffffffffffffffffffffffffffffffffff1614611d6557600080fd5b600060026000868152602001908152602001600020600601600085815260200190815260200160002060006101000a81548160ff02191690831515021790555050505050565b816001548110611dba57600080fd5b823273ffffffffffffffffffffffffffffffffffffffff166002600083815260200190815260200160002060000160009054906101000a900473ffffffffffffffffffffffffffffffffffffffff1673ffffffffffffffffffffffffffffffffffffffff1614611e2957600080fd5b600160026000868152602001908152602001600020600601600085815260200190815260200160002060006101000a81548160ff02191690831515021790555050505050565b6060816001548110611e8057600080fd5b823273ffffffffffffffffffffffffffffffffffffffff166002600083815260200190815260200160002060000160009054906101000a900473ffffffffffffffffffffffffffffffffffffffff1673ffffffffffffffffffffffffffffffffffffffff1614611eef57600080fd5b600260008581526020019081526020016000206004018054600181600116156101000203166002900480601f016020809104026020016040519081016040528092919081815260200182805460018160011615610100020316600290048015611f995780601f10611f6e57610100808354040283529160200191611f99565b820191906000526020600020905b815481529060010190602001808311611f7c57829003601f168201915b505050505092505050919050565b600080600090505b6001548110156120415760006002600083815260200190815260200160002090508373ffffffffffffffffffffffffffffffffffffffff168160000160009054906101000a900473ffffffffffffffffffffffffffffffffffffffff1673ffffffffffffffffffffffffffffffffffffffff16141561203357600192505050612047565b508080600101915050611faf565b50600090505b919050565b81600154811061205b57600080fd5b823273ffffffffffffffffffffffffffffffffffffffff166002600083815260200190815260200160002060000160009054906101000a900473ffffffffffffffffffffffffffffffffffffffff1673ffffffffffffffffffffffffffffffffffffffff16146120ca57600080fd5b826002600086815260200190815260200160002060030190805190602001906120f49291906120fb565b5050505050565b828054600181600116156101000203166002900490600052602060002090601f016020900481019282601f1061213c57805160ff191683800117855561216a565b8280016001018555821561216a579182015b8281111561216957825182559160200191906001019061214e565b5b5090506121779190612247565b5090565b6040518060c00160405280600073ffffffffffffffffffffffffffffffffffffffff16815260200160008152602001606081526020016060815260200160608152602001606081525090565b828054600181600116156101000203166002900490600052602060002090601f016020900481019282601f1061220857805160ff1916838001178555612236565b82800160010185558215612236579182015b8281111561223557825182559160200191906001019061221a565b5b5090506122439190612247565b5090565b61226991905b8082111561226557600081600090555060010161224d565b5090565b9056fea265627a7a72315820d29e4a581f886a9273d8e3c874a01e6c85e0d01356f778a1cd1a88a117332cb264736f6c63430005110032",
  "source": "pragma solidity ^0.5.0;\n\nimport \"./EHR.sol\";\n\ncontract Doctor {\n\n    EHR ehrContract;\n\n    constructor(EHR ehrAddress) public {\n        ehrContract = ehrAddress;\n  }\n\n    struct doctor {\n        address owner;\n        uint256 doctorId;\n        string firstName;\n        string lastName;\n        string emailAddress;\n        string dob;\n \n        mapping(uint256 => bool) patients;\n        mapping(uint256 => bool) records;\n    }\n\n    uint256 public numDoctors = 0;\n    mapping(uint256 => doctor) public doctors;\n\n    // function to create doctor\n    function create(string memory _firstName, string memory _lastName, string memory _emailAddress, string memory _dob) public returns(uint256) {\n\n        uint256 newDoctorId = numDoctors++;\n\n        doctor memory newDoctor;\n        newDoctor.doctorId = newDoctorId;\n        newDoctor.owner = msg.sender;\n        newDoctor.firstName = _firstName;\n        newDoctor.lastName = _lastName;\n        newDoctor.emailAddress = _emailAddress;\n        newDoctor.dob = _dob;\n\n        doctors[newDoctorId] = newDoctor;\n        emit DoctorAdded(newDoctor.owner);\n        return newDoctorId;\n    }\n\n\n    /********* EVENTS *********/\n\n    event DoctorAdded(address doctorAddress);\n    event AddressDoesNotBelongToAnyDoctor();\n\n\n    /********* MODIFIERS *********/\n\n\n    modifier ownerOnly(uint256 doctorId) {\n        require(doctors[doctorId].owner == tx.origin);\n        _;\n    }\n\n    modifier validDoctorId(uint256 doctorId) {\n        require(doctorId < numDoctors);\n        _;\n    }\n\n\n    /********* FUNCTIONS *********/\n\n    function isValidDoctorId(uint256 doctorId) public view returns (bool) {\n        if (doctorId < numDoctors) {\n            return true;\n        } else {\n            return false;\n        }\n    }\n\n    function isSender(address owner) public view returns(bool) {\n        for (uint i = 0; i < numDoctors; i++) {\n            doctor storage temp = doctors[i];\n            if (temp.owner == owner) {\n                return true;\n            }\n        }\n\n        return false;\n    }\n\n    function isPatientInListOfPatients(uint256 patientId, address owner) public view returns(bool) {\n        for (uint i = 0; i < numDoctors; i++) {\n            doctor storage temp = doctors[i];\n            if (temp.owner == owner) {\n                if (temp.patients[patientId] == true) {\n                    return true;\n                } else {\n                    return false;\n                }\n            }\n        }\n\n        return false;\n    }\n\n    function registerPatient(uint256 doctorId, uint256 patientId) public validDoctorId(doctorId) ownerOnly(doctorId) {\n        doctors[doctorId].patients[patientId] = true;\n    }\n\n    function unregisterPatient(uint256 doctorId, uint256 patientId) public validDoctorId(doctorId) ownerOnly(doctorId) {\n        doctors[doctorId].patients[patientId] = false;\n    }\n\n    // get doctor's address from their id (used in medicalChain numberOfRecordByDoctor function)\n    function getDoctorAddressFromDoctorId(uint256 doctorId) public view returns (address) {\n        return doctors[doctorId].owner;\n    }\n\n    // Doctor: View all records belonging to this patient\n  // Returns all the recordIds\n  function doctorViewAllRecords(address patientAddress, uint256 patientNoOfRecords) public view returns (uint256[] memory) {\n    uint256[] memory patientRecordsId = new uint256[](patientNoOfRecords);\n    uint256 indexTracker = 0;\n    for (uint256 i = 0; i < ehrContract.numEHR(); i++) {\n        // record belongs to patient calling it\n        if (ehrContract.isRecordBelongToPatient(i, patientAddress)) {\n          patientRecordsId[indexTracker] = i;\n          indexTracker++;\n        }\n      }\n\n      return patientRecordsId;\n  }\n\n    /********* GETTERS & SETTERS *********/\n\n    function getFirstName(uint256 doctorId) public view validDoctorId(doctorId) ownerOnly(doctorId) returns(string memory) {\n        return doctors[doctorId].firstName;\n    }\n\n    function setFirstName(uint256 doctorId, string memory _firstName) public validDoctorId(doctorId) ownerOnly(doctorId) {\n        doctors[doctorId].firstName = _firstName;\n    }\n\n    function getLastName(uint256 doctorId) public view validDoctorId(doctorId) ownerOnly(doctorId) returns(string memory) {\n        return doctors[doctorId].lastName;\n    }\n\n    function setLastName(uint256 doctorId, string memory _lastName) public validDoctorId(doctorId) ownerOnly(doctorId) {\n        doctors[doctorId].lastName = _lastName;\n    }\n\n    function getEmailAddress(uint256 doctorId) public view validDoctorId(doctorId) ownerOnly(doctorId) returns(string memory) {\n        return doctors[doctorId].emailAddress;\n    }\n\n    function setEmailAddress(uint256 doctorId, string memory _emailAddress) public validDoctorId(doctorId) ownerOnly(doctorId) {\n        doctors[doctorId].emailAddress = _emailAddress;\n    }\n\n    function getDob(uint256 doctorId) public view validDoctorId(doctorId) ownerOnly(doctorId) returns(string memory) {\n        return doctors[doctorId].dob;\n    }\n\n    function setDob(uint256 doctorId, string memory _dob) public validDoctorId(doctorId) ownerOnly(doctorId) {\n        doctors[doctorId].dob = _dob;\n    }\n\n    // get doctor's id from their address \n    function getDoctorIdFromDoctorAddress(address doctorAddress) public returns (uint256) {\n        for (uint i = 0; i < numDoctors; i++) {\n            if (doctors[i].owner == doctorAddress) {\n                return i;\n            }\n        }\n        emit AddressDoesNotBelongToAnyDoctor();\n    }\n}",
  "sourcePath": "/Users/aaronf/IS4302/Project/is4302-project-medical-chain/contracts/Doctor.sol",
  "compiler": {
    "name": "solc",
    "version": "0.5.17+commit.d19bba13.Emscripten.clang"
  },
  "schemaVersion": "3.4.11",
  "updatedAt": "2023-04-09T12:16:28.861Z",
  "networkType": "ethereum",
  "devdoc": {
    "methods": {}
  },
  "userdoc": {
    "methods": {
      "getFirstName(uint256)": {
        "notice": "******* GETTERS & SETTERS ********"
      },
      "isValidDoctorId(uint256)": {
        "notice": "******* FUNCTIONS ********"
      }
    }
  }
}