{
  "contractName": "Doctor",
  "abi": [
    {
      "anonymous": false,
      "inputs": [],
      "name": "AddressDoesNotBelongToAnyDoctor",
      "type": "event"
    },
    {
      "anonymous": false,
      "inputs": [
        {
          "indexed": false,
          "internalType": "address",
          "name": "doctorAddress",
          "type": "address"
        }
      ],
      "name": "DoctorAdded",
      "type": "event"
    },
    {
      "constant": true,
      "inputs": [
        {
          "internalType": "uint256",
          "name": "",
          "type": "uint256"
        }
      ],
      "name": "doctors",
      "outputs": [
        {
          "internalType": "address",
          "name": "owner",
          "type": "address"
        },
        {
          "internalType": "uint256",
          "name": "doctorId",
          "type": "uint256"
        },
        {
          "internalType": "string",
          "name": "firstName",
          "type": "string"
        },
        {
          "internalType": "string",
          "name": "lastName",
          "type": "string"
        },
        {
          "internalType": "string",
          "name": "emailAddress",
          "type": "string"
        },
        {
          "internalType": "string",
          "name": "dob",
          "type": "string"
        }
      ],
      "payable": false,
      "stateMutability": "view",
      "type": "function"
    },
    {
      "constant": true,
      "inputs": [],
      "name": "numDoctors",
      "outputs": [
        {
          "internalType": "uint256",
          "name": "",
          "type": "uint256"
        }
      ],
      "payable": false,
      "stateMutability": "view",
      "type": "function"
    },
    {
      "constant": false,
      "inputs": [
        {
          "internalType": "string",
          "name": "_firstName",
          "type": "string"
        },
        {
          "internalType": "string",
          "name": "_lastName",
          "type": "string"
        },
        {
          "internalType": "string",
          "name": "_emailAddress",
          "type": "string"
        },
        {
          "internalType": "string",
          "name": "_dob",
          "type": "string"
        }
      ],
      "name": "create",
      "outputs": [
        {
          "internalType": "uint256",
          "name": "",
          "type": "uint256"
        }
      ],
      "payable": false,
      "stateMutability": "nonpayable",
      "type": "function"
    },
    {
      "constant": true,
      "inputs": [
        {
          "internalType": "address",
          "name": "owner",
          "type": "address"
        }
      ],
      "name": "isSender",
      "outputs": [
        {
          "internalType": "bool",
          "name": "",
          "type": "bool"
        }
      ],
      "payable": false,
      "stateMutability": "view",
      "type": "function"
    },
    {
      "constant": true,
      "inputs": [
        {
          "internalType": "uint256",
          "name": "patientId",
          "type": "uint256"
        },
        {
          "internalType": "address",
          "name": "owner",
          "type": "address"
        }
      ],
      "name": "isPatientInListOfPatients",
      "outputs": [
        {
          "internalType": "bool",
          "name": "",
          "type": "bool"
        }
      ],
      "payable": false,
      "stateMutability": "view",
      "type": "function"
    },
    {
      "constant": false,
      "inputs": [
        {
          "internalType": "uint256",
          "name": "doctorId",
          "type": "uint256"
        },
        {
          "internalType": "uint256",
          "name": "patientId",
          "type": "uint256"
        }
      ],
      "name": "registerPatient",
      "outputs": [],
      "payable": false,
      "stateMutability": "nonpayable",
      "type": "function"
    },
    {
      "constant": false,
      "inputs": [
        {
          "internalType": "uint256",
          "name": "doctorId",
          "type": "uint256"
        },
        {
          "internalType": "uint256",
          "name": "patientId",
          "type": "uint256"
        }
      ],
      "name": "unregisterPatient",
      "outputs": [],
      "payable": false,
      "stateMutability": "nonpayable",
      "type": "function"
    },
    {
      "constant": true,
      "inputs": [
        {
          "internalType": "uint256",
          "name": "doctorId",
          "type": "uint256"
        }
      ],
      "name": "getFirstName",
      "outputs": [
        {
          "internalType": "string",
          "name": "",
          "type": "string"
        }
      ],
      "payable": false,
      "stateMutability": "view",
      "type": "function"
    },
    {
      "constant": false,
      "inputs": [
        {
          "internalType": "uint256",
          "name": "doctorId",
          "type": "uint256"
        },
        {
          "internalType": "string",
          "name": "_firstName",
          "type": "string"
        }
      ],
      "name": "setFirstName",
      "outputs": [],
      "payable": false,
      "stateMutability": "nonpayable",
      "type": "function"
    },
    {
      "constant": true,
      "inputs": [
        {
          "internalType": "uint256",
          "name": "doctorId",
          "type": "uint256"
        }
      ],
      "name": "getLastName",
      "outputs": [
        {
          "internalType": "string",
          "name": "",
          "type": "string"
        }
      ],
      "payable": false,
      "stateMutability": "view",
      "type": "function"
    },
    {
      "constant": false,
      "inputs": [
        {
          "internalType": "uint256",
          "name": "doctorId",
          "type": "uint256"
        },
        {
          "internalType": "string",
          "name": "_lastName",
          "type": "string"
        }
      ],
      "name": "setLastName",
      "outputs": [],
      "payable": false,
      "stateMutability": "nonpayable",
      "type": "function"
    },
    {
      "constant": true,
      "inputs": [
        {
          "internalType": "uint256",
          "name": "doctorId",
          "type": "uint256"
        }
      ],
      "name": "getEmailAddress",
      "outputs": [
        {
          "internalType": "string",
          "name": "",
          "type": "string"
        }
      ],
      "payable": false,
      "stateMutability": "view",
      "type": "function"
    },
    {
      "constant": false,
      "inputs": [
        {
          "internalType": "uint256",
          "name": "doctorId",
          "type": "uint256"
        },
        {
          "internalType": "string",
          "name": "_emailAddress",
          "type": "string"
        }
      ],
      "name": "setEmailAddress",
      "outputs": [],
      "payable": false,
      "stateMutability": "nonpayable",
      "type": "function"
    },
    {
      "constant": true,
      "inputs": [
        {
          "internalType": "uint256",
          "name": "doctorId",
          "type": "uint256"
        }
      ],
      "name": "getDob",
      "outputs": [
        {
          "internalType": "string",
          "name": "",
          "type": "string"
        }
      ],
      "payable": false,
      "stateMutability": "view",
      "type": "function"
    },
    {
      "constant": false,
      "inputs": [
        {
          "internalType": "uint256",
          "name": "doctorId",
          "type": "uint256"
        },
        {
          "internalType": "string",
          "name": "_dob",
          "type": "string"
        }
      ],
      "name": "setDob",
      "outputs": [],
      "payable": false,
      "stateMutability": "nonpayable",
      "type": "function"
    },
    {
      "constant": false,
      "inputs": [
        {
          "internalType": "address",
          "name": "doctorAddress",
          "type": "address"
        }
      ],
      "name": "getDoctorIdFromDoctorAddress",
      "outputs": [
        {
          "internalType": "uint256",
          "name": "",
          "type": "uint256"
        }
      ],
      "payable": false,
      "stateMutability": "nonpayable",
      "type": "function"
    }
  ],
  "bytecode": "0x60806040526000805534801561001457600080fd5b50611ebe806100246000396000f3fe608060405234801561001057600080fd5b50600436106101005760003560e01c806378ff6ee311610097578063ae185dce11610066578063ae185dce14610b16578063e31e750c14610b4e578063e384346314610bf5578063fcda42c714610c5157610100565b806378ff6ee31461071f5780639cc58048146109b35780639ebd51f814610a19578063ab16ae2a14610ade57610100565b80635c6a5bb1116100d35780635c6a5bb1146103bf578063632b7bf0146103dd5780636efb1b841461043557806371f26a5c1461065a57610100565b8063172a56c114610105578063174029f6146101ac5780632013fd1e146102535780633a17f75a146102fa575b600080fd5b6101316004803603602081101561011b57600080fd5b8101908080359060200190929190505050610d16565b6040518080602001828103825283818151815260200191508051906020019080838360005b83811015610171578082015181840152602081019050610156565b50505050905090810190601f16801561019e5780820380516001836020036101000a031916815260200191505b509250505060405180910390f35b6101d8600480360360208110156101c257600080fd5b8101908080359060200190929190505050610e4e565b6040518080602001828103825283818151815260200191508051906020019080838360005b838110156102185780820151818401526020810190506101fd565b50505050905090810190601f1680156102455780820380516001836020036101000a031916815260200191505b509250505060405180910390f35b61027f6004803603602081101561026957600080fd5b8101908080359060200190929190505050610f86565b6040518080602001828103825283818151815260200191508051906020019080838360005b838110156102bf5780820151818401526020810190506102a4565b50505050905090810190601f1680156102ec5780820380516001836020036101000a031916815260200191505b509250505060405180910390f35b6103bd6004803603604081101561031057600080fd5b81019080803590602001909291908035906020019064010000000081111561033757600080fd5b82018360208201111561034957600080fd5b8035906020019184600183028401116401000000008311171561036b57600080fd5b91908080601f016020809104026020016040519081016040528093929190818152602001838380828437600081840152601f19601f8201169050808301925050505050505091929192905050506110be565b005b6103c761116d565b6040518082815260200191505060405180910390f35b61041f600480360360208110156103f357600080fd5b81019080803573ffffffffffffffffffffffffffffffffffffffff169060200190929190505050611173565b6040518082815260200191505060405180910390f35b6104616004803603602081101561044b57600080fd5b8101908080359060200190929190505050611238565b604051808773ffffffffffffffffffffffffffffffffffffffff1673ffffffffffffffffffffffffffffffffffffffff16815260200186815260200180602001806020018060200180602001858103855289818151815260200191508051906020019080838360005b838110156104e55780820151818401526020810190506104ca565b50505050905090810190601f1680156105125780820380516001836020036101000a031916815260200191505b50858103845288818151815260200191508051906020019080838360005b8381101561054b578082015181840152602081019050610530565b50505050905090810190601f1680156105785780820380516001836020036101000a031916815260200191505b50858103835287818151815260200191508051906020019080838360005b838110156105b1578082015181840152602081019050610596565b50505050905090810190601f1680156105de5780820380516001836020036101000a031916815260200191505b50858103825286818151815260200191508051906020019080838360005b838110156106175780820151818401526020810190506105fc565b50505050905090810190601f1680156106445780820380516001836020036101000a031916815260200191505b509a505050505050505050505060405180910390f35b61071d6004803603604081101561067057600080fd5b81019080803590602001909291908035906020019064010000000081111561069757600080fd5b8201836020820111156106a957600080fd5b803590602001918460018302840111640100000000831117156106cb57600080fd5b91908080601f016020809104026020016040519081016040528093929190818152602001838380828437600081840152601f19601f8201169050808301925050505050505091929192905050506114f4565b005b61099d6004803603608081101561073557600080fd5b810190808035906020019064010000000081111561075257600080fd5b82018360208201111561076457600080fd5b8035906020019184600183028401116401000000008311171561078657600080fd5b91908080601f016020809104026020016040519081016040528093929190818152602001838380828437600081840152601f19601f820116905080830192505050505050509192919290803590602001906401000000008111156107e957600080fd5b8201836020820111156107fb57600080fd5b8035906020019184600183028401116401000000008311171561081d57600080fd5b91908080601f016020809104026020016040519081016040528093929190818152602001838380828437600081840152601f19601f8201169050808301925050505050505091929192908035906020019064010000000081111561088057600080fd5b82018360208201111561089257600080fd5b803590602001918460018302840111640100000000831117156108b457600080fd5b91908080601f016020809104026020016040519081016040528093929190818152602001838380828437600081840152601f19601f8201169050808301925050505050505091929192908035906020019064010000000081111561091757600080fd5b82018360208201111561092957600080fd5b8035906020019184600183028401116401000000008311171561094b57600080fd5b91908080601f016020809104026020016040519081016040528093929190818152602001838380828437600081840152601f19601f8201169050808301925050505050505091929192905050506115a3565b6040518082815260200191505060405180910390f35b6109ff600480360360408110156109c957600080fd5b8101908080359060200190929190803573ffffffffffffffffffffffffffffffffffffffff169060200190929190505050611776565b604051808215151515815260200191505060405180910390f35b610adc60048036036040811015610a2f57600080fd5b810190808035906020019092919080359060200190640100000000811115610a5657600080fd5b820183602082011115610a6857600080fd5b80359060200191846001830284011164010000000083111715610a8a57600080fd5b91908080601f016020809104026020016040519081016040528093929190818152602001838380828437600081840152601f19601f820116905080830192505050505050509192919290505050611856565b005b610b1460048036036040811015610af457600080fd5b810190808035906020019092919080359060200190929190505050611905565b005b610b4c60048036036040811015610b2c57600080fd5b8101908080359060200190929190803590602001909291905050506119c9565b005b610b7a60048036036020811015610b6457600080fd5b8101908080359060200190929190505050611a8c565b6040518080602001828103825283818151815260200191508051906020019080838360005b83811015610bba578082015181840152602081019050610b9f565b50505050905090810190601f168015610be75780820380516001836020036101000a031916815260200191505b509250505060405180910390f35b610c3760048036036020811015610c0b57600080fd5b81019080803573ffffffffffffffffffffffffffffffffffffffff169060200190929190505050611bc4565b604051808215151515815260200191505060405180910390f35b610d1460048036036040811015610c6757600080fd5b810190808035906020019092919080359060200190640100000000811115610c8e57600080fd5b820183602082011115610ca057600080fd5b80359060200191846001830284011164010000000083111715610cc257600080fd5b91908080601f016020809104026020016040519081016040528093929190818152602001838380828437600081840152601f19601f820116905080830192505050505050509192919290505050611c69565b005b6060816000548110610d2757600080fd5b823273ffffffffffffffffffffffffffffffffffffffff166001600083815260200190815260200160002060000160009054906101000a900473ffffffffffffffffffffffffffffffffffffffff1673ffffffffffffffffffffffffffffffffffffffff1614610d9657600080fd5b600160008581526020019081526020016000206002018054600181600116156101000203166002900480601f016020809104026020016040519081016040528092919081815260200182805460018160011615610100020316600290048015610e405780601f10610e1557610100808354040283529160200191610e40565b820191906000526020600020905b815481529060010190602001808311610e2357829003601f168201915b505050505092505050919050565b6060816000548110610e5f57600080fd5b823273ffffffffffffffffffffffffffffffffffffffff166001600083815260200190815260200160002060000160009054906101000a900473ffffffffffffffffffffffffffffffffffffffff1673ffffffffffffffffffffffffffffffffffffffff1614610ece57600080fd5b600160008581526020019081526020016000206003018054600181600116156101000203166002900480601f016020809104026020016040519081016040528092919081815260200182805460018160011615610100020316600290048015610f785780601f10610f4d57610100808354040283529160200191610f78565b820191906000526020600020905b815481529060010190602001808311610f5b57829003601f168201915b505050505092505050919050565b6060816000548110610f9757600080fd5b823273ffffffffffffffffffffffffffffffffffffffff166001600083815260200190815260200160002060000160009054906101000a900473ffffffffffffffffffffffffffffffffffffffff1673ffffffffffffffffffffffffffffffffffffffff161461100657600080fd5b600160008581526020019081526020016000206005018054600181600116156101000203166002900480601f0160208091040260200160405190810160405280929190818152602001828054600181600116156101000203166002900480156110b05780601f10611085576101008083540402835291602001916110b0565b820191906000526020600020905b81548152906001019060200180831161109357829003601f168201915b505050505092505050919050565b8160005481106110cd57600080fd5b823273ffffffffffffffffffffffffffffffffffffffff166001600083815260200190815260200160002060000160009054906101000a900473ffffffffffffffffffffffffffffffffffffffff1673ffffffffffffffffffffffffffffffffffffffff161461113c57600080fd5b82600160008681526020019081526020016000206002019080519060200190611166929190611d18565b5050505050565b60005481565b600080600090505b600054811015611205578273ffffffffffffffffffffffffffffffffffffffff166001600083815260200190815260200160002060000160009054906101000a900473ffffffffffffffffffffffffffffffffffffffff1673ffffffffffffffffffffffffffffffffffffffff1614156111f85780915050611233565b808060010191505061117b565b507fe22a148a0a3a6f21d7b5a1276fdb67f1e21e87d00e9799cda356fa16a6e3ea5760405160405180910390a15b919050565b60016020528060005260406000206000915090508060000160009054906101000a900473ffffffffffffffffffffffffffffffffffffffff1690806001015490806002018054600181600116156101000203166002900480601f0160208091040260200160405190810160405280929190818152602001828054600181600116156101000203166002900480156113105780601f106112e557610100808354040283529160200191611310565b820191906000526020600020905b8154815290600101906020018083116112f357829003601f168201915b505050505090806003018054600181600116156101000203166002900480601f0160208091040260200160405190810160405280929190818152602001828054600181600116156101000203166002900480156113ae5780601f10611383576101008083540402835291602001916113ae565b820191906000526020600020905b81548152906001019060200180831161139157829003601f168201915b505050505090806004018054600181600116156101000203166002900480601f01602080910402602001604051908101604052809291908181526020018280546001816001161561010002031660029004801561144c5780601f106114215761010080835404028352916020019161144c565b820191906000526020600020905b81548152906001019060200180831161142f57829003601f168201915b505050505090806005018054600181600116156101000203166002900480601f0160208091040260200160405190810160405280929190818152602001828054600181600116156101000203166002900480156114ea5780601f106114bf576101008083540402835291602001916114ea565b820191906000526020600020905b8154815290600101906020018083116114cd57829003601f168201915b5050505050905086565b81600054811061150357600080fd5b823273ffffffffffffffffffffffffffffffffffffffff166001600083815260200190815260200160002060000160009054906101000a900473ffffffffffffffffffffffffffffffffffffffff1673ffffffffffffffffffffffffffffffffffffffff161461157257600080fd5b8260016000868152602001908152602001600020600501908051906020019061159c929190611d18565b5050505050565b6000806000808154809291906001019190505590506115c0611d98565b8181602001818152505033816000019073ffffffffffffffffffffffffffffffffffffffff16908173ffffffffffffffffffffffffffffffffffffffff1681525050868160400181905250858160600181905250848160800181905250838160a00181905250806001600084815260200190815260200160002060008201518160000160006101000a81548173ffffffffffffffffffffffffffffffffffffffff021916908373ffffffffffffffffffffffffffffffffffffffff1602179055506020820151816001015560408201518160020190805190602001906116a7929190611de4565b5060608201518160030190805190602001906116c4929190611de4565b5060808201518160040190805190602001906116e1929190611de4565b5060a08201518160050190805190602001906116fe929190611de4565b509050507f69908b2e63170aa89ef89719bbe3b4c92cccc38653968ab25f4464eff7c28ac88160000151604051808273ffffffffffffffffffffffffffffffffffffffff1673ffffffffffffffffffffffffffffffffffffffff16815260200191505060405180910390a18192505050949350505050565b600080600090505b60005481101561184a5760006001600083815260200190815260200160002090508373ffffffffffffffffffffffffffffffffffffffff168160000160009054906101000a900473ffffffffffffffffffffffffffffffffffffffff1673ffffffffffffffffffffffffffffffffffffffff16141561183c576001151581600601600087815260200190815260200160002060009054906101000a900460ff161515141561183157600192505050611850565b600092505050611850565b50808060010191505061177e565b50600090505b92915050565b81600054811061186557600080fd5b823273ffffffffffffffffffffffffffffffffffffffff166001600083815260200190815260200160002060000160009054906101000a900473ffffffffffffffffffffffffffffffffffffffff1673ffffffffffffffffffffffffffffffffffffffff16146118d457600080fd5b826001600086815260200190815260200160002060040190805190602001906118fe929190611d18565b5050505050565b81600054811061191457600080fd5b823273ffffffffffffffffffffffffffffffffffffffff166001600083815260200190815260200160002060000160009054906101000a900473ffffffffffffffffffffffffffffffffffffffff1673ffffffffffffffffffffffffffffffffffffffff161461198357600080fd5b600060016000868152602001908152602001600020600601600085815260200190815260200160002060006101000a81548160ff02191690831515021790555050505050565b8160005481106119d857600080fd5b823273ffffffffffffffffffffffffffffffffffffffff166001600083815260200190815260200160002060000160009054906101000a900473ffffffffffffffffffffffffffffffffffffffff1673ffffffffffffffffffffffffffffffffffffffff1614611a4757600080fd5b6001806000868152602001908152602001600020600601600085815260200190815260200160002060006101000a81548160ff02191690831515021790555050505050565b6060816000548110611a9d57600080fd5b823273ffffffffffffffffffffffffffffffffffffffff166001600083815260200190815260200160002060000160009054906101000a900473ffffffffffffffffffffffffffffffffffffffff1673ffffffffffffffffffffffffffffffffffffffff1614611b0c57600080fd5b600160008581526020019081526020016000206004018054600181600116156101000203166002900480601f016020809104026020016040519081016040528092919081815260200182805460018160011615610100020316600290048015611bb65780601f10611b8b57610100808354040283529160200191611bb6565b820191906000526020600020905b815481529060010190602001808311611b9957829003601f168201915b505050505092505050919050565b600080600090505b600054811015611c5e5760006001600083815260200190815260200160002090508373ffffffffffffffffffffffffffffffffffffffff168160000160009054906101000a900473ffffffffffffffffffffffffffffffffffffffff1673ffffffffffffffffffffffffffffffffffffffff161415611c5057600192505050611c64565b508080600101915050611bcc565b50600090505b919050565b816000548110611c7857600080fd5b823273ffffffffffffffffffffffffffffffffffffffff166001600083815260200190815260200160002060000160009054906101000a900473ffffffffffffffffffffffffffffffffffffffff1673ffffffffffffffffffffffffffffffffffffffff1614611ce757600080fd5b82600160008681526020019081526020016000206003019080519060200190611d11929190611d18565b5050505050565b828054600181600116156101000203166002900490600052602060002090601f016020900481019282601f10611d5957805160ff1916838001178555611d87565b82800160010185558215611d87579182015b82811115611d86578251825591602001919060010190611d6b565b5b509050611d949190611e64565b5090565b6040518060c00160405280600073ffffffffffffffffffffffffffffffffffffffff16815260200160008152602001606081526020016060815260200160608152602001606081525090565b828054600181600116156101000203166002900490600052602060002090601f016020900481019282601f10611e2557805160ff1916838001178555611e53565b82800160010185558215611e53579182015b82811115611e52578251825591602001919060010190611e37565b5b509050611e609190611e64565b5090565b611e8691905b80821115611e82576000816000905550600101611e6a565b5090565b9056fea265627a7a7231582085c21fb69f177c68495558fb1c2acb26445e9f38a78dbf883dd3fbb98b8cb32564736f6c63430005110032",
  "source": "pragma solidity ^0.5.0;\n\nimport \"./EHR.sol\";\n\ncontract Doctor {\n\n    struct doctor {\n        address owner;\n        uint256 doctorId;\n        string firstName;\n        string lastName;\n        string emailAddress;\n        string dob;\n \n        mapping(uint256 => bool) patients;\n        mapping(uint256 => bool) records;\n    }\n\n    uint256 public numDoctors = 0;\n    mapping(uint256 => doctor) public doctors;\n\n    // function to create doctor\n    function create(string memory _firstName, string memory _lastName, string memory _emailAddress, string memory _dob) public returns(uint256) {\n\n        uint256 newDoctorId = numDoctors++;\n\n        doctor memory newDoctor;\n        newDoctor.doctorId = newDoctorId;\n        newDoctor.owner = msg.sender;\n        newDoctor.firstName = _firstName;\n        newDoctor.lastName = _lastName;\n        newDoctor.emailAddress = _emailAddress;\n        newDoctor.dob = _dob;\n\n        doctors[newDoctorId] = newDoctor;\n        emit DoctorAdded(newDoctor.owner);\n        return newDoctorId;\n    }\n\n\n    /********* EVENTS *********/\n\n    event DoctorAdded(address doctorAddress);\n    event AddressDoesNotBelongToAnyDoctor();\n\n\n    /********* MODIFIERS *********/\n\n\n    modifier ownerOnly(uint256 doctorId) {\n        require(doctors[doctorId].owner == tx.origin);\n        _;\n    }\n\n    modifier validDoctorId(uint256 doctorId) {\n        require(doctorId < numDoctors);\n        _;\n    }\n\n\n    /********* FUNCTIONS *********/\n\n    function isSender(address owner) public view returns(bool) {\n        for (uint i = 0; i < numDoctors; i++) {\n            doctor storage temp = doctors[i];\n            if (temp.owner == owner) {\n                return true;\n            }\n        }\n\n        return false;\n    }\n\n    function isPatientInListOfPatients(uint256 patientId, address owner) public view returns(bool) {\n        for (uint i = 0; i < numDoctors; i++) {\n            doctor storage temp = doctors[i];\n            if (temp.owner == owner) {\n                if (temp.patients[patientId] == true) {\n                    return true;\n                } else {\n                    return false;\n                }\n            }\n        }\n\n        return false;\n    }\n\n    function registerPatient(uint256 doctorId, uint256 patientId) public validDoctorId(doctorId) ownerOnly(doctorId) {\n        doctors[doctorId].patients[patientId] = true;\n    }\n\n    function unregisterPatient(uint256 doctorId, uint256 patientId) public validDoctorId(doctorId) ownerOnly(doctorId) {\n        doctors[doctorId].patients[patientId] = false;\n    }\n\n\n    /********* GETTERS & SETTERS *********/\n\n    function getFirstName(uint256 doctorId) public view validDoctorId(doctorId) ownerOnly(doctorId) returns(string memory) {\n        return doctors[doctorId].firstName;\n    }\n\n    function setFirstName(uint256 doctorId, string memory _firstName) public validDoctorId(doctorId) ownerOnly(doctorId) {\n        doctors[doctorId].firstName = _firstName;\n    }\n\n    function getLastName(uint256 doctorId) public view validDoctorId(doctorId) ownerOnly(doctorId) returns(string memory) {\n        return doctors[doctorId].lastName;\n    }\n\n    function setLastName(uint256 doctorId, string memory _lastName) public validDoctorId(doctorId) ownerOnly(doctorId) {\n        doctors[doctorId].lastName = _lastName;\n    }\n\n    function getEmailAddress(uint256 doctorId) public view validDoctorId(doctorId) ownerOnly(doctorId) returns(string memory) {\n        return doctors[doctorId].emailAddress;\n    }\n\n    function setEmailAddress(uint256 doctorId, string memory _emailAddress) public validDoctorId(doctorId) ownerOnly(doctorId) {\n        doctors[doctorId].emailAddress = _emailAddress;\n    }\n\n    function getDob(uint256 doctorId) public view validDoctorId(doctorId) ownerOnly(doctorId) returns(string memory) {\n        return doctors[doctorId].dob;\n    }\n\n    function setDob(uint256 doctorId, string memory _dob) public validDoctorId(doctorId) ownerOnly(doctorId) {\n        doctors[doctorId].dob = _dob;\n    }\n\n    // get doctor's id from their address \n    function getDoctorIdFromDoctorAddress(address doctorAddress) public returns (uint256) {\n        for (uint i = 0; i < numDoctors; i++) {\n            if (doctors[i].owner == doctorAddress) {\n                return i;\n            }\n        }\n        emit AddressDoesNotBelongToAnyDoctor();\n    }\n}",
  "sourcePath": "/Users/aaronf/IS4302/is4302-project-medical-chain/contracts/Doctor.sol",
  "compiler": {
    "name": "solc",
    "version": "0.5.17+commit.d19bba13.Emscripten.clang"
  },
  "schemaVersion": "3.4.11",
  "updatedAt": "2023-04-08T14:22:53.889Z",
  "networkType": "ethereum",
  "devdoc": {
    "methods": {}
  },
  "userdoc": {
    "methods": {
      "getFirstName(uint256)": {
        "notice": "******* GETTERS & SETTERS ********"
      },
      "isSender(address)": {
        "notice": "******* FUNCTIONS ********"
      }
    }
  }
}