{
  "contractName": "Doctor",
  "abi": [
    {
      "inputs": [
        {
          "internalType": "contract EHR",
          "name": "ehrAddress",
          "type": "address"
        }
      ],
      "payable": false,
      "stateMutability": "nonpayable",
      "type": "constructor"
    },
    {
      "anonymous": false,
      "inputs": [],
      "name": "AddressDoesNotBelongToAnyDoctor",
      "type": "event"
    },
    {
      "anonymous": false,
      "inputs": [
        {
          "indexed": false,
          "internalType": "address",
          "name": "doctorAddress",
          "type": "address"
        }
      ],
      "name": "DoctorAdded",
      "type": "event"
    },
    {
      "constant": true,
      "inputs": [
        {
          "internalType": "uint256",
          "name": "",
          "type": "uint256"
        }
      ],
      "name": "doctors",
      "outputs": [
        {
          "internalType": "address",
          "name": "owner",
          "type": "address"
        },
        {
          "internalType": "uint256",
          "name": "doctorId",
          "type": "uint256"
        },
        {
          "internalType": "string",
          "name": "firstName",
          "type": "string"
        },
        {
          "internalType": "string",
          "name": "lastName",
          "type": "string"
        },
        {
          "internalType": "string",
          "name": "emailAddress",
          "type": "string"
        },
        {
          "internalType": "string",
          "name": "dob",
          "type": "string"
        }
      ],
      "payable": false,
      "stateMutability": "view",
      "type": "function"
    },
    {
      "constant": true,
      "inputs": [],
      "name": "numDoctors",
      "outputs": [
        {
          "internalType": "uint256",
          "name": "",
          "type": "uint256"
        }
      ],
      "payable": false,
      "stateMutability": "view",
      "type": "function"
    },
    {
      "constant": false,
      "inputs": [
        {
          "internalType": "string",
          "name": "_firstName",
          "type": "string"
        },
        {
          "internalType": "string",
          "name": "_lastName",
          "type": "string"
        },
        {
          "internalType": "string",
          "name": "_emailAddress",
          "type": "string"
        },
        {
          "internalType": "string",
          "name": "_dob",
          "type": "string"
        }
      ],
      "name": "create",
      "outputs": [
        {
          "internalType": "uint256",
          "name": "",
          "type": "uint256"
        }
      ],
      "payable": false,
      "stateMutability": "nonpayable",
      "type": "function"
    },
    {
      "constant": true,
      "inputs": [
        {
          "internalType": "uint256",
          "name": "doctorId",
          "type": "uint256"
        }
      ],
      "name": "isValidDoctorId",
      "outputs": [
        {
          "internalType": "bool",
          "name": "",
          "type": "bool"
        }
      ],
      "payable": false,
      "stateMutability": "view",
      "type": "function"
    },
    {
      "constant": true,
      "inputs": [
        {
          "internalType": "address",
          "name": "owner",
          "type": "address"
        }
      ],
      "name": "isSender",
      "outputs": [
        {
          "internalType": "bool",
          "name": "",
          "type": "bool"
        }
      ],
      "payable": false,
      "stateMutability": "view",
      "type": "function"
    },
    {
      "constant": true,
      "inputs": [
        {
          "internalType": "uint256",
          "name": "patientId",
          "type": "uint256"
        },
        {
          "internalType": "address",
          "name": "owner",
          "type": "address"
        }
      ],
      "name": "isPatientInListOfPatients",
      "outputs": [
        {
          "internalType": "bool",
          "name": "",
          "type": "bool"
        }
      ],
      "payable": false,
      "stateMutability": "view",
      "type": "function"
    },
    {
      "constant": true,
      "inputs": [
        {
          "internalType": "uint256",
          "name": "doctorId",
          "type": "uint256"
        },
        {
          "internalType": "uint256",
          "name": "patientId",
          "type": "uint256"
        }
      ],
      "name": "getIsPatientRegistered",
      "outputs": [
        {
          "internalType": "bool",
          "name": "",
          "type": "bool"
        }
      ],
      "payable": false,
      "stateMutability": "view",
      "type": "function"
    },
    {
      "constant": false,
      "inputs": [
        {
          "internalType": "uint256",
          "name": "doctorId",
          "type": "uint256"
        },
        {
          "internalType": "uint256",
          "name": "patientId",
          "type": "uint256"
        }
      ],
      "name": "registerPatient",
      "outputs": [],
      "payable": false,
      "stateMutability": "nonpayable",
      "type": "function"
    },
    {
      "constant": false,
      "inputs": [
        {
          "internalType": "uint256",
          "name": "doctorId",
          "type": "uint256"
        },
        {
          "internalType": "uint256",
          "name": "patientId",
          "type": "uint256"
        }
      ],
      "name": "unregisterPatient",
      "outputs": [],
      "payable": false,
      "stateMutability": "nonpayable",
      "type": "function"
    },
    {
      "constant": true,
      "inputs": [
        {
          "internalType": "uint256",
          "name": "doctorId",
          "type": "uint256"
        }
      ],
      "name": "getDoctorAddressFromDoctorId",
      "outputs": [
        {
          "internalType": "address",
          "name": "",
          "type": "address"
        }
      ],
      "payable": false,
      "stateMutability": "view",
      "type": "function"
    },
    {
      "constant": true,
      "inputs": [
        {
          "internalType": "address",
          "name": "patientAddress",
          "type": "address"
        },
        {
          "internalType": "uint256",
          "name": "patientNoOfRecords",
          "type": "uint256"
        }
      ],
      "name": "doctorViewAllRecords",
      "outputs": [
        {
          "internalType": "uint256[]",
          "name": "",
          "type": "uint256[]"
        }
      ],
      "payable": false,
      "stateMutability": "view",
      "type": "function"
    },
    {
      "constant": true,
      "inputs": [
        {
          "internalType": "uint256",
          "name": "doctorId",
          "type": "uint256"
        }
      ],
      "name": "getFirstName",
      "outputs": [
        {
          "internalType": "string",
          "name": "",
          "type": "string"
        }
      ],
      "payable": false,
      "stateMutability": "view",
      "type": "function"
    },
    {
      "constant": false,
      "inputs": [
        {
          "internalType": "uint256",
          "name": "doctorId",
          "type": "uint256"
        },
        {
          "internalType": "string",
          "name": "_firstName",
          "type": "string"
        }
      ],
      "name": "setFirstName",
      "outputs": [],
      "payable": false,
      "stateMutability": "nonpayable",
      "type": "function"
    },
    {
      "constant": true,
      "inputs": [
        {
          "internalType": "uint256",
          "name": "doctorId",
          "type": "uint256"
        }
      ],
      "name": "getLastName",
      "outputs": [
        {
          "internalType": "string",
          "name": "",
          "type": "string"
        }
      ],
      "payable": false,
      "stateMutability": "view",
      "type": "function"
    },
    {
      "constant": false,
      "inputs": [
        {
          "internalType": "uint256",
          "name": "doctorId",
          "type": "uint256"
        },
        {
          "internalType": "string",
          "name": "_lastName",
          "type": "string"
        }
      ],
      "name": "setLastName",
      "outputs": [],
      "payable": false,
      "stateMutability": "nonpayable",
      "type": "function"
    },
    {
      "constant": true,
      "inputs": [
        {
          "internalType": "uint256",
          "name": "doctorId",
          "type": "uint256"
        }
      ],
      "name": "getEmailAddress",
      "outputs": [
        {
          "internalType": "string",
          "name": "",
          "type": "string"
        }
      ],
      "payable": false,
      "stateMutability": "view",
      "type": "function"
    },
    {
      "constant": false,
      "inputs": [
        {
          "internalType": "uint256",
          "name": "doctorId",
          "type": "uint256"
        },
        {
          "internalType": "string",
          "name": "_emailAddress",
          "type": "string"
        }
      ],
      "name": "setEmailAddress",
      "outputs": [],
      "payable": false,
      "stateMutability": "nonpayable",
      "type": "function"
    },
    {
      "constant": true,
      "inputs": [
        {
          "internalType": "uint256",
          "name": "doctorId",
          "type": "uint256"
        }
      ],
      "name": "getDob",
      "outputs": [
        {
          "internalType": "string",
          "name": "",
          "type": "string"
        }
      ],
      "payable": false,
      "stateMutability": "view",
      "type": "function"
    },
    {
      "constant": false,
      "inputs": [
        {
          "internalType": "uint256",
          "name": "doctorId",
          "type": "uint256"
        },
        {
          "internalType": "string",
          "name": "_dob",
          "type": "string"
        }
      ],
      "name": "setDob",
      "outputs": [],
      "payable": false,
      "stateMutability": "nonpayable",
      "type": "function"
    },
    {
      "constant": true,
      "inputs": [
        {
          "internalType": "address",
          "name": "doctorAddress",
          "type": "address"
        }
      ],
      "name": "getDoctorIdFromDoctorAddress",
      "outputs": [
        {
          "internalType": "uint256",
          "name": "",
          "type": "uint256"
        }
      ],
      "payable": false,
      "stateMutability": "view",
      "type": "function"
    }
  ],
  "bytecode": "0x6080604052600060015534801561001557600080fd5b506040516122a83803806122a88339818101604052602081101561003857600080fd5b8101908080519060200190929190505050806000806101000a81548173ffffffffffffffffffffffffffffffffffffffff021916908373ffffffffffffffffffffffffffffffffffffffff1602179055505061220f806100996000396000f3fe608060405234801561001057600080fd5b506004361061012c5760003560e01c806378ff6ee3116100ad578063ab16ae2a11610071578063ab16ae2a14610cb1578063ae185dce14610ce9578063e31e750c14610d21578063e384346314610dc8578063fcda42c714610e245761012c565b806378ff6ee3146107ff5780639cc5804814610a935780639da1afdb14610af95780639ebd51f814610b49578063a9a3870314610c0e5761012c565b80635c6a5bb1116100f45780635c6a5bb1146104595780635fc7fc6414610477578063632b7bf0146104bd5780636efb1b841461051557806371f26a5c1461073a5761012c565b8063172a56c114610131578063174029f6146101d85780631851611c1461027f5780632013fd1e146102ed5780633a17f75a14610394575b600080fd5b61015d6004803603602081101561014757600080fd5b8101908080359060200190929190505050610ee9565b6040518080602001828103825283818151815260200191508051906020019080838360005b8381101561019d578082015181840152602081019050610182565b50505050905090810190601f1680156101ca5780820380516001836020036101000a031916815260200191505b509250505060405180910390f35b610204600480360360208110156101ee57600080fd5b8101908080359060200190929190505050611021565b6040518080602001828103825283818151815260200191508051906020019080838360005b83811015610244578082015181840152602081019050610229565b50505050905090810190601f1680156102715780820380516001836020036101000a031916815260200191505b509250505060405180910390f35b6102ab6004803603602081101561029557600080fd5b8101908080359060200190929190505050611159565b604051808273ffffffffffffffffffffffffffffffffffffffff1673ffffffffffffffffffffffffffffffffffffffff16815260200191505060405180910390f35b6103196004803603602081101561030357600080fd5b8101908080359060200190929190505050611199565b6040518080602001828103825283818151815260200191508051906020019080838360005b8381101561035957808201518184015260208101905061033e565b50505050905090810190601f1680156103865780820380516001836020036101000a031916815260200191505b509250505060405180910390f35b610457600480360360408110156103aa57600080fd5b8101908080359060200190929190803590602001906401000000008111156103d157600080fd5b8201836020820111156103e357600080fd5b8035906020019184600183028401116401000000008311171561040557600080fd5b91908080601f016020809104026020016040519081016040528093929190818152602001838380828437600081840152601f19601f8201169050808301925050505050505091929192905050506112d1565b005b610461611380565b6040518082815260200191505060405180910390f35b6104a36004803603602081101561048d57600080fd5b8101908080359060200190929190505050611386565b604051808215151515815260200191505060405180910390f35b6104ff600480360360208110156104d357600080fd5b81019080803573ffffffffffffffffffffffffffffffffffffffff1690602001909291905050506113a5565b6040518082815260200191505060405180910390f35b6105416004803603602081101561052b57600080fd5b810190808035906020019092919050505061143e565b604051808773ffffffffffffffffffffffffffffffffffffffff1673ffffffffffffffffffffffffffffffffffffffff16815260200186815260200180602001806020018060200180602001858103855289818151815260200191508051906020019080838360005b838110156105c55780820151818401526020810190506105aa565b50505050905090810190601f1680156105f25780820380516001836020036101000a031916815260200191505b50858103845288818151815260200191508051906020019080838360005b8381101561062b578082015181840152602081019050610610565b50505050905090810190601f1680156106585780820380516001836020036101000a031916815260200191505b50858103835287818151815260200191508051906020019080838360005b83811015610691578082015181840152602081019050610676565b50505050905090810190601f1680156106be5780820380516001836020036101000a031916815260200191505b50858103825286818151815260200191508051906020019080838360005b838110156106f75780820151818401526020810190506106dc565b50505050905090810190601f1680156107245780820380516001836020036101000a031916815260200191505b509a505050505050505050505060405180910390f35b6107fd6004803603604081101561075057600080fd5b81019080803590602001909291908035906020019064010000000081111561077757600080fd5b82018360208201111561078957600080fd5b803590602001918460018302840111640100000000831117156107ab57600080fd5b91908080601f016020809104026020016040519081016040528093929190818152602001838380828437600081840152601f19601f8201169050808301925050505050505091929192905050506116fa565b005b610a7d6004803603608081101561081557600080fd5b810190808035906020019064010000000081111561083257600080fd5b82018360208201111561084457600080fd5b8035906020019184600183028401116401000000008311171561086657600080fd5b91908080601f016020809104026020016040519081016040528093929190818152602001838380828437600081840152601f19601f820116905080830192505050505050509192919290803590602001906401000000008111156108c957600080fd5b8201836020820111156108db57600080fd5b803590602001918460018302840111640100000000831117156108fd57600080fd5b91908080601f016020809104026020016040519081016040528093929190818152602001838380828437600081840152601f19601f8201169050808301925050505050505091929192908035906020019064010000000081111561096057600080fd5b82018360208201111561097257600080fd5b8035906020019184600183028401116401000000008311171561099457600080fd5b91908080601f016020809104026020016040519081016040528093929190818152602001838380828437600081840152601f19601f820116905080830192505050505050509192919290803590602001906401000000008111156109f757600080fd5b820183602082011115610a0957600080fd5b80359060200191846001830284011164010000000083111715610a2b57600080fd5b91908080601f016020809104026020016040519081016040528093929190818152602001838380828437600081840152601f19601f8201169050808301925050505050505091929192905050506117a9565b6040518082815260200191505060405180910390f35b610adf60048036036040811015610aa957600080fd5b8101908080359060200190929190803573ffffffffffffffffffffffffffffffffffffffff16906020019092919050505061197d565b604051808215151515815260200191505060405180910390f35b610b2f60048036036040811015610b0f57600080fd5b810190808035906020019092919080359060200190929190505050611a5d565b604051808215151515815260200191505060405180910390f35b610c0c60048036036040811015610b5f57600080fd5b810190808035906020019092919080359060200190640100000000811115610b8657600080fd5b820183602082011115610b9857600080fd5b80359060200191846001830284011164010000000083111715610bba57600080fd5b91908080601f016020809104026020016040519081016040528093929190818152602001838380828437600081840152601f19601f820116905080830192505050505050509192919290505050611a9c565b005b610c5a60048036036040811015610c2457600080fd5b81019080803573ffffffffffffffffffffffffffffffffffffffff16906020019092919080359060200190929190505050611b4b565b6040518080602001828103825283818151815260200191508051906020019060200280838360005b83811015610c9d578082015181840152602081019050610c82565b505050509050019250505060405180910390f35b610ce760048036036040811015610cc757600080fd5b810190808035906020019092919080359060200190929190505050611d55565b005b610d1f60048036036040811015610cff57600080fd5b810190808035906020019092919080359060200190929190505050611d99565b005b610d4d60048036036020811015610d3757600080fd5b8101908080359060200190929190505050611ddd565b6040518080602001828103825283818151815260200191508051906020019080838360005b83811015610d8d578082015181840152602081019050610d72565b50505050905090810190601f168015610dba5780820380516001836020036101000a031916815260200191505b509250505060405180910390f35b610e0a60048036036020811015610dde57600080fd5b81019080803573ffffffffffffffffffffffffffffffffffffffff169060200190929190505050611f15565b604051808215151515815260200191505060405180910390f35b610ee760048036036040811015610e3a57600080fd5b810190808035906020019092919080359060200190640100000000811115610e6157600080fd5b820183602082011115610e7357600080fd5b80359060200191846001830284011164010000000083111715610e9557600080fd5b91908080601f016020809104026020016040519081016040528093929190818152602001838380828437600081840152601f19601f820116905080830192505050505050509192919290505050611fba565b005b6060816001548110610efa57600080fd5b823273ffffffffffffffffffffffffffffffffffffffff166002600083815260200190815260200160002060000160009054906101000a900473ffffffffffffffffffffffffffffffffffffffff1673ffffffffffffffffffffffffffffffffffffffff1614610f6957600080fd5b600260008581526020019081526020016000206002018054600181600116156101000203166002900480601f0160208091040260200160405190810160405280929190818152602001828054600181600116156101000203166002900480156110135780601f10610fe857610100808354040283529160200191611013565b820191906000526020600020905b815481529060010190602001808311610ff657829003601f168201915b505050505092505050919050565b606081600154811061103257600080fd5b823273ffffffffffffffffffffffffffffffffffffffff166002600083815260200190815260200160002060000160009054906101000a900473ffffffffffffffffffffffffffffffffffffffff1673ffffffffffffffffffffffffffffffffffffffff16146110a157600080fd5b600260008581526020019081526020016000206003018054600181600116156101000203166002900480601f01602080910402602001604051908101604052809291908181526020018280546001816001161561010002031660029004801561114b5780601f106111205761010080835404028352916020019161114b565b820191906000526020600020905b81548152906001019060200180831161112e57829003601f168201915b505050505092505050919050565b60006002600083815260200190815260200160002060000160009054906101000a900473ffffffffffffffffffffffffffffffffffffffff169050919050565b60608160015481106111aa57600080fd5b823273ffffffffffffffffffffffffffffffffffffffff166002600083815260200190815260200160002060000160009054906101000a900473ffffffffffffffffffffffffffffffffffffffff1673ffffffffffffffffffffffffffffffffffffffff161461121957600080fd5b600260008581526020019081526020016000206005018054600181600116156101000203166002900480601f0160208091040260200160405190810160405280929190818152602001828054600181600116156101000203166002900480156112c35780601f10611298576101008083540402835291602001916112c3565b820191906000526020600020905b8154815290600101906020018083116112a657829003601f168201915b505050505092505050919050565b8160015481106112e057600080fd5b823273ffffffffffffffffffffffffffffffffffffffff166002600083815260200190815260200160002060000160009054906101000a900473ffffffffffffffffffffffffffffffffffffffff1673ffffffffffffffffffffffffffffffffffffffff161461134f57600080fd5b82600260008681526020019081526020016000206002019080519060200190611379929190612069565b5050505050565b60015481565b600060015482101561139b57600190506113a0565b600090505b919050565b600080600090505b600154811015611437578273ffffffffffffffffffffffffffffffffffffffff166002600083815260200190815260200160002060000160009054906101000a900473ffffffffffffffffffffffffffffffffffffffff1673ffffffffffffffffffffffffffffffffffffffff16141561142a5780915050611439565b80806001019150506113ad565b505b919050565b60026020528060005260406000206000915090508060000160009054906101000a900473ffffffffffffffffffffffffffffffffffffffff1690806001015490806002018054600181600116156101000203166002900480601f0160208091040260200160405190810160405280929190818152602001828054600181600116156101000203166002900480156115165780601f106114eb57610100808354040283529160200191611516565b820191906000526020600020905b8154815290600101906020018083116114f957829003601f168201915b505050505090806003018054600181600116156101000203166002900480601f0160208091040260200160405190810160405280929190818152602001828054600181600116156101000203166002900480156115b45780601f10611589576101008083540402835291602001916115b4565b820191906000526020600020905b81548152906001019060200180831161159757829003601f168201915b505050505090806004018054600181600116156101000203166002900480601f0160208091040260200160405190810160405280929190818152602001828054600181600116156101000203166002900480156116525780601f1061162757610100808354040283529160200191611652565b820191906000526020600020905b81548152906001019060200180831161163557829003601f168201915b505050505090806005018054600181600116156101000203166002900480601f0160208091040260200160405190810160405280929190818152602001828054600181600116156101000203166002900480156116f05780601f106116c5576101008083540402835291602001916116f0565b820191906000526020600020905b8154815290600101906020018083116116d357829003601f168201915b5050505050905086565b81600154811061170957600080fd5b823273ffffffffffffffffffffffffffffffffffffffff166002600083815260200190815260200160002060000160009054906101000a900473ffffffffffffffffffffffffffffffffffffffff1673ffffffffffffffffffffffffffffffffffffffff161461177857600080fd5b826002600086815260200190815260200160002060050190805190602001906117a2929190612069565b5050505050565b600080600160008154809291906001019190505590506117c76120e9565b8181602001818152505033816000019073ffffffffffffffffffffffffffffffffffffffff16908173ffffffffffffffffffffffffffffffffffffffff1681525050868160400181905250858160600181905250848160800181905250838160a00181905250806002600084815260200190815260200160002060008201518160000160006101000a81548173ffffffffffffffffffffffffffffffffffffffff021916908373ffffffffffffffffffffffffffffffffffffffff1602179055506020820151816001015560408201518160020190805190602001906118ae929190612135565b5060608201518160030190805190602001906118cb929190612135565b5060808201518160040190805190602001906118e8929190612135565b5060a0820151816005019080519060200190611905929190612135565b509050507f69908b2e63170aa89ef89719bbe3b4c92cccc38653968ab25f4464eff7c28ac88160000151604051808273ffffffffffffffffffffffffffffffffffffffff1673ffffffffffffffffffffffffffffffffffffffff16815260200191505060405180910390a18192505050949350505050565b600080600090505b600154811015611a515760006002600083815260200190815260200160002090508373ffffffffffffffffffffffffffffffffffffffff168160000160009054906101000a900473ffffffffffffffffffffffffffffffffffffffff1673ffffffffffffffffffffffffffffffffffffffff161415611a43576001151581600601600087815260200190815260200160002060009054906101000a900460ff1615151415611a3857600192505050611a57565b600092505050611a57565b508080600101915050611985565b50600090505b92915050565b600060026000848152602001908152602001600020600601600083815260200190815260200160002060009054906101000a900460ff16905092915050565b816001548110611aab57600080fd5b823273ffffffffffffffffffffffffffffffffffffffff166002600083815260200190815260200160002060000160009054906101000a900473ffffffffffffffffffffffffffffffffffffffff1673ffffffffffffffffffffffffffffffffffffffff1614611b1a57600080fd5b82600260008681526020019081526020016000206004019080519060200190611b44929190612069565b5050505050565b60608082604051908082528060200260200182016040528015611b7d5781602001602082028038833980820191505090505b509050600080905060008090505b6000809054906101000a900473ffffffffffffffffffffffffffffffffffffffff1673ffffffffffffffffffffffffffffffffffffffff16637988d0566040518163ffffffff1660e01b815260040160206040518083038186803b158015611bf257600080fd5b505afa158015611c06573d6000803e3d6000fd5b505050506040513d6020811015611c1c57600080fd5b8101908080519060200190929190505050811015611d49576000809054906101000a900473ffffffffffffffffffffffffffffffffffffffff1673ffffffffffffffffffffffffffffffffffffffff16630224ad4482886040518363ffffffff1660e01b8152600401808381526020018273ffffffffffffffffffffffffffffffffffffffff1673ffffffffffffffffffffffffffffffffffffffff1681526020019250505060206040518083038186803b158015611cda57600080fd5b505afa158015611cee573d6000803e3d6000fd5b505050506040513d6020811015611d0457600080fd5b810190808051906020019092919050505015611d3c5780838381518110611d2757fe5b60200260200101818152505081806001019250505b8080600101915050611b8b565b50819250505092915050565b600060026000848152602001908152602001600020600601600083815260200190815260200160002060006101000a81548160ff0219169083151502179055505050565b600160026000848152602001908152602001600020600601600083815260200190815260200160002060006101000a81548160ff0219169083151502179055505050565b6060816001548110611dee57600080fd5b823273ffffffffffffffffffffffffffffffffffffffff166002600083815260200190815260200160002060000160009054906101000a900473ffffffffffffffffffffffffffffffffffffffff1673ffffffffffffffffffffffffffffffffffffffff1614611e5d57600080fd5b600260008581526020019081526020016000206004018054600181600116156101000203166002900480601f016020809104026020016040519081016040528092919081815260200182805460018160011615610100020316600290048015611f075780601f10611edc57610100808354040283529160200191611f07565b820191906000526020600020905b815481529060010190602001808311611eea57829003601f168201915b505050505092505050919050565b600080600090505b600154811015611faf5760006002600083815260200190815260200160002090508373ffffffffffffffffffffffffffffffffffffffff168160000160009054906101000a900473ffffffffffffffffffffffffffffffffffffffff1673ffffffffffffffffffffffffffffffffffffffff161415611fa157600192505050611fb5565b508080600101915050611f1d565b50600090505b919050565b816001548110611fc957600080fd5b823273ffffffffffffffffffffffffffffffffffffffff166002600083815260200190815260200160002060000160009054906101000a900473ffffffffffffffffffffffffffffffffffffffff1673ffffffffffffffffffffffffffffffffffffffff161461203857600080fd5b82600260008681526020019081526020016000206003019080519060200190612062929190612069565b5050505050565b828054600181600116156101000203166002900490600052602060002090601f016020900481019282601f106120aa57805160ff19168380011785556120d8565b828001600101855582156120d8579182015b828111156120d75782518255916020019190600101906120bc565b5b5090506120e591906121b5565b5090565b6040518060c00160405280600073ffffffffffffffffffffffffffffffffffffffff16815260200160008152602001606081526020016060815260200160608152602001606081525090565b828054600181600116156101000203166002900490600052602060002090601f016020900481019282601f1061217657805160ff19168380011785556121a4565b828001600101855582156121a4579182015b828111156121a3578251825591602001919060010190612188565b5b5090506121b191906121b5565b5090565b6121d791905b808211156121d35760008160009055506001016121bb565b5090565b9056fea265627a7a723158202f3fbecfd403610a266e2e115b7c0f67b35f6cad799c1790fd703feacb742a3b64736f6c63430005110032",
  "source": "pragma solidity ^0.5.0;\n\nimport \"./EHR.sol\";\n\ncontract Doctor {\n\n    EHR ehrContract;\n\n    constructor(EHR ehrAddress) public {\n        ehrContract = ehrAddress;\n  }\n\n    struct doctor {\n        address owner;\n        uint256 doctorId;\n        string firstName;\n        string lastName;\n        string emailAddress;\n        string dob;\n \n        mapping(uint256 => bool) patients;\n        mapping(uint256 => bool) records;\n    }\n\n    uint256 public numDoctors = 0;\n    mapping(uint256 => doctor) public doctors;\n\n    // function to create doctor\n    function create(string memory _firstName, string memory _lastName, string memory _emailAddress, string memory _dob) public returns(uint256) {\n\n        uint256 newDoctorId = numDoctors++;\n\n        doctor memory newDoctor;\n        newDoctor.doctorId = newDoctorId;\n        newDoctor.owner = msg.sender;\n        newDoctor.firstName = _firstName;\n        newDoctor.lastName = _lastName;\n        newDoctor.emailAddress = _emailAddress;\n        newDoctor.dob = _dob;\n\n        doctors[newDoctorId] = newDoctor;\n        emit DoctorAdded(newDoctor.owner);\n        return newDoctorId;\n    }\n\n\n    /********* EVENTS *********/\n\n    event DoctorAdded(address doctorAddress);\n    event AddressDoesNotBelongToAnyDoctor();\n\n\n    /********* MODIFIERS *********/\n\n\n    modifier ownerOnly(uint256 doctorId) {\n        require(doctors[doctorId].owner == tx.origin);\n        _;\n    }\n\n    modifier validDoctorId(uint256 doctorId) {\n        require(doctorId < numDoctors);\n        _;\n    }\n\n\n    /********* FUNCTIONS *********/\n\n    function isValidDoctorId(uint256 doctorId) public view returns (bool) {\n        if (doctorId < numDoctors) {\n            return true;\n        } else {\n            return false;\n        }\n    }\n\n    function isSender(address owner) public view returns(bool) {\n        for (uint i = 0; i < numDoctors; i++) {\n            doctor storage temp = doctors[i];\n            if (temp.owner == owner) {\n                return true;\n            }\n        }\n\n        return false;\n    }\n\n    function isPatientInListOfPatients(uint256 patientId, address owner) public view returns(bool) {\n        for (uint i = 0; i < numDoctors; i++) {\n            doctor storage temp = doctors[i];\n            if (temp.owner == owner) {\n                if (temp.patients[patientId] == true) {\n                    return true;\n                } else {\n                    return false;\n                }\n            }\n        }\n\n        return false;\n    }\n\n    function getIsPatientRegistered(uint256 doctorId, uint256 patientId) public view returns (bool) {\n        return doctors[doctorId].patients[patientId];\n    }\n\n    function registerPatient(uint256 doctorId, uint256 patientId) public {\n        doctors[doctorId].patients[patientId] = true;\n    }\n\n    function unregisterPatient(uint256 doctorId, uint256 patientId) public {\n        doctors[doctorId].patients[patientId] = false;\n    }\n\n    // get doctor's address from their id (used in medicalChain numberOfRecordByDoctor function)\n    function getDoctorAddressFromDoctorId(uint256 doctorId) public view returns (address) {\n        return doctors[doctorId].owner;\n    }\n\n    // Doctor: View all records belonging to this patient\n  // Returns all the recordIds\n  function doctorViewAllRecords(address patientAddress, uint256 patientNoOfRecords) public view returns (uint256[] memory) {\n    uint256[] memory patientRecordsId = new uint256[](patientNoOfRecords);\n    uint256 indexTracker = 0;\n    for (uint256 i = 0; i < ehrContract.numEHR(); i++) {\n        // record belongs to patient calling it\n        if (ehrContract.isRecordBelongToPatient(i, patientAddress)) {\n          patientRecordsId[indexTracker] = i;\n          indexTracker++;\n        }\n      }\n\n      return patientRecordsId;\n  }\n\n    /********* GETTERS & SETTERS *********/\n\n    function getFirstName(uint256 doctorId) public view validDoctorId(doctorId) ownerOnly(doctorId) returns(string memory) {\n        return doctors[doctorId].firstName;\n    }\n\n    function setFirstName(uint256 doctorId, string memory _firstName) public validDoctorId(doctorId) ownerOnly(doctorId) {\n        doctors[doctorId].firstName = _firstName;\n    }\n\n    function getLastName(uint256 doctorId) public view validDoctorId(doctorId) ownerOnly(doctorId) returns(string memory) {\n        return doctors[doctorId].lastName;\n    }\n\n    function setLastName(uint256 doctorId, string memory _lastName) public validDoctorId(doctorId) ownerOnly(doctorId) {\n        doctors[doctorId].lastName = _lastName;\n    }\n\n    function getEmailAddress(uint256 doctorId) public view validDoctorId(doctorId) ownerOnly(doctorId) returns(string memory) {\n        return doctors[doctorId].emailAddress;\n    }\n\n    function setEmailAddress(uint256 doctorId, string memory _emailAddress) public validDoctorId(doctorId) ownerOnly(doctorId) {\n        doctors[doctorId].emailAddress = _emailAddress;\n    }\n\n    function getDob(uint256 doctorId) public view validDoctorId(doctorId) ownerOnly(doctorId) returns(string memory) {\n        return doctors[doctorId].dob;\n    }\n\n    function setDob(uint256 doctorId, string memory _dob) public validDoctorId(doctorId) ownerOnly(doctorId) {\n        doctors[doctorId].dob = _dob;\n    }\n\n    // get doctor's id from their address \n    function getDoctorIdFromDoctorAddress(address doctorAddress) public view returns (uint256) {\n        for (uint i = 0; i < numDoctors; i++) {\n            if (doctors[i].owner == doctorAddress) {\n                return i;\n            }\n        }\n    }\n}",
  "sourcePath": "/Users/aaronf/IS4302/is4302-project-medical-chain/contracts/Doctor.sol",
  "compiler": {
    "name": "solc",
    "version": "0.5.17+commit.d19bba13.Emscripten.clang"
  },
  "schemaVersion": "3.4.11",
  "updatedAt": "2023-04-10T08:50:27.756Z",
  "networkType": "ethereum",
  "devdoc": {
    "methods": {}
  },
  "userdoc": {
    "methods": {
      "getFirstName(uint256)": {
        "notice": "******* GETTERS & SETTERS ********"
      },
      "isValidDoctorId(uint256)": {
        "notice": "******* FUNCTIONS ********"
      }
    }
  }
}