{
  "contractName": "Doctor",
  "abi": [
    {
      "anonymous": false,
      "inputs": [],
      "name": "AddressDoesNotBelongToAnyDoctor",
      "type": "event"
    },
    {
      "anonymous": false,
      "inputs": [
        {
          "indexed": false,
          "internalType": "address",
          "name": "doctorAddress",
          "type": "address"
        }
      ],
      "name": "DoctorAdded",
      "type": "event"
    },
    {
      "constant": true,
      "inputs": [
        {
          "internalType": "uint256",
          "name": "",
          "type": "uint256"
        }
      ],
      "name": "doctors",
      "outputs": [
        {
          "internalType": "address",
          "name": "owner",
          "type": "address"
        },
        {
          "internalType": "uint256",
          "name": "doctorId",
          "type": "uint256"
        },
        {
          "internalType": "string",
          "name": "firstName",
          "type": "string"
        },
        {
          "internalType": "string",
          "name": "lastName",
          "type": "string"
        },
        {
          "internalType": "string",
          "name": "emailAddress",
          "type": "string"
        },
        {
          "internalType": "string",
          "name": "dob",
          "type": "string"
        }
      ],
      "payable": false,
      "stateMutability": "view",
      "type": "function"
    },
    {
      "constant": true,
      "inputs": [],
      "name": "numDoctors",
      "outputs": [
        {
          "internalType": "uint256",
          "name": "",
          "type": "uint256"
        }
      ],
      "payable": false,
      "stateMutability": "view",
      "type": "function"
    },
    {
      "constant": false,
      "inputs": [
        {
          "internalType": "string",
          "name": "_firstName",
          "type": "string"
        },
        {
          "internalType": "string",
          "name": "_lastName",
          "type": "string"
        },
        {
          "internalType": "string",
          "name": "_emailAddress",
          "type": "string"
        },
        {
          "internalType": "string",
          "name": "_dob",
          "type": "string"
        }
      ],
      "name": "create",
      "outputs": [
        {
          "internalType": "uint256",
          "name": "",
          "type": "uint256"
        }
      ],
      "payable": false,
      "stateMutability": "nonpayable",
      "type": "function"
    },
    {
      "constant": true,
      "inputs": [
        {
          "internalType": "address",
          "name": "owner",
          "type": "address"
        }
      ],
      "name": "isSender",
      "outputs": [
        {
          "internalType": "bool",
          "name": "",
          "type": "bool"
        }
      ],
      "payable": false,
      "stateMutability": "view",
      "type": "function"
    },
    {
      "constant": true,
      "inputs": [
        {
          "internalType": "uint256",
          "name": "patientId",
          "type": "uint256"
        },
        {
          "internalType": "address",
          "name": "owner",
          "type": "address"
        }
      ],
      "name": "isPatientInListOfPatients",
      "outputs": [
        {
          "internalType": "bool",
          "name": "",
          "type": "bool"
        }
      ],
      "payable": false,
      "stateMutability": "view",
      "type": "function"
    },
    {
      "constant": true,
      "inputs": [
        {
          "internalType": "uint256",
          "name": "doctorId",
          "type": "uint256"
        }
      ],
      "name": "getFirstName",
      "outputs": [
        {
          "internalType": "string",
          "name": "",
          "type": "string"
        }
      ],
      "payable": false,
      "stateMutability": "view",
      "type": "function"
    },
    {
      "constant": false,
      "inputs": [
        {
          "internalType": "uint256",
          "name": "doctorId",
          "type": "uint256"
        },
        {
          "internalType": "string",
          "name": "_firstName",
          "type": "string"
        }
      ],
      "name": "setFirstName",
      "outputs": [],
      "payable": false,
      "stateMutability": "nonpayable",
      "type": "function"
    },
    {
      "constant": true,
      "inputs": [
        {
          "internalType": "uint256",
          "name": "doctorId",
          "type": "uint256"
        }
      ],
      "name": "getLastName",
      "outputs": [
        {
          "internalType": "string",
          "name": "",
          "type": "string"
        }
      ],
      "payable": false,
      "stateMutability": "view",
      "type": "function"
    },
    {
      "constant": false,
      "inputs": [
        {
          "internalType": "uint256",
          "name": "doctorId",
          "type": "uint256"
        },
        {
          "internalType": "string",
          "name": "_lastName",
          "type": "string"
        }
      ],
      "name": "setLastName",
      "outputs": [],
      "payable": false,
      "stateMutability": "nonpayable",
      "type": "function"
    },
    {
      "constant": true,
      "inputs": [
        {
          "internalType": "uint256",
          "name": "doctorId",
          "type": "uint256"
        }
      ],
      "name": "getEmailAddress",
      "outputs": [
        {
          "internalType": "string",
          "name": "",
          "type": "string"
        }
      ],
      "payable": false,
      "stateMutability": "view",
      "type": "function"
    },
    {
      "constant": false,
      "inputs": [
        {
          "internalType": "uint256",
          "name": "doctorId",
          "type": "uint256"
        },
        {
          "internalType": "string",
          "name": "_emailAddress",
          "type": "string"
        }
      ],
      "name": "setEmailAddress",
      "outputs": [],
      "payable": false,
      "stateMutability": "nonpayable",
      "type": "function"
    },
    {
      "constant": true,
      "inputs": [
        {
          "internalType": "uint256",
          "name": "doctorId",
          "type": "uint256"
        }
      ],
      "name": "getDob",
      "outputs": [
        {
          "internalType": "string",
          "name": "",
          "type": "string"
        }
      ],
      "payable": false,
      "stateMutability": "view",
      "type": "function"
    },
    {
      "constant": false,
      "inputs": [
        {
          "internalType": "uint256",
          "name": "doctorId",
          "type": "uint256"
        },
        {
          "internalType": "string",
          "name": "_dob",
          "type": "string"
        }
      ],
      "name": "setDob",
      "outputs": [],
      "payable": false,
      "stateMutability": "nonpayable",
      "type": "function"
    },
    {
      "constant": false,
      "inputs": [
        {
          "internalType": "address",
          "name": "doctorAddress",
          "type": "address"
        }
      ],
      "name": "getDoctorIdFromDoctorAddress",
      "outputs": [
        {
          "internalType": "uint256",
          "name": "",
          "type": "uint256"
        }
      ],
      "payable": false,
      "stateMutability": "nonpayable",
      "type": "function"
    }
  ],
  "bytecode": "0x60806040526000805534801561001457600080fd5b50611cb1806100246000396000f3fe608060405234801561001057600080fd5b50600436106100ea5760003560e01c806371f26a5c1161008c5780639ebd51f8116100665780639ebd51f814610a03578063e31e750c14610ac8578063e384346314610b6f578063fcda42c714610bcb576100ea565b806371f26a5c1461064457806378ff6ee3146107095780639cc580481461099d576100ea565b80633a17f75a116100c85780633a17f75a146102e45780635c6a5bb1146103a9578063632b7bf0146103c75780636efb1b841461041f576100ea565b8063172a56c1146100ef578063174029f6146101965780632013fd1e1461023d575b600080fd5b61011b6004803603602081101561010557600080fd5b8101908080359060200190929190505050610c90565b6040518080602001828103825283818151815260200191508051906020019080838360005b8381101561015b578082015181840152602081019050610140565b50505050905090810190601f1680156101885780820380516001836020036101000a031916815260200191505b509250505060405180910390f35b6101c2600480360360208110156101ac57600080fd5b8101908080359060200190929190505050610dc8565b6040518080602001828103825283818151815260200191508051906020019080838360005b838110156102025780820151818401526020810190506101e7565b50505050905090810190601f16801561022f5780820380516001836020036101000a031916815260200191505b509250505060405180910390f35b6102696004803603602081101561025357600080fd5b8101908080359060200190929190505050610f00565b6040518080602001828103825283818151815260200191508051906020019080838360005b838110156102a957808201518184015260208101905061028e565b50505050905090810190601f1680156102d65780820380516001836020036101000a031916815260200191505b509250505060405180910390f35b6103a7600480360360408110156102fa57600080fd5b81019080803590602001909291908035906020019064010000000081111561032157600080fd5b82018360208201111561033357600080fd5b8035906020019184600183028401116401000000008311171561035557600080fd5b91908080601f016020809104026020016040519081016040528093929190818152602001838380828437600081840152601f19601f820116905080830192505050505050509192919290505050611038565b005b6103b16110e7565b6040518082815260200191505060405180910390f35b610409600480360360208110156103dd57600080fd5b81019080803573ffffffffffffffffffffffffffffffffffffffff1690602001909291905050506110ed565b6040518082815260200191505060405180910390f35b61044b6004803603602081101561043557600080fd5b81019080803590602001909291905050506111b2565b604051808773ffffffffffffffffffffffffffffffffffffffff1673ffffffffffffffffffffffffffffffffffffffff16815260200186815260200180602001806020018060200180602001858103855289818151815260200191508051906020019080838360005b838110156104cf5780820151818401526020810190506104b4565b50505050905090810190601f1680156104fc5780820380516001836020036101000a031916815260200191505b50858103845288818151815260200191508051906020019080838360005b8381101561053557808201518184015260208101905061051a565b50505050905090810190601f1680156105625780820380516001836020036101000a031916815260200191505b50858103835287818151815260200191508051906020019080838360005b8381101561059b578082015181840152602081019050610580565b50505050905090810190601f1680156105c85780820380516001836020036101000a031916815260200191505b50858103825286818151815260200191508051906020019080838360005b838110156106015780820151818401526020810190506105e6565b50505050905090810190601f16801561062e5780820380516001836020036101000a031916815260200191505b509a505050505050505050505060405180910390f35b6107076004803603604081101561065a57600080fd5b81019080803590602001909291908035906020019064010000000081111561068157600080fd5b82018360208201111561069357600080fd5b803590602001918460018302840111640100000000831117156106b557600080fd5b91908080601f016020809104026020016040519081016040528093929190818152602001838380828437600081840152601f19601f82011690508083019250505050505050919291929050505061146e565b005b6109876004803603608081101561071f57600080fd5b810190808035906020019064010000000081111561073c57600080fd5b82018360208201111561074e57600080fd5b8035906020019184600183028401116401000000008311171561077057600080fd5b91908080601f016020809104026020016040519081016040528093929190818152602001838380828437600081840152601f19601f820116905080830192505050505050509192919290803590602001906401000000008111156107d357600080fd5b8201836020820111156107e557600080fd5b8035906020019184600183028401116401000000008311171561080757600080fd5b91908080601f016020809104026020016040519081016040528093929190818152602001838380828437600081840152601f19601f8201169050808301925050505050505091929192908035906020019064010000000081111561086a57600080fd5b82018360208201111561087c57600080fd5b8035906020019184600183028401116401000000008311171561089e57600080fd5b91908080601f016020809104026020016040519081016040528093929190818152602001838380828437600081840152601f19601f8201169050808301925050505050505091929192908035906020019064010000000081111561090157600080fd5b82018360208201111561091357600080fd5b8035906020019184600183028401116401000000008311171561093557600080fd5b91908080601f016020809104026020016040519081016040528093929190818152602001838380828437600081840152601f19601f82011690508083019250505050505050919291929050505061151d565b6040518082815260200191505060405180910390f35b6109e9600480360360408110156109b357600080fd5b8101908080359060200190929190803573ffffffffffffffffffffffffffffffffffffffff1690602001909291905050506116f0565b604051808215151515815260200191505060405180910390f35b610ac660048036036040811015610a1957600080fd5b810190808035906020019092919080359060200190640100000000811115610a4057600080fd5b820183602082011115610a5257600080fd5b80359060200191846001830284011164010000000083111715610a7457600080fd5b91908080601f016020809104026020016040519081016040528093929190818152602001838380828437600081840152601f19601f8201169050808301925050505050505091929192905050506117d0565b005b610af460048036036020811015610ade57600080fd5b810190808035906020019092919050505061187f565b6040518080602001828103825283818151815260200191508051906020019080838360005b83811015610b34578082015181840152602081019050610b19565b50505050905090810190601f168015610b615780820380516001836020036101000a031916815260200191505b509250505060405180910390f35b610bb160048036036020811015610b8557600080fd5b81019080803573ffffffffffffffffffffffffffffffffffffffff1690602001909291905050506119b7565b604051808215151515815260200191505060405180910390f35b610c8e60048036036040811015610be157600080fd5b810190808035906020019092919080359060200190640100000000811115610c0857600080fd5b820183602082011115610c1a57600080fd5b80359060200191846001830284011164010000000083111715610c3c57600080fd5b91908080601f016020809104026020016040519081016040528093929190818152602001838380828437600081840152601f19601f820116905080830192505050505050509192919290505050611a5c565b005b6060816000548110610ca157600080fd5b823273ffffffffffffffffffffffffffffffffffffffff166001600083815260200190815260200160002060000160009054906101000a900473ffffffffffffffffffffffffffffffffffffffff1673ffffffffffffffffffffffffffffffffffffffff1614610d1057600080fd5b600160008581526020019081526020016000206002018054600181600116156101000203166002900480601f016020809104026020016040519081016040528092919081815260200182805460018160011615610100020316600290048015610dba5780601f10610d8f57610100808354040283529160200191610dba565b820191906000526020600020905b815481529060010190602001808311610d9d57829003601f168201915b505050505092505050919050565b6060816000548110610dd957600080fd5b823273ffffffffffffffffffffffffffffffffffffffff166001600083815260200190815260200160002060000160009054906101000a900473ffffffffffffffffffffffffffffffffffffffff1673ffffffffffffffffffffffffffffffffffffffff1614610e4857600080fd5b600160008581526020019081526020016000206003018054600181600116156101000203166002900480601f016020809104026020016040519081016040528092919081815260200182805460018160011615610100020316600290048015610ef25780601f10610ec757610100808354040283529160200191610ef2565b820191906000526020600020905b815481529060010190602001808311610ed557829003601f168201915b505050505092505050919050565b6060816000548110610f1157600080fd5b823273ffffffffffffffffffffffffffffffffffffffff166001600083815260200190815260200160002060000160009054906101000a900473ffffffffffffffffffffffffffffffffffffffff1673ffffffffffffffffffffffffffffffffffffffff1614610f8057600080fd5b600160008581526020019081526020016000206005018054600181600116156101000203166002900480601f01602080910402602001604051908101604052809291908181526020018280546001816001161561010002031660029004801561102a5780601f10610fff5761010080835404028352916020019161102a565b820191906000526020600020905b81548152906001019060200180831161100d57829003601f168201915b505050505092505050919050565b81600054811061104757600080fd5b823273ffffffffffffffffffffffffffffffffffffffff166001600083815260200190815260200160002060000160009054906101000a900473ffffffffffffffffffffffffffffffffffffffff1673ffffffffffffffffffffffffffffffffffffffff16146110b657600080fd5b826001600086815260200190815260200160002060020190805190602001906110e0929190611b0b565b5050505050565b60005481565b600080600090505b60005481101561117f578273ffffffffffffffffffffffffffffffffffffffff166001600083815260200190815260200160002060000160009054906101000a900473ffffffffffffffffffffffffffffffffffffffff1673ffffffffffffffffffffffffffffffffffffffff16141561117257809150506111ad565b80806001019150506110f5565b507fe22a148a0a3a6f21d7b5a1276fdb67f1e21e87d00e9799cda356fa16a6e3ea5760405160405180910390a15b919050565b60016020528060005260406000206000915090508060000160009054906101000a900473ffffffffffffffffffffffffffffffffffffffff1690806001015490806002018054600181600116156101000203166002900480601f01602080910402602001604051908101604052809291908181526020018280546001816001161561010002031660029004801561128a5780601f1061125f5761010080835404028352916020019161128a565b820191906000526020600020905b81548152906001019060200180831161126d57829003601f168201915b505050505090806003018054600181600116156101000203166002900480601f0160208091040260200160405190810160405280929190818152602001828054600181600116156101000203166002900480156113285780601f106112fd57610100808354040283529160200191611328565b820191906000526020600020905b81548152906001019060200180831161130b57829003601f168201915b505050505090806004018054600181600116156101000203166002900480601f0160208091040260200160405190810160405280929190818152602001828054600181600116156101000203166002900480156113c65780601f1061139b576101008083540402835291602001916113c6565b820191906000526020600020905b8154815290600101906020018083116113a957829003601f168201915b505050505090806005018054600181600116156101000203166002900480601f0160208091040260200160405190810160405280929190818152602001828054600181600116156101000203166002900480156114645780601f1061143957610100808354040283529160200191611464565b820191906000526020600020905b81548152906001019060200180831161144757829003601f168201915b5050505050905086565b81600054811061147d57600080fd5b823273ffffffffffffffffffffffffffffffffffffffff166001600083815260200190815260200160002060000160009054906101000a900473ffffffffffffffffffffffffffffffffffffffff1673ffffffffffffffffffffffffffffffffffffffff16146114ec57600080fd5b82600160008681526020019081526020016000206005019080519060200190611516929190611b0b565b5050505050565b60008060008081548092919060010191905055905061153a611b8b565b8181602001818152505033816000019073ffffffffffffffffffffffffffffffffffffffff16908173ffffffffffffffffffffffffffffffffffffffff1681525050868160400181905250858160600181905250848160800181905250838160a00181905250806001600084815260200190815260200160002060008201518160000160006101000a81548173ffffffffffffffffffffffffffffffffffffffff021916908373ffffffffffffffffffffffffffffffffffffffff160217905550602082015181600101556040820151816002019080519060200190611621929190611bd7565b50606082015181600301908051906020019061163e929190611bd7565b50608082015181600401908051906020019061165b929190611bd7565b5060a0820151816005019080519060200190611678929190611bd7565b509050507f69908b2e63170aa89ef89719bbe3b4c92cccc38653968ab25f4464eff7c28ac88160000151604051808273ffffffffffffffffffffffffffffffffffffffff1673ffffffffffffffffffffffffffffffffffffffff16815260200191505060405180910390a18192505050949350505050565b600080600090505b6000548110156117c45760006001600083815260200190815260200160002090508373ffffffffffffffffffffffffffffffffffffffff168160000160009054906101000a900473ffffffffffffffffffffffffffffffffffffffff1673ffffffffffffffffffffffffffffffffffffffff1614156117b6576001151581600601600087815260200190815260200160002060009054906101000a900460ff16151514156117ab576001925050506117ca565b6000925050506117ca565b5080806001019150506116f8565b50600090505b92915050565b8160005481106117df57600080fd5b823273ffffffffffffffffffffffffffffffffffffffff166001600083815260200190815260200160002060000160009054906101000a900473ffffffffffffffffffffffffffffffffffffffff1673ffffffffffffffffffffffffffffffffffffffff161461184e57600080fd5b82600160008681526020019081526020016000206004019080519060200190611878929190611b0b565b5050505050565b606081600054811061189057600080fd5b823273ffffffffffffffffffffffffffffffffffffffff166001600083815260200190815260200160002060000160009054906101000a900473ffffffffffffffffffffffffffffffffffffffff1673ffffffffffffffffffffffffffffffffffffffff16146118ff57600080fd5b600160008581526020019081526020016000206004018054600181600116156101000203166002900480601f0160208091040260200160405190810160405280929190818152602001828054600181600116156101000203166002900480156119a95780601f1061197e576101008083540402835291602001916119a9565b820191906000526020600020905b81548152906001019060200180831161198c57829003601f168201915b505050505092505050919050565b600080600090505b600054811015611a515760006001600083815260200190815260200160002090508373ffffffffffffffffffffffffffffffffffffffff168160000160009054906101000a900473ffffffffffffffffffffffffffffffffffffffff1673ffffffffffffffffffffffffffffffffffffffff161415611a4357600192505050611a57565b5080806001019150506119bf565b50600090505b919050565b816000548110611a6b57600080fd5b823273ffffffffffffffffffffffffffffffffffffffff166001600083815260200190815260200160002060000160009054906101000a900473ffffffffffffffffffffffffffffffffffffffff1673ffffffffffffffffffffffffffffffffffffffff1614611ada57600080fd5b82600160008681526020019081526020016000206003019080519060200190611b04929190611b0b565b5050505050565b828054600181600116156101000203166002900490600052602060002090601f016020900481019282601f10611b4c57805160ff1916838001178555611b7a565b82800160010185558215611b7a579182015b82811115611b79578251825591602001919060010190611b5e565b5b509050611b879190611c57565b5090565b6040518060c00160405280600073ffffffffffffffffffffffffffffffffffffffff16815260200160008152602001606081526020016060815260200160608152602001606081525090565b828054600181600116156101000203166002900490600052602060002090601f016020900481019282601f10611c1857805160ff1916838001178555611c46565b82800160010185558215611c46579182015b82811115611c45578251825591602001919060010190611c2a565b5b509050611c539190611c57565b5090565b611c7991905b80821115611c75576000816000905550600101611c5d565b5090565b9056fea265627a7a723158202cd5aa81d78d17c7c8f9b6872c806643cb92caf8dc27a0346d3e7f826daf08ca64736f6c63430005110032",
  "source": "pragma solidity ^0.5.0;\n\nimport \"./EHR.sol\";\n\ncontract Doctor {\n\n    struct doctor {\n        address owner;\n        uint256 doctorId;\n        string firstName;\n        string lastName;\n        string emailAddress;\n        string dob;\n \n        mapping(uint256 => bool) patients;\n        mapping(uint256 => bool) records;\n    }\n\n    uint256 public numDoctors = 0;\n    mapping(uint256 => doctor) public doctors;\n\n    // function to create doctor\n    function create(string memory _firstName, string memory _lastName, string memory _emailAddress, string memory _dob) public returns(uint256) {\n\n        uint256 newDoctorId = numDoctors++;\n\n        doctor memory newDoctor;\n        newDoctor.doctorId = newDoctorId;\n        newDoctor.owner = msg.sender;\n        newDoctor.firstName = _firstName;\n        newDoctor.lastName = _lastName;\n        newDoctor.emailAddress = _emailAddress;\n        newDoctor.dob = _dob;\n\n        doctors[newDoctorId] = newDoctor;\n        emit DoctorAdded(newDoctor.owner);\n        return newDoctorId;\n    }\n\n\n    /********* EVENTS *********/\n\n    event DoctorAdded(address doctorAddress);\n    event AddressDoesNotBelongToAnyDoctor();\n\n\n    /********* MODIFIERS *********/\n\n\n    modifier ownerOnly(uint256 doctorId) {\n        require(doctors[doctorId].owner == tx.origin);\n        _;\n    }\n\n    modifier validDoctorId(uint256 doctorId) {\n        require(doctorId < numDoctors);\n        _;\n    }\n\n\n    /********* FUNCTIONS *********/\n\n    function isSender(address owner) public view returns(bool) {\n        for (uint i = 0; i < numDoctors; i++) {\n            doctor storage temp = doctors[i];\n            if (temp.owner == owner) {\n                return true;\n            }\n        }\n\n        return false;\n    }\n\n    function isPatientInListOfPatients(uint256 patientId, address owner) public view returns(bool) {\n        for (uint i = 0; i < numDoctors; i++) {\n            doctor storage temp = doctors[i];\n            if (temp.owner == owner) {\n                if (temp.patients[patientId] == true) {\n                    return true;\n                } else {\n                    return false;\n                }\n            }\n        }\n\n        return false;\n    }\n\n\n    /********* GETTERS & SETTERS *********/\n\n    function getFirstName(uint256 doctorId) public view validDoctorId(doctorId) ownerOnly(doctorId) returns(string memory) {\n        return doctors[doctorId].firstName;\n    }\n\n    function setFirstName(uint256 doctorId, string memory _firstName) public validDoctorId(doctorId) ownerOnly(doctorId) {\n        doctors[doctorId].firstName = _firstName;\n    }\n\n    function getLastName(uint256 doctorId) public view validDoctorId(doctorId) ownerOnly(doctorId) returns(string memory) {\n        return doctors[doctorId].lastName;\n    }\n\n    function setLastName(uint256 doctorId, string memory _lastName) public validDoctorId(doctorId) ownerOnly(doctorId) {\n        doctors[doctorId].lastName = _lastName;\n    }\n\n    function getEmailAddress(uint256 doctorId) public view validDoctorId(doctorId) ownerOnly(doctorId) returns(string memory) {\n        return doctors[doctorId].emailAddress;\n    }\n\n    function setEmailAddress(uint256 doctorId, string memory _emailAddress) public validDoctorId(doctorId) ownerOnly(doctorId) {\n        doctors[doctorId].emailAddress = _emailAddress;\n    }\n\n    function getDob(uint256 doctorId) public view validDoctorId(doctorId) ownerOnly(doctorId) returns(string memory) {\n        return doctors[doctorId].dob;\n    }\n\n    function setDob(uint256 doctorId, string memory _dob) public validDoctorId(doctorId) ownerOnly(doctorId) {\n        doctors[doctorId].dob = _dob;\n    }\n\n    // get doctor's id from their address \n    function getDoctorIdFromDoctorAddress(address doctorAddress) public returns (uint256) {\n        for (uint i = 0; i < numDoctors; i++) {\n            if (doctors[i].owner == doctorAddress) {\n                return i;\n            }\n        }\n        emit AddressDoesNotBelongToAnyDoctor();\n    }\n}",
  "sourcePath": "/Users/aaronf/IS4302/is4302-project-medical-chain/contracts/Doctor.sol",
  "compiler": {
    "name": "solc",
    "version": "0.5.17+commit.d19bba13.Emscripten.clang"
  },
  "schemaVersion": "3.4.11",
  "updatedAt": "2023-04-04T09:14:36.732Z",
  "networkType": "ethereum",
  "devdoc": {
    "methods": {}
  },
  "userdoc": {
    "methods": {
      "getFirstName(uint256)": {
        "notice": "******* GETTERS & SETTERS ********"
      },
      "isSender(address)": {
        "notice": "******* FUNCTIONS ********"
      }
    }
  }
}