{
  "contractName": "EHR",
  "abi": [
    {
      "anonymous": false,
      "inputs": [
        {
          "indexed": false,
          "internalType": "address",
          "name": "ehrAddress",
          "type": "address"
        }
      ],
      "name": "EHRAdded",
      "type": "event"
    },
    {
      "constant": true,
      "inputs": [],
      "name": "numEHR",
      "outputs": [
        {
          "internalType": "uint256",
          "name": "",
          "type": "uint256"
        }
      ],
      "payable": false,
      "stateMutability": "view",
      "type": "function"
    },
    {
      "constant": true,
      "inputs": [
        {
          "internalType": "uint256",
          "name": "",
          "type": "uint256"
        }
      ],
      "name": "records",
      "outputs": [
        {
          "internalType": "uint256",
          "name": "recordId",
          "type": "uint256"
        },
        {
          "internalType": "enum EHR.RecordType",
          "name": "recordType",
          "type": "uint8"
        },
        {
          "internalType": "string",
          "name": "fileName",
          "type": "string"
        },
        {
          "internalType": "address",
          "name": "patientAddress",
          "type": "address"
        },
        {
          "internalType": "address",
          "name": "doctorAddress",
          "type": "address"
        },
        {
          "internalType": "uint256",
          "name": "timeAdded",
          "type": "uint256"
        },
        {
          "internalType": "bool",
          "name": "patientSignedOff",
          "type": "bool"
        }
      ],
      "payable": false,
      "stateMutability": "view",
      "type": "function"
    },
    {
      "constant": false,
      "inputs": [
        {
          "internalType": "enum EHR.RecordType",
          "name": "recordType",
          "type": "uint8"
        },
        {
          "internalType": "string",
          "name": "fileName",
          "type": "string"
        },
        {
          "internalType": "address",
          "name": "patient",
          "type": "address"
        },
        {
          "internalType": "address",
          "name": "practitioner",
          "type": "address"
        }
      ],
      "name": "add",
      "outputs": [
        {
          "internalType": "uint256",
          "name": "",
          "type": "uint256"
        }
      ],
      "payable": false,
      "stateMutability": "nonpayable",
      "type": "function"
    },
    {
      "constant": true,
      "inputs": [
        {
          "internalType": "uint256",
          "name": "recordId",
          "type": "uint256"
        }
      ],
      "name": "isValidRecordId",
      "outputs": [
        {
          "internalType": "bool",
          "name": "",
          "type": "bool"
        }
      ],
      "payable": false,
      "stateMutability": "view",
      "type": "function"
    },
    {
      "constant": true,
      "inputs": [
        {
          "internalType": "uint256",
          "name": "recordId",
          "type": "uint256"
        }
      ],
      "name": "getRecord",
      "outputs": [
        {
          "internalType": "uint256",
          "name": "id",
          "type": "uint256"
        },
        {
          "internalType": "enum EHR.RecordType",
          "name": "recordType",
          "type": "uint8"
        },
        {
          "internalType": "string",
          "name": "fileName",
          "type": "string"
        },
        {
          "internalType": "address",
          "name": "patientAddress",
          "type": "address"
        },
        {
          "internalType": "address",
          "name": "doctorAddress",
          "type": "address"
        },
        {
          "internalType": "uint256",
          "name": "timeAdded",
          "type": "uint256"
        },
        {
          "internalType": "bool",
          "name": "patientSignedOff",
          "type": "bool"
        }
      ],
      "payable": false,
      "stateMutability": "view",
      "type": "function"
    },
    {
      "constant": false,
      "inputs": [
        {
          "internalType": "uint256",
          "name": "recordId",
          "type": "uint256"
        },
        {
          "internalType": "enum EHR.RecordType",
          "name": "recordType",
          "type": "uint8"
        },
        {
          "internalType": "string",
          "name": "fileName",
          "type": "string"
        }
      ],
      "name": "updateRecord",
      "outputs": [],
      "payable": false,
      "stateMutability": "nonpayable",
      "type": "function"
    },
    {
      "constant": true,
      "inputs": [
        {
          "internalType": "uint256",
          "name": "recordId",
          "type": "uint256"
        },
        {
          "internalType": "address",
          "name": "_patientAddress",
          "type": "address"
        }
      ],
      "name": "isRecordBelongToPatient",
      "outputs": [
        {
          "internalType": "bool",
          "name": "",
          "type": "bool"
        }
      ],
      "payable": false,
      "stateMutability": "view",
      "type": "function"
    },
    {
      "constant": true,
      "inputs": [
        {
          "internalType": "uint256",
          "name": "recordId",
          "type": "uint256"
        },
        {
          "internalType": "enum EHR.RecordType",
          "name": "_recordType",
          "type": "uint8"
        }
      ],
      "name": "doesRecordMatchRecordType",
      "outputs": [
        {
          "internalType": "bool",
          "name": "",
          "type": "bool"
        }
      ],
      "payable": false,
      "stateMutability": "view",
      "type": "function"
    },
    {
      "constant": true,
      "inputs": [
        {
          "internalType": "uint256",
          "name": "recordId",
          "type": "uint256"
        },
        {
          "internalType": "address",
          "name": "doctorAddress",
          "type": "address"
        }
      ],
      "name": "doesRecordMatchDoctorAddress",
      "outputs": [
        {
          "internalType": "bool",
          "name": "",
          "type": "bool"
        }
      ],
      "payable": false,
      "stateMutability": "view",
      "type": "function"
    },
    {
      "constant": false,
      "inputs": [
        {
          "internalType": "uint256",
          "name": "recordId",
          "type": "uint256"
        }
      ],
      "name": "patientSignOff",
      "outputs": [],
      "payable": false,
      "stateMutability": "nonpayable",
      "type": "function"
    },
    {
      "constant": true,
      "inputs": [
        {
          "internalType": "uint256",
          "name": "recordId",
          "type": "uint256"
        }
      ],
      "name": "getRecordType",
      "outputs": [
        {
          "internalType": "enum EHR.RecordType",
          "name": "",
          "type": "uint8"
        }
      ],
      "payable": false,
      "stateMutability": "view",
      "type": "function"
    },
    {
      "constant": true,
      "inputs": [
        {
          "internalType": "uint256",
          "name": "recordId",
          "type": "uint256"
        }
      ],
      "name": "getRecordFileName",
      "outputs": [
        {
          "internalType": "string",
          "name": "",
          "type": "string"
        }
      ],
      "payable": false,
      "stateMutability": "view",
      "type": "function"
    },
    {
      "constant": true,
      "inputs": [
        {
          "internalType": "uint256",
          "name": "recordId",
          "type": "uint256"
        }
      ],
      "name": "getRecordPatientAddress",
      "outputs": [
        {
          "internalType": "address",
          "name": "",
          "type": "address"
        }
      ],
      "payable": false,
      "stateMutability": "view",
      "type": "function"
    },
    {
      "constant": true,
      "inputs": [
        {
          "internalType": "uint256",
          "name": "recordId",
          "type": "uint256"
        }
      ],
      "name": "getRecordDoctorAddress",
      "outputs": [
        {
          "internalType": "address",
          "name": "",
          "type": "address"
        }
      ],
      "payable": false,
      "stateMutability": "view",
      "type": "function"
    },
    {
      "constant": true,
      "inputs": [
        {
          "internalType": "uint256",
          "name": "recordId",
          "type": "uint256"
        }
      ],
      "name": "getRecordTimeAdded",
      "outputs": [
        {
          "internalType": "uint256",
          "name": "",
          "type": "uint256"
        }
      ],
      "payable": false,
      "stateMutability": "view",
      "type": "function"
    },
    {
      "constant": true,
      "inputs": [
        {
          "internalType": "uint256",
          "name": "recordId",
          "type": "uint256"
        }
      ],
      "name": "getRecordPatientSignedOff",
      "outputs": [
        {
          "internalType": "bool",
          "name": "",
          "type": "bool"
        }
      ],
      "payable": false,
      "stateMutability": "view",
      "type": "function"
    }
  ],
  "bytecode": "0x60806040526000805534801561001457600080fd5b506112bb806100246000396000f3fe608060405234801561001057600080fd5b50600436106101005760003560e01c80638664d5f311610097578063c0938ff911610066578063c0938ff91461080c578063d3b94f501461087a578063d7ddb80c146108e0578063fc60b1211461092257610100565b80638664d5f3146106da578063872a2f7914610708578063933d23361461074e578063b70d0d731461079e57610100565b80634d669212116100d35780634d669212146104275780636a5cb5d8146104ce5780637988d056146105a057806383ac1d07146105be57610100565b80630224ad441461010557806303e9e6091461016b57806327d6030b146102a657806334461067146102ec575b600080fd5b6101516004803603604081101561011b57600080fd5b8101908080359060200190929190803573ffffffffffffffffffffffffffffffffffffffff169060200190929190505050610975565b604051808215151515815260200191505060405180910390f35b6101976004803603602081101561018157600080fd5b81019080803590602001909291905050506109f5565b604051808881526020018760078111156101ad57fe5b60ff168152602001806020018673ffffffffffffffffffffffffffffffffffffffff1673ffffffffffffffffffffffffffffffffffffffff1681526020018573ffffffffffffffffffffffffffffffffffffffff1673ffffffffffffffffffffffffffffffffffffffff16815260200184815260200183151515158152602001828103825287818151815260200191508051906020019080838360005b8381101561026557808201518184015260208101905061024a565b50505050905090810190601f1680156102925780820380516001836020036101000a031916815260200191505b509850505050505050505060405180910390f35b6102d2600480360360208110156102bc57600080fd5b8101908080359060200190929190505050610a50565b604051808215151515815260200191505060405180910390f35b6103186004803603602081101561030257600080fd5b8101908080359060200190929190505050610a6e565b6040518088815260200187600781111561032e57fe5b60ff168152602001806020018673ffffffffffffffffffffffffffffffffffffffff1673ffffffffffffffffffffffffffffffffffffffff1681526020018573ffffffffffffffffffffffffffffffffffffffff1673ffffffffffffffffffffffffffffffffffffffff16815260200184815260200183151515158152602001828103825287818151815260200191508051906020019080838360005b838110156103e65780820151818401526020810190506103cb565b50505050905090810190601f1680156104135780820380516001836020036101000a031916815260200191505b509850505050505050505060405180910390f35b6104536004803603602081101561043d57600080fd5b8101908080359060200190929190505050610ba2565b6040518080602001828103825283818151815260200191508051906020019080838360005b83811015610493578082015181840152602081019050610478565b50505050905090810190601f1680156104c05780820380516001836020036101000a031916815260200191505b509250505060405180910390f35b61059e600480360360608110156104e457600080fd5b8101908080359060200190929190803560ff1690602001909291908035906020019064010000000081111561051857600080fd5b82018360208201111561052a57600080fd5b8035906020019184600183028401116401000000008311171561054c57600080fd5b91908080601f016020809104026020016040519081016040528093929190818152602001838380828437600081840152601f19601f820116905080830192505050505050509192919290505050610c5a565b005b6105a8610cc1565b6040518082815260200191505060405180910390f35b6106c4600480360360808110156105d457600080fd5b81019080803560ff169060200190929190803590602001906401000000008111156105fe57600080fd5b82018360208201111561061057600080fd5b8035906020019184600183028401116401000000008311171561063257600080fd5b91908080601f016020809104026020016040519081016040528093929190818152602001838380828437600081840152601f19601f820116905080830192505050505050509192919290803573ffffffffffffffffffffffffffffffffffffffff169060200190929190803573ffffffffffffffffffffffffffffffffffffffff169060200190929190505050610cc7565b6040518082815260200191505060405180910390f35b610706600480360360208110156106f057600080fd5b8101908080359060200190929190505050610ee9565b005b6107346004803603602081101561071e57600080fd5b8101908080359060200190929190505050610f1a565b604051808215151515815260200191505060405180910390f35b61077a6004803603602081101561076457600080fd5b8101908080359060200190929190505050610f47565b6040518082600781111561078a57fe5b60ff16815260200191505060405180910390f35b6107ca600480360360208110156107b457600080fd5b8101908080359060200190929190505050610f74565b604051808273ffffffffffffffffffffffffffffffffffffffff1673ffffffffffffffffffffffffffffffffffffffff16815260200191505060405180910390f35b6108386004803603602081101561082257600080fd5b8101908080359060200190929190505050610fb4565b604051808273ffffffffffffffffffffffffffffffffffffffff1673ffffffffffffffffffffffffffffffffffffffff16815260200191505060405180910390f35b6108c66004803603604081101561089057600080fd5b8101908080359060200190929190803573ffffffffffffffffffffffffffffffffffffffff169060200190929190505050610ff4565b604051808215151515815260200191505060405180910390f35b61090c600480360360208110156108f657600080fd5b8101908080359060200190929190505050611074565b6040518082815260200191505060405180910390f35b61095b6004803603604081101561093857600080fd5b8101908080359060200190929190803560ff169060200190929190505050611094565b604051808215151515815260200191505060405180910390f35b60008173ffffffffffffffffffffffffffffffffffffffff166001600085815260200190815260200160002060030160009054906101000a900473ffffffffffffffffffffffffffffffffffffffff1673ffffffffffffffffffffffffffffffffffffffff1614156109ea57600190506109ef565b600090505b92915050565b600080606060008060008087610a0a89610f47565b610a138a610ba2565b610a1c8b610f74565b610a258c610fb4565b610a2e8d611074565b610a378e610f1a565b9650965096509650965096509650919395979092949650565b60008054821015610a645760019050610a69565b600090505b919050565b60016020528060005260406000206000915090508060000154908060010160009054906101000a900460ff1690806002018054600181600116156101000203166002900480601f016020809104026020016040519081016040528092919081815260200182805460018160011615610100020316600290048015610b335780601f10610b0857610100808354040283529160200191610b33565b820191906000526020600020905b815481529060010190602001808311610b1657829003601f168201915b5050505050908060030160009054906101000a900473ffffffffffffffffffffffffffffffffffffffff16908060040160009054906101000a900473ffffffffffffffffffffffffffffffffffffffff16908060050154908060060160009054906101000a900460ff16905087565b6060600160008381526020019081526020016000206002018054600181600116156101000203166002900480601f016020809104026020016040519081016040528092919081815260200182805460018160011615610100020316600290048015610c4e5780601f10610c2357610100808354040283529160200191610c4e565b820191906000526020600020905b815481529060010190602001808311610c3157829003601f168201915b50505050509050919050565b816001600085815260200190815260200160002060010160006101000a81548160ff02191690836007811115610c8c57fe5b021790555080600160008581526020019081526020016000206002019080519060200190610cbb9291906110eb565b50505050565b60005481565b6000610cd161116b565b6040518060e001604052806000548152602001876007811115610cf057fe5b81526020018681526020018573ffffffffffffffffffffffffffffffffffffffff1681526020018473ffffffffffffffffffffffffffffffffffffffff168152602001428152602001600015158152509050600080600081548092919060010191905055905081600160008381526020019081526020016000206000820151816000015560208201518160010160006101000a81548160ff02191690836007811115610d9857fe5b02179055506040820151816002019080519060200190610db99291906111e1565b5060608201518160030160006101000a81548173ffffffffffffffffffffffffffffffffffffffff021916908373ffffffffffffffffffffffffffffffffffffffff16021790555060808201518160040160006101000a81548173ffffffffffffffffffffffffffffffffffffffff021916908373ffffffffffffffffffffffffffffffffffffffff16021790555060a0820151816005015560c08201518160060160006101000a81548160ff0219169083151502179055509050507fcb1b940f1dadf8129eaf467ace460bc653bff517028e20f0d49fe55cc940fb668260800151604051808273ffffffffffffffffffffffffffffffffffffffff1673ffffffffffffffffffffffffffffffffffffffff16815260200191505060405180910390a18092505050949350505050565b600180600083815260200190815260200160002060060160006101000a81548160ff02191690831515021790555050565b60006001600083815260200190815260200160002060060160009054906101000a900460ff169050919050565b60006001600083815260200190815260200160002060010160009054906101000a900460ff169050919050565b60006001600083815260200190815260200160002060030160009054906101000a900473ffffffffffffffffffffffffffffffffffffffff169050919050565b60006001600083815260200190815260200160002060040160009054906101000a900473ffffffffffffffffffffffffffffffffffffffff169050919050565b60008173ffffffffffffffffffffffffffffffffffffffff166001600085815260200190815260200160002060040160009054906101000a900473ffffffffffffffffffffffffffffffffffffffff1673ffffffffffffffffffffffffffffffffffffffff161415611069576001905061106e565b600090505b92915050565b600060016000838152602001908152602001600020600501549050919050565b60008160078111156110a257fe5b6001600085815260200190815260200160002060010160009054906101000a900460ff1660078111156110d157fe5b14156110e057600190506110e5565b600090505b92915050565b828054600181600116156101000203166002900490600052602060002090601f016020900481019282601f1061112c57805160ff191683800117855561115a565b8280016001018555821561115a579182015b8281111561115957825182559160200191906001019061113e565b5b5090506111679190611261565b5090565b6040518060e00160405280600081526020016000600781111561118a57fe5b815260200160608152602001600073ffffffffffffffffffffffffffffffffffffffff168152602001600073ffffffffffffffffffffffffffffffffffffffff168152602001600081526020016000151581525090565b828054600181600116156101000203166002900490600052602060002090601f016020900481019282601f1061122257805160ff1916838001178555611250565b82800160010185558215611250579182015b8281111561124f578251825591602001919060010190611234565b5b50905061125d9190611261565b5090565b61128391905b8082111561127f576000816000905550600101611267565b5090565b9056fea265627a7a72315820c8868fcfc9a52647a7ef46eec95556654be6a1ca9e120a3f120ac7c25e5fcb3e64736f6c63430005110032",
  "source": "pragma solidity ^0.5.0;\n\ncontract EHR {\n\n    // enum EHRstate { unverified, verified }\n    enum RecordType{ IMMUNISATION, ALLERGIES, LABORATORY_RESULTS, SCREENING_RECORDS, DISCHARGE_INFORMATION, VITAL_HEALTH_TRACKING, APPOINTMENT_INFORMATION, MEDICATIONS}\n    \n    struct ehr {\n\n        uint256 recordId;\n        RecordType recordType;\n        // EHRstate state;\n        string fileName; \n        address patientAddress;\n        address doctorAddress;\n        uint256 timeAdded;\n        bool patientSignedOff;\n    }\n    \n    uint256 public numEHR = 0;\n    mapping(uint256 => ehr) public records;\n    // record type -> (record type id -> records)\n\n    function add(\n        RecordType recordType,\n        string memory fileName,\n        address patient,\n        address practitioner\n    ) public returns(uint256) {\n        \n        //new EHR object\n        ehr memory newEhr = ehr(\n            numEHR,\n            recordType,\n            fileName,\n            patient,\n            practitioner,\n            now,\n            false\n        );\n        \n        // numEHR = numEHR++;\n        uint256 newEhrId = numEHR++;\n        records[newEhrId] = newEhr; //commit to state variable\n        emit EHRAdded(newEhr.doctorAddress);\n        return newEhrId;   //return new ehrId\n    }\n\n    /********* EVENTS *********/\n\n    event EHRAdded(address ehrAddress);\n\n    /********* MODIFIERS *********/\n\n    modifier patientOnly(uint256 ehrId) {\n        require(records[ehrId].patientAddress == msg.sender);\n        _;\n    }\n\n    // ensure valid record ID\n    modifier validEHRId(uint256 ehrId) {\n        require(ehrId < numEHR);\n        _;\n    }\n\n\n    /********* FUNCTIONS *********/\n\n    function isValidRecordId(uint256 recordId) public view returns (bool) {\n        if (recordId < numEHR) {\n            return true;\n        } else {\n            return false;\n        }\n    }\n\n    function getRecord(uint256 recordId) public view returns(uint256 id,\n        RecordType recordType,\n        string memory fileName,\n        address patientAddress,\n        address doctorAddress,\n        uint256 timeAdded,\n        bool patientSignedOff) {\n        return (recordId, getRecordType(recordId), getRecordFileName(recordId), getRecordPatientAddress(recordId), getRecordDoctorAddress(recordId), getRecordTimeAdded(recordId), getRecordPatientSignedOff(recordId));\n    }\n\n    function updateRecord(uint256 recordId, RecordType recordType, string memory fileName) public {\n        // Patient & Doctor address and timeAdded should not be editable\n        records[recordId].recordType = recordType;\n        records[recordId].fileName = fileName;\n    }\n\n\n    function isRecordBelongToPatient(uint256 recordId, address _patientAddress) public view returns(bool) {\n        if (records[recordId].patientAddress == _patientAddress) {\n            return true;\n        } else {\n            return false;\n        }\n    }\n\n    function doesRecordMatchRecordType(uint256 recordId, RecordType _recordType) public view returns(bool) {\n        if(records[recordId].recordType == _recordType) {\n            return true;\n        } else {\n            return false;\n        }\n    }\n\n    function doesRecordMatchDoctorAddress(uint256 recordId, address doctorAddress) public view returns(bool) {\n        if(records[recordId].doctorAddress == doctorAddress) {\n            return true;\n        } else {\n            return false;\n        }\n    }\n\n    function patientSignOff(uint256 recordId) public {\n        records[recordId].patientSignedOff = true;\n    }\n\n    /********* GETTERS & SETTERS *********/\n    \n    function getRecordType(uint256 recordId) public view returns(RecordType) {\n        return records[recordId].recordType;\n    }\n\n    function getRecordFileName(uint256 recordId) public view returns(string memory) {\n        return records[recordId].fileName;\n    }\n\n    function getRecordPatientAddress(uint256 recordId) public view returns(address) {\n        return records[recordId].patientAddress;\n    }\n\n    function getRecordDoctorAddress(uint256 recordId) public view returns(address) {\n        return records[recordId].doctorAddress;\n    }\n\n    function getRecordTimeAdded(uint256 recordId) public view returns(uint256) {\n        return records[recordId].timeAdded;\n    }\n\n    function getRecordPatientSignedOff(uint256 recordId) public view returns(bool) {\n        return records[recordId].patientSignedOff;\n    }\n\n}\n",
  "sourcePath": "/Users/tohdekai/is4302-project-medical-chain/contracts/EHR.sol",
  "compiler": {
    "name": "solc",
    "version": "0.5.17+commit.d19bba13.Emscripten.clang"
  },
  "schemaVersion": "3.4.11",
  "updatedAt": "2023-04-10T07:32:17.736Z",
  "devdoc": {
    "methods": {}
  },
  "userdoc": {
    "methods": {
      "getRecordType(uint256)": {
        "notice": "******* GETTERS & SETTERS ********"
      },
      "isValidRecordId(uint256)": {
        "notice": "******* FUNCTIONS ********"
      }
    }
  }
}