{
  "contractName": "EHR",
  "abi": [
    {
      "constant": true,
      "inputs": [],
      "name": "numEHR",
      "outputs": [
        {
          "internalType": "uint256",
          "name": "",
          "type": "uint256"
        }
      ],
      "payable": false,
      "stateMutability": "view",
      "type": "function"
    },
    {
      "constant": true,
      "inputs": [
        {
          "internalType": "uint256",
          "name": "",
          "type": "uint256"
        }
      ],
      "name": "records",
      "outputs": [
        {
          "internalType": "uint256",
          "name": "recordId",
          "type": "uint256"
        },
        {
          "internalType": "enum EHR.RecordType",
          "name": "recordType",
          "type": "uint8"
        },
        {
          "internalType": "string",
          "name": "fileName",
          "type": "string"
        },
        {
          "internalType": "address",
          "name": "patientAddress",
          "type": "address"
        },
        {
          "internalType": "address",
          "name": "doctorAddress",
          "type": "address"
        },
        {
          "internalType": "uint256",
          "name": "timeAdded",
          "type": "uint256"
        }
      ],
      "payable": false,
      "stateMutability": "view",
      "type": "function"
    },
    {
      "constant": false,
      "inputs": [
        {
          "internalType": "enum EHR.RecordType",
          "name": "recordType",
          "type": "uint8"
        },
        {
          "internalType": "string",
          "name": "fileName",
          "type": "string"
        },
        {
          "internalType": "address",
          "name": "patient",
          "type": "address"
        },
        {
          "internalType": "address",
          "name": "doctor",
          "type": "address"
        }
      ],
      "name": "add",
      "outputs": [
        {
          "internalType": "uint256",
          "name": "",
          "type": "uint256"
        }
      ],
      "payable": true,
      "stateMutability": "payable",
      "type": "function"
    },
    {
      "constant": true,
      "inputs": [
        {
          "internalType": "uint256",
          "name": "recordId",
          "type": "uint256"
        }
      ],
      "name": "getDoctorAddress",
      "outputs": [
        {
          "internalType": "address",
          "name": "",
          "type": "address"
        }
      ],
      "payable": false,
      "stateMutability": "view",
      "type": "function"
    },
    {
      "constant": true,
      "inputs": [
        {
          "internalType": "uint256",
          "name": "recordId",
          "type": "uint256"
        }
      ],
      "name": "getRecord",
      "outputs": [
        {
          "internalType": "uint256",
          "name": "id",
          "type": "uint256"
        },
        {
          "internalType": "enum EHR.RecordType",
          "name": "recordType",
          "type": "uint8"
        },
        {
          "internalType": "string",
          "name": "fileName",
          "type": "string"
        },
        {
          "internalType": "address",
          "name": "patientAddress",
          "type": "address"
        },
        {
          "internalType": "address",
          "name": "doctorAddress",
          "type": "address"
        },
        {
          "internalType": "uint256",
          "name": "timeAdded",
          "type": "uint256"
        }
      ],
      "payable": false,
      "stateMutability": "view",
      "type": "function"
    },
    {
      "constant": true,
      "inputs": [
        {
          "internalType": "uint256",
          "name": "recordId",
          "type": "uint256"
        },
        {
          "internalType": "address",
          "name": "patientAddress",
          "type": "address"
        }
      ],
      "name": "isRecordBelongToPatient",
      "outputs": [
        {
          "internalType": "bool",
          "name": "",
          "type": "bool"
        }
      ],
      "payable": false,
      "stateMutability": "view",
      "type": "function"
    }
  ],
  "bytecode": "0x60806040526000805534801561001457600080fd5b50610bd6806100246000396000f3fe6080604052600436106100555760003560e01c80630224ad441461005a57806303e9e609146100cd578063344610671461020a5780637988d05614610347578063834b5d471461037257806383ac1d07146103ed575b600080fd5b34801561006657600080fd5b506100b36004803603604081101561007d57600080fd5b8101908080359060200190929190803573ffffffffffffffffffffffffffffffffffffffff169060200190929190505050610509565b604051808215151515815260200191505060405180910390f35b3480156100d957600080fd5b50610106600480360360208110156100f057600080fd5b8101908080359060200190929190505050610589565b6040518087815260200186600781111561011c57fe5b60ff168152602001806020018573ffffffffffffffffffffffffffffffffffffffff1673ffffffffffffffffffffffffffffffffffffffff1681526020018473ffffffffffffffffffffffffffffffffffffffff1673ffffffffffffffffffffffffffffffffffffffff168152602001838152602001828103825286818151815260200191508051906020019080838360005b838110156101ca5780820151818401526020810190506101af565b50505050905090810190601f1680156101f75780820380516001836020036101000a031916815260200191505b5097505050505050505060405180910390f35b34801561021657600080fd5b506102436004803603602081101561022d57600080fd5b810190808035906020019092919050505061071a565b6040518087815260200186600781111561025957fe5b60ff168152602001806020018573ffffffffffffffffffffffffffffffffffffffff1673ffffffffffffffffffffffffffffffffffffffff1681526020018473ffffffffffffffffffffffffffffffffffffffff1673ffffffffffffffffffffffffffffffffffffffff168152602001838152602001828103825286818151815260200191508051906020019080838360005b838110156103075780820151818401526020810190506102ec565b50505050905090810190601f1680156103345780820380516001836020036101000a031916815260200191505b5097505050505050505060405180910390f35b34801561035357600080fd5b5061035c61083b565b6040518082815260200191505060405180910390f35b34801561037e57600080fd5b506103ab6004803603602081101561039557600080fd5b8101908080359060200190929190505050610841565b604051808273ffffffffffffffffffffffffffffffffffffffff1673ffffffffffffffffffffffffffffffffffffffff16815260200191505060405180910390f35b6104f36004803603608081101561040357600080fd5b81019080803560ff1690602001909291908035906020019064010000000081111561042d57600080fd5b82018360208201111561043f57600080fd5b8035906020019184600183028401116401000000008311171561046157600080fd5b91908080601f016020809104026020016040519081016040528093929190818152602001838380828437600081840152601f19601f820116905080830192505050505050509192919290803573ffffffffffffffffffffffffffffffffffffffff169060200190929190803573ffffffffffffffffffffffffffffffffffffffff169060200190929190505050610881565b6040518082815260200191505060405180910390f35b60008173ffffffffffffffffffffffffffffffffffffffff166001600085815260200190815260200160002060030160009054906101000a900473ffffffffffffffffffffffffffffffffffffffff1673ffffffffffffffffffffffffffffffffffffffff16141561057e5760019050610583565b600090505b92915050565b6000806060600080600060016000888152602001908152602001600020600001546001600089815260200190815260200160002060010160009054906101000a900460ff16600160008a8152602001908152602001600020600201600160008b815260200190815260200160002060030160009054906101000a900473ffffffffffffffffffffffffffffffffffffffff16600160008c815260200190815260200160002060040160009054906101000a900473ffffffffffffffffffffffffffffffffffffffff16600160008d815260200190815260200160002060050154838054600181600116156101000203166002900480601f0160208091040260200160405190810160405280929190818152602001828054600181600116156101000203166002900480156106fe5780601f106106d3576101008083540402835291602001916106fe565b820191906000526020600020905b8154815290600101906020018083116106e157829003601f168201915b5050505050935095509550955095509550955091939550919395565b60016020528060005260406000206000915090508060000154908060010160009054906101000a900460ff1690806002018054600181600116156101000203166002900480601f0160208091040260200160405190810160405280929190818152602001828054600181600116156101000203166002900480156107df5780601f106107b4576101008083540402835291602001916107df565b820191906000526020600020905b8154815290600101906020018083116107c257829003601f168201915b5050505050908060030160009054906101000a900473ffffffffffffffffffffffffffffffffffffffff16908060040160009054906101000a900473ffffffffffffffffffffffffffffffffffffffff16908060050154905086565b60005481565b60006001600083815260200190815260200160002060040160009054906101000a900473ffffffffffffffffffffffffffffffffffffffff169050919050565b6000662386f26fc1000034116108ff576040517f08c379a000000000000000000000000000000000000000000000000000000000815260040180806020018281038252601b8152602001807f6174206c6561737420302e303120455448206973206e6565646564000000000081525060200191505060405180910390fd5b610907610a8f565b6040518060c00160405280600054815260200187600781111561092657fe5b81526020018681526020018573ffffffffffffffffffffffffffffffffffffffff1681526020018473ffffffffffffffffffffffffffffffffffffffff168152602001428152509050600080600081548092919060010191905055905081600160008381526020019081526020016000206000820151816000015560208201518160010160006101000a81548160ff021916908360078111156109c557fe5b021790555060408201518160020190805190602001906109e6929190610afc565b5060608201518160030160006101000a81548173ffffffffffffffffffffffffffffffffffffffff021916908373ffffffffffffffffffffffffffffffffffffffff16021790555060808201518160040160006101000a81548173ffffffffffffffffffffffffffffffffffffffff021916908373ffffffffffffffffffffffffffffffffffffffff16021790555060a082015181600501559050508092505050949350505050565b6040518060c001604052806000815260200160006007811115610aae57fe5b815260200160608152602001600073ffffffffffffffffffffffffffffffffffffffff168152602001600073ffffffffffffffffffffffffffffffffffffffff168152602001600081525090565b828054600181600116156101000203166002900490600052602060002090601f016020900481019282601f10610b3d57805160ff1916838001178555610b6b565b82800160010185558215610b6b579182015b82811115610b6a578251825591602001919060010190610b4f565b5b509050610b789190610b7c565b5090565b610b9e91905b80821115610b9a576000816000905550600101610b82565b5090565b9056fea265627a7a72315820acba825051613da37b42a0330f1b1efdf2d36740993476017743c23c8240186264736f6c63430005110032",
  "source": "pragma solidity ^0.5.0;\n\ncontract EHR {\n\n    // enum EHRstate { unverified, verified }\n    enum RecordType{ IMMUNISATION, ALLERGIES, LABORATORY_RESULTS, SCREENING_RECORDS, DISCHARGE_INFORMATION, VITAL_HEALTH_TRACKING, APPOINTMENT_INFORMATION, MEDICATIONS}\n    \n    struct ehr {\n\n        uint256 recordId;\n        RecordType recordType;\n        // EHRstate state;\n        string fileName; \n        address patientAddress;\n        address doctorAddress;\n        uint256 timeAdded;\n    }\n    \n    uint256 public numEHR = 0;\n    mapping(uint256 => ehr) public records;\n    // record type -> (record type id -> records)\n\n    function add(\n        RecordType recordType,\n        string memory fileName,\n        address patient,\n        address doctor\n    ) public payable returns(uint256) {\n        require(msg.value > 0.01 ether, \"at least 0.01 ETH is needed\"); // not sure if we need this\n        \n        //new EHR object\n        ehr memory newEhr = ehr(\n            numEHR,\n            recordType,\n            fileName,\n            patient,\n            doctor,\n            now\n        );\n        \n        uint256 newEhrId = numEHR++;\n        records[newEhrId] = newEhr; //commit to state variable\n        return newEhrId;   //return new ehrId\n    }\n\n\n    /********* MODIFIERS *********/\n\n    modifier patientOnly(uint256 ehrId) {\n        require(records[ehrId].patientAddress == msg.sender);\n        _;\n    }\n\n    // ensure valid record ID\n    modifier validEHRId(uint256 ehrId) {\n        require(ehrId < numEHR);\n        _;\n    }\n\n\n    /********* FUNCTIONS *********/\n\n    function getDoctorAddress(uint256 recordId) public view returns(address) {\n        return records[recordId].doctorAddress;\n    }\n\n    function getRecord(uint256 recordId) public view returns(uint256 id,\n        RecordType recordType,\n        string memory fileName,\n        address patientAddress,\n        address doctorAddress,\n        uint256 timeAdded) {\n        return (records[recordId].recordId, records[recordId].recordType, records[recordId].fileName, records[recordId].patientAddress, records[recordId].doctorAddress, records[recordId].timeAdded);\n    }\n\n    function isRecordBelongToPatient(uint256 recordId, address patientAddress) public view returns (bool) {\n        if (records[recordId].patientAddress == patientAddress) {\n            return true;\n        } else {\n            return false;\n        }\n    }\n}\n",
  "sourcePath": "/Users/seantan/Documents/Code/School/IS4302/project/contracts/EHR.sol",
  "compiler": {
    "name": "solc",
    "version": "0.5.17+commit.d19bba13.Emscripten.clang"
  },
  "schemaVersion": "3.4.13",
  "updatedAt": "2023-04-01T08:55:50.546Z",
  "networkType": "ethereum",
  "devdoc": {
    "methods": {}
  },
  "userdoc": {
    "methods": {
      "getDoctorAddress(uint256)": {
        "notice": "******* FUNCTIONS ********"
      }
    }
  }
}