{
  "contractName": "EHR",
  "abi": [
    {
      "anonymous": false,
      "inputs": [
        {
          "indexed": false,
          "internalType": "address",
          "name": "ehrAddress",
          "type": "address"
        }
      ],
      "name": "EHRAdded",
      "type": "event"
    },
    {
      "constant": true,
      "inputs": [],
      "name": "numEHR",
      "outputs": [
        {
          "internalType": "uint256",
          "name": "",
          "type": "uint256"
        }
      ],
      "payable": false,
      "stateMutability": "view",
      "type": "function"
    },
    {
      "constant": true,
      "inputs": [
        {
          "internalType": "uint256",
          "name": "",
          "type": "uint256"
        }
      ],
      "name": "records",
      "outputs": [
        {
          "internalType": "uint256",
          "name": "recordId",
          "type": "uint256"
        },
        {
          "internalType": "enum EHR.RecordType",
          "name": "recordType",
          "type": "uint8"
        },
        {
          "internalType": "string",
          "name": "fileName",
          "type": "string"
        },
        {
          "internalType": "address",
          "name": "patientAddress",
          "type": "address"
        },
        {
          "internalType": "address",
          "name": "doctorAddress",
          "type": "address"
        },
        {
          "internalType": "uint256",
          "name": "timeAdded",
          "type": "uint256"
        }
      ],
      "payable": false,
      "stateMutability": "view",
      "type": "function"
    },
    {
      "constant": false,
      "inputs": [
        {
          "internalType": "enum EHR.RecordType",
          "name": "recordType",
          "type": "uint8"
        },
        {
          "internalType": "string",
          "name": "fileName",
          "type": "string"
        },
        {
          "internalType": "address",
          "name": "patient",
          "type": "address"
        },
        {
          "internalType": "address",
          "name": "doctor",
          "type": "address"
        }
      ],
      "name": "add",
      "outputs": [
        {
          "internalType": "uint256",
          "name": "",
          "type": "uint256"
        }
      ],
      "payable": false,
      "stateMutability": "nonpayable",
      "type": "function"
    },
    {
      "constant": true,
      "inputs": [
        {
          "internalType": "uint256",
          "name": "recordId",
          "type": "uint256"
        }
      ],
      "name": "getDoctorAddress",
      "outputs": [
        {
          "internalType": "address",
          "name": "",
          "type": "address"
        }
      ],
      "payable": false,
      "stateMutability": "view",
      "type": "function"
    },
    {
      "constant": true,
      "inputs": [
        {
          "internalType": "uint256",
          "name": "recordId",
          "type": "uint256"
        }
      ],
      "name": "getPatientAddress",
      "outputs": [
        {
          "internalType": "address",
          "name": "",
          "type": "address"
        }
      ],
      "payable": false,
      "stateMutability": "view",
      "type": "function"
    },
    {
      "constant": true,
      "inputs": [
        {
          "internalType": "uint256",
          "name": "recordId",
          "type": "uint256"
        }
      ],
      "name": "getRecord",
      "outputs": [
        {
          "internalType": "uint256",
          "name": "id",
          "type": "uint256"
        },
        {
          "internalType": "enum EHR.RecordType",
          "name": "recordType",
          "type": "uint8"
        },
        {
          "internalType": "string",
          "name": "fileName",
          "type": "string"
        },
        {
          "internalType": "address",
          "name": "patientAddress",
          "type": "address"
        },
        {
          "internalType": "address",
          "name": "doctorAddress",
          "type": "address"
        },
        {
          "internalType": "uint256",
          "name": "timeAdded",
          "type": "uint256"
        }
      ],
      "payable": false,
      "stateMutability": "view",
      "type": "function"
    },
    {
      "constant": false,
      "inputs": [
        {
          "internalType": "uint256",
          "name": "recordId",
          "type": "uint256"
        },
        {
          "internalType": "enum EHR.RecordType",
          "name": "recordType",
          "type": "uint8"
        },
        {
          "internalType": "string",
          "name": "fileName",
          "type": "string"
        }
      ],
      "name": "updateRecord",
      "outputs": [],
      "payable": false,
      "stateMutability": "nonpayable",
      "type": "function"
    },
    {
      "constant": true,
      "inputs": [
        {
          "internalType": "uint256",
          "name": "recordId",
          "type": "uint256"
        },
        {
          "internalType": "address",
          "name": "_patientAddress",
          "type": "address"
        }
      ],
      "name": "isRecordBelongToPatient",
      "outputs": [
        {
          "internalType": "bool",
          "name": "",
          "type": "bool"
        }
      ],
      "payable": false,
      "stateMutability": "view",
      "type": "function"
    },
    {
      "constant": true,
      "inputs": [
        {
          "internalType": "uint256",
          "name": "recordId",
          "type": "uint256"
        },
        {
          "internalType": "enum EHR.RecordType",
          "name": "_recordType",
          "type": "uint8"
        }
      ],
      "name": "doesRecordMatchRecordType",
      "outputs": [
        {
          "internalType": "bool",
          "name": "",
          "type": "bool"
        }
      ],
      "payable": false,
      "stateMutability": "view",
      "type": "function"
    }
  ],
  "bytecode": "0x60806040526000805534801561001457600080fd5b50610ecf806100246000396000f3fe608060405234801561001057600080fd5b50600436106100935760003560e01c80636a5cb5d8116100665780636a5cb5d8146103cc5780637988d0561461049e578063834b5d47146104bc57806383ac1d071461052a578063fc60b1211461064657610093565b80630224ad441461009857806303e9e609146100fe578063097ee8cd1461022e578063344610671461029c575b600080fd5b6100e4600480360360408110156100ae57600080fd5b8101908080359060200190929190803573ffffffffffffffffffffffffffffffffffffffff169060200190929190505050610699565b604051808215151515815260200191505060405180910390f35b61012a6004803603602081101561011457600080fd5b8101908080359060200190929190505050610719565b6040518087815260200186600781111561014057fe5b60ff168152602001806020018573ffffffffffffffffffffffffffffffffffffffff1673ffffffffffffffffffffffffffffffffffffffff1681526020018473ffffffffffffffffffffffffffffffffffffffff1673ffffffffffffffffffffffffffffffffffffffff168152602001838152602001828103825286818151815260200191508051906020019080838360005b838110156101ee5780820151818401526020810190506101d3565b50505050905090810190601f16801561021b5780820380516001836020036101000a031916815260200191505b5097505050505050505060405180910390f35b61025a6004803603602081101561024457600080fd5b81019080803590602001909291905050506108aa565b604051808273ffffffffffffffffffffffffffffffffffffffff1673ffffffffffffffffffffffffffffffffffffffff16815260200191505060405180910390f35b6102c8600480360360208110156102b257600080fd5b81019080803590602001909291905050506108ea565b604051808781526020018660078111156102de57fe5b60ff168152602001806020018573ffffffffffffffffffffffffffffffffffffffff1673ffffffffffffffffffffffffffffffffffffffff1681526020018473ffffffffffffffffffffffffffffffffffffffff1673ffffffffffffffffffffffffffffffffffffffff168152602001838152602001828103825286818151815260200191508051906020019080838360005b8381101561038c578082015181840152602081019050610371565b50505050905090810190601f1680156103b95780820380516001836020036101000a031916815260200191505b5097505050505050505060405180910390f35b61049c600480360360608110156103e257600080fd5b8101908080359060200190929190803560ff1690602001909291908035906020019064010000000081111561041657600080fd5b82018360208201111561042857600080fd5b8035906020019184600183028401116401000000008311171561044a57600080fd5b91908080601f016020809104026020016040519081016040528093929190818152602001838380828437600081840152601f19601f820116905080830192505050505050509192919290505050610a0b565b005b6104a6610a72565b6040518082815260200191505060405180910390f35b6104e8600480360360208110156104d257600080fd5b8101908080359060200190929190505050610a78565b604051808273ffffffffffffffffffffffffffffffffffffffff1673ffffffffffffffffffffffffffffffffffffffff16815260200191505060405180910390f35b6106306004803603608081101561054057600080fd5b81019080803560ff1690602001909291908035906020019064010000000081111561056a57600080fd5b82018360208201111561057c57600080fd5b8035906020019184600183028401116401000000008311171561059e57600080fd5b91908080601f016020809104026020016040519081016040528093929190818152602001838380828437600081840152601f19601f820116905080830192505050505050509192919290803573ffffffffffffffffffffffffffffffffffffffff169060200190929190803573ffffffffffffffffffffffffffffffffffffffff169060200190929190505050610ab8565b6040518082815260200191505060405180910390f35b61067f6004803603604081101561065c57600080fd5b8101908080359060200190929190803560ff169060200190929190505050610cb1565b604051808215151515815260200191505060405180910390f35b60008173ffffffffffffffffffffffffffffffffffffffff166001600085815260200190815260200160002060030160009054906101000a900473ffffffffffffffffffffffffffffffffffffffff1673ffffffffffffffffffffffffffffffffffffffff16141561070e5760019050610713565b600090505b92915050565b6000806060600080600060016000888152602001908152602001600020600001546001600089815260200190815260200160002060010160009054906101000a900460ff16600160008a8152602001908152602001600020600201600160008b815260200190815260200160002060030160009054906101000a900473ffffffffffffffffffffffffffffffffffffffff16600160008c815260200190815260200160002060040160009054906101000a900473ffffffffffffffffffffffffffffffffffffffff16600160008d815260200190815260200160002060050154838054600181600116156101000203166002900480601f01602080910402602001604051908101604052809291908181526020018280546001816001161561010002031660029004801561088e5780601f106108635761010080835404028352916020019161088e565b820191906000526020600020905b81548152906001019060200180831161087157829003601f168201915b5050505050935095509550955095509550955091939550919395565b60006001600083815260200190815260200160002060030160009054906101000a900473ffffffffffffffffffffffffffffffffffffffff169050919050565b60016020528060005260406000206000915090508060000154908060010160009054906101000a900460ff1690806002018054600181600116156101000203166002900480601f0160208091040260200160405190810160405280929190818152602001828054600181600116156101000203166002900480156109af5780601f10610984576101008083540402835291602001916109af565b820191906000526020600020905b81548152906001019060200180831161099257829003601f168201915b5050505050908060030160009054906101000a900473ffffffffffffffffffffffffffffffffffffffff16908060040160009054906101000a900473ffffffffffffffffffffffffffffffffffffffff16908060050154905086565b816001600085815260200190815260200160002060010160006101000a81548160ff02191690836007811115610a3d57fe5b021790555080600160008581526020019081526020016000206002019080519060200190610a6c929190610d08565b50505050565b60005481565b60006001600083815260200190815260200160002060040160009054906101000a900473ffffffffffffffffffffffffffffffffffffffff169050919050565b6000610ac2610d88565b6040518060c001604052806000548152602001876007811115610ae157fe5b81526020018681526020018573ffffffffffffffffffffffffffffffffffffffff1681526020018473ffffffffffffffffffffffffffffffffffffffff168152602001428152509050600080600081548092919060010191905055905081600160008381526020019081526020016000206000820151816000015560208201518160010160006101000a81548160ff02191690836007811115610b8057fe5b02179055506040820151816002019080519060200190610ba1929190610df5565b5060608201518160030160006101000a81548173ffffffffffffffffffffffffffffffffffffffff021916908373ffffffffffffffffffffffffffffffffffffffff16021790555060808201518160040160006101000a81548173ffffffffffffffffffffffffffffffffffffffff021916908373ffffffffffffffffffffffffffffffffffffffff16021790555060a082015181600501559050507fcb1b940f1dadf8129eaf467ace460bc653bff517028e20f0d49fe55cc940fb668260800151604051808273ffffffffffffffffffffffffffffffffffffffff1673ffffffffffffffffffffffffffffffffffffffff16815260200191505060405180910390a18092505050949350505050565b6000816007811115610cbf57fe5b6001600085815260200190815260200160002060010160009054906101000a900460ff166007811115610cee57fe5b1415610cfd5760019050610d02565b600090505b92915050565b828054600181600116156101000203166002900490600052602060002090601f016020900481019282601f10610d4957805160ff1916838001178555610d77565b82800160010185558215610d77579182015b82811115610d76578251825591602001919060010190610d5b565b5b509050610d849190610e75565b5090565b6040518060c001604052806000815260200160006007811115610da757fe5b815260200160608152602001600073ffffffffffffffffffffffffffffffffffffffff168152602001600073ffffffffffffffffffffffffffffffffffffffff168152602001600081525090565b828054600181600116156101000203166002900490600052602060002090601f016020900481019282601f10610e3657805160ff1916838001178555610e64565b82800160010185558215610e64579182015b82811115610e63578251825591602001919060010190610e48565b5b509050610e719190610e75565b5090565b610e9791905b80821115610e93576000816000905550600101610e7b565b5090565b9056fea265627a7a72315820d3bbf9821f78d0d168b0e0492201c4f4f12544246a558b74ad2a06a28c491a9864736f6c63430005110032",
  "source": "pragma solidity ^0.5.0;\n\ncontract EHR {\n\n    // enum EHRstate { unverified, verified }\n    enum RecordType{ IMMUNISATION, ALLERGIES, LABORATORY_RESULTS, SCREENING_RECORDS, DISCHARGE_INFORMATION, VITAL_HEALTH_TRACKING, APPOINTMENT_INFORMATION, MEDICATIONS}\n    \n    struct ehr {\n\n        uint256 recordId;\n        RecordType recordType;\n        // EHRstate state;\n        string fileName; \n        address patientAddress;\n        address doctorAddress;\n        uint256 timeAdded;\n    }\n    \n    uint256 public numEHR = 0;\n    mapping(uint256 => ehr) public records;\n    // record type -> (record type id -> records)\n\n    function add(\n        RecordType recordType,\n        string memory fileName,\n        address patient,\n        address doctor\n    ) public returns(uint256) {\n        \n        //new EHR object\n        ehr memory newEhr = ehr(\n            numEHR,\n            recordType,\n            fileName,\n            patient,\n            doctor,\n            now\n        );\n        \n        uint256 newEhrId = numEHR++;\n        records[newEhrId] = newEhr; //commit to state variable\n        emit EHRAdded(newEhr.doctorAddress);\n        return newEhrId;   //return new ehrId\n    }\n\n    /********* EVENTS *********/\n\n    event EHRAdded(address ehrAddress);\n\n    /********* MODIFIERS *********/\n\n    modifier patientOnly(uint256 ehrId) {\n        require(records[ehrId].patientAddress == msg.sender);\n        _;\n    }\n\n    // ensure valid record ID\n    modifier validEHRId(uint256 ehrId) {\n        require(ehrId < numEHR);\n        _;\n    }\n\n\n    /********* FUNCTIONS *********/\n\n    function getDoctorAddress(uint256 recordId) public view returns(address) {\n        return records[recordId].doctorAddress;\n    }\n\n    function getPatientAddress(uint256 recordId) public view returns(address) {\n        return records[recordId].patientAddress;\n    }\n\n    function getRecord(uint256 recordId) public view returns(uint256 id,\n        RecordType recordType,\n        string memory fileName,\n        address patientAddress,\n        address doctorAddress,\n        uint256 timeAdded) {\n        return (records[recordId].recordId, records[recordId].recordType, records[recordId].fileName, records[recordId].patientAddress, records[recordId].doctorAddress, records[recordId].timeAdded);\n    }\n\n    function updateRecord(uint256 recordId, RecordType recordType, string memory fileName) public {\n        // Patient & Doctor address and timeAdded should not be editable\n        records[recordId].recordType = recordType;\n        records[recordId].fileName = fileName;\n    }\n\n\n    function isRecordBelongToPatient(uint256 recordId, address _patientAddress) public view returns(bool) {\n        if (records[recordId].patientAddress == _patientAddress) {\n            return true;\n        } else {\n            return false;\n        }\n    }\n\n    function doesRecordMatchRecordType(uint256 recordId, RecordType _recordType) public view returns(bool) {\n        if(records[recordId].recordType == _recordType) {\n            return true;\n        } else {\n            return false;\n        }\n    }\n}\n",
  "sourcePath": "/Users/seantan/Documents/Code/School/IS4302/project/contracts/EHR.sol",
  "compiler": {
    "name": "solc",
    "version": "0.5.17+commit.d19bba13.Emscripten.clang"
  },
  "schemaVersion": "3.4.13",
  "updatedAt": "2023-04-07T06:27:25.978Z",
  "devdoc": {
    "methods": {}
  },
  "userdoc": {
    "methods": {
      "getDoctorAddress(uint256)": {
        "notice": "******* FUNCTIONS ********"
      }
    }
  }
}