{
  "contractName": "EHR",
  "abi": [
    {
      "constant": true,
      "inputs": [],
      "name": "numEHR",
      "outputs": [
        {
          "internalType": "uint256",
          "name": "",
          "type": "uint256"
        }
      ],
      "payable": false,
      "stateMutability": "view",
      "type": "function"
    },
    {
      "constant": true,
      "inputs": [
        {
          "internalType": "uint256",
          "name": "",
          "type": "uint256"
        }
      ],
      "name": "records",
      "outputs": [
        {
          "internalType": "uint256",
          "name": "recordId",
          "type": "uint256"
        },
        {
          "internalType": "enum EHR.RecordType",
          "name": "recordType",
          "type": "uint8"
        },
        {
          "internalType": "string",
          "name": "fileName",
          "type": "string"
        },
        {
          "internalType": "address",
          "name": "patientAddress",
          "type": "address"
        },
        {
          "internalType": "address",
          "name": "doctorAddress",
          "type": "address"
        },
        {
          "internalType": "uint256",
          "name": "timeAdded",
          "type": "uint256"
        }
      ],
      "payable": false,
      "stateMutability": "view",
      "type": "function"
    },
    {
      "constant": false,
      "inputs": [
        {
          "internalType": "enum EHR.RecordType",
          "name": "recordType",
          "type": "uint8"
        },
        {
          "internalType": "string",
          "name": "fileName",
          "type": "string"
        },
        {
          "internalType": "address",
          "name": "patient",
          "type": "address"
        },
        {
          "internalType": "address",
          "name": "doctor",
          "type": "address"
        }
      ],
      "name": "add",
      "outputs": [
        {
          "internalType": "uint256",
          "name": "",
          "type": "uint256"
        }
      ],
      "payable": true,
      "stateMutability": "payable",
      "type": "function"
    },
    {
      "constant": true,
      "inputs": [
        {
          "internalType": "uint256",
          "name": "recordId",
          "type": "uint256"
        }
      ],
      "name": "getDoctorAddress",
      "outputs": [
        {
          "internalType": "address",
          "name": "",
          "type": "address"
        }
      ],
      "payable": false,
      "stateMutability": "view",
      "type": "function"
    },
    {
      "constant": true,
      "inputs": [
        {
          "internalType": "uint256",
          "name": "recordId",
          "type": "uint256"
        }
      ],
      "name": "getPatientAddress",
      "outputs": [
        {
          "internalType": "address",
          "name": "",
          "type": "address"
        }
      ],
      "payable": false,
      "stateMutability": "view",
      "type": "function"
    },
    {
      "constant": true,
      "inputs": [
        {
          "internalType": "uint256",
          "name": "recordId",
          "type": "uint256"
        }
      ],
      "name": "getRecord",
      "outputs": [
        {
          "internalType": "uint256",
          "name": "id",
          "type": "uint256"
        },
        {
          "internalType": "enum EHR.RecordType",
          "name": "recordType",
          "type": "uint8"
        },
        {
          "internalType": "string",
          "name": "fileName",
          "type": "string"
        },
        {
          "internalType": "address",
          "name": "patientAddress",
          "type": "address"
        },
        {
          "internalType": "address",
          "name": "doctorAddress",
          "type": "address"
        },
        {
          "internalType": "uint256",
          "name": "timeAdded",
          "type": "uint256"
        }
      ],
      "payable": false,
      "stateMutability": "view",
      "type": "function"
    },
    {
      "constant": false,
      "inputs": [
        {
          "internalType": "uint256",
          "name": "recordId",
          "type": "uint256"
        },
        {
          "internalType": "enum EHR.RecordType",
          "name": "recordType",
          "type": "uint8"
        },
        {
          "internalType": "string",
          "name": "fileName",
          "type": "string"
        }
      ],
      "name": "updateRecord",
      "outputs": [],
      "payable": false,
      "stateMutability": "nonpayable",
      "type": "function"
    },
    {
      "constant": true,
      "inputs": [
        {
          "internalType": "uint256",
          "name": "recordId",
          "type": "uint256"
        },
        {
          "internalType": "address",
          "name": "_patientAddress",
          "type": "address"
        }
      ],
      "name": "isRecordBelongToPatient",
      "outputs": [
        {
          "internalType": "bool",
          "name": "",
          "type": "bool"
        }
      ],
      "payable": false,
      "stateMutability": "view",
      "type": "function"
    },
    {
      "constant": true,
      "inputs": [
        {
          "internalType": "uint256",
          "name": "recordId",
          "type": "uint256"
        },
        {
          "internalType": "enum EHR.RecordType",
          "name": "_recordType",
          "type": "uint8"
        }
      ],
      "name": "doesRecordMatchRecordType",
      "outputs": [
        {
          "internalType": "bool",
          "name": "",
          "type": "bool"
        }
      ],
      "payable": false,
      "stateMutability": "view",
      "type": "function"
    }
  ],
  "bytecode": "0x60806040526000805534801561001457600080fd5b50610f3f806100246000396000f3fe6080604052600436106100865760003560e01c80636a5cb5d8116100595780636a5cb5d8146103f35780637988d056146104d2578063834b5d47146104fd57806383ac1d0714610578578063fc60b1211461069457610086565b80630224ad441461008b57806303e9e609146100fe578063097ee8cd1461023b57806334461067146102b6575b600080fd5b34801561009757600080fd5b506100e4600480360360408110156100ae57600080fd5b8101908080359060200190929190803573ffffffffffffffffffffffffffffffffffffffff1690602001909291905050506106f4565b604051808215151515815260200191505060405180910390f35b34801561010a57600080fd5b506101376004803603602081101561012157600080fd5b8101908080359060200190929190505050610774565b6040518087815260200186600781111561014d57fe5b60ff168152602001806020018573ffffffffffffffffffffffffffffffffffffffff1673ffffffffffffffffffffffffffffffffffffffff1681526020018473ffffffffffffffffffffffffffffffffffffffff1673ffffffffffffffffffffffffffffffffffffffff168152602001838152602001828103825286818151815260200191508051906020019080838360005b838110156101fb5780820151818401526020810190506101e0565b50505050905090810190601f1680156102285780820380516001836020036101000a031916815260200191505b5097505050505050505060405180910390f35b34801561024757600080fd5b506102746004803603602081101561025e57600080fd5b8101908080359060200190929190505050610905565b604051808273ffffffffffffffffffffffffffffffffffffffff1673ffffffffffffffffffffffffffffffffffffffff16815260200191505060405180910390f35b3480156102c257600080fd5b506102ef600480360360208110156102d957600080fd5b8101908080359060200190929190505050610945565b6040518087815260200186600781111561030557fe5b60ff168152602001806020018573ffffffffffffffffffffffffffffffffffffffff1673ffffffffffffffffffffffffffffffffffffffff1681526020018473ffffffffffffffffffffffffffffffffffffffff1673ffffffffffffffffffffffffffffffffffffffff168152602001838152602001828103825286818151815260200191508051906020019080838360005b838110156103b3578082015181840152602081019050610398565b50505050905090810190601f1680156103e05780820380516001836020036101000a031916815260200191505b5097505050505050505060405180910390f35b3480156103ff57600080fd5b506104d06004803603606081101561041657600080fd5b8101908080359060200190929190803560ff1690602001909291908035906020019064010000000081111561044a57600080fd5b82018360208201111561045c57600080fd5b8035906020019184600183028401116401000000008311171561047e57600080fd5b91908080601f016020809104026020016040519081016040528093929190818152602001838380828437600081840152601f19601f820116905080830192505050505050509192919290505050610a66565b005b3480156104de57600080fd5b506104e7610acd565b6040518082815260200191505060405180910390f35b34801561050957600080fd5b506105366004803603602081101561052057600080fd5b8101908080359060200190929190505050610ad3565b604051808273ffffffffffffffffffffffffffffffffffffffff1673ffffffffffffffffffffffffffffffffffffffff16815260200191505060405180910390f35b61067e6004803603608081101561058e57600080fd5b81019080803560ff169060200190929190803590602001906401000000008111156105b857600080fd5b8201836020820111156105ca57600080fd5b803590602001918460018302840111640100000000831117156105ec57600080fd5b91908080601f016020809104026020016040519081016040528093929190818152602001838380828437600081840152601f19601f820116905080830192505050505050509192919290803573ffffffffffffffffffffffffffffffffffffffff169060200190929190803573ffffffffffffffffffffffffffffffffffffffff169060200190929190505050610b13565b6040518082815260200191505060405180910390f35b3480156106a057600080fd5b506106da600480360360408110156106b757600080fd5b8101908080359060200190929190803560ff169060200190929190505050610d21565b604051808215151515815260200191505060405180910390f35b60008173ffffffffffffffffffffffffffffffffffffffff166001600085815260200190815260200160002060030160009054906101000a900473ffffffffffffffffffffffffffffffffffffffff1673ffffffffffffffffffffffffffffffffffffffff161415610769576001905061076e565b600090505b92915050565b6000806060600080600060016000888152602001908152602001600020600001546001600089815260200190815260200160002060010160009054906101000a900460ff16600160008a8152602001908152602001600020600201600160008b815260200190815260200160002060030160009054906101000a900473ffffffffffffffffffffffffffffffffffffffff16600160008c815260200190815260200160002060040160009054906101000a900473ffffffffffffffffffffffffffffffffffffffff16600160008d815260200190815260200160002060050154838054600181600116156101000203166002900480601f0160208091040260200160405190810160405280929190818152602001828054600181600116156101000203166002900480156108e95780601f106108be576101008083540402835291602001916108e9565b820191906000526020600020905b8154815290600101906020018083116108cc57829003601f168201915b5050505050935095509550955095509550955091939550919395565b60006001600083815260200190815260200160002060030160009054906101000a900473ffffffffffffffffffffffffffffffffffffffff169050919050565b60016020528060005260406000206000915090508060000154908060010160009054906101000a900460ff1690806002018054600181600116156101000203166002900480601f016020809104026020016040519081016040528092919081815260200182805460018160011615610100020316600290048015610a0a5780601f106109df57610100808354040283529160200191610a0a565b820191906000526020600020905b8154815290600101906020018083116109ed57829003601f168201915b5050505050908060030160009054906101000a900473ffffffffffffffffffffffffffffffffffffffff16908060040160009054906101000a900473ffffffffffffffffffffffffffffffffffffffff16908060050154905086565b816001600085815260200190815260200160002060010160006101000a81548160ff02191690836007811115610a9857fe5b021790555080600160008581526020019081526020016000206002019080519060200190610ac7929190610d78565b50505050565b60005481565b60006001600083815260200190815260200160002060040160009054906101000a900473ffffffffffffffffffffffffffffffffffffffff169050919050565b6000662386f26fc100003411610b91576040517f08c379a000000000000000000000000000000000000000000000000000000000815260040180806020018281038252601b8152602001807f6174206c6561737420302e303120455448206973206e6565646564000000000081525060200191505060405180910390fd5b610b99610df8565b6040518060c001604052806000548152602001876007811115610bb857fe5b81526020018681526020018573ffffffffffffffffffffffffffffffffffffffff1681526020018473ffffffffffffffffffffffffffffffffffffffff168152602001428152509050600080600081548092919060010191905055905081600160008381526020019081526020016000206000820151816000015560208201518160010160006101000a81548160ff02191690836007811115610c5757fe5b02179055506040820151816002019080519060200190610c78929190610e65565b5060608201518160030160006101000a81548173ffffffffffffffffffffffffffffffffffffffff021916908373ffffffffffffffffffffffffffffffffffffffff16021790555060808201518160040160006101000a81548173ffffffffffffffffffffffffffffffffffffffff021916908373ffffffffffffffffffffffffffffffffffffffff16021790555060a082015181600501559050508092505050949350505050565b6000816007811115610d2f57fe5b6001600085815260200190815260200160002060010160009054906101000a900460ff166007811115610d5e57fe5b1415610d6d5760019050610d72565b600090505b92915050565b828054600181600116156101000203166002900490600052602060002090601f016020900481019282601f10610db957805160ff1916838001178555610de7565b82800160010185558215610de7579182015b82811115610de6578251825591602001919060010190610dcb565b5b509050610df49190610ee5565b5090565b6040518060c001604052806000815260200160006007811115610e1757fe5b815260200160608152602001600073ffffffffffffffffffffffffffffffffffffffff168152602001600073ffffffffffffffffffffffffffffffffffffffff168152602001600081525090565b828054600181600116156101000203166002900490600052602060002090601f016020900481019282601f10610ea657805160ff1916838001178555610ed4565b82800160010185558215610ed4579182015b82811115610ed3578251825591602001919060010190610eb8565b5b509050610ee19190610ee5565b5090565b610f0791905b80821115610f03576000816000905550600101610eeb565b5090565b9056fea265627a7a723158200222e9f2d269aa0e17787b174ec1c8d55f1556b3d235755396be8b932451466464736f6c63430005110032",
  "source": "pragma solidity ^0.5.0;\n\ncontract EHR {\n\n    // enum EHRstate { unverified, verified }\n    enum RecordType{ IMMUNISATION, ALLERGIES, LABORATORY_RESULTS, SCREENING_RECORDS, DISCHARGE_INFORMATION, VITAL_HEALTH_TRACKING, APPOINTMENT_INFORMATION, MEDICATIONS}\n    \n    struct ehr {\n\n        uint256 recordId;\n        RecordType recordType;\n        // EHRstate state;\n        string fileName; \n        address patientAddress;\n        address doctorAddress;\n        uint256 timeAdded;\n    }\n    \n    uint256 public numEHR = 0;\n    mapping(uint256 => ehr) public records;\n    // record type -> (record type id -> records)\n\n    function add(\n        RecordType recordType,\n        string memory fileName,\n        address patient,\n        address doctor\n    ) public payable returns(uint256) {\n        require(msg.value > 0.01 ether, \"at least 0.01 ETH is needed\"); // not sure if we need this\n        \n        //new EHR object\n        ehr memory newEhr = ehr(\n            numEHR,\n            recordType,\n            fileName,\n            patient,\n            doctor,\n            now\n        );\n        \n        uint256 newEhrId = numEHR++;\n        records[newEhrId] = newEhr; //commit to state variable\n        return newEhrId;   //return new ehrId\n    }\n\n\n    /********* MODIFIERS *********/\n\n    modifier patientOnly(uint256 ehrId) {\n        require(records[ehrId].patientAddress == msg.sender);\n        _;\n    }\n\n    // ensure valid record ID\n    modifier validEHRId(uint256 ehrId) {\n        require(ehrId < numEHR);\n        _;\n    }\n\n\n    /********* FUNCTIONS *********/\n\n    function getDoctorAddress(uint256 recordId) public view returns(address) {\n        return records[recordId].doctorAddress;\n    }\n\n    function getPatientAddress(uint256 recordId) public view returns(address) {\n        return records[recordId].patientAddress;\n    }\n\n    function getRecord(uint256 recordId) public view returns(uint256 id,\n        RecordType recordType,\n        string memory fileName,\n        address patientAddress,\n        address doctorAddress,\n        uint256 timeAdded) {\n        return (records[recordId].recordId, records[recordId].recordType, records[recordId].fileName, records[recordId].patientAddress, records[recordId].doctorAddress, records[recordId].timeAdded);\n    }\n\n    function updateRecord(uint256 recordId, RecordType recordType, string memory fileName) public {\n        // Patient & Doctor address and timeAdded should not be editable\n        records[recordId].recordType = recordType;\n        records[recordId].fileName = fileName;\n    }\n\n\n    function isRecordBelongToPatient(uint256 recordId, address _patientAddress) public view returns(bool) {\n        if (records[recordId].patientAddress == _patientAddress) {\n            return true;\n        } else {\n            return false;\n        }\n    }\n\n    function doesRecordMatchRecordType(uint256 recordId, RecordType _recordType) public view returns(bool) {\n        if(records[recordId].recordType == _recordType) {\n            return true;\n        } else {\n            return false;\n        }\n    }\n}\n",
  "sourcePath": "/Users/seantan/Documents/Code/School/IS4302/project/contracts/EHR.sol",
  "compiler": {
    "name": "solc",
    "version": "0.5.17+commit.d19bba13.Emscripten.clang"
  },
  "schemaVersion": "3.4.13",
  "updatedAt": "2023-04-04T08:33:06.070Z",
  "devdoc": {
    "methods": {}
  },
  "userdoc": {
    "methods": {
      "getDoctorAddress(uint256)": {
        "notice": "******* FUNCTIONS ********"
      }
    }
  }
}