{
  "contractName": "EHR",
  "abi": [
    {
      "anonymous": false,
      "inputs": [
        {
          "indexed": false,
          "internalType": "address",
          "name": "ehrAddress",
          "type": "address"
        }
      ],
      "name": "EHRAdded",
      "type": "event"
    },
    {
      "constant": true,
      "inputs": [],
      "name": "numEHR",
      "outputs": [
        {
          "internalType": "uint256",
          "name": "",
          "type": "uint256"
        }
      ],
      "payable": false,
      "stateMutability": "view",
      "type": "function"
    },
    {
      "constant": true,
      "inputs": [
        {
          "internalType": "uint256",
          "name": "",
          "type": "uint256"
        }
      ],
      "name": "records",
      "outputs": [
        {
          "internalType": "uint256",
          "name": "recordId",
          "type": "uint256"
        },
        {
          "internalType": "enum EHR.RecordType",
          "name": "recordType",
          "type": "uint8"
        },
        {
          "internalType": "string",
          "name": "fileName",
          "type": "string"
        },
        {
          "internalType": "address",
          "name": "patientAddress",
          "type": "address"
        },
        {
          "internalType": "address",
          "name": "doctorAddress",
          "type": "address"
        },
        {
          "internalType": "uint256",
          "name": "timeAdded",
          "type": "uint256"
        },
        {
          "internalType": "bool",
          "name": "patientSignedOff",
          "type": "bool"
        }
      ],
      "payable": false,
      "stateMutability": "view",
      "type": "function"
    },
    {
      "constant": false,
      "inputs": [
        {
          "internalType": "enum EHR.RecordType",
          "name": "recordType",
          "type": "uint8"
        },
        {
          "internalType": "string",
          "name": "fileName",
          "type": "string"
        },
        {
          "internalType": "address",
          "name": "patient",
          "type": "address"
        },
        {
          "internalType": "address",
          "name": "doctor",
          "type": "address"
        }
      ],
      "name": "add",
      "outputs": [
        {
          "internalType": "uint256",
          "name": "",
          "type": "uint256"
        }
      ],
      "payable": false,
      "stateMutability": "nonpayable",
      "type": "function"
    },
    {
      "constant": true,
      "inputs": [
        {
          "internalType": "uint256",
          "name": "recordId",
          "type": "uint256"
        }
      ],
      "name": "getDoctorAddress",
      "outputs": [
        {
          "internalType": "address",
          "name": "",
          "type": "address"
        }
      ],
      "payable": false,
      "stateMutability": "view",
      "type": "function"
    },
    {
      "constant": true,
      "inputs": [
        {
          "internalType": "uint256",
          "name": "recordId",
          "type": "uint256"
        }
      ],
      "name": "getPatientAddress",
      "outputs": [
        {
          "internalType": "address",
          "name": "",
          "type": "address"
        }
      ],
      "payable": false,
      "stateMutability": "view",
      "type": "function"
    },
    {
      "constant": true,
      "inputs": [
        {
          "internalType": "uint256",
          "name": "recordId",
          "type": "uint256"
        }
      ],
      "name": "getRecord",
      "outputs": [
        {
          "internalType": "uint256",
          "name": "id",
          "type": "uint256"
        },
        {
          "internalType": "enum EHR.RecordType",
          "name": "recordType",
          "type": "uint8"
        },
        {
          "internalType": "string",
          "name": "fileName",
          "type": "string"
        },
        {
          "internalType": "address",
          "name": "patientAddress",
          "type": "address"
        },
        {
          "internalType": "address",
          "name": "doctorAddress",
          "type": "address"
        },
        {
          "internalType": "uint256",
          "name": "timeAdded",
          "type": "uint256"
        },
        {
          "internalType": "bool",
          "name": "patientSignedOff",
          "type": "bool"
        }
      ],
      "payable": false,
      "stateMutability": "view",
      "type": "function"
    },
    {
      "constant": false,
      "inputs": [
        {
          "internalType": "uint256",
          "name": "recordId",
          "type": "uint256"
        },
        {
          "internalType": "enum EHR.RecordType",
          "name": "recordType",
          "type": "uint8"
        },
        {
          "internalType": "string",
          "name": "fileName",
          "type": "string"
        }
      ],
      "name": "updateRecord",
      "outputs": [],
      "payable": false,
      "stateMutability": "nonpayable",
      "type": "function"
    },
    {
      "constant": true,
      "inputs": [
        {
          "internalType": "uint256",
          "name": "recordId",
          "type": "uint256"
        },
        {
          "internalType": "address",
          "name": "_patientAddress",
          "type": "address"
        }
      ],
      "name": "isRecordBelongToPatient",
      "outputs": [
        {
          "internalType": "bool",
          "name": "",
          "type": "bool"
        }
      ],
      "payable": false,
      "stateMutability": "view",
      "type": "function"
    },
    {
      "constant": true,
      "inputs": [
        {
          "internalType": "uint256",
          "name": "recordId",
          "type": "uint256"
        },
        {
          "internalType": "enum EHR.RecordType",
          "name": "_recordType",
          "type": "uint8"
        }
      ],
      "name": "doesRecordMatchRecordType",
      "outputs": [
        {
          "internalType": "bool",
          "name": "",
          "type": "bool"
        }
      ],
      "payable": false,
      "stateMutability": "view",
      "type": "function"
    },
    {
      "constant": false,
      "inputs": [
        {
          "internalType": "uint256",
          "name": "recordId",
          "type": "uint256"
        }
      ],
      "name": "patientSignOff",
      "outputs": [],
      "payable": false,
      "stateMutability": "nonpayable",
      "type": "function"
    },
    {
      "constant": true,
      "inputs": [
        {
          "internalType": "uint256",
          "name": "recordId",
          "type": "uint256"
        }
      ],
      "name": "getRecordType",
      "outputs": [
        {
          "internalType": "enum EHR.RecordType",
          "name": "",
          "type": "uint8"
        }
      ],
      "payable": false,
      "stateMutability": "view",
      "type": "function"
    },
    {
      "constant": true,
      "inputs": [
        {
          "internalType": "uint256",
          "name": "recordId",
          "type": "uint256"
        }
      ],
      "name": "getRecordFileName",
      "outputs": [
        {
          "internalType": "string",
          "name": "",
          "type": "string"
        }
      ],
      "payable": false,
      "stateMutability": "view",
      "type": "function"
    },
    {
      "constant": true,
      "inputs": [
        {
          "internalType": "uint256",
          "name": "recordId",
          "type": "uint256"
        }
      ],
      "name": "getRecordPatientAddress",
      "outputs": [
        {
          "internalType": "address",
          "name": "",
          "type": "address"
        }
      ],
      "payable": false,
      "stateMutability": "view",
      "type": "function"
    },
    {
      "constant": true,
      "inputs": [
        {
          "internalType": "uint256",
          "name": "recordId",
          "type": "uint256"
        }
      ],
      "name": "getRecordDoctorAddress",
      "outputs": [
        {
          "internalType": "address",
          "name": "",
          "type": "address"
        }
      ],
      "payable": false,
      "stateMutability": "view",
      "type": "function"
    },
    {
      "constant": true,
      "inputs": [
        {
          "internalType": "uint256",
          "name": "recordId",
          "type": "uint256"
        }
      ],
      "name": "getRecordTimeAdded",
      "outputs": [
        {
          "internalType": "uint256",
          "name": "",
          "type": "uint256"
        }
      ],
      "payable": false,
      "stateMutability": "view",
      "type": "function"
    },
    {
      "constant": true,
      "inputs": [
        {
          "internalType": "uint256",
          "name": "recordId",
          "type": "uint256"
        }
      ],
      "name": "getRecordPatientSignedOff",
      "outputs": [
        {
          "internalType": "bool",
          "name": "",
          "type": "bool"
        }
      ],
      "payable": false,
      "stateMutability": "view",
      "type": "function"
    }
  ],
  "bytecode": "0x60806040526000805534801561001457600080fd5b506112cd806100246000396000f3fe608060405234801561001057600080fd5b50600436106101005760003560e01c806383ac1d0711610097578063b70d0d7311610066578063b70d0d7314610834578063c0938ff9146108a2578063d7ddb80c14610910578063fc60b1211461095257610100565b806383ac1d07146106545780638664d5f314610770578063872a2f791461079e578063933d2336146107e457610100565b80634d669212116100d35780634d6692121461044f5780636a5cb5d8146104f65780637988d056146105c8578063834b5d47146105e657610100565b80630224ad441461010557806303e9e6091461016b578063097ee8cd146102a65780633446106714610314575b600080fd5b6101516004803603604081101561011b57600080fd5b8101908080359060200190929190803573ffffffffffffffffffffffffffffffffffffffff1690602001909291905050506109a5565b604051808215151515815260200191505060405180910390f35b6101976004803603602081101561018157600080fd5b8101908080359060200190929190505050610a25565b604051808881526020018760078111156101ad57fe5b60ff168152602001806020018673ffffffffffffffffffffffffffffffffffffffff1673ffffffffffffffffffffffffffffffffffffffff1681526020018573ffffffffffffffffffffffffffffffffffffffff1673ffffffffffffffffffffffffffffffffffffffff16815260200184815260200183151515158152602001828103825287818151815260200191508051906020019080838360005b8381101561026557808201518184015260208101905061024a565b50505050905090810190601f1680156102925780820380516001836020036101000a031916815260200191505b509850505050505050505060405180910390f35b6102d2600480360360208110156102bc57600080fd5b8101908080359060200190929190505050610a80565b604051808273ffffffffffffffffffffffffffffffffffffffff1673ffffffffffffffffffffffffffffffffffffffff16815260200191505060405180910390f35b6103406004803603602081101561032a57600080fd5b8101908080359060200190929190505050610ac0565b6040518088815260200187600781111561035657fe5b60ff168152602001806020018673ffffffffffffffffffffffffffffffffffffffff1673ffffffffffffffffffffffffffffffffffffffff1681526020018573ffffffffffffffffffffffffffffffffffffffff1673ffffffffffffffffffffffffffffffffffffffff16815260200184815260200183151515158152602001828103825287818151815260200191508051906020019080838360005b8381101561040e5780820151818401526020810190506103f3565b50505050905090810190601f16801561043b5780820380516001836020036101000a031916815260200191505b509850505050505050505060405180910390f35b61047b6004803603602081101561046557600080fd5b8101908080359060200190929190505050610bf4565b6040518080602001828103825283818151815260200191508051906020019080838360005b838110156104bb5780820151818401526020810190506104a0565b50505050905090810190601f1680156104e85780820380516001836020036101000a031916815260200191505b509250505060405180910390f35b6105c66004803603606081101561050c57600080fd5b8101908080359060200190929190803560ff1690602001909291908035906020019064010000000081111561054057600080fd5b82018360208201111561055257600080fd5b8035906020019184600183028401116401000000008311171561057457600080fd5b91908080601f016020809104026020016040519081016040528093929190818152602001838380828437600081840152601f19601f820116905080830192505050505050509192919290505050610cac565b005b6105d0610d13565b6040518082815260200191505060405180910390f35b610612600480360360208110156105fc57600080fd5b8101908080359060200190929190505050610d19565b604051808273ffffffffffffffffffffffffffffffffffffffff1673ffffffffffffffffffffffffffffffffffffffff16815260200191505060405180910390f35b61075a6004803603608081101561066a57600080fd5b81019080803560ff1690602001909291908035906020019064010000000081111561069457600080fd5b8201836020820111156106a657600080fd5b803590602001918460018302840111640100000000831117156106c857600080fd5b91908080601f016020809104026020016040519081016040528093929190818152602001838380828437600081840152601f19601f820116905080830192505050505050509192919290803573ffffffffffffffffffffffffffffffffffffffff169060200190929190803573ffffffffffffffffffffffffffffffffffffffff169060200190929190505050610d59565b6040518082815260200191505060405180910390f35b61079c6004803603602081101561078657600080fd5b8101908080359060200190929190505050610f7b565b005b6107ca600480360360208110156107b457600080fd5b8101908080359060200190929190505050610fac565b604051808215151515815260200191505060405180910390f35b610810600480360360208110156107fa57600080fd5b8101908080359060200190929190505050610fd9565b6040518082600781111561082057fe5b60ff16815260200191505060405180910390f35b6108606004803603602081101561084a57600080fd5b8101908080359060200190929190505050611006565b604051808273ffffffffffffffffffffffffffffffffffffffff1673ffffffffffffffffffffffffffffffffffffffff16815260200191505060405180910390f35b6108ce600480360360208110156108b857600080fd5b8101908080359060200190929190505050611046565b604051808273ffffffffffffffffffffffffffffffffffffffff1673ffffffffffffffffffffffffffffffffffffffff16815260200191505060405180910390f35b61093c6004803603602081101561092657600080fd5b8101908080359060200190929190505050611086565b6040518082815260200191505060405180910390f35b61098b6004803603604081101561096857600080fd5b8101908080359060200190929190803560ff1690602001909291905050506110a6565b604051808215151515815260200191505060405180910390f35b60008173ffffffffffffffffffffffffffffffffffffffff166001600085815260200190815260200160002060030160009054906101000a900473ffffffffffffffffffffffffffffffffffffffff1673ffffffffffffffffffffffffffffffffffffffff161415610a1a5760019050610a1f565b600090505b92915050565b600080606060008060008087610a3a89610fd9565b610a438a610bf4565b610a4c8b611006565b610a558c611046565b610a5e8d611086565b610a678e610fac565b9650965096509650965096509650919395979092949650565b60006001600083815260200190815260200160002060030160009054906101000a900473ffffffffffffffffffffffffffffffffffffffff169050919050565b60016020528060005260406000206000915090508060000154908060010160009054906101000a900460ff1690806002018054600181600116156101000203166002900480601f016020809104026020016040519081016040528092919081815260200182805460018160011615610100020316600290048015610b855780601f10610b5a57610100808354040283529160200191610b85565b820191906000526020600020905b815481529060010190602001808311610b6857829003601f168201915b5050505050908060030160009054906101000a900473ffffffffffffffffffffffffffffffffffffffff16908060040160009054906101000a900473ffffffffffffffffffffffffffffffffffffffff16908060050154908060060160009054906101000a900460ff16905087565b6060600160008381526020019081526020016000206002018054600181600116156101000203166002900480601f016020809104026020016040519081016040528092919081815260200182805460018160011615610100020316600290048015610ca05780601f10610c7557610100808354040283529160200191610ca0565b820191906000526020600020905b815481529060010190602001808311610c8357829003601f168201915b50505050509050919050565b816001600085815260200190815260200160002060010160006101000a81548160ff02191690836007811115610cde57fe5b021790555080600160008581526020019081526020016000206002019080519060200190610d0d9291906110fd565b50505050565b60005481565b60006001600083815260200190815260200160002060040160009054906101000a900473ffffffffffffffffffffffffffffffffffffffff169050919050565b6000610d6361117d565b6040518060e001604052806000548152602001876007811115610d8257fe5b81526020018681526020018573ffffffffffffffffffffffffffffffffffffffff1681526020018473ffffffffffffffffffffffffffffffffffffffff168152602001428152602001600015158152509050600080600081548092919060010191905055905081600160008381526020019081526020016000206000820151816000015560208201518160010160006101000a81548160ff02191690836007811115610e2a57fe5b02179055506040820151816002019080519060200190610e4b9291906111f3565b5060608201518160030160006101000a81548173ffffffffffffffffffffffffffffffffffffffff021916908373ffffffffffffffffffffffffffffffffffffffff16021790555060808201518160040160006101000a81548173ffffffffffffffffffffffffffffffffffffffff021916908373ffffffffffffffffffffffffffffffffffffffff16021790555060a0820151816005015560c08201518160060160006101000a81548160ff0219169083151502179055509050507fcb1b940f1dadf8129eaf467ace460bc653bff517028e20f0d49fe55cc940fb668260800151604051808273ffffffffffffffffffffffffffffffffffffffff1673ffffffffffffffffffffffffffffffffffffffff16815260200191505060405180910390a18092505050949350505050565b600180600083815260200190815260200160002060060160006101000a81548160ff02191690831515021790555050565b60006001600083815260200190815260200160002060060160009054906101000a900460ff169050919050565b60006001600083815260200190815260200160002060010160009054906101000a900460ff169050919050565b60006001600083815260200190815260200160002060030160009054906101000a900473ffffffffffffffffffffffffffffffffffffffff169050919050565b60006001600083815260200190815260200160002060040160009054906101000a900473ffffffffffffffffffffffffffffffffffffffff169050919050565b600060016000838152602001908152602001600020600501549050919050565b60008160078111156110b457fe5b6001600085815260200190815260200160002060010160009054906101000a900460ff1660078111156110e357fe5b14156110f257600190506110f7565b600090505b92915050565b828054600181600116156101000203166002900490600052602060002090601f016020900481019282601f1061113e57805160ff191683800117855561116c565b8280016001018555821561116c579182015b8281111561116b578251825591602001919060010190611150565b5b5090506111799190611273565b5090565b6040518060e00160405280600081526020016000600781111561119c57fe5b815260200160608152602001600073ffffffffffffffffffffffffffffffffffffffff168152602001600073ffffffffffffffffffffffffffffffffffffffff168152602001600081526020016000151581525090565b828054600181600116156101000203166002900490600052602060002090601f016020900481019282601f1061123457805160ff1916838001178555611262565b82800160010185558215611262579182015b82811115611261578251825591602001919060010190611246565b5b50905061126f9190611273565b5090565b61129591905b80821115611291576000816000905550600101611279565b5090565b9056fea265627a7a723158208e6ae814ecffd068b7cb5254ffa71c4f826a660bc6456ee46e8de6576f40ba1364736f6c63430005110032",
  "source": "pragma solidity ^0.5.0;\n\ncontract EHR {\n\n    // enum EHRstate { unverified, verified }\n    enum RecordType{ IMMUNISATION, ALLERGIES, LABORATORY_RESULTS, SCREENING_RECORDS, DISCHARGE_INFORMATION, VITAL_HEALTH_TRACKING, APPOINTMENT_INFORMATION, MEDICATIONS}\n    \n    struct ehr {\n\n        uint256 recordId;\n        RecordType recordType;\n        // EHRstate state;\n        string fileName; \n        address patientAddress;\n        address doctorAddress;\n        uint256 timeAdded;\n        bool patientSignedOff;\n    }\n    \n    uint256 public numEHR = 0;\n    mapping(uint256 => ehr) public records;\n    // record type -> (record type id -> records)\n\n    function add(\n        RecordType recordType,\n        string memory fileName,\n        address patient,\n        address doctor\n    ) public returns(uint256) {\n        \n        //new EHR object\n        ehr memory newEhr = ehr(\n            numEHR,\n            recordType,\n            fileName,\n            patient,\n            doctor,\n            now,\n            false\n        );\n        \n        uint256 newEhrId = numEHR++;\n        records[newEhrId] = newEhr; //commit to state variable\n        emit EHRAdded(newEhr.doctorAddress);\n        return newEhrId;   //return new ehrId\n    }\n\n    /********* EVENTS *********/\n\n    event EHRAdded(address ehrAddress);\n\n    /********* MODIFIERS *********/\n\n    modifier patientOnly(uint256 ehrId) {\n        require(records[ehrId].patientAddress == msg.sender);\n        _;\n    }\n\n    // ensure valid record ID\n    modifier validEHRId(uint256 ehrId) {\n        require(ehrId < numEHR);\n        _;\n    }\n\n\n    /********* FUNCTIONS *********/\n\n    function getDoctorAddress(uint256 recordId) public view returns(address) {\n        return records[recordId].doctorAddress;\n    }\n\n    function getPatientAddress(uint256 recordId) public view returns(address) {\n        return records[recordId].patientAddress;\n    }\n\n    function getRecord(uint256 recordId) public view returns(uint256 id,\n        RecordType recordType,\n        string memory fileName,\n        address patientAddress,\n        address doctorAddress,\n        uint256 timeAdded,\n        bool patientSignedOff) {\n        return (recordId, getRecordType(recordId), getRecordFileName(recordId), getRecordPatientAddress(recordId), getRecordDoctorAddress(recordId), getRecordTimeAdded(recordId), getRecordPatientSignedOff(recordId));\n    }\n\n    function updateRecord(uint256 recordId, RecordType recordType, string memory fileName) public {\n        // Patient & Doctor address and timeAdded should not be editable\n        records[recordId].recordType = recordType;\n        records[recordId].fileName = fileName;\n    }\n\n\n    function isRecordBelongToPatient(uint256 recordId, address _patientAddress) public view returns(bool) {\n        if (records[recordId].patientAddress == _patientAddress) {\n            return true;\n        } else {\n            return false;\n        }\n    }\n\n    function doesRecordMatchRecordType(uint256 recordId, RecordType _recordType) public view returns(bool) {\n        if(records[recordId].recordType == _recordType) {\n            return true;\n        } else {\n            return false;\n        }\n    }\n\n    function patientSignOff(uint256 recordId) public {\n        records[recordId].patientSignedOff = true;\n    }\n\n    /********* GETTERS & SETTERS *********/\n    \n    function getRecordType(uint256 recordId) public view returns(RecordType) {\n        return records[recordId].recordType;\n    }\n\n    function getRecordFileName(uint256 recordId) public view returns(string memory) {\n        return records[recordId].fileName;\n    }\n\n    function getRecordPatientAddress(uint256 recordId) public view returns(address) {\n        return records[recordId].patientAddress;\n    }\n\n    function getRecordDoctorAddress(uint256 recordId) public view returns(address) {\n        return records[recordId].doctorAddress;\n    }\n\n    function getRecordTimeAdded(uint256 recordId) public view returns(uint256) {\n        return records[recordId].timeAdded;\n    }\n\n    function getRecordPatientSignedOff(uint256 recordId) public view returns(bool) {\n        return records[recordId].patientSignedOff;\n    }\n\n}\n",
  "sourcePath": "/Users/aaronf/IS4302/is4302-project-medical-chain/contracts/EHR.sol",
  "compiler": {
    "name": "solc",
    "version": "0.5.17+commit.d19bba13.Emscripten.clang"
  },
  "schemaVersion": "3.4.11",
  "updatedAt": "2023-04-08T14:22:53.892Z",
  "networkType": "ethereum",
  "devdoc": {
    "methods": {}
  },
  "userdoc": {
    "methods": {
      "getDoctorAddress(uint256)": {
        "notice": "******* FUNCTIONS ********"
      },
      "getRecordType(uint256)": {
        "notice": "******* GETTERS & SETTERS ********"
      }
    }
  }
}