{
  "contractName": "EHR",
  "abi": [
    {
      "constant": true,
      "inputs": [],
      "name": "numEHR",
      "outputs": [
        {
          "internalType": "uint256",
          "name": "",
          "type": "uint256"
        }
      ],
      "payable": false,
      "stateMutability": "view",
      "type": "function"
    },
    {
      "constant": true,
      "inputs": [
        {
          "internalType": "uint256",
          "name": "",
          "type": "uint256"
        }
      ],
      "name": "records",
      "outputs": [
        {
          "internalType": "uint256",
          "name": "recordId",
          "type": "uint256"
        },
        {
          "internalType": "string",
          "name": "fileName",
          "type": "string"
        },
        {
          "internalType": "address",
          "name": "patientAddress",
          "type": "address"
        },
        {
          "internalType": "address",
          "name": "doctorAddress",
          "type": "address"
        },
        {
          "internalType": "uint256",
          "name": "timeAdded",
          "type": "uint256"
        }
      ],
      "payable": false,
      "stateMutability": "view",
      "type": "function"
    },
    {
      "constant": false,
      "inputs": [
        {
          "internalType": "string",
          "name": "fileName",
          "type": "string"
        },
        {
          "internalType": "address",
          "name": "patient",
          "type": "address"
        },
        {
          "internalType": "address",
          "name": "doctor",
          "type": "address"
        }
      ],
      "name": "add",
      "outputs": [
        {
          "internalType": "uint256",
          "name": "",
          "type": "uint256"
        }
      ],
      "payable": true,
      "stateMutability": "payable",
      "type": "function"
    },
    {
      "constant": true,
      "inputs": [
        {
          "internalType": "uint256",
          "name": "recordId",
          "type": "uint256"
        }
      ],
      "name": "getDoctorAddress",
      "outputs": [
        {
          "internalType": "address",
          "name": "",
          "type": "address"
        }
      ],
      "payable": false,
      "stateMutability": "view",
      "type": "function"
    },
    {
      "constant": true,
      "inputs": [
        {
          "internalType": "uint256",
          "name": "recordId",
          "type": "uint256"
        }
      ],
      "name": "getRecord",
      "outputs": [
        {
          "internalType": "uint256",
          "name": "id",
          "type": "uint256"
        },
        {
          "internalType": "string",
          "name": "fileName",
          "type": "string"
        },
        {
          "internalType": "address",
          "name": "patientAddress",
          "type": "address"
        },
        {
          "internalType": "address",
          "name": "doctorAddress",
          "type": "address"
        },
        {
          "internalType": "uint256",
          "name": "timeAdded",
          "type": "uint256"
        }
      ],
      "payable": false,
      "stateMutability": "view",
      "type": "function"
    }
  ],
  "bytecode": "0x60806040526000805534801561001457600080fd5b50610a1a806100246000396000f3fe60806040526004361061004a5760003560e01c806303e9e6091461004f57806334461067146101775780637988d0561461029f578063834b5d47146102ca57806389d3d69614610345575b600080fd5b34801561005b57600080fd5b506100886004803603602081101561007257600080fd5b8101908080359060200190929190505050610454565b60405180868152602001806020018573ffffffffffffffffffffffffffffffffffffffff1673ffffffffffffffffffffffffffffffffffffffff1681526020018473ffffffffffffffffffffffffffffffffffffffff1673ffffffffffffffffffffffffffffffffffffffff168152602001838152602001828103825286818151815260200191508051906020019080838360005b8381101561013857808201518184015260208101905061011d565b50505050905090810190601f1680156101655780820380516001836020036101000a031916815260200191505b50965050505050505060405180910390f35b34801561018357600080fd5b506101b06004803603602081101561019a57600080fd5b81019080803590602001909291905050506105be565b60405180868152602001806020018573ffffffffffffffffffffffffffffffffffffffff1673ffffffffffffffffffffffffffffffffffffffff1681526020018473ffffffffffffffffffffffffffffffffffffffff1673ffffffffffffffffffffffffffffffffffffffff168152602001838152602001828103825286818151815260200191508051906020019080838360005b83811015610260578082015181840152602081019050610245565b50505050905090810190601f16801561028d5780820380516001836020036101000a031916815260200191505b50965050505050505060405180910390f35b3480156102ab57600080fd5b506102b46106cc565b6040518082815260200191505060405180910390f35b3480156102d657600080fd5b50610303600480360360208110156102ed57600080fd5b81019080803590602001909291905050506106d2565b604051808273ffffffffffffffffffffffffffffffffffffffff1673ffffffffffffffffffffffffffffffffffffffff16815260200191505060405180910390f35b61043e6004803603606081101561035b57600080fd5b810190808035906020019064010000000081111561037857600080fd5b82018360208201111561038a57600080fd5b803590602001918460018302840111640100000000831117156103ac57600080fd5b91908080601f016020809104026020016040519081016040528093929190818152602001838380828437600081840152601f19601f820116905080830192505050505050509192919290803573ffffffffffffffffffffffffffffffffffffffff169060200190929190803573ffffffffffffffffffffffffffffffffffffffff169060200190929190505050610712565b6040518082815260200191505060405180910390f35b6000606060008060006001600087815260200190815260200160002060000154600160008881526020019081526020016000206001016001600089815260200190815260200160002060020160009054906101000a900473ffffffffffffffffffffffffffffffffffffffff16600160008a815260200190815260200160002060030160009054906101000a900473ffffffffffffffffffffffffffffffffffffffff16600160008b815260200190815260200160002060040154838054600181600116156101000203166002900480601f0160208091040260200160405190810160405280929190818152602001828054600181600116156101000203166002900480156105a45780601f10610579576101008083540402835291602001916105a4565b820191906000526020600020905b81548152906001019060200180831161058757829003601f168201915b505050505093509450945094509450945091939590929450565b6001602052806000526040600020600091509050806000015490806001018054600181600116156101000203166002900480601f0160208091040260200160405190810160405280929190818152602001828054600181600116156101000203166002900480156106705780601f1061064557610100808354040283529160200191610670565b820191906000526020600020905b81548152906001019060200180831161065357829003601f168201915b5050505050908060020160009054906101000a900473ffffffffffffffffffffffffffffffffffffffff16908060030160009054906101000a900473ffffffffffffffffffffffffffffffffffffffff16908060040154905085565b60005481565b60006001600083815260200190815260200160002060030160009054906101000a900473ffffffffffffffffffffffffffffffffffffffff169050919050565b6000662386f26fc100003411610790576040517f08c379a000000000000000000000000000000000000000000000000000000000815260040180806020018281038252601b8152602001807f6174206c6561737420302e303120455448206973206e6565646564000000000081525060200191505060405180910390fd5b6107986108e5565b6040518060a0016040528060005481526020018681526020018573ffffffffffffffffffffffffffffffffffffffff1681526020018473ffffffffffffffffffffffffffffffffffffffff1681526020014281525090506000806000815480929190600101919050559050816001600083815260200190815260200160002060008201518160000155602082015181600101908051906020019061083d929190610940565b5060408201518160020160006101000a81548173ffffffffffffffffffffffffffffffffffffffff021916908373ffffffffffffffffffffffffffffffffffffffff16021790555060608201518160030160006101000a81548173ffffffffffffffffffffffffffffffffffffffff021916908373ffffffffffffffffffffffffffffffffffffffff1602179055506080820151816004015590505080925050509392505050565b6040518060a001604052806000815260200160608152602001600073ffffffffffffffffffffffffffffffffffffffff168152602001600073ffffffffffffffffffffffffffffffffffffffff168152602001600081525090565b828054600181600116156101000203166002900490600052602060002090601f016020900481019282601f1061098157805160ff19168380011785556109af565b828001600101855582156109af579182015b828111156109ae578251825591602001919060010190610993565b5b5090506109bc91906109c0565b5090565b6109e291905b808211156109de5760008160009055506001016109c6565b5090565b9056fea265627a7a723158200af0ecb27bf424e8be863b7a61a0af7ce651101041433943220d4e250d081eb764736f6c63430005110032",
  "source": "pragma solidity ^0.5.0;\n\ncontract EHR {\n\n    // enum EHRstate { unverified, verified }\n    \n    struct ehr {\n\n        uint256 recordId;\n        // EHRstate state;\n        string fileName; \n        address patientAddress;\n        address doctorAddress;\n        uint256 timeAdded;\n    }\n    \n    uint256 public numEHR = 0;\n    mapping(uint256 => ehr) public records;\n\n    function add(\n        string memory fileName,\n        address patient,\n        address doctor\n    ) public payable returns(uint256) {\n        require(msg.value > 0.01 ether, \"at least 0.01 ETH is needed\"); // not sure if we need this\n        \n        //new EHR object\n        ehr memory newEhr = ehr(\n            numEHR,\n            fileName,\n            patient,\n            doctor,\n            now\n        );\n        \n        uint256 newEhrId = numEHR++;\n        records[newEhrId] = newEhr; //commit to state variable\n        return newEhrId;   //return new ehrId\n    }\n\n    modifier patientOnly(uint256 ehrId) {\n        require(records[ehrId].patientAddress == msg.sender);\n        _;\n    }\n\n    // ensure valid record ID\n    modifier validEHRId(uint256 ehrId) {\n        require(ehrId < numEHR);\n        _;\n    }\n\n    function getDoctorAddress(uint256 recordId) public view returns(address) {\n        return records[recordId].doctorAddress;\n    }\n\n    function getRecord(uint256 recordId) public view returns(uint256 id,\n        string memory fileName,\n        address patientAddress,\n        address doctorAddress,\n        uint256 timeAdded) {\n        return (records[recordId].recordId, records[recordId].fileName, records[recordId].patientAddress, records[recordId].doctorAddress, records[recordId].timeAdded);\n    }\n}\n",
  "sourcePath": "/Users/seantan/Documents/Code/School/IS4302/project/contracts/EHR.sol",
  "compiler": {
    "name": "solc",
    "version": "0.5.17+commit.d19bba13.Emscripten.clang"
  },
  "schemaVersion": "3.4.13",
  "updatedAt": "2023-03-27T07:19:11.717Z",
  "networkType": "ethereum",
  "devdoc": {
    "methods": {}
  },
  "userdoc": {
    "methods": {}
  }
}