{
  "contractName": "medicalChainStaff",
  "abi": [
    {
      "inputs": [
        {
          "internalType": "contract Patient",
          "name": "patientAddress",
          "type": "address"
        },
        {
          "internalType": "contract Doctor",
          "name": "doctorAddress",
          "type": "address"
        },
        {
          "internalType": "contract Nurse",
          "name": "nurseAddress",
          "type": "address"
        },
        {
          "internalType": "contract EHR",
          "name": "ehrAddress",
          "type": "address"
        },
        {
          "internalType": "contract Researcher",
          "name": "researcherAddress",
          "type": "address"
        }
      ],
      "payable": false,
      "stateMutability": "nonpayable",
      "type": "constructor"
    },
    {
      "anonymous": false,
      "inputs": [],
      "name": "AcknowledgingRecord",
      "type": "event"
    },
    {
      "anonymous": false,
      "inputs": [],
      "name": "AddingEHR",
      "type": "event"
    },
    {
      "anonymous": false,
      "inputs": [
        {
          "indexed": false,
          "internalType": "address",
          "name": "doctorId",
          "type": "address"
        }
      ],
      "name": "DoctorAdded",
      "type": "event"
    },
    {
      "anonymous": false,
      "inputs": [],
      "name": "GettingApprovedPatients",
      "type": "event"
    },
    {
      "anonymous": false,
      "inputs": [],
      "name": "GivingDoctorAccess",
      "type": "event"
    },
    {
      "anonymous": false,
      "inputs": [],
      "name": "GivingNurseAccess",
      "type": "event"
    },
    {
      "anonymous": false,
      "inputs": [],
      "name": "GivingResearcherAccess",
      "type": "event"
    },
    {
      "anonymous": false,
      "inputs": [
        {
          "indexed": false,
          "internalType": "address",
          "name": "nurseId",
          "type": "address"
        }
      ],
      "name": "NurseAdded",
      "type": "event"
    },
    {
      "anonymous": false,
      "inputs": [
        {
          "indexed": false,
          "internalType": "address",
          "name": "patientId",
          "type": "address"
        }
      ],
      "name": "PatientAdded",
      "type": "event"
    },
    {
      "anonymous": false,
      "inputs": [],
      "name": "RemovingDoctorAccess",
      "type": "event"
    },
    {
      "anonymous": false,
      "inputs": [],
      "name": "RemovingEHR",
      "type": "event"
    },
    {
      "anonymous": false,
      "inputs": [],
      "name": "RemovingNurseAccess",
      "type": "event"
    },
    {
      "anonymous": false,
      "inputs": [
        {
          "indexed": false,
          "internalType": "uint256",
          "name": "test",
          "type": "uint256"
        }
      ],
      "name": "testEvent",
      "type": "event"
    },
    {
      "constant": true,
      "inputs": [],
      "name": "getSenderRole",
      "outputs": [
        {
          "internalType": "string",
          "name": "",
          "type": "string"
        }
      ],
      "payable": false,
      "stateMutability": "view",
      "type": "function"
    },
    {
      "constant": false,
      "inputs": [
        {
          "internalType": "uint256",
          "name": "doctorId",
          "type": "uint256"
        },
        {
          "internalType": "uint256",
          "name": "patientId",
          "type": "uint256"
        }
      ],
      "name": "registerPatientWithDoctor",
      "outputs": [],
      "payable": false,
      "stateMutability": "nonpayable",
      "type": "function"
    },
    {
      "constant": false,
      "inputs": [
        {
          "internalType": "uint256",
          "name": "doctorId",
          "type": "uint256"
        },
        {
          "internalType": "uint256",
          "name": "patientId",
          "type": "uint256"
        }
      ],
      "name": "unregisterPatientWithDoctor",
      "outputs": [],
      "payable": false,
      "stateMutability": "nonpayable",
      "type": "function"
    },
    {
      "constant": false,
      "inputs": [
        {
          "internalType": "uint256",
          "name": "nurseId",
          "type": "uint256"
        },
        {
          "internalType": "uint256",
          "name": "patientId",
          "type": "uint256"
        }
      ],
      "name": "registerPatientWithNurse",
      "outputs": [],
      "payable": false,
      "stateMutability": "nonpayable",
      "type": "function"
    },
    {
      "constant": false,
      "inputs": [
        {
          "internalType": "uint256",
          "name": "nurseId",
          "type": "uint256"
        },
        {
          "internalType": "uint256",
          "name": "patientId",
          "type": "uint256"
        }
      ],
      "name": "unregisterPatientWithNurse",
      "outputs": [],
      "payable": false,
      "stateMutability": "nonpayable",
      "type": "function"
    },
    {
      "constant": false,
      "inputs": [
        {
          "internalType": "uint256",
          "name": "test",
          "type": "uint256"
        }
      ],
      "name": "testingTest",
      "outputs": [],
      "payable": false,
      "stateMutability": "nonpayable",
      "type": "function"
    },
    {
      "constant": false,
      "inputs": [
        {
          "internalType": "enum EHR.RecordType",
          "name": "recordType",
          "type": "uint8"
        },
        {
          "internalType": "uint256",
          "name": "patientId",
          "type": "uint256"
        },
        {
          "internalType": "string",
          "name": "filename",
          "type": "string"
        }
      ],
      "name": "addNewEHR",
      "outputs": [
        {
          "internalType": "uint256",
          "name": "recordId",
          "type": "uint256"
        }
      ],
      "payable": false,
      "stateMutability": "nonpayable",
      "type": "function"
    },
    {
      "constant": false,
      "inputs": [
        {
          "internalType": "uint256",
          "name": "recordId",
          "type": "uint256"
        },
        {
          "internalType": "uint256",
          "name": "patientId",
          "type": "uint256"
        }
      ],
      "name": "removeEHR",
      "outputs": [],
      "payable": false,
      "stateMutability": "nonpayable",
      "type": "function"
    },
    {
      "constant": true,
      "inputs": [
        {
          "internalType": "uint256",
          "name": "patientId",
          "type": "uint256"
        },
        {
          "internalType": "uint256",
          "name": "recordId",
          "type": "uint256"
        }
      ],
      "name": "practitionerViewRecordByRecordID",
      "outputs": [
        {
          "internalType": "uint256",
          "name": "id",
          "type": "uint256"
        },
        {
          "internalType": "enum EHR.RecordType",
          "name": "recordType",
          "type": "uint8"
        },
        {
          "internalType": "string",
          "name": "fileName",
          "type": "string"
        },
        {
          "internalType": "address",
          "name": "patientAddress",
          "type": "address"
        },
        {
          "internalType": "address",
          "name": "doctorAddress",
          "type": "address"
        },
        {
          "internalType": "uint256",
          "name": "timeAdded",
          "type": "uint256"
        },
        {
          "internalType": "bool",
          "name": "patientSignedOff",
          "type": "bool"
        }
      ],
      "payable": false,
      "stateMutability": "view",
      "type": "function"
    },
    {
      "constant": false,
      "inputs": [
        {
          "internalType": "uint256",
          "name": "patientId",
          "type": "uint256"
        },
        {
          "internalType": "uint256",
          "name": "recordId",
          "type": "uint256"
        },
        {
          "internalType": "enum EHR.RecordType",
          "name": "recordType",
          "type": "uint8"
        },
        {
          "internalType": "string",
          "name": "fileName",
          "type": "string"
        }
      ],
      "name": "updateRecordByRecordId",
      "outputs": [],
      "payable": false,
      "stateMutability": "nonpayable",
      "type": "function"
    },
    {
      "constant": true,
      "inputs": [],
      "name": "viewApprovedPatients",
      "outputs": [
        {
          "internalType": "uint256[]",
          "name": "",
          "type": "uint256[]"
        }
      ],
      "payable": false,
      "stateMutability": "view",
      "type": "function"
    },
    {
      "constant": true,
      "inputs": [
        {
          "internalType": "uint256",
          "name": "patientID",
          "type": "uint256"
        }
      ],
      "name": "viewPatientByPatientID",
      "outputs": [
        {
          "internalType": "uint256",
          "name": "id",
          "type": "uint256"
        },
        {
          "internalType": "string",
          "name": "firstName",
          "type": "string"
        },
        {
          "internalType": "string",
          "name": "lastName",
          "type": "string"
        },
        {
          "internalType": "string",
          "name": "emailAddress",
          "type": "string"
        },
        {
          "internalType": "string",
          "name": "dob",
          "type": "string"
        }
      ],
      "payable": false,
      "stateMutability": "view",
      "type": "function"
    },
    {
      "constant": true,
      "inputs": [
        {
          "internalType": "uint256",
          "name": "patientId",
          "type": "uint256"
        }
      ],
      "name": "practitionerViewAllRecords",
      "outputs": [
        {
          "internalType": "uint256[]",
          "name": "",
          "type": "uint256[]"
        }
      ],
      "payable": false,
      "stateMutability": "view",
      "type": "function"
    },
    {
      "constant": true,
      "inputs": [
        {
          "internalType": "uint256",
          "name": "patientId",
          "type": "uint256"
        },
        {
          "internalType": "enum EHR.RecordType",
          "name": "recordType",
          "type": "uint8"
        }
      ],
      "name": "practitionerViewRecordsByRecordType",
      "outputs": [
        {
          "internalType": "uint256[]",
          "name": "",
          "type": "uint256[]"
        }
      ],
      "payable": false,
      "stateMutability": "view",
      "type": "function"
    }
  ],
  "bytecode": "0x608060405234801561001057600080fd5b50604051620055bd380380620055bd833981810160405260a081101561003557600080fd5b810190808051906020019092919080519060200190929190805190602001909291908051906020019092919080519060200190929190505050846000806101000a81548173ffffffffffffffffffffffffffffffffffffffff021916908373ffffffffffffffffffffffffffffffffffffffff16021790555083600160006101000a81548173ffffffffffffffffffffffffffffffffffffffff021916908373ffffffffffffffffffffffffffffffffffffffff16021790555082600260006101000a81548173ffffffffffffffffffffffffffffffffffffffff021916908373ffffffffffffffffffffffffffffffffffffffff16021790555081600360006101000a81548173ffffffffffffffffffffffffffffffffffffffff021916908373ffffffffffffffffffffffffffffffffffffffff16021790555080600460006101000a81548173ffffffffffffffffffffffffffffffffffffffff021916908373ffffffffffffffffffffffffffffffffffffffff16021790555050505050506153f680620001c76000396000f3fe608060405234801561001057600080fd5b50600436106100ea5760003560e01c8063bbbeaccc1161008c578063c7be8aad11610066578063c7be8aad146107c4578063e136c569146107fc578063ef84f4f11461088c578063f6e2b721146108eb576100ea565b8063bbbeaccc146105ca578063bcf5e849146106b0578063c68f5541146106e8576100ea565b8063685e9025116100c8578063685e90251461022d5780638068d0911461041f578063a0c91b2414610564578063b960108014610592576100ea565b80632363b0ff146100ef578063241c4a43146101725780633a88162e146101aa575b600080fd5b61011b6004803603602081101561010557600080fd5b8101908080359060200190929190505050610923565b6040518080602001828103825283818151815260200191508051906020019060200280838360005b8381101561015e578082015181840152602081019050610143565b505050509050019250505060405180910390f35b6101a86004803603604081101561018857600080fd5b810190808035906020019092919080359060200190929190505050611184565b005b6101b2611599565b6040518080602001828103825283818151815260200191508051906020019080838360005b838110156101f25780820151818401526020810190506101d7565b50505050905090810190601f16801561021f5780820380516001836020036101000a031916815260200191505b509250505060405180910390f35b6102596004803603602081101561024357600080fd5b8101908080359060200190929190505050611a46565b6040518086815260200180602001806020018060200180602001858103855289818151815260200191508051906020019080838360005b838110156102ab578082015181840152602081019050610290565b50505050905090810190601f1680156102d85780820380516001836020036101000a031916815260200191505b50858103845288818151815260200191508051906020019080838360005b838110156103115780820151818401526020810190506102f6565b50505050905090810190601f16801561033e5780820380516001836020036101000a031916815260200191505b50858103835287818151815260200191508051906020019080838360005b8381101561037757808201518184015260208101905061035c565b50505050905090810190601f1680156103a45780820380516001836020036101000a031916815260200191505b50858103825286818151815260200191508051906020019080838360005b838110156103dd5780820151818401526020810190506103c2565b50505050905090810190601f16801561040a5780820380516001836020036101000a031916815260200191505b50995050505050505050505060405180910390f35b6104556004803603604081101561043557600080fd5b810190808035906020019092919080359060200190929190505050612032565b6040518088815260200187600781111561046b57fe5b60ff168152602001806020018673ffffffffffffffffffffffffffffffffffffffff1673ffffffffffffffffffffffffffffffffffffffff1681526020018573ffffffffffffffffffffffffffffffffffffffff1673ffffffffffffffffffffffffffffffffffffffff16815260200184815260200183151515158152602001828103825287818151815260200191508051906020019080838360005b83811015610523578082015181840152602081019050610508565b50505050905090810190601f1680156105505780820380516001836020036101000a031916815260200191505b509850505050505050505060405180910390f35b6105906004803603602081101561057a57600080fd5b8101908080359060200190929190505050612913565b005b6105c8600480360360408110156105a857600080fd5b81019080803590602001909291908035906020019092919050505061294d565b005b61069a600480360360608110156105e057600080fd5b81019080803560ff169060200190929190803590602001909291908035906020019064010000000081111561061457600080fd5b82018360208201111561062657600080fd5b8035906020019184600183028401116401000000008311171561064857600080fd5b91908080601f016020809104026020016040519081016040528093929190818152602001838380828437600081840152601f19601f820116905080830192505050505050509192919290505050612d62565b6040518082815260200191505060405180910390f35b6106e6600480360360408110156106c657600080fd5b81019080803590602001909291908035906020019092919050505061341f565b005b6107c2600480360360808110156106fe57600080fd5b810190808035906020019092919080359060200190929190803560ff1690602001909291908035906020019064010000000081111561073c57600080fd5b82018360208201111561074e57600080fd5b8035906020019184600183028401116401000000008311171561077057600080fd5b91908080601f016020809104026020016040519081016040528093929190818152602001838380828437600081840152601f19601f820116905080830192505050505050509192919290505050613834565b005b6107fa600480360360408110156107da57600080fd5b810190808035906020019092919080359060200190929190505050613e59565b005b6108356004803603604081101561081257600080fd5b8101908080359060200190929190803560ff1690602001909291905050506142cd565b6040518080602001828103825283818151815260200191508051906020019060200280838360005b8381101561087857808201518184015260208101905061085d565b505050509050019250505060405180910390f35b610894614b45565b6040518080602001828103825283818151815260200191508051906020019060200280838360005b838110156108d75780820151818401526020810190506108bc565b505050509050019250505060405180910390f35b6109216004803603604081101561090157600080fd5b810190808035906020019092919080359060200190929190505050614dbb565b005b6060816060610930611599565b9050600060405160200180807f646f63746f720000000000000000000000000000000000000000000000000000815250600601905060405160208183030381529060405280519060200120826040516020018082805190602001908083835b602083106109b2578051825260208201915060208101905060208303925061098f565b6001836020036101000a03801982511681845116808217855250505050505090500191505060405160208183030381529060405280519060200120149050600060405160200180807f6e75727365000000000000000000000000000000000000000000000000000000815250600501905060405160208183030381529060405280519060200120836040516020018082805190602001908083835b60208310610a705780518252602082019150602081019050602083039250610a4d565b6001836020036101000a038019825116818451168082178552505050505050905001915050604051602081830303815290604052805190602001201490508180610ab75750805b610b29576040517f08c379a000000000000000000000000000000000000000000000000000000000815260040180806020018281038252601a8152602001807f55736572206973206e6f7420612070726163746974696f6e657200000000000081525060200191505060405180910390fd5b8115610daf57600115156000809054906101000a900473ffffffffffffffffffffffffffffffffffffffff1673ffffffffffffffffffffffffffffffffffffffff1663b01df35186336040518363ffffffff1660e01b8152600401808381526020018273ffffffffffffffffffffffffffffffffffffffff1673ffffffffffffffffffffffffffffffffffffffff1681526020019250505060206040518083038186803b158015610bd957600080fd5b505afa158015610bed573d6000803e3d6000fd5b505050506040513d6020811015610c0357600080fd5b8101908080519060200190929190505050151514610c6c576040517f08c379a00000000000000000000000000000000000000000000000000000000081526004018080602001828103825260338152602001806152076033913960400191505060405180910390fd5b60011515600160009054906101000a900473ffffffffffffffffffffffffffffffffffffffff1673ffffffffffffffffffffffffffffffffffffffff16639cc5804886336040518363ffffffff1660e01b8152600401808381526020018273ffffffffffffffffffffffffffffffffffffffff1673ffffffffffffffffffffffffffffffffffffffff1681526020019250505060206040518083038186803b158015610d1757600080fd5b505afa158015610d2b573d6000803e3d6000fd5b505050506040513d6020811015610d4157600080fd5b8101908080519060200190929190505050151514610daa576040517f08c379a000000000000000000000000000000000000000000000000000000000815260040180806020018281038252602b8152602001806152b0602b913960400191505060405180910390fd5b611032565b801561103157600115156000809054906101000a900473ffffffffffffffffffffffffffffffffffffffff1673ffffffffffffffffffffffffffffffffffffffff1663c412e7ba86336040518363ffffffff1660e01b8152600401808381526020018273ffffffffffffffffffffffffffffffffffffffff1673ffffffffffffffffffffffffffffffffffffffff1681526020019250505060206040518083038186803b158015610e5f57600080fd5b505afa158015610e73573d6000803e3d6000fd5b505050506040513d6020811015610e8957600080fd5b8101908080519060200190929190505050151514610ef2576040517f08c379a00000000000000000000000000000000000000000000000000000000081526004018080602001828103825260318152602001806153006031913960400191505060405180910390fd5b60011515600260009054906101000a900473ffffffffffffffffffffffffffffffffffffffff1673ffffffffffffffffffffffffffffffffffffffff16639cc5804886336040518363ffffffff1660e01b8152600401808381526020018273ffffffffffffffffffffffffffffffffffffffff1673ffffffffffffffffffffffffffffffffffffffff1681526020019250505060206040518083038186803b158015610f9d57600080fd5b505afa158015610fb1573d6000803e3d6000fd5b505050506040513d6020811015610fc757600080fd5b8101908080519060200190929190505050151514611030576040517f08c379a000000000000000000000000000000000000000000000000000000000815260040180806020018281038252602a81526020018061523a602a913960400191505060405180910390fd5b5b5b6000809054906101000a900473ffffffffffffffffffffffffffffffffffffffff1673ffffffffffffffffffffffffffffffffffffffff166394237719876040518263ffffffff1660e01b81526004018082815260200191505060006040518083038186803b1580156110a457600080fd5b505afa1580156110b8573d6000803e3d6000fd5b505050506040513d6000823e3d601f19601f8201168201806040525060208110156110e257600080fd5b810190808051604051939291908464010000000082111561110257600080fd5b8382019150602082018581111561111857600080fd5b825186602082028301116401000000008211171561113557600080fd5b8083526020830192505050908051906020019060200280838360005b8381101561116c578082015181840152602081019050611151565b50505050905001604052505050945050505050919050565b8160405160200180807f646f63746f7200000000000000000000000000000000000000000000000000008152506006019050604051602081830303815290604052805190602001206111d4611599565b6040516020018082805190602001908083835b6020831061120a57805182526020820191506020810190506020830392506111e7565b6001836020036101000a03801982511681845116808217855250505050505090500191505060405160208183030381529060405280519060200120146112b8576040517f08c379a000000000000000000000000000000000000000000000000000000000815260040180806020018281038252601c8152602001807f5468697320706572736f6e206973206e6f74206120646f63746f72210000000081525060200191505060405180910390fd5b80600160009054906101000a900473ffffffffffffffffffffffffffffffffffffffff1673ffffffffffffffffffffffffffffffffffffffff1663632b7bf0336040518263ffffffff1660e01b8152600401808273ffffffffffffffffffffffffffffffffffffffff1673ffffffffffffffffffffffffffffffffffffffff16815260200191505060206040518083038186803b15801561135857600080fd5b505afa15801561136c573d6000803e3d6000fd5b505050506040513d602081101561138257600080fd5b8101908080519060200190929190505050146113e9576040517f08c379a00000000000000000000000000000000000000000000000000000000081526004018080602001828103825260368152602001806151d16036913960400191505060405180910390fd5b828260011515600160009054906101000a900473ffffffffffffffffffffffffffffffffffffffff1673ffffffffffffffffffffffffffffffffffffffff16639da1afdb84846040518363ffffffff1660e01b8152600401808381526020018281526020019250505060206040518083038186803b15801561146a57600080fd5b505afa15801561147e573d6000803e3d6000fd5b505050506040513d602081101561149457600080fd5b81019080805190602001909291905050501515146114fd576040517f08c379a00000000000000000000000000000000000000000000000000000000081526004018080602001828103825260258152602001806152db6025913960400191505060405180910390fd5b600160009054906101000a900473ffffffffffffffffffffffffffffffffffffffff1673ffffffffffffffffffffffffffffffffffffffff1663ab16ae2a86866040518363ffffffff1660e01b81526004018083815260200182815260200192505050600060405180830381600087803b15801561157a57600080fd5b505af115801561158e573d6000803e3d6000fd5b505050505050505050565b6060600160009054906101000a900473ffffffffffffffffffffffffffffffffffffffff1673ffffffffffffffffffffffffffffffffffffffff1663e3843463336040518263ffffffff1660e01b8152600401808273ffffffffffffffffffffffffffffffffffffffff1673ffffffffffffffffffffffffffffffffffffffff16815260200191505060206040518083038186803b15801561163a57600080fd5b505afa15801561164e573d6000803e3d6000fd5b505050506040513d602081101561166457600080fd5b8101908080519060200190929190505050156116b7576040518060400160405280600681526020017f646f63746f7200000000000000000000000000000000000000000000000000008152509050611a43565b6000809054906101000a900473ffffffffffffffffffffffffffffffffffffffff1673ffffffffffffffffffffffffffffffffffffffff1663e3843463336040518263ffffffff1660e01b8152600401808273ffffffffffffffffffffffffffffffffffffffff1673ffffffffffffffffffffffffffffffffffffffff16815260200191505060206040518083038186803b15801561175557600080fd5b505afa158015611769573d6000803e3d6000fd5b505050506040513d602081101561177f57600080fd5b8101908080519060200190929190505050156117d2576040518060400160405280600781526020017f70617469656e74000000000000000000000000000000000000000000000000008152509050611a43565b600260009054906101000a900473ffffffffffffffffffffffffffffffffffffffff1673ffffffffffffffffffffffffffffffffffffffff1663e3843463336040518263ffffffff1660e01b8152600401808273ffffffffffffffffffffffffffffffffffffffff1673ffffffffffffffffffffffffffffffffffffffff16815260200191505060206040518083038186803b15801561187157600080fd5b505afa158015611885573d6000803e3d6000fd5b505050506040513d602081101561189b57600080fd5b8101908080519060200190929190505050156118ee576040518060400160405280600581526020017f6e757273650000000000000000000000000000000000000000000000000000008152509050611a43565b600460009054906101000a900473ffffffffffffffffffffffffffffffffffffffff1673ffffffffffffffffffffffffffffffffffffffff1663e3843463336040518263ffffffff1660e01b8152600401808273ffffffffffffffffffffffffffffffffffffffff1673ffffffffffffffffffffffffffffffffffffffff16815260200191505060206040518083038186803b15801561198d57600080fd5b505afa1580156119a1573d6000803e3d6000fd5b505050506040513d60208110156119b757600080fd5b810190808051906020019092919050505015611a0a576040518060400160405280600a81526020017f72657365617263686572000000000000000000000000000000000000000000008152509050611a43565b6040518060400160405280600781526020017f756e6b6e6f776e0000000000000000000000000000000000000000000000000081525090505b90565b60006060806060808560405160200180807f7265736561726368657200000000000000000000000000000000000000000000815250600a01905060405160208183030381529060405280519060200120611a9e611599565b6040516020018082805190602001908083835b60208310611ad45780518252602082019150602081019050602083039250611ab1565b6001836020036101000a0380198251168184511680821785525050505050509050019150506040516020818303038152906040528051906020012014611b82576040517f08c379a00000000000000000000000000000000000000000000000000000000081526004018080602001828103825260208152602001807f5468697320706572736f6e206973206e6f74206120726573656172636865722181525060200191505060405180910390fd5b6000809054906101000a900473ffffffffffffffffffffffffffffffffffffffff1673ffffffffffffffffffffffffffffffffffffffff1663834fa06e826040518263ffffffff1660e01b81526004018082815260200191505060206040518083038186803b158015611bf457600080fd5b505afa158015611c08573d6000803e3d6000fd5b505050506040513d6020811015611c1e57600080fd5b8101908080519060200190929190505050611c84576040517f08c379a00000000000000000000000000000000000000000000000000000000081526004018080602001828103825260338152602001806153316033913960400191505060405180910390fd5b6000809054906101000a900473ffffffffffffffffffffffffffffffffffffffff1673ffffffffffffffffffffffffffffffffffffffff16630178fe3f886040518263ffffffff1660e01b81526004018082815260200191505060006040518083038186803b158015611cf657600080fd5b505afa158015611d0a573d6000803e3d6000fd5b505050506040513d6000823e3d601f19601f8201168201806040525060a0811015611d3457600080fd5b810190808051906020019092919080516040519392919084640100000000821115611d5e57600080fd5b83820191506020820185811115611d7457600080fd5b8251866001820283011164010000000082111715611d9157600080fd5b8083526020830192505050908051906020019080838360005b83811015611dc5578082015181840152602081019050611daa565b50505050905090810190601f168015611df25780820380516001836020036101000a031916815260200191505b5060405260200180516040519392919084640100000000821115611e1557600080fd5b83820191506020820185811115611e2b57600080fd5b8251866001820283011164010000000082111715611e4857600080fd5b8083526020830192505050908051906020019080838360005b83811015611e7c578082015181840152602081019050611e61565b50505050905090810190601f168015611ea95780820380516001836020036101000a031916815260200191505b5060405260200180516040519392919084640100000000821115611ecc57600080fd5b83820191506020820185811115611ee257600080fd5b8251866001820283011164010000000082111715611eff57600080fd5b8083526020830192505050908051906020019080838360005b83811015611f33578082015181840152602081019050611f18565b50505050905090810190601f168015611f605780820380516001836020036101000a031916815260200191505b5060405260200180516040519392919084640100000000821115611f8357600080fd5b83820191506020820185811115611f9957600080fd5b8251866001820283011164010000000082111715611fb657600080fd5b8083526020830192505050908051906020019080838360005b83811015611fea578082015181840152602081019050611fcf565b50505050905090810190601f1680156120175780820380516001836020036101000a031916815260200191505b50604052505050955095509550955095505091939590929450565b6000806060600080600080886060612048611599565b9050600060405160200180807f646f63746f720000000000000000000000000000000000000000000000000000815250600601905060405160208183030381529060405280519060200120826040516020018082805190602001908083835b602083106120ca57805182526020820191506020810190506020830392506120a7565b6001836020036101000a03801982511681845116808217855250505050505090500191505060405160208183030381529060405280519060200120149050600060405160200180807f6e75727365000000000000000000000000000000000000000000000000000000815250600501905060405160208183030381529060405280519060200120836040516020018082805190602001908083835b602083106121885780518252602082019150602081019050602083039250612165565b6001836020036101000a0380198251168184511680821785525050505050509050019150506040516020818303038152906040528051906020012014905081806121cf5750805b612241576040517f08c379a000000000000000000000000000000000000000000000000000000000815260040180806020018281038252601a8152602001807f55736572206973206e6f7420612070726163746974696f6e657200000000000081525060200191505060405180910390fd5b81156124c757600115156000809054906101000a900473ffffffffffffffffffffffffffffffffffffffff1673ffffffffffffffffffffffffffffffffffffffff1663b01df35186336040518363ffffffff1660e01b8152600401808381526020018273ffffffffffffffffffffffffffffffffffffffff1673ffffffffffffffffffffffffffffffffffffffff1681526020019250505060206040518083038186803b1580156122f157600080fd5b505afa158015612305573d6000803e3d6000fd5b505050506040513d602081101561231b57600080fd5b8101908080519060200190929190505050151514612384576040517f08c379a00000000000000000000000000000000000000000000000000000000081526004018080602001828103825260338152602001806152076033913960400191505060405180910390fd5b60011515600160009054906101000a900473ffffffffffffffffffffffffffffffffffffffff1673ffffffffffffffffffffffffffffffffffffffff16639cc5804886336040518363ffffffff1660e01b8152600401808381526020018273ffffffffffffffffffffffffffffffffffffffff1673ffffffffffffffffffffffffffffffffffffffff1681526020019250505060206040518083038186803b15801561242f57600080fd5b505afa158015612443573d6000803e3d6000fd5b505050506040513d602081101561245957600080fd5b81019080805190602001909291905050501515146124c2576040517f08c379a000000000000000000000000000000000000000000000000000000000815260040180806020018281038252602b8152602001806152b0602b913960400191505060405180910390fd5b61274a565b801561274957600115156000809054906101000a900473ffffffffffffffffffffffffffffffffffffffff1673ffffffffffffffffffffffffffffffffffffffff1663c412e7ba86336040518363ffffffff1660e01b8152600401808381526020018273ffffffffffffffffffffffffffffffffffffffff1673ffffffffffffffffffffffffffffffffffffffff1681526020019250505060206040518083038186803b15801561257757600080fd5b505afa15801561258b573d6000803e3d6000fd5b505050506040513d60208110156125a157600080fd5b810190808051906020019092919050505015151461260a576040517f08c379a00000000000000000000000000000000000000000000000000000000081526004018080602001828103825260318152602001806153006031913960400191505060405180910390fd5b60011515600260009054906101000a900473ffffffffffffffffffffffffffffffffffffffff1673ffffffffffffffffffffffffffffffffffffffff16639cc5804886336040518363ffffffff1660e01b8152600401808381526020018273ffffffffffffffffffffffffffffffffffffffff1673ffffffffffffffffffffffffffffffffffffffff1681526020019250505060206040518083038186803b1580156126b557600080fd5b505afa1580156126c9573d6000803e3d6000fd5b505050506040513d60208110156126df57600080fd5b8101908080519060200190929190505050151514612748576040517f08c379a000000000000000000000000000000000000000000000000000000000815260040180806020018281038252602a81526020018061523a602a913960400191505060405180910390fd5b5b5b600360009054906101000a900473ffffffffffffffffffffffffffffffffffffffff1673ffffffffffffffffffffffffffffffffffffffff166303e9e6098d6040518263ffffffff1660e01b81526004018082815260200191505060006040518083038186803b1580156127bd57600080fd5b505afa1580156127d1573d6000803e3d6000fd5b505050506040513d6000823e3d601f19601f8201168201806040525060e08110156127fb57600080fd5b8101908080519060200190929190805190602001909291908051604051939291908464010000000082111561282f57600080fd5b8382019150602082018581111561284557600080fd5b825186600182028301116401000000008211171561286257600080fd5b8083526020830192505050908051906020019080838360005b8381101561289657808201518184015260208101905061287b565b50505050905090810190601f1680156128c35780820380516001836020036101000a031916815260200191505b50604052602001805190602001909291908051906020019092919080519060200190929190805190602001909291905050509a509a509a509a509a509a509a505050505092959891949750929550565b7fdcd9c7fa0342f01013bd0bf2bec103a81936162dcebd1f0c38b1d4164c17e0fc816040518082815260200191505060405180910390a150565b8160405160200180807f6e7572736500000000000000000000000000000000000000000000000000000081525060050190506040516020818303038152906040528051906020012061299d611599565b6040516020018082805190602001908083835b602083106129d357805182526020820191506020810190506020830392506129b0565b6001836020036101000a0380198251168184511680821785525050505050509050019150506040516020818303038152906040528051906020012014612a81576040517f08c379a000000000000000000000000000000000000000000000000000000000815260040180806020018281038252601b8152602001807f5468697320706572736f6e206973206e6f742061206e7572736521000000000081525060200191505060405180910390fd5b80600260009054906101000a900473ffffffffffffffffffffffffffffffffffffffff1673ffffffffffffffffffffffffffffffffffffffff1663f6b18d41336040518263ffffffff1660e01b8152600401808273ffffffffffffffffffffffffffffffffffffffff1673ffffffffffffffffffffffffffffffffffffffff16815260200191505060206040518083038186803b158015612b2157600080fd5b505afa158015612b35573d6000803e3d6000fd5b505050506040513d6020811015612b4b57600080fd5b810190808051906020019092919050505014612bb2576040517f08c379a00000000000000000000000000000000000000000000000000000000081526004018080602001828103825260358152602001806153646035913960400191505060405180910390fd5b828260011515600260009054906101000a900473ffffffffffffffffffffffffffffffffffffffff1673ffffffffffffffffffffffffffffffffffffffff16639da1afdb84846040518363ffffffff1660e01b8152600401808381526020018281526020019250505060206040518083038186803b158015612c3357600080fd5b505afa158015612c47573d6000803e3d6000fd5b505050506040513d6020811015612c5d57600080fd5b8101908080519060200190929190505050151514612cc6576040517f08c379a00000000000000000000000000000000000000000000000000000000081526004018080602001828103825260248152602001806152646024913960400191505060405180910390fd5b600260009054906101000a900473ffffffffffffffffffffffffffffffffffffffff1673ffffffffffffffffffffffffffffffffffffffff1663ae185dce86866040518363ffffffff1660e01b81526004018083815260200182815260200192505050600060405180830381600087803b158015612d4357600080fd5b505af1158015612d57573d6000803e3d6000fd5b505050505050505050565b60008260405160200180807f646f63746f720000000000000000000000000000000000000000000000000000815250600601905060405160208183030381529060405280519060200120612db4611599565b6040516020018082805190602001908083835b60208310612dea5780518252602082019150602081019050602083039250612dc7565b6001836020036101000a0380198251168184511680821785525050505050509050019150506040516020818303038152906040528051906020012014612e98576040517f08c379a00000000000000000000000000000000000000000000000000000000081526004018080602001828103825260158152602001807f55736572206973206e6f74206120646f63746f7221000000000000000000000081525060200191505060405180910390fd5b600115156000809054906101000a900473ffffffffffffffffffffffffffffffffffffffff1673ffffffffffffffffffffffffffffffffffffffff1663b01df35183336040518363ffffffff1660e01b8152600401808381526020018273ffffffffffffffffffffffffffffffffffffffff1673ffffffffffffffffffffffffffffffffffffffff1681526020019250505060206040518083038186803b158015612f4257600080fd5b505afa158015612f56573d6000803e3d6000fd5b505050506040513d6020811015612f6c57600080fd5b8101908080519060200190929190505050151514612fd5576040517f08c379a00000000000000000000000000000000000000000000000000000000081526004018080602001828103825260338152602001806152076033913960400191505060405180910390fd5b60011515600160009054906101000a900473ffffffffffffffffffffffffffffffffffffffff1673ffffffffffffffffffffffffffffffffffffffff16639cc5804883336040518363ffffffff1660e01b8152600401808381526020018273ffffffffffffffffffffffffffffffffffffffff1673ffffffffffffffffffffffffffffffffffffffff1681526020019250505060206040518083038186803b15801561308057600080fd5b505afa158015613094573d6000803e3d6000fd5b505050506040513d60208110156130aa57600080fd5b8101908080519060200190929190505050151514613113576040517f08c379a000000000000000000000000000000000000000000000000000000000815260040180806020018281038252602b8152602001806152b0602b913960400191505060405180910390fd5b600360009054906101000a900473ffffffffffffffffffffffffffffffffffffffff1673ffffffffffffffffffffffffffffffffffffffff166383ac1d0786856000809054906101000a900473ffffffffffffffffffffffffffffffffffffffff1673ffffffffffffffffffffffffffffffffffffffff1663097ee8cd896040518263ffffffff1660e01b81526004018082815260200191505060206040518083038186803b1580156131c557600080fd5b505afa1580156131d9573d6000803e3d6000fd5b505050506040513d60208110156131ef57600080fd5b8101908080519060200190929190505050336040518563ffffffff1660e01b81526004018085600781111561322057fe5b60ff168152602001806020018473ffffffffffffffffffffffffffffffffffffffff1673ffffffffffffffffffffffffffffffffffffffff1681526020018373ffffffffffffffffffffffffffffffffffffffff1673ffffffffffffffffffffffffffffffffffffffff168152602001828103825285818151815260200191508051906020019080838360005b838110156132c85780820151818401526020810190506132ad565b50505050905090810190601f1680156132f55780820380516001836020036101000a031916815260200191505b5095505050505050602060405180830381600087803b15801561331757600080fd5b505af115801561332b573d6000803e3d6000fd5b505050506040513d602081101561334157600080fd5b810190808051906020019092919050505091506000809054906101000a900473ffffffffffffffffffffffffffffffffffffffff1673ffffffffffffffffffffffffffffffffffffffff166385cd346185846040518363ffffffff1660e01b81526004018083815260200182815260200192505050600060405180830381600087803b1580156133d057600080fd5b505af11580156133e4573d6000803e3d6000fd5b505050507fa3864107517fb55756a302ce7374eafe6be466bc7c6c7eae4b5879bb19fe4ac060405160405180910390a1819150509392505050565b8160405160200180807f646f63746f72000000000000000000000000000000000000000000000000000081525060060190506040516020818303038152906040528051906020012061346f611599565b6040516020018082805190602001908083835b602083106134a55780518252602082019150602081019050602083039250613482565b6001836020036101000a0380198251168184511680821785525050505050509050019150506040516020818303038152906040528051906020012014613553576040517f08c379a000000000000000000000000000000000000000000000000000000000815260040180806020018281038252601c8152602001807f5468697320706572736f6e206973206e6f74206120646f63746f72210000000081525060200191505060405180910390fd5b80600160009054906101000a900473ffffffffffffffffffffffffffffffffffffffff1673ffffffffffffffffffffffffffffffffffffffff1663632b7bf0336040518263ffffffff1660e01b8152600401808273ffffffffffffffffffffffffffffffffffffffff1673ffffffffffffffffffffffffffffffffffffffff16815260200191505060206040518083038186803b1580156135f357600080fd5b505afa158015613607573d6000803e3d6000fd5b505050506040513d602081101561361d57600080fd5b810190808051906020019092919050505014613684576040517f08c379a00000000000000000000000000000000000000000000000000000000081526004018080602001828103825260368152602001806151d16036913960400191505060405180910390fd5b828260001515600160009054906101000a900473ffffffffffffffffffffffffffffffffffffffff1673ffffffffffffffffffffffffffffffffffffffff16639da1afdb84846040518363ffffffff1660e01b8152600401808381526020018281526020019250505060206040518083038186803b15801561370557600080fd5b505afa158015613719573d6000803e3d6000fd5b505050506040513d602081101561372f57600080fd5b8101908080519060200190929190505050151514613798576040517f08c379a00000000000000000000000000000000000000000000000000000000081526004018080602001828103825260298152602001806153996029913960400191505060405180910390fd5b600160009054906101000a900473ffffffffffffffffffffffffffffffffffffffff1673ffffffffffffffffffffffffffffffffffffffff1663ae185dce86866040518363ffffffff1660e01b81526004018083815260200182815260200192505050600060405180830381600087803b15801561381557600080fd5b505af1158015613829573d6000803e3d6000fd5b505050505050505050565b83833360405160200180807f646f63746f720000000000000000000000000000000000000000000000000000815250600601905060405160208183030381529060405280519060200120613886611599565b6040516020018082805190602001908083835b602083106138bc5780518252602082019150602081019050602083039250613899565b6001836020036101000a038019825116818451168082178552505050505050905001915050604051602081830303815290604052805190602001201461396a576040517f08c379a00000000000000000000000000000000000000000000000000000000081526004018080602001828103825260158152602001807f55736572206973206e6f74206120646f63746f7221000000000000000000000081525060200191505060405180910390fd5b60011515600360009054906101000a900473ffffffffffffffffffffffffffffffffffffffff1673ffffffffffffffffffffffffffffffffffffffff1663d3b94f5084846040518363ffffffff1660e01b8152600401808381526020018273ffffffffffffffffffffffffffffffffffffffff1673ffffffffffffffffffffffffffffffffffffffff1681526020019250505060206040518083038186803b158015613a1557600080fd5b505afa158015613a29573d6000803e3d6000fd5b505050506040513d6020811015613a3f57600080fd5b8101908080519060200190929190505050151514613ac5576040517f08c379a00000000000000000000000000000000000000000000000000000000081526004018080602001828103825260158152602001807f446f63746f72206973206e6f742069737375657221000000000000000000000081525060200191505060405180910390fd5b600115156000809054906101000a900473ffffffffffffffffffffffffffffffffffffffff1673ffffffffffffffffffffffffffffffffffffffff1663b01df35185336040518363ffffffff1660e01b8152600401808381526020018273ffffffffffffffffffffffffffffffffffffffff1673ffffffffffffffffffffffffffffffffffffffff1681526020019250505060206040518083038186803b158015613b6f57600080fd5b505afa158015613b83573d6000803e3d6000fd5b505050506040513d6020811015613b9957600080fd5b8101908080519060200190929190505050151514613c02576040517f08c379a00000000000000000000000000000000000000000000000000000000081526004018080602001828103825260338152602001806152076033913960400191505060405180910390fd5b60011515600160009054906101000a900473ffffffffffffffffffffffffffffffffffffffff1673ffffffffffffffffffffffffffffffffffffffff16639cc5804885336040518363ffffffff1660e01b8152600401808381526020018273ffffffffffffffffffffffffffffffffffffffff1673ffffffffffffffffffffffffffffffffffffffff1681526020019250505060206040518083038186803b158015613cad57600080fd5b505afa158015613cc1573d6000803e3d6000fd5b505050506040513d6020811015613cd757600080fd5b8101908080519060200190929190505050151514613d40576040517f08c379a000000000000000000000000000000000000000000000000000000000815260040180806020018281038252602b8152602001806152b0602b913960400191505060405180910390fd5b600360009054906101000a900473ffffffffffffffffffffffffffffffffffffffff1673ffffffffffffffffffffffffffffffffffffffff16636a5cb5d88787876040518463ffffffff1660e01b815260040180848152602001836007811115613da657fe5b60ff16815260200180602001828103825283818151815260200191508051906020019080838360005b83811015613dea578082015181840152602081019050613dcf565b50505050905090810190601f168015613e175780820380516001836020036101000a031916815260200191505b50945050505050600060405180830381600087803b158015613e3857600080fd5b505af1158015613e4c573d6000803e3d6000fd5b5050505050505050505050565b8060405160200180807f646f63746f720000000000000000000000000000000000000000000000000000815250600601905060405160208183030381529060405280519060200120613ea9611599565b6040516020018082805190602001908083835b60208310613edf5780518252602082019150602081019050602083039250613ebc565b6001836020036101000a0380198251168184511680821785525050505050509050019150506040516020818303038152906040528051906020012014613f8d576040517f08c379a00000000000000000000000000000000000000000000000000000000081526004018080602001828103825260158152602001807f55736572206973206e6f74206120646f63746f7221000000000000000000000081525060200191505060405180910390fd5b600115156000809054906101000a900473ffffffffffffffffffffffffffffffffffffffff1673ffffffffffffffffffffffffffffffffffffffff1663b01df35183336040518363ffffffff1660e01b8152600401808381526020018273ffffffffffffffffffffffffffffffffffffffff1673ffffffffffffffffffffffffffffffffffffffff1681526020019250505060206040518083038186803b15801561403757600080fd5b505afa15801561404b573d6000803e3d6000fd5b505050506040513d602081101561406157600080fd5b81019080805190602001909291905050501515146140ca576040517f08c379a00000000000000000000000000000000000000000000000000000000081526004018080602001828103825260338152602001806152076033913960400191505060405180910390fd5b60011515600160009054906101000a900473ffffffffffffffffffffffffffffffffffffffff1673ffffffffffffffffffffffffffffffffffffffff16639cc5804883336040518363ffffffff1660e01b8152600401808381526020018273ffffffffffffffffffffffffffffffffffffffff1673ffffffffffffffffffffffffffffffffffffffff1681526020019250505060206040518083038186803b15801561417557600080fd5b505afa158015614189573d6000803e3d6000fd5b505050506040513d602081101561419f57600080fd5b8101908080519060200190929190505050151514614208576040517f08c379a000000000000000000000000000000000000000000000000000000000815260040180806020018281038252602b8152602001806152b0602b913960400191505060405180910390fd5b6000809054906101000a900473ffffffffffffffffffffffffffffffffffffffff1673ffffffffffffffffffffffffffffffffffffffff1663c7be8aad83856040518363ffffffff1660e01b81526004018083815260200182815260200192505050600060405180830381600087803b15801561428457600080fd5b505af1158015614298573d6000803e3d6000fd5b505050507f484ffd7eba6802009f566073a0080e085c5132c0ad370878012903c36596750c60405160405180910390a1505050565b60608260606142da611599565b9050600060405160200180807f646f63746f720000000000000000000000000000000000000000000000000000815250600601905060405160208183030381529060405280519060200120826040516020018082805190602001908083835b6020831061435c5780518252602082019150602081019050602083039250614339565b6001836020036101000a03801982511681845116808217855250505050505090500191505060405160208183030381529060405280519060200120149050600060405160200180807f6e75727365000000000000000000000000000000000000000000000000000000815250600501905060405160208183030381529060405280519060200120836040516020018082805190602001908083835b6020831061441a57805182526020820191506020810190506020830392506143f7565b6001836020036101000a0380198251168184511680821785525050505050509050019150506040516020818303038152906040528051906020012014905081806144615750805b6144d3576040517f08c379a000000000000000000000000000000000000000000000000000000000815260040180806020018281038252601a8152602001807f55736572206973206e6f7420612070726163746974696f6e657200000000000081525060200191505060405180910390fd5b811561475957600115156000809054906101000a900473ffffffffffffffffffffffffffffffffffffffff1673ffffffffffffffffffffffffffffffffffffffff1663b01df35186336040518363ffffffff1660e01b8152600401808381526020018273ffffffffffffffffffffffffffffffffffffffff1673ffffffffffffffffffffffffffffffffffffffff1681526020019250505060206040518083038186803b15801561458357600080fd5b505afa158015614597573d6000803e3d6000fd5b505050506040513d60208110156145ad57600080fd5b8101908080519060200190929190505050151514614616576040517f08c379a00000000000000000000000000000000000000000000000000000000081526004018080602001828103825260338152602001806152076033913960400191505060405180910390fd5b60011515600160009054906101000a900473ffffffffffffffffffffffffffffffffffffffff1673ffffffffffffffffffffffffffffffffffffffff16639cc5804886336040518363ffffffff1660e01b8152600401808381526020018273ffffffffffffffffffffffffffffffffffffffff1673ffffffffffffffffffffffffffffffffffffffff1681526020019250505060206040518083038186803b1580156146c157600080fd5b505afa1580156146d5573d6000803e3d6000fd5b505050506040513d60208110156146eb57600080fd5b8101908080519060200190929190505050151514614754576040517f08c379a000000000000000000000000000000000000000000000000000000000815260040180806020018281038252602b8152602001806152b0602b913960400191505060405180910390fd5b6149dc565b80156149db57600115156000809054906101000a900473ffffffffffffffffffffffffffffffffffffffff1673ffffffffffffffffffffffffffffffffffffffff1663c412e7ba86336040518363ffffffff1660e01b8152600401808381526020018273ffffffffffffffffffffffffffffffffffffffff1673ffffffffffffffffffffffffffffffffffffffff1681526020019250505060206040518083038186803b15801561480957600080fd5b505afa15801561481d573d6000803e3d6000fd5b505050506040513d602081101561483357600080fd5b810190808051906020019092919050505015151461489c576040517f08c379a00000000000000000000000000000000000000000000000000000000081526004018080602001828103825260318152602001806153006031913960400191505060405180910390fd5b60011515600260009054906101000a900473ffffffffffffffffffffffffffffffffffffffff1673ffffffffffffffffffffffffffffffffffffffff16639cc5804886336040518363ffffffff1660e01b8152600401808381526020018273ffffffffffffffffffffffffffffffffffffffff1673ffffffffffffffffffffffffffffffffffffffff1681526020019250505060206040518083038186803b15801561494757600080fd5b505afa15801561495b573d6000803e3d6000fd5b505050506040513d602081101561497157600080fd5b81019080805190602001909291905050501515146149da576040517f08c379a000000000000000000000000000000000000000000000000000000000815260040180806020018281038252602a81526020018061523a602a913960400191505060405180910390fd5b5b5b6000809054906101000a900473ffffffffffffffffffffffffffffffffffffffff1673ffffffffffffffffffffffffffffffffffffffff166336b7a09c88886040518363ffffffff1660e01b815260040180838152602001826007811115614a4057fe5b60ff1681526020019250505060006040518083038186803b158015614a6457600080fd5b505afa158015614a78573d6000803e3d6000fd5b505050506040513d6000823e3d601f19601f820116820180604052506020811015614aa257600080fd5b8101908080516040519392919084640100000000821115614ac257600080fd5b83820191506020820185811115614ad857600080fd5b8251866020820283011164010000000082111715614af557600080fd5b8083526020830192505050908051906020019060200280838360005b83811015614b2c578082015181840152602081019050614b11565b5050505090500160405250505094505050505092915050565b606060405160200180807f7265736561726368657200000000000000000000000000000000000000000000815250600a01905060405160208183030381529060405280519060200120614b96611599565b6040516020018082805190602001908083835b60208310614bcc5780518252602082019150602081019050602083039250614ba9565b6001836020036101000a0380198251168184511680821785525050505050509050019150506040516020818303038152906040528051906020012014614c7a576040517f08c379a00000000000000000000000000000000000000000000000000000000081526004018080602001828103825260208152602001807f5468697320706572736f6e206973206e6f74206120726573656172636865722181525060200191505060405180910390fd5b6000809054906101000a900473ffffffffffffffffffffffffffffffffffffffff1673ffffffffffffffffffffffffffffffffffffffff166311fc621d6040518163ffffffff1660e01b815260040160006040518083038186803b158015614ce157600080fd5b505afa158015614cf5573d6000803e3d6000fd5b505050506040513d6000823e3d601f19601f820116820180604052506020811015614d1f57600080fd5b8101908080516040519392919084640100000000821115614d3f57600080fd5b83820191506020820185811115614d5557600080fd5b8251866020820283011164010000000082111715614d7257600080fd5b8083526020830192505050908051906020019060200280838360005b83811015614da9578082015181840152602081019050614d8e565b50505050905001604052505050905090565b8160405160200180807f6e75727365000000000000000000000000000000000000000000000000000000815250600501905060405160208183030381529060405280519060200120614e0b611599565b6040516020018082805190602001908083835b60208310614e415780518252602082019150602081019050602083039250614e1e565b6001836020036101000a0380198251168184511680821785525050505050509050019150506040516020818303038152906040528051906020012014614eef576040517f08c379a000000000000000000000000000000000000000000000000000000000815260040180806020018281038252601b8152602001807f5468697320706572736f6e206973206e6f742061206e7572736521000000000081525060200191505060405180910390fd5b80600260009054906101000a900473ffffffffffffffffffffffffffffffffffffffff1673ffffffffffffffffffffffffffffffffffffffff1663f6b18d41336040518263ffffffff1660e01b8152600401808273ffffffffffffffffffffffffffffffffffffffff1673ffffffffffffffffffffffffffffffffffffffff16815260200191505060206040518083038186803b158015614f8f57600080fd5b505afa158015614fa3573d6000803e3d6000fd5b505050506040513d6020811015614fb957600080fd5b810190808051906020019092919050505014615020576040517f08c379a00000000000000000000000000000000000000000000000000000000081526004018080602001828103825260358152602001806153646035913960400191505060405180910390fd5b828260001515600260009054906101000a900473ffffffffffffffffffffffffffffffffffffffff1673ffffffffffffffffffffffffffffffffffffffff16639da1afdb84846040518363ffffffff1660e01b8152600401808381526020018281526020019250505060206040518083038186803b1580156150a157600080fd5b505afa1580156150b5573d6000803e3d6000fd5b505050506040513d60208110156150cb57600080fd5b8101908080519060200190929190505050151514615134576040517f08c379a00000000000000000000000000000000000000000000000000000000081526004018080602001828103825260288152602001806152886028913960400191505060405180910390fd5b600260009054906101000a900473ffffffffffffffffffffffffffffffffffffffff1673ffffffffffffffffffffffffffffffffffffffff1663ae185dce86866040518363ffffffff1660e01b81526004018083815260200182815260200192505050600060405180830381600087803b1580156151b157600080fd5b505af11580156151c5573d6000803e3d6000fd5b50505050505050505056fe446f63746f72206973206e6f7420616c6c6f77656420746f20616374206f6e20626568616c66206f66206f7468657220646f63746f72446f63746f72206973206e6f7420696e2070617469656e742773206c697374206f6620617070726f76656420646f63746f727350617469656e74206973206e6f7420696e206e757273652773206c697374206f662070617469656e747350617469656e74206973206e6f7420726567697374657265642077697468206e7572736550617469656e7420697320616c726561647920726567697374657265642077697468206e7572736550617469656e74206973206e6f7420696e20646f63746f722773206c697374206f662070617469656e747350617469656e74206973206e6f742072656769737465726564207769746820646f63746f724e75727365206973206e6f7420696e2070617469656e742773206c697374206f6620617070726f766564206e757273657350617469656e7420686173206e6f7420617070726f766564206461746120666f7220726573656172636820707572706f7365734e75727365206973206e6f7420616c6c6f77656420746f20616374206f6e20626568616c66206f66206f7468657220646f63746f7250617469656e7420697320616c72656164792072656769737465726564207769746820646f63746f72a265627a7a72315820d7d574acce0fa5649513cb740b485d805ce015371609fed2c481e59fefd3354e64736f6c63430005110032",
  "source": "pragma solidity ^0.5.0;\n\nimport \"./Patient.sol\";\nimport \"./Doctor.sol\";\nimport \"./Nurse.sol\";\nimport \"./EHR.sol\";\nimport \"./Researcher.sol\";\n\n\ncontract medicalChainStaff {\n\n  Patient patientContract;\n  Doctor doctorContract;\n  Nurse nurseContract;\n  EHR ehrContract;\n  Researcher researcherContract;\n\n\n  constructor(Patient patientAddress, Doctor doctorAddress, Nurse nurseAddress, EHR ehrAddress, Researcher researcherAddress) public {\n    patientContract = patientAddress;\n    doctorContract = doctorAddress;\n    nurseContract = nurseAddress;\n    ehrContract = ehrAddress;\n    researcherContract = researcherAddress;\n  }\n\n  /********* EVENTS *********/  \n\n  event PatientAdded(address patientId);\n  event DoctorAdded(address doctorId);\n  event NurseAdded(address nurseId);\n  event testEvent(uint256 test);\n  event GivingDoctorAccess();\n  event RemovingDoctorAccess();\n  event GivingNurseAccess();\n  event RemovingNurseAccess();\n  event GivingResearcherAccess();\n  event AddingEHR();\n  event RemovingEHR();\n  event AcknowledgingRecord();\n  event GettingApprovedPatients();\n\n  /********* MODIFIERS *********/\n\n  // prevent doctor from self-diagnosing, doctor cannot write on their own record\n  modifier doctorIsNotPatient(address patientId, address doctorId) {\n    require(patientId != doctorId, \"Doctor should not self-diagnose\");\n    _;\n  }\n\n  modifier isPractitionerApprovedAndPatientRegisteredWithPractitioner(uint256 patientId) {\n    string memory role = getSenderRole();\n    bool roleIsDoctor = keccak256(abi.encodePacked((role))) == keccak256(abi.encodePacked((\"doctor\")));\n    bool roleIsNurse = keccak256(abi.encodePacked((role))) == keccak256(abi.encodePacked((\"nurse\")));\n    require(roleIsDoctor || roleIsNurse, \"User is not a practitioner\");\n    if (roleIsDoctor) {\n      require(patientContract.isApprovedDoctor(patientId, msg.sender) == true, \"Doctor is not in patient's list of approved doctors\");\n      require(doctorContract.isPatientInListOfPatients(patientId, msg.sender) == true, \"Patient is not in doctor's list of patients\");\n    } else if (roleIsNurse) {\n      require(patientContract.isApprovedNurse(patientId, msg.sender) == true, \"Nurse is not in patient's list of approved nurses\");\n      require(nurseContract.isPatientInListOfPatients(patientId, msg.sender) == true, \"Patient is not in nurse's list of patients\");\n    }\n    _;\n  }\n\n  modifier isDoctorApprovedAndPatientRegisteredWithDoctor(uint256 patientId) {\n    require(keccak256(abi.encodePacked((getSenderRole()))) == keccak256(abi.encodePacked((\"doctor\"))), \"User is not a doctor!\");\n    require(patientContract.isApprovedDoctor(patientId, msg.sender) == true, \"Doctor is not in patient's list of approved doctors\");\n    require(doctorContract.isPatientInListOfPatients(patientId, msg.sender) == true, \"Patient is not in doctor's list of patients\");\n    _;\n  }\n\nmodifier isDoctorApprovedAndPatientRegisteredWithDoctorAndIssuer(uint256 patientId, uint256 recordId, address doctorAddress) {\n    require(keccak256(abi.encodePacked((getSenderRole()))) == keccak256(abi.encodePacked((\"doctor\"))), \"User is not a doctor!\");\n    require(ehrContract.doesRecordMatchDoctorAddress(recordId, doctorAddress) == true, \"Doctor is not issuer!\");\n    require(patientContract.isApprovedDoctor(patientId, msg.sender) == true, \"Doctor is not in patient's list of approved doctors\");\n    require(doctorContract.isPatientInListOfPatients(patientId, msg.sender) == true, \"Patient is not in doctor's list of patients\");\n    _;\n  }\n\n  modifier isDoctorAndAuthorised(uint256 doctorId) {\n    require(keccak256(abi.encodePacked(getSenderRole())) == keccak256(abi.encodePacked((\"doctor\"))), \"This person is not a doctor!\");\n    require(doctorContract.getDoctorIdFromDoctorAddress(msg.sender) == doctorId, \"Doctor is not allowed to act on behalf of other doctor\");\n    _;\n  }\n\n  modifier isNurseAndAuthorised(uint256 nurseId) {\n    require(keccak256(abi.encodePacked(getSenderRole())) == keccak256(abi.encodePacked((\"nurse\"))), \"This person is not a nurse!\");\n    require(nurseContract.getNurseIdFromNurseAddress(msg.sender) == nurseId, \"Nurse is not allowed to act on behalf of other doctor\");\n    _;\n  }\n\n  modifier PatientIsRegisteredWithDoctor(uint256 doctorId, uint256 patientId) {\n    require(doctorContract.getIsPatientRegistered(doctorId, patientId) == true, \"Patient is not registered with doctor\");\n    _;\n  }\n\n  modifier PatientIsNotRegisteredWithDoctor(uint256 doctorId, uint256 patientId) {\n    require(doctorContract.getIsPatientRegistered(doctorId, patientId) == false, \"Patient is already registered with doctor\");\n    _;\n  }\n\n  modifier PatientIsRegisteredWithNurse(uint256 nurseId, uint256 patientId) {\n    require(nurseContract.getIsPatientRegistered(nurseId, patientId) == true, \"Patient is not registered with nurse\");\n    _;\n  }\n\n  modifier PatientIsNotRegisteredWithNurse(uint256 nurseId, uint256 patientId) {\n    require(nurseContract.getIsPatientRegistered(nurseId, patientId) == false, \"Patient is already registered with nurse\");\n    _;\n  }\n\n  modifier isResearcherAbleToViewPatientData(uint256 patientId) {\n    require(keccak256(abi.encodePacked(getSenderRole())) == keccak256(abi.encodePacked((\"researcher\"))), \"This person is not a researcher!\");\n    require(patientContract.getApprovedReseacher(patientId), \"Patient has not approved data for research purposes\");\n    _;\n  }\n\n  modifier isResearcher() {\n    require(keccak256(abi.encodePacked(getSenderRole())) == keccak256(abi.encodePacked((\"researcher\"))), \"This person is not a researcher!\");\n    _;\n  }\n\n\n  /********* FUNCTIONS *********/\n\n  function getSenderRole() public view returns (string memory) {\n    if (doctorContract.isSender(msg.sender)) {\n      return \"doctor\";\n    } else if (patientContract.isSender(msg.sender)) {\n      return \"patient\";\n    } else if (nurseContract.isSender(msg.sender)) {\n      return \"nurse\";\n    } else if (researcherContract.isSender(msg.sender)) {\n      return \"researcher\";\n    } else {\n      return \"unknown\";\n    }\n  }\n\n  function registerPatientWithDoctor(uint256 doctorId, uint256 patientId) public isDoctorAndAuthorised(doctorId) PatientIsNotRegisteredWithDoctor(doctorId, patientId) {\n    doctorContract.registerPatient(doctorId, patientId);\n  }\n\n  function unregisterPatientWithDoctor(uint256 doctorId, uint256 patientId) public isDoctorAndAuthorised(doctorId) PatientIsRegisteredWithDoctor(doctorId, patientId)  {\n    doctorContract.unregisterPatient(doctorId, patientId);\n  }\n\n  function registerPatientWithNurse(uint256 nurseId, uint256 patientId) public isNurseAndAuthorised(nurseId) PatientIsNotRegisteredWithNurse(nurseId, patientId) {\n    nurseContract.registerPatient(nurseId, patientId);\n  }\n\n  function unregisterPatientWithNurse(uint256 nurseId, uint256 patientId) public isNurseAndAuthorised(nurseId) PatientIsRegisteredWithNurse(nurseId, patientId) {\n    nurseContract.registerPatient(nurseId, patientId);\n  }\n\n  function testingTest(uint256 test) public {\n    emit testEvent(test);\n  }\n\n  // Add new EHR\n  function addNewEHR(EHR.RecordType recordType, uint256 patientId, string memory filename) public isDoctorApprovedAndPatientRegisteredWithDoctor(patientId) returns (uint256 recordId) {\n    \n      recordId = ehrContract.add(recordType, filename, patientContract.getPatientAddress(patientId), msg.sender);\n\n      patientContract.addEHR(patientId, recordId);\n\n      emit AddingEHR();\n      return recordId;\n  }\n\n  // Remove EHR\n  function removeEHR(uint256 recordId, uint256 patientId) public isDoctorApprovedAndPatientRegisteredWithDoctor(patientId) {\n    \n      patientContract.removeEHR(patientId, recordId);\n\n      emit RemovingEHR();\n  }\n\n  // Request to view specific record\n  function practitionerViewRecordByRecordID(uint256 patientId, uint256 recordId) public view isPractitionerApprovedAndPatientRegisteredWithPractitioner(patientId) returns (uint256 id,\n        EHR.RecordType recordType,\n        string memory fileName,\n        address patientAddress,\n        address doctorAddress,\n        uint256 timeAdded,\n        bool patientSignedOff) {\n      return ehrContract.getRecord(recordId);\n  }\n\n  // OK\n  // Request to update specific record - update RecordType and fileName\n  function updateRecordByRecordId(uint256 patientId, uint256 recordId, EHR.RecordType recordType, string memory fileName) public isDoctorApprovedAndPatientRegisteredWithDoctorAndIssuer(patientId, recordId, msg.sender) {\n    ehrContract.updateRecord(recordId, recordType, fileName);\n  }\n\n  // OK\n  // Researcher: View all patients who have approved research access\n  function viewApprovedPatients() public view isResearcher() returns (uint256[] memory) {\n      // emit GettingApprovedPatients();\n      return patientContract.getResearchPatients();\n  }\n\n  // OK\n  // Researcher: Request to view specific patient data\n  function viewPatientByPatientID(uint256 patientID) public view isResearcherAbleToViewPatientData(patientID) returns (uint256 id,\n        string memory firstName,\n        string memory lastName,\n        string memory emailAddress,\n        string memory dob) {\n      return patientContract.getData(patientID);\n  }\n\n  // OK\n  // Practitioner: View all records belonging to this patient\n  // Returns all the recordIds\n  function practitionerViewAllRecords(uint256 patientId) public view isPractitionerApprovedAndPatientRegisteredWithPractitioner(patientId) returns (uint256[] memory) {\n    // address patientAddress = patientContract.getPatientAddress(patientId);\n    return patientContract.viewAllRecords(patientId);\n  }\n\n  // OK\n  // Patient: Filter records by record type\n  function practitionerViewRecordsByRecordType(uint256 patientId, EHR.RecordType recordType) public view isPractitionerApprovedAndPatientRegisteredWithPractitioner(patientId) returns (uint256[] memory) {\n    return patientContract.viewRecordsByRecordType(patientId, recordType);\n  }\n\n\n}",
  "sourcePath": "/Users/aaronf/IS4302/is4302-project-medical-chain/contracts/medicalChainStaff.sol",
  "compiler": {
    "name": "solc",
    "version": "0.5.17+commit.d19bba13.Emscripten.clang"
  },
  "schemaVersion": "3.4.11",
  "updatedAt": "2023-04-10T08:50:27.769Z",
  "networkType": "ethereum",
  "devdoc": {
    "methods": {}
  },
  "userdoc": {
    "methods": {
      "getSenderRole()": {
        "notice": "******* FUNCTIONS ********"
      }
    }
  }
}