{
  "contractName": "medicalChain",
  "abi": [
    {
      "inputs": [
        {
          "internalType": "contract Patient",
          "name": "patientAddress",
          "type": "address"
        },
        {
          "internalType": "contract Doctor",
          "name": "doctorAddress",
          "type": "address"
        },
        {
          "internalType": "contract Nurse",
          "name": "nurseAddress",
          "type": "address"
        },
        {
          "internalType": "contract EHR",
          "name": "ehrAddress",
          "type": "address"
        }
      ],
      "payable": false,
      "stateMutability": "nonpayable",
      "type": "constructor"
    },
    {
      "anonymous": false,
      "inputs": [
        {
          "indexed": false,
          "internalType": "address",
          "name": "doctorId",
          "type": "address"
        }
      ],
      "name": "DoctorAdded",
      "type": "event"
    },
    {
      "anonymous": false,
      "inputs": [
        {
          "indexed": false,
          "internalType": "address",
          "name": "nurseId",
          "type": "address"
        }
      ],
      "name": "NurseAdded",
      "type": "event"
    },
    {
      "anonymous": false,
      "inputs": [
        {
          "indexed": false,
          "internalType": "address",
          "name": "patientId",
          "type": "address"
        }
      ],
      "name": "PatientAdded",
      "type": "event"
    },
    {
      "constant": false,
      "inputs": [
        {
          "internalType": "uint256",
          "name": "patientId",
          "type": "uint256"
        },
        {
          "internalType": "address",
          "name": "doctorAddress",
          "type": "address"
        }
      ],
      "name": "giveDoctorAccess",
      "outputs": [],
      "payable": false,
      "stateMutability": "nonpayable",
      "type": "function"
    },
    {
      "constant": false,
      "inputs": [
        {
          "internalType": "uint256",
          "name": "patientId",
          "type": "uint256"
        },
        {
          "internalType": "address",
          "name": "doctorAddress",
          "type": "address"
        }
      ],
      "name": "removeDoctorAccess",
      "outputs": [],
      "payable": false,
      "stateMutability": "nonpayable",
      "type": "function"
    },
    {
      "constant": false,
      "inputs": [
        {
          "internalType": "uint256",
          "name": "patientId",
          "type": "uint256"
        },
        {
          "internalType": "address",
          "name": "nurseAddress",
          "type": "address"
        }
      ],
      "name": "giveNurseAccess",
      "outputs": [],
      "payable": false,
      "stateMutability": "nonpayable",
      "type": "function"
    },
    {
      "constant": false,
      "inputs": [
        {
          "internalType": "uint256",
          "name": "patientId",
          "type": "uint256"
        },
        {
          "internalType": "address",
          "name": "nurseAddress",
          "type": "address"
        }
      ],
      "name": "removeNurseAccess",
      "outputs": [],
      "payable": false,
      "stateMutability": "nonpayable",
      "type": "function"
    },
    {
      "constant": true,
      "inputs": [],
      "name": "getSenderRole",
      "outputs": [
        {
          "internalType": "string",
          "name": "",
          "type": "string"
        }
      ],
      "payable": false,
      "stateMutability": "view",
      "type": "function"
    },
    {
      "constant": true,
      "inputs": [
        {
          "internalType": "uint256",
          "name": "patientId",
          "type": "uint256"
        },
        {
          "internalType": "string",
          "name": "filename",
          "type": "string"
        }
      ],
      "name": "addNewEHR",
      "outputs": [
        {
          "internalType": "uint256",
          "name": "recordId",
          "type": "uint256"
        }
      ],
      "payable": false,
      "stateMutability": "view",
      "type": "function"
    },
    {
      "constant": true,
      "inputs": [
        {
          "internalType": "uint256",
          "name": "recordId",
          "type": "uint256"
        }
      ],
      "name": "viewRecordByRecordID",
      "outputs": [
        {
          "internalType": "uint256",
          "name": "id",
          "type": "uint256"
        },
        {
          "internalType": "string",
          "name": "fileName",
          "type": "string"
        },
        {
          "internalType": "address",
          "name": "patientAddress",
          "type": "address"
        },
        {
          "internalType": "address",
          "name": "doctorAddress",
          "type": "address"
        },
        {
          "internalType": "uint256",
          "name": "timeAdded",
          "type": "uint256"
        }
      ],
      "payable": false,
      "stateMutability": "view",
      "type": "function"
    }
  ],
  "bytecode": "0x608060405234801561001057600080fd5b5060405161188b38038061188b8339818101604052608081101561003357600080fd5b8101908080519060200190929190805190602001909291908051906020019092919080519060200190929190505050836000806101000a81548173ffffffffffffffffffffffffffffffffffffffff021916908373ffffffffffffffffffffffffffffffffffffffff16021790555082600160006101000a81548173ffffffffffffffffffffffffffffffffffffffff021916908373ffffffffffffffffffffffffffffffffffffffff16021790555081600260006101000a81548173ffffffffffffffffffffffffffffffffffffffff021916908373ffffffffffffffffffffffffffffffffffffffff16021790555080600360006101000a81548173ffffffffffffffffffffffffffffffffffffffff021916908373ffffffffffffffffffffffffffffffffffffffff16021790555050505050611713806101786000396000f3fe608060405234801561001057600080fd5b506004361061007d5760003560e01c80635470e8041161005b5780635470e8041461022c578063ae6660271461027a578063bb4182c314610395578063d87ce242146103e35761007d565b8063067be5dc146100825780632d518861146100d05780633a88162e146101a9575b600080fd5b6100ce6004803603604081101561009857600080fd5b8101908080359060200190929190803573ffffffffffffffffffffffffffffffffffffffff169060200190929190505050610431565b005b610193600480360360408110156100e657600080fd5b81019080803590602001909291908035906020019064010000000081111561010d57600080fd5b82018360208201111561011f57600080fd5b8035906020019184600183028401116401000000008311171561014157600080fd5b91908080601f016020809104026020016040519081016040528093929190818152602001838380828437600081840152601f19601f8201169050808301925050505050505091929192905050506104f5565b6040518082815260200191505060405180910390f35b6101b1610d1b565b6040518080602001828103825283818151815260200191508051906020019080838360005b838110156101f15780820151818401526020810190506101d6565b50505050905090810190601f16801561021e5780820380516001836020036101000a031916815260200191505b509250505060405180910390f35b6102786004803603604081101561024257600080fd5b8101908080359060200190929190803573ffffffffffffffffffffffffffffffffffffffff1690602001909291905050506110ac565b005b6102a66004803603602081101561029057600080fd5b8101908080359060200190929190505050611170565b60405180868152602001806020018573ffffffffffffffffffffffffffffffffffffffff1673ffffffffffffffffffffffffffffffffffffffff1681526020018473ffffffffffffffffffffffffffffffffffffffff1673ffffffffffffffffffffffffffffffffffffffff168152602001838152602001828103825286818151815260200191508051906020019080838360005b8381101561035657808201518184015260208101905061033b565b50505050905090810190601f1680156103835780820380516001836020036101000a031916815260200191505b50965050505050505060405180910390f35b6103e1600480360360408110156103ab57600080fd5b8101908080359060200190929190803573ffffffffffffffffffffffffffffffffffffffff169060200190929190505050611456565b005b61042f600480360360408110156103f957600080fd5b8101908080359060200190929190803573ffffffffffffffffffffffffffffffffffffffff16906020019092919050505061151a565b005b6000809054906101000a900473ffffffffffffffffffffffffffffffffffffffff1673ffffffffffffffffffffffffffffffffffffffff1663067be5dc83836040518363ffffffff1660e01b8152600401808381526020018273ffffffffffffffffffffffffffffffffffffffff1673ffffffffffffffffffffffffffffffffffffffff16815260200192505050600060405180830381600087803b1580156104d957600080fd5b505af11580156104ed573d6000803e3d6000fd5b505050505050565b6000826060610502610d1b565b905060405160200180807f646f63746f720000000000000000000000000000000000000000000000000000815250600601905060405160208183030381529060405280519060200120816040516020018082805190602001908083835b60208310610582578051825260208201915060208101905060208303925061055f565b6001836020036101000a03801982511681845116808217855250505050505090500191505060405160208183030381529060405280519060200120141561070557600115156000809054906101000a900473ffffffffffffffffffffffffffffffffffffffff1673ffffffffffffffffffffffffffffffffffffffff1663b01df35184336040518363ffffffff1660e01b8152600401808381526020018273ffffffffffffffffffffffffffffffffffffffff1673ffffffffffffffffffffffffffffffffffffffff1681526020019250505060206040518083038186803b15801561066d57600080fd5b505afa158015610681573d6000803e3d6000fd5b505050506040513d602081101561069757600080fd5b8101908080519060200190929190505050151514610700576040517f08c379a00000000000000000000000000000000000000000000000000000000081526004018080602001828103825260338152602001806115df6033913960400191505060405180910390fd5b610903565b60405160200180807f6e75727365000000000000000000000000000000000000000000000000000000815250600501905060405160208183030381529060405280519060200120816040516020018082805190602001908083835b602083106107835780518252602082019150602081019050602083039250610760565b6001836020036101000a03801982511681845116808217855250505050505090500191505060405160208183030381529060405280519060200120141561090257600115156000809054906101000a900473ffffffffffffffffffffffffffffffffffffffff1673ffffffffffffffffffffffffffffffffffffffff1663c412e7ba84336040518363ffffffff1660e01b8152600401808381526020018273ffffffffffffffffffffffffffffffffffffffff1673ffffffffffffffffffffffffffffffffffffffff1681526020019250505060206040518083038186803b15801561086e57600080fd5b505afa158015610882573d6000803e3d6000fd5b505050506040513d602081101561089857600080fd5b8101908080519060200190929190505050151514610901576040517f08c379a00000000000000000000000000000000000000000000000000000000081526004018080602001828103825260318152602001806116ae6031913960400191505060405180910390fd5b5b5b84606061090e610d1b565b905060405160200180807f646f63746f720000000000000000000000000000000000000000000000000000815250600601905060405160208183030381529060405280519060200120816040516020018082805190602001908083835b6020831061098e578051825260208201915060208101905060208303925061096b565b6001836020036101000a038019825116818451168082178552505050505050905001915050604051602081830303815290604052805190602001201415610b125760011515600160009054906101000a900473ffffffffffffffffffffffffffffffffffffffff1673ffffffffffffffffffffffffffffffffffffffff16639cc5804884336040518363ffffffff1660e01b8152600401808381526020018273ffffffffffffffffffffffffffffffffffffffff1673ffffffffffffffffffffffffffffffffffffffff1681526020019250505060206040518083038186803b158015610a7a57600080fd5b505afa158015610a8e573d6000803e3d6000fd5b505050506040513d6020811015610aa457600080fd5b8101908080519060200190929190505050151514610b0d576040517f08c379a000000000000000000000000000000000000000000000000000000000815260040180806020018281038252602b815260200180611683602b913960400191505060405180910390fd5b610d11565b60405160200180807f6e75727365000000000000000000000000000000000000000000000000000000815250600501905060405160208183030381529060405280519060200120816040516020018082805190602001908083835b60208310610b905780518252602082019150602081019050602083039250610b6d565b6001836020036101000a038019825116818451168082178552505050505050905001915050604051602081830303815290604052805190602001201415610d105760011515600260009054906101000a900473ffffffffffffffffffffffffffffffffffffffff1673ffffffffffffffffffffffffffffffffffffffff16639cc5804884336040518363ffffffff1660e01b8152600401808381526020018273ffffffffffffffffffffffffffffffffffffffff1673ffffffffffffffffffffffffffffffffffffffff1681526020019250505060206040518083038186803b158015610c7c57600080fd5b505afa158015610c90573d6000803e3d6000fd5b505050506040513d6020811015610ca657600080fd5b8101908080519060200190929190505050151514610d0f576040517f08c379a000000000000000000000000000000000000000000000000000000000815260040180806020018281038252602a815260200180611612602a913960400191505060405180910390fd5b5b5b5050505092915050565b6060600160009054906101000a900473ffffffffffffffffffffffffffffffffffffffff1673ffffffffffffffffffffffffffffffffffffffff1663e3843463336040518263ffffffff1660e01b8152600401808273ffffffffffffffffffffffffffffffffffffffff1673ffffffffffffffffffffffffffffffffffffffff16815260200191505060206040518083038186803b158015610dbc57600080fd5b505afa158015610dd0573d6000803e3d6000fd5b505050506040513d6020811015610de657600080fd5b810190808051906020019092919050505015610e39576040518060400160405280600681526020017f646f63746f72000000000000000000000000000000000000000000000000000081525090506110a9565b6000809054906101000a900473ffffffffffffffffffffffffffffffffffffffff1673ffffffffffffffffffffffffffffffffffffffff1663e3843463336040518263ffffffff1660e01b8152600401808273ffffffffffffffffffffffffffffffffffffffff1673ffffffffffffffffffffffffffffffffffffffff16815260200191505060206040518083038186803b158015610ed757600080fd5b505afa158015610eeb573d6000803e3d6000fd5b505050506040513d6020811015610f0157600080fd5b810190808051906020019092919050505015610f54576040518060400160405280600781526020017f70617469656e740000000000000000000000000000000000000000000000000081525090506110a9565b600260009054906101000a900473ffffffffffffffffffffffffffffffffffffffff1673ffffffffffffffffffffffffffffffffffffffff1663e3843463336040518263ffffffff1660e01b8152600401808273ffffffffffffffffffffffffffffffffffffffff1673ffffffffffffffffffffffffffffffffffffffff16815260200191505060206040518083038186803b158015610ff357600080fd5b505afa158015611007573d6000803e3d6000fd5b505050506040513d602081101561101d57600080fd5b810190808051906020019092919050505015611070576040518060400160405280600581526020017f6e7572736500000000000000000000000000000000000000000000000000000081525090506110a9565b6040518060400160405280600781526020017f756e6b6e6f776e0000000000000000000000000000000000000000000000000081525090505b90565b6000809054906101000a900473ffffffffffffffffffffffffffffffffffffffff1673ffffffffffffffffffffffffffffffffffffffff16635470e80483836040518363ffffffff1660e01b8152600401808381526020018273ffffffffffffffffffffffffffffffffffffffff1673ffffffffffffffffffffffffffffffffffffffff16815260200192505050600060405180830381600087803b15801561115457600080fd5b505af1158015611168573d6000803e3d6000fd5b505050505050565b600060606000806000853373ffffffffffffffffffffffffffffffffffffffff16600360009054906101000a900473ffffffffffffffffffffffffffffffffffffffff1673ffffffffffffffffffffffffffffffffffffffff1663834b5d47836040518263ffffffff1660e01b81526004018082815260200191505060206040518083038186803b15801561120457600080fd5b505afa158015611218573d6000803e3d6000fd5b505050506040513d602081101561122e57600080fd5b810190808051906020019092919050505073ffffffffffffffffffffffffffffffffffffffff16146112ab576040517f08c379a000000000000000000000000000000000000000000000000000000000815260040180806020018281038252604781526020018061163c6047913960600191505060405180910390fd5b600360009054906101000a900473ffffffffffffffffffffffffffffffffffffffff1673ffffffffffffffffffffffffffffffffffffffff166303e9e609886040518263ffffffff1660e01b81526004018082815260200191505060006040518083038186803b15801561131e57600080fd5b505afa158015611332573d6000803e3d6000fd5b505050506040513d6000823e3d601f19601f8201168201806040525060a081101561135c57600080fd5b81019080805190602001909291908051604051939291908464010000000082111561138657600080fd5b8382019150602082018581111561139c57600080fd5b82518660018202830111640100000000821117156113b957600080fd5b8083526020830192505050908051906020019080838360005b838110156113ed5780820151818401526020810190506113d2565b50505050905090810190601f16801561141a5780820380516001836020036101000a031916815260200191505b50604052602001805190602001909291908051906020019092919080519060200190929190505050955095509550955095505091939590929450565b6000809054906101000a900473ffffffffffffffffffffffffffffffffffffffff1673ffffffffffffffffffffffffffffffffffffffff1663bb4182c383836040518363ffffffff1660e01b8152600401808381526020018273ffffffffffffffffffffffffffffffffffffffff1673ffffffffffffffffffffffffffffffffffffffff16815260200192505050600060405180830381600087803b1580156114fe57600080fd5b505af1158015611512573d6000803e3d6000fd5b505050505050565b6000809054906101000a900473ffffffffffffffffffffffffffffffffffffffff1673ffffffffffffffffffffffffffffffffffffffff1663d87ce24283836040518363ffffffff1660e01b8152600401808381526020018273ffffffffffffffffffffffffffffffffffffffff1673ffffffffffffffffffffffffffffffffffffffff16815260200192505050600060405180830381600087803b1580156115c257600080fd5b505af11580156115d6573d6000803e3d6000fd5b50505050505056fe446f63746f72206973206e6f7420696e2070617469656e742773206c697374206f6620617070726f76656420646f63746f727350617469656e74206973206e6f7420696e206e757273652773206c697374206f662070617469656e7473446f63746f722f4e75727365206973206e6f742061626c6520746f20766965772074686973207265636f7264206173207468657920617265206e6f74207468652069737375657250617469656e74206973206e6f7420696e20646f63746f722773206c697374206f662070617469656e74734e75727365206973206e6f7420696e2070617469656e742773206c697374206f6620617070726f766564206e7572736573a265627a7a723158205365b48f31f4b8ab95f0cf102a7bad5b88c48b7e89aa90520b9240135604af5664736f6c63430005110032",
  "source": "pragma solidity ^0.5.0;\nimport \"./Patient.sol\";\nimport \"./Doctor.sol\";\nimport \"./Nurse.sol\";\nimport \"./EHR.sol\";\n\ncontract medicalChain {\n\n  Patient patientContract;\n  Doctor doctorContract;\n  Nurse nurseContract;\n  EHR ehrContract;\n\n  constructor(Patient patientAddress, Doctor doctorAddress, Nurse nurseAddress, EHR ehrAddress) public {\n    patientContract = patientAddress;\n    doctorContract = doctorAddress;\n    nurseContract = nurseAddress;\n    ehrContract = ehrAddress;\n  }\n\n  event PatientAdded(address patientId);\n  event DoctorAdded(address doctorId);\n  event NurseAdded(address nurseId);\n\n  // prevent doctor from self-diagnosing, doctor cannot write on their own record\n  modifier doctorIsNotPatient(address patientId, address doctorId) {\n    require(patientId != doctorId, \"Doctor should not self-diagnose\");\n    _;\n  }\n\n  modifier isValidPractioner(uint256 patientId) {\n    string memory role = getSenderRole();\n    if (keccak256(abi.encodePacked((role))) == keccak256(abi.encodePacked((\"doctor\")))) {\n      require(patientContract.isApprovedDoctor(patientId, msg.sender) == true, \"Doctor is not in patient's list of approved doctors\");\n    } else if (keccak256(abi.encodePacked((role))) == keccak256(abi.encodePacked((\"nurse\")))) {\n      require(patientContract.isApprovedNurse(patientId, msg.sender) == true, \"Nurse is not in patient's list of approved nurses\");\n    }\n    _;\n  }\n\n  modifier isPatientRegisteredWithPractioner(uint256 patientId) {\n    string memory role = getSenderRole();\n    if (keccak256(abi.encodePacked((role))) == keccak256(abi.encodePacked((\"doctor\")))) {\n      require(doctorContract.isPatientInListOfPatients(patientId, msg.sender) == true, \"Patient is not in doctor's list of patients\");\n    } else if (keccak256(abi.encodePacked((role))) == keccak256(abi.encodePacked((\"nurse\")))) {\n      require(nurseContract.isPatientInListOfPatients(patientId, msg.sender) == true, \"Patient is not in nurse's list of patients\");\n    }\n    _;\n  }\n\n  modifier isPractionerAbleToViewRecord(uint256 recordId) {\n    require(ehrContract.getDoctorAddress(recordId) == msg.sender, \"Doctor/Nurse is not able to view this record as they are not the issuer\");\n    _;\n  }\n\n  function giveDoctorAccess(uint256 patientId, address doctorAddress) public {\n    patientContract.giveDoctorAccess(patientId, doctorAddress);\n  }\n\n  function removeDoctorAccess(uint256 patientId, address doctorAddress) public {\n    patientContract.removeDoctorAccess(patientId, doctorAddress);\n  }\n\n  function giveNurseAccess(uint256 patientId, address nurseAddress) public {\n    patientContract.giveNurseAccess(patientId, nurseAddress);\n  }\n\n  function removeNurseAccess(uint256 patientId, address nurseAddress) public {\n    patientContract.removeNurseAccess(patientId, nurseAddress);\n  }\n\n  function getSenderRole() public view returns (string memory) {\n    if (doctorContract.isSender(msg.sender)) {\n      return \"doctor\";\n    } else if (patientContract.isSender(msg.sender)) {\n      return \"patient\";\n    } else if (nurseContract.isSender(msg.sender)) {\n      return \"nurse\";\n    } else {\n      return \"unknown\";\n    }\n  }\n\n  // Edit patient profile \n\n  // Add new EHR\n  function addNewEHR(uint256 patientId, string memory filename) public view isValidPractioner(patientId) isPatientRegisteredWithPractioner(patientId) returns (uint256 recordId) {\n\n      // Check if msg.sender is doctor or nurse\n      // Check if msg.sender is inside patient's approvedDoctors or approvedNurses\n      // Check if patientId inside doctor's patients\n      // Add new EHR\n      // add recordId into patient and doctors records\n  }\n\n  // Request to view specific record\n  function viewRecordByRecordID(uint256 recordId) public view isPractionerAbleToViewRecord(recordId) returns (uint256 id,\n        string memory fileName,\n        address patientAddress,\n        address doctorAddress,\n        uint256 timeAdded) {\n      return ehrContract.getRecord(recordId);\n  }\n\n    // struct Record { \n  //   string cid;\n  //   string fileName; \n  //   address patientId;\n  //   address doctorId;\n  //   uint256 timeAdded;\n  // }\n\n  // struct Patient {\n  //   address id;\n  //   mapping(uint256 => Record) records;\n  //   mapping(address => Doctor) doctorsWithAccess;\n  //   mapping(address => Nurse) nursesWithAccess;\n  // }\n\n  // struct Doctor {\n  //   address id;\n  // }\n\n  // struct Nurse {\n  //   address id;\n  // }\n\n  // mapping (address => Patient) public patients;\n  // mapping (address => Doctor) public doctors;\n  // mapping (address => Nurse) public nurses;\n\n  // modifier senderExists {\n  //   require(doctors[msg.sender].id == msg.sender|| nurses[msg.sender].id == msg.sender || patients[msg.sender].id == msg.sender, \"Sender does not exist\");\n  //   _;\n  // }\n\n  // modifier patientExists(uint256 patientId) {\n  //   require(Patient.patientExists(patientId), \"Patient does not exist\");\n  //   _;\n  // }\n\n  // modifier doctorExists(address doctorId) {\n  //   require(doctors[doctorId].id == doctorId, \"Doctor does not exist\");\n  //   _;\n  // }\n\n  // modifier nurseExists(address nurseId) {\n  //   require(nurses[nurseId].id == nurseId, \"Nurse does not exist\");\n  //   _;\n  // }\n\n  // modifier senderIsDoctor {\n  //   require(doctors[msg.sender].id == msg.sender, \"Sender is not a doctor\");\n  //   _;\n  // }\n\n  // to ensure sender is the one who wrote on the chain (for secondary access)\n  // modifier senderIsWriter(Record memory record) {\n  //   require(record.doctorId == msg.sender, \"Sender is not the writer(doctor) of the Record\");\n  //   _;\n  // }\n\n  // modifier senderIsPatient(uint256 patientId) {\n  //   require(Patient.senderIsPatient(patientId), \"Sender is not the patient\");\n  //   _;\n  // }\n\n  // msg.sender will be the patient\n  // function addPatient() public {\n    // require(patients[msg.sender].id != msg.sender, \"This patient already exists.\");\n\n    // Patient memory newPatient = Patient({\n    //   id: msg.sender\n    // });\n    // patients[msg.sender] = newPatient;\n\n    // emit PatientAdded(msg.sender);\n  // }\n\n  // msg.sender will be the doctor\n  // function addDoctor() public {\n  //   require(doctors[msg.sender].id != msg.sender, \"This doctor already exists.\");\n\n  //   Doctor memory newDoctor = Doctor({\n  //     id: msg.sender\n  //   });\n  //   doctors[msg.sender] = newDoctor;\n\n  //   emit DoctorAdded(msg.sender);\n  // }\n\n  // msg.sender will be the nurse\n  // function addNurse() public {\n  //   require(nurses[msg.sender].id != msg.sender, \"This nurse already exists.\");\n\n  //   Nurse memory newNurse = Nurse({\n  //     id: msg.sender\n  //   });\n  //   nurses[msg.sender] = newNurse;\n\n  //   emit NurseAdded(msg.sender);\n  // }\n\n\n\n  // patient calls the function\n  // function giveDoctorAccess(address doctorId) public \n  //   senderIsPatient(msg.sender) doctorIsNotPatient(msg.sender, doctorId) patientExists(msg.sender) doctorExists(doctorId) {\n  //   Patient storage p = patients[msg.sender];\n  //   Doctor memory d = doctors[doctorId];\n\n  //   p.doctorsWithAccess[doctorId] = d;\n  // }\n\n  // patient calls the function\n  // function giveNurseAccess(address nurseId) public \n  //   senderIsPatient(msg.sender) patientExists(msg.sender) nurseExists(nurseId) {\n  //   Patient storage p = patients[msg.sender];\n  //   Nurse memory n = nurses[nurseId];\n\n  //   p.nursesWithAccess[nurseId] = n;\n  // }\n\n  // patient calls the function\n  // function removeDoctorAccess(address doctorId) public \n  //   senderIsPatient(msg.sender) doctorIsNotPatient(msg.sender, doctorId) patientExists(msg.sender) doctorExists(doctorId) {\n  //   Patient storage p = patients[msg.sender];\n  //   delete p.doctorsWithAccess[doctorId];\n  // }\n\n  // patient calls the function\n  // function removeNurseAccess(address nurseId) public \n  //   senderIsPatient(msg.sender) patientExists(msg.sender) nurseExists(nurseId) {\n  //   Patient storage p = patients[msg.sender];\n  //   delete p.nursesWithAccess[nurseId];\n  // }\n\n}\n\n",
  "sourcePath": "/Users/seantan/Documents/Code/School/IS4302/project/contracts/medicalChain.sol",
  "compiler": {
    "name": "solc",
    "version": "0.5.17+commit.d19bba13.Emscripten.clang"
  },
  "schemaVersion": "3.4.11",
  "updatedAt": "2023-03-27T06:43:09.536Z",
  "devdoc": {
    "methods": {}
  },
  "userdoc": {
    "methods": {}
  }
}