{
  "contractName": "medicalChain",
  "abi": [
    {
      "inputs": [
        {
          "internalType": "contract Patient",
          "name": "patientAddress",
          "type": "address"
        },
        {
          "internalType": "contract Doctor",
          "name": "doctorAddress",
          "type": "address"
        },
        {
          "internalType": "contract Nurse",
          "name": "nurseAddress",
          "type": "address"
        },
        {
          "internalType": "contract EHR",
          "name": "ehrAddress",
          "type": "address"
        },
        {
          "internalType": "contract Researcher",
          "name": "researcherAddress",
          "type": "address"
        }
      ],
      "payable": false,
      "stateMutability": "nonpayable",
      "type": "constructor"
    },
    {
      "anonymous": false,
      "inputs": [],
      "name": "AcknowledgingRecord",
      "type": "event"
    },
    {
      "anonymous": false,
      "inputs": [],
      "name": "AddingEHR",
      "type": "event"
    },
    {
      "anonymous": false,
      "inputs": [
        {
          "indexed": false,
          "internalType": "address",
          "name": "doctorId",
          "type": "address"
        }
      ],
      "name": "DoctorAdded",
      "type": "event"
    },
    {
      "anonymous": false,
      "inputs": [],
      "name": "GettingApprovedPatients",
      "type": "event"
    },
    {
      "anonymous": false,
      "inputs": [],
      "name": "GivingDoctorAccess",
      "type": "event"
    },
    {
      "anonymous": false,
      "inputs": [],
      "name": "GivingNurseAccess",
      "type": "event"
    },
    {
      "anonymous": false,
      "inputs": [],
      "name": "GivingResearcherAccess",
      "type": "event"
    },
    {
      "anonymous": false,
      "inputs": [
        {
          "indexed": false,
          "internalType": "address",
          "name": "nurseId",
          "type": "address"
        }
      ],
      "name": "NurseAdded",
      "type": "event"
    },
    {
      "anonymous": false,
      "inputs": [
        {
          "indexed": false,
          "internalType": "address",
          "name": "patientId",
          "type": "address"
        }
      ],
      "name": "PatientAdded",
      "type": "event"
    },
    {
      "anonymous": false,
      "inputs": [],
      "name": "RemovingDoctorAccess",
      "type": "event"
    },
    {
      "anonymous": false,
      "inputs": [],
      "name": "RemovingNurseAccess",
      "type": "event"
    },
    {
      "anonymous": false,
      "inputs": [
        {
          "indexed": false,
          "internalType": "uint256",
          "name": "test",
          "type": "uint256"
        }
      ],
      "name": "testEvent",
      "type": "event"
    },
    {
      "constant": true,
      "inputs": [],
      "name": "getSenderRole",
      "outputs": [
        {
          "internalType": "string",
          "name": "",
          "type": "string"
        }
      ],
      "payable": false,
      "stateMutability": "view",
      "type": "function"
    },
    {
      "constant": false,
      "inputs": [
        {
          "internalType": "uint256",
          "name": "patientId",
          "type": "uint256"
        },
        {
          "internalType": "address",
          "name": "doctorAddress",
          "type": "address"
        }
      ],
      "name": "giveDoctorAccess",
      "outputs": [],
      "payable": false,
      "stateMutability": "nonpayable",
      "type": "function"
    },
    {
      "constant": false,
      "inputs": [
        {
          "internalType": "uint256",
          "name": "patientId",
          "type": "uint256"
        },
        {
          "internalType": "address",
          "name": "doctorAddress",
          "type": "address"
        }
      ],
      "name": "removeDoctorAccess",
      "outputs": [],
      "payable": false,
      "stateMutability": "nonpayable",
      "type": "function"
    },
    {
      "constant": false,
      "inputs": [
        {
          "internalType": "uint256",
          "name": "patientId",
          "type": "uint256"
        },
        {
          "internalType": "address",
          "name": "nurseAddress",
          "type": "address"
        }
      ],
      "name": "giveNurseAccess",
      "outputs": [],
      "payable": false,
      "stateMutability": "nonpayable",
      "type": "function"
    },
    {
      "constant": false,
      "inputs": [
        {
          "internalType": "uint256",
          "name": "patientId",
          "type": "uint256"
        },
        {
          "internalType": "address",
          "name": "nurseAddress",
          "type": "address"
        }
      ],
      "name": "removeNurseAccess",
      "outputs": [],
      "payable": false,
      "stateMutability": "nonpayable",
      "type": "function"
    },
    {
      "constant": false,
      "inputs": [
        {
          "internalType": "uint256",
          "name": "doctorId",
          "type": "uint256"
        },
        {
          "internalType": "uint256",
          "name": "patientId",
          "type": "uint256"
        }
      ],
      "name": "registerPatientWithDoctor",
      "outputs": [],
      "payable": false,
      "stateMutability": "nonpayable",
      "type": "function"
    },
    {
      "constant": false,
      "inputs": [
        {
          "internalType": "uint256",
          "name": "patientId",
          "type": "uint256"
        }
      ],
      "name": "giveResearcherAccess",
      "outputs": [],
      "payable": false,
      "stateMutability": "nonpayable",
      "type": "function"
    },
    {
      "constant": false,
      "inputs": [
        {
          "internalType": "uint256",
          "name": "test",
          "type": "uint256"
        }
      ],
      "name": "testingTest",
      "outputs": [],
      "payable": false,
      "stateMutability": "nonpayable",
      "type": "function"
    },
    {
      "constant": false,
      "inputs": [
        {
          "internalType": "enum EHR.RecordType",
          "name": "recordType",
          "type": "uint8"
        },
        {
          "internalType": "uint256",
          "name": "patientId",
          "type": "uint256"
        },
        {
          "internalType": "string",
          "name": "filename",
          "type": "string"
        }
      ],
      "name": "addNewEHR",
      "outputs": [
        {
          "internalType": "uint256",
          "name": "recordId",
          "type": "uint256"
        }
      ],
      "payable": true,
      "stateMutability": "payable",
      "type": "function"
    },
    {
      "constant": true,
      "inputs": [
        {
          "internalType": "uint256",
          "name": "recordId",
          "type": "uint256"
        }
      ],
      "name": "viewRecordByRecordID",
      "outputs": [
        {
          "internalType": "uint256",
          "name": "id",
          "type": "uint256"
        },
        {
          "internalType": "enum EHR.RecordType",
          "name": "recordType",
          "type": "uint8"
        },
        {
          "internalType": "string",
          "name": "fileName",
          "type": "string"
        },
        {
          "internalType": "address",
          "name": "patientAddress",
          "type": "address"
        },
        {
          "internalType": "address",
          "name": "doctorAddress",
          "type": "address"
        },
        {
          "internalType": "uint256",
          "name": "timeAdded",
          "type": "uint256"
        },
        {
          "internalType": "bool",
          "name": "patientSignedOff",
          "type": "bool"
        }
      ],
      "payable": false,
      "stateMutability": "view",
      "type": "function"
    },
    {
      "constant": false,
      "inputs": [
        {
          "internalType": "uint256",
          "name": "recordId",
          "type": "uint256"
        },
        {
          "internalType": "enum EHR.RecordType",
          "name": "recordType",
          "type": "uint8"
        },
        {
          "internalType": "string",
          "name": "fileName",
          "type": "string"
        }
      ],
      "name": "updateRecordByRecordID",
      "outputs": [],
      "payable": false,
      "stateMutability": "nonpayable",
      "type": "function"
    },
    {
      "constant": false,
      "inputs": [],
      "name": "viewApprovedPatients",
      "outputs": [
        {
          "internalType": "uint256[]",
          "name": "",
          "type": "uint256[]"
        }
      ],
      "payable": false,
      "stateMutability": "nonpayable",
      "type": "function"
    },
    {
      "constant": true,
      "inputs": [
        {
          "internalType": "uint256",
          "name": "patientID",
          "type": "uint256"
        }
      ],
      "name": "viewPatientByPatientID",
      "outputs": [
        {
          "internalType": "uint256",
          "name": "id",
          "type": "uint256"
        },
        {
          "internalType": "string",
          "name": "firstName",
          "type": "string"
        },
        {
          "internalType": "string",
          "name": "lastName",
          "type": "string"
        },
        {
          "internalType": "string",
          "name": "emailAddress",
          "type": "string"
        },
        {
          "internalType": "string",
          "name": "dob",
          "type": "string"
        }
      ],
      "payable": false,
      "stateMutability": "view",
      "type": "function"
    },
    {
      "constant": true,
      "inputs": [
        {
          "internalType": "uint256",
          "name": "patientId",
          "type": "uint256"
        }
      ],
      "name": "viewAllRecords",
      "outputs": [
        {
          "internalType": "uint256[]",
          "name": "",
          "type": "uint256[]"
        }
      ],
      "payable": false,
      "stateMutability": "view",
      "type": "function"
    },
    {
      "constant": true,
      "inputs": [
        {
          "internalType": "uint256",
          "name": "patientId",
          "type": "uint256"
        },
        {
          "internalType": "enum EHR.RecordType",
          "name": "recordType",
          "type": "uint8"
        }
      ],
      "name": "filterRecordsByRecordType",
      "outputs": [
        {
          "internalType": "uint256[]",
          "name": "",
          "type": "uint256[]"
        }
      ],
      "payable": false,
      "stateMutability": "view",
      "type": "function"
    },
    {
      "constant": true,
      "inputs": [
        {
          "internalType": "uint256",
          "name": "patientId",
          "type": "uint256"
        },
        {
          "internalType": "enum EHR.RecordType",
          "name": "recordType",
          "type": "uint8"
        }
      ],
      "name": "numberOfRecordType",
      "outputs": [
        {
          "internalType": "uint256",
          "name": "",
          "type": "uint256"
        }
      ],
      "payable": false,
      "stateMutability": "view",
      "type": "function"
    },
    {
      "constant": false,
      "inputs": [
        {
          "internalType": "uint256",
          "name": "patientId",
          "type": "uint256"
        }
      ],
      "name": "filterRecordsByPatient",
      "outputs": [
        {
          "internalType": "uint256[]",
          "name": "",
          "type": "uint256[]"
        }
      ],
      "payable": false,
      "stateMutability": "nonpayable",
      "type": "function"
    },
    {
      "constant": false,
      "inputs": [
        {
          "internalType": "uint256",
          "name": "practitionerId",
          "type": "uint256"
        }
      ],
      "name": "filterRecordsByPractitioner",
      "outputs": [
        {
          "internalType": "uint256[]",
          "name": "",
          "type": "uint256[]"
        }
      ],
      "payable": false,
      "stateMutability": "nonpayable",
      "type": "function"
    },
    {
      "constant": false,
      "inputs": [
        {
          "internalType": "uint256",
          "name": "recordId",
          "type": "uint256"
        }
      ],
      "name": "patientAcknowledgeRecord",
      "outputs": [],
      "payable": false,
      "stateMutability": "nonpayable",
      "type": "function"
    }
  ],
  "bytecode": "0x608060405234801561001057600080fd5b50604051620055c1380380620055c1833981810160405260a081101561003557600080fd5b810190808051906020019092919080519060200190929190805190602001909291908051906020019092919080519060200190929190505050846000806101000a81548173ffffffffffffffffffffffffffffffffffffffff021916908373ffffffffffffffffffffffffffffffffffffffff16021790555083600160006101000a81548173ffffffffffffffffffffffffffffffffffffffff021916908373ffffffffffffffffffffffffffffffffffffffff16021790555082600260006101000a81548173ffffffffffffffffffffffffffffffffffffffff021916908373ffffffffffffffffffffffffffffffffffffffff16021790555081600360006101000a81548173ffffffffffffffffffffffffffffffffffffffff021916908373ffffffffffffffffffffffffffffffffffffffff16021790555080600460006101000a81548173ffffffffffffffffffffffffffffffffffffffff021916908373ffffffffffffffffffffffffffffffffffffffff16021790555050505050506153fa80620001c76000396000f3fe6080604052600436106101145760003560e01c8063a0c91b24116100a0578063bc3ee00711610064578063bc3ee00714610a55578063bcf5e84914610ae5578063d87ce24214610b2a578063dc34c4c314610b85578063ef84f4f114610bc057610114565b8063a0c91b2414610701578063a7d4ce4c1461073c578063ae666027146107cc578063bb4182c314610914578063bbbeaccc1461096f57610114565b80635470e804116100e75780635470e8041461031e578063614a47f314610379578063685e9025146104165780637a2c3d7e14610615578063942377191461067157610114565b8063067be5dc146101195780631808357c14610174578063303c9672146102535780633a88162e1461028e575b600080fd5b34801561012557600080fd5b506101726004803603604081101561013c57600080fd5b8101908080359060200190929190803573ffffffffffffffffffffffffffffffffffffffff169060200190929190505050610c2c565b005b34801561018057600080fd5b506102516004803603606081101561019757600080fd5b8101908080359060200190929190803560ff169060200190929190803590602001906401000000008111156101cb57600080fd5b8201836020820111156101dd57600080fd5b803590602001918460018302840111640100000000831117156101ff57600080fd5b91908080601f016020809104026020016040519081016040528093929190818152602001838380828437600081840152601f19601f820116905080830192505050505050509192919290505050610d1c565b005b34801561025f57600080fd5b5061028c6004803603602081101561027657600080fd5b810190808035906020019092919050505061153b565b005b34801561029a57600080fd5b506102a36115f6565b6040518080602001828103825283818151815260200191508051906020019080838360005b838110156102e35780820151818401526020810190506102c8565b50505050905090810190601f1680156103105780820380516001836020036101000a031916815260200191505b509250505060405180910390f35b34801561032a57600080fd5b506103776004803603604081101561034157600080fd5b8101908080359060200190929190803573ffffffffffffffffffffffffffffffffffffffff169060200190929190505050611aa3565b005b34801561038557600080fd5b506103bf6004803603604081101561039c57600080fd5b8101908080359060200190929190803560ff169060200190929190505050611b93565b6040518080602001828103825283818151815260200191508051906020019060200280838360005b838110156104025780820151818401526020810190506103e7565b505050509050019250505060405180910390f35b34801561042257600080fd5b5061044f6004803603602081101561043957600080fd5b8101908080359060200190929190505050612025565b6040518086815260200180602001806020018060200180602001858103855289818151815260200191508051906020019080838360005b838110156104a1578082015181840152602081019050610486565b50505050905090810190601f1680156104ce5780820380516001836020036101000a031916815260200191505b50858103845288818151815260200191508051906020019080838360005b838110156105075780820151818401526020810190506104ec565b50505050905090810190601f1680156105345780820380516001836020036101000a031916815260200191505b50858103835287818151815260200191508051906020019080838360005b8381101561056d578082015181840152602081019050610552565b50505050905090810190601f16801561059a5780820380516001836020036101000a031916815260200191505b50858103825286818151815260200191508051906020019080838360005b838110156105d35780820151818401526020810190506105b8565b50505050905090810190601f1680156106005780820380516001836020036101000a031916815260200191505b50995050505050505050505060405180910390f35b34801561062157600080fd5b5061065b6004803603604081101561063857600080fd5b8101908080359060200190929190803560ff1690602001909291905050506125a8565b6040518082815260200191505060405180910390f35b34801561067d57600080fd5b506106aa6004803603602081101561069457600080fd5b81019080803590602001909291905050506129dd565b6040518080602001828103825283818151815260200191508051906020019060200280838360005b838110156106ed5780820151818401526020810190506106d2565b505050509050019250505060405180910390f35b34801561070d57600080fd5b5061073a6004803603602081101561072457600080fd5b8101908080359060200190929190505050612fb5565b005b34801561074857600080fd5b506107756004803603602081101561075f57600080fd5b8101908080359060200190929190505050612fef565b6040518080602001828103825283818151815260200191508051906020019060200280838360005b838110156107b857808201518184015260208101905061079d565b505050509050019250505060405180910390f35b3480156107d857600080fd5b50610805600480360360208110156107ef57600080fd5b8101908080359060200190929190505050613393565b6040518088815260200187600781111561081b57fe5b60ff168152602001806020018673ffffffffffffffffffffffffffffffffffffffff1673ffffffffffffffffffffffffffffffffffffffff1681526020018573ffffffffffffffffffffffffffffffffffffffff1673ffffffffffffffffffffffffffffffffffffffff16815260200184815260200183151515158152602001828103825287818151815260200191508051906020019080838360005b838110156108d35780820151818401526020810190506108b8565b50505050905090810190601f1680156109005780820380516001836020036101000a031916815260200191505b509850505050505050505060405180910390f35b34801561092057600080fd5b5061096d6004803603604081101561093757600080fd5b8101908080359060200190929190803573ffffffffffffffffffffffffffffffffffffffff169060200190929190505050613c6c565b005b610a3f6004803603606081101561098557600080fd5b81019080803560ff16906020019092919080359060200190929190803590602001906401000000008111156109b957600080fd5b8201836020820111156109cb57600080fd5b803590602001918460018302840111640100000000831117156109ed57600080fd5b91908080601f016020809104026020016040519081016040528093929190818152602001838380828437600081840152601f19601f820116905080830192505050505050509192919290505050613d5c565b6040518082815260200191505060405180910390f35b348015610a6157600080fd5b50610a8e60048036036020811015610a7857600080fd5b81019080803590602001909291905050506148b9565b6040518080602001828103825283818151815260200191508051906020019060200280838360005b83811015610ad1578082015181840152602081019050610ab6565b505050509050019250505060405180910390f35b348015610af157600080fd5b50610b2860048036036040811015610b0857600080fd5b810190808035906020019092919080359060200190929190505050614c5a565b005b348015610b3657600080fd5b50610b8360048036036040811015610b4d57600080fd5b8101908080359060200190929190803573ffffffffffffffffffffffffffffffffffffffff169060200190929190505050614cf3565b005b348015610b9157600080fd5b50610bbe60048036036020811015610ba857600080fd5b8101908080359060200190929190505050614de3565b005b348015610bcc57600080fd5b50610bd5614f84565b6040518080602001828103825283818151815260200191508051906020019060200280838360005b83811015610c18578082015181840152602081019050610bfd565b505050509050019250505060405180910390f35b7fa85f577a4037d83ececf685e851e35a4e56611e8fcee1c571d2e1fb91359c53960405160405180910390a16000809054906101000a900473ffffffffffffffffffffffffffffffffffffffff1673ffffffffffffffffffffffffffffffffffffffff1663067be5dc83836040518363ffffffff1660e01b8152600401808381526020018273ffffffffffffffffffffffffffffffffffffffff1673ffffffffffffffffffffffffffffffffffffffff16815260200192505050600060405180830381600087803b158015610d0057600080fd5b505af1158015610d14573d6000803e3d6000fd5b505050505050565b826060610d276115f6565b905060405160200180807f646f63746f720000000000000000000000000000000000000000000000000000815250600601905060405160208183030381529060405280519060200120816040516020018082805190602001908083835b60208310610da75780518252602082019150602081019050602083039250610d84565b6001836020036101000a0380198251168184511680821785525050505050509050019150506040516020818303038152906040528051906020012014156110a8576000809054906101000a900473ffffffffffffffffffffffffffffffffffffffff1673ffffffffffffffffffffffffffffffffffffffff1663b01df3516000809054906101000a900473ffffffffffffffffffffffffffffffffffffffff1673ffffffffffffffffffffffffffffffffffffffff1663a3005b49600360009054906101000a900473ffffffffffffffffffffffffffffffffffffffff1673ffffffffffffffffffffffffffffffffffffffff1663097ee8cd876040518263ffffffff1660e01b81526004018082815260200191505060206040518083038186803b158015610ed557600080fd5b505afa158015610ee9573d6000803e3d6000fd5b505050506040513d6020811015610eff57600080fd5b81019080805190602001909291905050506040518263ffffffff1660e01b8152600401808273ffffffffffffffffffffffffffffffffffffffff1673ffffffffffffffffffffffffffffffffffffffff16815260200191505060206040518083038186803b158015610f7057600080fd5b505afa158015610f84573d6000803e3d6000fd5b505050506040513d6020811015610f9a57600080fd5b8101908080519060200190929190505050336040518363ffffffff1660e01b8152600401808381526020018273ffffffffffffffffffffffffffffffffffffffff1673ffffffffffffffffffffffffffffffffffffffff1681526020019250505060206040518083038186803b15801561101357600080fd5b505afa158015611027573d6000803e3d6000fd5b505050506040513d602081101561103d57600080fd5b81019080805190602001909291905050506110a3576040517f08c379a00000000000000000000000000000000000000000000000000000000081526004018080602001828103825260588152602001806152046058913960600191505060405180910390fd5b611424565b60405160200180807f6e75727365000000000000000000000000000000000000000000000000000000815250600501905060405160208183030381529060405280519060200120816040516020018082805190602001908083835b602083106111265780518252602082019150602081019050602083039250611103565b6001836020036101000a038019825116818451168082178552505050505050905001915050604051602081830303815290604052805190602001201415611423576000809054906101000a900473ffffffffffffffffffffffffffffffffffffffff1673ffffffffffffffffffffffffffffffffffffffff1663c412e7ba6000809054906101000a900473ffffffffffffffffffffffffffffffffffffffff1673ffffffffffffffffffffffffffffffffffffffff1663a3005b49600360009054906101000a900473ffffffffffffffffffffffffffffffffffffffff1673ffffffffffffffffffffffffffffffffffffffff1663097ee8cd876040518263ffffffff1660e01b81526004018082815260200191505060206040518083038186803b15801561125457600080fd5b505afa158015611268573d6000803e3d6000fd5b505050506040513d602081101561127e57600080fd5b81019080805190602001909291905050506040518263ffffffff1660e01b8152600401808273ffffffffffffffffffffffffffffffffffffffff1673ffffffffffffffffffffffffffffffffffffffff16815260200191505060206040518083038186803b1580156112ef57600080fd5b505afa158015611303573d6000803e3d6000fd5b505050506040513d602081101561131957600080fd5b8101908080519060200190929190505050336040518363ffffffff1660e01b8152600401808381526020018273ffffffffffffffffffffffffffffffffffffffff1673ffffffffffffffffffffffffffffffffffffffff1681526020019250505060206040518083038186803b15801561139257600080fd5b505afa1580156113a6573d6000803e3d6000fd5b505050506040513d60208110156113bc57600080fd5b8101908080519060200190929190505050611422576040517f08c379a000000000000000000000000000000000000000000000000000000000815260040180806020018281038252605681526020018061525c6056913960600191505060405180910390fd5b5b5b600360009054906101000a900473ffffffffffffffffffffffffffffffffffffffff1673ffffffffffffffffffffffffffffffffffffffff16636a5cb5d88686866040518463ffffffff1660e01b81526004018084815260200183600781111561148a57fe5b60ff16815260200180602001828103825283818151815260200191508051906020019080838360005b838110156114ce5780820151818401526020810190506114b3565b50505050905090810190601f1680156114fb5780820380516001836020036101000a031916815260200191505b50945050505050600060405180830381600087803b15801561151c57600080fd5b505af1158015611530573d6000803e3d6000fd5b505050505050505050565b7fa2a84ba412bea53801a40b8bbb06e1e17f397fe84c7f93e85308f060e8252dda60405160405180910390a16000809054906101000a900473ffffffffffffffffffffffffffffffffffffffff1673ffffffffffffffffffffffffffffffffffffffff1663303c9672826040518263ffffffff1660e01b815260040180828152602001915050600060405180830381600087803b1580156115db57600080fd5b505af11580156115ef573d6000803e3d6000fd5b5050505050565b6060600160009054906101000a900473ffffffffffffffffffffffffffffffffffffffff1673ffffffffffffffffffffffffffffffffffffffff1663e3843463336040518263ffffffff1660e01b8152600401808273ffffffffffffffffffffffffffffffffffffffff1673ffffffffffffffffffffffffffffffffffffffff16815260200191505060206040518083038186803b15801561169757600080fd5b505afa1580156116ab573d6000803e3d6000fd5b505050506040513d60208110156116c157600080fd5b810190808051906020019092919050505015611714576040518060400160405280600681526020017f646f63746f7200000000000000000000000000000000000000000000000000008152509050611aa0565b6000809054906101000a900473ffffffffffffffffffffffffffffffffffffffff1673ffffffffffffffffffffffffffffffffffffffff1663e3843463336040518263ffffffff1660e01b8152600401808273ffffffffffffffffffffffffffffffffffffffff1673ffffffffffffffffffffffffffffffffffffffff16815260200191505060206040518083038186803b1580156117b257600080fd5b505afa1580156117c6573d6000803e3d6000fd5b505050506040513d60208110156117dc57600080fd5b81019080805190602001909291905050501561182f576040518060400160405280600781526020017f70617469656e74000000000000000000000000000000000000000000000000008152509050611aa0565b600260009054906101000a900473ffffffffffffffffffffffffffffffffffffffff1673ffffffffffffffffffffffffffffffffffffffff1663e3843463336040518263ffffffff1660e01b8152600401808273ffffffffffffffffffffffffffffffffffffffff1673ffffffffffffffffffffffffffffffffffffffff16815260200191505060206040518083038186803b1580156118ce57600080fd5b505afa1580156118e2573d6000803e3d6000fd5b505050506040513d60208110156118f857600080fd5b81019080805190602001909291905050501561194b576040518060400160405280600581526020017f6e757273650000000000000000000000000000000000000000000000000000008152509050611aa0565b600460009054906101000a900473ffffffffffffffffffffffffffffffffffffffff1673ffffffffffffffffffffffffffffffffffffffff1663e3843463336040518263ffffffff1660e01b8152600401808273ffffffffffffffffffffffffffffffffffffffff1673ffffffffffffffffffffffffffffffffffffffff16815260200191505060206040518083038186803b1580156119ea57600080fd5b505afa1580156119fe573d6000803e3d6000fd5b505050506040513d6020811015611a1457600080fd5b810190808051906020019092919050505015611a67576040518060400160405280600a81526020017f72657365617263686572000000000000000000000000000000000000000000008152509050611aa0565b6040518060400160405280600781526020017f756e6b6e6f776e0000000000000000000000000000000000000000000000000081525090505b90565b7f29bbef1b7f83e9b51d408e3ac98f6645d3164c664af051f9d539cde923e86a1c60405160405180910390a16000809054906101000a900473ffffffffffffffffffffffffffffffffffffffff1673ffffffffffffffffffffffffffffffffffffffff16635470e80483836040518363ffffffff1660e01b8152600401808381526020018273ffffffffffffffffffffffffffffffffffffffff1673ffffffffffffffffffffffffffffffffffffffff16815260200192505050600060405180830381600087803b158015611b7757600080fd5b505af1158015611b8b573d6000803e3d6000fd5b505050505050565b6060600115156000809054906101000a900473ffffffffffffffffffffffffffffffffffffffff1673ffffffffffffffffffffffffffffffffffffffff1663e3843463336040518263ffffffff1660e01b8152600401808273ffffffffffffffffffffffffffffffffffffffff1673ffffffffffffffffffffffffffffffffffffffff16815260200191505060206040518083038186803b158015611c3757600080fd5b505afa158015611c4b573d6000803e3d6000fd5b505050506040513d6020811015611c6157600080fd5b8101908080519060200190929190505050151514611cca576040517f08c379a00000000000000000000000000000000000000000000000000000000081526004018080602001828103825260288152602001806152b26028913960400191505060405180910390fd5b82600115156000809054906101000a900473ffffffffffffffffffffffffffffffffffffffff1673ffffffffffffffffffffffffffffffffffffffff16634b654378836040518263ffffffff1660e01b81526004018082815260200191505060206040518083038186803b158015611d4157600080fd5b505afa158015611d55573d6000803e3d6000fd5b505050506040513d6020811015611d6b57600080fd5b8101908080519060200190929190505050151514611df1576040517f08c379a000000000000000000000000000000000000000000000000000000000815260040180806020018281038252601d8152602001807f50617469656e7420494420676976656e206973206e6f742076616c696400000081525060200191505060405180910390fd5b6060611dfc856129dd565b905060008060009054906101000a900473ffffffffffffffffffffffffffffffffffffffff1673ffffffffffffffffffffffffffffffffffffffff1663416939d3876040518263ffffffff1660e01b81526004018082815260200191505060206040518083038186803b158015611e7257600080fd5b505afa158015611e86573d6000803e3d6000fd5b505050506040513d6020811015611e9c57600080fd5b810190808051906020019092919050505090506000611ebb87876125a8565b9050606081604051908082528060200260200182016040528015611eee5781602001602082028038833980820191505090505b509050600080905060008090505b84811015612015576000868281518110611f1257fe5b60200260200101519050600360009054906101000a900473ffffffffffffffffffffffffffffffffffffffff1673ffffffffffffffffffffffffffffffffffffffff1663fc60b121828c6040518363ffffffff1660e01b815260040180838152602001826007811115611f8157fe5b60ff1681526020019250505060206040518083038186803b158015611fa557600080fd5b505afa158015611fb9573d6000803e3d6000fd5b505050506040513d6020811015611fcf57600080fd5b8101908080519060200190929190505050156120075780848481518110611ff257fe5b60200260200101818152505082806001019350505b508080600101915050611efc565b5081965050505050505092915050565b600060608060608060405160200180807f7265736561726368657200000000000000000000000000000000000000000000815250600a0190506040516020818303038152906040528051906020012061207c6115f6565b6040516020018082805190602001908083835b602083106120b2578051825260208201915060208101905060208303925061208f565b6001836020036101000a03801982511681845116808217855250505050505090500191505060405160208183030381529060405280519060200120146120f757600080fd5b856000809054906101000a900473ffffffffffffffffffffffffffffffffffffffff1673ffffffffffffffffffffffffffffffffffffffff1663834fa06e826040518263ffffffff1660e01b81526004018082815260200191505060206040518083038186803b15801561216a57600080fd5b505afa15801561217e573d6000803e3d6000fd5b505050506040513d602081101561219457600080fd5b81019080805190602001909291905050506121fa576040517f08c379a00000000000000000000000000000000000000000000000000000000081526004018080602001828103825260338152602001806153936033913960400191505060405180910390fd5b6000809054906101000a900473ffffffffffffffffffffffffffffffffffffffff1673ffffffffffffffffffffffffffffffffffffffff16630178fe3f886040518263ffffffff1660e01b81526004018082815260200191505060006040518083038186803b15801561226c57600080fd5b505afa158015612280573d6000803e3d6000fd5b505050506040513d6000823e3d601f19601f8201168201806040525060a08110156122aa57600080fd5b8101908080519060200190929190805160405193929190846401000000008211156122d457600080fd5b838201915060208201858111156122ea57600080fd5b825186600182028301116401000000008211171561230757600080fd5b8083526020830192505050908051906020019080838360005b8381101561233b578082015181840152602081019050612320565b50505050905090810190601f1680156123685780820380516001836020036101000a031916815260200191505b506040526020018051604051939291908464010000000082111561238b57600080fd5b838201915060208201858111156123a157600080fd5b82518660018202830111640100000000821117156123be57600080fd5b8083526020830192505050908051906020019080838360005b838110156123f25780820151818401526020810190506123d7565b50505050905090810190601f16801561241f5780820380516001836020036101000a031916815260200191505b506040526020018051604051939291908464010000000082111561244257600080fd5b8382019150602082018581111561245857600080fd5b825186600182028301116401000000008211171561247557600080fd5b8083526020830192505050908051906020019080838360005b838110156124a957808201518184015260208101905061248e565b50505050905090810190601f1680156124d65780820380516001836020036101000a031916815260200191505b50604052602001805160405193929190846401000000008211156124f957600080fd5b8382019150602082018581111561250f57600080fd5b825186600182028301116401000000008211171561252c57600080fd5b8083526020830192505050908051906020019080838360005b83811015612560578082015181840152602081019050612545565b50505050905090810190601f16801561258d5780820380516001836020036101000a031916815260200191505b50604052505050955095509550955095505091939590929450565b6000600115156000809054906101000a900473ffffffffffffffffffffffffffffffffffffffff1673ffffffffffffffffffffffffffffffffffffffff1663e3843463336040518263ffffffff1660e01b8152600401808273ffffffffffffffffffffffffffffffffffffffff1673ffffffffffffffffffffffffffffffffffffffff16815260200191505060206040518083038186803b15801561264c57600080fd5b505afa158015612660573d6000803e3d6000fd5b505050506040513d602081101561267657600080fd5b81019080805190602001909291905050501515146126df576040517f08c379a00000000000000000000000000000000000000000000000000000000081526004018080602001828103825260288152602001806152b26028913960400191505060405180910390fd5b82600115156000809054906101000a900473ffffffffffffffffffffffffffffffffffffffff1673ffffffffffffffffffffffffffffffffffffffff16634b654378836040518263ffffffff1660e01b81526004018082815260200191505060206040518083038186803b15801561275657600080fd5b505afa15801561276a573d6000803e3d6000fd5b505050506040513d602081101561278057600080fd5b8101908080519060200190929190505050151514612806576040517f08c379a000000000000000000000000000000000000000000000000000000000815260040180806020018281038252601d8152602001807f50617469656e7420494420676976656e206973206e6f742076616c696400000081525060200191505060405180910390fd5b6060612811856129dd565b905060008060009054906101000a900473ffffffffffffffffffffffffffffffffffffffff1673ffffffffffffffffffffffffffffffffffffffff1663416939d3876040518263ffffffff1660e01b81526004018082815260200191505060206040518083038186803b15801561288757600080fd5b505afa15801561289b573d6000803e3d6000fd5b505050506040513d60208110156128b157600080fd5b81019080805190602001909291905050509050600080905060008090505b828110156129cf5760008482815181106128e557fe5b60200260200101519050600360009054906101000a900473ffffffffffffffffffffffffffffffffffffffff1673ffffffffffffffffffffffffffffffffffffffff1663fc60b121828a6040518363ffffffff1660e01b81526004018083815260200182600781111561295457fe5b60ff1681526020019250505060206040518083038186803b15801561297857600080fd5b505afa15801561298c573d6000803e3d6000fd5b505050506040513d60208110156129a257600080fd5b8101908080519060200190929190505050156129c15782806001019350505b5080806001019150506128cf565b508094505050505092915050565b6060600115156000809054906101000a900473ffffffffffffffffffffffffffffffffffffffff1673ffffffffffffffffffffffffffffffffffffffff1663e3843463336040518263ffffffff1660e01b8152600401808273ffffffffffffffffffffffffffffffffffffffff1673ffffffffffffffffffffffffffffffffffffffff16815260200191505060206040518083038186803b158015612a8157600080fd5b505afa158015612a95573d6000803e3d6000fd5b505050506040513d6020811015612aab57600080fd5b8101908080519060200190929190505050151514612b14576040517f08c379a00000000000000000000000000000000000000000000000000000000081526004018080602001828103825260288152602001806152b26028913960400191505060405180910390fd5b81600115156000809054906101000a900473ffffffffffffffffffffffffffffffffffffffff1673ffffffffffffffffffffffffffffffffffffffff16634b654378836040518263ffffffff1660e01b81526004018082815260200191505060206040518083038186803b158015612b8b57600080fd5b505afa158015612b9f573d6000803e3d6000fd5b505050506040513d6020811015612bb557600080fd5b8101908080519060200190929190505050151514612c3b576040517f08c379a000000000000000000000000000000000000000000000000000000000815260040180806020018281038252601d8152602001807f50617469656e7420494420676976656e206973206e6f742076616c696400000081525060200191505060405180910390fd5b60008060009054906101000a900473ffffffffffffffffffffffffffffffffffffffff1673ffffffffffffffffffffffffffffffffffffffff1663416939d3856040518263ffffffff1660e01b81526004018082815260200191505060206040518083038186803b158015612caf57600080fd5b505afa158015612cc3573d6000803e3d6000fd5b505050506040513d6020811015612cd957600080fd5b81019080805190602001909291905050509050606081604051908082528060200260200182016040528015612d1d5781602001602082028038833980820191505090505b509050600080905060008090505b600360009054906101000a900473ffffffffffffffffffffffffffffffffffffffff1673ffffffffffffffffffffffffffffffffffffffff16637988d0566040518163ffffffff1660e01b815260040160206040518083038186803b158015612d9357600080fd5b505afa158015612da7573d6000803e3d6000fd5b505050506040513d6020811015612dbd57600080fd5b8101908080519060200190929190505050811015612fa857600360009054906101000a900473ffffffffffffffffffffffffffffffffffffffff1673ffffffffffffffffffffffffffffffffffffffff16630224ad4482336040518363ffffffff1660e01b8152600401808381526020018273ffffffffffffffffffffffffffffffffffffffff1673ffffffffffffffffffffffffffffffffffffffff1681526020019250505060206040518083038186803b158015612e7c57600080fd5b505afa158015612e90573d6000803e3d6000fd5b505050506040513d6020811015612ea657600080fd5b81019080805190602001909291905050508015612f7457506000809054906101000a900473ffffffffffffffffffffffffffffffffffffffff1673ffffffffffffffffffffffffffffffffffffffff1663a533e1f888836040518363ffffffff1660e01b8152600401808381526020018281526020019250505060206040518083038186803b158015612f3857600080fd5b505afa158015612f4c573d6000803e3d6000fd5b505050506040513d6020811015612f6257600080fd5b81019080805190602001909291905050505b15612f9b5780838381518110612f8657fe5b60200260200101818152505081806001019250505b8080600101915050612d2b565b5081945050505050919050565b7fdcd9c7fa0342f01013bd0bf2bec103a81936162dcebd1f0c38b1d4164c17e0fc816040518082815260200191505060405180910390a150565b6060600115156000809054906101000a900473ffffffffffffffffffffffffffffffffffffffff1673ffffffffffffffffffffffffffffffffffffffff1663e3843463336040518263ffffffff1660e01b8152600401808273ffffffffffffffffffffffffffffffffffffffff1673ffffffffffffffffffffffffffffffffffffffff16815260200191505060206040518083038186803b15801561309357600080fd5b505afa1580156130a7573d6000803e3d6000fd5b505050506040513d60208110156130bd57600080fd5b8101908080519060200190929190505050151514613126576040517f08c379a00000000000000000000000000000000000000000000000000000000081526004018080602001828103825260288152602001806152b26028913960400191505060405180910390fd5b6006600061313491906151bd565b60008090505b60058054905081101561333a5760006005828154811061315657fe5b906000526020600020015490506000600360009054906101000a900473ffffffffffffffffffffffffffffffffffffffff1673ffffffffffffffffffffffffffffffffffffffff1663834b5d47836040518263ffffffff1660e01b81526004018082815260200191505060206040518083038186803b1580156131d857600080fd5b505afa1580156131ec573d6000803e3d6000fd5b505050506040513d602081101561320257600080fd5b810190808051906020019092919050505090506000600160009054906101000a900473ffffffffffffffffffffffffffffffffffffffff1673ffffffffffffffffffffffffffffffffffffffff1663632b7bf0836040518263ffffffff1660e01b8152600401808273ffffffffffffffffffffffffffffffffffffffff1673ffffffffffffffffffffffffffffffffffffffff168152602001915050602060405180830381600087803b1580156132b857600080fd5b505af11580156132cc573d6000803e3d6000fd5b505050506040513d60208110156132e257600080fd5b810190808051906020019092919050505090508581141561332a5760068390806001815401808255809150509060018203906000526020600020016000909192909190915055505b505050808060010191505061313a565b50600680548060200260200160405190810160405280929190818152602001828054801561338757602002820191906000526020600020905b815481526020019060010190808311613373575b50505050509050919050565b60008060606000806000808760606133a96115f6565b905060405160200180807f646f63746f720000000000000000000000000000000000000000000000000000815250600601905060405160208183030381529060405280519060200120816040516020018082805190602001908083835b602083106134295780518252602082019150602081019050602083039250613406565b6001836020036101000a03801982511681845116808217855250505050505090500191505060405160208183030381529060405280519060200120141561372a576000809054906101000a900473ffffffffffffffffffffffffffffffffffffffff1673ffffffffffffffffffffffffffffffffffffffff1663b01df3516000809054906101000a900473ffffffffffffffffffffffffffffffffffffffff1673ffffffffffffffffffffffffffffffffffffffff1663a3005b49600360009054906101000a900473ffffffffffffffffffffffffffffffffffffffff1673ffffffffffffffffffffffffffffffffffffffff1663097ee8cd876040518263ffffffff1660e01b81526004018082815260200191505060206040518083038186803b15801561355757600080fd5b505afa15801561356b573d6000803e3d6000fd5b505050506040513d602081101561358157600080fd5b81019080805190602001909291905050506040518263ffffffff1660e01b8152600401808273ffffffffffffffffffffffffffffffffffffffff1673ffffffffffffffffffffffffffffffffffffffff16815260200191505060206040518083038186803b1580156135f257600080fd5b505afa158015613606573d6000803e3d6000fd5b505050506040513d602081101561361c57600080fd5b8101908080519060200190929190505050336040518363ffffffff1660e01b8152600401808381526020018273ffffffffffffffffffffffffffffffffffffffff1673ffffffffffffffffffffffffffffffffffffffff1681526020019250505060206040518083038186803b15801561369557600080fd5b505afa1580156136a9573d6000803e3d6000fd5b505050506040513d60208110156136bf57600080fd5b8101908080519060200190929190505050613725576040517f08c379a00000000000000000000000000000000000000000000000000000000081526004018080602001828103825260588152602001806152046058913960600191505060405180910390fd5b613aa6565b60405160200180807f6e75727365000000000000000000000000000000000000000000000000000000815250600501905060405160208183030381529060405280519060200120816040516020018082805190602001908083835b602083106137a85780518252602082019150602081019050602083039250613785565b6001836020036101000a038019825116818451168082178552505050505050905001915050604051602081830303815290604052805190602001201415613aa5576000809054906101000a900473ffffffffffffffffffffffffffffffffffffffff1673ffffffffffffffffffffffffffffffffffffffff1663c412e7ba6000809054906101000a900473ffffffffffffffffffffffffffffffffffffffff1673ffffffffffffffffffffffffffffffffffffffff1663a3005b49600360009054906101000a900473ffffffffffffffffffffffffffffffffffffffff1673ffffffffffffffffffffffffffffffffffffffff1663097ee8cd876040518263ffffffff1660e01b81526004018082815260200191505060206040518083038186803b1580156138d657600080fd5b505afa1580156138ea573d6000803e3d6000fd5b505050506040513d602081101561390057600080fd5b81019080805190602001909291905050506040518263ffffffff1660e01b8152600401808273ffffffffffffffffffffffffffffffffffffffff1673ffffffffffffffffffffffffffffffffffffffff16815260200191505060206040518083038186803b15801561397157600080fd5b505afa158015613985573d6000803e3d6000fd5b505050506040513d602081101561399b57600080fd5b8101908080519060200190929190505050336040518363ffffffff1660e01b8152600401808381526020018273ffffffffffffffffffffffffffffffffffffffff1673ffffffffffffffffffffffffffffffffffffffff1681526020019250505060206040518083038186803b158015613a1457600080fd5b505afa158015613a28573d6000803e3d6000fd5b505050506040513d6020811015613a3e57600080fd5b8101908080519060200190929190505050613aa4576040517f08c379a000000000000000000000000000000000000000000000000000000000815260040180806020018281038252605681526020018061525c6056913960600191505060405180910390fd5b5b5b600360009054906101000a900473ffffffffffffffffffffffffffffffffffffffff1673ffffffffffffffffffffffffffffffffffffffff166303e9e6098b6040518263ffffffff1660e01b81526004018082815260200191505060006040518083038186803b158015613b1957600080fd5b505afa158015613b2d573d6000803e3d6000fd5b505050506040513d6000823e3d601f19601f8201168201806040525060e0811015613b5757600080fd5b81019080805190602001909291908051906020019092919080516040519392919084640100000000821115613b8b57600080fd5b83820191506020820185811115613ba157600080fd5b8251866001820283011164010000000082111715613bbe57600080fd5b8083526020830192505050908051906020019080838360005b83811015613bf2578082015181840152602081019050613bd7565b50505050905090810190601f168015613c1f5780820380516001836020036101000a031916815260200191505b506040526020018051906020019092919080519060200190929190805190602001909291908051906020019092919050505098509850985098509850985098505050919395979092949650565b7f3cd5c35cdbdbab148903c80d8ffcfc65e2978e15cff0b07bfd36b59e6d6bb8f960405160405180910390a16000809054906101000a900473ffffffffffffffffffffffffffffffffffffffff1673ffffffffffffffffffffffffffffffffffffffff1663bb4182c383836040518363ffffffff1660e01b8152600401808381526020018273ffffffffffffffffffffffffffffffffffffffff1673ffffffffffffffffffffffffffffffffffffffff16815260200192505050600060405180830381600087803b158015613d4057600080fd5b505af1158015613d54573d6000803e3d6000fd5b505050505050565b6000826060613d696115f6565b905060405160200180807f646f63746f720000000000000000000000000000000000000000000000000000815250600601905060405160208183030381529060405280519060200120816040516020018082805190602001908083835b60208310613de95780518252602082019150602081019050602083039250613dc6565b6001836020036101000a038019825116818451168082178552505050505050905001915050604051602081830303815290604052805190602001201415613f6c57600115156000809054906101000a900473ffffffffffffffffffffffffffffffffffffffff1673ffffffffffffffffffffffffffffffffffffffff1663b01df35184336040518363ffffffff1660e01b8152600401808381526020018273ffffffffffffffffffffffffffffffffffffffff1673ffffffffffffffffffffffffffffffffffffffff1681526020019250505060206040518083038186803b158015613ed457600080fd5b505afa158015613ee8573d6000803e3d6000fd5b505050506040513d6020811015613efe57600080fd5b8101908080519060200190929190505050151514613f67576040517f08c379a00000000000000000000000000000000000000000000000000000000081526004018080602001828103825260338152602001806152da6033913960400191505060405180910390fd5b61416a565b60405160200180807f6e75727365000000000000000000000000000000000000000000000000000000815250600501905060405160208183030381529060405280519060200120816040516020018082805190602001908083835b60208310613fea5780518252602082019150602081019050602083039250613fc7565b6001836020036101000a03801982511681845116808217855250505050505090500191505060405160208183030381529060405280519060200120141561416957600115156000809054906101000a900473ffffffffffffffffffffffffffffffffffffffff1673ffffffffffffffffffffffffffffffffffffffff1663c412e7ba84336040518363ffffffff1660e01b8152600401808381526020018273ffffffffffffffffffffffffffffffffffffffff1673ffffffffffffffffffffffffffffffffffffffff1681526020019250505060206040518083038186803b1580156140d557600080fd5b505afa1580156140e9573d6000803e3d6000fd5b505050506040513d60208110156140ff57600080fd5b8101908080519060200190929190505050151514614168576040517f08c379a00000000000000000000000000000000000000000000000000000000081526004018080602001828103825260318152602001806153626031913960400191505060405180910390fd5b5b5b8460606141756115f6565b905060405160200180807f646f63746f720000000000000000000000000000000000000000000000000000815250600601905060405160208183030381529060405280519060200120816040516020018082805190602001908083835b602083106141f557805182526020820191506020810190506020830392506141d2565b6001836020036101000a0380198251168184511680821785525050505050509050019150506040516020818303038152906040528051906020012014156143795760011515600160009054906101000a900473ffffffffffffffffffffffffffffffffffffffff1673ffffffffffffffffffffffffffffffffffffffff16639cc5804884336040518363ffffffff1660e01b8152600401808381526020018273ffffffffffffffffffffffffffffffffffffffff1673ffffffffffffffffffffffffffffffffffffffff1681526020019250505060206040518083038186803b1580156142e157600080fd5b505afa1580156142f5573d6000803e3d6000fd5b505050506040513d602081101561430b57600080fd5b8101908080519060200190929190505050151514614374576040517f08c379a000000000000000000000000000000000000000000000000000000000815260040180806020018281038252602b815260200180615337602b913960400191505060405180910390fd5b614578565b60405160200180807f6e75727365000000000000000000000000000000000000000000000000000000815250600501905060405160208183030381529060405280519060200120816040516020018082805190602001908083835b602083106143f757805182526020820191506020810190506020830392506143d4565b6001836020036101000a0380198251168184511680821785525050505050509050019150506040516020818303038152906040528051906020012014156145775760011515600260009054906101000a900473ffffffffffffffffffffffffffffffffffffffff1673ffffffffffffffffffffffffffffffffffffffff16639cc5804884336040518363ffffffff1660e01b8152600401808381526020018273ffffffffffffffffffffffffffffffffffffffff1673ffffffffffffffffffffffffffffffffffffffff1681526020019250505060206040518083038186803b1580156144e357600080fd5b505afa1580156144f7573d6000803e3d6000fd5b505050506040513d602081101561450d57600080fd5b8101908080519060200190929190505050151514614576576040517f08c379a000000000000000000000000000000000000000000000000000000000815260040180806020018281038252602a81526020018061530d602a913960400191505060405180910390fd5b5b5b60008060009054906101000a900473ffffffffffffffffffffffffffffffffffffffff1673ffffffffffffffffffffffffffffffffffffffff1663097ee8cd896040518263ffffffff1660e01b81526004018082815260200191505060206040518083038186803b1580156145ec57600080fd5b505afa158015614600573d6000803e3d6000fd5b505050506040513d602081101561461657600080fd5b81019080805190602001909291905050509050600360009054906101000a900473ffffffffffffffffffffffffffffffffffffffff1673ffffffffffffffffffffffffffffffffffffffff166383ac1d078a8984336040518563ffffffff1660e01b81526004018085600781111561468a57fe5b60ff168152602001806020018473ffffffffffffffffffffffffffffffffffffffff1673ffffffffffffffffffffffffffffffffffffffff1681526020018373ffffffffffffffffffffffffffffffffffffffff1673ffffffffffffffffffffffffffffffffffffffff168152602001828103825285818151815260200191508051906020019080838360005b83811015614732578082015181840152602081019050614717565b50505050905090810190601f16801561475f5780820380516001836020036101000a031916815260200191505b5095505050505050602060405180830381600087803b15801561478157600080fd5b505af1158015614795573d6000803e3d6000fd5b505050506040513d60208110156147ab57600080fd5b8101908080519060200190929190505050955060058690806001815401808255809150509060018203906000526020600020016000909192909190915055506000809054906101000a900473ffffffffffffffffffffffffffffffffffffffff1673ffffffffffffffffffffffffffffffffffffffff16638fa3b5c789886040518363ffffffff1660e01b81526004018083815260200182815260200192505050600060405180830381600087803b15801561486657600080fd5b505af115801561487a573d6000803e3d6000fd5b505050507fa3864107517fb55756a302ce7374eafe6be466bc7c6c7eae4b5879bb19fe4ac060405160405180910390a185955050505050509392505050565b6060600115156000809054906101000a900473ffffffffffffffffffffffffffffffffffffffff1673ffffffffffffffffffffffffffffffffffffffff1663e3843463336040518263ffffffff1660e01b8152600401808273ffffffffffffffffffffffffffffffffffffffff1673ffffffffffffffffffffffffffffffffffffffff16815260200191505060206040518083038186803b15801561495d57600080fd5b505afa158015614971573d6000803e3d6000fd5b505050506040513d602081101561498757600080fd5b81019080805190602001909291905050501515146149f0576040517f08c379a00000000000000000000000000000000000000000000000000000000081526004018080602001828103825260288152602001806152b26028913960400191505060405180910390fd5b600660006149fe91906151bd565b60008090505b600580549050811015614c0157600060058281548110614a2057fe5b906000526020600020015490506000600360009054906101000a900473ffffffffffffffffffffffffffffffffffffffff1673ffffffffffffffffffffffffffffffffffffffff1663097ee8cd836040518263ffffffff1660e01b81526004018082815260200191505060206040518083038186803b158015614aa257600080fd5b505afa158015614ab6573d6000803e3d6000fd5b505050506040513d6020811015614acc57600080fd5b8101908080519060200190929190505050905060008060009054906101000a900473ffffffffffffffffffffffffffffffffffffffff1673ffffffffffffffffffffffffffffffffffffffff1663a3005b49836040518263ffffffff1660e01b8152600401808273ffffffffffffffffffffffffffffffffffffffff1673ffffffffffffffffffffffffffffffffffffffff16815260200191505060206040518083038186803b158015614b7f57600080fd5b505afa158015614b93573d6000803e3d6000fd5b505050506040513d6020811015614ba957600080fd5b8101908080519060200190929190505050905085811415614bf15760068390806001815401808255809150509060018203906000526020600020016000909192909190915055505b5050508080600101915050614a04565b506006805480602002602001604051908101604052809291908181526020018280548015614c4e57602002820191906000526020600020905b815481526020019060010190808311614c3a575b50505050509050919050565b600160009054906101000a900473ffffffffffffffffffffffffffffffffffffffff1673ffffffffffffffffffffffffffffffffffffffff1663ae185dce83836040518363ffffffff1660e01b81526004018083815260200182815260200192505050600060405180830381600087803b158015614cd757600080fd5b505af1158015614ceb573d6000803e3d6000fd5b505050505050565b7fb159a57c444ee3ed6158798469f5395fa80148bc3b127733920d04e7bc76a71b60405160405180910390a16000809054906101000a900473ffffffffffffffffffffffffffffffffffffffff1673ffffffffffffffffffffffffffffffffffffffff1663d87ce24283836040518363ffffffff1660e01b8152600401808381526020018273ffffffffffffffffffffffffffffffffffffffff1673ffffffffffffffffffffffffffffffffffffffff16815260200192505050600060405180830381600087803b158015614dc757600080fd5b505af1158015614ddb573d6000803e3d6000fd5b505050505050565b7f965d05df335fb498d945e6826668e08d971c0713b278527013053d361be2b59860405160405180910390a160008060009054906101000a900473ffffffffffffffffffffffffffffffffffffffff1673ffffffffffffffffffffffffffffffffffffffff1663a3005b49336040518263ffffffff1660e01b8152600401808273ffffffffffffffffffffffffffffffffffffffff1673ffffffffffffffffffffffffffffffffffffffff16815260200191505060206040518083038186803b158015614eaf57600080fd5b505afa158015614ec3573d6000803e3d6000fd5b505050506040513d6020811015614ed957600080fd5b810190808051906020019092919050505090506000809054906101000a900473ffffffffffffffffffffffffffffffffffffffff1673ffffffffffffffffffffffffffffffffffffffff1663a3f477f482846040518363ffffffff1660e01b81526004018083815260200182815260200192505050600060405180830381600087803b158015614f6857600080fd5b505af1158015614f7c573d6000803e3d6000fd5b505050505050565b606060405160200180807f7265736561726368657200000000000000000000000000000000000000000000815250600a01905060405160208183030381529060405280519060200120614fd56115f6565b6040516020018082805190602001908083835b6020831061500b5780518252602082019150602081019050602083039250614fe8565b6001836020036101000a038019825116818451168082178552505050505050905001915050604051602081830303815290604052805190602001201461505057600080fd5b7f89be633ca6bdcf03e1d1e4304c9db3cc86fdfbe82edbb144681a1fffb2155ff460405160405180910390a16000809054906101000a900473ffffffffffffffffffffffffffffffffffffffff1673ffffffffffffffffffffffffffffffffffffffff166311fc621d6040518163ffffffff1660e01b815260040160006040518083038186803b1580156150e357600080fd5b505afa1580156150f7573d6000803e3d6000fd5b505050506040513d6000823e3d601f19601f82011682018060405250602081101561512157600080fd5b810190808051604051939291908464010000000082111561514157600080fd5b8382019150602082018581111561515757600080fd5b825186602082028301116401000000008211171561517457600080fd5b8083526020830192505050908051906020019060200280838360005b838110156151ab578082015181840152602081019050615190565b50505050905001604052505050905090565b50805460008255906000526020600020908101906151db91906151de565b50565b61520091905b808211156151fc5760008160009055506001016151e4565b5090565b9056fe446f63746f72206973206e6f742061626c6520746f20766965772074686973207265636f7264206173207468657920617265206e6f7420696e207468652070617469656e74277320617070726f76656420646f63746f72734e75727365206973206e6f742061626c6520746f20766965772074686973207265636f7264206173207468657920617265206e6f7420696e207468652070617469656e74277320617070726f766564206e757273657350617469656e74206973206e6f7420616c6c6f77656420746f20646f207468697320616374696f6e446f63746f72206973206e6f7420696e2070617469656e742773206c697374206f6620617070726f76656420646f63746f727350617469656e74206973206e6f7420696e206e757273652773206c697374206f662070617469656e747350617469656e74206973206e6f7420696e20646f63746f722773206c697374206f662070617469656e74734e75727365206973206e6f7420696e2070617469656e742773206c697374206f6620617070726f766564206e757273657350617469656e7420686173206e6f7420617070726f766564206461746120666f7220726573656172636820707572706f736573a265627a7a72315820a5e09df6a8a1da7614047008ec812ae5886e65647fe982ad18650f2bcce8da4c64736f6c63430005110032",
  "source": "pragma solidity ^0.5.0;\n\nimport \"./Patient.sol\";\nimport \"./Doctor.sol\";\nimport \"./Nurse.sol\";\nimport \"./EHR.sol\";\nimport \"./Researcher.sol\";\n\n\ncontract medicalChain {\n\n  Patient patientContract;\n  Doctor doctorContract;\n  Nurse nurseContract;\n  EHR ehrContract;\n  Researcher researcherContract;\n\n\n  constructor(Patient patientAddress, Doctor doctorAddress, Nurse nurseAddress, EHR ehrAddress, Researcher researcherAddress) public {\n    patientContract = patientAddress;\n    doctorContract = doctorAddress;\n    nurseContract = nurseAddress;\n    ehrContract = ehrAddress;\n    researcherContract = researcherAddress;\n  }\n\n  uint256[] recordIds;\n  uint256[] patientRecordId;\n  /********* EVENTS *********/  \n\n  event PatientAdded(address patientId);\n  event DoctorAdded(address doctorId);\n  event NurseAdded(address nurseId);\n  event testEvent(uint256 test);\n  event GivingDoctorAccess();\n  event RemovingDoctorAccess();\n  event GivingNurseAccess();\n  event RemovingNurseAccess();\n  event GivingResearcherAccess();\n  event AddingEHR();\n  event AcknowledgingRecord();\n  event GettingApprovedPatients();\n\n  /********* MODIFIERS *********/\n\n  // prevent doctor from self-diagnosing, doctor cannot write on their own record\n  modifier doctorIsNotPatient(address patientId, address doctorId) {\n    require(patientId != doctorId, \"Doctor should not self-diagnose\");\n    _;\n  }\n\n  modifier isValidPractioner(uint256 patientId) {\n    string memory role = getSenderRole();\n    if (keccak256(abi.encodePacked((role))) == keccak256(abi.encodePacked((\"doctor\")))) {\n      require(patientContract.isApprovedDoctor(patientId, msg.sender) == true, \"Doctor is not in patient's list of approved doctors\");\n    } else if (keccak256(abi.encodePacked((role))) == keccak256(abi.encodePacked((\"nurse\")))) {\n      require(patientContract.isApprovedNurse(patientId, msg.sender) == true, \"Nurse is not in patient's list of approved nurses\");\n    }\n    _;\n  }\n\n  modifier isValidPatientId(uint256 patientId) {\n    require(patientContract.isValidPatientId(patientId) == true, \"Patient ID given is not valid\");\n    _;\n  }\n\n  modifier isCorrectPatient() {\n    require(patientContract.isSender(msg.sender) == true, \"Patient is not allowed to do this action\");\n    _;\n  }\n\n  modifier isRecordBelongToPatient(uint256 recordId) {\n    require(ehrContract.isRecordBelongToPatient(recordId, msg.sender) == true, \"Record does not belong to this patient\");\n    _;\n  }\n\n  modifier isPatientRegisteredWithPractioner(uint256 patientId) {\n    string memory role = getSenderRole();\n    if (keccak256(abi.encodePacked((role))) == keccak256(abi.encodePacked((\"doctor\")))) {\n      require(doctorContract.isPatientInListOfPatients(patientId, msg.sender) == true, \"Patient is not in doctor's list of patients\");\n    } else if (keccak256(abi.encodePacked((role))) == keccak256(abi.encodePacked((\"nurse\")))) {\n      require(nurseContract.isPatientInListOfPatients(patientId, msg.sender) == true, \"Patient is not in nurse's list of patients\");\n    }\n    _;\n  }\n\n  // modifier isPractionerAbleToViewRecord(uint256 recordId) {\n  //   require(patientContract.isApprovedDoctor(patientContract.getPatientIdFromPatientAddress(ehrContract.getPatientAddress(recordId)), msg.sender), \"Doctor/Nurse is not able to view this record as they are not the issuer\");\n  //   _;\n  // }\n\n  modifier isPractionerAbleToViewRecord(uint256 recordId) {\n    string memory role = getSenderRole();\n    if (keccak256(abi.encodePacked((role))) == keccak256(abi.encodePacked((\"doctor\")))) {\n      require(patientContract.isApprovedDoctor(patientContract.getPatientIdFromPatientAddress(ehrContract.getPatientAddress(recordId)), msg.sender), \"Doctor is not able to view this record as they are not in the patient's approved doctors\");\n    } else if (keccak256(abi.encodePacked((role))) == keccak256(abi.encodePacked((\"nurse\")))) {\n      require(patientContract.isApprovedNurse(patientContract.getPatientIdFromPatientAddress(ehrContract.getPatientAddress(recordId)), msg.sender), \"Nurse is not able to view this record as they are not in the patient's approved nurses\");\n    }\n    _;\n  }\n\n  modifier isResearcherAbleToViewRecord(uint256 patientId) {\n    require(patientContract.getApprovedReseacher(patientId), \"Patient has not approved data for research purposes\");\n    _;\n  }\n\n  modifier isResearcher() {\n    require(keccak256(abi.encodePacked(getSenderRole())) == keccak256(abi.encodePacked((\"researcher\"))));\n    _;\n  }\n\n\n  /********* FUNCTIONS *********/\n\n  function getSenderRole() public view returns (string memory) {\n    if (doctorContract.isSender(msg.sender)) {\n      return \"doctor\";\n    } else if (patientContract.isSender(msg.sender)) {\n      return \"patient\";\n    } else if (nurseContract.isSender(msg.sender)) {\n      return \"nurse\";\n    } else if (researcherContract.isSender(msg.sender)) {\n      return \"researcher\";\n    } else {\n      return \"unknown\";\n    }\n  }\n\n  function giveDoctorAccess(uint256 patientId, address doctorAddress) public {\n    emit GivingDoctorAccess();\n    patientContract.giveDoctorAccess(patientId, doctorAddress);\n  }\n\n  function removeDoctorAccess(uint256 patientId, address doctorAddress) public {\n    emit RemovingDoctorAccess();\n    patientContract.removeDoctorAccess(patientId, doctorAddress);\n  }\n\n  function giveNurseAccess(uint256 patientId, address nurseAddress) public {\n    emit GivingNurseAccess();\n    patientContract.giveNurseAccess(patientId, nurseAddress);\n  }\n\n  function removeNurseAccess(uint256 patientId, address nurseAddress) public {\n    emit RemovingNurseAccess();\n    patientContract.removeNurseAccess(patientId, nurseAddress);\n  }\n\n  function registerPatientWithDoctor(uint256 doctorId, uint256 patientId) public {\n    doctorContract.registerPatient(doctorId, patientId);\n  }\n\n  function giveResearcherAccess(uint256 patientId) public {\n    emit GivingResearcherAccess();\n    patientContract.giveResearcherAccess(patientId);\n  }\n\n  function testingTest(uint256 test) public {\n    emit testEvent(test);\n  }\n\n  // Add new EHR\n  function addNewEHR(EHR.RecordType recordType, uint256 patientId, string memory filename) public payable isValidPractioner(patientId) isPatientRegisteredWithPractioner(patientId) returns (uint256 recordId) {\n\n      // Check if msg.sender is doctor or nurse\n      // Check if msg.sender is inside patient's approvedDoctors or approvedNurses\n      // Check if patientId inside doctor's patients\n      // Add new EHR\n      // add recordId into patient and doctors records\n\n      address patientAddress = patientContract.getPatientAddress(patientId);\n      recordId = ehrContract.add(recordType, filename, patientAddress, msg.sender);\n\n      recordIds.push(recordId);\n\n      patientContract.addEhr(patientId, recordId);\n\n      emit AddingEHR();\n      return recordId;\n  }\n\n  // Request to view specific record\n  function viewRecordByRecordID(uint256 recordId) public view isPractionerAbleToViewRecord(recordId) returns (uint256 id,\n        EHR.RecordType recordType,\n        string memory fileName,\n        address patientAddress,\n        address doctorAddress,\n        uint256 timeAdded,\n        bool patientSignedOff) {\n      return ehrContract.getRecord(recordId);\n  }\n\n  // Request to update specific record - update RecordType and fileName\n  function updateRecordByRecordID(uint256 recordId, EHR.RecordType recordType, string memory fileName) public isPractionerAbleToViewRecord(recordId) {\n    ehrContract.updateRecord(recordId, recordType, fileName);\n  }\n\n  // Researcher: View all patients who have approved research access\n  function viewApprovedPatients() public isResearcher returns (uint256[] memory) {\n      emit GettingApprovedPatients();\n      return patientContract.getResearchPatients();\n  }\n\n  // Researcher: Request to view specific patient data\n  function viewPatientByPatientID(uint256 patientID) public view isResearcher isResearcherAbleToViewRecord(patientID) returns (uint256 id,\n        string memory firstName,\n        string memory lastName,\n        string memory emailAddress,\n        string memory dob) {\n      return patientContract.getData(patientID);\n  }\n\n  // Patient: View all records that are acknowledged by patient\n  function viewAllRecords(uint256 patientId) public view isCorrectPatient() isValidPatientId(patientId) returns (uint256[] memory) {\n    // only when it is signed off, then it is counted\n    // if need to be counted regardless of signed off, increment it in addNewEHR function\n    uint256 patientNoOfRecords = patientContract.getRecordsCount(patientId);\n    uint256[] memory patientRecordsId = new uint256[](patientNoOfRecords);\n    uint256 indexTracker = 0;\n    for (uint256 i = 0; i < ehrContract.numEHR(); i++) {\n      // record belongs to patient calling it AND whether the record is acknowledged\n      if (ehrContract.isRecordBelongToPatient(i, msg.sender) && patientContract.isRecordAcknowledged(patientId, i)) {\n        patientRecordsId[indexTracker] = i;\n        indexTracker++;\n      }\n    }\n\n    return patientRecordsId;\n  }\n\n  // Patient: Filter records by record type\n  function filterRecordsByRecordType(uint256 patientId, EHR.RecordType recordType) public view isCorrectPatient() isValidPatientId(patientId) returns (uint256[] memory) {\n    uint256[] memory patientRecordsId = viewAllRecords(patientId);\n    uint256 noOfPatientRecords = patientContract.getRecordsCount(patientId);\n    uint256 noOfFilteredRecords = numberOfRecordType(patientId, recordType);\n    uint256[] memory patientRecordsIdFiltered = new uint256[](noOfFilteredRecords);\n    uint256 indexTracker = 0;\n    for (uint256 i = 0; i < noOfPatientRecords; i++) {\n      uint256 currentRecordId = patientRecordsId[i];\n      if (ehrContract.doesRecordMatchRecordType(currentRecordId, recordType)) {\n        patientRecordsIdFiltered[indexTracker] = currentRecordId;\n        indexTracker++;\n      }\n    }\n\n    return patientRecordsIdFiltered;\n  }\n\n  // Patient: Helper function to check how many records fulfilling the given record type for a patient\n  function numberOfRecordType(uint256 patientId, EHR.RecordType recordType) public view isCorrectPatient() isValidPatientId(patientId) returns(uint256){ // change on what you need to return\n    uint256[] memory patientRecordsId = viewAllRecords(patientId);\n    uint256 noOfPatientRecords = patientContract.getRecordsCount(patientId);\n    uint256 noOfRecordsMatchingRecordType = 0;\n    for (uint256 i = 0; i < noOfPatientRecords; i++) {\n      uint256 currentRecordId = patientRecordsId[i];\n      if (ehrContract.doesRecordMatchRecordType(currentRecordId, recordType)) {\n        noOfRecordsMatchingRecordType++;\n      }\n    }\n\n    return noOfRecordsMatchingRecordType;\n}\n\n\n// View all records belonging to this patient\n// Returns all the recordIds\nfunction filterRecordsByPatient(uint256 patientId) public isCorrectPatient() returns (uint256[] memory) {\n  delete patientRecordId;\n  for (uint i = 0; i < recordIds.length; i++) {\n    uint256 currRecordId = recordIds[i];\n    address patientAddress = ehrContract.getPatientAddress(currRecordId);\n    uint256 thisPatientId = patientContract.getPatientIdFromPatientAddress(patientAddress);\n    if (thisPatientId == patientId) {\n      patientRecordId.push(currRecordId);\n    }\n  }\n  return patientRecordId;\n}\n\n\n// View all records signed off by certain practitioner\n\nfunction filterRecordsByPractitioner(uint256 practitionerId) public isCorrectPatient() returns (uint256[] memory) {\n  delete patientRecordId;\n  for (uint i = 0; i < recordIds.length; i++) {\n    uint256 currRecordId = recordIds[i];\n    address doctorAddress = ehrContract.getDoctorAddress(currRecordId);\n    uint256 thisPractitionerId = doctorContract.getDoctorIdFromDoctorAddress(doctorAddress);\n    if (thisPractitionerId == practitionerId) {\n      patientRecordId.push(currRecordId);\n    }\n  }\n  return patientRecordId;\n  }\n\n// Patient: Acknowledge a record that is added to his medical records\n// function patientAcknowledgeRecord(uint256 recordId) public isCorrectPatient()  isRecordBelongToPatient(recordId) {\n//   emit AcknowledgingRecord();\n//   uint256 patientId = patientContract.getPatientIdFromPatientAddress(msg.sender);\n//   patientContract.signOffRecord(patientId, recordId);\n// }\n\nfunction patientAcknowledgeRecord(uint256 recordId) public {\n  emit AcknowledgingRecord();\n  uint256 patientId = patientContract.getPatientIdFromPatientAddress(msg.sender);\n  patientContract.signOffRecord(patientId, recordId);\n}\n\n\n}",
  "sourcePath": "/Users/aaronf/IS4302/is4302-project-medical-chain/contracts/medicalChain.sol",
  "compiler": {
    "name": "solc",
    "version": "0.5.17+commit.d19bba13.Emscripten.clang"
  },
  "schemaVersion": "3.4.11",
  "updatedAt": "2023-04-08T14:22:53.898Z",
  "networkType": "ethereum",
  "devdoc": {
    "methods": {}
  },
  "userdoc": {
    "methods": {
      "getSenderRole()": {
        "notice": "******* FUNCTIONS ********"
      }
    }
  }
}