{
  "contractName": "medicalChain",
  "abi": [
    {
      "inputs": [
        {
          "internalType": "contract Patient",
          "name": "patientAddress",
          "type": "address"
        },
        {
          "internalType": "contract Doctor",
          "name": "doctorAddress",
          "type": "address"
        },
        {
          "internalType": "contract Nurse",
          "name": "nurseAddress",
          "type": "address"
        },
        {
          "internalType": "contract EHR",
          "name": "ehrAddress",
          "type": "address"
        },
        {
          "internalType": "contract Researcher",
          "name": "researcherAddress",
          "type": "address"
        }
      ],
      "payable": false,
      "stateMutability": "nonpayable",
      "type": "constructor"
    },
    {
      "anonymous": false,
      "inputs": [],
      "name": "AcknowledgingRecord",
      "type": "event"
    },
    {
      "anonymous": false,
      "inputs": [],
      "name": "AddingEHR",
      "type": "event"
    },
    {
      "anonymous": false,
      "inputs": [
        {
          "indexed": false,
          "internalType": "address",
          "name": "doctorId",
          "type": "address"
        }
      ],
      "name": "DoctorAdded",
      "type": "event"
    },
    {
      "anonymous": false,
      "inputs": [],
      "name": "GettingApprovedPatients",
      "type": "event"
    },
    {
      "anonymous": false,
      "inputs": [],
      "name": "GivingDoctorAccess",
      "type": "event"
    },
    {
      "anonymous": false,
      "inputs": [],
      "name": "GivingNurseAccess",
      "type": "event"
    },
    {
      "anonymous": false,
      "inputs": [],
      "name": "GivingResearcherAccess",
      "type": "event"
    },
    {
      "anonymous": false,
      "inputs": [
        {
          "indexed": false,
          "internalType": "address",
          "name": "nurseId",
          "type": "address"
        }
      ],
      "name": "NurseAdded",
      "type": "event"
    },
    {
      "anonymous": false,
      "inputs": [
        {
          "indexed": false,
          "internalType": "address",
          "name": "patientId",
          "type": "address"
        }
      ],
      "name": "PatientAdded",
      "type": "event"
    },
    {
      "anonymous": false,
      "inputs": [],
      "name": "RemovingDoctorAccess",
      "type": "event"
    },
    {
      "anonymous": false,
      "inputs": [],
      "name": "RemovingNurseAccess",
      "type": "event"
    },
    {
      "anonymous": false,
      "inputs": [
        {
          "indexed": false,
          "internalType": "uint256",
          "name": "test",
          "type": "uint256"
        }
      ],
      "name": "testEvent",
      "type": "event"
    },
    {
      "constant": true,
      "inputs": [],
      "name": "getSenderRole",
      "outputs": [
        {
          "internalType": "string",
          "name": "",
          "type": "string"
        }
      ],
      "payable": false,
      "stateMutability": "view",
      "type": "function"
    },
    {
      "constant": false,
      "inputs": [
        {
          "internalType": "uint256",
          "name": "patientId",
          "type": "uint256"
        },
        {
          "internalType": "address",
          "name": "doctorAddress",
          "type": "address"
        }
      ],
      "name": "giveDoctorAccess",
      "outputs": [],
      "payable": false,
      "stateMutability": "nonpayable",
      "type": "function"
    },
    {
      "constant": false,
      "inputs": [
        {
          "internalType": "uint256",
          "name": "patientId",
          "type": "uint256"
        },
        {
          "internalType": "address",
          "name": "doctorAddress",
          "type": "address"
        }
      ],
      "name": "removeDoctorAccess",
      "outputs": [],
      "payable": false,
      "stateMutability": "nonpayable",
      "type": "function"
    },
    {
      "constant": false,
      "inputs": [
        {
          "internalType": "uint256",
          "name": "patientId",
          "type": "uint256"
        },
        {
          "internalType": "address",
          "name": "nurseAddress",
          "type": "address"
        }
      ],
      "name": "giveNurseAccess",
      "outputs": [],
      "payable": false,
      "stateMutability": "nonpayable",
      "type": "function"
    },
    {
      "constant": false,
      "inputs": [
        {
          "internalType": "uint256",
          "name": "patientId",
          "type": "uint256"
        },
        {
          "internalType": "address",
          "name": "nurseAddress",
          "type": "address"
        }
      ],
      "name": "removeNurseAccess",
      "outputs": [],
      "payable": false,
      "stateMutability": "nonpayable",
      "type": "function"
    },
    {
      "constant": false,
      "inputs": [
        {
          "internalType": "uint256",
          "name": "doctorId",
          "type": "uint256"
        },
        {
          "internalType": "uint256",
          "name": "patientId",
          "type": "uint256"
        }
      ],
      "name": "registerPatientWithDoctor",
      "outputs": [],
      "payable": false,
      "stateMutability": "nonpayable",
      "type": "function"
    },
    {
      "constant": false,
      "inputs": [
        {
          "internalType": "uint256",
          "name": "patientId",
          "type": "uint256"
        }
      ],
      "name": "giveResearcherAccess",
      "outputs": [],
      "payable": false,
      "stateMutability": "nonpayable",
      "type": "function"
    },
    {
      "constant": false,
      "inputs": [
        {
          "internalType": "uint256",
          "name": "test",
          "type": "uint256"
        }
      ],
      "name": "testingTest",
      "outputs": [],
      "payable": false,
      "stateMutability": "nonpayable",
      "type": "function"
    },
    {
      "constant": false,
      "inputs": [
        {
          "internalType": "enum EHR.RecordType",
          "name": "recordType",
          "type": "uint8"
        },
        {
          "internalType": "uint256",
          "name": "patientId",
          "type": "uint256"
        },
        {
          "internalType": "string",
          "name": "filename",
          "type": "string"
        }
      ],
      "name": "addNewEHR",
      "outputs": [
        {
          "internalType": "uint256",
          "name": "recordId",
          "type": "uint256"
        }
      ],
      "payable": false,
      "stateMutability": "nonpayable",
      "type": "function"
    },
    {
      "constant": true,
      "inputs": [
        {
          "internalType": "uint256",
          "name": "patientId",
          "type": "uint256"
        },
        {
          "internalType": "uint256",
          "name": "recordId",
          "type": "uint256"
        }
      ],
      "name": "viewRecordByRecordID",
      "outputs": [
        {
          "internalType": "uint256",
          "name": "id",
          "type": "uint256"
        },
        {
          "internalType": "enum EHR.RecordType",
          "name": "recordType",
          "type": "uint8"
        },
        {
          "internalType": "string",
          "name": "fileName",
          "type": "string"
        },
        {
          "internalType": "address",
          "name": "patientAddress",
          "type": "address"
        },
        {
          "internalType": "address",
          "name": "doctorAddress",
          "type": "address"
        },
        {
          "internalType": "uint256",
          "name": "timeAdded",
          "type": "uint256"
        },
        {
          "internalType": "bool",
          "name": "patientSignedOff",
          "type": "bool"
        }
      ],
      "payable": false,
      "stateMutability": "view",
      "type": "function"
    },
    {
      "constant": false,
      "inputs": [
        {
          "internalType": "uint256",
          "name": "patientId",
          "type": "uint256"
        },
        {
          "internalType": "uint256",
          "name": "recordId",
          "type": "uint256"
        },
        {
          "internalType": "enum EHR.RecordType",
          "name": "recordType",
          "type": "uint8"
        },
        {
          "internalType": "string",
          "name": "fileName",
          "type": "string"
        }
      ],
      "name": "updateRecordByRecordID",
      "outputs": [],
      "payable": false,
      "stateMutability": "nonpayable",
      "type": "function"
    },
    {
      "constant": false,
      "inputs": [],
      "name": "viewApprovedPatients",
      "outputs": [
        {
          "internalType": "uint256[]",
          "name": "",
          "type": "uint256[]"
        }
      ],
      "payable": false,
      "stateMutability": "nonpayable",
      "type": "function"
    },
    {
      "constant": true,
      "inputs": [
        {
          "internalType": "uint256",
          "name": "patientID",
          "type": "uint256"
        }
      ],
      "name": "viewPatientByPatientID",
      "outputs": [
        {
          "internalType": "uint256",
          "name": "id",
          "type": "uint256"
        },
        {
          "internalType": "string",
          "name": "firstName",
          "type": "string"
        },
        {
          "internalType": "string",
          "name": "lastName",
          "type": "string"
        },
        {
          "internalType": "string",
          "name": "emailAddress",
          "type": "string"
        },
        {
          "internalType": "string",
          "name": "dob",
          "type": "string"
        }
      ],
      "payable": false,
      "stateMutability": "view",
      "type": "function"
    },
    {
      "constant": true,
      "inputs": [
        {
          "internalType": "uint256",
          "name": "patientId",
          "type": "uint256"
        }
      ],
      "name": "patientViewAllAcknowledgedRecords",
      "outputs": [
        {
          "internalType": "uint256[]",
          "name": "",
          "type": "uint256[]"
        }
      ],
      "payable": false,
      "stateMutability": "view",
      "type": "function"
    },
    {
      "constant": true,
      "inputs": [
        {
          "internalType": "uint256",
          "name": "patientId",
          "type": "uint256"
        }
      ],
      "name": "patientViewAllRecords",
      "outputs": [
        {
          "internalType": "uint256[]",
          "name": "",
          "type": "uint256[]"
        }
      ],
      "payable": false,
      "stateMutability": "view",
      "type": "function"
    },
    {
      "constant": true,
      "inputs": [
        {
          "internalType": "uint256",
          "name": "patientId",
          "type": "uint256"
        },
        {
          "internalType": "uint256",
          "name": "doctorId",
          "type": "uint256"
        }
      ],
      "name": "patientViewRecordsByDoctor",
      "outputs": [
        {
          "internalType": "uint256[]",
          "name": "",
          "type": "uint256[]"
        }
      ],
      "payable": false,
      "stateMutability": "view",
      "type": "function"
    },
    {
      "constant": true,
      "inputs": [
        {
          "internalType": "uint256",
          "name": "patientId",
          "type": "uint256"
        },
        {
          "internalType": "uint256",
          "name": "nurseId",
          "type": "uint256"
        }
      ],
      "name": "patientViewRecordsByNurse",
      "outputs": [
        {
          "internalType": "uint256[]",
          "name": "",
          "type": "uint256[]"
        }
      ],
      "payable": false,
      "stateMutability": "view",
      "type": "function"
    },
    {
      "constant": true,
      "inputs": [
        {
          "internalType": "uint256",
          "name": "patientId",
          "type": "uint256"
        },
        {
          "internalType": "enum EHR.RecordType",
          "name": "recordType",
          "type": "uint8"
        }
      ],
      "name": "patientViewRecordsByRecordType",
      "outputs": [
        {
          "internalType": "uint256[]",
          "name": "",
          "type": "uint256[]"
        }
      ],
      "payable": false,
      "stateMutability": "view",
      "type": "function"
    },
    {
      "constant": true,
      "inputs": [
        {
          "internalType": "uint256",
          "name": "patientId",
          "type": "uint256"
        }
      ],
      "name": "practitionerViewAllRecords",
      "outputs": [
        {
          "internalType": "uint256[]",
          "name": "",
          "type": "uint256[]"
        }
      ],
      "payable": false,
      "stateMutability": "view",
      "type": "function"
    },
    {
      "constant": false,
      "inputs": [
        {
          "internalType": "uint256",
          "name": "recordId",
          "type": "uint256"
        }
      ],
      "name": "patientAcknowledgeRecord",
      "outputs": [],
      "payable": false,
      "stateMutability": "nonpayable",
      "type": "function"
    }
  ],
  "bytecode": "0x60806040523480156200001157600080fd5b5060405162005e8c38038062005e8c833981810160405260a08110156200003757600080fd5b810190808051906020019092919080519060200190929190805190602001909291908051906020019092919080519060200190929190505050846000806101000a81548173ffffffffffffffffffffffffffffffffffffffff021916908373ffffffffffffffffffffffffffffffffffffffff16021790555083600160006101000a81548173ffffffffffffffffffffffffffffffffffffffff021916908373ffffffffffffffffffffffffffffffffffffffff16021790555082600260006101000a81548173ffffffffffffffffffffffffffffffffffffffff021916908373ffffffffffffffffffffffffffffffffffffffff16021790555081600360006101000a81548173ffffffffffffffffffffffffffffffffffffffff021916908373ffffffffffffffffffffffffffffffffffffffff16021790555080600460006101000a81548173ffffffffffffffffffffffffffffffffffffffff021916908373ffffffffffffffffffffffffffffffffffffffff1602179055505050505050615cc380620001c96000396000f3fe608060405234801561001057600080fd5b506004361061012c5760003560e01c8063a0c91b24116100ad578063d87ce24211610071578063d87ce242146109f5578063da93f6b814610a43578063dc34c4c314610ad0578063ef84f4f114610afe578063f2371d4f14610b5d5761012c565b8063a0c91b24146107ce578063bb4182c3146107fc578063bbbeaccc1461084a578063bcf5e84914610930578063c37521a4146109685761012c565b80633a88162e116100f45780633a88162e146103f85780634711d9401461047b5780635470e804146104fe578063685e90251461054c5780637d7456861461073e5761012c565b8063067be5dc1461013157806313b8f4cf1461017f5780631fcba551146102025780632363b0ff14610347578063303c9672146103ca575b600080fd5b61017d6004803603604081101561014757600080fd5b8101908080359060200190929190803573ffffffffffffffffffffffffffffffffffffffff169060200190929190505050610c39565b005b6101ab6004803603602081101561019557600080fd5b8101908080359060200190929190505050610d29565b6040518080602001828103825283818151815260200191508051906020019060200280838360005b838110156101ee5780820151818401526020810190506101d3565b505050509050019250505060405180910390f35b6102386004803603604081101561021857600080fd5b81019080803590602001909291908035906020019092919050505061110a565b6040518088815260200187600781111561024e57fe5b60ff168152602001806020018673ffffffffffffffffffffffffffffffffffffffff1673ffffffffffffffffffffffffffffffffffffffff1681526020018573ffffffffffffffffffffffffffffffffffffffff1673ffffffffffffffffffffffffffffffffffffffff16815260200184815260200183151515158152602001828103825287818151815260200191508051906020019080838360005b838110156103065780820151818401526020810190506102eb565b50505050905090810190601f1680156103335780820380516001836020036101000a031916815260200191505b509850505050505050505060405180910390f35b6103736004803603602081101561035d57600080fd5b8101908080359060200190929190505050611a8d565b6040518080602001828103825283818151815260200191508051906020019060200280838360005b838110156103b657808201518184015260208101905061039b565b505050509050019250505060405180910390f35b6103f6600480360360208110156103e057600080fd5b8101908080359060200190929190505050612347565b005b610400612402565b6040518080602001828103825283818151815260200191508051906020019080838360005b83811015610440578082015181840152602081019050610425565b50505050905090810190601f16801561046d5780820380516001836020036101000a031916815260200191505b509250505060405180910390f35b6104a76004803603602081101561049157600080fd5b81019080803590602001909291905050506128af565b6040518080602001828103825283818151815260200191508051906020019060200280838360005b838110156104ea5780820151818401526020810190506104cf565b505050509050019250505060405180910390f35b61054a6004803603604081101561051457600080fd5b8101908080359060200190929190803573ffffffffffffffffffffffffffffffffffffffff169060200190929190505050612c5c565b005b6105786004803603602081101561056257600080fd5b8101908080359060200190929190505050612d4c565b6040518086815260200180602001806020018060200180602001858103855289818151815260200191508051906020019080838360005b838110156105ca5780820151818401526020810190506105af565b50505050905090810190601f1680156105f75780820380516001836020036101000a031916815260200191505b50858103845288818151815260200191508051906020019080838360005b83811015610630578082015181840152602081019050610615565b50505050905090810190601f16801561065d5780820380516001836020036101000a031916815260200191505b50858103835287818151815260200191508051906020019080838360005b8381101561069657808201518184015260208101905061067b565b50505050905090810190601f1680156106c35780820380516001836020036101000a031916815260200191505b50858103825286818151815260200191508051906020019080838360005b838110156106fc5780820151818401526020810190506106e1565b50505050905090810190601f1680156107295780820380516001836020036101000a031916815260200191505b50995050505050505050505060405180910390f35b6107776004803603604081101561075457600080fd5b8101908080359060200190929190803560ff169060200190929190505050613338565b6040518080602001828103825283818151815260200191508051906020019060200280838360005b838110156107ba57808201518184015260208101905061079f565b505050509050019250505060405180910390f35b6107fa600480360360208110156107e457600080fd5b8101908080359060200190929190505050613730565b005b6108486004803603604081101561081257600080fd5b8101908080359060200190929190803573ffffffffffffffffffffffffffffffffffffffff16906020019092919050505061376a565b005b61091a6004803603606081101561086057600080fd5b81019080803560ff169060200190929190803590602001909291908035906020019064010000000081111561089457600080fd5b8201836020820111156108a657600080fd5b803590602001918460018302840111640100000000831117156108c857600080fd5b91908080601f016020809104026020016040519081016040528093929190818152602001838380828437600081840152601f19601f82011690508083019250505050505050919291929050505061385a565b6040518082815260200191505060405180910390f35b6109666004803603604081101561094657600080fd5b8101908080359060200190929190803590602001909291905050506141f1565b005b61099e6004803603604081101561097e57600080fd5b81019080803590602001909291908035906020019092919050505061428a565b6040518080602001828103825283818151815260200191508051906020019060200280838360005b838110156109e15780820151818401526020810190506109c6565b505050509050019250505060405180910390f35b610a4160048036036040811015610a0b57600080fd5b8101908080359060200190929190803573ffffffffffffffffffffffffffffffffffffffff169060200190929190505050614625565b005b610a7960048036036040811015610a5957600080fd5b810190808035906020019092919080359060200190929190505050614715565b6040518080602001828103825283818151815260200191508051906020019060200280838360005b83811015610abc578082015181840152602081019050610aa1565b505050509050019250505060405180910390f35b610afc60048036036020811015610ae657600080fd5b8101908080359060200190929190505050614ab0565b005b610b06614fe9565b6040518080602001828103825283818151815260200191508051906020019060200280838360005b83811015610b49578082015181840152602081019050610b2e565b505050509050019250505060405180910390f35b610c3760048036036080811015610b7357600080fd5b810190808035906020019092919080359060200190929190803560ff16906020019092919080359060200190640100000000811115610bb157600080fd5b820183602082011115610bc357600080fd5b80359060200191846001830284011164010000000083111715610be557600080fd5b91908080601f016020809104026020016040519081016040528093929190818152602001838380828437600081840152601f19601f82011690508083019250505050505050919291929050505061528b565b005b7fa85f577a4037d83ececf685e851e35a4e56611e8fcee1c571d2e1fb91359c53960405160405180910390a16000809054906101000a900473ffffffffffffffffffffffffffffffffffffffff1673ffffffffffffffffffffffffffffffffffffffff1663067be5dc83836040518363ffffffff1660e01b8152600401808381526020018273ffffffffffffffffffffffffffffffffffffffff1673ffffffffffffffffffffffffffffffffffffffff16815260200192505050600060405180830381600087803b158015610d0d57600080fd5b505af1158015610d21573d6000803e3d6000fd5b505050505050565b6060600115156000809054906101000a900473ffffffffffffffffffffffffffffffffffffffff1673ffffffffffffffffffffffffffffffffffffffff1663e3843463336040518263ffffffff1660e01b8152600401808273ffffffffffffffffffffffffffffffffffffffff1673ffffffffffffffffffffffffffffffffffffffff16815260200191505060206040518083038186803b158015610dcd57600080fd5b505afa158015610de1573d6000803e3d6000fd5b505050506040513d6020811015610df757600080fd5b8101908080519060200190929190505050151514610e60576040517f08c379a0000000000000000000000000000000000000000000000000000000008152600401808060200182810382526028815260200180615b556028913960400191505060405180910390fd5b81600115156000809054906101000a900473ffffffffffffffffffffffffffffffffffffffff1673ffffffffffffffffffffffffffffffffffffffff16634b654378836040518263ffffffff1660e01b81526004018082815260200191505060206040518083038186803b158015610ed757600080fd5b505afa158015610eeb573d6000803e3d6000fd5b505050506040513d6020811015610f0157600080fd5b8101908080519060200190929190505050151514610f87576040517f08c379a000000000000000000000000000000000000000000000000000000000815260040180806020018281038252601d8152602001807f50617469656e7420494420676976656e206973206e6f742076616c696400000081525060200191505060405180910390fd5b6000809054906101000a900473ffffffffffffffffffffffffffffffffffffffff1673ffffffffffffffffffffffffffffffffffffffff1663092db90284336040518363ffffffff1660e01b8152600401808381526020018273ffffffffffffffffffffffffffffffffffffffff1673ffffffffffffffffffffffffffffffffffffffff1681526020019250505060006040518083038186803b15801561102d57600080fd5b505afa158015611041573d6000803e3d6000fd5b505050506040513d6000823e3d601f19601f82011682018060405250602081101561106b57600080fd5b810190808051604051939291908464010000000082111561108b57600080fd5b838201915060208201858111156110a157600080fd5b82518660208202830111640100000000821117156110be57600080fd5b8083526020830192505050908051906020019060200280838360005b838110156110f55780820151818401526020810190506110da565b50505050905001604052505050915050919050565b6000806060600080600080886060611120612402565b905060405160200180807f646f63746f720000000000000000000000000000000000000000000000000000815250600601905060405160208183030381529060405280519060200120816040516020018082805190602001908083835b602083106111a0578051825260208201915060208101905060208303925061117d565b6001836020036101000a03801982511681845116808217855250505050505090500191505060405160208183030381529060405280519060200120141561146157600115156000809054906101000a900473ffffffffffffffffffffffffffffffffffffffff1673ffffffffffffffffffffffffffffffffffffffff1663b01df35184336040518363ffffffff1660e01b8152600401808381526020018273ffffffffffffffffffffffffffffffffffffffff1673ffffffffffffffffffffffffffffffffffffffff1681526020019250505060206040518083038186803b15801561128b57600080fd5b505afa15801561129f573d6000803e3d6000fd5b505050506040513d60208110156112b557600080fd5b810190808051906020019092919050505015151461131e576040517f08c379a0000000000000000000000000000000000000000000000000000000008152600401808060200182810382526033815260200180615b7d6033913960400191505060405180910390fd5b60011515600160009054906101000a900473ffffffffffffffffffffffffffffffffffffffff1673ffffffffffffffffffffffffffffffffffffffff16639cc5804884336040518363ffffffff1660e01b8152600401808381526020018273ffffffffffffffffffffffffffffffffffffffff1673ffffffffffffffffffffffffffffffffffffffff1681526020019250505060206040518083038186803b1580156113c957600080fd5b505afa1580156113dd573d6000803e3d6000fd5b505050506040513d60208110156113f357600080fd5b810190808051906020019092919050505015151461145c576040517f08c379a000000000000000000000000000000000000000000000000000000000815260040180806020018281038252602b815260200180615bda602b913960400191505060405180910390fd5b61179d565b60405160200180807f6e75727365000000000000000000000000000000000000000000000000000000815250600501905060405160208183030381529060405280519060200120816040516020018082805190602001908083835b602083106114df57805182526020820191506020810190506020830392506114bc565b6001836020036101000a03801982511681845116808217855250505050505090500191505060405160208183030381529060405280519060200120141561179c57600115156000809054906101000a900473ffffffffffffffffffffffffffffffffffffffff1673ffffffffffffffffffffffffffffffffffffffff1663c412e7ba84336040518363ffffffff1660e01b8152600401808381526020018273ffffffffffffffffffffffffffffffffffffffff1673ffffffffffffffffffffffffffffffffffffffff1681526020019250505060206040518083038186803b1580156115ca57600080fd5b505afa1580156115de573d6000803e3d6000fd5b505050506040513d60208110156115f457600080fd5b810190808051906020019092919050505015151461165d576040517f08c379a0000000000000000000000000000000000000000000000000000000008152600401808060200182810382526031815260200180615c056031913960400191505060405180910390fd5b60011515600260009054906101000a900473ffffffffffffffffffffffffffffffffffffffff1673ffffffffffffffffffffffffffffffffffffffff16639cc5804884336040518363ffffffff1660e01b8152600401808381526020018273ffffffffffffffffffffffffffffffffffffffff1673ffffffffffffffffffffffffffffffffffffffff1681526020019250505060206040518083038186803b15801561170857600080fd5b505afa15801561171c573d6000803e3d6000fd5b505050506040513d602081101561173257600080fd5b810190808051906020019092919050505015151461179b576040517f08c379a000000000000000000000000000000000000000000000000000000000815260040180806020018281038252602a815260200180615bb0602a913960400191505060405180910390fd5b5b5b8960011515600360009054906101000a900473ffffffffffffffffffffffffffffffffffffffff1673ffffffffffffffffffffffffffffffffffffffff166327d6030b836040518263ffffffff1660e01b81526004018082815260200191505060206040518083038186803b15801561181557600080fd5b505afa158015611829573d6000803e3d6000fd5b505050506040513d602081101561183f57600080fd5b81019080805190602001909291905050501515146118c5576040517f08c379a000000000000000000000000000000000000000000000000000000000815260040180806020018281038252601c8152602001807f5265636f726420494420676976656e206973206e6f742076616c69640000000081525060200191505060405180910390fd5b600360009054906101000a900473ffffffffffffffffffffffffffffffffffffffff1673ffffffffffffffffffffffffffffffffffffffff166303e9e6098c6040518263ffffffff1660e01b81526004018082815260200191505060006040518083038186803b15801561193857600080fd5b505afa15801561194c573d6000803e3d6000fd5b505050506040513d6000823e3d601f19601f8201168201806040525060e081101561197657600080fd5b810190808051906020019092919080519060200190929190805160405193929190846401000000008211156119aa57600080fd5b838201915060208201858111156119c057600080fd5b82518660018202830111640100000000821117156119dd57600080fd5b8083526020830192505050908051906020019080838360005b83811015611a115780820151818401526020810190506119f6565b50505050905090810190601f168015611a3e5780820380516001836020036101000a031916815260200191505b5060405260200180519060200190929190805190602001909291908051906020019092919080519060200190929190505050995099509950995099509950995050505092959891949750929550565b6060816060611a9a612402565b905060405160200180807f646f63746f720000000000000000000000000000000000000000000000000000815250600601905060405160208183030381529060405280519060200120816040516020018082805190602001908083835b60208310611b1a5780518252602082019150602081019050602083039250611af7565b6001836020036101000a038019825116818451168082178552505050505050905001915050604051602081830303815290604052805190602001201415611ddb57600115156000809054906101000a900473ffffffffffffffffffffffffffffffffffffffff1673ffffffffffffffffffffffffffffffffffffffff1663b01df35184336040518363ffffffff1660e01b8152600401808381526020018273ffffffffffffffffffffffffffffffffffffffff1673ffffffffffffffffffffffffffffffffffffffff1681526020019250505060206040518083038186803b158015611c0557600080fd5b505afa158015611c19573d6000803e3d6000fd5b505050506040513d6020811015611c2f57600080fd5b8101908080519060200190929190505050151514611c98576040517f08c379a0000000000000000000000000000000000000000000000000000000008152600401808060200182810382526033815260200180615b7d6033913960400191505060405180910390fd5b60011515600160009054906101000a900473ffffffffffffffffffffffffffffffffffffffff1673ffffffffffffffffffffffffffffffffffffffff16639cc5804884336040518363ffffffff1660e01b8152600401808381526020018273ffffffffffffffffffffffffffffffffffffffff1673ffffffffffffffffffffffffffffffffffffffff1681526020019250505060206040518083038186803b158015611d4357600080fd5b505afa158015611d57573d6000803e3d6000fd5b505050506040513d6020811015611d6d57600080fd5b8101908080519060200190929190505050151514611dd6576040517f08c379a000000000000000000000000000000000000000000000000000000000815260040180806020018281038252602b815260200180615bda602b913960400191505060405180910390fd5b612117565b60405160200180807f6e75727365000000000000000000000000000000000000000000000000000000815250600501905060405160208183030381529060405280519060200120816040516020018082805190602001908083835b60208310611e595780518252602082019150602081019050602083039250611e36565b6001836020036101000a03801982511681845116808217855250505050505090500191505060405160208183030381529060405280519060200120141561211657600115156000809054906101000a900473ffffffffffffffffffffffffffffffffffffffff1673ffffffffffffffffffffffffffffffffffffffff1663c412e7ba84336040518363ffffffff1660e01b8152600401808381526020018273ffffffffffffffffffffffffffffffffffffffff1673ffffffffffffffffffffffffffffffffffffffff1681526020019250505060206040518083038186803b158015611f4457600080fd5b505afa158015611f58573d6000803e3d6000fd5b505050506040513d6020811015611f6e57600080fd5b8101908080519060200190929190505050151514611fd7576040517f08c379a0000000000000000000000000000000000000000000000000000000008152600401808060200182810382526031815260200180615c056031913960400191505060405180910390fd5b60011515600260009054906101000a900473ffffffffffffffffffffffffffffffffffffffff1673ffffffffffffffffffffffffffffffffffffffff16639cc5804884336040518363ffffffff1660e01b8152600401808381526020018273ffffffffffffffffffffffffffffffffffffffff1673ffffffffffffffffffffffffffffffffffffffff1681526020019250505060206040518083038186803b15801561208257600080fd5b505afa158015612096573d6000803e3d6000fd5b505050506040513d60208110156120ac57600080fd5b8101908080519060200190929190505050151514612115576040517f08c379a000000000000000000000000000000000000000000000000000000000815260040180806020018281038252602a815260200180615bb0602a913960400191505060405180910390fd5b5b5b6000809054906101000a900473ffffffffffffffffffffffffffffffffffffffff1673ffffffffffffffffffffffffffffffffffffffff1663092db902856000809054906101000a900473ffffffffffffffffffffffffffffffffffffffff1673ffffffffffffffffffffffffffffffffffffffff1663097ee8cd886040518263ffffffff1660e01b81526004018082815260200191505060206040518083038186803b1580156121c757600080fd5b505afa1580156121db573d6000803e3d6000fd5b505050506040513d60208110156121f157600080fd5b81019080805190602001909291905050506040518363ffffffff1660e01b8152600401808381526020018273ffffffffffffffffffffffffffffffffffffffff1673ffffffffffffffffffffffffffffffffffffffff1681526020019250505060006040518083038186803b15801561226957600080fd5b505afa15801561227d573d6000803e3d6000fd5b505050506040513d6000823e3d601f19601f8201168201806040525060208110156122a757600080fd5b81019080805160405193929190846401000000008211156122c757600080fd5b838201915060208201858111156122dd57600080fd5b82518660208202830111640100000000821117156122fa57600080fd5b8083526020830192505050908051906020019060200280838360005b83811015612331578082015181840152602081019050612316565b5050505090500160405250505092505050919050565b7fa2a84ba412bea53801a40b8bbb06e1e17f397fe84c7f93e85308f060e8252dda60405160405180910390a16000809054906101000a900473ffffffffffffffffffffffffffffffffffffffff1673ffffffffffffffffffffffffffffffffffffffff1663303c9672826040518263ffffffff1660e01b815260040180828152602001915050600060405180830381600087803b1580156123e757600080fd5b505af11580156123fb573d6000803e3d6000fd5b5050505050565b6060600160009054906101000a900473ffffffffffffffffffffffffffffffffffffffff1673ffffffffffffffffffffffffffffffffffffffff1663e3843463336040518263ffffffff1660e01b8152600401808273ffffffffffffffffffffffffffffffffffffffff1673ffffffffffffffffffffffffffffffffffffffff16815260200191505060206040518083038186803b1580156124a357600080fd5b505afa1580156124b7573d6000803e3d6000fd5b505050506040513d60208110156124cd57600080fd5b810190808051906020019092919050505015612520576040518060400160405280600681526020017f646f63746f72000000000000000000000000000000000000000000000000000081525090506128ac565b6000809054906101000a900473ffffffffffffffffffffffffffffffffffffffff1673ffffffffffffffffffffffffffffffffffffffff1663e3843463336040518263ffffffff1660e01b8152600401808273ffffffffffffffffffffffffffffffffffffffff1673ffffffffffffffffffffffffffffffffffffffff16815260200191505060206040518083038186803b1580156125be57600080fd5b505afa1580156125d2573d6000803e3d6000fd5b505050506040513d60208110156125e857600080fd5b81019080805190602001909291905050501561263b576040518060400160405280600781526020017f70617469656e740000000000000000000000000000000000000000000000000081525090506128ac565b600260009054906101000a900473ffffffffffffffffffffffffffffffffffffffff1673ffffffffffffffffffffffffffffffffffffffff1663e3843463336040518263ffffffff1660e01b8152600401808273ffffffffffffffffffffffffffffffffffffffff1673ffffffffffffffffffffffffffffffffffffffff16815260200191505060206040518083038186803b1580156126da57600080fd5b505afa1580156126ee573d6000803e3d6000fd5b505050506040513d602081101561270457600080fd5b810190808051906020019092919050505015612757576040518060400160405280600581526020017f6e7572736500000000000000000000000000000000000000000000000000000081525090506128ac565b600460009054906101000a900473ffffffffffffffffffffffffffffffffffffffff1673ffffffffffffffffffffffffffffffffffffffff1663e3843463336040518263ffffffff1660e01b8152600401808273ffffffffffffffffffffffffffffffffffffffff1673ffffffffffffffffffffffffffffffffffffffff16815260200191505060206040518083038186803b1580156127f657600080fd5b505afa15801561280a573d6000803e3d6000fd5b505050506040513d602081101561282057600080fd5b810190808051906020019092919050505015612873576040518060400160405280600a81526020017f726573656172636865720000000000000000000000000000000000000000000081525090506128ac565b6040518060400160405280600781526020017f756e6b6e6f776e0000000000000000000000000000000000000000000000000081525090505b90565b6060600115156000809054906101000a900473ffffffffffffffffffffffffffffffffffffffff1673ffffffffffffffffffffffffffffffffffffffff1663e3843463336040518263ffffffff1660e01b8152600401808273ffffffffffffffffffffffffffffffffffffffff1673ffffffffffffffffffffffffffffffffffffffff16815260200191505060206040518083038186803b15801561295357600080fd5b505afa158015612967573d6000803e3d6000fd5b505050506040513d602081101561297d57600080fd5b81019080805190602001909291905050501515146129e6576040517f08c379a0000000000000000000000000000000000000000000000000000000008152600401808060200182810382526028815260200180615b556028913960400191505060405180910390fd5b81600115156000809054906101000a900473ffffffffffffffffffffffffffffffffffffffff1673ffffffffffffffffffffffffffffffffffffffff16634b654378836040518263ffffffff1660e01b81526004018082815260200191505060206040518083038186803b158015612a5d57600080fd5b505afa158015612a71573d6000803e3d6000fd5b505050506040513d6020811015612a8757600080fd5b8101908080519060200190929190505050151514612b0d576040517f08c379a000000000000000000000000000000000000000000000000000000000815260040180806020018281038252601d8152602001807f50617469656e7420494420676976656e206973206e6f742076616c696400000081525060200191505060405180910390fd5b6000809054906101000a900473ffffffffffffffffffffffffffffffffffffffff1673ffffffffffffffffffffffffffffffffffffffff16631bcec2e8846040518263ffffffff1660e01b81526004018082815260200191505060006040518083038186803b158015612b7f57600080fd5b505afa158015612b93573d6000803e3d6000fd5b505050506040513d6000823e3d601f19601f820116820180604052506020811015612bbd57600080fd5b8101908080516040519392919084640100000000821115612bdd57600080fd5b83820191506020820185811115612bf357600080fd5b8251866020820283011164010000000082111715612c1057600080fd5b8083526020830192505050908051906020019060200280838360005b83811015612c47578082015181840152602081019050612c2c565b50505050905001604052505050915050919050565b7f29bbef1b7f83e9b51d408e3ac98f6645d3164c664af051f9d539cde923e86a1c60405160405180910390a16000809054906101000a900473ffffffffffffffffffffffffffffffffffffffff1673ffffffffffffffffffffffffffffffffffffffff16635470e80483836040518363ffffffff1660e01b8152600401808381526020018273ffffffffffffffffffffffffffffffffffffffff1673ffffffffffffffffffffffffffffffffffffffff16815260200192505050600060405180830381600087803b158015612d3057600080fd5b505af1158015612d44573d6000803e3d6000fd5b505050505050565b600060608060608060405160200180807f7265736561726368657200000000000000000000000000000000000000000000815250600a01905060405160208183030381529060405280519060200120612da3612402565b6040516020018082805190602001908083835b60208310612dd95780518252602082019150602081019050602083039250612db6565b6001836020036101000a0380198251168184511680821785525050505050509050019150506040516020818303038152906040528051906020012014612e87576040517f08c379a00000000000000000000000000000000000000000000000000000000081526004018080602001828103825260208152602001807f5468697320706572736f6e206973206e6f74206120726573656172636865722181525060200191505060405180910390fd5b856000809054906101000a900473ffffffffffffffffffffffffffffffffffffffff1673ffffffffffffffffffffffffffffffffffffffff1663834fa06e826040518263ffffffff1660e01b81526004018082815260200191505060206040518083038186803b158015612efa57600080fd5b505afa158015612f0e573d6000803e3d6000fd5b505050506040513d6020811015612f2457600080fd5b8101908080519060200190929190505050612f8a576040517f08c379a0000000000000000000000000000000000000000000000000000000008152600401808060200182810382526033815260200180615c366033913960400191505060405180910390fd5b6000809054906101000a900473ffffffffffffffffffffffffffffffffffffffff1673ffffffffffffffffffffffffffffffffffffffff16630178fe3f886040518263ffffffff1660e01b81526004018082815260200191505060006040518083038186803b158015612ffc57600080fd5b505afa158015613010573d6000803e3d6000fd5b505050506040513d6000823e3d601f19601f8201168201806040525060a081101561303a57600080fd5b81019080805190602001909291908051604051939291908464010000000082111561306457600080fd5b8382019150602082018581111561307a57600080fd5b825186600182028301116401000000008211171561309757600080fd5b8083526020830192505050908051906020019080838360005b838110156130cb5780820151818401526020810190506130b0565b50505050905090810190601f1680156130f85780820380516001836020036101000a031916815260200191505b506040526020018051604051939291908464010000000082111561311b57600080fd5b8382019150602082018581111561313157600080fd5b825186600182028301116401000000008211171561314e57600080fd5b8083526020830192505050908051906020019080838360005b83811015613182578082015181840152602081019050613167565b50505050905090810190601f1680156131af5780820380516001836020036101000a031916815260200191505b50604052602001805160405193929190846401000000008211156131d257600080fd5b838201915060208201858111156131e857600080fd5b825186600182028301116401000000008211171561320557600080fd5b8083526020830192505050908051906020019080838360005b8381101561323957808201518184015260208101905061321e565b50505050905090810190601f1680156132665780820380516001836020036101000a031916815260200191505b506040526020018051604051939291908464010000000082111561328957600080fd5b8382019150602082018581111561329f57600080fd5b82518660018202830111640100000000821117156132bc57600080fd5b8083526020830192505050908051906020019080838360005b838110156132f05780820151818401526020810190506132d5565b50505050905090810190601f16801561331d5780820380516001836020036101000a031916815260200191505b50604052505050955095509550955095505091939590929450565b6060600115156000809054906101000a900473ffffffffffffffffffffffffffffffffffffffff1673ffffffffffffffffffffffffffffffffffffffff1663e3843463336040518263ffffffff1660e01b8152600401808273ffffffffffffffffffffffffffffffffffffffff1673ffffffffffffffffffffffffffffffffffffffff16815260200191505060206040518083038186803b1580156133dc57600080fd5b505afa1580156133f0573d6000803e3d6000fd5b505050506040513d602081101561340657600080fd5b810190808051906020019092919050505015151461346f576040517f08c379a0000000000000000000000000000000000000000000000000000000008152600401808060200182810382526028815260200180615b556028913960400191505060405180910390fd5b82600115156000809054906101000a900473ffffffffffffffffffffffffffffffffffffffff1673ffffffffffffffffffffffffffffffffffffffff16634b654378836040518263ffffffff1660e01b81526004018082815260200191505060206040518083038186803b1580156134e657600080fd5b505afa1580156134fa573d6000803e3d6000fd5b505050506040513d602081101561351057600080fd5b8101908080519060200190929190505050151514613596576040517f08c379a000000000000000000000000000000000000000000000000000000000815260040180806020018281038252601d8152602001807f50617469656e7420494420676976656e206973206e6f742076616c696400000081525060200191505060405180910390fd5b6000809054906101000a900473ffffffffffffffffffffffffffffffffffffffff1673ffffffffffffffffffffffffffffffffffffffff16639ab4e6248533866040518463ffffffff1660e01b8152600401808481526020018373ffffffffffffffffffffffffffffffffffffffff1673ffffffffffffffffffffffffffffffffffffffff16815260200182600781111561362d57fe5b60ff168152602001935050505060006040518083038186803b15801561365257600080fd5b505afa158015613666573d6000803e3d6000fd5b505050506040513d6000823e3d601f19601f82011682018060405250602081101561369057600080fd5b81019080805160405193929190846401000000008211156136b057600080fd5b838201915060208201858111156136c657600080fd5b82518660208202830111640100000000821117156136e357600080fd5b8083526020830192505050908051906020019060200280838360005b8381101561371a5780820151818401526020810190506136ff565b5050505090500160405250505091505092915050565b7fdcd9c7fa0342f01013bd0bf2bec103a81936162dcebd1f0c38b1d4164c17e0fc816040518082815260200191505060405180910390a150565b7f3cd5c35cdbdbab148903c80d8ffcfc65e2978e15cff0b07bfd36b59e6d6bb8f960405160405180910390a16000809054906101000a900473ffffffffffffffffffffffffffffffffffffffff1673ffffffffffffffffffffffffffffffffffffffff1663bb4182c383836040518363ffffffff1660e01b8152600401808381526020018273ffffffffffffffffffffffffffffffffffffffff1673ffffffffffffffffffffffffffffffffffffffff16815260200192505050600060405180830381600087803b15801561383e57600080fd5b505af1158015613852573d6000803e3d6000fd5b505050505050565b6000826060613867612402565b905060405160200180807f646f63746f720000000000000000000000000000000000000000000000000000815250600601905060405160208183030381529060405280519060200120816040516020018082805190602001908083835b602083106138e757805182526020820191506020810190506020830392506138c4565b6001836020036101000a038019825116818451168082178552505050505050905001915050604051602081830303815290604052805190602001201415613ba857600115156000809054906101000a900473ffffffffffffffffffffffffffffffffffffffff1673ffffffffffffffffffffffffffffffffffffffff1663b01df35184336040518363ffffffff1660e01b8152600401808381526020018273ffffffffffffffffffffffffffffffffffffffff1673ffffffffffffffffffffffffffffffffffffffff1681526020019250505060206040518083038186803b1580156139d257600080fd5b505afa1580156139e6573d6000803e3d6000fd5b505050506040513d60208110156139fc57600080fd5b8101908080519060200190929190505050151514613a65576040517f08c379a0000000000000000000000000000000000000000000000000000000008152600401808060200182810382526033815260200180615b7d6033913960400191505060405180910390fd5b60011515600160009054906101000a900473ffffffffffffffffffffffffffffffffffffffff1673ffffffffffffffffffffffffffffffffffffffff16639cc5804884336040518363ffffffff1660e01b8152600401808381526020018273ffffffffffffffffffffffffffffffffffffffff1673ffffffffffffffffffffffffffffffffffffffff1681526020019250505060206040518083038186803b158015613b1057600080fd5b505afa158015613b24573d6000803e3d6000fd5b505050506040513d6020811015613b3a57600080fd5b8101908080519060200190929190505050151514613ba3576040517f08c379a000000000000000000000000000000000000000000000000000000000815260040180806020018281038252602b815260200180615bda602b913960400191505060405180910390fd5b613ee4565b60405160200180807f6e75727365000000000000000000000000000000000000000000000000000000815250600501905060405160208183030381529060405280519060200120816040516020018082805190602001908083835b60208310613c265780518252602082019150602081019050602083039250613c03565b6001836020036101000a038019825116818451168082178552505050505050905001915050604051602081830303815290604052805190602001201415613ee357600115156000809054906101000a900473ffffffffffffffffffffffffffffffffffffffff1673ffffffffffffffffffffffffffffffffffffffff1663c412e7ba84336040518363ffffffff1660e01b8152600401808381526020018273ffffffffffffffffffffffffffffffffffffffff1673ffffffffffffffffffffffffffffffffffffffff1681526020019250505060206040518083038186803b158015613d1157600080fd5b505afa158015613d25573d6000803e3d6000fd5b505050506040513d6020811015613d3b57600080fd5b8101908080519060200190929190505050151514613da4576040517f08c379a0000000000000000000000000000000000000000000000000000000008152600401808060200182810382526031815260200180615c056031913960400191505060405180910390fd5b60011515600260009054906101000a900473ffffffffffffffffffffffffffffffffffffffff1673ffffffffffffffffffffffffffffffffffffffff16639cc5804884336040518363ffffffff1660e01b8152600401808381526020018273ffffffffffffffffffffffffffffffffffffffff1673ffffffffffffffffffffffffffffffffffffffff1681526020019250505060206040518083038186803b158015613e4f57600080fd5b505afa158015613e63573d6000803e3d6000fd5b505050506040513d6020811015613e7957600080fd5b8101908080519060200190929190505050151514613ee2576040517f08c379a000000000000000000000000000000000000000000000000000000000815260040180806020018281038252602a815260200180615bb0602a913960400191505060405180910390fd5b5b5b600360009054906101000a900473ffffffffffffffffffffffffffffffffffffffff1673ffffffffffffffffffffffffffffffffffffffff166383ac1d0787866000809054906101000a900473ffffffffffffffffffffffffffffffffffffffff1673ffffffffffffffffffffffffffffffffffffffff1663097ee8cd8a6040518263ffffffff1660e01b81526004018082815260200191505060206040518083038186803b158015613f9657600080fd5b505afa158015613faa573d6000803e3d6000fd5b505050506040513d6020811015613fc057600080fd5b8101908080519060200190929190505050336040518563ffffffff1660e01b815260040180856007811115613ff157fe5b60ff168152602001806020018473ffffffffffffffffffffffffffffffffffffffff1673ffffffffffffffffffffffffffffffffffffffff1681526020018373ffffffffffffffffffffffffffffffffffffffff1673ffffffffffffffffffffffffffffffffffffffff168152602001828103825285818151815260200191508051906020019080838360005b8381101561409957808201518184015260208101905061407e565b50505050905090810190601f1680156140c65780820380516001836020036101000a031916815260200191505b5095505050505050602060405180830381600087803b1580156140e857600080fd5b505af11580156140fc573d6000803e3d6000fd5b505050506040513d602081101561411257600080fd5b810190808051906020019092919050505092506000809054906101000a900473ffffffffffffffffffffffffffffffffffffffff1673ffffffffffffffffffffffffffffffffffffffff16638fa3b5c786856040518363ffffffff1660e01b81526004018083815260200182815260200192505050600060405180830381600087803b1580156141a157600080fd5b505af11580156141b5573d6000803e3d6000fd5b505050507fa3864107517fb55756a302ce7374eafe6be466bc7c6c7eae4b5879bb19fe4ac060405160405180910390a182925050509392505050565b600160009054906101000a900473ffffffffffffffffffffffffffffffffffffffff1673ffffffffffffffffffffffffffffffffffffffff1663ae185dce83836040518363ffffffff1660e01b81526004018083815260200182815260200192505050600060405180830381600087803b15801561426e57600080fd5b505af1158015614282573d6000803e3d6000fd5b505050505050565b6060600115156000809054906101000a900473ffffffffffffffffffffffffffffffffffffffff1673ffffffffffffffffffffffffffffffffffffffff1663e3843463336040518263ffffffff1660e01b8152600401808273ffffffffffffffffffffffffffffffffffffffff1673ffffffffffffffffffffffffffffffffffffffff16815260200191505060206040518083038186803b15801561432e57600080fd5b505afa158015614342573d6000803e3d6000fd5b505050506040513d602081101561435857600080fd5b81019080805190602001909291905050501515146143c1576040517f08c379a0000000000000000000000000000000000000000000000000000000008152600401808060200182810382526028815260200180615b556028913960400191505060405180910390fd5b6000809054906101000a900473ffffffffffffffffffffffffffffffffffffffff1673ffffffffffffffffffffffffffffffffffffffff1663d423a1008433600260009054906101000a900473ffffffffffffffffffffffffffffffffffffffff1673ffffffffffffffffffffffffffffffffffffffff1663f1998f64876040518263ffffffff1660e01b81526004018082815260200191505060206040518083038186803b15801561447357600080fd5b505afa158015614487573d6000803e3d6000fd5b505050506040513d602081101561449d57600080fd5b81019080805190602001909291905050506040518463ffffffff1660e01b8152600401808481526020018373ffffffffffffffffffffffffffffffffffffffff1673ffffffffffffffffffffffffffffffffffffffff1681526020018273ffffffffffffffffffffffffffffffffffffffff1673ffffffffffffffffffffffffffffffffffffffff168152602001935050505060006040518083038186803b15801561454857600080fd5b505afa15801561455c573d6000803e3d6000fd5b505050506040513d6000823e3d601f19601f82011682018060405250602081101561458657600080fd5b81019080805160405193929190846401000000008211156145a657600080fd5b838201915060208201858111156145bc57600080fd5b82518660208202830111640100000000821117156145d957600080fd5b8083526020830192505050908051906020019060200280838360005b838110156146105780820151818401526020810190506145f5565b50505050905001604052505050905092915050565b7fb159a57c444ee3ed6158798469f5395fa80148bc3b127733920d04e7bc76a71b60405160405180910390a16000809054906101000a900473ffffffffffffffffffffffffffffffffffffffff1673ffffffffffffffffffffffffffffffffffffffff1663d87ce24283836040518363ffffffff1660e01b8152600401808381526020018273ffffffffffffffffffffffffffffffffffffffff1673ffffffffffffffffffffffffffffffffffffffff16815260200192505050600060405180830381600087803b1580156146f957600080fd5b505af115801561470d573d6000803e3d6000fd5b505050505050565b6060600115156000809054906101000a900473ffffffffffffffffffffffffffffffffffffffff1673ffffffffffffffffffffffffffffffffffffffff1663e3843463336040518263ffffffff1660e01b8152600401808273ffffffffffffffffffffffffffffffffffffffff1673ffffffffffffffffffffffffffffffffffffffff16815260200191505060206040518083038186803b1580156147b957600080fd5b505afa1580156147cd573d6000803e3d6000fd5b505050506040513d60208110156147e357600080fd5b810190808051906020019092919050505015151461484c576040517f08c379a0000000000000000000000000000000000000000000000000000000008152600401808060200182810382526028815260200180615b556028913960400191505060405180910390fd5b6000809054906101000a900473ffffffffffffffffffffffffffffffffffffffff1673ffffffffffffffffffffffffffffffffffffffff1663d423a1008433600160009054906101000a900473ffffffffffffffffffffffffffffffffffffffff1673ffffffffffffffffffffffffffffffffffffffff16631851611c876040518263ffffffff1660e01b81526004018082815260200191505060206040518083038186803b1580156148fe57600080fd5b505afa158015614912573d6000803e3d6000fd5b505050506040513d602081101561492857600080fd5b81019080805190602001909291905050506040518463ffffffff1660e01b8152600401808481526020018373ffffffffffffffffffffffffffffffffffffffff1673ffffffffffffffffffffffffffffffffffffffff1681526020018273ffffffffffffffffffffffffffffffffffffffff1673ffffffffffffffffffffffffffffffffffffffff168152602001935050505060006040518083038186803b1580156149d357600080fd5b505afa1580156149e7573d6000803e3d6000fd5b505050506040513d6000823e3d601f19601f820116820180604052506020811015614a1157600080fd5b8101908080516040519392919084640100000000821115614a3157600080fd5b83820191506020820185811115614a4757600080fd5b8251866020820283011164010000000082111715614a6457600080fd5b8083526020830192505050908051906020019060200280838360005b83811015614a9b578082015181840152602081019050614a80565b50505050905001604052505050905092915050565b600115156000809054906101000a900473ffffffffffffffffffffffffffffffffffffffff1673ffffffffffffffffffffffffffffffffffffffff1663e3843463336040518263ffffffff1660e01b8152600401808273ffffffffffffffffffffffffffffffffffffffff1673ffffffffffffffffffffffffffffffffffffffff16815260200191505060206040518083038186803b158015614b5257600080fd5b505afa158015614b66573d6000803e3d6000fd5b505050506040513d6020811015614b7c57600080fd5b8101908080519060200190929190505050151514614be5576040517f08c379a0000000000000000000000000000000000000000000000000000000008152600401808060200182810382526028815260200180615b556028913960400191505060405180910390fd5b8060011515600360009054906101000a900473ffffffffffffffffffffffffffffffffffffffff1673ffffffffffffffffffffffffffffffffffffffff166327d6030b836040518263ffffffff1660e01b81526004018082815260200191505060206040518083038186803b158015614c5d57600080fd5b505afa158015614c71573d6000803e3d6000fd5b505050506040513d6020811015614c8757600080fd5b8101908080519060200190929190505050151514614d0d576040517f08c379a000000000000000000000000000000000000000000000000000000000815260040180806020018281038252601c8152602001807f5265636f726420494420676976656e206973206e6f742076616c69640000000081525060200191505060405180910390fd5b8160011515600360009054906101000a900473ffffffffffffffffffffffffffffffffffffffff1673ffffffffffffffffffffffffffffffffffffffff16630224ad4483336040518363ffffffff1660e01b8152600401808381526020018273ffffffffffffffffffffffffffffffffffffffff1673ffffffffffffffffffffffffffffffffffffffff1681526020019250505060206040518083038186803b158015614db957600080fd5b505afa158015614dcd573d6000803e3d6000fd5b505050506040513d6020811015614de357600080fd5b8101908080519060200190929190505050151514614e4c576040517f08c379a0000000000000000000000000000000000000000000000000000000008152600401808060200182810382526026815260200180615c696026913960400191505060405180910390fd5b7f965d05df335fb498d945e6826668e08d971c0713b278527013053d361be2b59860405160405180910390a16000809054906101000a900473ffffffffffffffffffffffffffffffffffffffff1673ffffffffffffffffffffffffffffffffffffffff1663a3f477f46000809054906101000a900473ffffffffffffffffffffffffffffffffffffffff1673ffffffffffffffffffffffffffffffffffffffff1663a3005b49336040518263ffffffff1660e01b8152600401808273ffffffffffffffffffffffffffffffffffffffff1673ffffffffffffffffffffffffffffffffffffffff16815260200191505060206040518083038186803b158015614f5357600080fd5b505afa158015614f67573d6000803e3d6000fd5b505050506040513d6020811015614f7d57600080fd5b8101908080519060200190929190505050856040518363ffffffff1660e01b81526004018083815260200182815260200192505050600060405180830381600087803b158015614fcc57600080fd5b505af1158015614fe0573d6000803e3d6000fd5b50505050505050565b606060405160200180807f7265736561726368657200000000000000000000000000000000000000000000815250600a0190506040516020818303038152906040528051906020012061503a612402565b6040516020018082805190602001908083835b60208310615070578051825260208201915060208101905060208303925061504d565b6001836020036101000a038019825116818451168082178552505050505050905001915050604051602081830303815290604052805190602001201461511e576040517f08c379a00000000000000000000000000000000000000000000000000000000081526004018080602001828103825260208152602001807f5468697320706572736f6e206973206e6f74206120726573656172636865722181525060200191505060405180910390fd5b7f89be633ca6bdcf03e1d1e4304c9db3cc86fdfbe82edbb144681a1fffb2155ff460405160405180910390a16000809054906101000a900473ffffffffffffffffffffffffffffffffffffffff1673ffffffffffffffffffffffffffffffffffffffff166311fc621d6040518163ffffffff1660e01b815260040160006040518083038186803b1580156151b157600080fd5b505afa1580156151c5573d6000803e3d6000fd5b505050506040513d6000823e3d601f19601f8201168201806040525060208110156151ef57600080fd5b810190808051604051939291908464010000000082111561520f57600080fd5b8382019150602082018581111561522557600080fd5b825186602082028301116401000000008211171561524257600080fd5b8083526020830192505050908051906020019060200280838360005b8381101561527957808201518184015260208101905061525e565b50505050905001604052505050905090565b836060615296612402565b905060405160200180807f646f63746f720000000000000000000000000000000000000000000000000000815250600601905060405160208183030381529060405280519060200120816040516020018082805190602001908083835b6020831061531657805182526020820191506020810190506020830392506152f3565b6001836020036101000a0380198251168184511680821785525050505050509050019150506040516020818303038152906040528051906020012014156155d757600115156000809054906101000a900473ffffffffffffffffffffffffffffffffffffffff1673ffffffffffffffffffffffffffffffffffffffff1663b01df35184336040518363ffffffff1660e01b8152600401808381526020018273ffffffffffffffffffffffffffffffffffffffff1673ffffffffffffffffffffffffffffffffffffffff1681526020019250505060206040518083038186803b15801561540157600080fd5b505afa158015615415573d6000803e3d6000fd5b505050506040513d602081101561542b57600080fd5b8101908080519060200190929190505050151514615494576040517f08c379a0000000000000000000000000000000000000000000000000000000008152600401808060200182810382526033815260200180615b7d6033913960400191505060405180910390fd5b60011515600160009054906101000a900473ffffffffffffffffffffffffffffffffffffffff1673ffffffffffffffffffffffffffffffffffffffff16639cc5804884336040518363ffffffff1660e01b8152600401808381526020018273ffffffffffffffffffffffffffffffffffffffff1673ffffffffffffffffffffffffffffffffffffffff1681526020019250505060206040518083038186803b15801561553f57600080fd5b505afa158015615553573d6000803e3d6000fd5b505050506040513d602081101561556957600080fd5b81019080805190602001909291905050501515146155d2576040517f08c379a000000000000000000000000000000000000000000000000000000000815260040180806020018281038252602b815260200180615bda602b913960400191505060405180910390fd5b615913565b60405160200180807f6e75727365000000000000000000000000000000000000000000000000000000815250600501905060405160208183030381529060405280519060200120816040516020018082805190602001908083835b602083106156555780518252602082019150602081019050602083039250615632565b6001836020036101000a03801982511681845116808217855250505050505090500191505060405160208183030381529060405280519060200120141561591257600115156000809054906101000a900473ffffffffffffffffffffffffffffffffffffffff1673ffffffffffffffffffffffffffffffffffffffff1663c412e7ba84336040518363ffffffff1660e01b8152600401808381526020018273ffffffffffffffffffffffffffffffffffffffff1673ffffffffffffffffffffffffffffffffffffffff1681526020019250505060206040518083038186803b15801561574057600080fd5b505afa158015615754573d6000803e3d6000fd5b505050506040513d602081101561576a57600080fd5b81019080805190602001909291905050501515146157d3576040517f08c379a0000000000000000000000000000000000000000000000000000000008152600401808060200182810382526031815260200180615c056031913960400191505060405180910390fd5b60011515600260009054906101000a900473ffffffffffffffffffffffffffffffffffffffff1673ffffffffffffffffffffffffffffffffffffffff16639cc5804884336040518363ffffffff1660e01b8152600401808381526020018273ffffffffffffffffffffffffffffffffffffffff1673ffffffffffffffffffffffffffffffffffffffff1681526020019250505060206040518083038186803b15801561587e57600080fd5b505afa158015615892573d6000803e3d6000fd5b505050506040513d60208110156158a857600080fd5b8101908080519060200190929190505050151514615911576040517f08c379a000000000000000000000000000000000000000000000000000000000815260040180806020018281038252602a815260200180615bb0602a913960400191505060405180910390fd5b5b5b8460011515600360009054906101000a900473ffffffffffffffffffffffffffffffffffffffff1673ffffffffffffffffffffffffffffffffffffffff166327d6030b836040518263ffffffff1660e01b81526004018082815260200191505060206040518083038186803b15801561598b57600080fd5b505afa15801561599f573d6000803e3d6000fd5b505050506040513d60208110156159b557600080fd5b8101908080519060200190929190505050151514615a3b576040517f08c379a000000000000000000000000000000000000000000000000000000000815260040180806020018281038252601c8152602001807f5265636f726420494420676976656e206973206e6f742076616c69640000000081525060200191505060405180910390fd5b600360009054906101000a900473ffffffffffffffffffffffffffffffffffffffff1673ffffffffffffffffffffffffffffffffffffffff16636a5cb5d88787876040518463ffffffff1660e01b815260040180848152602001836007811115615aa157fe5b60ff16815260200180602001828103825283818151815260200191508051906020019080838360005b83811015615ae5578082015181840152602081019050615aca565b50505050905090810190601f168015615b125780820380516001836020036101000a031916815260200191505b50945050505050600060405180830381600087803b158015615b3357600080fd5b505af1158015615b47573d6000803e3d6000fd5b505050505050505050505056fe50617469656e74206973206e6f7420616c6c6f77656420746f20646f207468697320616374696f6e446f63746f72206973206e6f7420696e2070617469656e742773206c697374206f6620617070726f76656420646f63746f727350617469656e74206973206e6f7420696e206e757273652773206c697374206f662070617469656e747350617469656e74206973206e6f7420696e20646f63746f722773206c697374206f662070617469656e74734e75727365206973206e6f7420696e2070617469656e742773206c697374206f6620617070726f766564206e757273657350617469656e7420686173206e6f7420617070726f766564206461746120666f7220726573656172636820707572706f7365735265636f726420646f6573206e6f742062656c6f6e6720746f20746869732070617469656e74a265627a7a72315820aba2926c36bcfd3d16ca2de2c2a04872e78bdeb3649c3a468949f45db7140c4d64736f6c63430005110032",
  "source": "pragma solidity ^0.5.0;\n\nimport \"./Patient.sol\";\nimport \"./Doctor.sol\";\nimport \"./Nurse.sol\";\nimport \"./EHR.sol\";\nimport \"./Researcher.sol\";\n\n\ncontract medicalChain {\n\n  Patient patientContract;\n  Doctor doctorContract;\n  Nurse nurseContract;\n  EHR ehrContract;\n  Researcher researcherContract;\n\n\n  constructor(Patient patientAddress, Doctor doctorAddress, Nurse nurseAddress, EHR ehrAddress, Researcher researcherAddress) public {\n    patientContract = patientAddress;\n    doctorContract = doctorAddress;\n    nurseContract = nurseAddress;\n    ehrContract = ehrAddress;\n    researcherContract = researcherAddress;\n  }\n\n  /********* EVENTS *********/  \n\n  event PatientAdded(address patientId);\n  event DoctorAdded(address doctorId);\n  event NurseAdded(address nurseId);\n  event testEvent(uint256 test);\n  event GivingDoctorAccess();\n  event RemovingDoctorAccess();\n  event GivingNurseAccess();\n  event RemovingNurseAccess();\n  event GivingResearcherAccess();\n  event AddingEHR();\n  event AcknowledgingRecord();\n  event GettingApprovedPatients();\n\n  /********* MODIFIERS *********/\n\n  // prevent doctor from self-diagnosing, doctor cannot write on their own record\n  modifier doctorIsNotPatient(address patientId, address doctorId) {\n    require(patientId != doctorId, \"Doctor should not self-diagnose\");\n    _;\n  }\n\n  // modifier isPractitionerApproved(uint256 patientId) {\n  //   string memory role = getSenderRole();\n  //   if (keccak256(abi.encodePacked((role))) == keccak256(abi.encodePacked((\"doctor\")))) {\n  //     require(patientContract.isApprovedDoctor(patientId, msg.sender) == true, \"Doctor is not in patient's list of approved doctors\");\n  //   } else if (keccak256(abi.encodePacked((role))) == keccak256(abi.encodePacked((\"nurse\")))) {\n  //     require(patientContract.isApprovedNurse(patientId, msg.sender) == true, \"Nurse is not in patient's list of approved nurses\");\n  //   }\n  //   _;\n  // }\n\n  // modifier isPatientRegisteredWithPractitioner(uint256 patientId) {\n  //   string memory role = getSenderRole();\n  //   if (keccak256(abi.encodePacked((role))) == keccak256(abi.encodePacked((\"doctor\")))) {\n  //     require(doctorContract.isPatientInListOfPatients(patientId, msg.sender) == true, \"Patient is not in doctor's list of patients\");\n  //   } else if (keccak256(abi.encodePacked((role))) == keccak256(abi.encodePacked((\"nurse\")))) {\n  //     require(nurseContract.isPatientInListOfPatients(patientId, msg.sender) == true, \"Patient is not in nurse's list of patients\");\n  //   }\n  //   _;\n  // }\n\n  modifier isPractitionerApprovedAndPatientRegisteredWithPractitioner(uint256 patientId) {\n    string memory role = getSenderRole();\n    if (keccak256(abi.encodePacked((role))) == keccak256(abi.encodePacked((\"doctor\")))) {\n      require(patientContract.isApprovedDoctor(patientId, msg.sender) == true, \"Doctor is not in patient's list of approved doctors\");\n      require(doctorContract.isPatientInListOfPatients(patientId, msg.sender) == true, \"Patient is not in doctor's list of patients\");\n    } else if (keccak256(abi.encodePacked((role))) == keccak256(abi.encodePacked((\"nurse\")))) {\n      require(patientContract.isApprovedNurse(patientId, msg.sender) == true, \"Nurse is not in patient's list of approved nurses\");\n      require(nurseContract.isPatientInListOfPatients(patientId, msg.sender) == true, \"Patient is not in nurse's list of patients\");\n    }\n    _;\n  }\n\n  // modifier isPractitionerAbleToViewRecord(uint256 recordId) {\n  //   string memory role = getSenderRole();\n  //   if (keccak256(abi.encodePacked((role))) == keccak256(abi.encodePacked((\"doctor\")))) {\n  //     require(patientContract.isApprovedDoctor(patientContract.getPatientIdFromPatientAddress(ehrContract.getRecordPatientAddress(recordId)), msg.sender), \"Doctor is not in the patient's approved doctors\");\n  //   } else if (keccak256(abi.encodePacked((role))) == keccak256(abi.encodePacked((\"nurse\")))) {\n  //     require(patientContract.isApprovedNurse(patientContract.getPatientIdFromPatientAddress(ehrContract.getRecordPatientAddress(recordId)), msg.sender), \"Nurse is not in the patient's approved nurses\");\n  //   }\n  //   _;\n  // }\n\n  modifier isValidPatientId(uint256 patientId) {\n    require(patientContract.isValidPatientId(patientId) == true, \"Patient ID given is not valid\");\n    _;\n  }\n\n  modifier isValidDoctorId(uint256 doctorId) {\n    require(doctorContract.isValidDoctorId(doctorId) == true, \"Doctor ID given is not valid\");\n    _;\n  }\n\n  modifier isValidNurseId(uint256 nurseId) {\n    require(nurseContract.isValidNurseId(nurseId) == true, \"Nurse ID given is not valid\");\n    _;\n  }\n\n  modifier isValidRecordId(uint256 recordId) {\n    require(ehrContract.isValidRecordId(recordId) == true, \"Record ID given is not valid\");\n    _;\n  }\n\n  modifier isCorrectPatient() {\n    require(patientContract.isSender(msg.sender) == true, \"Patient is not allowed to do this action\");\n    _;\n  }\n\n  modifier isRecordBelongToPatient(uint256 recordId) {\n    require(ehrContract.isRecordBelongToPatient(recordId, msg.sender) == true, \"Record does not belong to this patient\");\n    _;\n  }\n\n  modifier isResearcherAbleToViewPatientData(uint256 patientId) {\n    require(patientContract.getApprovedReseacher(patientId), \"Patient has not approved data for research purposes\");\n    _;\n  }\n\n  modifier isResearcher() {\n    require(keccak256(abi.encodePacked(getSenderRole())) == keccak256(abi.encodePacked((\"researcher\"))), \"This person is not a researcher!\");\n    _;\n  }\n\n\n  /********* FUNCTIONS *********/\n\n  function getSenderRole() public view returns (string memory) {\n    if (doctorContract.isSender(msg.sender)) {\n      return \"doctor\";\n    } else if (patientContract.isSender(msg.sender)) {\n      return \"patient\";\n    } else if (nurseContract.isSender(msg.sender)) {\n      return \"nurse\";\n    } else if (researcherContract.isSender(msg.sender)) {\n      return \"researcher\";\n    } else {\n      return \"unknown\";\n    }\n  }\n\n  function giveDoctorAccess(uint256 patientId, address doctorAddress) public {\n    emit GivingDoctorAccess();\n    patientContract.giveDoctorAccess(patientId, doctorAddress);\n  }\n\n  function removeDoctorAccess(uint256 patientId, address doctorAddress) public {\n    emit RemovingDoctorAccess();\n    patientContract.removeDoctorAccess(patientId, doctorAddress);\n  }\n\n  function giveNurseAccess(uint256 patientId, address nurseAddress) public {\n    emit GivingNurseAccess();\n    patientContract.giveNurseAccess(patientId, nurseAddress);\n  }\n\n  function removeNurseAccess(uint256 patientId, address nurseAddress) public {\n    emit RemovingNurseAccess();\n    patientContract.removeNurseAccess(patientId, nurseAddress);\n  }\n\n  function registerPatientWithDoctor(uint256 doctorId, uint256 patientId) public {\n    doctorContract.registerPatient(doctorId, patientId);\n  }\n\n  function giveResearcherAccess(uint256 patientId) public {\n    emit GivingResearcherAccess();\n    patientContract.giveResearcherAccess(patientId);\n  }\n\n  function testingTest(uint256 test) public {\n    emit testEvent(test);\n  }\n\n  // // Add new EHR\n  function addNewEHR(EHR.RecordType recordType, uint256 patientId, string memory filename) public isPractitionerApprovedAndPatientRegisteredWithPractitioner(patientId) returns (uint256 recordId) {\n\n      // Check if msg.sender is doctor or nurse\n      // Check if msg.sender is inside patient's approvedDoctors or approvedNurses\n      // Check if patientId inside doctor's patients\n      // Add new EHR\n      // add recordId into patient and doctors records\n\n      // address patientAddress = patientContract.getPatientAddress(patientId);\n      recordId = ehrContract.add(recordType, filename, patientContract.getPatientAddress(patientId), msg.sender);\n\n      patientContract.addEhr(patientId, recordId);\n\n      emit AddingEHR();\n      return recordId;\n  }\n\n  // Request to view specific record\n  function viewRecordByRecordID(uint256 patientId, uint256 recordId) public view isPractitionerApprovedAndPatientRegisteredWithPractitioner(patientId) isValidRecordId(recordId) returns (uint256 id,\n        EHR.RecordType recordType,\n        string memory fileName,\n        address patientAddress,\n        address doctorAddress,\n        uint256 timeAdded,\n        bool patientSignedOff) {\n      return ehrContract.getRecord(recordId);\n  }\n\n  // Request to update specific record - update RecordType and fileName\n  function updateRecordByRecordID(uint256 patientId, uint256 recordId, EHR.RecordType recordType, string memory fileName) public isPractitionerApprovedAndPatientRegisteredWithPractitioner(patientId) isValidRecordId(recordId) {\n    ehrContract.updateRecord(recordId, recordType, fileName);\n  }\n\n  // Researcher: View all patients who have approved research access\n  function viewApprovedPatients() public isResearcher() returns (uint256[] memory) {\n      emit GettingApprovedPatients();\n      return patientContract.getResearchPatients();\n  }\n\n  // Researcher: Request to view specific patient data\n  function viewPatientByPatientID(uint256 patientID) public view isResearcher() isResearcherAbleToViewPatientData(patientID) returns (uint256 id,\n        string memory firstName,\n        string memory lastName,\n        string memory emailAddress,\n        string memory dob) {\n      return patientContract.getData(patientID);\n  }\n\n  // Patient: View all records (acknowledged and not acknowledged)\n  function patientViewAllAcknowledgedRecords(uint256 patientId) public view isCorrectPatient() isValidPatientId(patientId) returns (uint256[] memory) {\n    return patientContract.viewAllAcknowledgedRecords(patientId);\n  }\n\n  // Patient: View all records (acknowledged and not acknowledged)\n  function patientViewAllRecords(uint256 patientId) public view isCorrectPatient() isValidPatientId(patientId) returns (uint256[] memory) {\n    return patientContract.viewAllRecords(patientId, msg.sender);\n  }\n\n  // Patient: View all records issued by certain doctor\n  function patientViewRecordsByDoctor(uint256 patientId, uint256 doctorId) public view isCorrectPatient() returns (uint256[] memory) {\n    // address doctorAddress = doctorContract.getDoctorAddressFromDoctorId(doctorId);\n    return patientContract.viewRecordsByDoctor(patientId, msg.sender, doctorContract.getDoctorAddressFromDoctorId(doctorId));\n  }\n\n  // Patient: View all records issued by certain nurse\n  function patientViewRecordsByNurse(uint256 patientId, uint256 nurseId) public view isCorrectPatient() returns (uint256[] memory) {\n    // address nurseAddress = nurseContract.getNurseAddressFromNurseId(nurseId);\n    return patientContract.viewRecordsByDoctor(patientId, msg.sender, nurseContract.getNurseAddressFromNurseId(nurseId));\n  }\n\n  // Patient: Filter records by record type\n  function patientViewRecordsByRecordType(uint256 patientId, EHR.RecordType recordType) public view isCorrectPatient() isValidPatientId(patientId) returns (uint256[] memory) {\n    return patientContract.viewRecordsByRecordType(patientId, msg.sender, recordType);\n  }\n\n  // Practitioner: View all records belonging to this patient\n  // Returns all the recordIds\n  function practitionerViewAllRecords(uint256 patientId) public view isPractitionerApprovedAndPatientRegisteredWithPractitioner(patientId) returns (uint256[] memory) {\n    // address patientAddress = patientContract.getPatientAddress(patientId);\n    return patientContract.viewAllRecords(patientId, patientContract.getPatientAddress(patientId));\n  }\n\n// Patient: Acknowledge a record that is added to his medical records\nfunction patientAcknowledgeRecord(uint256 recordId) public isCorrectPatient() isValidRecordId(recordId) isRecordBelongToPatient(recordId) {\n  emit AcknowledgingRecord();\n  // uint256 patientId = patientContract.getPatientIdFromPatientAddress(msg.sender);\n  patientContract.signOffRecord(patientContract.getPatientIdFromPatientAddress(msg.sender), recordId);\n}\n\n\n}",
  "sourcePath": "/Users/aaronf/IS4302/Project/is4302-project-medical-chain/contracts/medicalChain.sol",
  "compiler": {
    "name": "solc",
    "version": "0.5.17+commit.d19bba13.Emscripten.clang"
  },
  "schemaVersion": "3.4.11",
  "updatedAt": "2023-04-09T12:16:28.870Z",
  "networkType": "ethereum",
  "devdoc": {
    "methods": {}
  },
  "userdoc": {
    "methods": {
      "getSenderRole()": {
        "notice": "******* FUNCTIONS ********"
      }
    }
  }
}