{
  "contractName": "medicalChain",
  "abi": [
    {
      "inputs": [
        {
          "internalType": "contract Patient",
          "name": "patientAddress",
          "type": "address"
        },
        {
          "internalType": "contract Doctor",
          "name": "doctorAddress",
          "type": "address"
        },
        {
          "internalType": "contract Nurse",
          "name": "nurseAddress",
          "type": "address"
        },
        {
          "internalType": "contract EHR",
          "name": "ehrAddress",
          "type": "address"
        },
        {
          "internalType": "contract Researcher",
          "name": "researcherAddress",
          "type": "address"
        }
      ],
      "payable": false,
      "stateMutability": "nonpayable",
      "type": "constructor"
    },
    {
      "anonymous": false,
      "inputs": [],
      "name": "AddingEHR",
      "type": "event"
    },
    {
      "anonymous": false,
      "inputs": [
        {
          "indexed": false,
          "internalType": "address",
          "name": "doctorId",
          "type": "address"
        }
      ],
      "name": "DoctorAdded",
      "type": "event"
    },
    {
      "anonymous": false,
      "inputs": [],
      "name": "GivingDoctorAccess",
      "type": "event"
    },
    {
      "anonymous": false,
      "inputs": [],
      "name": "GivingNurseAccess",
      "type": "event"
    },
    {
      "anonymous": false,
      "inputs": [
        {
          "indexed": false,
          "internalType": "address",
          "name": "nurseId",
          "type": "address"
        }
      ],
      "name": "NurseAdded",
      "type": "event"
    },
    {
      "anonymous": false,
      "inputs": [
        {
          "indexed": false,
          "internalType": "address",
          "name": "patientId",
          "type": "address"
        }
      ],
      "name": "PatientAdded",
      "type": "event"
    },
    {
      "anonymous": false,
      "inputs": [],
      "name": "RemovingDoctorAccess",
      "type": "event"
    },
    {
      "anonymous": false,
      "inputs": [],
      "name": "RemovingNurseAccess",
      "type": "event"
    },
    {
      "anonymous": false,
      "inputs": [
        {
          "indexed": false,
          "internalType": "uint256",
          "name": "test",
          "type": "uint256"
        }
      ],
      "name": "testEvent",
      "type": "event"
    },
    {
      "constant": true,
      "inputs": [],
      "name": "getSenderRole",
      "outputs": [
        {
          "internalType": "string",
          "name": "",
          "type": "string"
        }
      ],
      "payable": false,
      "stateMutability": "view",
      "type": "function"
    },
    {
      "constant": false,
      "inputs": [
        {
          "internalType": "uint256",
          "name": "patientId",
          "type": "uint256"
        },
        {
          "internalType": "address",
          "name": "doctorAddress",
          "type": "address"
        }
      ],
      "name": "giveDoctorAccess",
      "outputs": [],
      "payable": false,
      "stateMutability": "nonpayable",
      "type": "function"
    },
    {
      "constant": false,
      "inputs": [
        {
          "internalType": "uint256",
          "name": "patientId",
          "type": "uint256"
        },
        {
          "internalType": "address",
          "name": "doctorAddress",
          "type": "address"
        }
      ],
      "name": "removeDoctorAccess",
      "outputs": [],
      "payable": false,
      "stateMutability": "nonpayable",
      "type": "function"
    },
    {
      "constant": false,
      "inputs": [
        {
          "internalType": "uint256",
          "name": "patientId",
          "type": "uint256"
        },
        {
          "internalType": "address",
          "name": "nurseAddress",
          "type": "address"
        }
      ],
      "name": "giveNurseAccess",
      "outputs": [],
      "payable": false,
      "stateMutability": "nonpayable",
      "type": "function"
    },
    {
      "constant": false,
      "inputs": [
        {
          "internalType": "uint256",
          "name": "patientId",
          "type": "uint256"
        },
        {
          "internalType": "address",
          "name": "nurseAddress",
          "type": "address"
        }
      ],
      "name": "removeNurseAccess",
      "outputs": [],
      "payable": false,
      "stateMutability": "nonpayable",
      "type": "function"
    },
    {
      "constant": false,
      "inputs": [
        {
          "internalType": "uint256",
          "name": "test",
          "type": "uint256"
        }
      ],
      "name": "testingTest",
      "outputs": [],
      "payable": false,
      "stateMutability": "nonpayable",
      "type": "function"
    },
    {
      "constant": false,
      "inputs": [
        {
          "internalType": "enum EHR.RecordType",
          "name": "recordType",
          "type": "uint8"
        },
        {
          "internalType": "uint256",
          "name": "patientId",
          "type": "uint256"
        },
        {
          "internalType": "string",
          "name": "filename",
          "type": "string"
        }
      ],
      "name": "addNewEHR",
      "outputs": [
        {
          "internalType": "uint256",
          "name": "recordId",
          "type": "uint256"
        }
      ],
      "payable": true,
      "stateMutability": "payable",
      "type": "function"
    },
    {
      "constant": false,
      "inputs": [
        {
          "internalType": "uint256",
          "name": "recordId",
          "type": "uint256"
        }
      ],
      "name": "viewRecordByRecordID",
      "outputs": [
        {
          "internalType": "uint256",
          "name": "id",
          "type": "uint256"
        },
        {
          "internalType": "enum EHR.RecordType",
          "name": "recordType",
          "type": "uint8"
        },
        {
          "internalType": "string",
          "name": "fileName",
          "type": "string"
        },
        {
          "internalType": "address",
          "name": "patientAddress",
          "type": "address"
        },
        {
          "internalType": "address",
          "name": "doctorAddress",
          "type": "address"
        },
        {
          "internalType": "uint256",
          "name": "timeAdded",
          "type": "uint256"
        }
      ],
      "payable": false,
      "stateMutability": "nonpayable",
      "type": "function"
    },
    {
      "constant": false,
      "inputs": [
        {
          "internalType": "uint256",
          "name": "recordId",
          "type": "uint256"
        },
        {
          "internalType": "enum EHR.RecordType",
          "name": "recordType",
          "type": "uint8"
        },
        {
          "internalType": "string",
          "name": "fileName",
          "type": "string"
        }
      ],
      "name": "updateRecordByRecordID",
      "outputs": [],
      "payable": false,
      "stateMutability": "nonpayable",
      "type": "function"
    },
    {
      "constant": true,
      "inputs": [],
      "name": "viewApprovedPatients",
      "outputs": [
        {
          "internalType": "uint256[]",
          "name": "",
          "type": "uint256[]"
        }
      ],
      "payable": false,
      "stateMutability": "view",
      "type": "function"
    },
    {
      "constant": true,
      "inputs": [
        {
          "internalType": "uint256",
          "name": "patientID",
          "type": "uint256"
        }
      ],
      "name": "viewPatientByPatientID",
      "outputs": [
        {
          "internalType": "uint256",
          "name": "id",
          "type": "uint256"
        },
        {
          "internalType": "string",
          "name": "firstName",
          "type": "string"
        },
        {
          "internalType": "string",
          "name": "lastName",
          "type": "string"
        },
        {
          "internalType": "string",
          "name": "emailAddress",
          "type": "string"
        },
        {
          "internalType": "string",
          "name": "dob",
          "type": "string"
        }
      ],
      "payable": false,
      "stateMutability": "view",
      "type": "function"
    },
    {
      "constant": true,
      "inputs": [
        {
          "internalType": "uint256",
          "name": "patientId",
          "type": "uint256"
        }
      ],
      "name": "viewAllRecords",
      "outputs": [
        {
          "internalType": "uint256[]",
          "name": "",
          "type": "uint256[]"
        }
      ],
      "payable": false,
      "stateMutability": "view",
      "type": "function"
    },
    {
      "constant": true,
      "inputs": [
        {
          "internalType": "uint256",
          "name": "patientId",
          "type": "uint256"
        },
        {
          "internalType": "enum EHR.RecordType",
          "name": "recordType",
          "type": "uint8"
        }
      ],
      "name": "filterRecordsByRecordType",
      "outputs": [
        {
          "internalType": "uint256[]",
          "name": "",
          "type": "uint256[]"
        }
      ],
      "payable": false,
      "stateMutability": "view",
      "type": "function"
    },
    {
      "constant": true,
      "inputs": [
        {
          "internalType": "uint256",
          "name": "patientId",
          "type": "uint256"
        },
        {
          "internalType": "enum EHR.RecordType",
          "name": "recordType",
          "type": "uint8"
        }
      ],
      "name": "numberOfRecordType",
      "outputs": [
        {
          "internalType": "uint256",
          "name": "",
          "type": "uint256"
        }
      ],
      "payable": false,
      "stateMutability": "view",
      "type": "function"
    },
    {
      "constant": false,
      "inputs": [
        {
          "internalType": "uint256",
          "name": "patientId",
          "type": "uint256"
        }
      ],
      "name": "filterRecordsByPatient",
      "outputs": [
        {
          "internalType": "uint256[]",
          "name": "",
          "type": "uint256[]"
        }
      ],
      "payable": false,
      "stateMutability": "nonpayable",
      "type": "function"
    },
    {
      "constant": false,
      "inputs": [
        {
          "internalType": "uint256",
          "name": "practitionerId",
          "type": "uint256"
        }
      ],
      "name": "filterRecordsByPractitioner",
      "outputs": [
        {
          "internalType": "uint256[]",
          "name": "",
          "type": "uint256[]"
        }
      ],
      "payable": false,
      "stateMutability": "nonpayable",
      "type": "function"
    },
    {
      "constant": false,
      "inputs": [
        {
          "internalType": "uint256",
          "name": "recordId",
          "type": "uint256"
        }
      ],
      "name": "patientAcknowledgeRecord",
      "outputs": [],
      "payable": false,
      "stateMutability": "nonpayable",
      "type": "function"
    }
  ],
  "bytecode": "0x608060405234801561001057600080fd5b5060405162004d0738038062004d07833981810160405260a081101561003557600080fd5b810190808051906020019092919080519060200190929190805190602001909291908051906020019092919080519060200190929190505050846000806101000a81548173ffffffffffffffffffffffffffffffffffffffff021916908373ffffffffffffffffffffffffffffffffffffffff16021790555083600160006101000a81548173ffffffffffffffffffffffffffffffffffffffff021916908373ffffffffffffffffffffffffffffffffffffffff16021790555082600260006101000a81548173ffffffffffffffffffffffffffffffffffffffff021916908373ffffffffffffffffffffffffffffffffffffffff16021790555081600360006101000a81548173ffffffffffffffffffffffffffffffffffffffff021916908373ffffffffffffffffffffffffffffffffffffffff16021790555080600460006101000a81548173ffffffffffffffffffffffffffffffffffffffff021916908373ffffffffffffffffffffffffffffffffffffffff1602179055505050505050614b4080620001c76000396000f3fe6080604052600436106100fe5760003560e01c8063a0c91b2411610095578063bbbeaccc11610064578063bbbeaccc14610913578063bc3ee007146109f9578063d87ce24214610a89578063dc34c4c314610ae4578063ef84f4f114610b1f576100fe565b8063a0c91b24146106b0578063a7d4ce4c146106eb578063ae6660271461077b578063bb4182c3146108b8576100fe565b8063614a47f3116100d1578063614a47f314610328578063685e9025146103c55780637a2c3d7e146105c45780639423771914610620576100fe565b8063067be5dc146101035780631808357c1461015e5780633a88162e1461023d5780635470e804146102cd575b600080fd5b34801561010f57600080fd5b5061015c6004803603604081101561012657600080fd5b8101908080359060200190929190803573ffffffffffffffffffffffffffffffffffffffff169060200190929190505050610b8b565b005b34801561016a57600080fd5b5061023b6004803603606081101561018157600080fd5b8101908080359060200190929190803560ff169060200190929190803590602001906401000000008111156101b557600080fd5b8201836020820111156101c757600080fd5b803590602001918460018302840111640100000000831117156101e957600080fd5b91908080601f016020809104026020016040519081016040528093929190818152602001838380828437600081840152601f19601f820116905080830192505050505050509192919290505050610c7b565b005b34801561024957600080fd5b5061025261104f565b6040518080602001828103825283818151815260200191508051906020019080838360005b83811015610292578082015181840152602081019050610277565b50505050905090810190601f1680156102bf5780820380516001836020036101000a031916815260200191505b509250505060405180910390f35b3480156102d957600080fd5b50610326600480360360408110156102f057600080fd5b8101908080359060200190929190803573ffffffffffffffffffffffffffffffffffffffff1690602001909291905050506114fc565b005b34801561033457600080fd5b5061036e6004803603604081101561034b57600080fd5b8101908080359060200190929190803560ff1690602001909291905050506115ec565b6040518080602001828103825283818151815260200191508051906020019060200280838360005b838110156103b1578082015181840152602081019050610396565b505050509050019250505060405180910390f35b3480156103d157600080fd5b506103fe600480360360208110156103e857600080fd5b8101908080359060200190929190505050611a7e565b6040518086815260200180602001806020018060200180602001858103855289818151815260200191508051906020019080838360005b83811015610450578082015181840152602081019050610435565b50505050905090810190601f16801561047d5780820380516001836020036101000a031916815260200191505b50858103845288818151815260200191508051906020019080838360005b838110156104b657808201518184015260208101905061049b565b50505050905090810190601f1680156104e35780820380516001836020036101000a031916815260200191505b50858103835287818151815260200191508051906020019080838360005b8381101561051c578082015181840152602081019050610501565b50505050905090810190601f1680156105495780820380516001836020036101000a031916815260200191505b50858103825286818151815260200191508051906020019080838360005b83811015610582578082015181840152602081019050610567565b50505050905090810190601f1680156105af5780820380516001836020036101000a031916815260200191505b50995050505050505050505060405180910390f35b3480156105d057600080fd5b5061060a600480360360408110156105e757600080fd5b8101908080359060200190929190803560ff169060200190929190505050612001565b6040518082815260200191505060405180910390f35b34801561062c57600080fd5b506106596004803603602081101561064357600080fd5b8101908080359060200190929190505050612436565b6040518080602001828103825283818151815260200191508051906020019060200280838360005b8381101561069c578082015181840152602081019050610681565b505050509050019250505060405180910390f35b3480156106bc57600080fd5b506106e9600480360360208110156106d357600080fd5b8101908080359060200190929190505050612a0e565b005b3480156106f757600080fd5b506107246004803603602081101561070e57600080fd5b8101908080359060200190929190505050612a48565b6040518080602001828103825283818151815260200191508051906020019060200280838360005b8381101561076757808201518184015260208101905061074c565b505050509050019250505060405180910390f35b34801561078757600080fd5b506107b46004803603602081101561079e57600080fd5b8101908080359060200190929190505050612dec565b604051808781526020018660078111156107ca57fe5b60ff168152602001806020018573ffffffffffffffffffffffffffffffffffffffff1673ffffffffffffffffffffffffffffffffffffffff1681526020018473ffffffffffffffffffffffffffffffffffffffff1673ffffffffffffffffffffffffffffffffffffffff168152602001838152602001828103825286818151815260200191508051906020019080838360005b8381101561087857808201518184015260208101905061085d565b50505050905090810190601f1680156108a55780820380516001836020036101000a031916815260200191505b5097505050505050505060405180910390f35b3480156108c457600080fd5b50610911600480360360408110156108db57600080fd5b8101908080359060200190929190803573ffffffffffffffffffffffffffffffffffffffff16906020019092919050505061326b565b005b6109e36004803603606081101561092957600080fd5b81019080803560ff169060200190929190803590602001909291908035906020019064010000000081111561095d57600080fd5b82018360208201111561096f57600080fd5b8035906020019184600183028401116401000000008311171561099157600080fd5b91908080601f016020809104026020016040519081016040528093929190818152602001838380828437600081840152601f19601f82011690508083019250505050505050919291929050505061335b565b6040518082815260200191505060405180910390f35b348015610a0557600080fd5b50610a3260048036036020811015610a1c57600080fd5b8101908080359060200190929190505050613eb8565b6040518080602001828103825283818151815260200191508051906020019060200280838360005b83811015610a75578082015181840152602081019050610a5a565b505050509050019250505060405180910390f35b348015610a9557600080fd5b50610ae260048036036040811015610aac57600080fd5b8101908080359060200190929190803573ffffffffffffffffffffffffffffffffffffffff16906020019092919050505061425b565b005b348015610af057600080fd5b50610b1d60048036036020811015610b0757600080fd5b810190808035906020019092919050505061434b565b005b348015610b2b57600080fd5b50610b34614737565b6040518080602001828103825283818151815260200191508051906020019060200280838360005b83811015610b77578082015181840152602081019050610b5c565b505050509050019250505060405180910390f35b7fa85f577a4037d83ececf685e851e35a4e56611e8fcee1c571d2e1fb91359c53960405160405180910390a16000809054906101000a900473ffffffffffffffffffffffffffffffffffffffff1673ffffffffffffffffffffffffffffffffffffffff1663067be5dc83836040518363ffffffff1660e01b8152600401808381526020018273ffffffffffffffffffffffffffffffffffffffff1673ffffffffffffffffffffffffffffffffffffffff16815260200192505050600060405180830381600087803b158015610c5f57600080fd5b505af1158015610c73573d6000803e3d6000fd5b505050505050565b826000809054906101000a900473ffffffffffffffffffffffffffffffffffffffff1673ffffffffffffffffffffffffffffffffffffffff1663b01df3516000809054906101000a900473ffffffffffffffffffffffffffffffffffffffff1673ffffffffffffffffffffffffffffffffffffffff1663a3005b49600360009054906101000a900473ffffffffffffffffffffffffffffffffffffffff1673ffffffffffffffffffffffffffffffffffffffff1663097ee8cd866040518263ffffffff1660e01b81526004018082815260200191505060206040518083038186803b158015610d6957600080fd5b505afa158015610d7d573d6000803e3d6000fd5b505050506040513d6020811015610d9357600080fd5b81019080805190602001909291905050506040518263ffffffff1660e01b8152600401808273ffffffffffffffffffffffffffffffffffffffff1673ffffffffffffffffffffffffffffffffffffffff168152602001915050602060405180830381600087803b158015610e0657600080fd5b505af1158015610e1a573d6000803e3d6000fd5b505050506040513d6020811015610e3057600080fd5b8101908080519060200190929190505050336040518363ffffffff1660e01b8152600401808381526020018273ffffffffffffffffffffffffffffffffffffffff1673ffffffffffffffffffffffffffffffffffffffff1681526020019250505060206040518083038186803b158015610ea957600080fd5b505afa158015610ebd573d6000803e3d6000fd5b505050506040513d6020811015610ed357600080fd5b8101908080519060200190929190505050610f39576040517f08c379a0000000000000000000000000000000000000000000000000000000008152600401808060200182810382526047815260200180614a106047913960600191505060405180910390fd5b600360009054906101000a900473ffffffffffffffffffffffffffffffffffffffff1673ffffffffffffffffffffffffffffffffffffffff16636a5cb5d88585856040518463ffffffff1660e01b815260040180848152602001836007811115610f9f57fe5b60ff16815260200180602001828103825283818151815260200191508051906020019080838360005b83811015610fe3578082015181840152602081019050610fc8565b50505050905090810190601f1680156110105780820380516001836020036101000a031916815260200191505b50945050505050600060405180830381600087803b15801561103157600080fd5b505af1158015611045573d6000803e3d6000fd5b5050505050505050565b6060600160009054906101000a900473ffffffffffffffffffffffffffffffffffffffff1673ffffffffffffffffffffffffffffffffffffffff1663e3843463336040518263ffffffff1660e01b8152600401808273ffffffffffffffffffffffffffffffffffffffff1673ffffffffffffffffffffffffffffffffffffffff16815260200191505060206040518083038186803b1580156110f057600080fd5b505afa158015611104573d6000803e3d6000fd5b505050506040513d602081101561111a57600080fd5b81019080805190602001909291905050501561116d576040518060400160405280600681526020017f646f63746f72000000000000000000000000000000000000000000000000000081525090506114f9565b6000809054906101000a900473ffffffffffffffffffffffffffffffffffffffff1673ffffffffffffffffffffffffffffffffffffffff1663e3843463336040518263ffffffff1660e01b8152600401808273ffffffffffffffffffffffffffffffffffffffff1673ffffffffffffffffffffffffffffffffffffffff16815260200191505060206040518083038186803b15801561120b57600080fd5b505afa15801561121f573d6000803e3d6000fd5b505050506040513d602081101561123557600080fd5b810190808051906020019092919050505015611288576040518060400160405280600781526020017f70617469656e740000000000000000000000000000000000000000000000000081525090506114f9565b600260009054906101000a900473ffffffffffffffffffffffffffffffffffffffff1673ffffffffffffffffffffffffffffffffffffffff1663e3843463336040518263ffffffff1660e01b8152600401808273ffffffffffffffffffffffffffffffffffffffff1673ffffffffffffffffffffffffffffffffffffffff16815260200191505060206040518083038186803b15801561132757600080fd5b505afa15801561133b573d6000803e3d6000fd5b505050506040513d602081101561135157600080fd5b8101908080519060200190929190505050156113a4576040518060400160405280600581526020017f6e7572736500000000000000000000000000000000000000000000000000000081525090506114f9565b600460009054906101000a900473ffffffffffffffffffffffffffffffffffffffff1673ffffffffffffffffffffffffffffffffffffffff1663e3843463336040518263ffffffff1660e01b8152600401808273ffffffffffffffffffffffffffffffffffffffff1673ffffffffffffffffffffffffffffffffffffffff16815260200191505060206040518083038186803b15801561144357600080fd5b505afa158015611457573d6000803e3d6000fd5b505050506040513d602081101561146d57600080fd5b8101908080519060200190929190505050156114c0576040518060400160405280600a81526020017f726573656172636865720000000000000000000000000000000000000000000081525090506114f9565b6040518060400160405280600781526020017f756e6b6e6f776e0000000000000000000000000000000000000000000000000081525090505b90565b7f29bbef1b7f83e9b51d408e3ac98f6645d3164c664af051f9d539cde923e86a1c60405160405180910390a16000809054906101000a900473ffffffffffffffffffffffffffffffffffffffff1673ffffffffffffffffffffffffffffffffffffffff16635470e80483836040518363ffffffff1660e01b8152600401808381526020018273ffffffffffffffffffffffffffffffffffffffff1673ffffffffffffffffffffffffffffffffffffffff16815260200192505050600060405180830381600087803b1580156115d057600080fd5b505af11580156115e4573d6000803e3d6000fd5b505050505050565b6060600115156000809054906101000a900473ffffffffffffffffffffffffffffffffffffffff1673ffffffffffffffffffffffffffffffffffffffff1663e3843463336040518263ffffffff1660e01b8152600401808273ffffffffffffffffffffffffffffffffffffffff1673ffffffffffffffffffffffffffffffffffffffff16815260200191505060206040518083038186803b15801561169057600080fd5b505afa1580156116a4573d6000803e3d6000fd5b505050506040513d60208110156116ba57600080fd5b8101908080519060200190929190505050151514611723576040517f08c379a000000000000000000000000000000000000000000000000000000000815260040180806020018281038252602881526020018061498b6028913960400191505060405180910390fd5b82600115156000809054906101000a900473ffffffffffffffffffffffffffffffffffffffff1673ffffffffffffffffffffffffffffffffffffffff16634b654378836040518263ffffffff1660e01b81526004018082815260200191505060206040518083038186803b15801561179a57600080fd5b505afa1580156117ae573d6000803e3d6000fd5b505050506040513d60208110156117c457600080fd5b810190808051906020019092919050505015151461184a576040517f08c379a000000000000000000000000000000000000000000000000000000000815260040180806020018281038252601d8152602001807f50617469656e7420494420676976656e206973206e6f742076616c696400000081525060200191505060405180910390fd5b606061185585612436565b905060008060009054906101000a900473ffffffffffffffffffffffffffffffffffffffff1673ffffffffffffffffffffffffffffffffffffffff1663416939d3876040518263ffffffff1660e01b81526004018082815260200191505060206040518083038186803b1580156118cb57600080fd5b505afa1580156118df573d6000803e3d6000fd5b505050506040513d60208110156118f557600080fd5b8101908080519060200190929190505050905060006119148787612001565b90506060816040519080825280602002602001820160405280156119475781602001602082028038833980820191505090505b509050600080905060008090505b84811015611a6e57600086828151811061196b57fe5b60200260200101519050600360009054906101000a900473ffffffffffffffffffffffffffffffffffffffff1673ffffffffffffffffffffffffffffffffffffffff1663fc60b121828c6040518363ffffffff1660e01b8152600401808381526020018260078111156119da57fe5b60ff1681526020019250505060206040518083038186803b1580156119fe57600080fd5b505afa158015611a12573d6000803e3d6000fd5b505050506040513d6020811015611a2857600080fd5b810190808051906020019092919050505015611a605780848481518110611a4b57fe5b60200260200101818152505082806001019350505b508080600101915050611955565b5081965050505050505092915050565b600060608060608060405160200180807f7265736561726368657200000000000000000000000000000000000000000000815250600a01905060405160208183030381529060405280519060200120611ad561104f565b6040516020018082805190602001908083835b60208310611b0b5780518252602082019150602081019050602083039250611ae8565b6001836020036101000a0380198251168184511680821785525050505050509050019150506040516020818303038152906040528051906020012014611b5057600080fd5b856000809054906101000a900473ffffffffffffffffffffffffffffffffffffffff1673ffffffffffffffffffffffffffffffffffffffff1663834fa06e826040518263ffffffff1660e01b81526004018082815260200191505060206040518083038186803b158015611bc357600080fd5b505afa158015611bd7573d6000803e3d6000fd5b505050506040513d6020811015611bed57600080fd5b8101908080519060200190929190505050611c53576040517f08c379a0000000000000000000000000000000000000000000000000000000008152600401808060200182810382526033815260200180614ab36033913960400191505060405180910390fd5b6000809054906101000a900473ffffffffffffffffffffffffffffffffffffffff1673ffffffffffffffffffffffffffffffffffffffff16630178fe3f886040518263ffffffff1660e01b81526004018082815260200191505060006040518083038186803b158015611cc557600080fd5b505afa158015611cd9573d6000803e3d6000fd5b505050506040513d6000823e3d601f19601f8201168201806040525060a0811015611d0357600080fd5b810190808051906020019092919080516040519392919084640100000000821115611d2d57600080fd5b83820191506020820185811115611d4357600080fd5b8251866001820283011164010000000082111715611d6057600080fd5b8083526020830192505050908051906020019080838360005b83811015611d94578082015181840152602081019050611d79565b50505050905090810190601f168015611dc15780820380516001836020036101000a031916815260200191505b5060405260200180516040519392919084640100000000821115611de457600080fd5b83820191506020820185811115611dfa57600080fd5b8251866001820283011164010000000082111715611e1757600080fd5b8083526020830192505050908051906020019080838360005b83811015611e4b578082015181840152602081019050611e30565b50505050905090810190601f168015611e785780820380516001836020036101000a031916815260200191505b5060405260200180516040519392919084640100000000821115611e9b57600080fd5b83820191506020820185811115611eb157600080fd5b8251866001820283011164010000000082111715611ece57600080fd5b8083526020830192505050908051906020019080838360005b83811015611f02578082015181840152602081019050611ee7565b50505050905090810190601f168015611f2f5780820380516001836020036101000a031916815260200191505b5060405260200180516040519392919084640100000000821115611f5257600080fd5b83820191506020820185811115611f6857600080fd5b8251866001820283011164010000000082111715611f8557600080fd5b8083526020830192505050908051906020019080838360005b83811015611fb9578082015181840152602081019050611f9e565b50505050905090810190601f168015611fe65780820380516001836020036101000a031916815260200191505b50604052505050955095509550955095505091939590929450565b6000600115156000809054906101000a900473ffffffffffffffffffffffffffffffffffffffff1673ffffffffffffffffffffffffffffffffffffffff1663e3843463336040518263ffffffff1660e01b8152600401808273ffffffffffffffffffffffffffffffffffffffff1673ffffffffffffffffffffffffffffffffffffffff16815260200191505060206040518083038186803b1580156120a557600080fd5b505afa1580156120b9573d6000803e3d6000fd5b505050506040513d60208110156120cf57600080fd5b8101908080519060200190929190505050151514612138576040517f08c379a000000000000000000000000000000000000000000000000000000000815260040180806020018281038252602881526020018061498b6028913960400191505060405180910390fd5b82600115156000809054906101000a900473ffffffffffffffffffffffffffffffffffffffff1673ffffffffffffffffffffffffffffffffffffffff16634b654378836040518263ffffffff1660e01b81526004018082815260200191505060206040518083038186803b1580156121af57600080fd5b505afa1580156121c3573d6000803e3d6000fd5b505050506040513d60208110156121d957600080fd5b810190808051906020019092919050505015151461225f576040517f08c379a000000000000000000000000000000000000000000000000000000000815260040180806020018281038252601d8152602001807f50617469656e7420494420676976656e206973206e6f742076616c696400000081525060200191505060405180910390fd5b606061226a85612436565b905060008060009054906101000a900473ffffffffffffffffffffffffffffffffffffffff1673ffffffffffffffffffffffffffffffffffffffff1663416939d3876040518263ffffffff1660e01b81526004018082815260200191505060206040518083038186803b1580156122e057600080fd5b505afa1580156122f4573d6000803e3d6000fd5b505050506040513d602081101561230a57600080fd5b81019080805190602001909291905050509050600080905060008090505b8281101561242857600084828151811061233e57fe5b60200260200101519050600360009054906101000a900473ffffffffffffffffffffffffffffffffffffffff1673ffffffffffffffffffffffffffffffffffffffff1663fc60b121828a6040518363ffffffff1660e01b8152600401808381526020018260078111156123ad57fe5b60ff1681526020019250505060206040518083038186803b1580156123d157600080fd5b505afa1580156123e5573d6000803e3d6000fd5b505050506040513d60208110156123fb57600080fd5b81019080805190602001909291905050501561241a5782806001019350505b508080600101915050612328565b508094505050505092915050565b6060600115156000809054906101000a900473ffffffffffffffffffffffffffffffffffffffff1673ffffffffffffffffffffffffffffffffffffffff1663e3843463336040518263ffffffff1660e01b8152600401808273ffffffffffffffffffffffffffffffffffffffff1673ffffffffffffffffffffffffffffffffffffffff16815260200191505060206040518083038186803b1580156124da57600080fd5b505afa1580156124ee573d6000803e3d6000fd5b505050506040513d602081101561250457600080fd5b810190808051906020019092919050505015151461256d576040517f08c379a000000000000000000000000000000000000000000000000000000000815260040180806020018281038252602881526020018061498b6028913960400191505060405180910390fd5b81600115156000809054906101000a900473ffffffffffffffffffffffffffffffffffffffff1673ffffffffffffffffffffffffffffffffffffffff16634b654378836040518263ffffffff1660e01b81526004018082815260200191505060206040518083038186803b1580156125e457600080fd5b505afa1580156125f8573d6000803e3d6000fd5b505050506040513d602081101561260e57600080fd5b8101908080519060200190929190505050151514612694576040517f08c379a000000000000000000000000000000000000000000000000000000000815260040180806020018281038252601d8152602001807f50617469656e7420494420676976656e206973206e6f742076616c696400000081525060200191505060405180910390fd5b60008060009054906101000a900473ffffffffffffffffffffffffffffffffffffffff1673ffffffffffffffffffffffffffffffffffffffff1663416939d3856040518263ffffffff1660e01b81526004018082815260200191505060206040518083038186803b15801561270857600080fd5b505afa15801561271c573d6000803e3d6000fd5b505050506040513d602081101561273257600080fd5b810190808051906020019092919050505090506060816040519080825280602002602001820160405280156127765781602001602082028038833980820191505090505b509050600080905060008090505b600360009054906101000a900473ffffffffffffffffffffffffffffffffffffffff1673ffffffffffffffffffffffffffffffffffffffff16637988d0566040518163ffffffff1660e01b815260040160206040518083038186803b1580156127ec57600080fd5b505afa158015612800573d6000803e3d6000fd5b505050506040513d602081101561281657600080fd5b8101908080519060200190929190505050811015612a0157600360009054906101000a900473ffffffffffffffffffffffffffffffffffffffff1673ffffffffffffffffffffffffffffffffffffffff16630224ad4482336040518363ffffffff1660e01b8152600401808381526020018273ffffffffffffffffffffffffffffffffffffffff1673ffffffffffffffffffffffffffffffffffffffff1681526020019250505060206040518083038186803b1580156128d557600080fd5b505afa1580156128e9573d6000803e3d6000fd5b505050506040513d60208110156128ff57600080fd5b810190808051906020019092919050505080156129cd57506000809054906101000a900473ffffffffffffffffffffffffffffffffffffffff1673ffffffffffffffffffffffffffffffffffffffff1663a533e1f888836040518363ffffffff1660e01b8152600401808381526020018281526020019250505060206040518083038186803b15801561299157600080fd5b505afa1580156129a5573d6000803e3d6000fd5b505050506040513d60208110156129bb57600080fd5b81019080805190602001909291905050505b156129f457808383815181106129df57fe5b60200260200101818152505081806001019250505b8080600101915050612784565b5081945050505050919050565b7fdcd9c7fa0342f01013bd0bf2bec103a81936162dcebd1f0c38b1d4164c17e0fc816040518082815260200191505060405180910390a150565b6060600115156000809054906101000a900473ffffffffffffffffffffffffffffffffffffffff1673ffffffffffffffffffffffffffffffffffffffff1663e3843463336040518263ffffffff1660e01b8152600401808273ffffffffffffffffffffffffffffffffffffffff1673ffffffffffffffffffffffffffffffffffffffff16815260200191505060206040518083038186803b158015612aec57600080fd5b505afa158015612b00573d6000803e3d6000fd5b505050506040513d6020811015612b1657600080fd5b8101908080519060200190929190505050151514612b7f576040517f08c379a000000000000000000000000000000000000000000000000000000000815260040180806020018281038252602881526020018061498b6028913960400191505060405180910390fd5b60066000612b8d9190614944565b60008090505b600580549050811015612d9357600060058281548110612baf57fe5b906000526020600020015490506000600360009054906101000a900473ffffffffffffffffffffffffffffffffffffffff1673ffffffffffffffffffffffffffffffffffffffff1663834b5d47836040518263ffffffff1660e01b81526004018082815260200191505060206040518083038186803b158015612c3157600080fd5b505afa158015612c45573d6000803e3d6000fd5b505050506040513d6020811015612c5b57600080fd5b810190808051906020019092919050505090506000600160009054906101000a900473ffffffffffffffffffffffffffffffffffffffff1673ffffffffffffffffffffffffffffffffffffffff1663632b7bf0836040518263ffffffff1660e01b8152600401808273ffffffffffffffffffffffffffffffffffffffff1673ffffffffffffffffffffffffffffffffffffffff168152602001915050602060405180830381600087803b158015612d1157600080fd5b505af1158015612d25573d6000803e3d6000fd5b505050506040513d6020811015612d3b57600080fd5b8101908080519060200190929190505050905085811415612d835760068390806001815401808255809150509060018203906000526020600020016000909192909190915055505b5050508080600101915050612b93565b506006805480602002602001604051908101604052809291908181526020018280548015612de057602002820191906000526020600020905b815481526020019060010190808311612dcc575b50505050509050919050565b60008060606000806000866000809054906101000a900473ffffffffffffffffffffffffffffffffffffffff1673ffffffffffffffffffffffffffffffffffffffff1663b01df3516000809054906101000a900473ffffffffffffffffffffffffffffffffffffffff1673ffffffffffffffffffffffffffffffffffffffff1663a3005b49600360009054906101000a900473ffffffffffffffffffffffffffffffffffffffff1673ffffffffffffffffffffffffffffffffffffffff1663097ee8cd866040518263ffffffff1660e01b81526004018082815260200191505060206040518083038186803b158015612ee457600080fd5b505afa158015612ef8573d6000803e3d6000fd5b505050506040513d6020811015612f0e57600080fd5b81019080805190602001909291905050506040518263ffffffff1660e01b8152600401808273ffffffffffffffffffffffffffffffffffffffff1673ffffffffffffffffffffffffffffffffffffffff168152602001915050602060405180830381600087803b158015612f8157600080fd5b505af1158015612f95573d6000803e3d6000fd5b505050506040513d6020811015612fab57600080fd5b8101908080519060200190929190505050336040518363ffffffff1660e01b8152600401808381526020018273ffffffffffffffffffffffffffffffffffffffff1673ffffffffffffffffffffffffffffffffffffffff1681526020019250505060206040518083038186803b15801561302457600080fd5b505afa158015613038573d6000803e3d6000fd5b505050506040513d602081101561304e57600080fd5b81019080805190602001909291905050506130b4576040517f08c379a0000000000000000000000000000000000000000000000000000000008152600401808060200182810382526047815260200180614a106047913960600191505060405180910390fd5b600360009054906101000a900473ffffffffffffffffffffffffffffffffffffffff1673ffffffffffffffffffffffffffffffffffffffff166303e9e609896040518263ffffffff1660e01b81526004018082815260200191505060006040518083038186803b15801561312757600080fd5b505afa15801561313b573d6000803e3d6000fd5b505050506040513d6000823e3d601f19601f8201168201806040525060c081101561316557600080fd5b8101908080519060200190929190805190602001909291908051604051939291908464010000000082111561319957600080fd5b838201915060208201858111156131af57600080fd5b82518660018202830111640100000000821117156131cc57600080fd5b8083526020830192505050908051906020019080838360005b838110156132005780820151818401526020810190506131e5565b50505050905090810190601f16801561322d5780820380516001836020036101000a031916815260200191505b506040526020018051906020019092919080519060200190929190805190602001909291905050509650965096509650965096505091939550919395565b7f3cd5c35cdbdbab148903c80d8ffcfc65e2978e15cff0b07bfd36b59e6d6bb8f960405160405180910390a16000809054906101000a900473ffffffffffffffffffffffffffffffffffffffff1673ffffffffffffffffffffffffffffffffffffffff1663bb4182c383836040518363ffffffff1660e01b8152600401808381526020018273ffffffffffffffffffffffffffffffffffffffff1673ffffffffffffffffffffffffffffffffffffffff16815260200192505050600060405180830381600087803b15801561333f57600080fd5b505af1158015613353573d6000803e3d6000fd5b505050505050565b600082606061336861104f565b905060405160200180807f646f63746f720000000000000000000000000000000000000000000000000000815250600601905060405160208183030381529060405280519060200120816040516020018082805190602001908083835b602083106133e857805182526020820191506020810190506020830392506133c5565b6001836020036101000a03801982511681845116808217855250505050505090500191505060405160208183030381529060405280519060200120141561356b57600115156000809054906101000a900473ffffffffffffffffffffffffffffffffffffffff1673ffffffffffffffffffffffffffffffffffffffff1663b01df35184336040518363ffffffff1660e01b8152600401808381526020018273ffffffffffffffffffffffffffffffffffffffff1673ffffffffffffffffffffffffffffffffffffffff1681526020019250505060206040518083038186803b1580156134d357600080fd5b505afa1580156134e7573d6000803e3d6000fd5b505050506040513d60208110156134fd57600080fd5b8101908080519060200190929190505050151514613566576040517f08c379a00000000000000000000000000000000000000000000000000000000081526004018080602001828103825260338152602001806149b36033913960400191505060405180910390fd5b613769565b60405160200180807f6e75727365000000000000000000000000000000000000000000000000000000815250600501905060405160208183030381529060405280519060200120816040516020018082805190602001908083835b602083106135e957805182526020820191506020810190506020830392506135c6565b6001836020036101000a03801982511681845116808217855250505050505090500191505060405160208183030381529060405280519060200120141561376857600115156000809054906101000a900473ffffffffffffffffffffffffffffffffffffffff1673ffffffffffffffffffffffffffffffffffffffff1663c412e7ba84336040518363ffffffff1660e01b8152600401808381526020018273ffffffffffffffffffffffffffffffffffffffff1673ffffffffffffffffffffffffffffffffffffffff1681526020019250505060206040518083038186803b1580156136d457600080fd5b505afa1580156136e8573d6000803e3d6000fd5b505050506040513d60208110156136fe57600080fd5b8101908080519060200190929190505050151514613767576040517f08c379a0000000000000000000000000000000000000000000000000000000008152600401808060200182810382526031815260200180614a826031913960400191505060405180910390fd5b5b5b84606061377461104f565b905060405160200180807f646f63746f720000000000000000000000000000000000000000000000000000815250600601905060405160208183030381529060405280519060200120816040516020018082805190602001908083835b602083106137f457805182526020820191506020810190506020830392506137d1565b6001836020036101000a0380198251168184511680821785525050505050509050019150506040516020818303038152906040528051906020012014156139785760011515600160009054906101000a900473ffffffffffffffffffffffffffffffffffffffff1673ffffffffffffffffffffffffffffffffffffffff16639cc5804884336040518363ffffffff1660e01b8152600401808381526020018273ffffffffffffffffffffffffffffffffffffffff1673ffffffffffffffffffffffffffffffffffffffff1681526020019250505060206040518083038186803b1580156138e057600080fd5b505afa1580156138f4573d6000803e3d6000fd5b505050506040513d602081101561390a57600080fd5b8101908080519060200190929190505050151514613973576040517f08c379a000000000000000000000000000000000000000000000000000000000815260040180806020018281038252602b815260200180614a57602b913960400191505060405180910390fd5b613b77565b60405160200180807f6e75727365000000000000000000000000000000000000000000000000000000815250600501905060405160208183030381529060405280519060200120816040516020018082805190602001908083835b602083106139f657805182526020820191506020810190506020830392506139d3565b6001836020036101000a038019825116818451168082178552505050505050905001915050604051602081830303815290604052805190602001201415613b765760011515600260009054906101000a900473ffffffffffffffffffffffffffffffffffffffff1673ffffffffffffffffffffffffffffffffffffffff16639cc5804884336040518363ffffffff1660e01b8152600401808381526020018273ffffffffffffffffffffffffffffffffffffffff1673ffffffffffffffffffffffffffffffffffffffff1681526020019250505060206040518083038186803b158015613ae257600080fd5b505afa158015613af6573d6000803e3d6000fd5b505050506040513d6020811015613b0c57600080fd5b8101908080519060200190929190505050151514613b75576040517f08c379a000000000000000000000000000000000000000000000000000000000815260040180806020018281038252602a8152602001806149e6602a913960400191505060405180910390fd5b5b5b60008060009054906101000a900473ffffffffffffffffffffffffffffffffffffffff1673ffffffffffffffffffffffffffffffffffffffff1663097ee8cd896040518263ffffffff1660e01b81526004018082815260200191505060206040518083038186803b158015613beb57600080fd5b505afa158015613bff573d6000803e3d6000fd5b505050506040513d6020811015613c1557600080fd5b81019080805190602001909291905050509050600360009054906101000a900473ffffffffffffffffffffffffffffffffffffffff1673ffffffffffffffffffffffffffffffffffffffff166383ac1d078a8984336040518563ffffffff1660e01b815260040180856007811115613c8957fe5b60ff168152602001806020018473ffffffffffffffffffffffffffffffffffffffff1673ffffffffffffffffffffffffffffffffffffffff1681526020018373ffffffffffffffffffffffffffffffffffffffff1673ffffffffffffffffffffffffffffffffffffffff168152602001828103825285818151815260200191508051906020019080838360005b83811015613d31578082015181840152602081019050613d16565b50505050905090810190601f168015613d5e5780820380516001836020036101000a031916815260200191505b5095505050505050602060405180830381600087803b158015613d8057600080fd5b505af1158015613d94573d6000803e3d6000fd5b505050506040513d6020811015613daa57600080fd5b8101908080519060200190929190505050955060058690806001815401808255809150509060018203906000526020600020016000909192909190915055506000809054906101000a900473ffffffffffffffffffffffffffffffffffffffff1673ffffffffffffffffffffffffffffffffffffffff16638fa3b5c789886040518363ffffffff1660e01b81526004018083815260200182815260200192505050600060405180830381600087803b158015613e6557600080fd5b505af1158015613e79573d6000803e3d6000fd5b505050507fa3864107517fb55756a302ce7374eafe6be466bc7c6c7eae4b5879bb19fe4ac060405160405180910390a185955050505050509392505050565b6060600115156000809054906101000a900473ffffffffffffffffffffffffffffffffffffffff1673ffffffffffffffffffffffffffffffffffffffff1663e3843463336040518263ffffffff1660e01b8152600401808273ffffffffffffffffffffffffffffffffffffffff1673ffffffffffffffffffffffffffffffffffffffff16815260200191505060206040518083038186803b158015613f5c57600080fd5b505afa158015613f70573d6000803e3d6000fd5b505050506040513d6020811015613f8657600080fd5b8101908080519060200190929190505050151514613fef576040517f08c379a000000000000000000000000000000000000000000000000000000000815260040180806020018281038252602881526020018061498b6028913960400191505060405180910390fd5b60066000613ffd9190614944565b60008090505b6005805490508110156142025760006005828154811061401f57fe5b906000526020600020015490506000600360009054906101000a900473ffffffffffffffffffffffffffffffffffffffff1673ffffffffffffffffffffffffffffffffffffffff1663097ee8cd836040518263ffffffff1660e01b81526004018082815260200191505060206040518083038186803b1580156140a157600080fd5b505afa1580156140b5573d6000803e3d6000fd5b505050506040513d60208110156140cb57600080fd5b8101908080519060200190929190505050905060008060009054906101000a900473ffffffffffffffffffffffffffffffffffffffff1673ffffffffffffffffffffffffffffffffffffffff1663a3005b49836040518263ffffffff1660e01b8152600401808273ffffffffffffffffffffffffffffffffffffffff1673ffffffffffffffffffffffffffffffffffffffff168152602001915050602060405180830381600087803b15801561418057600080fd5b505af1158015614194573d6000803e3d6000fd5b505050506040513d60208110156141aa57600080fd5b81019080805190602001909291905050509050858114156141f25760068390806001815401808255809150509060018203906000526020600020016000909192909190915055505b5050508080600101915050614003565b50600680548060200260200160405190810160405280929190818152602001828054801561424f57602002820191906000526020600020905b81548152602001906001019080831161423b575b50505050509050919050565b7fb159a57c444ee3ed6158798469f5395fa80148bc3b127733920d04e7bc76a71b60405160405180910390a16000809054906101000a900473ffffffffffffffffffffffffffffffffffffffff1673ffffffffffffffffffffffffffffffffffffffff1663d87ce24283836040518363ffffffff1660e01b8152600401808381526020018273ffffffffffffffffffffffffffffffffffffffff1673ffffffffffffffffffffffffffffffffffffffff16815260200192505050600060405180830381600087803b15801561432f57600080fd5b505af1158015614343573d6000803e3d6000fd5b505050505050565b600115156000809054906101000a900473ffffffffffffffffffffffffffffffffffffffff1673ffffffffffffffffffffffffffffffffffffffff1663e3843463336040518263ffffffff1660e01b8152600401808273ffffffffffffffffffffffffffffffffffffffff1673ffffffffffffffffffffffffffffffffffffffff16815260200191505060206040518083038186803b1580156143ed57600080fd5b505afa158015614401573d6000803e3d6000fd5b505050506040513d602081101561441757600080fd5b8101908080519060200190929190505050151514614480576040517f08c379a000000000000000000000000000000000000000000000000000000000815260040180806020018281038252602881526020018061498b6028913960400191505060405180910390fd5b8060011515600360009054906101000a900473ffffffffffffffffffffffffffffffffffffffff1673ffffffffffffffffffffffffffffffffffffffff16630224ad4483336040518363ffffffff1660e01b8152600401808381526020018273ffffffffffffffffffffffffffffffffffffffff1673ffffffffffffffffffffffffffffffffffffffff1681526020019250505060206040518083038186803b15801561452c57600080fd5b505afa158015614540573d6000803e3d6000fd5b505050506040513d602081101561455657600080fd5b81019080805190602001909291905050501515146145bf576040517f08c379a0000000000000000000000000000000000000000000000000000000008152600401808060200182810382526026815260200180614ae66026913960400191505060405180910390fd5b60008060009054906101000a900473ffffffffffffffffffffffffffffffffffffffff1673ffffffffffffffffffffffffffffffffffffffff1663a3005b49336040518263ffffffff1660e01b8152600401808273ffffffffffffffffffffffffffffffffffffffff1673ffffffffffffffffffffffffffffffffffffffff168152602001915050602060405180830381600087803b15801561466157600080fd5b505af1158015614675573d6000803e3d6000fd5b505050506040513d602081101561468b57600080fd5b810190808051906020019092919050505090506000809054906101000a900473ffffffffffffffffffffffffffffffffffffffff1673ffffffffffffffffffffffffffffffffffffffff1663a3f477f482856040518363ffffffff1660e01b81526004018083815260200182815260200192505050600060405180830381600087803b15801561471a57600080fd5b505af115801561472e573d6000803e3d6000fd5b50505050505050565b606060405160200180807f7265736561726368657200000000000000000000000000000000000000000000815250600a0190506040516020818303038152906040528051906020012061478861104f565b6040516020018082805190602001908083835b602083106147be578051825260208201915060208101905060208303925061479b565b6001836020036101000a038019825116818451168082178552505050505050905001915050604051602081830303815290604052805190602001201461480357600080fd5b6000809054906101000a900473ffffffffffffffffffffffffffffffffffffffff1673ffffffffffffffffffffffffffffffffffffffff166311fc621d6040518163ffffffff1660e01b815260040160006040518083038186803b15801561486a57600080fd5b505afa15801561487e573d6000803e3d6000fd5b505050506040513d6000823e3d601f19601f8201168201806040525060208110156148a857600080fd5b81019080805160405193929190846401000000008211156148c857600080fd5b838201915060208201858111156148de57600080fd5b82518660208202830111640100000000821117156148fb57600080fd5b8083526020830192505050908051906020019060200280838360005b83811015614932578082015181840152602081019050614917565b50505050905001604052505050905090565b50805460008255906000526020600020908101906149629190614965565b50565b61498791905b8082111561498357600081600090555060010161496b565b5090565b9056fe50617469656e74206973206e6f7420616c6c6f77656420746f20646f207468697320616374696f6e446f63746f72206973206e6f7420696e2070617469656e742773206c697374206f6620617070726f76656420646f63746f727350617469656e74206973206e6f7420696e206e757273652773206c697374206f662070617469656e7473446f63746f722f4e75727365206973206e6f742061626c6520746f20766965772074686973207265636f7264206173207468657920617265206e6f74207468652069737375657250617469656e74206973206e6f7420696e20646f63746f722773206c697374206f662070617469656e74734e75727365206973206e6f7420696e2070617469656e742773206c697374206f6620617070726f766564206e757273657350617469656e7420686173206e6f7420617070726f766564206461746120666f7220726573656172636820707572706f7365735265636f726420646f6573206e6f742062656c6f6e6720746f20746869732070617469656e74a265627a7a7231582019b319904ae4378436123539473c29a921d4e44e67a5dee100a10cc9ce68b93964736f6c63430005110032",
  "source": "pragma solidity ^0.5.0;\n\nimport \"./Patient.sol\";\nimport \"./Doctor.sol\";\nimport \"./Nurse.sol\";\nimport \"./EHR.sol\";\nimport \"./Researcher.sol\";\n\n\ncontract medicalChain {\n\n  Patient patientContract;\n  Doctor doctorContract;\n  Nurse nurseContract;\n  EHR ehrContract;\n  Researcher researcherContract;\n\n\n  constructor(Patient patientAddress, Doctor doctorAddress, Nurse nurseAddress, EHR ehrAddress, Researcher researcherAddress) public {\n    patientContract = patientAddress;\n    doctorContract = doctorAddress;\n    nurseContract = nurseAddress;\n    ehrContract = ehrAddress;\n    researcherContract = researcherAddress;\n  }\n\n  uint256[] recordIds;\n  uint256[] patientRecordId;\n  /********* EVENTS *********/  \n\n  event PatientAdded(address patientId);\n  event DoctorAdded(address doctorId);\n  event NurseAdded(address nurseId);\n  event testEvent(uint256 test);\n  event GivingDoctorAccess();\n  event RemovingDoctorAccess();\n  event GivingNurseAccess();\n  event RemovingNurseAccess();\n  event AddingEHR();\n\n  /********* MODIFIERS *********/\n\n  // prevent doctor from self-diagnosing, doctor cannot write on their own record\n  modifier doctorIsNotPatient(address patientId, address doctorId) {\n    require(patientId != doctorId, \"Doctor should not self-diagnose\");\n    _;\n  }\n\n  modifier isValidPractioner(uint256 patientId) {\n    string memory role = getSenderRole();\n    if (keccak256(abi.encodePacked((role))) == keccak256(abi.encodePacked((\"doctor\")))) {\n      require(patientContract.isApprovedDoctor(patientId, msg.sender) == true, \"Doctor is not in patient's list of approved doctors\");\n    } else if (keccak256(abi.encodePacked((role))) == keccak256(abi.encodePacked((\"nurse\")))) {\n      require(patientContract.isApprovedNurse(patientId, msg.sender) == true, \"Nurse is not in patient's list of approved nurses\");\n    }\n    _;\n  }\n\n  modifier isValidPatientId(uint256 patientId) {\n    require(patientContract.isValidPatientId(patientId) == true, \"Patient ID given is not valid\");\n    _;\n  }\n\n  modifier isCorrectPatient() {\n    require(patientContract.isSender(msg.sender) == true, \"Patient is not allowed to do this action\");\n    _;\n  }\n\n  modifier isRecordBelongToPatient(uint256 recordId) {\n    require(ehrContract.isRecordBelongToPatient(recordId, msg.sender) == true, \"Record does not belong to this patient\");\n    _;\n  }\n\n  modifier isPatientRegisteredWithPractioner(uint256 patientId) {\n    string memory role = getSenderRole();\n    if (keccak256(abi.encodePacked((role))) == keccak256(abi.encodePacked((\"doctor\")))) {\n      require(doctorContract.isPatientInListOfPatients(patientId, msg.sender) == true, \"Patient is not in doctor's list of patients\");\n    } else if (keccak256(abi.encodePacked((role))) == keccak256(abi.encodePacked((\"nurse\")))) {\n      require(nurseContract.isPatientInListOfPatients(patientId, msg.sender) == true, \"Patient is not in nurse's list of patients\");\n    }\n    _;\n  }\n\n  modifier isPractionerAbleToViewRecord(uint256 recordId) {\n    require(patientContract.isApprovedDoctor(patientContract.getPatientIdFromPatientAddress(ehrContract.getPatientAddress(recordId)), msg.sender), \"Doctor/Nurse is not able to view this record as they are not the issuer\");\n    _;\n  }\n\n  modifier isResearcherAbleToViewRecord(uint256 patientId) {\n    require(patientContract.getApprovedReseacher(patientId), \"Patient has not approved data for research purposes\");\n    _;\n  }\n\n  modifier isResearcher() {\n    require(keccak256(abi.encodePacked(getSenderRole())) == keccak256(abi.encodePacked((\"researcher\"))));\n    _;\n  }\n\n\n  /********* FUNCTIONS *********/\n\n  function getSenderRole() public view returns (string memory) {\n    if (doctorContract.isSender(msg.sender)) {\n      return \"doctor\";\n    } else if (patientContract.isSender(msg.sender)) {\n      return \"patient\";\n    } else if (nurseContract.isSender(msg.sender)) {\n      return \"nurse\";\n    } else if (researcherContract.isSender(msg.sender)) {\n      return \"researcher\";\n    } else {\n      return \"unknown\";\n    }\n  }\n\n  function giveDoctorAccess(uint256 patientId, address doctorAddress) public {\n    emit GivingDoctorAccess();\n    patientContract.giveDoctorAccess(patientId, doctorAddress);\n  }\n\n  function removeDoctorAccess(uint256 patientId, address doctorAddress) public {\n    emit RemovingDoctorAccess();\n    patientContract.removeDoctorAccess(patientId, doctorAddress);\n  }\n\n  function giveNurseAccess(uint256 patientId, address nurseAddress) public {\n    emit GivingNurseAccess();\n    patientContract.giveNurseAccess(patientId, nurseAddress);\n  }\n\n  function removeNurseAccess(uint256 patientId, address nurseAddress) public {\n    emit RemovingNurseAccess();\n    patientContract.removeNurseAccess(patientId, nurseAddress);\n  }\n\n  function testingTest(uint256 test) public {\n    emit testEvent(test);\n  }\n\n  // Add new EHR\n  function addNewEHR(EHR.RecordType recordType, uint256 patientId, string memory filename) public payable isValidPractioner(patientId) isPatientRegisteredWithPractioner(patientId) returns (uint256 recordId) {\n\n      // Check if msg.sender is doctor or nurse\n      // Check if msg.sender is inside patient's approvedDoctors or approvedNurses\n      // Check if patientId inside doctor's patients\n      // Add new EHR\n      // add recordId into patient and doctors records\n\n      address patientAddress = patientContract.getPatientAddress(patientId);\n      recordId = ehrContract.add(recordType, filename, patientAddress, msg.sender);\n\n      recordIds.push(recordId);\n\n      patientContract.addEhr(patientId, recordId);\n\n      emit AddingEHR();\n      return recordId;\n  }\n\n  // Request to view specific record\n  function viewRecordByRecordID(uint256 recordId) public isPractionerAbleToViewRecord(recordId) returns (uint256 id,\n        EHR.RecordType recordType,\n        string memory fileName,\n        address patientAddress,\n        address doctorAddress,\n        uint256 timeAdded) {\n      return ehrContract.getRecord(recordId);\n  }\n\n  // Request to update specific record - update RecordType and fileName\n  function updateRecordByRecordID(uint256 recordId, EHR.RecordType recordType, string memory fileName) public isPractionerAbleToViewRecord(recordId) {\n    ehrContract.updateRecord(recordId, recordType, fileName);\n  }\n\n  // Researcher: View all patients who have approved research access\n  function viewApprovedPatients() public view isResearcher returns (uint256[] memory) {\n      return patientContract.getResearchPatients();\n  }\n\n  // Researcher: Request to view specific patient data\n  function viewPatientByPatientID(uint256 patientID) public view isResearcher isResearcherAbleToViewRecord(patientID) returns (uint256 id,\n        string memory firstName,\n        string memory lastName,\n        string memory emailAddress,\n        string memory dob) {\n      return patientContract.getData(patientID);\n  }\n\n  // Patient: View all records that are acknowledged by patient\n  function viewAllRecords(uint256 patientId) public view isCorrectPatient() isValidPatientId(patientId) returns (uint256[] memory) {\n    // only when it is signed off, then it is counted\n    // if need to be counted regardless of signed off, increment it in addNewEHR function\n    uint256 patientNoOfRecords = patientContract.getRecordsCount(patientId);\n    uint256[] memory patientRecordsId = new uint256[](patientNoOfRecords);\n    uint256 indexTracker = 0;\n    for (uint256 i = 0; i < ehrContract.numEHR(); i++) {\n      // record belongs to patient calling it AND whether the record is acknowledged\n      if (ehrContract.isRecordBelongToPatient(i, msg.sender) && patientContract.isRecordAcknowledged(patientId, i)) {\n        patientRecordsId[indexTracker] = i;\n        indexTracker++;\n      }\n    }\n\n    return patientRecordsId;\n  }\n\n  // Patient: Filter records by record type\n  function filterRecordsByRecordType(uint256 patientId, EHR.RecordType recordType) public view isCorrectPatient() isValidPatientId(patientId) returns (uint256[] memory) {\n    uint256[] memory patientRecordsId = viewAllRecords(patientId);\n    uint256 noOfPatientRecords = patientContract.getRecordsCount(patientId);\n    uint256 noOfFilteredRecords = numberOfRecordType(patientId, recordType);\n    uint256[] memory patientRecordsIdFiltered = new uint256[](noOfFilteredRecords);\n    uint256 indexTracker = 0;\n    for (uint256 i = 0; i < noOfPatientRecords; i++) {\n      uint256 currentRecordId = patientRecordsId[i];\n      if (ehrContract.doesRecordMatchRecordType(currentRecordId, recordType)) {\n        patientRecordsIdFiltered[indexTracker] = currentRecordId;\n        indexTracker++;\n      }\n    }\n\n    return patientRecordsIdFiltered;\n  }\n\n  // Patient: Helper function to check how many records fulfilling the given record type for a patient\n  function numberOfRecordType(uint256 patientId, EHR.RecordType recordType) public view isCorrectPatient() isValidPatientId(patientId) returns(uint256){ // change on what you need to return\n    uint256[] memory patientRecordsId = viewAllRecords(patientId);\n    uint256 noOfPatientRecords = patientContract.getRecordsCount(patientId);\n    uint256 noOfRecordsMatchingRecordType = 0;\n    for (uint256 i = 0; i < noOfPatientRecords; i++) {\n      uint256 currentRecordId = patientRecordsId[i];\n      if (ehrContract.doesRecordMatchRecordType(currentRecordId, recordType)) {\n        noOfRecordsMatchingRecordType++;\n      }\n    }\n\n    return noOfRecordsMatchingRecordType;\n}\n\n\n// View all records belonging to this patient\n// Returns all the recordIds\nfunction filterRecordsByPatient(uint256 patientId) public isCorrectPatient() returns (uint256[] memory) {\n  delete patientRecordId;\n  for (uint i = 0; i < recordIds.length; i++) {\n    uint256 currRecordId = recordIds[i];\n    address patientAddress = ehrContract.getPatientAddress(currRecordId);\n    uint256 thisPatientId = patientContract.getPatientIdFromPatientAddress(patientAddress);\n    if (thisPatientId == patientId) {\n      patientRecordId.push(currRecordId);\n    }\n  }\n  return patientRecordId;\n}\n\n\n// View all records signed off by certain practitioner\n\nfunction filterRecordsByPractitioner(uint256 practitionerId) public isCorrectPatient() returns (uint256[] memory) {\n  delete patientRecordId;\n  for (uint i = 0; i < recordIds.length; i++) {\n    uint256 currRecordId = recordIds[i];\n    address doctorAddress = ehrContract.getDoctorAddress(currRecordId);\n    uint256 thisPractitionerId = doctorContract.getDoctorIdFromDoctorAddress(doctorAddress);\n    if (thisPractitionerId == practitionerId) {\n      patientRecordId.push(currRecordId);\n    }\n  }\n  return patientRecordId;\n  }\n\n\n\n// Patient: Acknowledge a record that is added to his medical records\nfunction patientAcknowledgeRecord(uint256 recordId) public isCorrectPatient() isRecordBelongToPatient(recordId) {\n  uint256 patientId = patientContract.getPatientIdFromPatientAddress(msg.sender);\n  patientContract.signOffRecord(patientId, recordId);\n}\n\n}",
  "sourcePath": "/Users/seantan/Documents/Code/School/IS4302/project/contracts/medicalChain.sol",
  "compiler": {
    "name": "solc",
    "version": "0.5.17+commit.d19bba13.Emscripten.clang"
  },
  "schemaVersion": "3.4.13",
  "updatedAt": "2023-04-07T06:27:26.000Z",
  "devdoc": {
    "methods": {}
  },
  "userdoc": {
    "methods": {
      "getSenderRole()": {
        "notice": "******* FUNCTIONS ********"
      }
    }
  }
}