{
  "contractName": "medicalChainStaff",
  "abi": [
    {
      "inputs": [
        {
          "internalType": "contract Patient",
          "name": "patientAddress",
          "type": "address"
        },
        {
          "internalType": "contract Doctor",
          "name": "doctorAddress",
          "type": "address"
        },
        {
          "internalType": "contract Nurse",
          "name": "nurseAddress",
          "type": "address"
        },
        {
          "internalType": "contract EHR",
          "name": "ehrAddress",
          "type": "address"
        },
        {
          "internalType": "contract Researcher",
          "name": "researcherAddress",
          "type": "address"
        }
      ],
      "payable": false,
      "stateMutability": "nonpayable",
      "type": "constructor"
    },
    {
      "anonymous": false,
      "inputs": [],
      "name": "AcknowledgingRecord",
      "type": "event"
    },
    {
      "anonymous": false,
      "inputs": [],
      "name": "AddingEHR",
      "type": "event"
    },
    {
      "anonymous": false,
      "inputs": [
        {
          "indexed": false,
          "internalType": "address",
          "name": "doctorId",
          "type": "address"
        }
      ],
      "name": "DoctorAdded",
      "type": "event"
    },
    {
      "anonymous": false,
      "inputs": [],
      "name": "GettingApprovedPatients",
      "type": "event"
    },
    {
      "anonymous": false,
      "inputs": [],
      "name": "GivingDoctorAccess",
      "type": "event"
    },
    {
      "anonymous": false,
      "inputs": [],
      "name": "GivingNurseAccess",
      "type": "event"
    },
    {
      "anonymous": false,
      "inputs": [],
      "name": "GivingResearcherAccess",
      "type": "event"
    },
    {
      "anonymous": false,
      "inputs": [
        {
          "indexed": false,
          "internalType": "address",
          "name": "nurseId",
          "type": "address"
        }
      ],
      "name": "NurseAdded",
      "type": "event"
    },
    {
      "anonymous": false,
      "inputs": [
        {
          "indexed": false,
          "internalType": "address",
          "name": "patientId",
          "type": "address"
        }
      ],
      "name": "PatientAdded",
      "type": "event"
    },
    {
      "anonymous": false,
      "inputs": [],
      "name": "RemovingDoctorAccess",
      "type": "event"
    },
    {
      "anonymous": false,
      "inputs": [],
      "name": "RemovingEHR",
      "type": "event"
    },
    {
      "anonymous": false,
      "inputs": [],
      "name": "RemovingNurseAccess",
      "type": "event"
    },
    {
      "anonymous": false,
      "inputs": [
        {
          "indexed": false,
          "internalType": "uint256",
          "name": "test",
          "type": "uint256"
        }
      ],
      "name": "testEvent",
      "type": "event"
    },
    {
      "constant": true,
      "inputs": [],
      "name": "getSenderRole",
      "outputs": [
        {
          "internalType": "string",
          "name": "",
          "type": "string"
        }
      ],
      "payable": false,
      "stateMutability": "view",
      "type": "function"
    },
    {
      "constant": false,
      "inputs": [
        {
          "internalType": "uint256",
          "name": "doctorId",
          "type": "uint256"
        },
        {
          "internalType": "uint256",
          "name": "patientId",
          "type": "uint256"
        }
      ],
      "name": "registerPatientWithDoctor",
      "outputs": [],
      "payable": false,
      "stateMutability": "nonpayable",
      "type": "function"
    },
    {
      "constant": false,
      "inputs": [
        {
          "internalType": "uint256",
          "name": "doctorId",
          "type": "uint256"
        },
        {
          "internalType": "uint256",
          "name": "patientId",
          "type": "uint256"
        }
      ],
      "name": "unregisterPatientWithDoctor",
      "outputs": [],
      "payable": false,
      "stateMutability": "nonpayable",
      "type": "function"
    },
    {
      "constant": false,
      "inputs": [
        {
          "internalType": "uint256",
          "name": "nurseId",
          "type": "uint256"
        },
        {
          "internalType": "uint256",
          "name": "patientId",
          "type": "uint256"
        }
      ],
      "name": "registerPatientWithNurse",
      "outputs": [],
      "payable": false,
      "stateMutability": "nonpayable",
      "type": "function"
    },
    {
      "constant": false,
      "inputs": [
        {
          "internalType": "uint256",
          "name": "nurseId",
          "type": "uint256"
        },
        {
          "internalType": "uint256",
          "name": "patientId",
          "type": "uint256"
        }
      ],
      "name": "unregisterPatientWithNurse",
      "outputs": [],
      "payable": false,
      "stateMutability": "nonpayable",
      "type": "function"
    },
    {
      "constant": false,
      "inputs": [
        {
          "internalType": "uint256",
          "name": "test",
          "type": "uint256"
        }
      ],
      "name": "testingTest",
      "outputs": [],
      "payable": false,
      "stateMutability": "nonpayable",
      "type": "function"
    },
    {
      "constant": false,
      "inputs": [
        {
          "internalType": "enum EHR.RecordType",
          "name": "recordType",
          "type": "uint8"
        },
        {
          "internalType": "uint256",
          "name": "patientId",
          "type": "uint256"
        },
        {
          "internalType": "string",
          "name": "filename",
          "type": "string"
        }
      ],
      "name": "addNewEHR",
      "outputs": [
        {
          "internalType": "uint256",
          "name": "recordId",
          "type": "uint256"
        }
      ],
      "payable": false,
      "stateMutability": "nonpayable",
      "type": "function"
    },
    {
      "constant": false,
      "inputs": [
        {
          "internalType": "uint256",
          "name": "recordId",
          "type": "uint256"
        },
        {
          "internalType": "uint256",
          "name": "patientId",
          "type": "uint256"
        }
      ],
      "name": "removeEHR",
      "outputs": [],
      "payable": false,
      "stateMutability": "nonpayable",
      "type": "function"
    },
    {
      "constant": true,
      "inputs": [
        {
          "internalType": "uint256",
          "name": "patientId",
          "type": "uint256"
        },
        {
          "internalType": "uint256",
          "name": "recordId",
          "type": "uint256"
        }
      ],
      "name": "practitionerViewRecordByRecordID",
      "outputs": [
        {
          "internalType": "uint256",
          "name": "id",
          "type": "uint256"
        },
        {
          "internalType": "enum EHR.RecordType",
          "name": "recordType",
          "type": "uint8"
        },
        {
          "internalType": "string",
          "name": "fileName",
          "type": "string"
        },
        {
          "internalType": "address",
          "name": "patientAddress",
          "type": "address"
        },
        {
          "internalType": "address",
          "name": "doctorAddress",
          "type": "address"
        },
        {
          "internalType": "uint256",
          "name": "timeAdded",
          "type": "uint256"
        },
        {
          "internalType": "bool",
          "name": "patientSignedOff",
          "type": "bool"
        }
      ],
      "payable": false,
      "stateMutability": "view",
      "type": "function"
    },
    {
      "constant": false,
      "inputs": [
        {
          "internalType": "uint256",
          "name": "patientId",
          "type": "uint256"
        },
        {
          "internalType": "uint256",
          "name": "recordId",
          "type": "uint256"
        },
        {
          "internalType": "enum EHR.RecordType",
          "name": "recordType",
          "type": "uint8"
        },
        {
          "internalType": "string",
          "name": "fileName",
          "type": "string"
        }
      ],
      "name": "updateRecordByRecordId",
      "outputs": [],
      "payable": false,
      "stateMutability": "nonpayable",
      "type": "function"
    },
    {
      "constant": false,
      "inputs": [],
      "name": "viewApprovedPatients",
      "outputs": [
        {
          "internalType": "uint256[]",
          "name": "",
          "type": "uint256[]"
        }
      ],
      "payable": false,
      "stateMutability": "nonpayable",
      "type": "function"
    },
    {
      "constant": true,
      "inputs": [
        {
          "internalType": "uint256",
          "name": "patientID",
          "type": "uint256"
        }
      ],
      "name": "viewPatientByPatientID",
      "outputs": [
        {
          "internalType": "uint256",
          "name": "id",
          "type": "uint256"
        },
        {
          "internalType": "string",
          "name": "firstName",
          "type": "string"
        },
        {
          "internalType": "string",
          "name": "lastName",
          "type": "string"
        },
        {
          "internalType": "string",
          "name": "emailAddress",
          "type": "string"
        },
        {
          "internalType": "string",
          "name": "dob",
          "type": "string"
        }
      ],
      "payable": false,
      "stateMutability": "view",
      "type": "function"
    },
    {
      "constant": true,
      "inputs": [
        {
          "internalType": "uint256",
          "name": "patientId",
          "type": "uint256"
        }
      ],
      "name": "practitionerViewAllRecords",
      "outputs": [
        {
          "internalType": "uint256[]",
          "name": "",
          "type": "uint256[]"
        }
      ],
      "payable": false,
      "stateMutability": "view",
      "type": "function"
    }
  ],
  "bytecode": "0x608060405234801561001057600080fd5b506040516200431a3803806200431a833981810160405260a081101561003557600080fd5b810190808051906020019092919080519060200190929190805190602001909291908051906020019092919080519060200190929190505050846000806101000a81548173ffffffffffffffffffffffffffffffffffffffff021916908373ffffffffffffffffffffffffffffffffffffffff16021790555083600160006101000a81548173ffffffffffffffffffffffffffffffffffffffff021916908373ffffffffffffffffffffffffffffffffffffffff16021790555082600260006101000a81548173ffffffffffffffffffffffffffffffffffffffff021916908373ffffffffffffffffffffffffffffffffffffffff16021790555081600360006101000a81548173ffffffffffffffffffffffffffffffffffffffff021916908373ffffffffffffffffffffffffffffffffffffffff16021790555080600460006101000a81548173ffffffffffffffffffffffffffffffffffffffff021916908373ffffffffffffffffffffffffffffffffffffffff160217905550505050505061415380620001c76000396000f3fe608060405234801561001057600080fd5b50600436106100cf5760003560e01c8063b96010801161008c578063c68f554111610066578063c68f5541146106cd578063c7be8aad146107a9578063ef84f4f1146107e1578063f6e2b72114610840576100cf565b8063b960108014610577578063bbbeaccc146105af578063bcf5e84914610695576100cf565b80632363b0ff146100d4578063241c4a43146101575780633a88162e1461018f578063685e9025146102125780638068d09114610404578063a0c91b2414610549575b600080fd5b610100600480360360208110156100ea57600080fd5b8101908080359060200190929190505050610878565b6040518080602001828103825283818151815260200191508051906020019060200280838360005b83811015610143578082015181840152602081019050610128565b505050509050019250505060405180910390f35b61018d6004803603604081101561016d57600080fd5b81019080803590602001909291908035906020019092919050505061124b565b005b6101976112e4565b6040518080602001828103825283818151815260200191508051906020019080838360005b838110156101d75780820151818401526020810190506101bc565b50505050905090810190601f1680156102045780820380516001836020036101000a031916815260200191505b509250505060405180910390f35b61023e6004803603602081101561022857600080fd5b8101908080359060200190929190505050611791565b6040518086815260200180602001806020018060200180602001858103855289818151815260200191508051906020019080838360005b83811015610290578082015181840152602081019050610275565b50505050905090810190601f1680156102bd5780820380516001836020036101000a031916815260200191505b50858103845288818151815260200191508051906020019080838360005b838110156102f65780820151818401526020810190506102db565b50505050905090810190601f1680156103235780820380516001836020036101000a031916815260200191505b50858103835287818151815260200191508051906020019080838360005b8381101561035c578082015181840152602081019050610341565b50505050905090810190601f1680156103895780820380516001836020036101000a031916815260200191505b50858103825286818151815260200191508051906020019080838360005b838110156103c25780820151818401526020810190506103a7565b50505050905090810190601f1680156103ef5780820380516001836020036101000a031916815260200191505b50995050505050505050505060405180910390f35b61043a6004803603604081101561041a57600080fd5b810190808035906020019092919080359060200190929190505050611d7d565b6040518088815260200187600781111561045057fe5b60ff168152602001806020018673ffffffffffffffffffffffffffffffffffffffff1673ffffffffffffffffffffffffffffffffffffffff1681526020018573ffffffffffffffffffffffffffffffffffffffff1673ffffffffffffffffffffffffffffffffffffffff16815260200184815260200183151515158152602001828103825287818151815260200191508051906020019080838360005b838110156105085780820151818401526020810190506104ed565b50505050905090810190601f1680156105355780820380516001836020036101000a031916815260200191505b509850505050505050505060405180910390f35b6105756004803603602081101561055f57600080fd5b81019080803590602001909291905050506128fa565b005b6105ad6004803603604081101561058d57600080fd5b810190808035906020019092919080359060200190929190505050612934565b005b61067f600480360360608110156105c557600080fd5b81019080803560ff16906020019092919080359060200190929190803590602001906401000000008111156105f957600080fd5b82018360208201111561060b57600080fd5b8035906020019184600183028401116401000000008311171561062d57600080fd5b91908080601f016020809104026020016040519081016040528093929190818152602001838380828437600081840152601f19601f8201169050808301925050505050505091929192905050506129cd565b6040518082815260200191505060405180910390f35b6106cb600480360360408110156106ab57600080fd5b810190808035906020019092919080359060200190929190505050613090565b005b6107a7600480360360808110156106e357600080fd5b810190808035906020019092919080359060200190929190803560ff1690602001909291908035906020019064010000000081111561072157600080fd5b82018360208201111561073357600080fd5b8035906020019184600183028401116401000000008311171561075557600080fd5b91908080601f016020809104026020016040519081016040528093929190818152602001838380828437600081840152601f19601f820116905080830192505050505050509192919290505050613129565b005b6107df600480360360408110156107bf57600080fd5b81019080803590602001909291908035906020019092919050505061387d565b005b6107e9613cf7565b6040518080602001828103825283818151815260200191508051906020019060200280838360005b8381101561082c578082015181840152602081019050610811565b505050509050019250505060405180910390f35b6108766004803603604081101561085657600080fd5b810190808035906020019092919080359060200190929190505050613f99565b005b6060806108836112e4565b905060405160200180807f646f63746f720000000000000000000000000000000000000000000000000000815250600601905060405160208183030381529060405280519060200120816040516020018082805190602001908083835b6020831061090357805182526020820191506020810190506020830392506108e0565b6001836020036101000a038019825116818451168082178552505050505050905001915050604051602081830303815290604052805190602001201480610a00575060405160200180807f6e75727365000000000000000000000000000000000000000000000000000000815250600501905060405160208183030381529060405280519060200120816040516020018082805190602001908083835b602083106109c357805182526020820191506020810190506020830392506109a0565b6001836020036101000a03801982511681845116808217855250505050505090500191505060405160208183030381529060405280519060200120145b610a72576040517f08c379a000000000000000000000000000000000000000000000000000000000815260040180806020018281038252601a8152602001807f55736572206973206e6f7420612070726163746974696f6e657200000000000081525060200191505060405180910390fd5b826060610a7d6112e4565b905060405160200180807f646f63746f720000000000000000000000000000000000000000000000000000815250600601905060405160208183030381529060405280519060200120816040516020018082805190602001908083835b60208310610afd5780518252602082019150602081019050602083039250610ada565b6001836020036101000a038019825116818451168082178552505050505050905001915050604051602081830303815290604052805190602001201415610dbe57600115156000809054906101000a900473ffffffffffffffffffffffffffffffffffffffff1673ffffffffffffffffffffffffffffffffffffffff1663b01df35184336040518363ffffffff1660e01b8152600401808381526020018273ffffffffffffffffffffffffffffffffffffffff1673ffffffffffffffffffffffffffffffffffffffff1681526020019250505060206040518083038186803b158015610be857600080fd5b505afa158015610bfc573d6000803e3d6000fd5b505050506040513d6020811015610c1257600080fd5b8101908080519060200190929190505050151514610c7b576040517f08c379a00000000000000000000000000000000000000000000000000000000081526004018080602001828103825260338152602001806140336033913960400191505060405180910390fd5b60011515600160009054906101000a900473ffffffffffffffffffffffffffffffffffffffff1673ffffffffffffffffffffffffffffffffffffffff16639cc5804884336040518363ffffffff1660e01b8152600401808381526020018273ffffffffffffffffffffffffffffffffffffffff1673ffffffffffffffffffffffffffffffffffffffff1681526020019250505060206040518083038186803b158015610d2657600080fd5b505afa158015610d3a573d6000803e3d6000fd5b505050506040513d6020811015610d5057600080fd5b8101908080519060200190929190505050151514610db9576040517f08c379a000000000000000000000000000000000000000000000000000000000815260040180806020018281038252602b815260200180614090602b913960400191505060405180910390fd5b6110fa565b60405160200180807f6e75727365000000000000000000000000000000000000000000000000000000815250600501905060405160208183030381529060405280519060200120816040516020018082805190602001908083835b60208310610e3c5780518252602082019150602081019050602083039250610e19565b6001836020036101000a0380198251168184511680821785525050505050509050019150506040516020818303038152906040528051906020012014156110f957600115156000809054906101000a900473ffffffffffffffffffffffffffffffffffffffff1673ffffffffffffffffffffffffffffffffffffffff1663c412e7ba84336040518363ffffffff1660e01b8152600401808381526020018273ffffffffffffffffffffffffffffffffffffffff1673ffffffffffffffffffffffffffffffffffffffff1681526020019250505060206040518083038186803b158015610f2757600080fd5b505afa158015610f3b573d6000803e3d6000fd5b505050506040513d6020811015610f5157600080fd5b8101908080519060200190929190505050151514610fba576040517f08c379a00000000000000000000000000000000000000000000000000000000081526004018080602001828103825260318152602001806140bb6031913960400191505060405180910390fd5b60011515600260009054906101000a900473ffffffffffffffffffffffffffffffffffffffff1673ffffffffffffffffffffffffffffffffffffffff16639cc5804884336040518363ffffffff1660e01b8152600401808381526020018273ffffffffffffffffffffffffffffffffffffffff1673ffffffffffffffffffffffffffffffffffffffff1681526020019250505060206040518083038186803b15801561106557600080fd5b505afa158015611079573d6000803e3d6000fd5b505050506040513d602081101561108f57600080fd5b81019080805190602001909291905050501515146110f8576040517f08c379a000000000000000000000000000000000000000000000000000000000815260040180806020018281038252602a815260200180614066602a913960400191505060405180910390fd5b5b5b6000809054906101000a900473ffffffffffffffffffffffffffffffffffffffff1673ffffffffffffffffffffffffffffffffffffffff16632363b0ff866040518263ffffffff1660e01b81526004018082815260200191505060006040518083038186803b15801561116c57600080fd5b505afa158015611180573d6000803e3d6000fd5b505050506040513d6000823e3d601f19601f8201168201806040525060208110156111aa57600080fd5b81019080805160405193929190846401000000008211156111ca57600080fd5b838201915060208201858111156111e057600080fd5b82518660208202830111640100000000821117156111fd57600080fd5b8083526020830192505050908051906020019060200280838360005b83811015611234578082015181840152602081019050611219565b505050509050016040525050509350505050919050565b600160009054906101000a900473ffffffffffffffffffffffffffffffffffffffff1673ffffffffffffffffffffffffffffffffffffffff1663ab16ae2a83836040518363ffffffff1660e01b81526004018083815260200182815260200192505050600060405180830381600087803b1580156112c857600080fd5b505af11580156112dc573d6000803e3d6000fd5b505050505050565b6060600160009054906101000a900473ffffffffffffffffffffffffffffffffffffffff1673ffffffffffffffffffffffffffffffffffffffff1663e3843463336040518263ffffffff1660e01b8152600401808273ffffffffffffffffffffffffffffffffffffffff1673ffffffffffffffffffffffffffffffffffffffff16815260200191505060206040518083038186803b15801561138557600080fd5b505afa158015611399573d6000803e3d6000fd5b505050506040513d60208110156113af57600080fd5b810190808051906020019092919050505015611402576040518060400160405280600681526020017f646f63746f720000000000000000000000000000000000000000000000000000815250905061178e565b6000809054906101000a900473ffffffffffffffffffffffffffffffffffffffff1673ffffffffffffffffffffffffffffffffffffffff1663e3843463336040518263ffffffff1660e01b8152600401808273ffffffffffffffffffffffffffffffffffffffff1673ffffffffffffffffffffffffffffffffffffffff16815260200191505060206040518083038186803b1580156114a057600080fd5b505afa1580156114b4573d6000803e3d6000fd5b505050506040513d60208110156114ca57600080fd5b81019080805190602001909291905050501561151d576040518060400160405280600781526020017f70617469656e7400000000000000000000000000000000000000000000000000815250905061178e565b600260009054906101000a900473ffffffffffffffffffffffffffffffffffffffff1673ffffffffffffffffffffffffffffffffffffffff1663e3843463336040518263ffffffff1660e01b8152600401808273ffffffffffffffffffffffffffffffffffffffff1673ffffffffffffffffffffffffffffffffffffffff16815260200191505060206040518083038186803b1580156115bc57600080fd5b505afa1580156115d0573d6000803e3d6000fd5b505050506040513d60208110156115e657600080fd5b810190808051906020019092919050505015611639576040518060400160405280600581526020017f6e75727365000000000000000000000000000000000000000000000000000000815250905061178e565b600460009054906101000a900473ffffffffffffffffffffffffffffffffffffffff1673ffffffffffffffffffffffffffffffffffffffff1663e3843463336040518263ffffffff1660e01b8152600401808273ffffffffffffffffffffffffffffffffffffffff1673ffffffffffffffffffffffffffffffffffffffff16815260200191505060206040518083038186803b1580156116d857600080fd5b505afa1580156116ec573d6000803e3d6000fd5b505050506040513d602081101561170257600080fd5b810190808051906020019092919050505015611755576040518060400160405280600a81526020017f7265736561726368657200000000000000000000000000000000000000000000815250905061178e565b6040518060400160405280600781526020017f756e6b6e6f776e0000000000000000000000000000000000000000000000000081525090505b90565b600060608060608060405160200180807f7265736561726368657200000000000000000000000000000000000000000000815250600a019050604051602081830303815290604052805190602001206117e86112e4565b6040516020018082805190602001908083835b6020831061181e57805182526020820191506020810190506020830392506117fb565b6001836020036101000a03801982511681845116808217855250505050505090500191505060405160208183030381529060405280519060200120146118cc576040517f08c379a00000000000000000000000000000000000000000000000000000000081526004018080602001828103825260208152602001807f5468697320706572736f6e206973206e6f74206120726573656172636865722181525060200191505060405180910390fd5b856000809054906101000a900473ffffffffffffffffffffffffffffffffffffffff1673ffffffffffffffffffffffffffffffffffffffff1663834fa06e826040518263ffffffff1660e01b81526004018082815260200191505060206040518083038186803b15801561193f57600080fd5b505afa158015611953573d6000803e3d6000fd5b505050506040513d602081101561196957600080fd5b81019080805190602001909291905050506119cf576040517f08c379a00000000000000000000000000000000000000000000000000000000081526004018080602001828103825260338152602001806140ec6033913960400191505060405180910390fd5b6000809054906101000a900473ffffffffffffffffffffffffffffffffffffffff1673ffffffffffffffffffffffffffffffffffffffff16630178fe3f886040518263ffffffff1660e01b81526004018082815260200191505060006040518083038186803b158015611a4157600080fd5b505afa158015611a55573d6000803e3d6000fd5b505050506040513d6000823e3d601f19601f8201168201806040525060a0811015611a7f57600080fd5b810190808051906020019092919080516040519392919084640100000000821115611aa957600080fd5b83820191506020820185811115611abf57600080fd5b8251866001820283011164010000000082111715611adc57600080fd5b8083526020830192505050908051906020019080838360005b83811015611b10578082015181840152602081019050611af5565b50505050905090810190601f168015611b3d5780820380516001836020036101000a031916815260200191505b5060405260200180516040519392919084640100000000821115611b6057600080fd5b83820191506020820185811115611b7657600080fd5b8251866001820283011164010000000082111715611b9357600080fd5b8083526020830192505050908051906020019080838360005b83811015611bc7578082015181840152602081019050611bac565b50505050905090810190601f168015611bf45780820380516001836020036101000a031916815260200191505b5060405260200180516040519392919084640100000000821115611c1757600080fd5b83820191506020820185811115611c2d57600080fd5b8251866001820283011164010000000082111715611c4a57600080fd5b8083526020830192505050908051906020019080838360005b83811015611c7e578082015181840152602081019050611c63565b50505050905090810190601f168015611cab5780820380516001836020036101000a031916815260200191505b5060405260200180516040519392919084640100000000821115611cce57600080fd5b83820191506020820185811115611ce457600080fd5b8251866001820283011164010000000082111715611d0157600080fd5b8083526020830192505050908051906020019080838360005b83811015611d35578082015181840152602081019050611d1a565b50505050905090810190601f168015611d625780820380516001836020036101000a031916815260200191505b50604052505050955095509550955095505091939590929450565b60008060606000806000806060611d926112e4565b905060405160200180807f646f63746f720000000000000000000000000000000000000000000000000000815250600601905060405160208183030381529060405280519060200120816040516020018082805190602001908083835b60208310611e125780518252602082019150602081019050602083039250611def565b6001836020036101000a038019825116818451168082178552505050505050905001915050604051602081830303815290604052805190602001201480611f0f575060405160200180807f6e75727365000000000000000000000000000000000000000000000000000000815250600501905060405160208183030381529060405280519060200120816040516020018082805190602001908083835b60208310611ed25780518252602082019150602081019050602083039250611eaf565b6001836020036101000a03801982511681845116808217855250505050505090500191505060405160208183030381529060405280519060200120145b611f81576040517f08c379a000000000000000000000000000000000000000000000000000000000815260040180806020018281038252601a8152602001807f55736572206973206e6f7420612070726163746974696f6e657200000000000081525060200191505060405180910390fd5b896060611f8c6112e4565b905060405160200180807f646f63746f720000000000000000000000000000000000000000000000000000815250600601905060405160208183030381529060405280519060200120816040516020018082805190602001908083835b6020831061200c5780518252602082019150602081019050602083039250611fe9565b6001836020036101000a0380198251168184511680821785525050505050509050019150506040516020818303038152906040528051906020012014156122cd57600115156000809054906101000a900473ffffffffffffffffffffffffffffffffffffffff1673ffffffffffffffffffffffffffffffffffffffff1663b01df35184336040518363ffffffff1660e01b8152600401808381526020018273ffffffffffffffffffffffffffffffffffffffff1673ffffffffffffffffffffffffffffffffffffffff1681526020019250505060206040518083038186803b1580156120f757600080fd5b505afa15801561210b573d6000803e3d6000fd5b505050506040513d602081101561212157600080fd5b810190808051906020019092919050505015151461218a576040517f08c379a00000000000000000000000000000000000000000000000000000000081526004018080602001828103825260338152602001806140336033913960400191505060405180910390fd5b60011515600160009054906101000a900473ffffffffffffffffffffffffffffffffffffffff1673ffffffffffffffffffffffffffffffffffffffff16639cc5804884336040518363ffffffff1660e01b8152600401808381526020018273ffffffffffffffffffffffffffffffffffffffff1673ffffffffffffffffffffffffffffffffffffffff1681526020019250505060206040518083038186803b15801561223557600080fd5b505afa158015612249573d6000803e3d6000fd5b505050506040513d602081101561225f57600080fd5b81019080805190602001909291905050501515146122c8576040517f08c379a000000000000000000000000000000000000000000000000000000000815260040180806020018281038252602b815260200180614090602b913960400191505060405180910390fd5b612609565b60405160200180807f6e75727365000000000000000000000000000000000000000000000000000000815250600501905060405160208183030381529060405280519060200120816040516020018082805190602001908083835b6020831061234b5780518252602082019150602081019050602083039250612328565b6001836020036101000a03801982511681845116808217855250505050505090500191505060405160208183030381529060405280519060200120141561260857600115156000809054906101000a900473ffffffffffffffffffffffffffffffffffffffff1673ffffffffffffffffffffffffffffffffffffffff1663c412e7ba84336040518363ffffffff1660e01b8152600401808381526020018273ffffffffffffffffffffffffffffffffffffffff1673ffffffffffffffffffffffffffffffffffffffff1681526020019250505060206040518083038186803b15801561243657600080fd5b505afa15801561244a573d6000803e3d6000fd5b505050506040513d602081101561246057600080fd5b81019080805190602001909291905050501515146124c9576040517f08c379a00000000000000000000000000000000000000000000000000000000081526004018080602001828103825260318152602001806140bb6031913960400191505060405180910390fd5b60011515600260009054906101000a900473ffffffffffffffffffffffffffffffffffffffff1673ffffffffffffffffffffffffffffffffffffffff16639cc5804884336040518363ffffffff1660e01b8152600401808381526020018273ffffffffffffffffffffffffffffffffffffffff1673ffffffffffffffffffffffffffffffffffffffff1681526020019250505060206040518083038186803b15801561257457600080fd5b505afa158015612588573d6000803e3d6000fd5b505050506040513d602081101561259e57600080fd5b8101908080519060200190929190505050151514612607576040517f08c379a000000000000000000000000000000000000000000000000000000000815260040180806020018281038252602a815260200180614066602a913960400191505060405180910390fd5b5b5b8a60011515600360009054906101000a900473ffffffffffffffffffffffffffffffffffffffff1673ffffffffffffffffffffffffffffffffffffffff166327d6030b836040518263ffffffff1660e01b81526004018082815260200191505060206040518083038186803b15801561268157600080fd5b505afa158015612695573d6000803e3d6000fd5b505050506040513d60208110156126ab57600080fd5b8101908080519060200190929190505050151514612731576040517f08c379a000000000000000000000000000000000000000000000000000000000815260040180806020018281038252601c8152602001807f5265636f726420494420676976656e206973206e6f742076616c69640000000081525060200191505060405180910390fd5b600360009054906101000a900473ffffffffffffffffffffffffffffffffffffffff1673ffffffffffffffffffffffffffffffffffffffff166303e9e6098d6040518263ffffffff1660e01b81526004018082815260200191505060006040518083038186803b1580156127a457600080fd5b505afa1580156127b8573d6000803e3d6000fd5b505050506040513d6000823e3d601f19601f8201168201806040525060e08110156127e257600080fd5b8101908080519060200190929190805190602001909291908051604051939291908464010000000082111561281657600080fd5b8382019150602082018581111561282c57600080fd5b825186600182028301116401000000008211171561284957600080fd5b8083526020830192505050908051906020019080838360005b8381101561287d578082015181840152602081019050612862565b50505050905090810190601f1680156128aa5780820380516001836020036101000a031916815260200191505b50604052602001805190602001909291908051906020019092919080519060200190929190805190602001909291905050509a509a509a509a509a509a509a505050505092959891949750929550565b7fdcd9c7fa0342f01013bd0bf2bec103a81936162dcebd1f0c38b1d4164c17e0fc816040518082815260200191505060405180910390a150565b600260009054906101000a900473ffffffffffffffffffffffffffffffffffffffff1673ffffffffffffffffffffffffffffffffffffffff1663ae185dce83836040518363ffffffff1660e01b81526004018083815260200182815260200192505050600060405180830381600087803b1580156129b157600080fd5b505af11580156129c5573d6000803e3d6000fd5b505050505050565b60008260606129da6112e4565b905060405160200180807f646f63746f720000000000000000000000000000000000000000000000000000815250600601905060405160208183030381529060405280519060200120816040516020018082805190602001908083835b60208310612a5a5780518252602082019150602081019050602083039250612a37565b6001836020036101000a0380198251168184511680821785525050505050509050019150506040516020818303038152906040528051906020012014612b08576040517f08c379a00000000000000000000000000000000000000000000000000000000081526004018080602001828103825260158152602001807f55736572206973206e6f74206120646f63746f7221000000000000000000000081525060200191505060405180910390fd5b600115156000809054906101000a900473ffffffffffffffffffffffffffffffffffffffff1673ffffffffffffffffffffffffffffffffffffffff1663b01df35184336040518363ffffffff1660e01b8152600401808381526020018273ffffffffffffffffffffffffffffffffffffffff1673ffffffffffffffffffffffffffffffffffffffff1681526020019250505060206040518083038186803b158015612bb257600080fd5b505afa158015612bc6573d6000803e3d6000fd5b505050506040513d6020811015612bdc57600080fd5b8101908080519060200190929190505050151514612c45576040517f08c379a00000000000000000000000000000000000000000000000000000000081526004018080602001828103825260338152602001806140336033913960400191505060405180910390fd5b60011515600160009054906101000a900473ffffffffffffffffffffffffffffffffffffffff1673ffffffffffffffffffffffffffffffffffffffff16639cc5804884336040518363ffffffff1660e01b8152600401808381526020018273ffffffffffffffffffffffffffffffffffffffff1673ffffffffffffffffffffffffffffffffffffffff1681526020019250505060206040518083038186803b158015612cf057600080fd5b505afa158015612d04573d6000803e3d6000fd5b505050506040513d6020811015612d1a57600080fd5b8101908080519060200190929190505050151514612d83576040517f08c379a000000000000000000000000000000000000000000000000000000000815260040180806020018281038252602b815260200180614090602b913960400191505060405180910390fd5b600360009054906101000a900473ffffffffffffffffffffffffffffffffffffffff1673ffffffffffffffffffffffffffffffffffffffff166383ac1d0787866000809054906101000a900473ffffffffffffffffffffffffffffffffffffffff1673ffffffffffffffffffffffffffffffffffffffff1663097ee8cd8a6040518263ffffffff1660e01b81526004018082815260200191505060206040518083038186803b158015612e3557600080fd5b505afa158015612e49573d6000803e3d6000fd5b505050506040513d6020811015612e5f57600080fd5b8101908080519060200190929190505050336040518563ffffffff1660e01b815260040180856007811115612e9057fe5b60ff168152602001806020018473ffffffffffffffffffffffffffffffffffffffff1673ffffffffffffffffffffffffffffffffffffffff1681526020018373ffffffffffffffffffffffffffffffffffffffff1673ffffffffffffffffffffffffffffffffffffffff168152602001828103825285818151815260200191508051906020019080838360005b83811015612f38578082015181840152602081019050612f1d565b50505050905090810190601f168015612f655780820380516001836020036101000a031916815260200191505b5095505050505050602060405180830381600087803b158015612f8757600080fd5b505af1158015612f9b573d6000803e3d6000fd5b505050506040513d6020811015612fb157600080fd5b810190808051906020019092919050505092506000809054906101000a900473ffffffffffffffffffffffffffffffffffffffff1673ffffffffffffffffffffffffffffffffffffffff166385cd346186856040518363ffffffff1660e01b81526004018083815260200182815260200192505050600060405180830381600087803b15801561304057600080fd5b505af1158015613054573d6000803e3d6000fd5b505050507fa3864107517fb55756a302ce7374eafe6be466bc7c6c7eae4b5879bb19fe4ac060405160405180910390a182925050509392505050565b600160009054906101000a900473ffffffffffffffffffffffffffffffffffffffff1673ffffffffffffffffffffffffffffffffffffffff1663ae185dce83836040518363ffffffff1660e01b81526004018083815260200182815260200192505050600060405180830381600087803b15801561310d57600080fd5b505af1158015613121573d6000803e3d6000fd5b505050505050565b83833360606131366112e4565b905060405160200180807f646f63746f720000000000000000000000000000000000000000000000000000815250600601905060405160208183030381529060405280519060200120816040516020018082805190602001908083835b602083106131b65780518252602082019150602081019050602083039250613193565b6001836020036101000a0380198251168184511680821785525050505050509050019150506040516020818303038152906040528051906020012014613264576040517f08c379a00000000000000000000000000000000000000000000000000000000081526004018080602001828103825260158152602001807f55736572206973206e6f74206120646f63746f7221000000000000000000000081525060200191505060405180910390fd5b60011515600360009054906101000a900473ffffffffffffffffffffffffffffffffffffffff1673ffffffffffffffffffffffffffffffffffffffff1663d3b94f5085856040518363ffffffff1660e01b8152600401808381526020018273ffffffffffffffffffffffffffffffffffffffff1673ffffffffffffffffffffffffffffffffffffffff1681526020019250505060206040518083038186803b15801561330f57600080fd5b505afa158015613323573d6000803e3d6000fd5b505050506040513d602081101561333957600080fd5b81019080805190602001909291905050501515146133bf576040517f08c379a00000000000000000000000000000000000000000000000000000000081526004018080602001828103825260158152602001807f446f63746f72206973206e6f742069737375657221000000000000000000000081525060200191505060405180910390fd5b600115156000809054906101000a900473ffffffffffffffffffffffffffffffffffffffff1673ffffffffffffffffffffffffffffffffffffffff1663b01df35186336040518363ffffffff1660e01b8152600401808381526020018273ffffffffffffffffffffffffffffffffffffffff1673ffffffffffffffffffffffffffffffffffffffff1681526020019250505060206040518083038186803b15801561346957600080fd5b505afa15801561347d573d6000803e3d6000fd5b505050506040513d602081101561349357600080fd5b81019080805190602001909291905050501515146134fc576040517f08c379a00000000000000000000000000000000000000000000000000000000081526004018080602001828103825260338152602001806140336033913960400191505060405180910390fd5b60011515600160009054906101000a900473ffffffffffffffffffffffffffffffffffffffff1673ffffffffffffffffffffffffffffffffffffffff16639cc5804886336040518363ffffffff1660e01b8152600401808381526020018273ffffffffffffffffffffffffffffffffffffffff1673ffffffffffffffffffffffffffffffffffffffff1681526020019250505060206040518083038186803b1580156135a757600080fd5b505afa1580156135bb573d6000803e3d6000fd5b505050506040513d60208110156135d157600080fd5b810190808051906020019092919050505015151461363a576040517f08c379a000000000000000000000000000000000000000000000000000000000815260040180806020018281038252602b815260200180614090602b913960400191505060405180910390fd5b8660011515600360009054906101000a900473ffffffffffffffffffffffffffffffffffffffff1673ffffffffffffffffffffffffffffffffffffffff166327d6030b836040518263ffffffff1660e01b81526004018082815260200191505060206040518083038186803b1580156136b257600080fd5b505afa1580156136c6573d6000803e3d6000fd5b505050506040513d60208110156136dc57600080fd5b8101908080519060200190929190505050151514613762576040517f08c379a000000000000000000000000000000000000000000000000000000000815260040180806020018281038252601c8152602001807f5265636f726420494420676976656e206973206e6f742076616c69640000000081525060200191505060405180910390fd5b600360009054906101000a900473ffffffffffffffffffffffffffffffffffffffff1673ffffffffffffffffffffffffffffffffffffffff16636a5cb5d88989896040518463ffffffff1660e01b8152600401808481526020018360078111156137c857fe5b60ff16815260200180602001828103825283818151815260200191508051906020019080838360005b8381101561380c5780820151818401526020810190506137f1565b50505050905090810190601f1680156138395780820380516001836020036101000a031916815260200191505b50945050505050600060405180830381600087803b15801561385a57600080fd5b505af115801561386e573d6000803e3d6000fd5b50505050505050505050505050565b8060606138886112e4565b905060405160200180807f646f63746f720000000000000000000000000000000000000000000000000000815250600601905060405160208183030381529060405280519060200120816040516020018082805190602001908083835b6020831061390857805182526020820191506020810190506020830392506138e5565b6001836020036101000a03801982511681845116808217855250505050505090500191505060405160208183030381529060405280519060200120146139b6576040517f08c379a00000000000000000000000000000000000000000000000000000000081526004018080602001828103825260158152602001807f55736572206973206e6f74206120646f63746f7221000000000000000000000081525060200191505060405180910390fd5b600115156000809054906101000a900473ffffffffffffffffffffffffffffffffffffffff1673ffffffffffffffffffffffffffffffffffffffff1663b01df35184336040518363ffffffff1660e01b8152600401808381526020018273ffffffffffffffffffffffffffffffffffffffff1673ffffffffffffffffffffffffffffffffffffffff1681526020019250505060206040518083038186803b158015613a6057600080fd5b505afa158015613a74573d6000803e3d6000fd5b505050506040513d6020811015613a8a57600080fd5b8101908080519060200190929190505050151514613af3576040517f08c379a00000000000000000000000000000000000000000000000000000000081526004018080602001828103825260338152602001806140336033913960400191505060405180910390fd5b60011515600160009054906101000a900473ffffffffffffffffffffffffffffffffffffffff1673ffffffffffffffffffffffffffffffffffffffff16639cc5804884336040518363ffffffff1660e01b8152600401808381526020018273ffffffffffffffffffffffffffffffffffffffff1673ffffffffffffffffffffffffffffffffffffffff1681526020019250505060206040518083038186803b158015613b9e57600080fd5b505afa158015613bb2573d6000803e3d6000fd5b505050506040513d6020811015613bc857600080fd5b8101908080519060200190929190505050151514613c31576040517f08c379a000000000000000000000000000000000000000000000000000000000815260040180806020018281038252602b815260200180614090602b913960400191505060405180910390fd5b6000809054906101000a900473ffffffffffffffffffffffffffffffffffffffff1673ffffffffffffffffffffffffffffffffffffffff1663c7be8aad84866040518363ffffffff1660e01b81526004018083815260200182815260200192505050600060405180830381600087803b158015613cad57600080fd5b505af1158015613cc1573d6000803e3d6000fd5b505050507f484ffd7eba6802009f566073a0080e085c5132c0ad370878012903c36596750c60405160405180910390a150505050565b606060405160200180807f7265736561726368657200000000000000000000000000000000000000000000815250600a01905060405160208183030381529060405280519060200120613d486112e4565b6040516020018082805190602001908083835b60208310613d7e5780518252602082019150602081019050602083039250613d5b565b6001836020036101000a0380198251168184511680821785525050505050509050019150506040516020818303038152906040528051906020012014613e2c576040517f08c379a00000000000000000000000000000000000000000000000000000000081526004018080602001828103825260208152602001807f5468697320706572736f6e206973206e6f74206120726573656172636865722181525060200191505060405180910390fd5b7f89be633ca6bdcf03e1d1e4304c9db3cc86fdfbe82edbb144681a1fffb2155ff460405160405180910390a16000809054906101000a900473ffffffffffffffffffffffffffffffffffffffff1673ffffffffffffffffffffffffffffffffffffffff166311fc621d6040518163ffffffff1660e01b815260040160006040518083038186803b158015613ebf57600080fd5b505afa158015613ed3573d6000803e3d6000fd5b505050506040513d6000823e3d601f19601f820116820180604052506020811015613efd57600080fd5b8101908080516040519392919084640100000000821115613f1d57600080fd5b83820191506020820185811115613f3357600080fd5b8251866020820283011164010000000082111715613f5057600080fd5b8083526020830192505050908051906020019060200280838360005b83811015613f87578082015181840152602081019050613f6c565b50505050905001604052505050905090565b600260009054906101000a900473ffffffffffffffffffffffffffffffffffffffff1673ffffffffffffffffffffffffffffffffffffffff1663ae185dce83836040518363ffffffff1660e01b81526004018083815260200182815260200192505050600060405180830381600087803b15801561401657600080fd5b505af115801561402a573d6000803e3d6000fd5b50505050505056fe446f63746f72206973206e6f7420696e2070617469656e742773206c697374206f6620617070726f76656420646f63746f727350617469656e74206973206e6f7420696e206e757273652773206c697374206f662070617469656e747350617469656e74206973206e6f7420696e20646f63746f722773206c697374206f662070617469656e74734e75727365206973206e6f7420696e2070617469656e742773206c697374206f6620617070726f766564206e757273657350617469656e7420686173206e6f7420617070726f766564206461746120666f7220726573656172636820707572706f736573a265627a7a72315820257e4005b8a78226abfe9a7e9cd22b1dfe181bb6d556aa98237959382fc63c0c64736f6c63430005110032",
  "source": "pragma solidity ^0.5.0;\n\nimport \"./Patient.sol\";\nimport \"./Doctor.sol\";\nimport \"./Nurse.sol\";\nimport \"./EHR.sol\";\nimport \"./Researcher.sol\";\n\n\ncontract medicalChainStaff {\n\n  Patient patientContract;\n  Doctor doctorContract;\n  Nurse nurseContract;\n  EHR ehrContract;\n  Researcher researcherContract;\n\n\n  constructor(Patient patientAddress, Doctor doctorAddress, Nurse nurseAddress, EHR ehrAddress, Researcher researcherAddress) public {\n    patientContract = patientAddress;\n    doctorContract = doctorAddress;\n    nurseContract = nurseAddress;\n    ehrContract = ehrAddress;\n    researcherContract = researcherAddress;\n  }\n\n  /********* EVENTS *********/  \n\n  event PatientAdded(address patientId);\n  event DoctorAdded(address doctorId);\n  event NurseAdded(address nurseId);\n  event testEvent(uint256 test);\n  event GivingDoctorAccess();\n  event RemovingDoctorAccess();\n  event GivingNurseAccess();\n  event RemovingNurseAccess();\n  event GivingResearcherAccess();\n  event AddingEHR();\n  event RemovingEHR();\n  event AcknowledgingRecord();\n  event GettingApprovedPatients();\n\n  /********* MODIFIERS *********/\n\n  // prevent doctor from self-diagnosing, doctor cannot write on their own record\n  modifier doctorIsNotPatient(address patientId, address doctorId) {\n    require(patientId != doctorId, \"Doctor should not self-diagnose\");\n    _;\n  }\n\n  modifier isPractitioner() {\n    string memory role = getSenderRole();\n    require(keccak256(abi.encodePacked((role))) == keccak256(abi.encodePacked((\"doctor\"))) || keccak256(abi.encodePacked((role))) == keccak256(abi.encodePacked((\"nurse\"))), \"User is not a practitioner\");\n    _;\n  }\n\n  modifier isPractitionerApprovedAndPatientRegisteredWithPractitioner(uint256 patientId) {\n    string memory role = getSenderRole();\n    // check if sender is a doctor\n    if (keccak256(abi.encodePacked((role))) == keccak256(abi.encodePacked((\"doctor\")))) {\n      require(patientContract.isApprovedDoctor(patientId, msg.sender) == true, \"Doctor is not in patient's list of approved doctors\");\n      require(doctorContract.isPatientInListOfPatients(patientId, msg.sender) == true, \"Patient is not in doctor's list of patients\");\n    } else if (keccak256(abi.encodePacked((role))) == keccak256(abi.encodePacked((\"nurse\")))) {\n      require(patientContract.isApprovedNurse(patientId, msg.sender) == true, \"Nurse is not in patient's list of approved nurses\");\n      require(nurseContract.isPatientInListOfPatients(patientId, msg.sender) == true, \"Patient is not in nurse's list of patients\");\n    }\n    _;\n  }\n\n  modifier isDoctorApprovedAndPatientRegisteredWithDoctor(uint256 patientId) {\n    string memory role = getSenderRole();\n    require(keccak256(abi.encodePacked((role))) == keccak256(abi.encodePacked((\"doctor\"))), \"User is not a doctor!\");\n    require(patientContract.isApprovedDoctor(patientId, msg.sender) == true, \"Doctor is not in patient's list of approved doctors\");\n    require(doctorContract.isPatientInListOfPatients(patientId, msg.sender) == true, \"Patient is not in doctor's list of patients\");\n    _;\n  }\n\nmodifier isDoctorApprovedAndPatientRegisteredWithDoctorAndIssuer(uint256 patientId, uint256 recordId, address doctorAddress) {\n    string memory role = getSenderRole();\n    require(keccak256(abi.encodePacked((role))) == keccak256(abi.encodePacked((\"doctor\"))), \"User is not a doctor!\");\n    require(ehrContract.doesRecordMatchDoctorAddress(recordId, doctorAddress) == true, \"Doctor is not issuer!\");\n    require(patientContract.isApprovedDoctor(patientId, msg.sender) == true, \"Doctor is not in patient's list of approved doctors\");\n    require(doctorContract.isPatientInListOfPatients(patientId, msg.sender) == true, \"Patient is not in doctor's list of patients\");\n    _;\n  }\n\n  modifier isPatientAndAuthorised(uint256 patientId) {\n    require(keccak256(abi.encodePacked(getSenderRole())) == keccak256(abi.encodePacked((\"patient\"))), \"This person is not a patient!\");\n    require(patientContract.isValidPatientId(patientId) == true, \"Patient ID given is not valid\");\n    require(patientContract.getPatientIdFromPatientAddress(msg.sender) == patientId, \"Patient is not allowed to view other patient's records\");\n    _;\n  }\n\n  modifier isValidDoctorId(uint256 doctorId) {\n    require(doctorContract.isValidDoctorId(doctorId) == true, \"Doctor ID given is not valid\");\n    _;\n  }\n\n  modifier isValidNurseId(uint256 nurseId) {\n    require(nurseContract.isValidNurseId(nurseId) == true, \"Nurse ID given is not valid\");\n    _;\n  }\n\n  modifier isValidRecordId(uint256 recordId) {\n    require(ehrContract.isValidRecordId(recordId) == true, \"Record ID given is not valid\");\n    _;\n  }\n\n  modifier isRecordBelongToPatient(uint256 recordId) {\n    require(ehrContract.isRecordBelongToPatient(recordId, msg.sender) == true, \"Record does not belong to this patient\");\n    _;\n  }\n\n  modifier isResearcherAbleToViewPatientData(uint256 patientId) {\n    require(patientContract.getApprovedReseacher(patientId), \"Patient has not approved data for research purposes\");\n    _;\n  }\n\n  modifier isResearcher() {\n    require(keccak256(abi.encodePacked(getSenderRole())) == keccak256(abi.encodePacked((\"researcher\"))), \"This person is not a researcher!\");\n    _;\n  }\n\n\n  /********* FUNCTIONS *********/\n\n  function getSenderRole() public view returns (string memory) {\n    if (doctorContract.isSender(msg.sender)) {\n      return \"doctor\";\n    } else if (patientContract.isSender(msg.sender)) {\n      return \"patient\";\n    } else if (nurseContract.isSender(msg.sender)) {\n      return \"nurse\";\n    } else if (researcherContract.isSender(msg.sender)) {\n      return \"researcher\";\n    } else {\n      return \"unknown\";\n    }\n  }\n\n  function registerPatientWithDoctor(uint256 doctorId, uint256 patientId) public {\n    doctorContract.registerPatient(doctorId, patientId);\n  }\n\n  function unregisterPatientWithDoctor(uint256 doctorId, uint256 patientId) public {\n    doctorContract.unregisterPatient(doctorId, patientId);\n  }\n\n  function registerPatientWithNurse(uint256 nurseId, uint256 patientId) public {\n    nurseContract.registerPatient(nurseId, patientId);\n  }\n\n  function unregisterPatientWithNurse(uint256 nurseId, uint256 patientId) public {\n    nurseContract.registerPatient(nurseId, patientId);\n  }\n\n  function testingTest(uint256 test) public {\n    emit testEvent(test);\n  }\n\n  // Add new EHR\n  function addNewEHR(EHR.RecordType recordType, uint256 patientId, string memory filename) public isDoctorApprovedAndPatientRegisteredWithDoctor(patientId) returns (uint256 recordId) {\n    \n      recordId = ehrContract.add(recordType, filename, patientContract.getPatientAddress(patientId), msg.sender);\n\n      patientContract.addEHR(patientId, recordId);\n\n      emit AddingEHR();\n      return recordId;\n  }\n\n  // Remove EHR\n  function removeEHR(uint256 recordId, uint256 patientId) public isDoctorApprovedAndPatientRegisteredWithDoctor(patientId) {\n    \n      patientContract.removeEHR(patientId, recordId);\n\n      emit RemovingEHR();\n  }\n\n  // Request to view specific record\n  function practitionerViewRecordByRecordID(uint256 patientId, uint256 recordId) public view isPractitioner() isPractitionerApprovedAndPatientRegisteredWithPractitioner(patientId) isValidRecordId(recordId) returns (uint256 id,\n        EHR.RecordType recordType,\n        string memory fileName,\n        address patientAddress,\n        address doctorAddress,\n        uint256 timeAdded,\n        bool patientSignedOff) {\n      return ehrContract.getRecord(recordId);\n  }\n\n  // Request to update specific record - update RecordType and fileName\n  function updateRecordByRecordId(uint256 patientId, uint256 recordId, EHR.RecordType recordType, string memory fileName) public isDoctorApprovedAndPatientRegisteredWithDoctorAndIssuer(patientId, recordId, msg.sender) isValidRecordId(recordId) {\n    ehrContract.updateRecord(recordId, recordType, fileName);\n  }\n\n  // Researcher: View all patients who have approved research access\n  function viewApprovedPatients() public isResearcher() returns (uint256[] memory) {\n      emit GettingApprovedPatients();\n      return patientContract.getResearchPatients();\n  }\n\n  // Researcher: Request to view specific patient data\n  function viewPatientByPatientID(uint256 patientID) public view isResearcher() isResearcherAbleToViewPatientData(patientID) returns (uint256 id,\n        string memory firstName,\n        string memory lastName,\n        string memory emailAddress,\n        string memory dob) {\n      return patientContract.getData(patientID);\n  }\n\n  // Practitioner: View all records belonging to this patient\n  // Returns all the recordIds\n  function practitionerViewAllRecords(uint256 patientId) public view isPractitioner() isPractitionerApprovedAndPatientRegisteredWithPractitioner(patientId) returns (uint256[] memory) {\n    // address patientAddress = patientContract.getPatientAddress(patientId);\n    return patientContract.practitionerViewAllRecords(patientId);\n  }\n\n\n}",
  "sourcePath": "/Users/aaronf/IS4302/is4302-project-medical-chain/contracts/medicalChainStaff.sol",
  "compiler": {
    "name": "solc",
    "version": "0.5.17+commit.d19bba13.Emscripten.clang"
  },
  "schemaVersion": "3.4.11",
  "updatedAt": "2023-04-10T05:33:43.945Z",
  "devdoc": {
    "methods": {}
  },
  "userdoc": {
    "methods": {
      "getSenderRole()": {
        "notice": "******* FUNCTIONS ********"
      }
    }
  }
}