{
  "contractName": "medicalChain",
  "abi": [
    {
      "inputs": [
        {
          "internalType": "contract Patient",
          "name": "patientAddress",
          "type": "address"
        },
        {
          "internalType": "contract Doctor",
          "name": "doctorAddress",
          "type": "address"
        },
        {
          "internalType": "contract Nurse",
          "name": "nurseAddress",
          "type": "address"
        },
        {
          "internalType": "contract EHR",
          "name": "ehrAddress",
          "type": "address"
        },
        {
          "internalType": "contract Researcher",
          "name": "researcherAddress",
          "type": "address"
        }
      ],
      "payable": false,
      "stateMutability": "nonpayable",
      "type": "constructor"
    },
    {
      "anonymous": false,
      "inputs": [],
      "name": "AcknowledgingRecord",
      "type": "event"
    },
    {
      "anonymous": false,
      "inputs": [],
      "name": "AddingEHR",
      "type": "event"
    },
    {
      "anonymous": false,
      "inputs": [
        {
          "indexed": false,
          "internalType": "address",
          "name": "doctorId",
          "type": "address"
        }
      ],
      "name": "DoctorAdded",
      "type": "event"
    },
    {
      "anonymous": false,
      "inputs": [],
      "name": "GettingApprovedPatients",
      "type": "event"
    },
    {
      "anonymous": false,
      "inputs": [],
      "name": "GivingDoctorAccess",
      "type": "event"
    },
    {
      "anonymous": false,
      "inputs": [],
      "name": "GivingNurseAccess",
      "type": "event"
    },
    {
      "anonymous": false,
      "inputs": [],
      "name": "GivingResearcherAccess",
      "type": "event"
    },
    {
      "anonymous": false,
      "inputs": [
        {
          "indexed": false,
          "internalType": "address",
          "name": "nurseId",
          "type": "address"
        }
      ],
      "name": "NurseAdded",
      "type": "event"
    },
    {
      "anonymous": false,
      "inputs": [
        {
          "indexed": false,
          "internalType": "address",
          "name": "patientId",
          "type": "address"
        }
      ],
      "name": "PatientAdded",
      "type": "event"
    },
    {
      "anonymous": false,
      "inputs": [],
      "name": "RemovingDoctorAccess",
      "type": "event"
    },
    {
      "anonymous": false,
      "inputs": [],
      "name": "RemovingNurseAccess",
      "type": "event"
    },
    {
      "anonymous": false,
      "inputs": [
        {
          "indexed": false,
          "internalType": "uint256",
          "name": "test",
          "type": "uint256"
        }
      ],
      "name": "testEvent",
      "type": "event"
    },
    {
      "constant": true,
      "inputs": [],
      "name": "getSenderRole",
      "outputs": [
        {
          "internalType": "string",
          "name": "",
          "type": "string"
        }
      ],
      "payable": false,
      "stateMutability": "view",
      "type": "function"
    },
    {
      "constant": false,
      "inputs": [
        {
          "internalType": "uint256",
          "name": "patientId",
          "type": "uint256"
        },
        {
          "internalType": "address",
          "name": "doctorAddress",
          "type": "address"
        }
      ],
      "name": "giveDoctorAccess",
      "outputs": [],
      "payable": false,
      "stateMutability": "nonpayable",
      "type": "function"
    },
    {
      "constant": false,
      "inputs": [
        {
          "internalType": "uint256",
          "name": "patientId",
          "type": "uint256"
        },
        {
          "internalType": "address",
          "name": "doctorAddress",
          "type": "address"
        }
      ],
      "name": "removeDoctorAccess",
      "outputs": [],
      "payable": false,
      "stateMutability": "nonpayable",
      "type": "function"
    },
    {
      "constant": false,
      "inputs": [
        {
          "internalType": "uint256",
          "name": "patientId",
          "type": "uint256"
        },
        {
          "internalType": "address",
          "name": "nurseAddress",
          "type": "address"
        }
      ],
      "name": "giveNurseAccess",
      "outputs": [],
      "payable": false,
      "stateMutability": "nonpayable",
      "type": "function"
    },
    {
      "constant": false,
      "inputs": [
        {
          "internalType": "uint256",
          "name": "patientId",
          "type": "uint256"
        },
        {
          "internalType": "address",
          "name": "nurseAddress",
          "type": "address"
        }
      ],
      "name": "removeNurseAccess",
      "outputs": [],
      "payable": false,
      "stateMutability": "nonpayable",
      "type": "function"
    },
    {
      "constant": false,
      "inputs": [
        {
          "internalType": "uint256",
          "name": "doctorId",
          "type": "uint256"
        },
        {
          "internalType": "uint256",
          "name": "patientId",
          "type": "uint256"
        }
      ],
      "name": "registerPatientWithDoctor",
      "outputs": [],
      "payable": false,
      "stateMutability": "nonpayable",
      "type": "function"
    },
    {
      "constant": false,
      "inputs": [
        {
          "internalType": "uint256",
          "name": "doctorId",
          "type": "uint256"
        },
        {
          "internalType": "uint256",
          "name": "patientId",
          "type": "uint256"
        }
      ],
      "name": "unregisterPatientWithDoctor",
      "outputs": [],
      "payable": false,
      "stateMutability": "nonpayable",
      "type": "function"
    },
    {
      "constant": false,
      "inputs": [
        {
          "internalType": "uint256",
          "name": "nurseId",
          "type": "uint256"
        },
        {
          "internalType": "uint256",
          "name": "patientId",
          "type": "uint256"
        }
      ],
      "name": "registerPatientWithNurse",
      "outputs": [],
      "payable": false,
      "stateMutability": "nonpayable",
      "type": "function"
    },
    {
      "constant": false,
      "inputs": [
        {
          "internalType": "uint256",
          "name": "nurseId",
          "type": "uint256"
        },
        {
          "internalType": "uint256",
          "name": "patientId",
          "type": "uint256"
        }
      ],
      "name": "unregisterPatientWithNurse",
      "outputs": [],
      "payable": false,
      "stateMutability": "nonpayable",
      "type": "function"
    },
    {
      "constant": false,
      "inputs": [
        {
          "internalType": "uint256",
          "name": "patientId",
          "type": "uint256"
        }
      ],
      "name": "giveResearcherAccess",
      "outputs": [],
      "payable": false,
      "stateMutability": "nonpayable",
      "type": "function"
    },
    {
      "constant": false,
      "inputs": [
        {
          "internalType": "uint256",
          "name": "test",
          "type": "uint256"
        }
      ],
      "name": "testingTest",
      "outputs": [],
      "payable": false,
      "stateMutability": "nonpayable",
      "type": "function"
    },
    {
      "constant": false,
      "inputs": [
        {
          "internalType": "enum EHR.RecordType",
          "name": "recordType",
          "type": "uint8"
        },
        {
          "internalType": "uint256",
          "name": "patientId",
          "type": "uint256"
        },
        {
          "internalType": "string",
          "name": "filename",
          "type": "string"
        }
      ],
      "name": "addNewEHR",
      "outputs": [
        {
          "internalType": "uint256",
          "name": "recordId",
          "type": "uint256"
        }
      ],
      "payable": false,
      "stateMutability": "nonpayable",
      "type": "function"
    },
    {
      "constant": true,
      "inputs": [
        {
          "internalType": "uint256",
          "name": "patientId",
          "type": "uint256"
        },
        {
          "internalType": "uint256",
          "name": "recordId",
          "type": "uint256"
        }
      ],
      "name": "practitionerViewRecordByRecordID",
      "outputs": [
        {
          "internalType": "uint256",
          "name": "id",
          "type": "uint256"
        },
        {
          "internalType": "enum EHR.RecordType",
          "name": "recordType",
          "type": "uint8"
        },
        {
          "internalType": "string",
          "name": "fileName",
          "type": "string"
        },
        {
          "internalType": "address",
          "name": "patientAddress",
          "type": "address"
        },
        {
          "internalType": "address",
          "name": "doctorAddress",
          "type": "address"
        },
        {
          "internalType": "uint256",
          "name": "timeAdded",
          "type": "uint256"
        },
        {
          "internalType": "bool",
          "name": "patientSignedOff",
          "type": "bool"
        }
      ],
      "payable": false,
      "stateMutability": "view",
      "type": "function"
    },
    {
      "constant": false,
      "inputs": [
        {
          "internalType": "uint256",
          "name": "patientId",
          "type": "uint256"
        },
        {
          "internalType": "uint256",
          "name": "recordId",
          "type": "uint256"
        },
        {
          "internalType": "enum EHR.RecordType",
          "name": "recordType",
          "type": "uint8"
        },
        {
          "internalType": "string",
          "name": "fileName",
          "type": "string"
        }
      ],
      "name": "updateRecordByRecordId",
      "outputs": [],
      "payable": false,
      "stateMutability": "nonpayable",
      "type": "function"
    },
    {
      "constant": false,
      "inputs": [],
      "name": "viewApprovedPatients",
      "outputs": [
        {
          "internalType": "uint256[]",
          "name": "",
          "type": "uint256[]"
        }
      ],
      "payable": false,
      "stateMutability": "nonpayable",
      "type": "function"
    },
    {
      "constant": true,
      "inputs": [
        {
          "internalType": "uint256",
          "name": "patientID",
          "type": "uint256"
        }
      ],
      "name": "viewPatientByPatientID",
      "outputs": [
        {
          "internalType": "uint256",
          "name": "id",
          "type": "uint256"
        },
        {
          "internalType": "string",
          "name": "firstName",
          "type": "string"
        },
        {
          "internalType": "string",
          "name": "lastName",
          "type": "string"
        },
        {
          "internalType": "string",
          "name": "emailAddress",
          "type": "string"
        },
        {
          "internalType": "string",
          "name": "dob",
          "type": "string"
        }
      ],
      "payable": false,
      "stateMutability": "view",
      "type": "function"
    },
    {
      "constant": true,
      "inputs": [
        {
          "internalType": "uint256",
          "name": "patientId",
          "type": "uint256"
        }
      ],
      "name": "patientViewAllAcknowledgedRecords",
      "outputs": [
        {
          "internalType": "uint256[]",
          "name": "",
          "type": "uint256[]"
        }
      ],
      "payable": false,
      "stateMutability": "view",
      "type": "function"
    },
    {
      "constant": true,
      "inputs": [
        {
          "internalType": "uint256",
          "name": "patientId",
          "type": "uint256"
        }
      ],
      "name": "patientViewAllRecords",
      "outputs": [
        {
          "internalType": "uint256[]",
          "name": "",
          "type": "uint256[]"
        }
      ],
      "payable": false,
      "stateMutability": "view",
      "type": "function"
    },
    {
      "constant": true,
      "inputs": [
        {
          "internalType": "uint256",
          "name": "patientId",
          "type": "uint256"
        },
        {
          "internalType": "uint256",
          "name": "doctorId",
          "type": "uint256"
        }
      ],
      "name": "patientViewRecordsByDoctor",
      "outputs": [
        {
          "internalType": "uint256[]",
          "name": "",
          "type": "uint256[]"
        }
      ],
      "payable": false,
      "stateMutability": "view",
      "type": "function"
    },
    {
      "constant": true,
      "inputs": [
        {
          "internalType": "uint256",
          "name": "patientId",
          "type": "uint256"
        },
        {
          "internalType": "uint256",
          "name": "nurseId",
          "type": "uint256"
        }
      ],
      "name": "patientViewRecordsByNurse",
      "outputs": [
        {
          "internalType": "uint256[]",
          "name": "",
          "type": "uint256[]"
        }
      ],
      "payable": false,
      "stateMutability": "view",
      "type": "function"
    },
    {
      "constant": true,
      "inputs": [
        {
          "internalType": "uint256",
          "name": "patientId",
          "type": "uint256"
        },
        {
          "internalType": "enum EHR.RecordType",
          "name": "recordType",
          "type": "uint8"
        }
      ],
      "name": "patientViewRecordsByRecordType",
      "outputs": [
        {
          "internalType": "uint256[]",
          "name": "",
          "type": "uint256[]"
        }
      ],
      "payable": false,
      "stateMutability": "view",
      "type": "function"
    },
    {
      "constant": true,
      "inputs": [
        {
          "internalType": "uint256",
          "name": "patientId",
          "type": "uint256"
        }
      ],
      "name": "practitionerViewAllRecords",
      "outputs": [
        {
          "internalType": "uint256[]",
          "name": "",
          "type": "uint256[]"
        }
      ],
      "payable": false,
      "stateMutability": "view",
      "type": "function"
    },
    {
      "constant": false,
      "inputs": [
        {
          "internalType": "uint256",
          "name": "recordId",
          "type": "uint256"
        }
      ],
      "name": "patientAcknowledgeRecord",
      "outputs": [],
      "payable": false,
      "stateMutability": "nonpayable",
      "type": "function"
    }
  ],
  "bytecode": "0x60806040523480156200001157600080fd5b506040516200616538038062006165833981810160405260a08110156200003757600080fd5b810190808051906020019092919080519060200190929190805190602001909291908051906020019092919080519060200190929190505050846000806101000a81548173ffffffffffffffffffffffffffffffffffffffff021916908373ffffffffffffffffffffffffffffffffffffffff16021790555083600160006101000a81548173ffffffffffffffffffffffffffffffffffffffff021916908373ffffffffffffffffffffffffffffffffffffffff16021790555082600260006101000a81548173ffffffffffffffffffffffffffffffffffffffff021916908373ffffffffffffffffffffffffffffffffffffffff16021790555081600360006101000a81548173ffffffffffffffffffffffffffffffffffffffff021916908373ffffffffffffffffffffffffffffffffffffffff16021790555080600460006101000a81548173ffffffffffffffffffffffffffffffffffffffff021916908373ffffffffffffffffffffffffffffffffffffffff1602179055505050505050615f9c80620001c96000396000f3fe608060405234801561001057600080fd5b506004361061014d5760003560e01c8063a0c91b24116100c3578063c68f55411161007c578063c68f554114610a86578063d87ce24214610b62578063da93f6b814610bb0578063dc34c4c314610c3d578063ef84f4f114610c6b578063f6e2b72114610cca5761014d565b8063a0c91b2414610827578063b960108014610855578063bb4182c31461088d578063bbbeaccc146108db578063bcf5e849146109c1578063c37521a4146109f95761014d565b80633a88162e116101155780633a88162e1461030c5780634711d9401461038f5780635470e80414610412578063685e9025146104605780637d745686146106525780638068d091146106e25761014d565b8063067be5dc1461015257806313b8f4cf146101a05780632363b0ff14610223578063241c4a43146102a6578063303c9672146102de575b600080fd5b61019e6004803603604081101561016857600080fd5b8101908080359060200190929190803573ffffffffffffffffffffffffffffffffffffffff169060200190929190505050610d02565b005b6101cc600480360360208110156101b657600080fd5b8101908080359060200190929190505050610df2565b6040518080602001828103825283818151815260200191508051906020019060200280838360005b8381101561020f5780820151818401526020810190506101f4565b505050509050019250505060405180910390f35b61024f6004803603602081101561023957600080fd5b81019080803590602001909291905050506112cd565b6040518080602001828103825283818151815260200191508051906020019060200280838360005b83811015610292578082015181840152602081019050610277565b505050509050019250505060405180910390f35b6102dc600480360360408110156102bc57600080fd5b810190808035906020019092919080359060200190929190505050611ca0565b005b61030a600480360360208110156102f457600080fd5b8101908080359060200190929190505050611d39565b005b610314611df4565b6040518080602001828103825283818151815260200191508051906020019080838360005b83811015610354578082015181840152602081019050610339565b50505050905090810190601f1680156103815780820380516001836020036101000a031916815260200191505b509250505060405180910390f35b6103bb600480360360208110156103a557600080fd5b81019080803590602001909291905050506122a1565b6040518080602001828103825283818151815260200191508051906020019060200280838360005b838110156103fe5780820151818401526020810190506103e3565b505050509050019250505060405180910390f35b61045e6004803603604081101561042857600080fd5b8101908080359060200190929190803573ffffffffffffffffffffffffffffffffffffffff16906020019092919050505061277c565b005b61048c6004803603602081101561047657600080fd5b810190808035906020019092919050505061286c565b6040518086815260200180602001806020018060200180602001858103855289818151815260200191508051906020019080838360005b838110156104de5780820151818401526020810190506104c3565b50505050905090810190601f16801561050b5780820380516001836020036101000a031916815260200191505b50858103845288818151815260200191508051906020019080838360005b83811015610544578082015181840152602081019050610529565b50505050905090810190601f1680156105715780820380516001836020036101000a031916815260200191505b50858103835287818151815260200191508051906020019080838360005b838110156105aa57808201518184015260208101905061058f565b50505050905090810190601f1680156105d75780820380516001836020036101000a031916815260200191505b50858103825286818151815260200191508051906020019080838360005b838110156106105780820151818401526020810190506105f5565b50505050905090810190601f16801561063d5780820380516001836020036101000a031916815260200191505b50995050505050505050505060405180910390f35b61068b6004803603604081101561066857600080fd5b8101908080359060200190929190803560ff169060200190929190505050612e58565b6040518080602001828103825283818151815260200191508051906020019060200280838360005b838110156106ce5780820151818401526020810190506106b3565b505050509050019250505060405180910390f35b610718600480360360408110156106f857600080fd5b81019080803590602001909291908035906020019092919050505061334a565b6040518088815260200187600781111561072e57fe5b60ff168152602001806020018673ffffffffffffffffffffffffffffffffffffffff1673ffffffffffffffffffffffffffffffffffffffff1681526020018573ffffffffffffffffffffffffffffffffffffffff1673ffffffffffffffffffffffffffffffffffffffff16815260200184815260200183151515158152602001828103825287818151815260200191508051906020019080838360005b838110156107e65780820151818401526020810190506107cb565b50505050905090810190601f1680156108135780820380516001836020036101000a031916815260200191505b509850505050505050505060405180910390f35b6108536004803603602081101561083d57600080fd5b8101908080359060200190929190505050613ec7565b005b61088b6004803603604081101561086b57600080fd5b810190808035906020019092919080359060200190929190505050613f01565b005b6108d9600480360360408110156108a357600080fd5b8101908080359060200190929190803573ffffffffffffffffffffffffffffffffffffffff169060200190929190505050613f9a565b005b6109ab600480360360608110156108f157600080fd5b81019080803560ff169060200190929190803590602001909291908035906020019064010000000081111561092557600080fd5b82018360208201111561093757600080fd5b8035906020019184600183028401116401000000008311171561095957600080fd5b91908080601f016020809104026020016040519081016040528093929190818152602001838380828437600081840152601f19601f82011690508083019250505050505050919291929050505061408a565b6040518082815260200191505060405180910390f35b6109f7600480360360408110156109d757600080fd5b81019080803590602001909291908035906020019092919050505061474d565b005b610a2f60048036036040811015610a0f57600080fd5b8101908080359060200190929190803590602001909291905050506147e6565b6040518080602001828103825283818151815260200191508051906020019060200280838360005b83811015610a72578082015181840152602081019050610a57565b505050509050019250505060405180910390f35b610b6060048036036080811015610a9c57600080fd5b810190808035906020019092919080359060200190929190803560ff16906020019092919080359060200190640100000000811115610ada57600080fd5b820183602082011115610aec57600080fd5b80359060200191846001830284011164010000000083111715610b0e57600080fd5b91908080601f016020809104026020016040519081016040528093929190818152602001838380828437600081840152601f19601f820116905080830192505050505050509192919290505050614b41565b005b610bae60048036036040811015610b7857600080fd5b8101908080359060200190929190803573ffffffffffffffffffffffffffffffffffffffff169060200190929190505050615295565b005b610be660048036036040811015610bc657600080fd5b810190808035906020019092919080359060200190929190505050615385565b6040518080602001828103825283818151815260200191508051906020019060200280838360005b83811015610c29578082015181840152602081019050610c0e565b505050509050019250505060405180910390f35b610c6960048036036020811015610c5357600080fd5b81019080803590602001909291905050506156e0565b005b610c73615ae4565b6040518080602001828103825283818151815260200191508051906020019060200280838360005b83811015610cb6578082015181840152602081019050610c9b565b505050509050019250505060405180910390f35b610d0060048036036040811015610ce057600080fd5b810190808035906020019092919080359060200190929190505050615d86565b005b7fa85f577a4037d83ececf685e851e35a4e56611e8fcee1c571d2e1fb91359c53960405160405180910390a16000809054906101000a900473ffffffffffffffffffffffffffffffffffffffff1673ffffffffffffffffffffffffffffffffffffffff1663067be5dc83836040518363ffffffff1660e01b8152600401808381526020018273ffffffffffffffffffffffffffffffffffffffff1673ffffffffffffffffffffffffffffffffffffffff16815260200192505050600060405180830381600087803b158015610dd657600080fd5b505af1158015610dea573d6000803e3d6000fd5b505050505050565b60608160405160200180807f70617469656e7400000000000000000000000000000000000000000000000000815250600701905060405160208183030381529060405280519060200120610e44611df4565b6040516020018082805190602001908083835b60208310610e7a5780518252602082019150602081019050602083039250610e57565b6001836020036101000a0380198251168184511680821785525050505050509050019150506040516020818303038152906040528051906020012014610f28576040517f08c379a000000000000000000000000000000000000000000000000000000000815260040180806020018281038252601d8152602001807f5468697320706572736f6e206973206e6f7420612070617469656e742100000081525060200191505060405180910390fd5b600115156000809054906101000a900473ffffffffffffffffffffffffffffffffffffffff1673ffffffffffffffffffffffffffffffffffffffff16634b654378836040518263ffffffff1660e01b81526004018082815260200191505060206040518083038186803b158015610f9e57600080fd5b505afa158015610fb2573d6000803e3d6000fd5b505050506040513d6020811015610fc857600080fd5b810190808051906020019092919050505015151461104e576040517f08c379a000000000000000000000000000000000000000000000000000000000815260040180806020018281038252601d8152602001807f50617469656e7420494420676976656e206973206e6f742076616c696400000081525060200191505060405180910390fd5b806000809054906101000a900473ffffffffffffffffffffffffffffffffffffffff1673ffffffffffffffffffffffffffffffffffffffff1663a3005b49336040518263ffffffff1660e01b8152600401808273ffffffffffffffffffffffffffffffffffffffff1673ffffffffffffffffffffffffffffffffffffffff16815260200191505060206040518083038186803b1580156110ed57600080fd5b505afa158015611101573d6000803e3d6000fd5b505050506040513d602081101561111757600080fd5b81019080805190602001909291905050501461117e576040517f08c379a0000000000000000000000000000000000000000000000000000000008152600401808060200182810382526036815260200180615e7d6036913960400191505060405180910390fd5b6000809054906101000a900473ffffffffffffffffffffffffffffffffffffffff1673ffffffffffffffffffffffffffffffffffffffff166394237719846040518263ffffffff1660e01b81526004018082815260200191505060006040518083038186803b1580156111f057600080fd5b505afa158015611204573d6000803e3d6000fd5b505050506040513d6000823e3d601f19601f82011682018060405250602081101561122e57600080fd5b810190808051604051939291908464010000000082111561124e57600080fd5b8382019150602082018581111561126457600080fd5b825186602082028301116401000000008211171561128157600080fd5b8083526020830192505050908051906020019060200280838360005b838110156112b857808201518184015260208101905061129d565b50505050905001604052505050915050919050565b6060806112d8611df4565b905060405160200180807f646f63746f720000000000000000000000000000000000000000000000000000815250600601905060405160208183030381529060405280519060200120816040516020018082805190602001908083835b602083106113585780518252602082019150602081019050602083039250611335565b6001836020036101000a038019825116818451168082178552505050505050905001915050604051602081830303815290604052805190602001201480611455575060405160200180807f6e75727365000000000000000000000000000000000000000000000000000000815250600501905060405160208183030381529060405280519060200120816040516020018082805190602001908083835b6020831061141857805182526020820191506020810190506020830392506113f5565b6001836020036101000a03801982511681845116808217855250505050505090500191505060405160208183030381529060405280519060200120145b6114c7576040517f08c379a000000000000000000000000000000000000000000000000000000000815260040180806020018281038252601a8152602001807f55736572206973206e6f7420612070726163746974696f6e657200000000000081525060200191505060405180910390fd5b8260606114d2611df4565b905060405160200180807f646f63746f720000000000000000000000000000000000000000000000000000815250600601905060405160208183030381529060405280519060200120816040516020018082805190602001908083835b60208310611552578051825260208201915060208101905060208303925061152f565b6001836020036101000a03801982511681845116808217855250505050505090500191505060405160208183030381529060405280519060200120141561181357600115156000809054906101000a900473ffffffffffffffffffffffffffffffffffffffff1673ffffffffffffffffffffffffffffffffffffffff1663b01df35184336040518363ffffffff1660e01b8152600401808381526020018273ffffffffffffffffffffffffffffffffffffffff1673ffffffffffffffffffffffffffffffffffffffff1681526020019250505060206040518083038186803b15801561163d57600080fd5b505afa158015611651573d6000803e3d6000fd5b505050506040513d602081101561166757600080fd5b81019080805190602001909291905050501515146116d0576040517f08c379a0000000000000000000000000000000000000000000000000000000008152600401808060200182810382526033815260200180615e206033913960400191505060405180910390fd5b60011515600160009054906101000a900473ffffffffffffffffffffffffffffffffffffffff1673ffffffffffffffffffffffffffffffffffffffff16639cc5804884336040518363ffffffff1660e01b8152600401808381526020018273ffffffffffffffffffffffffffffffffffffffff1673ffffffffffffffffffffffffffffffffffffffff1681526020019250505060206040518083038186803b15801561177b57600080fd5b505afa15801561178f573d6000803e3d6000fd5b505050506040513d60208110156117a557600080fd5b810190808051906020019092919050505015151461180e576040517f08c379a000000000000000000000000000000000000000000000000000000000815260040180806020018281038252602b815260200180615eb3602b913960400191505060405180910390fd5b611b4f565b60405160200180807f6e75727365000000000000000000000000000000000000000000000000000000815250600501905060405160208183030381529060405280519060200120816040516020018082805190602001908083835b60208310611891578051825260208201915060208101905060208303925061186e565b6001836020036101000a038019825116818451168082178552505050505050905001915050604051602081830303815290604052805190602001201415611b4e57600115156000809054906101000a900473ffffffffffffffffffffffffffffffffffffffff1673ffffffffffffffffffffffffffffffffffffffff1663c412e7ba84336040518363ffffffff1660e01b8152600401808381526020018273ffffffffffffffffffffffffffffffffffffffff1673ffffffffffffffffffffffffffffffffffffffff1681526020019250505060206040518083038186803b15801561197c57600080fd5b505afa158015611990573d6000803e3d6000fd5b505050506040513d60208110156119a657600080fd5b8101908080519060200190929190505050151514611a0f576040517f08c379a0000000000000000000000000000000000000000000000000000000008152600401808060200182810382526031815260200180615ede6031913960400191505060405180910390fd5b60011515600260009054906101000a900473ffffffffffffffffffffffffffffffffffffffff1673ffffffffffffffffffffffffffffffffffffffff16639cc5804884336040518363ffffffff1660e01b8152600401808381526020018273ffffffffffffffffffffffffffffffffffffffff1673ffffffffffffffffffffffffffffffffffffffff1681526020019250505060206040518083038186803b158015611aba57600080fd5b505afa158015611ace573d6000803e3d6000fd5b505050506040513d6020811015611ae457600080fd5b8101908080519060200190929190505050151514611b4d576040517f08c379a000000000000000000000000000000000000000000000000000000000815260040180806020018281038252602a815260200180615e53602a913960400191505060405180910390fd5b5b5b6000809054906101000a900473ffffffffffffffffffffffffffffffffffffffff1673ffffffffffffffffffffffffffffffffffffffff16632363b0ff866040518263ffffffff1660e01b81526004018082815260200191505060006040518083038186803b158015611bc157600080fd5b505afa158015611bd5573d6000803e3d6000fd5b505050506040513d6000823e3d601f19601f820116820180604052506020811015611bff57600080fd5b8101908080516040519392919084640100000000821115611c1f57600080fd5b83820191506020820185811115611c3557600080fd5b8251866020820283011164010000000082111715611c5257600080fd5b8083526020830192505050908051906020019060200280838360005b83811015611c89578082015181840152602081019050611c6e565b505050509050016040525050509350505050919050565b600160009054906101000a900473ffffffffffffffffffffffffffffffffffffffff1673ffffffffffffffffffffffffffffffffffffffff1663ab16ae2a83836040518363ffffffff1660e01b81526004018083815260200182815260200192505050600060405180830381600087803b158015611d1d57600080fd5b505af1158015611d31573d6000803e3d6000fd5b505050505050565b7fa2a84ba412bea53801a40b8bbb06e1e17f397fe84c7f93e85308f060e8252dda60405160405180910390a16000809054906101000a900473ffffffffffffffffffffffffffffffffffffffff1673ffffffffffffffffffffffffffffffffffffffff1663303c9672826040518263ffffffff1660e01b815260040180828152602001915050600060405180830381600087803b158015611dd957600080fd5b505af1158015611ded573d6000803e3d6000fd5b5050505050565b6060600160009054906101000a900473ffffffffffffffffffffffffffffffffffffffff1673ffffffffffffffffffffffffffffffffffffffff1663e3843463336040518263ffffffff1660e01b8152600401808273ffffffffffffffffffffffffffffffffffffffff1673ffffffffffffffffffffffffffffffffffffffff16815260200191505060206040518083038186803b158015611e9557600080fd5b505afa158015611ea9573d6000803e3d6000fd5b505050506040513d6020811015611ebf57600080fd5b810190808051906020019092919050505015611f12576040518060400160405280600681526020017f646f63746f720000000000000000000000000000000000000000000000000000815250905061229e565b6000809054906101000a900473ffffffffffffffffffffffffffffffffffffffff1673ffffffffffffffffffffffffffffffffffffffff1663e3843463336040518263ffffffff1660e01b8152600401808273ffffffffffffffffffffffffffffffffffffffff1673ffffffffffffffffffffffffffffffffffffffff16815260200191505060206040518083038186803b158015611fb057600080fd5b505afa158015611fc4573d6000803e3d6000fd5b505050506040513d6020811015611fda57600080fd5b81019080805190602001909291905050501561202d576040518060400160405280600781526020017f70617469656e7400000000000000000000000000000000000000000000000000815250905061229e565b600260009054906101000a900473ffffffffffffffffffffffffffffffffffffffff1673ffffffffffffffffffffffffffffffffffffffff1663e3843463336040518263ffffffff1660e01b8152600401808273ffffffffffffffffffffffffffffffffffffffff1673ffffffffffffffffffffffffffffffffffffffff16815260200191505060206040518083038186803b1580156120cc57600080fd5b505afa1580156120e0573d6000803e3d6000fd5b505050506040513d60208110156120f657600080fd5b810190808051906020019092919050505015612149576040518060400160405280600581526020017f6e75727365000000000000000000000000000000000000000000000000000000815250905061229e565b600460009054906101000a900473ffffffffffffffffffffffffffffffffffffffff1673ffffffffffffffffffffffffffffffffffffffff1663e3843463336040518263ffffffff1660e01b8152600401808273ffffffffffffffffffffffffffffffffffffffff1673ffffffffffffffffffffffffffffffffffffffff16815260200191505060206040518083038186803b1580156121e857600080fd5b505afa1580156121fc573d6000803e3d6000fd5b505050506040513d602081101561221257600080fd5b810190808051906020019092919050505015612265576040518060400160405280600a81526020017f7265736561726368657200000000000000000000000000000000000000000000815250905061229e565b6040518060400160405280600781526020017f756e6b6e6f776e0000000000000000000000000000000000000000000000000081525090505b90565b60608160405160200180807f70617469656e74000000000000000000000000000000000000000000000000008152506007019050604051602081830303815290604052805190602001206122f3611df4565b6040516020018082805190602001908083835b602083106123295780518252602082019150602081019050602083039250612306565b6001836020036101000a03801982511681845116808217855250505050505090500191505060405160208183030381529060405280519060200120146123d7576040517f08c379a000000000000000000000000000000000000000000000000000000000815260040180806020018281038252601d8152602001807f5468697320706572736f6e206973206e6f7420612070617469656e742100000081525060200191505060405180910390fd5b600115156000809054906101000a900473ffffffffffffffffffffffffffffffffffffffff1673ffffffffffffffffffffffffffffffffffffffff16634b654378836040518263ffffffff1660e01b81526004018082815260200191505060206040518083038186803b15801561244d57600080fd5b505afa158015612461573d6000803e3d6000fd5b505050506040513d602081101561247757600080fd5b81019080805190602001909291905050501515146124fd576040517f08c379a000000000000000000000000000000000000000000000000000000000815260040180806020018281038252601d8152602001807f50617469656e7420494420676976656e206973206e6f742076616c696400000081525060200191505060405180910390fd5b806000809054906101000a900473ffffffffffffffffffffffffffffffffffffffff1673ffffffffffffffffffffffffffffffffffffffff1663a3005b49336040518263ffffffff1660e01b8152600401808273ffffffffffffffffffffffffffffffffffffffff1673ffffffffffffffffffffffffffffffffffffffff16815260200191505060206040518083038186803b15801561259c57600080fd5b505afa1580156125b0573d6000803e3d6000fd5b505050506040513d60208110156125c657600080fd5b81019080805190602001909291905050501461262d576040517f08c379a0000000000000000000000000000000000000000000000000000000008152600401808060200182810382526036815260200180615e7d6036913960400191505060405180910390fd5b6000809054906101000a900473ffffffffffffffffffffffffffffffffffffffff1673ffffffffffffffffffffffffffffffffffffffff16631bcec2e8846040518263ffffffff1660e01b81526004018082815260200191505060006040518083038186803b15801561269f57600080fd5b505afa1580156126b3573d6000803e3d6000fd5b505050506040513d6000823e3d601f19601f8201168201806040525060208110156126dd57600080fd5b81019080805160405193929190846401000000008211156126fd57600080fd5b8382019150602082018581111561271357600080fd5b825186602082028301116401000000008211171561273057600080fd5b8083526020830192505050908051906020019060200280838360005b8381101561276757808201518184015260208101905061274c565b50505050905001604052505050915050919050565b7f29bbef1b7f83e9b51d408e3ac98f6645d3164c664af051f9d539cde923e86a1c60405160405180910390a16000809054906101000a900473ffffffffffffffffffffffffffffffffffffffff1673ffffffffffffffffffffffffffffffffffffffff16635470e80483836040518363ffffffff1660e01b8152600401808381526020018273ffffffffffffffffffffffffffffffffffffffff1673ffffffffffffffffffffffffffffffffffffffff16815260200192505050600060405180830381600087803b15801561285057600080fd5b505af1158015612864573d6000803e3d6000fd5b505050505050565b600060608060608060405160200180807f7265736561726368657200000000000000000000000000000000000000000000815250600a019050604051602081830303815290604052805190602001206128c3611df4565b6040516020018082805190602001908083835b602083106128f957805182526020820191506020810190506020830392506128d6565b6001836020036101000a03801982511681845116808217855250505050505090500191505060405160208183030381529060405280519060200120146129a7576040517f08c379a00000000000000000000000000000000000000000000000000000000081526004018080602001828103825260208152602001807f5468697320706572736f6e206973206e6f74206120726573656172636865722181525060200191505060405180910390fd5b856000809054906101000a900473ffffffffffffffffffffffffffffffffffffffff1673ffffffffffffffffffffffffffffffffffffffff1663834fa06e826040518263ffffffff1660e01b81526004018082815260200191505060206040518083038186803b158015612a1a57600080fd5b505afa158015612a2e573d6000803e3d6000fd5b505050506040513d6020811015612a4457600080fd5b8101908080519060200190929190505050612aaa576040517f08c379a0000000000000000000000000000000000000000000000000000000008152600401808060200182810382526033815260200180615f0f6033913960400191505060405180910390fd5b6000809054906101000a900473ffffffffffffffffffffffffffffffffffffffff1673ffffffffffffffffffffffffffffffffffffffff16630178fe3f886040518263ffffffff1660e01b81526004018082815260200191505060006040518083038186803b158015612b1c57600080fd5b505afa158015612b30573d6000803e3d6000fd5b505050506040513d6000823e3d601f19601f8201168201806040525060a0811015612b5a57600080fd5b810190808051906020019092919080516040519392919084640100000000821115612b8457600080fd5b83820191506020820185811115612b9a57600080fd5b8251866001820283011164010000000082111715612bb757600080fd5b8083526020830192505050908051906020019080838360005b83811015612beb578082015181840152602081019050612bd0565b50505050905090810190601f168015612c185780820380516001836020036101000a031916815260200191505b5060405260200180516040519392919084640100000000821115612c3b57600080fd5b83820191506020820185811115612c5157600080fd5b8251866001820283011164010000000082111715612c6e57600080fd5b8083526020830192505050908051906020019080838360005b83811015612ca2578082015181840152602081019050612c87565b50505050905090810190601f168015612ccf5780820380516001836020036101000a031916815260200191505b5060405260200180516040519392919084640100000000821115612cf257600080fd5b83820191506020820185811115612d0857600080fd5b8251866001820283011164010000000082111715612d2557600080fd5b8083526020830192505050908051906020019080838360005b83811015612d59578082015181840152602081019050612d3e565b50505050905090810190601f168015612d865780820380516001836020036101000a031916815260200191505b5060405260200180516040519392919084640100000000821115612da957600080fd5b83820191506020820185811115612dbf57600080fd5b8251866001820283011164010000000082111715612ddc57600080fd5b8083526020830192505050908051906020019080838360005b83811015612e10578082015181840152602081019050612df5565b50505050905090810190601f168015612e3d5780820380516001836020036101000a031916815260200191505b50604052505050955095509550955095505091939590929450565b60608260405160200180807f70617469656e7400000000000000000000000000000000000000000000000000815250600701905060405160208183030381529060405280519060200120612eaa611df4565b6040516020018082805190602001908083835b60208310612ee05780518252602082019150602081019050602083039250612ebd565b6001836020036101000a0380198251168184511680821785525050505050509050019150506040516020818303038152906040528051906020012014612f8e576040517f08c379a000000000000000000000000000000000000000000000000000000000815260040180806020018281038252601d8152602001807f5468697320706572736f6e206973206e6f7420612070617469656e742100000081525060200191505060405180910390fd5b600115156000809054906101000a900473ffffffffffffffffffffffffffffffffffffffff1673ffffffffffffffffffffffffffffffffffffffff16634b654378836040518263ffffffff1660e01b81526004018082815260200191505060206040518083038186803b15801561300457600080fd5b505afa158015613018573d6000803e3d6000fd5b505050506040513d602081101561302e57600080fd5b81019080805190602001909291905050501515146130b4576040517f08c379a000000000000000000000000000000000000000000000000000000000815260040180806020018281038252601d8152602001807f50617469656e7420494420676976656e206973206e6f742076616c696400000081525060200191505060405180910390fd5b806000809054906101000a900473ffffffffffffffffffffffffffffffffffffffff1673ffffffffffffffffffffffffffffffffffffffff1663a3005b49336040518263ffffffff1660e01b8152600401808273ffffffffffffffffffffffffffffffffffffffff1673ffffffffffffffffffffffffffffffffffffffff16815260200191505060206040518083038186803b15801561315357600080fd5b505afa158015613167573d6000803e3d6000fd5b505050506040513d602081101561317d57600080fd5b8101908080519060200190929190505050146131e4576040517f08c379a0000000000000000000000000000000000000000000000000000000008152600401808060200182810382526036815260200180615e7d6036913960400191505060405180910390fd5b6000809054906101000a900473ffffffffffffffffffffffffffffffffffffffff1673ffffffffffffffffffffffffffffffffffffffff166336b7a09c85856040518363ffffffff1660e01b81526004018083815260200182600781111561324857fe5b60ff1681526020019250505060006040518083038186803b15801561326c57600080fd5b505afa158015613280573d6000803e3d6000fd5b505050506040513d6000823e3d601f19601f8201168201806040525060208110156132aa57600080fd5b81019080805160405193929190846401000000008211156132ca57600080fd5b838201915060208201858111156132e057600080fd5b82518660208202830111640100000000821117156132fd57600080fd5b8083526020830192505050908051906020019060200280838360005b83811015613334578082015181840152602081019050613319565b5050505090500160405250505091505092915050565b6000806060600080600080606061335f611df4565b905060405160200180807f646f63746f720000000000000000000000000000000000000000000000000000815250600601905060405160208183030381529060405280519060200120816040516020018082805190602001908083835b602083106133df57805182526020820191506020810190506020830392506133bc565b6001836020036101000a0380198251168184511680821785525050505050509050019150506040516020818303038152906040528051906020012014806134dc575060405160200180807f6e75727365000000000000000000000000000000000000000000000000000000815250600501905060405160208183030381529060405280519060200120816040516020018082805190602001908083835b6020831061349f578051825260208201915060208101905060208303925061347c565b6001836020036101000a03801982511681845116808217855250505050505090500191505060405160208183030381529060405280519060200120145b61354e576040517f08c379a000000000000000000000000000000000000000000000000000000000815260040180806020018281038252601a8152602001807f55736572206973206e6f7420612070726163746974696f6e657200000000000081525060200191505060405180910390fd5b896060613559611df4565b905060405160200180807f646f63746f720000000000000000000000000000000000000000000000000000815250600601905060405160208183030381529060405280519060200120816040516020018082805190602001908083835b602083106135d957805182526020820191506020810190506020830392506135b6565b6001836020036101000a03801982511681845116808217855250505050505090500191505060405160208183030381529060405280519060200120141561389a57600115156000809054906101000a900473ffffffffffffffffffffffffffffffffffffffff1673ffffffffffffffffffffffffffffffffffffffff1663b01df35184336040518363ffffffff1660e01b8152600401808381526020018273ffffffffffffffffffffffffffffffffffffffff1673ffffffffffffffffffffffffffffffffffffffff1681526020019250505060206040518083038186803b1580156136c457600080fd5b505afa1580156136d8573d6000803e3d6000fd5b505050506040513d60208110156136ee57600080fd5b8101908080519060200190929190505050151514613757576040517f08c379a0000000000000000000000000000000000000000000000000000000008152600401808060200182810382526033815260200180615e206033913960400191505060405180910390fd5b60011515600160009054906101000a900473ffffffffffffffffffffffffffffffffffffffff1673ffffffffffffffffffffffffffffffffffffffff16639cc5804884336040518363ffffffff1660e01b8152600401808381526020018273ffffffffffffffffffffffffffffffffffffffff1673ffffffffffffffffffffffffffffffffffffffff1681526020019250505060206040518083038186803b15801561380257600080fd5b505afa158015613816573d6000803e3d6000fd5b505050506040513d602081101561382c57600080fd5b8101908080519060200190929190505050151514613895576040517f08c379a000000000000000000000000000000000000000000000000000000000815260040180806020018281038252602b815260200180615eb3602b913960400191505060405180910390fd5b613bd6565b60405160200180807f6e75727365000000000000000000000000000000000000000000000000000000815250600501905060405160208183030381529060405280519060200120816040516020018082805190602001908083835b6020831061391857805182526020820191506020810190506020830392506138f5565b6001836020036101000a038019825116818451168082178552505050505050905001915050604051602081830303815290604052805190602001201415613bd557600115156000809054906101000a900473ffffffffffffffffffffffffffffffffffffffff1673ffffffffffffffffffffffffffffffffffffffff1663c412e7ba84336040518363ffffffff1660e01b8152600401808381526020018273ffffffffffffffffffffffffffffffffffffffff1673ffffffffffffffffffffffffffffffffffffffff1681526020019250505060206040518083038186803b158015613a0357600080fd5b505afa158015613a17573d6000803e3d6000fd5b505050506040513d6020811015613a2d57600080fd5b8101908080519060200190929190505050151514613a96576040517f08c379a0000000000000000000000000000000000000000000000000000000008152600401808060200182810382526031815260200180615ede6031913960400191505060405180910390fd5b60011515600260009054906101000a900473ffffffffffffffffffffffffffffffffffffffff1673ffffffffffffffffffffffffffffffffffffffff16639cc5804884336040518363ffffffff1660e01b8152600401808381526020018273ffffffffffffffffffffffffffffffffffffffff1673ffffffffffffffffffffffffffffffffffffffff1681526020019250505060206040518083038186803b158015613b4157600080fd5b505afa158015613b55573d6000803e3d6000fd5b505050506040513d6020811015613b6b57600080fd5b8101908080519060200190929190505050151514613bd4576040517f08c379a000000000000000000000000000000000000000000000000000000000815260040180806020018281038252602a815260200180615e53602a913960400191505060405180910390fd5b5b5b8a60011515600360009054906101000a900473ffffffffffffffffffffffffffffffffffffffff1673ffffffffffffffffffffffffffffffffffffffff166327d6030b836040518263ffffffff1660e01b81526004018082815260200191505060206040518083038186803b158015613c4e57600080fd5b505afa158015613c62573d6000803e3d6000fd5b505050506040513d6020811015613c7857600080fd5b8101908080519060200190929190505050151514613cfe576040517f08c379a000000000000000000000000000000000000000000000000000000000815260040180806020018281038252601c8152602001807f5265636f726420494420676976656e206973206e6f742076616c69640000000081525060200191505060405180910390fd5b600360009054906101000a900473ffffffffffffffffffffffffffffffffffffffff1673ffffffffffffffffffffffffffffffffffffffff166303e9e6098d6040518263ffffffff1660e01b81526004018082815260200191505060006040518083038186803b158015613d7157600080fd5b505afa158015613d85573d6000803e3d6000fd5b505050506040513d6000823e3d601f19601f8201168201806040525060e0811015613daf57600080fd5b81019080805190602001909291908051906020019092919080516040519392919084640100000000821115613de357600080fd5b83820191506020820185811115613df957600080fd5b8251866001820283011164010000000082111715613e1657600080fd5b8083526020830192505050908051906020019080838360005b83811015613e4a578082015181840152602081019050613e2f565b50505050905090810190601f168015613e775780820380516001836020036101000a031916815260200191505b50604052602001805190602001909291908051906020019092919080519060200190929190805190602001909291905050509a509a509a509a509a509a509a505050505092959891949750929550565b7fdcd9c7fa0342f01013bd0bf2bec103a81936162dcebd1f0c38b1d4164c17e0fc816040518082815260200191505060405180910390a150565b600260009054906101000a900473ffffffffffffffffffffffffffffffffffffffff1673ffffffffffffffffffffffffffffffffffffffff1663ae185dce83836040518363ffffffff1660e01b81526004018083815260200182815260200192505050600060405180830381600087803b158015613f7e57600080fd5b505af1158015613f92573d6000803e3d6000fd5b505050505050565b7f3cd5c35cdbdbab148903c80d8ffcfc65e2978e15cff0b07bfd36b59e6d6bb8f960405160405180910390a16000809054906101000a900473ffffffffffffffffffffffffffffffffffffffff1673ffffffffffffffffffffffffffffffffffffffff1663bb4182c383836040518363ffffffff1660e01b8152600401808381526020018273ffffffffffffffffffffffffffffffffffffffff1673ffffffffffffffffffffffffffffffffffffffff16815260200192505050600060405180830381600087803b15801561406e57600080fd5b505af1158015614082573d6000803e3d6000fd5b505050505050565b6000826060614097611df4565b905060405160200180807f646f63746f720000000000000000000000000000000000000000000000000000815250600601905060405160208183030381529060405280519060200120816040516020018082805190602001908083835b6020831061411757805182526020820191506020810190506020830392506140f4565b6001836020036101000a03801982511681845116808217855250505050505090500191505060405160208183030381529060405280519060200120146141c5576040517f08c379a00000000000000000000000000000000000000000000000000000000081526004018080602001828103825260158152602001807f55736572206973206e6f74206120646f63746f7221000000000000000000000081525060200191505060405180910390fd5b600115156000809054906101000a900473ffffffffffffffffffffffffffffffffffffffff1673ffffffffffffffffffffffffffffffffffffffff1663b01df35184336040518363ffffffff1660e01b8152600401808381526020018273ffffffffffffffffffffffffffffffffffffffff1673ffffffffffffffffffffffffffffffffffffffff1681526020019250505060206040518083038186803b15801561426f57600080fd5b505afa158015614283573d6000803e3d6000fd5b505050506040513d602081101561429957600080fd5b8101908080519060200190929190505050151514614302576040517f08c379a0000000000000000000000000000000000000000000000000000000008152600401808060200182810382526033815260200180615e206033913960400191505060405180910390fd5b60011515600160009054906101000a900473ffffffffffffffffffffffffffffffffffffffff1673ffffffffffffffffffffffffffffffffffffffff16639cc5804884336040518363ffffffff1660e01b8152600401808381526020018273ffffffffffffffffffffffffffffffffffffffff1673ffffffffffffffffffffffffffffffffffffffff1681526020019250505060206040518083038186803b1580156143ad57600080fd5b505afa1580156143c1573d6000803e3d6000fd5b505050506040513d60208110156143d757600080fd5b8101908080519060200190929190505050151514614440576040517f08c379a000000000000000000000000000000000000000000000000000000000815260040180806020018281038252602b815260200180615eb3602b913960400191505060405180910390fd5b600360009054906101000a900473ffffffffffffffffffffffffffffffffffffffff1673ffffffffffffffffffffffffffffffffffffffff166383ac1d0787866000809054906101000a900473ffffffffffffffffffffffffffffffffffffffff1673ffffffffffffffffffffffffffffffffffffffff1663097ee8cd8a6040518263ffffffff1660e01b81526004018082815260200191505060206040518083038186803b1580156144f257600080fd5b505afa158015614506573d6000803e3d6000fd5b505050506040513d602081101561451c57600080fd5b8101908080519060200190929190505050336040518563ffffffff1660e01b81526004018085600781111561454d57fe5b60ff168152602001806020018473ffffffffffffffffffffffffffffffffffffffff1673ffffffffffffffffffffffffffffffffffffffff1681526020018373ffffffffffffffffffffffffffffffffffffffff1673ffffffffffffffffffffffffffffffffffffffff168152602001828103825285818151815260200191508051906020019080838360005b838110156145f55780820151818401526020810190506145da565b50505050905090810190601f1680156146225780820380516001836020036101000a031916815260200191505b5095505050505050602060405180830381600087803b15801561464457600080fd5b505af1158015614658573d6000803e3d6000fd5b505050506040513d602081101561466e57600080fd5b810190808051906020019092919050505092506000809054906101000a900473ffffffffffffffffffffffffffffffffffffffff1673ffffffffffffffffffffffffffffffffffffffff16638fa3b5c786856040518363ffffffff1660e01b81526004018083815260200182815260200192505050600060405180830381600087803b1580156146fd57600080fd5b505af1158015614711573d6000803e3d6000fd5b505050507fa3864107517fb55756a302ce7374eafe6be466bc7c6c7eae4b5879bb19fe4ac060405160405180910390a182925050509392505050565b600160009054906101000a900473ffffffffffffffffffffffffffffffffffffffff1673ffffffffffffffffffffffffffffffffffffffff1663ae185dce83836040518363ffffffff1660e01b81526004018083815260200182815260200192505050600060405180830381600087803b1580156147ca57600080fd5b505af11580156147de573d6000803e3d6000fd5b505050505050565b60608160011515600260009054906101000a900473ffffffffffffffffffffffffffffffffffffffff1673ffffffffffffffffffffffffffffffffffffffff16632bfdd1db836040518263ffffffff1660e01b81526004018082815260200191505060206040518083038186803b15801561486057600080fd5b505afa158015614874573d6000803e3d6000fd5b505050506040513d602081101561488a57600080fd5b8101908080519060200190929190505050151514614910576040517f08c379a000000000000000000000000000000000000000000000000000000000815260040180806020018281038252601b8152602001807f4e7572736520494420676976656e206973206e6f742076616c6964000000000081525060200191505060405180910390fd5b6000809054906101000a900473ffffffffffffffffffffffffffffffffffffffff1673ffffffffffffffffffffffffffffffffffffffff16634976b3b585600260009054906101000a900473ffffffffffffffffffffffffffffffffffffffff1673ffffffffffffffffffffffffffffffffffffffff1663f1998f64876040518263ffffffff1660e01b81526004018082815260200191505060206040518083038186803b1580156149c157600080fd5b505afa1580156149d5573d6000803e3d6000fd5b505050506040513d60208110156149eb57600080fd5b81019080805190602001909291905050506040518363ffffffff1660e01b8152600401808381526020018273ffffffffffffffffffffffffffffffffffffffff1673ffffffffffffffffffffffffffffffffffffffff1681526020019250505060006040518083038186803b158015614a6357600080fd5b505afa158015614a77573d6000803e3d6000fd5b505050506040513d6000823e3d601f19601f820116820180604052506020811015614aa157600080fd5b8101908080516040519392919084640100000000821115614ac157600080fd5b83820191506020820185811115614ad757600080fd5b8251866020820283011164010000000082111715614af457600080fd5b8083526020830192505050908051906020019060200280838360005b83811015614b2b578082015181840152602081019050614b10565b5050505090500160405250505091505092915050565b8383336060614b4e611df4565b905060405160200180807f646f63746f720000000000000000000000000000000000000000000000000000815250600601905060405160208183030381529060405280519060200120816040516020018082805190602001908083835b60208310614bce5780518252602082019150602081019050602083039250614bab565b6001836020036101000a0380198251168184511680821785525050505050509050019150506040516020818303038152906040528051906020012014614c7c576040517f08c379a00000000000000000000000000000000000000000000000000000000081526004018080602001828103825260158152602001807f55736572206973206e6f74206120646f63746f7221000000000000000000000081525060200191505060405180910390fd5b60011515600360009054906101000a900473ffffffffffffffffffffffffffffffffffffffff1673ffffffffffffffffffffffffffffffffffffffff1663d3b94f5085856040518363ffffffff1660e01b8152600401808381526020018273ffffffffffffffffffffffffffffffffffffffff1673ffffffffffffffffffffffffffffffffffffffff1681526020019250505060206040518083038186803b158015614d2757600080fd5b505afa158015614d3b573d6000803e3d6000fd5b505050506040513d6020811015614d5157600080fd5b8101908080519060200190929190505050151514614dd7576040517f08c379a00000000000000000000000000000000000000000000000000000000081526004018080602001828103825260158152602001807f446f63746f72206973206e6f742069737375657221000000000000000000000081525060200191505060405180910390fd5b600115156000809054906101000a900473ffffffffffffffffffffffffffffffffffffffff1673ffffffffffffffffffffffffffffffffffffffff1663b01df35186336040518363ffffffff1660e01b8152600401808381526020018273ffffffffffffffffffffffffffffffffffffffff1673ffffffffffffffffffffffffffffffffffffffff1681526020019250505060206040518083038186803b158015614e8157600080fd5b505afa158015614e95573d6000803e3d6000fd5b505050506040513d6020811015614eab57600080fd5b8101908080519060200190929190505050151514614f14576040517f08c379a0000000000000000000000000000000000000000000000000000000008152600401808060200182810382526033815260200180615e206033913960400191505060405180910390fd5b60011515600160009054906101000a900473ffffffffffffffffffffffffffffffffffffffff1673ffffffffffffffffffffffffffffffffffffffff16639cc5804886336040518363ffffffff1660e01b8152600401808381526020018273ffffffffffffffffffffffffffffffffffffffff1673ffffffffffffffffffffffffffffffffffffffff1681526020019250505060206040518083038186803b158015614fbf57600080fd5b505afa158015614fd3573d6000803e3d6000fd5b505050506040513d6020811015614fe957600080fd5b8101908080519060200190929190505050151514615052576040517f08c379a000000000000000000000000000000000000000000000000000000000815260040180806020018281038252602b815260200180615eb3602b913960400191505060405180910390fd5b8660011515600360009054906101000a900473ffffffffffffffffffffffffffffffffffffffff1673ffffffffffffffffffffffffffffffffffffffff166327d6030b836040518263ffffffff1660e01b81526004018082815260200191505060206040518083038186803b1580156150ca57600080fd5b505afa1580156150de573d6000803e3d6000fd5b505050506040513d60208110156150f457600080fd5b810190808051906020019092919050505015151461517a576040517f08c379a000000000000000000000000000000000000000000000000000000000815260040180806020018281038252601c8152602001807f5265636f726420494420676976656e206973206e6f742076616c69640000000081525060200191505060405180910390fd5b600360009054906101000a900473ffffffffffffffffffffffffffffffffffffffff1673ffffffffffffffffffffffffffffffffffffffff16636a5cb5d88989896040518463ffffffff1660e01b8152600401808481526020018360078111156151e057fe5b60ff16815260200180602001828103825283818151815260200191508051906020019080838360005b83811015615224578082015181840152602081019050615209565b50505050905090810190601f1680156152515780820380516001836020036101000a031916815260200191505b50945050505050600060405180830381600087803b15801561527257600080fd5b505af1158015615286573d6000803e3d6000fd5b50505050505050505050505050565b7fb159a57c444ee3ed6158798469f5395fa80148bc3b127733920d04e7bc76a71b60405160405180910390a16000809054906101000a900473ffffffffffffffffffffffffffffffffffffffff1673ffffffffffffffffffffffffffffffffffffffff1663d87ce24283836040518363ffffffff1660e01b8152600401808381526020018273ffffffffffffffffffffffffffffffffffffffff1673ffffffffffffffffffffffffffffffffffffffff16815260200192505050600060405180830381600087803b15801561536957600080fd5b505af115801561537d573d6000803e3d6000fd5b505050505050565b60608160011515600160009054906101000a900473ffffffffffffffffffffffffffffffffffffffff1673ffffffffffffffffffffffffffffffffffffffff16635fc7fc64836040518263ffffffff1660e01b81526004018082815260200191505060206040518083038186803b1580156153ff57600080fd5b505afa158015615413573d6000803e3d6000fd5b505050506040513d602081101561542957600080fd5b81019080805190602001909291905050501515146154af576040517f08c379a000000000000000000000000000000000000000000000000000000000815260040180806020018281038252601c8152602001807f446f63746f7220494420676976656e206973206e6f742076616c69640000000081525060200191505060405180910390fd5b6000809054906101000a900473ffffffffffffffffffffffffffffffffffffffff1673ffffffffffffffffffffffffffffffffffffffff16634976b3b585600160009054906101000a900473ffffffffffffffffffffffffffffffffffffffff1673ffffffffffffffffffffffffffffffffffffffff16631851611c876040518263ffffffff1660e01b81526004018082815260200191505060206040518083038186803b15801561556057600080fd5b505afa158015615574573d6000803e3d6000fd5b505050506040513d602081101561558a57600080fd5b81019080805190602001909291905050506040518363ffffffff1660e01b8152600401808381526020018273ffffffffffffffffffffffffffffffffffffffff1673ffffffffffffffffffffffffffffffffffffffff1681526020019250505060006040518083038186803b15801561560257600080fd5b505afa158015615616573d6000803e3d6000fd5b505050506040513d6000823e3d601f19601f82011682018060405250602081101561564057600080fd5b810190808051604051939291908464010000000082111561566057600080fd5b8382019150602082018581111561567657600080fd5b825186602082028301116401000000008211171561569357600080fd5b8083526020830192505050908051906020019060200280838360005b838110156156ca5780820151818401526020810190506156af565b5050505090500160405250505091505092915050565b8060011515600360009054906101000a900473ffffffffffffffffffffffffffffffffffffffff1673ffffffffffffffffffffffffffffffffffffffff166327d6030b836040518263ffffffff1660e01b81526004018082815260200191505060206040518083038186803b15801561575857600080fd5b505afa15801561576c573d6000803e3d6000fd5b505050506040513d602081101561578257600080fd5b8101908080519060200190929190505050151514615808576040517f08c379a000000000000000000000000000000000000000000000000000000000815260040180806020018281038252601c8152602001807f5265636f726420494420676976656e206973206e6f742076616c69640000000081525060200191505060405180910390fd5b8160011515600360009054906101000a900473ffffffffffffffffffffffffffffffffffffffff1673ffffffffffffffffffffffffffffffffffffffff16630224ad4483336040518363ffffffff1660e01b8152600401808381526020018273ffffffffffffffffffffffffffffffffffffffff1673ffffffffffffffffffffffffffffffffffffffff1681526020019250505060206040518083038186803b1580156158b457600080fd5b505afa1580156158c8573d6000803e3d6000fd5b505050506040513d60208110156158de57600080fd5b8101908080519060200190929190505050151514615947576040517f08c379a0000000000000000000000000000000000000000000000000000000008152600401808060200182810382526026815260200180615f426026913960400191505060405180910390fd5b7f965d05df335fb498d945e6826668e08d971c0713b278527013053d361be2b59860405160405180910390a16000809054906101000a900473ffffffffffffffffffffffffffffffffffffffff1673ffffffffffffffffffffffffffffffffffffffff1663a3f477f46000809054906101000a900473ffffffffffffffffffffffffffffffffffffffff1673ffffffffffffffffffffffffffffffffffffffff1663a3005b49336040518263ffffffff1660e01b8152600401808273ffffffffffffffffffffffffffffffffffffffff1673ffffffffffffffffffffffffffffffffffffffff16815260200191505060206040518083038186803b158015615a4e57600080fd5b505afa158015615a62573d6000803e3d6000fd5b505050506040513d6020811015615a7857600080fd5b8101908080519060200190929190505050856040518363ffffffff1660e01b81526004018083815260200182815260200192505050600060405180830381600087803b158015615ac757600080fd5b505af1158015615adb573d6000803e3d6000fd5b50505050505050565b606060405160200180807f7265736561726368657200000000000000000000000000000000000000000000815250600a01905060405160208183030381529060405280519060200120615b35611df4565b6040516020018082805190602001908083835b60208310615b6b5780518252602082019150602081019050602083039250615b48565b6001836020036101000a0380198251168184511680821785525050505050509050019150506040516020818303038152906040528051906020012014615c19576040517f08c379a00000000000000000000000000000000000000000000000000000000081526004018080602001828103825260208152602001807f5468697320706572736f6e206973206e6f74206120726573656172636865722181525060200191505060405180910390fd5b7f89be633ca6bdcf03e1d1e4304c9db3cc86fdfbe82edbb144681a1fffb2155ff460405160405180910390a16000809054906101000a900473ffffffffffffffffffffffffffffffffffffffff1673ffffffffffffffffffffffffffffffffffffffff166311fc621d6040518163ffffffff1660e01b815260040160006040518083038186803b158015615cac57600080fd5b505afa158015615cc0573d6000803e3d6000fd5b505050506040513d6000823e3d601f19601f820116820180604052506020811015615cea57600080fd5b8101908080516040519392919084640100000000821115615d0a57600080fd5b83820191506020820185811115615d2057600080fd5b8251866020820283011164010000000082111715615d3d57600080fd5b8083526020830192505050908051906020019060200280838360005b83811015615d74578082015181840152602081019050615d59565b50505050905001604052505050905090565b600260009054906101000a900473ffffffffffffffffffffffffffffffffffffffff1673ffffffffffffffffffffffffffffffffffffffff1663ae185dce83836040518363ffffffff1660e01b81526004018083815260200182815260200192505050600060405180830381600087803b158015615e0357600080fd5b505af1158015615e17573d6000803e3d6000fd5b50505050505056fe446f63746f72206973206e6f7420696e2070617469656e742773206c697374206f6620617070726f76656420646f63746f727350617469656e74206973206e6f7420696e206e757273652773206c697374206f662070617469656e747350617469656e74206973206e6f7420616c6c6f77656420746f2076696577206f746865722070617469656e742773207265636f72647350617469656e74206973206e6f7420696e20646f63746f722773206c697374206f662070617469656e74734e75727365206973206e6f7420696e2070617469656e742773206c697374206f6620617070726f766564206e757273657350617469656e7420686173206e6f7420617070726f766564206461746120666f7220726573656172636820707572706f7365735265636f726420646f6573206e6f742062656c6f6e6720746f20746869732070617469656e74a265627a7a723158200eb249f93257f920297518038ca81eaaa233509da7df35c3f6c71dddd1fd248264736f6c63430005110032",
  "source": "pragma solidity ^0.5.0;\n\nimport \"./Patient.sol\";\nimport \"./Doctor.sol\";\nimport \"./Nurse.sol\";\nimport \"./EHR.sol\";\nimport \"./Researcher.sol\";\n\n\ncontract medicalChain {\n\n  Patient patientContract;\n  Doctor doctorContract;\n  Nurse nurseContract;\n  EHR ehrContract;\n  Researcher researcherContract;\n\n\n  constructor(Patient patientAddress, Doctor doctorAddress, Nurse nurseAddress, EHR ehrAddress, Researcher researcherAddress) public {\n    patientContract = patientAddress;\n    doctorContract = doctorAddress;\n    nurseContract = nurseAddress;\n    ehrContract = ehrAddress;\n    researcherContract = researcherAddress;\n  }\n\n  /********* EVENTS *********/  \n\n  event PatientAdded(address patientId);\n  event DoctorAdded(address doctorId);\n  event NurseAdded(address nurseId);\n  event testEvent(uint256 test);\n  event GivingDoctorAccess();\n  event RemovingDoctorAccess();\n  event GivingNurseAccess();\n  event RemovingNurseAccess();\n  event GivingResearcherAccess();\n  event AddingEHR();\n  event AcknowledgingRecord();\n  event GettingApprovedPatients();\n\n  /********* MODIFIERS *********/\n\n  // prevent doctor from self-diagnosing, doctor cannot write on their own record\n  modifier doctorIsNotPatient(address patientId, address doctorId) {\n    require(patientId != doctorId, \"Doctor should not self-diagnose\");\n    _;\n  }\n\n  // modifier isPractitionerApproved(uint256 patientId) {\n  //   string memory role = getSenderRole();\n  //   if (keccak256(abi.encodePacked((role))) == keccak256(abi.encodePacked((\"doctor\")))) {\n  //     require(patientContract.isApprovedDoctor(patientId, msg.sender) == true, \"Doctor is not in patient's list of approved doctors\");\n  //   } else if (keccak256(abi.encodePacked((role))) == keccak256(abi.encodePacked((\"nurse\")))) {\n  //     require(patientContract.isApprovedNurse(patientId, msg.sender) == true, \"Nurse is not in patient's list of approved nurses\");\n  //   }\n  //   _;\n  // }\n\n  // modifier isPatientRegisteredWithPractitioner(uint256 patientId) {\n  //   string memory role = getSenderRole();\n  //   if (keccak256(abi.encodePacked((role))) == keccak256(abi.encodePacked((\"doctor\")))) {\n  //     require(doctorContract.isPatientInListOfPatients(patientId, msg.sender) == true, \"Patient is not in doctor's list of patients\");\n  //   } else if (keccak256(abi.encodePacked((role))) == keccak256(abi.encodePacked((\"nurse\")))) {\n  //     require(nurseContract.isPatientInListOfPatients(patientId, msg.sender) == true, \"Patient is not in nurse's list of patients\");\n  //   }\n  //   _;\n  // }\n\n  modifier isPractitioner() {\n    string memory role = getSenderRole();\n    require(keccak256(abi.encodePacked((role))) == keccak256(abi.encodePacked((\"doctor\"))) || keccak256(abi.encodePacked((role))) == keccak256(abi.encodePacked((\"nurse\"))), \"User is not a practitioner\");\n    _;\n  }\n\n  modifier isPractitionerApprovedAndPatientRegisteredWithPractitioner(uint256 patientId) {\n    string memory role = getSenderRole();\n    // check if sender is a doctor\n    if (keccak256(abi.encodePacked((role))) == keccak256(abi.encodePacked((\"doctor\")))) {\n      require(patientContract.isApprovedDoctor(patientId, msg.sender) == true, \"Doctor is not in patient's list of approved doctors\");\n      require(doctorContract.isPatientInListOfPatients(patientId, msg.sender) == true, \"Patient is not in doctor's list of patients\");\n    } else if (keccak256(abi.encodePacked((role))) == keccak256(abi.encodePacked((\"nurse\")))) {\n      require(patientContract.isApprovedNurse(patientId, msg.sender) == true, \"Nurse is not in patient's list of approved nurses\");\n      require(nurseContract.isPatientInListOfPatients(patientId, msg.sender) == true, \"Patient is not in nurse's list of patients\");\n    }\n    _;\n  }\n\n  modifier isDoctorApprovedAndPatientRegisteredWithDoctor(uint256 patientId) {\n    string memory role = getSenderRole();\n    require(keccak256(abi.encodePacked((role))) == keccak256(abi.encodePacked((\"doctor\"))), \"User is not a doctor!\");\n    require(patientContract.isApprovedDoctor(patientId, msg.sender) == true, \"Doctor is not in patient's list of approved doctors\");\n    require(doctorContract.isPatientInListOfPatients(patientId, msg.sender) == true, \"Patient is not in doctor's list of patients\");\n    _;\n  }\n\nmodifier isDoctorApprovedAndPatientRegisteredWithDoctorAndIssuer(uint256 patientId, uint256 recordId, address doctorAddress) {\n    string memory role = getSenderRole();\n    require(keccak256(abi.encodePacked((role))) == keccak256(abi.encodePacked((\"doctor\"))), \"User is not a doctor!\");\n    require(ehrContract.doesRecordMatchDoctorAddress(recordId, doctorAddress) == true, \"Doctor is not issuer!\");\n    require(patientContract.isApprovedDoctor(patientId, msg.sender) == true, \"Doctor is not in patient's list of approved doctors\");\n    require(doctorContract.isPatientInListOfPatients(patientId, msg.sender) == true, \"Patient is not in doctor's list of patients\");\n    _;\n  }\n  \n\n  // modifier isPractitionerAbleToViewRecord(uint256 recordId) {\n  //   string memory role = getSenderRole();\n  //   if (keccak256(abi.encodePacked((role))) == keccak256(abi.encodePacked((\"doctor\")))) {\n  //     require(patientContract.isApprovedDoctor(patientContract.getPatientIdFromPatientAddress(ehrContract.getRecordPatientAddress(recordId)), msg.sender), \"Doctor is not in the patient's approved doctors\");\n  //   } else if (keccak256(abi.encodePacked((role))) == keccak256(abi.encodePacked((\"nurse\")))) {\n  //     require(patientContract.isApprovedNurse(patientContract.getPatientIdFromPatientAddress(ehrContract.getRecordPatientAddress(recordId)), msg.sender), \"Nurse is not in the patient's approved nurses\");\n  //   }\n  //   _;\n  // }\n\n  modifier isPatientAndAuthorised(uint256 patientId) {\n    require(keccak256(abi.encodePacked(getSenderRole())) == keccak256(abi.encodePacked((\"patient\"))), \"This person is not a patient!\");\n    require(patientContract.isValidPatientId(patientId) == true, \"Patient ID given is not valid\");\n    require(patientContract.getPatientIdFromPatientAddress(msg.sender) == patientId, \"Patient is not allowed to view other patient's records\");\n    _;\n  }\n\n  modifier isValidDoctorId(uint256 doctorId) {\n    require(doctorContract.isValidDoctorId(doctorId) == true, \"Doctor ID given is not valid\");\n    _;\n  }\n\n  modifier isValidNurseId(uint256 nurseId) {\n    require(nurseContract.isValidNurseId(nurseId) == true, \"Nurse ID given is not valid\");\n    _;\n  }\n\n  modifier isValidRecordId(uint256 recordId) {\n    require(ehrContract.isValidRecordId(recordId) == true, \"Record ID given is not valid\");\n    _;\n  }\n\n  modifier isRecordBelongToPatient(uint256 recordId) {\n    require(ehrContract.isRecordBelongToPatient(recordId, msg.sender) == true, \"Record does not belong to this patient\");\n    _;\n  }\n\n  modifier isResearcherAbleToViewPatientData(uint256 patientId) {\n    require(patientContract.getApprovedReseacher(patientId), \"Patient has not approved data for research purposes\");\n    _;\n  }\n\n  modifier isResearcher() {\n    require(keccak256(abi.encodePacked(getSenderRole())) == keccak256(abi.encodePacked((\"researcher\"))), \"This person is not a researcher!\");\n    _;\n  }\n\n\n  /********* FUNCTIONS *********/\n\n  function getSenderRole() public view returns (string memory) {\n    if (doctorContract.isSender(msg.sender)) {\n      return \"doctor\";\n    } else if (patientContract.isSender(msg.sender)) {\n      return \"patient\";\n    } else if (nurseContract.isSender(msg.sender)) {\n      return \"nurse\";\n    } else if (researcherContract.isSender(msg.sender)) {\n      return \"researcher\";\n    } else {\n      return \"unknown\";\n    }\n  }\n\n  function giveDoctorAccess(uint256 patientId, address doctorAddress) public {\n    emit GivingDoctorAccess();\n    patientContract.giveDoctorAccess(patientId, doctorAddress);\n  }\n\n  function removeDoctorAccess(uint256 patientId, address doctorAddress) public {\n    emit RemovingDoctorAccess();\n    patientContract.removeDoctorAccess(patientId, doctorAddress);\n  }\n\n  function giveNurseAccess(uint256 patientId, address nurseAddress) public {\n    emit GivingNurseAccess();\n    patientContract.giveNurseAccess(patientId, nurseAddress);\n  }\n\n  function removeNurseAccess(uint256 patientId, address nurseAddress) public {\n    emit RemovingNurseAccess();\n    patientContract.removeNurseAccess(patientId, nurseAddress);\n  }\n\n  function registerPatientWithDoctor(uint256 doctorId, uint256 patientId) public {\n    doctorContract.registerPatient(doctorId, patientId);\n  }\n\n  function unregisterPatientWithDoctor(uint256 doctorId, uint256 patientId) public {\n    doctorContract.unregisterPatient(doctorId, patientId);\n  }\n\n  function registerPatientWithNurse(uint256 nurseId, uint256 patientId) public {\n    nurseContract.registerPatient(nurseId, patientId);\n  }\n\n  function unregisterPatientWithNurse(uint256 nurseId, uint256 patientId) public {\n    nurseContract.registerPatient(nurseId, patientId);\n  }\n\n  function giveResearcherAccess(uint256 patientId) public {\n    emit GivingResearcherAccess();\n    patientContract.giveResearcherAccess(patientId);\n  }\n\n  function testingTest(uint256 test) public {\n    emit testEvent(test);\n  }\n\n  // // Add new EHR\n  function addNewEHR(EHR.RecordType recordType, uint256 patientId, string memory filename) public isDoctorApprovedAndPatientRegisteredWithDoctor(patientId) returns (uint256 recordId) {\n\n      // Check if msg.sender is doctor or nurse\n      // Check if msg.sender is inside patient's approvedDoctors or approvedNurses\n      // Check if patientId inside doctor's patients\n      // Add new EHR\n      // add recordId into patient and doctors records\n\n      // address patientAddress = patientContract.getPatientAddress(patientId);\n      recordId = ehrContract.add(recordType, filename, patientContract.getPatientAddress(patientId), msg.sender);\n\n      patientContract.addEhr(patientId, recordId);\n\n      emit AddingEHR();\n      return recordId;\n  }\n\n  // Request to view specific record\n  function practitionerViewRecordByRecordID(uint256 patientId, uint256 recordId) public view isPractitioner() isPractitionerApprovedAndPatientRegisteredWithPractitioner(patientId) isValidRecordId(recordId) returns (uint256 id,\n        EHR.RecordType recordType,\n        string memory fileName,\n        address patientAddress,\n        address doctorAddress,\n        uint256 timeAdded,\n        bool patientSignedOff) {\n      return ehrContract.getRecord(recordId);\n  }\n\n  // Request to update specific record - update RecordType and fileName\n  function updateRecordByRecordId(uint256 patientId, uint256 recordId, EHR.RecordType recordType, string memory fileName) public isDoctorApprovedAndPatientRegisteredWithDoctorAndIssuer(patientId, recordId, msg.sender) isValidRecordId(recordId) {\n    ehrContract.updateRecord(recordId, recordType, fileName);\n  }\n\n  // Researcher: View all patients who have approved research access\n  function viewApprovedPatients() public isResearcher() returns (uint256[] memory) {\n      emit GettingApprovedPatients();\n      return patientContract.getResearchPatients();\n  }\n\n  // Researcher: Request to view specific patient data\n  function viewPatientByPatientID(uint256 patientID) public view isResearcher() isResearcherAbleToViewPatientData(patientID) returns (uint256 id,\n        string memory firstName,\n        string memory lastName,\n        string memory emailAddress,\n        string memory dob) {\n      return patientContract.getData(patientID);\n  }\n\n  // Patient: View all records (acknowledged and not acknowledged)\n  function patientViewAllAcknowledgedRecords(uint256 patientId) public view isPatientAndAuthorised(patientId) returns (uint256[] memory) {\n    return patientContract.viewAllAcknowledgedRecords(patientId);\n  }\n\n  // Patient: View all records (acknowledged and not acknowledged)\n  function patientViewAllRecords(uint256 patientId) public view isPatientAndAuthorised(patientId) returns (uint256[] memory) {\n    return patientContract.viewAllRecords(patientId);\n  }\n\n  // Patient: View all records issued by certain doctor\n  function patientViewRecordsByDoctor(uint256 patientId, uint256 doctorId) public view isValidDoctorId(doctorId) returns (uint256[] memory) {\n    // address doctorAddress = doctorContract.getDoctorAddressFromDoctorId(doctorId);\n    return patientContract.viewRecordsByDoctor(patientId, doctorContract.getDoctorAddressFromDoctorId(doctorId));\n  }\n\n  // Patient: View all records issued by certain nurse\n  function patientViewRecordsByNurse(uint256 patientId, uint256 nurseId) public view isValidNurseId(nurseId) returns (uint256[] memory) {\n    // address nurseAddress = nurseContract.getNurseAddressFromNurseId(nurseId);\n    return patientContract.viewRecordsByDoctor(patientId, nurseContract.getNurseAddressFromNurseId(nurseId));\n  }\n\n  // Patient: Filter records by record type\n  function patientViewRecordsByRecordType(uint256 patientId, EHR.RecordType recordType) public view isPatientAndAuthorised(patientId) returns (uint256[] memory) {\n    return patientContract.viewRecordsByRecordType(patientId, recordType);\n  }\n\n  // Practitioner: View all records belonging to this patient\n  // Returns all the recordIds\n  function practitionerViewAllRecords(uint256 patientId) public view isPractitioner() isPractitionerApprovedAndPatientRegisteredWithPractitioner(patientId) returns (uint256[] memory) {\n    // address patientAddress = patientContract.getPatientAddress(patientId);\n    return patientContract.practitionerViewAllRecords(patientId);\n  }\n\n// Patient: Acknowledge a record that is added to his medical records\nfunction patientAcknowledgeRecord(uint256 recordId) public isValidRecordId(recordId) isRecordBelongToPatient(recordId) {\n  emit AcknowledgingRecord();\n  // uint256 patientId = patientContract.getPatientIdFromPatientAddress(msg.sender);\n  patientContract.signOffRecord(patientContract.getPatientIdFromPatientAddress(msg.sender), recordId);\n}\n\n\n}",
  "sourcePath": "/Users/seantan/Documents/Code/School/IS4302/project/contracts/medicalChain.sol",
  "compiler": {
    "name": "solc",
    "version": "0.5.17+commit.d19bba13.Emscripten.clang"
  },
  "schemaVersion": "3.4.13",
  "updatedAt": "2023-04-10T04:25:17.513Z",
  "devdoc": {
    "methods": {}
  },
  "userdoc": {
    "methods": {
      "getSenderRole()": {
        "notice": "******* FUNCTIONS ********"
      }
    }
  }
}