{
  "contractName": "medicalChain",
  "abi": [
    {
      "inputs": [
        {
          "internalType": "contract Patient",
          "name": "patientAddress",
          "type": "address"
        },
        {
          "internalType": "contract Doctor",
          "name": "doctorAddress",
          "type": "address"
        },
        {
          "internalType": "contract Nurse",
          "name": "nurseAddress",
          "type": "address"
        },
        {
          "internalType": "contract EHR",
          "name": "ehrAddress",
          "type": "address"
        },
        {
          "internalType": "contract Researcher",
          "name": "researcherAddress",
          "type": "address"
        }
      ],
      "payable": false,
      "stateMutability": "nonpayable",
      "type": "constructor"
    },
    {
      "anonymous": false,
      "inputs": [],
      "name": "AcknowledgingRecord",
      "type": "event"
    },
    {
      "anonymous": false,
      "inputs": [],
      "name": "AddingEHR",
      "type": "event"
    },
    {
      "anonymous": false,
      "inputs": [
        {
          "indexed": false,
          "internalType": "address",
          "name": "doctorId",
          "type": "address"
        }
      ],
      "name": "DoctorAdded",
      "type": "event"
    },
    {
      "anonymous": false,
      "inputs": [],
      "name": "GettingApprovedPatients",
      "type": "event"
    },
    {
      "anonymous": false,
      "inputs": [],
      "name": "GivingDoctorAccess",
      "type": "event"
    },
    {
      "anonymous": false,
      "inputs": [],
      "name": "GivingNurseAccess",
      "type": "event"
    },
    {
      "anonymous": false,
      "inputs": [],
      "name": "GivingResearcherAccess",
      "type": "event"
    },
    {
      "anonymous": false,
      "inputs": [
        {
          "indexed": false,
          "internalType": "address",
          "name": "nurseId",
          "type": "address"
        }
      ],
      "name": "NurseAdded",
      "type": "event"
    },
    {
      "anonymous": false,
      "inputs": [
        {
          "indexed": false,
          "internalType": "address",
          "name": "patientId",
          "type": "address"
        }
      ],
      "name": "PatientAdded",
      "type": "event"
    },
    {
      "anonymous": false,
      "inputs": [],
      "name": "RemovingDoctorAccess",
      "type": "event"
    },
    {
      "anonymous": false,
      "inputs": [],
      "name": "RemovingNurseAccess",
      "type": "event"
    },
    {
      "anonymous": false,
      "inputs": [
        {
          "indexed": false,
          "internalType": "uint256",
          "name": "test",
          "type": "uint256"
        }
      ],
      "name": "testEvent",
      "type": "event"
    },
    {
      "constant": true,
      "inputs": [],
      "name": "getSenderRole",
      "outputs": [
        {
          "internalType": "string",
          "name": "",
          "type": "string"
        }
      ],
      "payable": false,
      "stateMutability": "view",
      "type": "function"
    },
    {
      "constant": false,
      "inputs": [
        {
          "internalType": "uint256",
          "name": "patientId",
          "type": "uint256"
        },
        {
          "internalType": "address",
          "name": "doctorAddress",
          "type": "address"
        }
      ],
      "name": "giveDoctorAccess",
      "outputs": [],
      "payable": false,
      "stateMutability": "nonpayable",
      "type": "function"
    },
    {
      "constant": false,
      "inputs": [
        {
          "internalType": "uint256",
          "name": "patientId",
          "type": "uint256"
        },
        {
          "internalType": "address",
          "name": "doctorAddress",
          "type": "address"
        }
      ],
      "name": "removeDoctorAccess",
      "outputs": [],
      "payable": false,
      "stateMutability": "nonpayable",
      "type": "function"
    },
    {
      "constant": false,
      "inputs": [
        {
          "internalType": "uint256",
          "name": "patientId",
          "type": "uint256"
        },
        {
          "internalType": "address",
          "name": "nurseAddress",
          "type": "address"
        }
      ],
      "name": "giveNurseAccess",
      "outputs": [],
      "payable": false,
      "stateMutability": "nonpayable",
      "type": "function"
    },
    {
      "constant": false,
      "inputs": [
        {
          "internalType": "uint256",
          "name": "patientId",
          "type": "uint256"
        },
        {
          "internalType": "address",
          "name": "nurseAddress",
          "type": "address"
        }
      ],
      "name": "removeNurseAccess",
      "outputs": [],
      "payable": false,
      "stateMutability": "nonpayable",
      "type": "function"
    },
    {
      "constant": false,
      "inputs": [
        {
          "internalType": "uint256",
          "name": "doctorId",
          "type": "uint256"
        },
        {
          "internalType": "uint256",
          "name": "patientId",
          "type": "uint256"
        }
      ],
      "name": "registerPatientWithDoctor",
      "outputs": [],
      "payable": false,
      "stateMutability": "nonpayable",
      "type": "function"
    },
    {
      "constant": false,
      "inputs": [
        {
          "internalType": "uint256",
          "name": "doctorId",
          "type": "uint256"
        },
        {
          "internalType": "uint256",
          "name": "patientId",
          "type": "uint256"
        }
      ],
      "name": "unregisterPatientWithDoctor",
      "outputs": [],
      "payable": false,
      "stateMutability": "nonpayable",
      "type": "function"
    },
    {
      "constant": false,
      "inputs": [
        {
          "internalType": "uint256",
          "name": "nurseId",
          "type": "uint256"
        },
        {
          "internalType": "uint256",
          "name": "patientId",
          "type": "uint256"
        }
      ],
      "name": "registerPatientWithNurse",
      "outputs": [],
      "payable": false,
      "stateMutability": "nonpayable",
      "type": "function"
    },
    {
      "constant": false,
      "inputs": [
        {
          "internalType": "uint256",
          "name": "nurseId",
          "type": "uint256"
        },
        {
          "internalType": "uint256",
          "name": "patientId",
          "type": "uint256"
        }
      ],
      "name": "unregisterPatientWithNurse",
      "outputs": [],
      "payable": false,
      "stateMutability": "nonpayable",
      "type": "function"
    },
    {
      "constant": false,
      "inputs": [
        {
          "internalType": "uint256",
          "name": "patientId",
          "type": "uint256"
        }
      ],
      "name": "giveResearcherAccess",
      "outputs": [],
      "payable": false,
      "stateMutability": "nonpayable",
      "type": "function"
    },
    {
      "constant": false,
      "inputs": [
        {
          "internalType": "uint256",
          "name": "test",
          "type": "uint256"
        }
      ],
      "name": "testingTest",
      "outputs": [],
      "payable": false,
      "stateMutability": "nonpayable",
      "type": "function"
    },
    {
      "constant": false,
      "inputs": [
        {
          "internalType": "enum EHR.RecordType",
          "name": "recordType",
          "type": "uint8"
        },
        {
          "internalType": "uint256",
          "name": "patientId",
          "type": "uint256"
        },
        {
          "internalType": "string",
          "name": "filename",
          "type": "string"
        }
      ],
      "name": "addNewEHR",
      "outputs": [
        {
          "internalType": "uint256",
          "name": "recordId",
          "type": "uint256"
        }
      ],
      "payable": false,
      "stateMutability": "nonpayable",
      "type": "function"
    },
    {
      "constant": true,
      "inputs": [
        {
          "internalType": "uint256",
          "name": "patientId",
          "type": "uint256"
        },
        {
          "internalType": "uint256",
          "name": "recordId",
          "type": "uint256"
        }
      ],
      "name": "practitionerViewRecordByRecordID",
      "outputs": [
        {
          "internalType": "uint256",
          "name": "id",
          "type": "uint256"
        },
        {
          "internalType": "enum EHR.RecordType",
          "name": "recordType",
          "type": "uint8"
        },
        {
          "internalType": "string",
          "name": "fileName",
          "type": "string"
        },
        {
          "internalType": "address",
          "name": "patientAddress",
          "type": "address"
        },
        {
          "internalType": "address",
          "name": "doctorAddress",
          "type": "address"
        },
        {
          "internalType": "uint256",
          "name": "timeAdded",
          "type": "uint256"
        },
        {
          "internalType": "bool",
          "name": "patientSignedOff",
          "type": "bool"
        }
      ],
      "payable": false,
      "stateMutability": "view",
      "type": "function"
    },
    {
      "constant": false,
      "inputs": [
        {
          "internalType": "uint256",
          "name": "patientId",
          "type": "uint256"
        },
        {
          "internalType": "uint256",
          "name": "recordId",
          "type": "uint256"
        },
        {
          "internalType": "enum EHR.RecordType",
          "name": "recordType",
          "type": "uint8"
        },
        {
          "internalType": "string",
          "name": "fileName",
          "type": "string"
        }
      ],
      "name": "updateRecordByRecordId",
      "outputs": [],
      "payable": false,
      "stateMutability": "nonpayable",
      "type": "function"
    },
    {
      "constant": false,
      "inputs": [],
      "name": "viewApprovedPatients",
      "outputs": [
        {
          "internalType": "uint256[]",
          "name": "",
          "type": "uint256[]"
        }
      ],
      "payable": false,
      "stateMutability": "nonpayable",
      "type": "function"
    },
    {
      "constant": true,
      "inputs": [
        {
          "internalType": "uint256",
          "name": "patientID",
          "type": "uint256"
        }
      ],
      "name": "viewPatientByPatientID",
      "outputs": [
        {
          "internalType": "uint256",
          "name": "id",
          "type": "uint256"
        },
        {
          "internalType": "string",
          "name": "firstName",
          "type": "string"
        },
        {
          "internalType": "string",
          "name": "lastName",
          "type": "string"
        },
        {
          "internalType": "string",
          "name": "emailAddress",
          "type": "string"
        },
        {
          "internalType": "string",
          "name": "dob",
          "type": "string"
        }
      ],
      "payable": false,
      "stateMutability": "view",
      "type": "function"
    },
    {
      "constant": true,
      "inputs": [
        {
          "internalType": "uint256",
          "name": "patientId",
          "type": "uint256"
        }
      ],
      "name": "patientViewAllAcknowledgedRecords",
      "outputs": [
        {
          "internalType": "uint256[]",
          "name": "",
          "type": "uint256[]"
        }
      ],
      "payable": false,
      "stateMutability": "view",
      "type": "function"
    },
    {
      "constant": true,
      "inputs": [
        {
          "internalType": "uint256",
          "name": "patientId",
          "type": "uint256"
        }
      ],
      "name": "patientViewAllRecords",
      "outputs": [
        {
          "internalType": "uint256[]",
          "name": "",
          "type": "uint256[]"
        }
      ],
      "payable": false,
      "stateMutability": "view",
      "type": "function"
    },
    {
      "constant": true,
      "inputs": [
        {
          "internalType": "uint256",
          "name": "patientId",
          "type": "uint256"
        },
        {
          "internalType": "uint256",
          "name": "doctorId",
          "type": "uint256"
        }
      ],
      "name": "patientViewRecordsByDoctor",
      "outputs": [
        {
          "internalType": "uint256[]",
          "name": "",
          "type": "uint256[]"
        }
      ],
      "payable": false,
      "stateMutability": "view",
      "type": "function"
    },
    {
      "constant": true,
      "inputs": [
        {
          "internalType": "uint256",
          "name": "patientId",
          "type": "uint256"
        },
        {
          "internalType": "uint256",
          "name": "nurseId",
          "type": "uint256"
        }
      ],
      "name": "patientViewRecordsByNurse",
      "outputs": [
        {
          "internalType": "uint256[]",
          "name": "",
          "type": "uint256[]"
        }
      ],
      "payable": false,
      "stateMutability": "view",
      "type": "function"
    },
    {
      "constant": true,
      "inputs": [
        {
          "internalType": "uint256",
          "name": "patientId",
          "type": "uint256"
        },
        {
          "internalType": "enum EHR.RecordType",
          "name": "recordType",
          "type": "uint8"
        }
      ],
      "name": "patientViewRecordsByRecordType",
      "outputs": [
        {
          "internalType": "uint256[]",
          "name": "",
          "type": "uint256[]"
        }
      ],
      "payable": false,
      "stateMutability": "view",
      "type": "function"
    },
    {
      "constant": true,
      "inputs": [
        {
          "internalType": "uint256",
          "name": "patientId",
          "type": "uint256"
        }
      ],
      "name": "practitionerViewAllRecords",
      "outputs": [
        {
          "internalType": "uint256[]",
          "name": "",
          "type": "uint256[]"
        }
      ],
      "payable": false,
      "stateMutability": "view",
      "type": "function"
    },
    {
      "constant": false,
      "inputs": [
        {
          "internalType": "uint256",
          "name": "recordId",
          "type": "uint256"
        }
      ],
      "name": "patientAcknowledgeRecord",
      "outputs": [],
      "payable": false,
      "stateMutability": "nonpayable",
      "type": "function"
    }
  ],
  "bytecode": "0x60806040523480156200001157600080fd5b506040516200613838038062006138833981810160405260a08110156200003757600080fd5b810190808051906020019092919080519060200190929190805190602001909291908051906020019092919080519060200190929190505050846000806101000a81548173ffffffffffffffffffffffffffffffffffffffff021916908373ffffffffffffffffffffffffffffffffffffffff16021790555083600160006101000a81548173ffffffffffffffffffffffffffffffffffffffff021916908373ffffffffffffffffffffffffffffffffffffffff16021790555082600260006101000a81548173ffffffffffffffffffffffffffffffffffffffff021916908373ffffffffffffffffffffffffffffffffffffffff16021790555081600360006101000a81548173ffffffffffffffffffffffffffffffffffffffff021916908373ffffffffffffffffffffffffffffffffffffffff16021790555080600460006101000a81548173ffffffffffffffffffffffffffffffffffffffff021916908373ffffffffffffffffffffffffffffffffffffffff1602179055505050505050615f6f80620001c96000396000f3fe608060405234801561001057600080fd5b506004361061014d5760003560e01c8063a0c91b24116100c3578063c68f55411161007c578063c68f554114610a86578063d87ce24214610b62578063da93f6b814610bb0578063dc34c4c314610c3d578063ef84f4f114610c6b578063f6e2b72114610cca5761014d565b8063a0c91b2414610827578063b960108014610855578063bb4182c31461088d578063bbbeaccc146108db578063bcf5e849146109c1578063c37521a4146109f95761014d565b80633a88162e116101155780633a88162e1461030c5780634711d9401461038f5780635470e80414610412578063685e9025146104605780637d745686146106525780638068d091146106e25761014d565b8063067be5dc1461015257806313b8f4cf146101a05780632363b0ff14610223578063241c4a43146102a6578063303c9672146102de575b600080fd5b61019e6004803603604081101561016857600080fd5b8101908080359060200190929190803573ffffffffffffffffffffffffffffffffffffffff169060200190929190505050610d02565b005b6101cc600480360360208110156101b657600080fd5b8101908080359060200190929190505050610df2565b6040518080602001828103825283818151815260200191508051906020019060200280838360005b8381101561020f5780820151818401526020810190506101f4565b505050509050019250505060405180910390f35b61024f6004803603602081101561023957600080fd5b810190808035906020019092919050505061119d565b6040518080602001828103825283818151815260200191508051906020019060200280838360005b83811015610292578082015181840152602081019050610277565b505050509050019250505060405180910390f35b6102dc600480360360408110156102bc57600080fd5b810190808035906020019092919080359060200190929190505050611b70565b005b61030a600480360360208110156102f457600080fd5b8101908080359060200190929190505050611c09565b005b610314611cc4565b6040518080602001828103825283818151815260200191508051906020019080838360005b83811015610354578082015181840152602081019050610339565b50505050905090810190601f1680156103815780820380516001836020036101000a031916815260200191505b509250505060405180910390f35b6103bb600480360360208110156103a557600080fd5b8101908080359060200190929190505050612171565b6040518080602001828103825283818151815260200191508051906020019060200280838360005b838110156103fe5780820151818401526020810190506103e3565b505050509050019250505060405180910390f35b61045e6004803603604081101561042857600080fd5b8101908080359060200190929190803573ffffffffffffffffffffffffffffffffffffffff16906020019092919050505061251c565b005b61048c6004803603602081101561047657600080fd5b810190808035906020019092919050505061260c565b6040518086815260200180602001806020018060200180602001858103855289818151815260200191508051906020019080838360005b838110156104de5780820151818401526020810190506104c3565b50505050905090810190601f16801561050b5780820380516001836020036101000a031916815260200191505b50858103845288818151815260200191508051906020019080838360005b83811015610544578082015181840152602081019050610529565b50505050905090810190601f1680156105715780820380516001836020036101000a031916815260200191505b50858103835287818151815260200191508051906020019080838360005b838110156105aa57808201518184015260208101905061058f565b50505050905090810190601f1680156105d75780820380516001836020036101000a031916815260200191505b50858103825286818151815260200191508051906020019080838360005b838110156106105780820151818401526020810190506105f5565b50505050905090810190601f16801561063d5780820380516001836020036101000a031916815260200191505b50995050505050505050505060405180910390f35b61068b6004803603604081101561066857600080fd5b8101908080359060200190929190803560ff169060200190929190505050612bf8565b6040518080602001828103825283818151815260200191508051906020019060200280838360005b838110156106ce5780820151818401526020810190506106b3565b505050509050019250505060405180910390f35b610718600480360360408110156106f857600080fd5b810190808035906020019092919080359060200190929190505050612fba565b6040518088815260200187600781111561072e57fe5b60ff168152602001806020018673ffffffffffffffffffffffffffffffffffffffff1673ffffffffffffffffffffffffffffffffffffffff1681526020018573ffffffffffffffffffffffffffffffffffffffff1673ffffffffffffffffffffffffffffffffffffffff16815260200184815260200183151515158152602001828103825287818151815260200191508051906020019080838360005b838110156107e65780820151818401526020810190506107cb565b50505050905090810190601f1680156108135780820380516001836020036101000a031916815260200191505b509850505050505050505060405180910390f35b6108536004803603602081101561083d57600080fd5b8101908080359060200190929190505050613b37565b005b61088b6004803603604081101561086b57600080fd5b810190808035906020019092919080359060200190929190505050613b71565b005b6108d9600480360360408110156108a357600080fd5b8101908080359060200190929190803573ffffffffffffffffffffffffffffffffffffffff169060200190929190505050613c0a565b005b6109ab600480360360608110156108f157600080fd5b81019080803560ff169060200190929190803590602001909291908035906020019064010000000081111561092557600080fd5b82018360208201111561093757600080fd5b8035906020019184600183028401116401000000008311171561095957600080fd5b91908080601f016020809104026020016040519081016040528093929190818152602001838380828437600081840152601f19601f820116905080830192505050505050509192919290505050613cfa565b6040518082815260200191505060405180910390f35b6109f7600480360360408110156109d757600080fd5b8101908080359060200190929190803590602001909291905050506143bd565b005b610a2f60048036036040811015610a0f57600080fd5b810190808035906020019092919080359060200190929190505050614456565b6040518080602001828103825283818151815260200191508051906020019060200280838360005b83811015610a72578082015181840152602081019050610a57565b505050509050019250505060405180910390f35b610b6060048036036080811015610a9c57600080fd5b810190808035906020019092919080359060200190929190803560ff16906020019092919080359060200190640100000000811115610ada57600080fd5b820183602082011115610aec57600080fd5b80359060200191846001830284011164010000000083111715610b0e57600080fd5b91908080601f016020809104026020016040519081016040528093929190818152602001838380828437600081840152601f19601f8201169050808301925050505050505091929192905050506148e4565b005b610bae60048036036040811015610b7857600080fd5b8101908080359060200190929190803573ffffffffffffffffffffffffffffffffffffffff169060200190929190505050615038565b005b610be660048036036040811015610bc657600080fd5b810190808035906020019092919080359060200190929190505050615128565b6040518080602001828103825283818151815260200191508051906020019060200280838360005b83811015610c29578082015181840152602081019050610c0e565b505050509050019250505060405180910390f35b610c6960048036036020811015610c5357600080fd5b81019080803590602001909291905050506155b6565b005b610c73615aed565b6040518080602001828103825283818151815260200191508051906020019060200280838360005b83811015610cb6578082015181840152602081019050610c9b565b505050509050019250505060405180910390f35b610d0060048036036040811015610ce057600080fd5b810190808035906020019092919080359060200190929190505050615d8f565b005b7fa85f577a4037d83ececf685e851e35a4e56611e8fcee1c571d2e1fb91359c53960405160405180910390a16000809054906101000a900473ffffffffffffffffffffffffffffffffffffffff1673ffffffffffffffffffffffffffffffffffffffff1663067be5dc83836040518363ffffffff1660e01b8152600401808381526020018273ffffffffffffffffffffffffffffffffffffffff1673ffffffffffffffffffffffffffffffffffffffff16815260200192505050600060405180830381600087803b158015610dd657600080fd5b505af1158015610dea573d6000803e3d6000fd5b505050505050565b606060405160200180807f70617469656e7400000000000000000000000000000000000000000000000000815250600701905060405160208183030381529060405280519060200120610e43611cc4565b6040516020018082805190602001908083835b60208310610e795780518252602082019150602081019050602083039250610e56565b6001836020036101000a0380198251168184511680821785525050505050509050019150506040516020818303038152906040528051906020012014610f27576040517f08c379a000000000000000000000000000000000000000000000000000000000815260040180806020018281038252601d8152602001807f5468697320706572736f6e206973206e6f7420612070617469656e742100000081525060200191505060405180910390fd5b81600115156000809054906101000a900473ffffffffffffffffffffffffffffffffffffffff1673ffffffffffffffffffffffffffffffffffffffff16634b654378836040518263ffffffff1660e01b81526004018082815260200191505060206040518083038186803b158015610f9e57600080fd5b505afa158015610fb2573d6000803e3d6000fd5b505050506040513d6020811015610fc857600080fd5b810190808051906020019092919050505015151461104e576040517f08c379a000000000000000000000000000000000000000000000000000000000815260040180806020018281038252601d8152602001807f50617469656e7420494420676976656e206973206e6f742076616c696400000081525060200191505060405180910390fd5b6000809054906101000a900473ffffffffffffffffffffffffffffffffffffffff1673ffffffffffffffffffffffffffffffffffffffff166394237719846040518263ffffffff1660e01b81526004018082815260200191505060006040518083038186803b1580156110c057600080fd5b505afa1580156110d4573d6000803e3d6000fd5b505050506040513d6000823e3d601f19601f8201168201806040525060208110156110fe57600080fd5b810190808051604051939291908464010000000082111561111e57600080fd5b8382019150602082018581111561113457600080fd5b825186602082028301116401000000008211171561115157600080fd5b8083526020830192505050908051906020019060200280838360005b8381101561118857808201518184015260208101905061116d565b50505050905001604052505050915050919050565b6060806111a8611cc4565b905060405160200180807f646f63746f720000000000000000000000000000000000000000000000000000815250600601905060405160208183030381529060405280519060200120816040516020018082805190602001908083835b602083106112285780518252602082019150602081019050602083039250611205565b6001836020036101000a038019825116818451168082178552505050505050905001915050604051602081830303815290604052805190602001201480611325575060405160200180807f6e75727365000000000000000000000000000000000000000000000000000000815250600501905060405160208183030381529060405280519060200120816040516020018082805190602001908083835b602083106112e857805182526020820191506020810190506020830392506112c5565b6001836020036101000a03801982511681845116808217855250505050505090500191505060405160208183030381529060405280519060200120145b611397576040517f08c379a000000000000000000000000000000000000000000000000000000000815260040180806020018281038252601a8152602001807f55736572206973206e6f7420612070726163746974696f6e657200000000000081525060200191505060405180910390fd5b8260606113a2611cc4565b905060405160200180807f646f63746f720000000000000000000000000000000000000000000000000000815250600601905060405160208183030381529060405280519060200120816040516020018082805190602001908083835b6020831061142257805182526020820191506020810190506020830392506113ff565b6001836020036101000a0380198251168184511680821785525050505050509050019150506040516020818303038152906040528051906020012014156116e357600115156000809054906101000a900473ffffffffffffffffffffffffffffffffffffffff1673ffffffffffffffffffffffffffffffffffffffff1663b01df35184336040518363ffffffff1660e01b8152600401808381526020018273ffffffffffffffffffffffffffffffffffffffff1673ffffffffffffffffffffffffffffffffffffffff1681526020019250505060206040518083038186803b15801561150d57600080fd5b505afa158015611521573d6000803e3d6000fd5b505050506040513d602081101561153757600080fd5b81019080805190602001909291905050501515146115a0576040517f08c379a0000000000000000000000000000000000000000000000000000000008152600401808060200182810382526033815260200180615e296033913960400191505060405180910390fd5b60011515600160009054906101000a900473ffffffffffffffffffffffffffffffffffffffff1673ffffffffffffffffffffffffffffffffffffffff16639cc5804884336040518363ffffffff1660e01b8152600401808381526020018273ffffffffffffffffffffffffffffffffffffffff1673ffffffffffffffffffffffffffffffffffffffff1681526020019250505060206040518083038186803b15801561164b57600080fd5b505afa15801561165f573d6000803e3d6000fd5b505050506040513d602081101561167557600080fd5b81019080805190602001909291905050501515146116de576040517f08c379a000000000000000000000000000000000000000000000000000000000815260040180806020018281038252602b815260200180615e86602b913960400191505060405180910390fd5b611a1f565b60405160200180807f6e75727365000000000000000000000000000000000000000000000000000000815250600501905060405160208183030381529060405280519060200120816040516020018082805190602001908083835b60208310611761578051825260208201915060208101905060208303925061173e565b6001836020036101000a038019825116818451168082178552505050505050905001915050604051602081830303815290604052805190602001201415611a1e57600115156000809054906101000a900473ffffffffffffffffffffffffffffffffffffffff1673ffffffffffffffffffffffffffffffffffffffff1663c412e7ba84336040518363ffffffff1660e01b8152600401808381526020018273ffffffffffffffffffffffffffffffffffffffff1673ffffffffffffffffffffffffffffffffffffffff1681526020019250505060206040518083038186803b15801561184c57600080fd5b505afa158015611860573d6000803e3d6000fd5b505050506040513d602081101561187657600080fd5b81019080805190602001909291905050501515146118df576040517f08c379a0000000000000000000000000000000000000000000000000000000008152600401808060200182810382526031815260200180615eb16031913960400191505060405180910390fd5b60011515600260009054906101000a900473ffffffffffffffffffffffffffffffffffffffff1673ffffffffffffffffffffffffffffffffffffffff16639cc5804884336040518363ffffffff1660e01b8152600401808381526020018273ffffffffffffffffffffffffffffffffffffffff1673ffffffffffffffffffffffffffffffffffffffff1681526020019250505060206040518083038186803b15801561198a57600080fd5b505afa15801561199e573d6000803e3d6000fd5b505050506040513d60208110156119b457600080fd5b8101908080519060200190929190505050151514611a1d576040517f08c379a000000000000000000000000000000000000000000000000000000000815260040180806020018281038252602a815260200180615e5c602a913960400191505060405180910390fd5b5b5b6000809054906101000a900473ffffffffffffffffffffffffffffffffffffffff1673ffffffffffffffffffffffffffffffffffffffff16632363b0ff866040518263ffffffff1660e01b81526004018082815260200191505060006040518083038186803b158015611a9157600080fd5b505afa158015611aa5573d6000803e3d6000fd5b505050506040513d6000823e3d601f19601f820116820180604052506020811015611acf57600080fd5b8101908080516040519392919084640100000000821115611aef57600080fd5b83820191506020820185811115611b0557600080fd5b8251866020820283011164010000000082111715611b2257600080fd5b8083526020830192505050908051906020019060200280838360005b83811015611b59578082015181840152602081019050611b3e565b505050509050016040525050509350505050919050565b600160009054906101000a900473ffffffffffffffffffffffffffffffffffffffff1673ffffffffffffffffffffffffffffffffffffffff1663ab16ae2a83836040518363ffffffff1660e01b81526004018083815260200182815260200192505050600060405180830381600087803b158015611bed57600080fd5b505af1158015611c01573d6000803e3d6000fd5b505050505050565b7fa2a84ba412bea53801a40b8bbb06e1e17f397fe84c7f93e85308f060e8252dda60405160405180910390a16000809054906101000a900473ffffffffffffffffffffffffffffffffffffffff1673ffffffffffffffffffffffffffffffffffffffff1663303c9672826040518263ffffffff1660e01b815260040180828152602001915050600060405180830381600087803b158015611ca957600080fd5b505af1158015611cbd573d6000803e3d6000fd5b5050505050565b6060600160009054906101000a900473ffffffffffffffffffffffffffffffffffffffff1673ffffffffffffffffffffffffffffffffffffffff1663e3843463336040518263ffffffff1660e01b8152600401808273ffffffffffffffffffffffffffffffffffffffff1673ffffffffffffffffffffffffffffffffffffffff16815260200191505060206040518083038186803b158015611d6557600080fd5b505afa158015611d79573d6000803e3d6000fd5b505050506040513d6020811015611d8f57600080fd5b810190808051906020019092919050505015611de2576040518060400160405280600681526020017f646f63746f720000000000000000000000000000000000000000000000000000815250905061216e565b6000809054906101000a900473ffffffffffffffffffffffffffffffffffffffff1673ffffffffffffffffffffffffffffffffffffffff1663e3843463336040518263ffffffff1660e01b8152600401808273ffffffffffffffffffffffffffffffffffffffff1673ffffffffffffffffffffffffffffffffffffffff16815260200191505060206040518083038186803b158015611e8057600080fd5b505afa158015611e94573d6000803e3d6000fd5b505050506040513d6020811015611eaa57600080fd5b810190808051906020019092919050505015611efd576040518060400160405280600781526020017f70617469656e7400000000000000000000000000000000000000000000000000815250905061216e565b600260009054906101000a900473ffffffffffffffffffffffffffffffffffffffff1673ffffffffffffffffffffffffffffffffffffffff1663e3843463336040518263ffffffff1660e01b8152600401808273ffffffffffffffffffffffffffffffffffffffff1673ffffffffffffffffffffffffffffffffffffffff16815260200191505060206040518083038186803b158015611f9c57600080fd5b505afa158015611fb0573d6000803e3d6000fd5b505050506040513d6020811015611fc657600080fd5b810190808051906020019092919050505015612019576040518060400160405280600581526020017f6e75727365000000000000000000000000000000000000000000000000000000815250905061216e565b600460009054906101000a900473ffffffffffffffffffffffffffffffffffffffff1673ffffffffffffffffffffffffffffffffffffffff1663e3843463336040518263ffffffff1660e01b8152600401808273ffffffffffffffffffffffffffffffffffffffff1673ffffffffffffffffffffffffffffffffffffffff16815260200191505060206040518083038186803b1580156120b857600080fd5b505afa1580156120cc573d6000803e3d6000fd5b505050506040513d60208110156120e257600080fd5b810190808051906020019092919050505015612135576040518060400160405280600a81526020017f7265736561726368657200000000000000000000000000000000000000000000815250905061216e565b6040518060400160405280600781526020017f756e6b6e6f776e0000000000000000000000000000000000000000000000000081525090505b90565b606060405160200180807f70617469656e74000000000000000000000000000000000000000000000000008152506007019050604051602081830303815290604052805190602001206121c2611cc4565b6040516020018082805190602001908083835b602083106121f857805182526020820191506020810190506020830392506121d5565b6001836020036101000a03801982511681845116808217855250505050505090500191505060405160208183030381529060405280519060200120146122a6576040517f08c379a000000000000000000000000000000000000000000000000000000000815260040180806020018281038252601d8152602001807f5468697320706572736f6e206973206e6f7420612070617469656e742100000081525060200191505060405180910390fd5b81600115156000809054906101000a900473ffffffffffffffffffffffffffffffffffffffff1673ffffffffffffffffffffffffffffffffffffffff16634b654378836040518263ffffffff1660e01b81526004018082815260200191505060206040518083038186803b15801561231d57600080fd5b505afa158015612331573d6000803e3d6000fd5b505050506040513d602081101561234757600080fd5b81019080805190602001909291905050501515146123cd576040517f08c379a000000000000000000000000000000000000000000000000000000000815260040180806020018281038252601d8152602001807f50617469656e7420494420676976656e206973206e6f742076616c696400000081525060200191505060405180910390fd5b6000809054906101000a900473ffffffffffffffffffffffffffffffffffffffff1673ffffffffffffffffffffffffffffffffffffffff16631bcec2e8846040518263ffffffff1660e01b81526004018082815260200191505060006040518083038186803b15801561243f57600080fd5b505afa158015612453573d6000803e3d6000fd5b505050506040513d6000823e3d601f19601f82011682018060405250602081101561247d57600080fd5b810190808051604051939291908464010000000082111561249d57600080fd5b838201915060208201858111156124b357600080fd5b82518660208202830111640100000000821117156124d057600080fd5b8083526020830192505050908051906020019060200280838360005b838110156125075780820151818401526020810190506124ec565b50505050905001604052505050915050919050565b7f29bbef1b7f83e9b51d408e3ac98f6645d3164c664af051f9d539cde923e86a1c60405160405180910390a16000809054906101000a900473ffffffffffffffffffffffffffffffffffffffff1673ffffffffffffffffffffffffffffffffffffffff16635470e80483836040518363ffffffff1660e01b8152600401808381526020018273ffffffffffffffffffffffffffffffffffffffff1673ffffffffffffffffffffffffffffffffffffffff16815260200192505050600060405180830381600087803b1580156125f057600080fd5b505af1158015612604573d6000803e3d6000fd5b505050505050565b600060608060608060405160200180807f7265736561726368657200000000000000000000000000000000000000000000815250600a01905060405160208183030381529060405280519060200120612663611cc4565b6040516020018082805190602001908083835b602083106126995780518252602082019150602081019050602083039250612676565b6001836020036101000a0380198251168184511680821785525050505050509050019150506040516020818303038152906040528051906020012014612747576040517f08c379a00000000000000000000000000000000000000000000000000000000081526004018080602001828103825260208152602001807f5468697320706572736f6e206973206e6f74206120726573656172636865722181525060200191505060405180910390fd5b856000809054906101000a900473ffffffffffffffffffffffffffffffffffffffff1673ffffffffffffffffffffffffffffffffffffffff1663834fa06e826040518263ffffffff1660e01b81526004018082815260200191505060206040518083038186803b1580156127ba57600080fd5b505afa1580156127ce573d6000803e3d6000fd5b505050506040513d60208110156127e457600080fd5b810190808051906020019092919050505061284a576040517f08c379a0000000000000000000000000000000000000000000000000000000008152600401808060200182810382526033815260200180615ee26033913960400191505060405180910390fd5b6000809054906101000a900473ffffffffffffffffffffffffffffffffffffffff1673ffffffffffffffffffffffffffffffffffffffff16630178fe3f886040518263ffffffff1660e01b81526004018082815260200191505060006040518083038186803b1580156128bc57600080fd5b505afa1580156128d0573d6000803e3d6000fd5b505050506040513d6000823e3d601f19601f8201168201806040525060a08110156128fa57600080fd5b81019080805190602001909291908051604051939291908464010000000082111561292457600080fd5b8382019150602082018581111561293a57600080fd5b825186600182028301116401000000008211171561295757600080fd5b8083526020830192505050908051906020019080838360005b8381101561298b578082015181840152602081019050612970565b50505050905090810190601f1680156129b85780820380516001836020036101000a031916815260200191505b50604052602001805160405193929190846401000000008211156129db57600080fd5b838201915060208201858111156129f157600080fd5b8251866001820283011164010000000082111715612a0e57600080fd5b8083526020830192505050908051906020019080838360005b83811015612a42578082015181840152602081019050612a27565b50505050905090810190601f168015612a6f5780820380516001836020036101000a031916815260200191505b5060405260200180516040519392919084640100000000821115612a9257600080fd5b83820191506020820185811115612aa857600080fd5b8251866001820283011164010000000082111715612ac557600080fd5b8083526020830192505050908051906020019080838360005b83811015612af9578082015181840152602081019050612ade565b50505050905090810190601f168015612b265780820380516001836020036101000a031916815260200191505b5060405260200180516040519392919084640100000000821115612b4957600080fd5b83820191506020820185811115612b5f57600080fd5b8251866001820283011164010000000082111715612b7c57600080fd5b8083526020830192505050908051906020019080838360005b83811015612bb0578082015181840152602081019050612b95565b50505050905090810190601f168015612bdd5780820380516001836020036101000a031916815260200191505b50604052505050955095509550955095505091939590929450565b606060405160200180807f70617469656e7400000000000000000000000000000000000000000000000000815250600701905060405160208183030381529060405280519060200120612c49611cc4565b6040516020018082805190602001908083835b60208310612c7f5780518252602082019150602081019050602083039250612c5c565b6001836020036101000a0380198251168184511680821785525050505050509050019150506040516020818303038152906040528051906020012014612d2d576040517f08c379a000000000000000000000000000000000000000000000000000000000815260040180806020018281038252601d8152602001807f5468697320706572736f6e206973206e6f7420612070617469656e742100000081525060200191505060405180910390fd5b82600115156000809054906101000a900473ffffffffffffffffffffffffffffffffffffffff1673ffffffffffffffffffffffffffffffffffffffff16634b654378836040518263ffffffff1660e01b81526004018082815260200191505060206040518083038186803b158015612da457600080fd5b505afa158015612db8573d6000803e3d6000fd5b505050506040513d6020811015612dce57600080fd5b8101908080519060200190929190505050151514612e54576040517f08c379a000000000000000000000000000000000000000000000000000000000815260040180806020018281038252601d8152602001807f50617469656e7420494420676976656e206973206e6f742076616c696400000081525060200191505060405180910390fd5b6000809054906101000a900473ffffffffffffffffffffffffffffffffffffffff1673ffffffffffffffffffffffffffffffffffffffff166336b7a09c85856040518363ffffffff1660e01b815260040180838152602001826007811115612eb857fe5b60ff1681526020019250505060006040518083038186803b158015612edc57600080fd5b505afa158015612ef0573d6000803e3d6000fd5b505050506040513d6000823e3d601f19601f820116820180604052506020811015612f1a57600080fd5b8101908080516040519392919084640100000000821115612f3a57600080fd5b83820191506020820185811115612f5057600080fd5b8251866020820283011164010000000082111715612f6d57600080fd5b8083526020830192505050908051906020019060200280838360005b83811015612fa4578082015181840152602081019050612f89565b5050505090500160405250505091505092915050565b60008060606000806000806060612fcf611cc4565b905060405160200180807f646f63746f720000000000000000000000000000000000000000000000000000815250600601905060405160208183030381529060405280519060200120816040516020018082805190602001908083835b6020831061304f578051825260208201915060208101905060208303925061302c565b6001836020036101000a03801982511681845116808217855250505050505090500191505060405160208183030381529060405280519060200120148061314c575060405160200180807f6e75727365000000000000000000000000000000000000000000000000000000815250600501905060405160208183030381529060405280519060200120816040516020018082805190602001908083835b6020831061310f57805182526020820191506020810190506020830392506130ec565b6001836020036101000a03801982511681845116808217855250505050505090500191505060405160208183030381529060405280519060200120145b6131be576040517f08c379a000000000000000000000000000000000000000000000000000000000815260040180806020018281038252601a8152602001807f55736572206973206e6f7420612070726163746974696f6e657200000000000081525060200191505060405180910390fd5b8960606131c9611cc4565b905060405160200180807f646f63746f720000000000000000000000000000000000000000000000000000815250600601905060405160208183030381529060405280519060200120816040516020018082805190602001908083835b602083106132495780518252602082019150602081019050602083039250613226565b6001836020036101000a03801982511681845116808217855250505050505090500191505060405160208183030381529060405280519060200120141561350a57600115156000809054906101000a900473ffffffffffffffffffffffffffffffffffffffff1673ffffffffffffffffffffffffffffffffffffffff1663b01df35184336040518363ffffffff1660e01b8152600401808381526020018273ffffffffffffffffffffffffffffffffffffffff1673ffffffffffffffffffffffffffffffffffffffff1681526020019250505060206040518083038186803b15801561333457600080fd5b505afa158015613348573d6000803e3d6000fd5b505050506040513d602081101561335e57600080fd5b81019080805190602001909291905050501515146133c7576040517f08c379a0000000000000000000000000000000000000000000000000000000008152600401808060200182810382526033815260200180615e296033913960400191505060405180910390fd5b60011515600160009054906101000a900473ffffffffffffffffffffffffffffffffffffffff1673ffffffffffffffffffffffffffffffffffffffff16639cc5804884336040518363ffffffff1660e01b8152600401808381526020018273ffffffffffffffffffffffffffffffffffffffff1673ffffffffffffffffffffffffffffffffffffffff1681526020019250505060206040518083038186803b15801561347257600080fd5b505afa158015613486573d6000803e3d6000fd5b505050506040513d602081101561349c57600080fd5b8101908080519060200190929190505050151514613505576040517f08c379a000000000000000000000000000000000000000000000000000000000815260040180806020018281038252602b815260200180615e86602b913960400191505060405180910390fd5b613846565b60405160200180807f6e75727365000000000000000000000000000000000000000000000000000000815250600501905060405160208183030381529060405280519060200120816040516020018082805190602001908083835b602083106135885780518252602082019150602081019050602083039250613565565b6001836020036101000a03801982511681845116808217855250505050505090500191505060405160208183030381529060405280519060200120141561384557600115156000809054906101000a900473ffffffffffffffffffffffffffffffffffffffff1673ffffffffffffffffffffffffffffffffffffffff1663c412e7ba84336040518363ffffffff1660e01b8152600401808381526020018273ffffffffffffffffffffffffffffffffffffffff1673ffffffffffffffffffffffffffffffffffffffff1681526020019250505060206040518083038186803b15801561367357600080fd5b505afa158015613687573d6000803e3d6000fd5b505050506040513d602081101561369d57600080fd5b8101908080519060200190929190505050151514613706576040517f08c379a0000000000000000000000000000000000000000000000000000000008152600401808060200182810382526031815260200180615eb16031913960400191505060405180910390fd5b60011515600260009054906101000a900473ffffffffffffffffffffffffffffffffffffffff1673ffffffffffffffffffffffffffffffffffffffff16639cc5804884336040518363ffffffff1660e01b8152600401808381526020018273ffffffffffffffffffffffffffffffffffffffff1673ffffffffffffffffffffffffffffffffffffffff1681526020019250505060206040518083038186803b1580156137b157600080fd5b505afa1580156137c5573d6000803e3d6000fd5b505050506040513d60208110156137db57600080fd5b8101908080519060200190929190505050151514613844576040517f08c379a000000000000000000000000000000000000000000000000000000000815260040180806020018281038252602a815260200180615e5c602a913960400191505060405180910390fd5b5b5b8a60011515600360009054906101000a900473ffffffffffffffffffffffffffffffffffffffff1673ffffffffffffffffffffffffffffffffffffffff166327d6030b836040518263ffffffff1660e01b81526004018082815260200191505060206040518083038186803b1580156138be57600080fd5b505afa1580156138d2573d6000803e3d6000fd5b505050506040513d60208110156138e857600080fd5b810190808051906020019092919050505015151461396e576040517f08c379a000000000000000000000000000000000000000000000000000000000815260040180806020018281038252601c8152602001807f5265636f726420494420676976656e206973206e6f742076616c69640000000081525060200191505060405180910390fd5b600360009054906101000a900473ffffffffffffffffffffffffffffffffffffffff1673ffffffffffffffffffffffffffffffffffffffff166303e9e6098d6040518263ffffffff1660e01b81526004018082815260200191505060006040518083038186803b1580156139e157600080fd5b505afa1580156139f5573d6000803e3d6000fd5b505050506040513d6000823e3d601f19601f8201168201806040525060e0811015613a1f57600080fd5b81019080805190602001909291908051906020019092919080516040519392919084640100000000821115613a5357600080fd5b83820191506020820185811115613a6957600080fd5b8251866001820283011164010000000082111715613a8657600080fd5b8083526020830192505050908051906020019080838360005b83811015613aba578082015181840152602081019050613a9f565b50505050905090810190601f168015613ae75780820380516001836020036101000a031916815260200191505b50604052602001805190602001909291908051906020019092919080519060200190929190805190602001909291905050509a509a509a509a509a509a509a505050505092959891949750929550565b7fdcd9c7fa0342f01013bd0bf2bec103a81936162dcebd1f0c38b1d4164c17e0fc816040518082815260200191505060405180910390a150565b600260009054906101000a900473ffffffffffffffffffffffffffffffffffffffff1673ffffffffffffffffffffffffffffffffffffffff1663ae185dce83836040518363ffffffff1660e01b81526004018083815260200182815260200192505050600060405180830381600087803b158015613bee57600080fd5b505af1158015613c02573d6000803e3d6000fd5b505050505050565b7f3cd5c35cdbdbab148903c80d8ffcfc65e2978e15cff0b07bfd36b59e6d6bb8f960405160405180910390a16000809054906101000a900473ffffffffffffffffffffffffffffffffffffffff1673ffffffffffffffffffffffffffffffffffffffff1663bb4182c383836040518363ffffffff1660e01b8152600401808381526020018273ffffffffffffffffffffffffffffffffffffffff1673ffffffffffffffffffffffffffffffffffffffff16815260200192505050600060405180830381600087803b158015613cde57600080fd5b505af1158015613cf2573d6000803e3d6000fd5b505050505050565b6000826060613d07611cc4565b905060405160200180807f646f63746f720000000000000000000000000000000000000000000000000000815250600601905060405160208183030381529060405280519060200120816040516020018082805190602001908083835b60208310613d875780518252602082019150602081019050602083039250613d64565b6001836020036101000a0380198251168184511680821785525050505050509050019150506040516020818303038152906040528051906020012014613e35576040517f08c379a00000000000000000000000000000000000000000000000000000000081526004018080602001828103825260158152602001807f55736572206973206e6f74206120646f63746f7221000000000000000000000081525060200191505060405180910390fd5b600115156000809054906101000a900473ffffffffffffffffffffffffffffffffffffffff1673ffffffffffffffffffffffffffffffffffffffff1663b01df35184336040518363ffffffff1660e01b8152600401808381526020018273ffffffffffffffffffffffffffffffffffffffff1673ffffffffffffffffffffffffffffffffffffffff1681526020019250505060206040518083038186803b158015613edf57600080fd5b505afa158015613ef3573d6000803e3d6000fd5b505050506040513d6020811015613f0957600080fd5b8101908080519060200190929190505050151514613f72576040517f08c379a0000000000000000000000000000000000000000000000000000000008152600401808060200182810382526033815260200180615e296033913960400191505060405180910390fd5b60011515600160009054906101000a900473ffffffffffffffffffffffffffffffffffffffff1673ffffffffffffffffffffffffffffffffffffffff16639cc5804884336040518363ffffffff1660e01b8152600401808381526020018273ffffffffffffffffffffffffffffffffffffffff1673ffffffffffffffffffffffffffffffffffffffff1681526020019250505060206040518083038186803b15801561401d57600080fd5b505afa158015614031573d6000803e3d6000fd5b505050506040513d602081101561404757600080fd5b81019080805190602001909291905050501515146140b0576040517f08c379a000000000000000000000000000000000000000000000000000000000815260040180806020018281038252602b815260200180615e86602b913960400191505060405180910390fd5b600360009054906101000a900473ffffffffffffffffffffffffffffffffffffffff1673ffffffffffffffffffffffffffffffffffffffff166383ac1d0787866000809054906101000a900473ffffffffffffffffffffffffffffffffffffffff1673ffffffffffffffffffffffffffffffffffffffff1663097ee8cd8a6040518263ffffffff1660e01b81526004018082815260200191505060206040518083038186803b15801561416257600080fd5b505afa158015614176573d6000803e3d6000fd5b505050506040513d602081101561418c57600080fd5b8101908080519060200190929190505050336040518563ffffffff1660e01b8152600401808560078111156141bd57fe5b60ff168152602001806020018473ffffffffffffffffffffffffffffffffffffffff1673ffffffffffffffffffffffffffffffffffffffff1681526020018373ffffffffffffffffffffffffffffffffffffffff1673ffffffffffffffffffffffffffffffffffffffff168152602001828103825285818151815260200191508051906020019080838360005b8381101561426557808201518184015260208101905061424a565b50505050905090810190601f1680156142925780820380516001836020036101000a031916815260200191505b5095505050505050602060405180830381600087803b1580156142b457600080fd5b505af11580156142c8573d6000803e3d6000fd5b505050506040513d60208110156142de57600080fd5b810190808051906020019092919050505092506000809054906101000a900473ffffffffffffffffffffffffffffffffffffffff1673ffffffffffffffffffffffffffffffffffffffff16638fa3b5c786856040518363ffffffff1660e01b81526004018083815260200182815260200192505050600060405180830381600087803b15801561436d57600080fd5b505af1158015614381573d6000803e3d6000fd5b505050507fa3864107517fb55756a302ce7374eafe6be466bc7c6c7eae4b5879bb19fe4ac060405160405180910390a182925050509392505050565b600160009054906101000a900473ffffffffffffffffffffffffffffffffffffffff1673ffffffffffffffffffffffffffffffffffffffff1663ae185dce83836040518363ffffffff1660e01b81526004018083815260200182815260200192505050600060405180830381600087803b15801561443a57600080fd5b505af115801561444e573d6000803e3d6000fd5b505050505050565b606060405160200180807f70617469656e74000000000000000000000000000000000000000000000000008152506007019050604051602081830303815290604052805190602001206144a7611cc4565b6040516020018082805190602001908083835b602083106144dd57805182526020820191506020810190506020830392506144ba565b6001836020036101000a038019825116818451168082178552505050505050905001915050604051602081830303815290604052805190602001201461458b576040517f08c379a000000000000000000000000000000000000000000000000000000000815260040180806020018281038252601d8152602001807f5468697320706572736f6e206973206e6f7420612070617469656e742100000081525060200191505060405180910390fd5b8160011515600260009054906101000a900473ffffffffffffffffffffffffffffffffffffffff1673ffffffffffffffffffffffffffffffffffffffff16632bfdd1db836040518263ffffffff1660e01b81526004018082815260200191505060206040518083038186803b15801561460357600080fd5b505afa158015614617573d6000803e3d6000fd5b505050506040513d602081101561462d57600080fd5b81019080805190602001909291905050501515146146b3576040517f08c379a000000000000000000000000000000000000000000000000000000000815260040180806020018281038252601b8152602001807f4e7572736520494420676976656e206973206e6f742076616c6964000000000081525060200191505060405180910390fd5b6000809054906101000a900473ffffffffffffffffffffffffffffffffffffffff1673ffffffffffffffffffffffffffffffffffffffff16634976b3b585600260009054906101000a900473ffffffffffffffffffffffffffffffffffffffff1673ffffffffffffffffffffffffffffffffffffffff1663f1998f64876040518263ffffffff1660e01b81526004018082815260200191505060206040518083038186803b15801561476457600080fd5b505afa158015614778573d6000803e3d6000fd5b505050506040513d602081101561478e57600080fd5b81019080805190602001909291905050506040518363ffffffff1660e01b8152600401808381526020018273ffffffffffffffffffffffffffffffffffffffff1673ffffffffffffffffffffffffffffffffffffffff1681526020019250505060006040518083038186803b15801561480657600080fd5b505afa15801561481a573d6000803e3d6000fd5b505050506040513d6000823e3d601f19601f82011682018060405250602081101561484457600080fd5b810190808051604051939291908464010000000082111561486457600080fd5b8382019150602082018581111561487a57600080fd5b825186602082028301116401000000008211171561489757600080fd5b8083526020830192505050908051906020019060200280838360005b838110156148ce5780820151818401526020810190506148b3565b5050505090500160405250505091505092915050565b8360606148ef611cc4565b905060405160200180807f646f63746f720000000000000000000000000000000000000000000000000000815250600601905060405160208183030381529060405280519060200120816040516020018082805190602001908083835b6020831061496f578051825260208201915060208101905060208303925061494c565b6001836020036101000a0380198251168184511680821785525050505050509050019150506040516020818303038152906040528051906020012014614a1d576040517f08c379a00000000000000000000000000000000000000000000000000000000081526004018080602001828103825260158152602001807f55736572206973206e6f74206120646f63746f7221000000000000000000000081525060200191505060405180910390fd5b600115156000809054906101000a900473ffffffffffffffffffffffffffffffffffffffff1673ffffffffffffffffffffffffffffffffffffffff1663b01df35184336040518363ffffffff1660e01b8152600401808381526020018273ffffffffffffffffffffffffffffffffffffffff1673ffffffffffffffffffffffffffffffffffffffff1681526020019250505060206040518083038186803b158015614ac757600080fd5b505afa158015614adb573d6000803e3d6000fd5b505050506040513d6020811015614af157600080fd5b8101908080519060200190929190505050151514614b5a576040517f08c379a0000000000000000000000000000000000000000000000000000000008152600401808060200182810382526033815260200180615e296033913960400191505060405180910390fd5b60011515600160009054906101000a900473ffffffffffffffffffffffffffffffffffffffff1673ffffffffffffffffffffffffffffffffffffffff16639cc5804884336040518363ffffffff1660e01b8152600401808381526020018273ffffffffffffffffffffffffffffffffffffffff1673ffffffffffffffffffffffffffffffffffffffff1681526020019250505060206040518083038186803b158015614c0557600080fd5b505afa158015614c19573d6000803e3d6000fd5b505050506040513d6020811015614c2f57600080fd5b8101908080519060200190929190505050151514614c98576040517f08c379a000000000000000000000000000000000000000000000000000000000815260040180806020018281038252602b815260200180615e86602b913960400191505060405180910390fd5b8460011515600360009054906101000a900473ffffffffffffffffffffffffffffffffffffffff1673ffffffffffffffffffffffffffffffffffffffff166327d6030b836040518263ffffffff1660e01b81526004018082815260200191505060206040518083038186803b158015614d1057600080fd5b505afa158015614d24573d6000803e3d6000fd5b505050506040513d6020811015614d3a57600080fd5b8101908080519060200190929190505050151514614dc0576040517f08c379a000000000000000000000000000000000000000000000000000000000815260040180806020018281038252601c8152602001807f5265636f726420494420676976656e206973206e6f742076616c69640000000081525060200191505060405180910390fd5b853360011515600360009054906101000a900473ffffffffffffffffffffffffffffffffffffffff1673ffffffffffffffffffffffffffffffffffffffff1663d3b94f5084846040518363ffffffff1660e01b8152600401808381526020018273ffffffffffffffffffffffffffffffffffffffff1673ffffffffffffffffffffffffffffffffffffffff1681526020019250505060206040518083038186803b158015614e6d57600080fd5b505afa158015614e81573d6000803e3d6000fd5b505050506040513d6020811015614e9757600080fd5b8101908080519060200190929190505050151514614f1d576040517f08c379a00000000000000000000000000000000000000000000000000000000081526004018080602001828103825260158152602001807f446f63746f72206973206e6f742069737375657221000000000000000000000081525060200191505060405180910390fd5b600360009054906101000a900473ffffffffffffffffffffffffffffffffffffffff1673ffffffffffffffffffffffffffffffffffffffff16636a5cb5d88989896040518463ffffffff1660e01b815260040180848152602001836007811115614f8357fe5b60ff16815260200180602001828103825283818151815260200191508051906020019080838360005b83811015614fc7578082015181840152602081019050614fac565b50505050905090810190601f168015614ff45780820380516001836020036101000a031916815260200191505b50945050505050600060405180830381600087803b15801561501557600080fd5b505af1158015615029573d6000803e3d6000fd5b50505050505050505050505050565b7fb159a57c444ee3ed6158798469f5395fa80148bc3b127733920d04e7bc76a71b60405160405180910390a16000809054906101000a900473ffffffffffffffffffffffffffffffffffffffff1673ffffffffffffffffffffffffffffffffffffffff1663d87ce24283836040518363ffffffff1660e01b8152600401808381526020018273ffffffffffffffffffffffffffffffffffffffff1673ffffffffffffffffffffffffffffffffffffffff16815260200192505050600060405180830381600087803b15801561510c57600080fd5b505af1158015615120573d6000803e3d6000fd5b505050505050565b606060405160200180807f70617469656e7400000000000000000000000000000000000000000000000000815250600701905060405160208183030381529060405280519060200120615179611cc4565b6040516020018082805190602001908083835b602083106151af578051825260208201915060208101905060208303925061518c565b6001836020036101000a038019825116818451168082178552505050505050905001915050604051602081830303815290604052805190602001201461525d576040517f08c379a000000000000000000000000000000000000000000000000000000000815260040180806020018281038252601d8152602001807f5468697320706572736f6e206973206e6f7420612070617469656e742100000081525060200191505060405180910390fd5b8160011515600160009054906101000a900473ffffffffffffffffffffffffffffffffffffffff1673ffffffffffffffffffffffffffffffffffffffff16635fc7fc64836040518263ffffffff1660e01b81526004018082815260200191505060206040518083038186803b1580156152d557600080fd5b505afa1580156152e9573d6000803e3d6000fd5b505050506040513d60208110156152ff57600080fd5b8101908080519060200190929190505050151514615385576040517f08c379a000000000000000000000000000000000000000000000000000000000815260040180806020018281038252601c8152602001807f446f63746f7220494420676976656e206973206e6f742076616c69640000000081525060200191505060405180910390fd5b6000809054906101000a900473ffffffffffffffffffffffffffffffffffffffff1673ffffffffffffffffffffffffffffffffffffffff16634976b3b585600160009054906101000a900473ffffffffffffffffffffffffffffffffffffffff1673ffffffffffffffffffffffffffffffffffffffff16631851611c876040518263ffffffff1660e01b81526004018082815260200191505060206040518083038186803b15801561543657600080fd5b505afa15801561544a573d6000803e3d6000fd5b505050506040513d602081101561546057600080fd5b81019080805190602001909291905050506040518363ffffffff1660e01b8152600401808381526020018273ffffffffffffffffffffffffffffffffffffffff1673ffffffffffffffffffffffffffffffffffffffff1681526020019250505060006040518083038186803b1580156154d857600080fd5b505afa1580156154ec573d6000803e3d6000fd5b505050506040513d6000823e3d601f19601f82011682018060405250602081101561551657600080fd5b810190808051604051939291908464010000000082111561553657600080fd5b8382019150602082018581111561554c57600080fd5b825186602082028301116401000000008211171561556957600080fd5b8083526020830192505050908051906020019060200280838360005b838110156155a0578082015181840152602081019050615585565b5050505090500160405250505091505092915050565b60405160200180807f70617469656e7400000000000000000000000000000000000000000000000000815250600701905060405160208183030381529060405280519060200120615605611cc4565b6040516020018082805190602001908083835b6020831061563b5780518252602082019150602081019050602083039250615618565b6001836020036101000a03801982511681845116808217855250505050505090500191505060405160208183030381529060405280519060200120146156e9576040517f08c379a000000000000000000000000000000000000000000000000000000000815260040180806020018281038252601d8152602001807f5468697320706572736f6e206973206e6f7420612070617469656e742100000081525060200191505060405180910390fd5b8060011515600360009054906101000a900473ffffffffffffffffffffffffffffffffffffffff1673ffffffffffffffffffffffffffffffffffffffff166327d6030b836040518263ffffffff1660e01b81526004018082815260200191505060206040518083038186803b15801561576157600080fd5b505afa158015615775573d6000803e3d6000fd5b505050506040513d602081101561578b57600080fd5b8101908080519060200190929190505050151514615811576040517f08c379a000000000000000000000000000000000000000000000000000000000815260040180806020018281038252601c8152602001807f5265636f726420494420676976656e206973206e6f742076616c69640000000081525060200191505060405180910390fd5b8160011515600360009054906101000a900473ffffffffffffffffffffffffffffffffffffffff1673ffffffffffffffffffffffffffffffffffffffff16630224ad4483336040518363ffffffff1660e01b8152600401808381526020018273ffffffffffffffffffffffffffffffffffffffff1673ffffffffffffffffffffffffffffffffffffffff1681526020019250505060206040518083038186803b1580156158bd57600080fd5b505afa1580156158d1573d6000803e3d6000fd5b505050506040513d60208110156158e757600080fd5b8101908080519060200190929190505050151514615950576040517f08c379a0000000000000000000000000000000000000000000000000000000008152600401808060200182810382526026815260200180615f156026913960400191505060405180910390fd5b7f965d05df335fb498d945e6826668e08d971c0713b278527013053d361be2b59860405160405180910390a16000809054906101000a900473ffffffffffffffffffffffffffffffffffffffff1673ffffffffffffffffffffffffffffffffffffffff1663a3f477f46000809054906101000a900473ffffffffffffffffffffffffffffffffffffffff1673ffffffffffffffffffffffffffffffffffffffff1663a3005b49336040518263ffffffff1660e01b8152600401808273ffffffffffffffffffffffffffffffffffffffff1673ffffffffffffffffffffffffffffffffffffffff16815260200191505060206040518083038186803b158015615a5757600080fd5b505afa158015615a6b573d6000803e3d6000fd5b505050506040513d6020811015615a8157600080fd5b8101908080519060200190929190505050856040518363ffffffff1660e01b81526004018083815260200182815260200192505050600060405180830381600087803b158015615ad057600080fd5b505af1158015615ae4573d6000803e3d6000fd5b50505050505050565b606060405160200180807f7265736561726368657200000000000000000000000000000000000000000000815250600a01905060405160208183030381529060405280519060200120615b3e611cc4565b6040516020018082805190602001908083835b60208310615b745780518252602082019150602081019050602083039250615b51565b6001836020036101000a0380198251168184511680821785525050505050509050019150506040516020818303038152906040528051906020012014615c22576040517f08c379a00000000000000000000000000000000000000000000000000000000081526004018080602001828103825260208152602001807f5468697320706572736f6e206973206e6f74206120726573656172636865722181525060200191505060405180910390fd5b7f89be633ca6bdcf03e1d1e4304c9db3cc86fdfbe82edbb144681a1fffb2155ff460405160405180910390a16000809054906101000a900473ffffffffffffffffffffffffffffffffffffffff1673ffffffffffffffffffffffffffffffffffffffff166311fc621d6040518163ffffffff1660e01b815260040160006040518083038186803b158015615cb557600080fd5b505afa158015615cc9573d6000803e3d6000fd5b505050506040513d6000823e3d601f19601f820116820180604052506020811015615cf357600080fd5b8101908080516040519392919084640100000000821115615d1357600080fd5b83820191506020820185811115615d2957600080fd5b8251866020820283011164010000000082111715615d4657600080fd5b8083526020830192505050908051906020019060200280838360005b83811015615d7d578082015181840152602081019050615d62565b50505050905001604052505050905090565b600260009054906101000a900473ffffffffffffffffffffffffffffffffffffffff1673ffffffffffffffffffffffffffffffffffffffff1663ae185dce83836040518363ffffffff1660e01b81526004018083815260200182815260200192505050600060405180830381600087803b158015615e0c57600080fd5b505af1158015615e20573d6000803e3d6000fd5b50505050505056fe446f63746f72206973206e6f7420696e2070617469656e742773206c697374206f6620617070726f76656420646f63746f727350617469656e74206973206e6f7420696e206e757273652773206c697374206f662070617469656e747350617469656e74206973206e6f7420696e20646f63746f722773206c697374206f662070617469656e74734e75727365206973206e6f7420696e2070617469656e742773206c697374206f6620617070726f766564206e757273657350617469656e7420686173206e6f7420617070726f766564206461746120666f7220726573656172636820707572706f7365735265636f726420646f6573206e6f742062656c6f6e6720746f20746869732070617469656e74a265627a7a723158209b5dd576a51defe8f5e4c5eb45e3ab77c90ebce2afe223e1d055603e4a20baaa64736f6c63430005110032",
  "source": "pragma solidity ^0.5.0;\n\nimport \"./Patient.sol\";\nimport \"./Doctor.sol\";\nimport \"./Nurse.sol\";\nimport \"./EHR.sol\";\nimport \"./Researcher.sol\";\n\n\ncontract medicalChain {\n\n  Patient patientContract;\n  Doctor doctorContract;\n  Nurse nurseContract;\n  EHR ehrContract;\n  Researcher researcherContract;\n\n\n  constructor(Patient patientAddress, Doctor doctorAddress, Nurse nurseAddress, EHR ehrAddress, Researcher researcherAddress) public {\n    patientContract = patientAddress;\n    doctorContract = doctorAddress;\n    nurseContract = nurseAddress;\n    ehrContract = ehrAddress;\n    researcherContract = researcherAddress;\n  }\n\n  /********* EVENTS *********/  \n\n  event PatientAdded(address patientId);\n  event DoctorAdded(address doctorId);\n  event NurseAdded(address nurseId);\n  event testEvent(uint256 test);\n  event GivingDoctorAccess();\n  event RemovingDoctorAccess();\n  event GivingNurseAccess();\n  event RemovingNurseAccess();\n  event GivingResearcherAccess();\n  event AddingEHR();\n  event AcknowledgingRecord();\n  event GettingApprovedPatients();\n\n  /********* MODIFIERS *********/\n\n  // prevent doctor from self-diagnosing, doctor cannot write on their own record\n  modifier doctorIsNotPatient(address patientId, address doctorId) {\n    require(patientId != doctorId, \"Doctor should not self-diagnose\");\n    _;\n  }\n\n  // modifier isPractitionerApproved(uint256 patientId) {\n  //   string memory role = getSenderRole();\n  //   if (keccak256(abi.encodePacked((role))) == keccak256(abi.encodePacked((\"doctor\")))) {\n  //     require(patientContract.isApprovedDoctor(patientId, msg.sender) == true, \"Doctor is not in patient's list of approved doctors\");\n  //   } else if (keccak256(abi.encodePacked((role))) == keccak256(abi.encodePacked((\"nurse\")))) {\n  //     require(patientContract.isApprovedNurse(patientId, msg.sender) == true, \"Nurse is not in patient's list of approved nurses\");\n  //   }\n  //   _;\n  // }\n\n  // modifier isPatientRegisteredWithPractitioner(uint256 patientId) {\n  //   string memory role = getSenderRole();\n  //   if (keccak256(abi.encodePacked((role))) == keccak256(abi.encodePacked((\"doctor\")))) {\n  //     require(doctorContract.isPatientInListOfPatients(patientId, msg.sender) == true, \"Patient is not in doctor's list of patients\");\n  //   } else if (keccak256(abi.encodePacked((role))) == keccak256(abi.encodePacked((\"nurse\")))) {\n  //     require(nurseContract.isPatientInListOfPatients(patientId, msg.sender) == true, \"Patient is not in nurse's list of patients\");\n  //   }\n  //   _;\n  // }\n\n  modifier isPractitioner() {\n    string memory role = getSenderRole();\n    require(keccak256(abi.encodePacked((role))) == keccak256(abi.encodePacked((\"doctor\"))) || keccak256(abi.encodePacked((role))) == keccak256(abi.encodePacked((\"nurse\"))), \"User is not a practitioner\");\n    _;\n  }\n\n  modifier isPractitionerApprovedAndPatientRegisteredWithPractitioner(uint256 patientId) {\n    string memory role = getSenderRole();\n    // check if sender is a doctor\n    if (keccak256(abi.encodePacked((role))) == keccak256(abi.encodePacked((\"doctor\")))) {\n      require(patientContract.isApprovedDoctor(patientId, msg.sender) == true, \"Doctor is not in patient's list of approved doctors\");\n      require(doctorContract.isPatientInListOfPatients(patientId, msg.sender) == true, \"Patient is not in doctor's list of patients\");\n    } else if (keccak256(abi.encodePacked((role))) == keccak256(abi.encodePacked((\"nurse\")))) {\n      require(patientContract.isApprovedNurse(patientId, msg.sender) == true, \"Nurse is not in patient's list of approved nurses\");\n      require(nurseContract.isPatientInListOfPatients(patientId, msg.sender) == true, \"Patient is not in nurse's list of patients\");\n    }\n    _;\n  }\n\n  modifier isDoctorApprovedAndPatientRegisteredWithDoctor(uint256 patientId) {\n    string memory role = getSenderRole();\n    require(keccak256(abi.encodePacked((role))) == keccak256(abi.encodePacked((\"doctor\"))), \"User is not a doctor!\");\n    require(patientContract.isApprovedDoctor(patientId, msg.sender) == true, \"Doctor is not in patient's list of approved doctors\");\n    require(doctorContract.isPatientInListOfPatients(patientId, msg.sender) == true, \"Patient is not in doctor's list of patients\");\n    _;\n  }\n\n  modifier isIssuer(uint256 recordId, address doctorAddress) {\n    require(ehrContract.doesRecordMatchDoctorAddress(recordId, doctorAddress) == true, \"Doctor is not issuer!\");\n    _;\n  }\n\n  // modifier isPractitionerAbleToViewRecord(uint256 recordId) {\n  //   string memory role = getSenderRole();\n  //   if (keccak256(abi.encodePacked((role))) == keccak256(abi.encodePacked((\"doctor\")))) {\n  //     require(patientContract.isApprovedDoctor(patientContract.getPatientIdFromPatientAddress(ehrContract.getRecordPatientAddress(recordId)), msg.sender), \"Doctor is not in the patient's approved doctors\");\n  //   } else if (keccak256(abi.encodePacked((role))) == keccak256(abi.encodePacked((\"nurse\")))) {\n  //     require(patientContract.isApprovedNurse(patientContract.getPatientIdFromPatientAddress(ehrContract.getRecordPatientAddress(recordId)), msg.sender), \"Nurse is not in the patient's approved nurses\");\n  //   }\n  //   _;\n  // }\n\n  modifier isValidPatientId(uint256 patientId) {\n    require(patientContract.isValidPatientId(patientId) == true, \"Patient ID given is not valid\");\n    _;\n  }\n\n  modifier isValidDoctorId(uint256 doctorId) {\n    require(doctorContract.isValidDoctorId(doctorId) == true, \"Doctor ID given is not valid\");\n    _;\n  }\n\n  modifier isValidNurseId(uint256 nurseId) {\n    require(nurseContract.isValidNurseId(nurseId) == true, \"Nurse ID given is not valid\");\n    _;\n  }\n\n  modifier isValidRecordId(uint256 recordId) {\n    require(ehrContract.isValidRecordId(recordId) == true, \"Record ID given is not valid\");\n    _;\n  }\n\n  modifier isPatient() {\n    require(keccak256(abi.encodePacked(getSenderRole())) == keccak256(abi.encodePacked((\"patient\"))), \"This person is not a patient!\");\n    _;\n  }\n\n  modifier isRecordBelongToPatient(uint256 recordId) {\n    require(ehrContract.isRecordBelongToPatient(recordId, msg.sender) == true, \"Record does not belong to this patient\");\n    _;\n  }\n\n  modifier isResearcherAbleToViewPatientData(uint256 patientId) {\n    require(patientContract.getApprovedReseacher(patientId), \"Patient has not approved data for research purposes\");\n    _;\n  }\n\n  modifier isResearcher() {\n    require(keccak256(abi.encodePacked(getSenderRole())) == keccak256(abi.encodePacked((\"researcher\"))), \"This person is not a researcher!\");\n    _;\n  }\n\n\n  /********* FUNCTIONS *********/\n\n  function getSenderRole() public view returns (string memory) {\n    if (doctorContract.isSender(msg.sender)) {\n      return \"doctor\";\n    } else if (patientContract.isSender(msg.sender)) {\n      return \"patient\";\n    } else if (nurseContract.isSender(msg.sender)) {\n      return \"nurse\";\n    } else if (researcherContract.isSender(msg.sender)) {\n      return \"researcher\";\n    } else {\n      return \"unknown\";\n    }\n  }\n\n  function giveDoctorAccess(uint256 patientId, address doctorAddress) public {\n    emit GivingDoctorAccess();\n    patientContract.giveDoctorAccess(patientId, doctorAddress);\n  }\n\n  function removeDoctorAccess(uint256 patientId, address doctorAddress) public {\n    emit RemovingDoctorAccess();\n    patientContract.removeDoctorAccess(patientId, doctorAddress);\n  }\n\n  function giveNurseAccess(uint256 patientId, address nurseAddress) public {\n    emit GivingNurseAccess();\n    patientContract.giveNurseAccess(patientId, nurseAddress);\n  }\n\n  function removeNurseAccess(uint256 patientId, address nurseAddress) public {\n    emit RemovingNurseAccess();\n    patientContract.removeNurseAccess(patientId, nurseAddress);\n  }\n\n  function registerPatientWithDoctor(uint256 doctorId, uint256 patientId) public {\n    doctorContract.registerPatient(doctorId, patientId);\n  }\n\n  function unregisterPatientWithDoctor(uint256 doctorId, uint256 patientId) public {\n    doctorContract.unregisterPatient(doctorId, patientId);\n  }\n\n  function registerPatientWithNurse(uint256 nurseId, uint256 patientId) public {\n    nurseContract.registerPatient(nurseId, patientId);\n  }\n\n  function unregisterPatientWithNurse(uint256 nurseId, uint256 patientId) public {\n    nurseContract.registerPatient(nurseId, patientId);\n  }\n\n  function giveResearcherAccess(uint256 patientId) public {\n    emit GivingResearcherAccess();\n    patientContract.giveResearcherAccess(patientId);\n  }\n\n  function testingTest(uint256 test) public {\n    emit testEvent(test);\n  }\n\n  // // Add new EHR\n  function addNewEHR(EHR.RecordType recordType, uint256 patientId, string memory filename) public isDoctorApprovedAndPatientRegisteredWithDoctor(patientId) returns (uint256 recordId) {\n\n      // Check if msg.sender is doctor or nurse\n      // Check if msg.sender is inside patient's approvedDoctors or approvedNurses\n      // Check if patientId inside doctor's patients\n      // Add new EHR\n      // add recordId into patient and doctors records\n\n      // address patientAddress = patientContract.getPatientAddress(patientId);\n      recordId = ehrContract.add(recordType, filename, patientContract.getPatientAddress(patientId), msg.sender);\n\n      patientContract.addEhr(patientId, recordId);\n\n      emit AddingEHR();\n      return recordId;\n  }\n\n  // Request to view specific record\n  function practitionerViewRecordByRecordID(uint256 patientId, uint256 recordId) public view isPractitioner() isPractitionerApprovedAndPatientRegisteredWithPractitioner(patientId) isValidRecordId(recordId) returns (uint256 id,\n        EHR.RecordType recordType,\n        string memory fileName,\n        address patientAddress,\n        address doctorAddress,\n        uint256 timeAdded,\n        bool patientSignedOff) {\n      return ehrContract.getRecord(recordId);\n  }\n\n  // Request to update specific record - update RecordType and fileName\n  function updateRecordByRecordId(uint256 patientId, uint256 recordId, EHR.RecordType recordType, string memory fileName) public isDoctorApprovedAndPatientRegisteredWithDoctor(patientId) isValidRecordId(recordId) isIssuer(recordId, msg.sender) {\n    ehrContract.updateRecord(recordId, recordType, fileName);\n  }\n\n  // Researcher: View all patients who have approved research access\n  function viewApprovedPatients() public isResearcher() returns (uint256[] memory) {\n      emit GettingApprovedPatients();\n      return patientContract.getResearchPatients();\n  }\n\n  // Researcher: Request to view specific patient data\n  function viewPatientByPatientID(uint256 patientID) public view isResearcher() isResearcherAbleToViewPatientData(patientID) returns (uint256 id,\n        string memory firstName,\n        string memory lastName,\n        string memory emailAddress,\n        string memory dob) {\n      return patientContract.getData(patientID);\n  }\n\n  // Patient: View all records (acknowledged and not acknowledged)\n  function patientViewAllAcknowledgedRecords(uint256 patientId) public view isPatient() isValidPatientId(patientId) returns (uint256[] memory) {\n    return patientContract.viewAllAcknowledgedRecords(patientId);\n  }\n\n  // Patient: View all records (acknowledged and not acknowledged)\n  function patientViewAllRecords(uint256 patientId) public view isPatient() isValidPatientId(patientId) returns (uint256[] memory) {\n    return patientContract.viewAllRecords(patientId);\n  }\n\n  // Patient: View all records issued by certain doctor\n  function patientViewRecordsByDoctor(uint256 patientId, uint256 doctorId) public view isPatient() isValidDoctorId(doctorId) returns (uint256[] memory) {\n    // address doctorAddress = doctorContract.getDoctorAddressFromDoctorId(doctorId);\n    return patientContract.viewRecordsByDoctor(patientId, doctorContract.getDoctorAddressFromDoctorId(doctorId));\n  }\n\n  // Patient: View all records issued by certain nurse\n  function patientViewRecordsByNurse(uint256 patientId, uint256 nurseId) public view isPatient() isValidNurseId(nurseId) returns (uint256[] memory) {\n    // address nurseAddress = nurseContract.getNurseAddressFromNurseId(nurseId);\n    return patientContract.viewRecordsByDoctor(patientId, nurseContract.getNurseAddressFromNurseId(nurseId));\n  }\n\n  // Patient: Filter records by record type\n  function patientViewRecordsByRecordType(uint256 patientId, EHR.RecordType recordType) public view isPatient() isValidPatientId(patientId) returns (uint256[] memory) {\n    return patientContract.viewRecordsByRecordType(patientId, recordType);\n  }\n\n  // Practitioner: View all records belonging to this patient\n  // Returns all the recordIds\n  function practitionerViewAllRecords(uint256 patientId) public view isPractitioner() isPractitionerApprovedAndPatientRegisteredWithPractitioner(patientId) returns (uint256[] memory) {\n    // address patientAddress = patientContract.getPatientAddress(patientId);\n    return patientContract.practitionerViewAllRecords(patientId);\n  }\n\n// Patient: Acknowledge a record that is added to his medical records\nfunction patientAcknowledgeRecord(uint256 recordId) public isPatient() isValidRecordId(recordId) isRecordBelongToPatient(recordId) {\n  emit AcknowledgingRecord();\n  // uint256 patientId = patientContract.getPatientIdFromPatientAddress(msg.sender);\n  patientContract.signOffRecord(patientContract.getPatientIdFromPatientAddress(msg.sender), recordId);\n}\n\n\n}",
  "sourcePath": "/Users/aaronf/IS4302/Project/is4302-project-medical-chain/contracts/medicalChain.sol",
  "compiler": {
    "name": "solc",
    "version": "0.5.17+commit.d19bba13.Emscripten.clang"
  },
  "schemaVersion": "3.4.11",
  "updatedAt": "2023-04-09T16:24:37.514Z",
  "devdoc": {
    "methods": {}
  },
  "userdoc": {
    "methods": {
      "getSenderRole()": {
        "notice": "******* FUNCTIONS ********"
      }
    }
  }
}