{
  "contractName": "Nurse",
  "abi": [
    {
      "constant": true,
      "inputs": [],
      "name": "numNurses",
      "outputs": [
        {
          "internalType": "uint256",
          "name": "",
          "type": "uint256"
        }
      ],
      "payable": false,
      "stateMutability": "view",
      "type": "function"
    },
    {
      "constant": true,
      "inputs": [
        {
          "internalType": "uint256",
          "name": "",
          "type": "uint256"
        }
      ],
      "name": "nurses",
      "outputs": [
        {
          "internalType": "address",
          "name": "owner",
          "type": "address"
        },
        {
          "internalType": "uint256",
          "name": "nurseId",
          "type": "uint256"
        },
        {
          "internalType": "string",
          "name": "firstName",
          "type": "string"
        },
        {
          "internalType": "string",
          "name": "lastName",
          "type": "string"
        },
        {
          "internalType": "string",
          "name": "emailAddress",
          "type": "string"
        },
        {
          "internalType": "string",
          "name": "dob",
          "type": "string"
        }
      ],
      "payable": false,
      "stateMutability": "view",
      "type": "function"
    },
    {
      "constant": false,
      "inputs": [
        {
          "internalType": "string",
          "name": "_firstName",
          "type": "string"
        },
        {
          "internalType": "string",
          "name": "_lastName",
          "type": "string"
        },
        {
          "internalType": "string",
          "name": "_emailAddress",
          "type": "string"
        },
        {
          "internalType": "string",
          "name": "_dob",
          "type": "string"
        }
      ],
      "name": "create",
      "outputs": [
        {
          "internalType": "uint256",
          "name": "",
          "type": "uint256"
        }
      ],
      "payable": false,
      "stateMutability": "nonpayable",
      "type": "function"
    },
    {
      "constant": true,
      "inputs": [
        {
          "internalType": "address",
          "name": "owner",
          "type": "address"
        }
      ],
      "name": "isSender",
      "outputs": [
        {
          "internalType": "bool",
          "name": "",
          "type": "bool"
        }
      ],
      "payable": false,
      "stateMutability": "view",
      "type": "function"
    },
    {
      "constant": true,
      "inputs": [
        {
          "internalType": "uint256",
          "name": "patientId",
          "type": "uint256"
        },
        {
          "internalType": "address",
          "name": "owner",
          "type": "address"
        }
      ],
      "name": "isPatientInListOfPatients",
      "outputs": [
        {
          "internalType": "bool",
          "name": "",
          "type": "bool"
        }
      ],
      "payable": false,
      "stateMutability": "view",
      "type": "function"
    },
    {
      "constant": true,
      "inputs": [
        {
          "internalType": "uint256",
          "name": "nurseId",
          "type": "uint256"
        }
      ],
      "name": "getFirstName",
      "outputs": [
        {
          "internalType": "string",
          "name": "",
          "type": "string"
        }
      ],
      "payable": false,
      "stateMutability": "view",
      "type": "function"
    },
    {
      "constant": false,
      "inputs": [
        {
          "internalType": "uint256",
          "name": "nurseId",
          "type": "uint256"
        },
        {
          "internalType": "string",
          "name": "_firstName",
          "type": "string"
        }
      ],
      "name": "setFirstName",
      "outputs": [],
      "payable": false,
      "stateMutability": "nonpayable",
      "type": "function"
    },
    {
      "constant": true,
      "inputs": [
        {
          "internalType": "uint256",
          "name": "nurseId",
          "type": "uint256"
        }
      ],
      "name": "getLastName",
      "outputs": [
        {
          "internalType": "string",
          "name": "",
          "type": "string"
        }
      ],
      "payable": false,
      "stateMutability": "view",
      "type": "function"
    },
    {
      "constant": false,
      "inputs": [
        {
          "internalType": "uint256",
          "name": "nurseId",
          "type": "uint256"
        },
        {
          "internalType": "string",
          "name": "_lastName",
          "type": "string"
        }
      ],
      "name": "setLastName",
      "outputs": [],
      "payable": false,
      "stateMutability": "nonpayable",
      "type": "function"
    },
    {
      "constant": true,
      "inputs": [
        {
          "internalType": "uint256",
          "name": "nurseId",
          "type": "uint256"
        }
      ],
      "name": "getEmailAddress",
      "outputs": [
        {
          "internalType": "string",
          "name": "",
          "type": "string"
        }
      ],
      "payable": false,
      "stateMutability": "view",
      "type": "function"
    },
    {
      "constant": false,
      "inputs": [
        {
          "internalType": "uint256",
          "name": "nurseId",
          "type": "uint256"
        },
        {
          "internalType": "string",
          "name": "_emailAddress",
          "type": "string"
        }
      ],
      "name": "setEmailAddress",
      "outputs": [],
      "payable": false,
      "stateMutability": "nonpayable",
      "type": "function"
    },
    {
      "constant": true,
      "inputs": [
        {
          "internalType": "uint256",
          "name": "nurseId",
          "type": "uint256"
        }
      ],
      "name": "getDob",
      "outputs": [
        {
          "internalType": "string",
          "name": "",
          "type": "string"
        }
      ],
      "payable": false,
      "stateMutability": "view",
      "type": "function"
    },
    {
      "constant": false,
      "inputs": [
        {
          "internalType": "uint256",
          "name": "nurseId",
          "type": "uint256"
        },
        {
          "internalType": "string",
          "name": "_dob",
          "type": "string"
        }
      ],
      "name": "setDob",
      "outputs": [],
      "payable": false,
      "stateMutability": "nonpayable",
      "type": "function"
    }
  ],
  "bytecode": "0x60806040526000805534801561001457600080fd5b50611b12806100246000396000f3fe608060405234801561001057600080fd5b50600436106100cf5760003560e01c806378ff6ee31161008c578063be05702a11610066578063be05702a14610a37578063e31e750c14610a55578063e384346314610afc578063fcda42c714610b58576100cf565b806378ff6ee3146106785780639cc580481461090c5780639ebd51f814610972576100cf565b8063172a56c1146100d4578063174029f61461017b5780632013fd1e146102225780633a17f75a146102c95780633a64e0d11461038e57806371f26a5c146105b3575b600080fd5b610100600480360360208110156100ea57600080fd5b8101908080359060200190929190505050610c1d565b6040518080602001828103825283818151815260200191508051906020019080838360005b83811015610140578082015181840152602081019050610125565b50505050905090810190601f16801561016d5780820380516001836020036101000a031916815260200191505b509250505060405180910390f35b6101a76004803603602081101561019157600080fd5b8101908080359060200190929190505050610d55565b6040518080602001828103825283818151815260200191508051906020019080838360005b838110156101e75780820151818401526020810190506101cc565b50505050905090810190601f1680156102145780820380516001836020036101000a031916815260200191505b509250505060405180910390f35b61024e6004803603602081101561023857600080fd5b8101908080359060200190929190505050610e8d565b6040518080602001828103825283818151815260200191508051906020019080838360005b8381101561028e578082015181840152602081019050610273565b50505050905090810190601f1680156102bb5780820380516001836020036101000a031916815260200191505b509250505060405180910390f35b61038c600480360360408110156102df57600080fd5b81019080803590602001909291908035906020019064010000000081111561030657600080fd5b82018360208201111561031857600080fd5b8035906020019184600183028401116401000000008311171561033a57600080fd5b91908080601f016020809104026020016040519081016040528093929190818152602001838380828437600081840152601f19601f820116905080830192505050505050509192919290505050610fc5565b005b6103ba600480360360208110156103a457600080fd5b8101908080359060200190929190505050611074565b604051808773ffffffffffffffffffffffffffffffffffffffff1673ffffffffffffffffffffffffffffffffffffffff16815260200186815260200180602001806020018060200180602001858103855289818151815260200191508051906020019080838360005b8381101561043e578082015181840152602081019050610423565b50505050905090810190601f16801561046b5780820380516001836020036101000a031916815260200191505b50858103845288818151815260200191508051906020019080838360005b838110156104a4578082015181840152602081019050610489565b50505050905090810190601f1680156104d15780820380516001836020036101000a031916815260200191505b50858103835287818151815260200191508051906020019080838360005b8381101561050a5780820151818401526020810190506104ef565b50505050905090810190601f1680156105375780820380516001836020036101000a031916815260200191505b50858103825286818151815260200191508051906020019080838360005b83811015610570578082015181840152602081019050610555565b50505050905090810190601f16801561059d5780820380516001836020036101000a031916815260200191505b509a505050505050505050505060405180910390f35b610676600480360360408110156105c957600080fd5b8101908080359060200190929190803590602001906401000000008111156105f057600080fd5b82018360208201111561060257600080fd5b8035906020019184600183028401116401000000008311171561062457600080fd5b91908080601f016020809104026020016040519081016040528093929190818152602001838380828437600081840152601f19601f820116905080830192505050505050509192919290505050611330565b005b6108f66004803603608081101561068e57600080fd5b81019080803590602001906401000000008111156106ab57600080fd5b8201836020820111156106bd57600080fd5b803590602001918460018302840111640100000000831117156106df57600080fd5b91908080601f016020809104026020016040519081016040528093929190818152602001838380828437600081840152601f19601f8201169050808301925050505050505091929192908035906020019064010000000081111561074257600080fd5b82018360208201111561075457600080fd5b8035906020019184600183028401116401000000008311171561077657600080fd5b91908080601f016020809104026020016040519081016040528093929190818152602001838380828437600081840152601f19601f820116905080830192505050505050509192919290803590602001906401000000008111156107d957600080fd5b8201836020820111156107eb57600080fd5b8035906020019184600183028401116401000000008311171561080d57600080fd5b91908080601f016020809104026020016040519081016040528093929190818152602001838380828437600081840152601f19601f8201169050808301925050505050505091929192908035906020019064010000000081111561087057600080fd5b82018360208201111561088257600080fd5b803590602001918460018302840111640100000000831117156108a457600080fd5b91908080601f016020809104026020016040519081016040528093929190818152602001838380828437600081840152601f19601f8201169050808301925050505050505091929192905050506113df565b6040518082815260200191505060405180910390f35b6109586004803603604081101561092257600080fd5b8101908080359060200190929190803573ffffffffffffffffffffffffffffffffffffffff16906020019092919050505061154b565b604051808215151515815260200191505060405180910390f35b610a356004803603604081101561098857600080fd5b8101908080359060200190929190803590602001906401000000008111156109af57600080fd5b8201836020820111156109c157600080fd5b803590602001918460018302840111640100000000831117156109e357600080fd5b91908080601f016020809104026020016040519081016040528093929190818152602001838380828437600081840152601f19601f82011690508083019250505050505050919291929050505061162b565b005b610a3f6116da565b6040518082815260200191505060405180910390f35b610a8160048036036020811015610a6b57600080fd5b81019080803590602001909291905050506116e0565b6040518080602001828103825283818151815260200191508051906020019080838360005b83811015610ac1578082015181840152602081019050610aa6565b50505050905090810190601f168015610aee5780820380516001836020036101000a031916815260200191505b509250505060405180910390f35b610b3e60048036036020811015610b1257600080fd5b81019080803573ffffffffffffffffffffffffffffffffffffffff169060200190929190505050611818565b604051808215151515815260200191505060405180910390f35b610c1b60048036036040811015610b6e57600080fd5b810190808035906020019092919080359060200190640100000000811115610b9557600080fd5b820183602082011115610ba757600080fd5b80359060200191846001830284011164010000000083111715610bc957600080fd5b91908080601f016020809104026020016040519081016040528093929190818152602001838380828437600081840152601f19601f8201169050808301925050505050505091929192905050506118bd565b005b6060816000548110610c2e57600080fd5b823273ffffffffffffffffffffffffffffffffffffffff166001600083815260200190815260200160002060000160009054906101000a900473ffffffffffffffffffffffffffffffffffffffff1673ffffffffffffffffffffffffffffffffffffffff1614610c9d57600080fd5b600160008581526020019081526020016000206002018054600181600116156101000203166002900480601f016020809104026020016040519081016040528092919081815260200182805460018160011615610100020316600290048015610d475780601f10610d1c57610100808354040283529160200191610d47565b820191906000526020600020905b815481529060010190602001808311610d2a57829003601f168201915b505050505092505050919050565b6060816000548110610d6657600080fd5b823273ffffffffffffffffffffffffffffffffffffffff166001600083815260200190815260200160002060000160009054906101000a900473ffffffffffffffffffffffffffffffffffffffff1673ffffffffffffffffffffffffffffffffffffffff1614610dd557600080fd5b600160008581526020019081526020016000206003018054600181600116156101000203166002900480601f016020809104026020016040519081016040528092919081815260200182805460018160011615610100020316600290048015610e7f5780601f10610e5457610100808354040283529160200191610e7f565b820191906000526020600020905b815481529060010190602001808311610e6257829003601f168201915b505050505092505050919050565b6060816000548110610e9e57600080fd5b823273ffffffffffffffffffffffffffffffffffffffff166001600083815260200190815260200160002060000160009054906101000a900473ffffffffffffffffffffffffffffffffffffffff1673ffffffffffffffffffffffffffffffffffffffff1614610f0d57600080fd5b600160008581526020019081526020016000206005018054600181600116156101000203166002900480601f016020809104026020016040519081016040528092919081815260200182805460018160011615610100020316600290048015610fb75780601f10610f8c57610100808354040283529160200191610fb7565b820191906000526020600020905b815481529060010190602001808311610f9a57829003601f168201915b505050505092505050919050565b816000548110610fd457600080fd5b823273ffffffffffffffffffffffffffffffffffffffff166001600083815260200190815260200160002060000160009054906101000a900473ffffffffffffffffffffffffffffffffffffffff1673ffffffffffffffffffffffffffffffffffffffff161461104357600080fd5b8260016000868152602001908152602001600020600201908051906020019061106d92919061196c565b5050505050565b60016020528060005260406000206000915090508060000160009054906101000a900473ffffffffffffffffffffffffffffffffffffffff1690806001015490806002018054600181600116156101000203166002900480601f01602080910402602001604051908101604052809291908181526020018280546001816001161561010002031660029004801561114c5780601f106111215761010080835404028352916020019161114c565b820191906000526020600020905b81548152906001019060200180831161112f57829003601f168201915b505050505090806003018054600181600116156101000203166002900480601f0160208091040260200160405190810160405280929190818152602001828054600181600116156101000203166002900480156111ea5780601f106111bf576101008083540402835291602001916111ea565b820191906000526020600020905b8154815290600101906020018083116111cd57829003601f168201915b505050505090806004018054600181600116156101000203166002900480601f0160208091040260200160405190810160405280929190818152602001828054600181600116156101000203166002900480156112885780601f1061125d57610100808354040283529160200191611288565b820191906000526020600020905b81548152906001019060200180831161126b57829003601f168201915b505050505090806005018054600181600116156101000203166002900480601f0160208091040260200160405190810160405280929190818152602001828054600181600116156101000203166002900480156113265780601f106112fb57610100808354040283529160200191611326565b820191906000526020600020905b81548152906001019060200180831161130957829003601f168201915b5050505050905086565b81600054811061133f57600080fd5b823273ffffffffffffffffffffffffffffffffffffffff166001600083815260200190815260200160002060000160009054906101000a900473ffffffffffffffffffffffffffffffffffffffff1673ffffffffffffffffffffffffffffffffffffffff16146113ae57600080fd5b826001600086815260200190815260200160002060050190805190602001906113d892919061196c565b5050505050565b6000806000808154809291906001019190505590506113fc6119ec565b8181602001818152505033816000019073ffffffffffffffffffffffffffffffffffffffff16908173ffffffffffffffffffffffffffffffffffffffff1681525050868160400181905250858160600181905250848160800181905250838160a00181905250806001600084815260200190815260200160002060008201518160000160006101000a81548173ffffffffffffffffffffffffffffffffffffffff021916908373ffffffffffffffffffffffffffffffffffffffff1602179055506020820151816001015560408201518160020190805190602001906114e3929190611a38565b506060820151816003019080519060200190611500929190611a38565b50608082015181600401908051906020019061151d929190611a38565b5060a082015181600501908051906020019061153a929190611a38565b509050508192505050949350505050565b600080600090505b60005481101561161f5760006001600083815260200190815260200160002090508373ffffffffffffffffffffffffffffffffffffffff168160000160009054906101000a900473ffffffffffffffffffffffffffffffffffffffff1673ffffffffffffffffffffffffffffffffffffffff161415611611576001151581600601600087815260200190815260200160002060009054906101000a900460ff161515141561160657600192505050611625565b600092505050611625565b508080600101915050611553565b50600090505b92915050565b81600054811061163a57600080fd5b823273ffffffffffffffffffffffffffffffffffffffff166001600083815260200190815260200160002060000160009054906101000a900473ffffffffffffffffffffffffffffffffffffffff1673ffffffffffffffffffffffffffffffffffffffff16146116a957600080fd5b826001600086815260200190815260200160002060040190805190602001906116d392919061196c565b5050505050565b60005481565b60608160005481106116f157600080fd5b823273ffffffffffffffffffffffffffffffffffffffff166001600083815260200190815260200160002060000160009054906101000a900473ffffffffffffffffffffffffffffffffffffffff1673ffffffffffffffffffffffffffffffffffffffff161461176057600080fd5b600160008581526020019081526020016000206004018054600181600116156101000203166002900480601f01602080910402602001604051908101604052809291908181526020018280546001816001161561010002031660029004801561180a5780601f106117df5761010080835404028352916020019161180a565b820191906000526020600020905b8154815290600101906020018083116117ed57829003601f168201915b505050505092505050919050565b600080600090505b6000548110156118b25760006001600083815260200190815260200160002090508373ffffffffffffffffffffffffffffffffffffffff168160000160009054906101000a900473ffffffffffffffffffffffffffffffffffffffff1673ffffffffffffffffffffffffffffffffffffffff1614156118a4576001925050506118b8565b508080600101915050611820565b50600090505b919050565b8160005481106118cc57600080fd5b823273ffffffffffffffffffffffffffffffffffffffff166001600083815260200190815260200160002060000160009054906101000a900473ffffffffffffffffffffffffffffffffffffffff1673ffffffffffffffffffffffffffffffffffffffff161461193b57600080fd5b8260016000868152602001908152602001600020600301908051906020019061196592919061196c565b5050505050565b828054600181600116156101000203166002900490600052602060002090601f016020900481019282601f106119ad57805160ff19168380011785556119db565b828001600101855582156119db579182015b828111156119da5782518255916020019190600101906119bf565b5b5090506119e89190611ab8565b5090565b6040518060c00160405280600073ffffffffffffffffffffffffffffffffffffffff16815260200160008152602001606081526020016060815260200160608152602001606081525090565b828054600181600116156101000203166002900490600052602060002090601f016020900481019282601f10611a7957805160ff1916838001178555611aa7565b82800160010185558215611aa7579182015b82811115611aa6578251825591602001919060010190611a8b565b5b509050611ab49190611ab8565b5090565b611ada91905b80821115611ad6576000816000905550600101611abe565b5090565b9056fea265627a7a7231582019439dc6acc6e980f5029b1630eb5ef5f65217e2127055dc7168c52bb1f0ef2964736f6c63430005110032",
  "source": "pragma solidity ^0.5.0;\n\nimport \"./EHR.sol\";\n\ncontract Nurse {\n\n    struct nurse {\n        address owner;\n        uint256 nurseId;\n        string firstName;\n        string lastName;\n        string emailAddress;\n        string dob;\n \n        mapping(uint256 => bool) patients;\n        mapping(uint256 => bool) records;\n    }\n\n    uint256 public numNurses = 0;\n    mapping(uint256 => nurse) public nurses;\n\n    // function to create nurse\n    function create(string memory _firstName, string memory _lastName, string memory _emailAddress, string memory _dob) public returns(uint256) {\n\n        uint256 newNurseId = numNurses++;\n\n        nurse memory newNurse;\n        newNurse.nurseId = newNurseId;\n        newNurse.owner = msg.sender;\n        newNurse.firstName = _firstName;\n        newNurse.lastName = _lastName;\n        newNurse.emailAddress = _emailAddress;\n        newNurse.dob = _dob;\n\n        nurses[newNurseId] = newNurse;\n        return newNurseId;\n    }\n\n    // Modifiers\n\n    modifier ownerOnly(uint256 nurseId) {\n        require(nurses[nurseId].owner == tx.origin);\n        _;\n    }\n\n    modifier validNurseId(uint256 nurseId) {\n        require(nurseId < numNurses);\n        _;\n    }\n\n    // Functions\n    function isSender(address owner) public view returns(bool) {\n        for (uint i = 0; i < numNurses; i++) {\n            nurse storage temp = nurses[i];\n            if (temp.owner == owner) {\n                return true;\n            }\n        }\n\n        return false;\n    }\n\n    function isPatientInListOfPatients(uint256 patientId, address owner) public view returns(bool) {\n        for (uint i = 0; i < numNurses; i++) {\n            nurse storage temp = nurses[i];\n            if (temp.owner == owner) {\n                if (temp.patients[patientId] == true) {\n                    return true;\n                } else {\n                    return false;\n                }\n            }\n        }\n\n        return false;\n    }\n\n    // Getters and Setters\n    function getFirstName(uint256 nurseId) public view validNurseId(nurseId) ownerOnly(nurseId) returns(string memory) {\n        return nurses[nurseId].firstName;\n    }\n\n    function setFirstName(uint256 nurseId, string memory _firstName) public validNurseId(nurseId) ownerOnly(nurseId) {\n        nurses[nurseId].firstName = _firstName;\n    }\n\n    function getLastName(uint256 nurseId) public view validNurseId(nurseId) ownerOnly(nurseId) returns(string memory) {\n        return nurses[nurseId].lastName;\n    }\n\n    function setLastName(uint256 nurseId, string memory _lastName) public validNurseId(nurseId) ownerOnly(nurseId) {\n        nurses[nurseId].lastName = _lastName;\n    }\n\n    function getEmailAddress(uint256 nurseId) public view validNurseId(nurseId) ownerOnly(nurseId) returns(string memory) {\n        return nurses[nurseId].emailAddress;\n    }\n\n    function setEmailAddress(uint256 nurseId, string memory _emailAddress) public validNurseId(nurseId) ownerOnly(nurseId) {\n        nurses[nurseId].emailAddress = _emailAddress;\n    }\n\n    function getDob(uint256 nurseId) public view validNurseId(nurseId) ownerOnly(nurseId) returns(string memory) {\n        return nurses[nurseId].dob;\n    }\n\n    function setDob(uint256 nurseId, string memory _dob) public validNurseId(nurseId) ownerOnly(nurseId) {\n        nurses[nurseId].dob = _dob;\n    }\n}",
  "sourcePath": "/Users/seantan/Documents/Code/School/IS4302/project/contracts/Nurse.sol",
  "compiler": {
    "name": "solc",
    "version": "0.5.17+commit.d19bba13.Emscripten.clang"
  },
  "schemaVersion": "3.4.13",
  "updatedAt": "2023-03-27T07:19:11.727Z",
  "networkType": "ethereum",
  "devdoc": {
    "methods": {}
  },
  "userdoc": {
    "methods": {}
  }
}