{
  "contractName": "Nurse",
  "abi": [
    {
      "inputs": [
        {
          "internalType": "contract EHR",
          "name": "ehrAddress",
          "type": "address"
        }
      ],
      "payable": false,
      "stateMutability": "nonpayable",
      "type": "constructor"
    },
    {
      "anonymous": false,
      "inputs": [
        {
          "indexed": false,
          "internalType": "address",
          "name": "nurseAddress",
          "type": "address"
        }
      ],
      "name": "NurseAdded",
      "type": "event"
    },
    {
      "constant": true,
      "inputs": [],
      "name": "numNurses",
      "outputs": [
        {
          "internalType": "uint256",
          "name": "",
          "type": "uint256"
        }
      ],
      "payable": false,
      "stateMutability": "view",
      "type": "function"
    },
    {
      "constant": true,
      "inputs": [
        {
          "internalType": "uint256",
          "name": "",
          "type": "uint256"
        }
      ],
      "name": "nurses",
      "outputs": [
        {
          "internalType": "address",
          "name": "owner",
          "type": "address"
        },
        {
          "internalType": "uint256",
          "name": "nurseId",
          "type": "uint256"
        },
        {
          "internalType": "string",
          "name": "firstName",
          "type": "string"
        },
        {
          "internalType": "string",
          "name": "lastName",
          "type": "string"
        },
        {
          "internalType": "string",
          "name": "emailAddress",
          "type": "string"
        },
        {
          "internalType": "string",
          "name": "dob",
          "type": "string"
        }
      ],
      "payable": false,
      "stateMutability": "view",
      "type": "function"
    },
    {
      "constant": false,
      "inputs": [
        {
          "internalType": "string",
          "name": "_firstName",
          "type": "string"
        },
        {
          "internalType": "string",
          "name": "_lastName",
          "type": "string"
        },
        {
          "internalType": "string",
          "name": "_emailAddress",
          "type": "string"
        },
        {
          "internalType": "string",
          "name": "_dob",
          "type": "string"
        }
      ],
      "name": "create",
      "outputs": [
        {
          "internalType": "uint256",
          "name": "",
          "type": "uint256"
        }
      ],
      "payable": false,
      "stateMutability": "nonpayable",
      "type": "function"
    },
    {
      "constant": true,
      "inputs": [
        {
          "internalType": "uint256",
          "name": "nurseId",
          "type": "uint256"
        },
        {
          "internalType": "uint256",
          "name": "patientId",
          "type": "uint256"
        }
      ],
      "name": "getIsPatientRegistered",
      "outputs": [
        {
          "internalType": "bool",
          "name": "",
          "type": "bool"
        }
      ],
      "payable": false,
      "stateMutability": "view",
      "type": "function"
    },
    {
      "constant": false,
      "inputs": [
        {
          "internalType": "uint256",
          "name": "nurseId",
          "type": "uint256"
        },
        {
          "internalType": "uint256",
          "name": "patientId",
          "type": "uint256"
        }
      ],
      "name": "registerPatient",
      "outputs": [],
      "payable": false,
      "stateMutability": "nonpayable",
      "type": "function"
    },
    {
      "constant": false,
      "inputs": [
        {
          "internalType": "uint256",
          "name": "nurseId",
          "type": "uint256"
        },
        {
          "internalType": "uint256",
          "name": "patientId",
          "type": "uint256"
        }
      ],
      "name": "unregisterPatient",
      "outputs": [],
      "payable": false,
      "stateMutability": "nonpayable",
      "type": "function"
    },
    {
      "constant": true,
      "inputs": [
        {
          "internalType": "uint256",
          "name": "nurseId",
          "type": "uint256"
        }
      ],
      "name": "isValidNurseId",
      "outputs": [
        {
          "internalType": "bool",
          "name": "",
          "type": "bool"
        }
      ],
      "payable": false,
      "stateMutability": "view",
      "type": "function"
    },
    {
      "constant": true,
      "inputs": [
        {
          "internalType": "address",
          "name": "owner",
          "type": "address"
        }
      ],
      "name": "isSender",
      "outputs": [
        {
          "internalType": "bool",
          "name": "",
          "type": "bool"
        }
      ],
      "payable": false,
      "stateMutability": "view",
      "type": "function"
    },
    {
      "constant": true,
      "inputs": [
        {
          "internalType": "uint256",
          "name": "patientId",
          "type": "uint256"
        },
        {
          "internalType": "address",
          "name": "owner",
          "type": "address"
        }
      ],
      "name": "isPatientInListOfPatients",
      "outputs": [
        {
          "internalType": "bool",
          "name": "",
          "type": "bool"
        }
      ],
      "payable": false,
      "stateMutability": "view",
      "type": "function"
    },
    {
      "constant": true,
      "inputs": [
        {
          "internalType": "uint256",
          "name": "nurseId",
          "type": "uint256"
        }
      ],
      "name": "getNurseAddressFromNurseId",
      "outputs": [
        {
          "internalType": "address",
          "name": "",
          "type": "address"
        }
      ],
      "payable": false,
      "stateMutability": "view",
      "type": "function"
    },
    {
      "constant": true,
      "inputs": [
        {
          "internalType": "address",
          "name": "patientAddress",
          "type": "address"
        },
        {
          "internalType": "uint256",
          "name": "patientNoOfRecords",
          "type": "uint256"
        }
      ],
      "name": "nurseViewAllRecords",
      "outputs": [
        {
          "internalType": "uint256[]",
          "name": "",
          "type": "uint256[]"
        }
      ],
      "payable": false,
      "stateMutability": "view",
      "type": "function"
    },
    {
      "constant": true,
      "inputs": [
        {
          "internalType": "address",
          "name": "nurseAddress",
          "type": "address"
        }
      ],
      "name": "getNurseIdFromNurseAddress",
      "outputs": [
        {
          "internalType": "uint256",
          "name": "",
          "type": "uint256"
        }
      ],
      "payable": false,
      "stateMutability": "view",
      "type": "function"
    },
    {
      "constant": true,
      "inputs": [
        {
          "internalType": "uint256",
          "name": "nurseId",
          "type": "uint256"
        }
      ],
      "name": "getFirstName",
      "outputs": [
        {
          "internalType": "string",
          "name": "",
          "type": "string"
        }
      ],
      "payable": false,
      "stateMutability": "view",
      "type": "function"
    },
    {
      "constant": false,
      "inputs": [
        {
          "internalType": "uint256",
          "name": "nurseId",
          "type": "uint256"
        },
        {
          "internalType": "string",
          "name": "_firstName",
          "type": "string"
        }
      ],
      "name": "setFirstName",
      "outputs": [],
      "payable": false,
      "stateMutability": "nonpayable",
      "type": "function"
    },
    {
      "constant": true,
      "inputs": [
        {
          "internalType": "uint256",
          "name": "nurseId",
          "type": "uint256"
        }
      ],
      "name": "getLastName",
      "outputs": [
        {
          "internalType": "string",
          "name": "",
          "type": "string"
        }
      ],
      "payable": false,
      "stateMutability": "view",
      "type": "function"
    },
    {
      "constant": false,
      "inputs": [
        {
          "internalType": "uint256",
          "name": "nurseId",
          "type": "uint256"
        },
        {
          "internalType": "string",
          "name": "_lastName",
          "type": "string"
        }
      ],
      "name": "setLastName",
      "outputs": [],
      "payable": false,
      "stateMutability": "nonpayable",
      "type": "function"
    },
    {
      "constant": true,
      "inputs": [
        {
          "internalType": "uint256",
          "name": "nurseId",
          "type": "uint256"
        }
      ],
      "name": "getEmailAddress",
      "outputs": [
        {
          "internalType": "string",
          "name": "",
          "type": "string"
        }
      ],
      "payable": false,
      "stateMutability": "view",
      "type": "function"
    },
    {
      "constant": false,
      "inputs": [
        {
          "internalType": "uint256",
          "name": "nurseId",
          "type": "uint256"
        },
        {
          "internalType": "string",
          "name": "_emailAddress",
          "type": "string"
        }
      ],
      "name": "setEmailAddress",
      "outputs": [],
      "payable": false,
      "stateMutability": "nonpayable",
      "type": "function"
    },
    {
      "constant": true,
      "inputs": [
        {
          "internalType": "uint256",
          "name": "nurseId",
          "type": "uint256"
        }
      ],
      "name": "getDob",
      "outputs": [
        {
          "internalType": "string",
          "name": "",
          "type": "string"
        }
      ],
      "payable": false,
      "stateMutability": "view",
      "type": "function"
    },
    {
      "constant": false,
      "inputs": [
        {
          "internalType": "uint256",
          "name": "nurseId",
          "type": "uint256"
        },
        {
          "internalType": "string",
          "name": "_dob",
          "type": "string"
        }
      ],
      "name": "setDob",
      "outputs": [],
      "payable": false,
      "stateMutability": "nonpayable",
      "type": "function"
    }
  ],
  "bytecode": "0x6080604052600060015534801561001557600080fd5b506040516122a83803806122a88339818101604052602081101561003857600080fd5b8101908080519060200190929190505050806000806101000a81548173ffffffffffffffffffffffffffffffffffffffff021916908373ffffffffffffffffffffffffffffffffffffffff1602179055505061220f806100996000396000f3fe608060405234801561001057600080fd5b506004361061012c5760003560e01c80639da1afdb116100ad578063e31e750c11610071578063e31e750c14610c5b578063e384346314610d02578063f1998f6414610d5e578063f6b18d4114610dcc578063fcda42c714610e245761012c565b80639da1afdb14610ab85780639ebd51f814610b08578063ab16ae2a14610bcd578063ae185dce14610c05578063be05702a14610c3d5761012c565b80633a64e0d1116100f45780633a64e0d11461043157806371f26a5c1461065657806378ff6ee31461071b5780638f11c9ac146109af5780639cc5804814610a525761012c565b8063172a56c114610131578063174029f6146101d85780632013fd1e1461027f5780632bfdd1db146103265780633a17f75a1461036c575b600080fd5b61015d6004803603602081101561014757600080fd5b8101908080359060200190929190505050610ee9565b6040518080602001828103825283818151815260200191508051906020019080838360005b8381101561019d578082015181840152602081019050610182565b50505050905090810190601f1680156101ca5780820380516001836020036101000a031916815260200191505b509250505060405180910390f35b610204600480360360208110156101ee57600080fd5b8101908080359060200190929190505050611021565b6040518080602001828103825283818151815260200191508051906020019080838360005b83811015610244578082015181840152602081019050610229565b50505050905090810190601f1680156102715780820380516001836020036101000a031916815260200191505b509250505060405180910390f35b6102ab6004803603602081101561029557600080fd5b8101908080359060200190929190505050611159565b6040518080602001828103825283818151815260200191508051906020019080838360005b838110156102eb5780820151818401526020810190506102d0565b50505050905090810190601f1680156103185780820380516001836020036101000a031916815260200191505b509250505060405180910390f35b6103526004803603602081101561033c57600080fd5b8101908080359060200190929190505050611291565b604051808215151515815260200191505060405180910390f35b61042f6004803603604081101561038257600080fd5b8101908080359060200190929190803590602001906401000000008111156103a957600080fd5b8201836020820111156103bb57600080fd5b803590602001918460018302840111640100000000831117156103dd57600080fd5b91908080601f016020809104026020016040519081016040528093929190818152602001838380828437600081840152601f19601f8201169050808301925050505050505091929192905050506112b0565b005b61045d6004803603602081101561044757600080fd5b810190808035906020019092919050505061135f565b604051808773ffffffffffffffffffffffffffffffffffffffff1673ffffffffffffffffffffffffffffffffffffffff16815260200186815260200180602001806020018060200180602001858103855289818151815260200191508051906020019080838360005b838110156104e15780820151818401526020810190506104c6565b50505050905090810190601f16801561050e5780820380516001836020036101000a031916815260200191505b50858103845288818151815260200191508051906020019080838360005b8381101561054757808201518184015260208101905061052c565b50505050905090810190601f1680156105745780820380516001836020036101000a031916815260200191505b50858103835287818151815260200191508051906020019080838360005b838110156105ad578082015181840152602081019050610592565b50505050905090810190601f1680156105da5780820380516001836020036101000a031916815260200191505b50858103825286818151815260200191508051906020019080838360005b838110156106135780820151818401526020810190506105f8565b50505050905090810190601f1680156106405780820380516001836020036101000a031916815260200191505b509a505050505050505050505060405180910390f35b6107196004803603604081101561066c57600080fd5b81019080803590602001909291908035906020019064010000000081111561069357600080fd5b8201836020820111156106a557600080fd5b803590602001918460018302840111640100000000831117156106c757600080fd5b91908080601f016020809104026020016040519081016040528093929190818152602001838380828437600081840152601f19601f82011690508083019250505050505050919291929050505061161b565b005b6109996004803603608081101561073157600080fd5b810190808035906020019064010000000081111561074e57600080fd5b82018360208201111561076057600080fd5b8035906020019184600183028401116401000000008311171561078257600080fd5b91908080601f016020809104026020016040519081016040528093929190818152602001838380828437600081840152601f19601f820116905080830192505050505050509192919290803590602001906401000000008111156107e557600080fd5b8201836020820111156107f757600080fd5b8035906020019184600183028401116401000000008311171561081957600080fd5b91908080601f016020809104026020016040519081016040528093929190818152602001838380828437600081840152601f19601f8201169050808301925050505050505091929192908035906020019064010000000081111561087c57600080fd5b82018360208201111561088e57600080fd5b803590602001918460018302840111640100000000831117156108b057600080fd5b91908080601f016020809104026020016040519081016040528093929190818152602001838380828437600081840152601f19601f8201169050808301925050505050505091929192908035906020019064010000000081111561091357600080fd5b82018360208201111561092557600080fd5b8035906020019184600183028401116401000000008311171561094757600080fd5b91908080601f016020809104026020016040519081016040528093929190818152602001838380828437600081840152601f19601f8201169050808301925050505050505091929192905050506116ca565b6040518082815260200191505060405180910390f35b6109fb600480360360408110156109c557600080fd5b81019080803573ffffffffffffffffffffffffffffffffffffffff1690602001909291908035906020019092919050505061189e565b6040518080602001828103825283818151815260200191508051906020019060200280838360005b83811015610a3e578082015181840152602081019050610a23565b505050509050019250505060405180910390f35b610a9e60048036036040811015610a6857600080fd5b8101908080359060200190929190803573ffffffffffffffffffffffffffffffffffffffff169060200190929190505050611aa8565b604051808215151515815260200191505060405180910390f35b610aee60048036036040811015610ace57600080fd5b810190808035906020019092919080359060200190929190505050611b88565b604051808215151515815260200191505060405180910390f35b610bcb60048036036040811015610b1e57600080fd5b810190808035906020019092919080359060200190640100000000811115610b4557600080fd5b820183602082011115610b5757600080fd5b80359060200191846001830284011164010000000083111715610b7957600080fd5b91908080601f016020809104026020016040519081016040528093929190818152602001838380828437600081840152601f19601f820116905080830192505050505050509192919290505050611bc7565b005b610c0360048036036040811015610be357600080fd5b810190808035906020019092919080359060200190929190505050611c76565b005b610c3b60048036036040811015610c1b57600080fd5b810190808035906020019092919080359060200190929190505050611cba565b005b610c45611cfe565b6040518082815260200191505060405180910390f35b610c8760048036036020811015610c7157600080fd5b8101908080359060200190929190505050611d04565b6040518080602001828103825283818151815260200191508051906020019080838360005b83811015610cc7578082015181840152602081019050610cac565b50505050905090810190601f168015610cf45780820380516001836020036101000a031916815260200191505b509250505060405180910390f35b610d4460048036036020811015610d1857600080fd5b81019080803573ffffffffffffffffffffffffffffffffffffffff169060200190929190505050611e3c565b604051808215151515815260200191505060405180910390f35b610d8a60048036036020811015610d7457600080fd5b8101908080359060200190929190505050611ee1565b604051808273ffffffffffffffffffffffffffffffffffffffff1673ffffffffffffffffffffffffffffffffffffffff16815260200191505060405180910390f35b610e0e60048036036020811015610de257600080fd5b81019080803573ffffffffffffffffffffffffffffffffffffffff169060200190929190505050611f21565b6040518082815260200191505060405180910390f35b610ee760048036036040811015610e3a57600080fd5b810190808035906020019092919080359060200190640100000000811115610e6157600080fd5b820183602082011115610e7357600080fd5b80359060200191846001830284011164010000000083111715610e9557600080fd5b91908080601f016020809104026020016040519081016040528093929190818152602001838380828437600081840152601f19601f820116905080830192505050505050509192919290505050611fba565b005b6060816001548110610efa57600080fd5b823273ffffffffffffffffffffffffffffffffffffffff166002600083815260200190815260200160002060000160009054906101000a900473ffffffffffffffffffffffffffffffffffffffff1673ffffffffffffffffffffffffffffffffffffffff1614610f6957600080fd5b600260008581526020019081526020016000206002018054600181600116156101000203166002900480601f0160208091040260200160405190810160405280929190818152602001828054600181600116156101000203166002900480156110135780601f10610fe857610100808354040283529160200191611013565b820191906000526020600020905b815481529060010190602001808311610ff657829003601f168201915b505050505092505050919050565b606081600154811061103257600080fd5b823273ffffffffffffffffffffffffffffffffffffffff166002600083815260200190815260200160002060000160009054906101000a900473ffffffffffffffffffffffffffffffffffffffff1673ffffffffffffffffffffffffffffffffffffffff16146110a157600080fd5b600260008581526020019081526020016000206003018054600181600116156101000203166002900480601f01602080910402602001604051908101604052809291908181526020018280546001816001161561010002031660029004801561114b5780601f106111205761010080835404028352916020019161114b565b820191906000526020600020905b81548152906001019060200180831161112e57829003601f168201915b505050505092505050919050565b606081600154811061116a57600080fd5b823273ffffffffffffffffffffffffffffffffffffffff166002600083815260200190815260200160002060000160009054906101000a900473ffffffffffffffffffffffffffffffffffffffff1673ffffffffffffffffffffffffffffffffffffffff16146111d957600080fd5b600260008581526020019081526020016000206005018054600181600116156101000203166002900480601f0160208091040260200160405190810160405280929190818152602001828054600181600116156101000203166002900480156112835780601f1061125857610100808354040283529160200191611283565b820191906000526020600020905b81548152906001019060200180831161126657829003601f168201915b505050505092505050919050565b60006001548210156112a657600190506112ab565b600090505b919050565b8160015481106112bf57600080fd5b823273ffffffffffffffffffffffffffffffffffffffff166002600083815260200190815260200160002060000160009054906101000a900473ffffffffffffffffffffffffffffffffffffffff1673ffffffffffffffffffffffffffffffffffffffff161461132e57600080fd5b82600260008681526020019081526020016000206002019080519060200190611358929190612069565b5050505050565b60026020528060005260406000206000915090508060000160009054906101000a900473ffffffffffffffffffffffffffffffffffffffff1690806001015490806002018054600181600116156101000203166002900480601f0160208091040260200160405190810160405280929190818152602001828054600181600116156101000203166002900480156114375780601f1061140c57610100808354040283529160200191611437565b820191906000526020600020905b81548152906001019060200180831161141a57829003601f168201915b505050505090806003018054600181600116156101000203166002900480601f0160208091040260200160405190810160405280929190818152602001828054600181600116156101000203166002900480156114d55780601f106114aa576101008083540402835291602001916114d5565b820191906000526020600020905b8154815290600101906020018083116114b857829003601f168201915b505050505090806004018054600181600116156101000203166002900480601f0160208091040260200160405190810160405280929190818152602001828054600181600116156101000203166002900480156115735780601f1061154857610100808354040283529160200191611573565b820191906000526020600020905b81548152906001019060200180831161155657829003601f168201915b505050505090806005018054600181600116156101000203166002900480601f0160208091040260200160405190810160405280929190818152602001828054600181600116156101000203166002900480156116115780601f106115e657610100808354040283529160200191611611565b820191906000526020600020905b8154815290600101906020018083116115f457829003601f168201915b5050505050905086565b81600154811061162a57600080fd5b823273ffffffffffffffffffffffffffffffffffffffff166002600083815260200190815260200160002060000160009054906101000a900473ffffffffffffffffffffffffffffffffffffffff1673ffffffffffffffffffffffffffffffffffffffff161461169957600080fd5b826002600086815260200190815260200160002060050190805190602001906116c3929190612069565b5050505050565b600080600160008154809291906001019190505590506116e86120e9565b8181602001818152505033816000019073ffffffffffffffffffffffffffffffffffffffff16908173ffffffffffffffffffffffffffffffffffffffff1681525050868160400181905250858160600181905250848160800181905250838160a00181905250806002600084815260200190815260200160002060008201518160000160006101000a81548173ffffffffffffffffffffffffffffffffffffffff021916908373ffffffffffffffffffffffffffffffffffffffff1602179055506020820151816001015560408201518160020190805190602001906117cf929190612135565b5060608201518160030190805190602001906117ec929190612135565b506080820151816004019080519060200190611809929190612135565b5060a0820151816005019080519060200190611826929190612135565b509050507fb55041fe4dcd54aef60f3845c4c4450c733c19a22ccdd69a3d1bc03e7073490a8160000151604051808273ffffffffffffffffffffffffffffffffffffffff1673ffffffffffffffffffffffffffffffffffffffff16815260200191505060405180910390a18192505050949350505050565b606080826040519080825280602002602001820160405280156118d05781602001602082028038833980820191505090505b509050600080905060008090505b6000809054906101000a900473ffffffffffffffffffffffffffffffffffffffff1673ffffffffffffffffffffffffffffffffffffffff16637988d0566040518163ffffffff1660e01b815260040160206040518083038186803b15801561194557600080fd5b505afa158015611959573d6000803e3d6000fd5b505050506040513d602081101561196f57600080fd5b8101908080519060200190929190505050811015611a9c576000809054906101000a900473ffffffffffffffffffffffffffffffffffffffff1673ffffffffffffffffffffffffffffffffffffffff16630224ad4482886040518363ffffffff1660e01b8152600401808381526020018273ffffffffffffffffffffffffffffffffffffffff1673ffffffffffffffffffffffffffffffffffffffff1681526020019250505060206040518083038186803b158015611a2d57600080fd5b505afa158015611a41573d6000803e3d6000fd5b505050506040513d6020811015611a5757600080fd5b810190808051906020019092919050505015611a8f5780838381518110611a7a57fe5b60200260200101818152505081806001019250505b80806001019150506118de565b50819250505092915050565b600080600090505b600154811015611b7c5760006002600083815260200190815260200160002090508373ffffffffffffffffffffffffffffffffffffffff168160000160009054906101000a900473ffffffffffffffffffffffffffffffffffffffff1673ffffffffffffffffffffffffffffffffffffffff161415611b6e576001151581600601600087815260200190815260200160002060009054906101000a900460ff1615151415611b6357600192505050611b82565b600092505050611b82565b508080600101915050611ab0565b50600090505b92915050565b600060026000848152602001908152602001600020600601600083815260200190815260200160002060009054906101000a900460ff16905092915050565b816001548110611bd657600080fd5b823273ffffffffffffffffffffffffffffffffffffffff166002600083815260200190815260200160002060000160009054906101000a900473ffffffffffffffffffffffffffffffffffffffff1673ffffffffffffffffffffffffffffffffffffffff1614611c4557600080fd5b82600260008681526020019081526020016000206004019080519060200190611c6f929190612069565b5050505050565b600060026000848152602001908152602001600020600601600083815260200190815260200160002060006101000a81548160ff0219169083151502179055505050565b600160026000848152602001908152602001600020600601600083815260200190815260200160002060006101000a81548160ff0219169083151502179055505050565b60015481565b6060816001548110611d1557600080fd5b823273ffffffffffffffffffffffffffffffffffffffff166002600083815260200190815260200160002060000160009054906101000a900473ffffffffffffffffffffffffffffffffffffffff1673ffffffffffffffffffffffffffffffffffffffff1614611d8457600080fd5b600260008581526020019081526020016000206004018054600181600116156101000203166002900480601f016020809104026020016040519081016040528092919081815260200182805460018160011615610100020316600290048015611e2e5780601f10611e0357610100808354040283529160200191611e2e565b820191906000526020600020905b815481529060010190602001808311611e1157829003601f168201915b505050505092505050919050565b600080600090505b600154811015611ed65760006002600083815260200190815260200160002090508373ffffffffffffffffffffffffffffffffffffffff168160000160009054906101000a900473ffffffffffffffffffffffffffffffffffffffff1673ffffffffffffffffffffffffffffffffffffffff161415611ec857600192505050611edc565b508080600101915050611e44565b50600090505b919050565b60006002600083815260200190815260200160002060000160009054906101000a900473ffffffffffffffffffffffffffffffffffffffff169050919050565b600080600090505b600154811015611fb3578273ffffffffffffffffffffffffffffffffffffffff166002600083815260200190815260200160002060000160009054906101000a900473ffffffffffffffffffffffffffffffffffffffff1673ffffffffffffffffffffffffffffffffffffffff161415611fa65780915050611fb5565b8080600101915050611f29565b505b919050565b816001548110611fc957600080fd5b823273ffffffffffffffffffffffffffffffffffffffff166002600083815260200190815260200160002060000160009054906101000a900473ffffffffffffffffffffffffffffffffffffffff1673ffffffffffffffffffffffffffffffffffffffff161461203857600080fd5b82600260008681526020019081526020016000206003019080519060200190612062929190612069565b5050505050565b828054600181600116156101000203166002900490600052602060002090601f016020900481019282601f106120aa57805160ff19168380011785556120d8565b828001600101855582156120d8579182015b828111156120d75782518255916020019190600101906120bc565b5b5090506120e591906121b5565b5090565b6040518060c00160405280600073ffffffffffffffffffffffffffffffffffffffff16815260200160008152602001606081526020016060815260200160608152602001606081525090565b828054600181600116156101000203166002900490600052602060002090601f016020900481019282601f1061217657805160ff19168380011785556121a4565b828001600101855582156121a4579182015b828111156121a3578251825591602001919060010190612188565b5b5090506121b191906121b5565b5090565b6121d791905b808211156121d35760008160009055506001016121bb565b5090565b9056fea265627a7a72315820a9696ba5c7a73f78631608647761112be69bdffffeb1790cfe1bd19b18fd114064736f6c63430005110032",
  "source": "pragma solidity ^0.5.0;\n\nimport \"./EHR.sol\";\n\ncontract Nurse {\n    \n    EHR ehrContract;\n\n    constructor(EHR ehrAddress) public {\n        ehrContract = ehrAddress;\n  }\n\n    struct nurse {\n        address owner;\n        uint256 nurseId;\n        string firstName;\n        string lastName;\n        string emailAddress;\n        string dob;\n \n        mapping(uint256 => bool) patients;\n        mapping(uint256 => bool) records;\n    }\n\n    uint256 public numNurses = 0;\n    mapping(uint256 => nurse) public nurses;\n\n    // function to create nurse\n    function create(string memory _firstName, string memory _lastName, string memory _emailAddress, string memory _dob) public returns(uint256) {\n\n        uint256 newNurseId = numNurses++;\n\n        nurse memory newNurse;\n        newNurse.nurseId = newNurseId;\n        newNurse.owner = msg.sender;\n        newNurse.firstName = _firstName;\n        newNurse.lastName = _lastName;\n        newNurse.emailAddress = _emailAddress;\n        newNurse.dob = _dob;\n\n        nurses[newNurseId] = newNurse;\n        emit NurseAdded(newNurse.owner);\n        return newNurseId;\n    }\n\n    /********* EVENTS *********/\n\n    event NurseAdded(address nurseAddress);\n\n    /********* MODIFIERS *********/\n\n    modifier ownerOnly(uint256 nurseId) {\n        require(nurses[nurseId].owner == tx.origin);\n        _;\n    }\n\n    modifier validNurseId(uint256 nurseId) {\n        require(nurseId < numNurses);\n        _;\n    }\n\n\n    /********* FUNCTIONS *********/\n    function getIsPatientRegistered(uint256 nurseId, uint256 patientId) public view returns (bool) {\n        return nurses[nurseId].patients[patientId];\n    }\n\n    function registerPatient(uint256 nurseId, uint256 patientId) public {\n        nurses[nurseId].patients[patientId] = true;\n    }\n\n    function unregisterPatient(uint256 nurseId, uint256 patientId) public {\n        nurses[nurseId].patients[patientId] = false;\n    }\n\n    function isValidNurseId(uint256 nurseId) public view returns (bool) {\n        if (nurseId < numNurses) {\n            return true;\n        } else {\n            return false;\n        }\n    }\n\n    function isSender(address owner) public view returns(bool) {\n        for (uint i = 0; i < numNurses; i++) {\n            nurse storage temp = nurses[i];\n            if (temp.owner == owner) {\n                return true;\n            }\n        }\n\n        return false;\n    }\n\n    function isPatientInListOfPatients(uint256 patientId, address owner) public view returns(bool) {\n        for (uint i = 0; i < numNurses; i++) {\n            nurse storage temp = nurses[i];\n            if (temp.owner == owner) {\n                if (temp.patients[patientId] == true) {\n                    return true;\n                } else {\n                    return false;\n                }\n            }\n        }\n\n        return false;\n    }\n\n    // get doctor's address from their id (used in medicalChain numberOfRecordByNurse function)\n    function getNurseAddressFromNurseId(uint256 nurseId) public view returns (address) {\n        return nurses[nurseId].owner;\n    }\n\n    // Nurse: View all records belonging to this patient\n  // Returns all the recordIds\n  function nurseViewAllRecords(address patientAddress, uint256 patientNoOfRecords) public view returns (uint256[] memory) {\n    uint256[] memory patientRecordsId = new uint256[](patientNoOfRecords);\n    uint256 indexTracker = 0;\n    for (uint256 i = 0; i < ehrContract.numEHR(); i++) {\n        // record belongs to patient calling it\n        if (ehrContract.isRecordBelongToPatient(i, patientAddress)) {\n          patientRecordsId[indexTracker] = i;\n          indexTracker++;\n        }\n      }\n\n      return patientRecordsId;\n  }\n\n  // get nurse's id from their address \n    function getNurseIdFromNurseAddress(address nurseAddress) public view returns (uint256) {\n        for (uint i = 0; i < numNurses; i++) {\n            if (nurses[i].owner == nurseAddress) {\n                return i;\n            }\n        }\n    }\n\n\n    /********* GETTERS & SETTERS *********/\n\n    function getFirstName(uint256 nurseId) public view validNurseId(nurseId) ownerOnly(nurseId) returns(string memory) {\n        return nurses[nurseId].firstName;\n    }\n\n    function setFirstName(uint256 nurseId, string memory _firstName) public validNurseId(nurseId) ownerOnly(nurseId) {\n        nurses[nurseId].firstName = _firstName;\n    }\n\n    function getLastName(uint256 nurseId) public view validNurseId(nurseId) ownerOnly(nurseId) returns(string memory) {\n        return nurses[nurseId].lastName;\n    }\n\n    function setLastName(uint256 nurseId, string memory _lastName) public validNurseId(nurseId) ownerOnly(nurseId) {\n        nurses[nurseId].lastName = _lastName;\n    }\n\n    function getEmailAddress(uint256 nurseId) public view validNurseId(nurseId) ownerOnly(nurseId) returns(string memory) {\n        return nurses[nurseId].emailAddress;\n    }\n\n    function setEmailAddress(uint256 nurseId, string memory _emailAddress) public validNurseId(nurseId) ownerOnly(nurseId) {\n        nurses[nurseId].emailAddress = _emailAddress;\n    }\n\n    function getDob(uint256 nurseId) public view validNurseId(nurseId) ownerOnly(nurseId) returns(string memory) {\n        return nurses[nurseId].dob;\n    }\n\n    function setDob(uint256 nurseId, string memory _dob) public validNurseId(nurseId) ownerOnly(nurseId) {\n        nurses[nurseId].dob = _dob;\n    }\n}",
  "sourcePath": "/Users/aaronf/IS4302/is4302-project-medical-chain/contracts/Nurse.sol",
  "compiler": {
    "name": "solc",
    "version": "0.5.17+commit.d19bba13.Emscripten.clang"
  },
  "schemaVersion": "3.4.11",
  "updatedAt": "2023-04-10T08:50:27.775Z",
  "networkType": "ethereum",
  "devdoc": {
    "methods": {}
  },
  "userdoc": {
    "methods": {
      "getFirstName(uint256)": {
        "notice": "******* GETTERS & SETTERS ********"
      },
      "getIsPatientRegistered(uint256,uint256)": {
        "notice": "******* FUNCTIONS ********"
      }
    }
  }
}