{
  "contractName": "Nurse",
  "abi": [
    {
      "inputs": [
        {
          "internalType": "contract EHR",
          "name": "ehrAddress",
          "type": "address"
        }
      ],
      "payable": false,
      "stateMutability": "nonpayable",
      "type": "constructor"
    },
    {
      "anonymous": false,
      "inputs": [
        {
          "indexed": false,
          "internalType": "address",
          "name": "nurseAddress",
          "type": "address"
        }
      ],
      "name": "NurseAdded",
      "type": "event"
    },
    {
      "constant": true,
      "inputs": [],
      "name": "numNurses",
      "outputs": [
        {
          "internalType": "uint256",
          "name": "",
          "type": "uint256"
        }
      ],
      "payable": false,
      "stateMutability": "view",
      "type": "function"
    },
    {
      "constant": true,
      "inputs": [
        {
          "internalType": "uint256",
          "name": "",
          "type": "uint256"
        }
      ],
      "name": "nurses",
      "outputs": [
        {
          "internalType": "address",
          "name": "owner",
          "type": "address"
        },
        {
          "internalType": "uint256",
          "name": "nurseId",
          "type": "uint256"
        },
        {
          "internalType": "string",
          "name": "firstName",
          "type": "string"
        },
        {
          "internalType": "string",
          "name": "lastName",
          "type": "string"
        },
        {
          "internalType": "string",
          "name": "emailAddress",
          "type": "string"
        },
        {
          "internalType": "string",
          "name": "dob",
          "type": "string"
        }
      ],
      "payable": false,
      "stateMutability": "view",
      "type": "function"
    },
    {
      "constant": false,
      "inputs": [
        {
          "internalType": "string",
          "name": "_firstName",
          "type": "string"
        },
        {
          "internalType": "string",
          "name": "_lastName",
          "type": "string"
        },
        {
          "internalType": "string",
          "name": "_emailAddress",
          "type": "string"
        },
        {
          "internalType": "string",
          "name": "_dob",
          "type": "string"
        }
      ],
      "name": "create",
      "outputs": [
        {
          "internalType": "uint256",
          "name": "",
          "type": "uint256"
        }
      ],
      "payable": false,
      "stateMutability": "nonpayable",
      "type": "function"
    },
    {
      "constant": false,
      "inputs": [
        {
          "internalType": "uint256",
          "name": "nurseId",
          "type": "uint256"
        },
        {
          "internalType": "uint256",
          "name": "patientId",
          "type": "uint256"
        }
      ],
      "name": "registerPatient",
      "outputs": [],
      "payable": false,
      "stateMutability": "nonpayable",
      "type": "function"
    },
    {
      "constant": false,
      "inputs": [
        {
          "internalType": "uint256",
          "name": "nurseId",
          "type": "uint256"
        },
        {
          "internalType": "uint256",
          "name": "patientId",
          "type": "uint256"
        }
      ],
      "name": "unregisterPatient",
      "outputs": [],
      "payable": false,
      "stateMutability": "nonpayable",
      "type": "function"
    },
    {
      "constant": true,
      "inputs": [
        {
          "internalType": "uint256",
          "name": "nurseId",
          "type": "uint256"
        }
      ],
      "name": "isValidNurseId",
      "outputs": [
        {
          "internalType": "bool",
          "name": "",
          "type": "bool"
        }
      ],
      "payable": false,
      "stateMutability": "view",
      "type": "function"
    },
    {
      "constant": true,
      "inputs": [
        {
          "internalType": "address",
          "name": "owner",
          "type": "address"
        }
      ],
      "name": "isSender",
      "outputs": [
        {
          "internalType": "bool",
          "name": "",
          "type": "bool"
        }
      ],
      "payable": false,
      "stateMutability": "view",
      "type": "function"
    },
    {
      "constant": true,
      "inputs": [
        {
          "internalType": "uint256",
          "name": "patientId",
          "type": "uint256"
        },
        {
          "internalType": "address",
          "name": "owner",
          "type": "address"
        }
      ],
      "name": "isPatientInListOfPatients",
      "outputs": [
        {
          "internalType": "bool",
          "name": "",
          "type": "bool"
        }
      ],
      "payable": false,
      "stateMutability": "view",
      "type": "function"
    },
    {
      "constant": true,
      "inputs": [
        {
          "internalType": "uint256",
          "name": "nurseId",
          "type": "uint256"
        }
      ],
      "name": "getNurseAddressFromNurseId",
      "outputs": [
        {
          "internalType": "address",
          "name": "",
          "type": "address"
        }
      ],
      "payable": false,
      "stateMutability": "view",
      "type": "function"
    },
    {
      "constant": true,
      "inputs": [
        {
          "internalType": "address",
          "name": "patientAddress",
          "type": "address"
        },
        {
          "internalType": "uint256",
          "name": "patientNoOfRecords",
          "type": "uint256"
        }
      ],
      "name": "nurseViewAllRecords",
      "outputs": [
        {
          "internalType": "uint256[]",
          "name": "",
          "type": "uint256[]"
        }
      ],
      "payable": false,
      "stateMutability": "view",
      "type": "function"
    },
    {
      "constant": true,
      "inputs": [
        {
          "internalType": "uint256",
          "name": "nurseId",
          "type": "uint256"
        }
      ],
      "name": "getFirstName",
      "outputs": [
        {
          "internalType": "string",
          "name": "",
          "type": "string"
        }
      ],
      "payable": false,
      "stateMutability": "view",
      "type": "function"
    },
    {
      "constant": false,
      "inputs": [
        {
          "internalType": "uint256",
          "name": "nurseId",
          "type": "uint256"
        },
        {
          "internalType": "string",
          "name": "_firstName",
          "type": "string"
        }
      ],
      "name": "setFirstName",
      "outputs": [],
      "payable": false,
      "stateMutability": "nonpayable",
      "type": "function"
    },
    {
      "constant": true,
      "inputs": [
        {
          "internalType": "uint256",
          "name": "nurseId",
          "type": "uint256"
        }
      ],
      "name": "getLastName",
      "outputs": [
        {
          "internalType": "string",
          "name": "",
          "type": "string"
        }
      ],
      "payable": false,
      "stateMutability": "view",
      "type": "function"
    },
    {
      "constant": false,
      "inputs": [
        {
          "internalType": "uint256",
          "name": "nurseId",
          "type": "uint256"
        },
        {
          "internalType": "string",
          "name": "_lastName",
          "type": "string"
        }
      ],
      "name": "setLastName",
      "outputs": [],
      "payable": false,
      "stateMutability": "nonpayable",
      "type": "function"
    },
    {
      "constant": true,
      "inputs": [
        {
          "internalType": "uint256",
          "name": "nurseId",
          "type": "uint256"
        }
      ],
      "name": "getEmailAddress",
      "outputs": [
        {
          "internalType": "string",
          "name": "",
          "type": "string"
        }
      ],
      "payable": false,
      "stateMutability": "view",
      "type": "function"
    },
    {
      "constant": false,
      "inputs": [
        {
          "internalType": "uint256",
          "name": "nurseId",
          "type": "uint256"
        },
        {
          "internalType": "string",
          "name": "_emailAddress",
          "type": "string"
        }
      ],
      "name": "setEmailAddress",
      "outputs": [],
      "payable": false,
      "stateMutability": "nonpayable",
      "type": "function"
    },
    {
      "constant": true,
      "inputs": [
        {
          "internalType": "uint256",
          "name": "nurseId",
          "type": "uint256"
        }
      ],
      "name": "getDob",
      "outputs": [
        {
          "internalType": "string",
          "name": "",
          "type": "string"
        }
      ],
      "payable": false,
      "stateMutability": "view",
      "type": "function"
    },
    {
      "constant": false,
      "inputs": [
        {
          "internalType": "uint256",
          "name": "nurseId",
          "type": "uint256"
        },
        {
          "internalType": "string",
          "name": "_dob",
          "type": "string"
        }
      ],
      "name": "setDob",
      "outputs": [],
      "payable": false,
      "stateMutability": "nonpayable",
      "type": "function"
    }
  ],
  "bytecode": "0x6080604052600060015534801561001557600080fd5b506040516122123803806122128339818101604052602081101561003857600080fd5b8101908080519060200190929190505050806000806101000a81548173ffffffffffffffffffffffffffffffffffffffff021916908373ffffffffffffffffffffffffffffffffffffffff16021790555050612179806100996000396000f3fe608060405234801561001057600080fd5b50600436106101165760003560e01c80639cc58048116100a2578063be05702a11610071578063be05702a14610bd7578063e31e750c14610bf5578063e384346314610c9c578063f1998f6414610cf8578063fcda42c714610d6657610116565b80639cc5804814610a3c5780639ebd51f814610aa2578063ab16ae2a14610b67578063ae185dce14610b9f57610116565b80633a17f75a116100e95780633a17f75a146103565780633a64e0d11461041b57806371f26a5c1461064057806378ff6ee3146107055780638f11c9ac1461099957610116565b8063172a56c11461011b578063174029f6146101c25780632013fd1e146102695780632bfdd1db14610310575b600080fd5b6101476004803603602081101561013157600080fd5b8101908080359060200190929190505050610e2b565b6040518080602001828103825283818151815260200191508051906020019080838360005b8381101561018757808201518184015260208101905061016c565b50505050905090810190601f1680156101b45780820380516001836020036101000a031916815260200191505b509250505060405180910390f35b6101ee600480360360208110156101d857600080fd5b8101908080359060200190929190505050610f63565b6040518080602001828103825283818151815260200191508051906020019080838360005b8381101561022e578082015181840152602081019050610213565b50505050905090810190601f16801561025b5780820380516001836020036101000a031916815260200191505b509250505060405180910390f35b6102956004803603602081101561027f57600080fd5b810190808035906020019092919050505061109b565b6040518080602001828103825283818151815260200191508051906020019080838360005b838110156102d55780820151818401526020810190506102ba565b50505050905090810190601f1680156103025780820380516001836020036101000a031916815260200191505b509250505060405180910390f35b61033c6004803603602081101561032657600080fd5b81019080803590602001909291905050506111d3565b604051808215151515815260200191505060405180910390f35b6104196004803603604081101561036c57600080fd5b81019080803590602001909291908035906020019064010000000081111561039357600080fd5b8201836020820111156103a557600080fd5b803590602001918460018302840111640100000000831117156103c757600080fd5b91908080601f016020809104026020016040519081016040528093929190818152602001838380828437600081840152601f19601f8201169050808301925050505050505091929192905050506111f2565b005b6104476004803603602081101561043157600080fd5b81019080803590602001909291905050506112a1565b604051808773ffffffffffffffffffffffffffffffffffffffff1673ffffffffffffffffffffffffffffffffffffffff16815260200186815260200180602001806020018060200180602001858103855289818151815260200191508051906020019080838360005b838110156104cb5780820151818401526020810190506104b0565b50505050905090810190601f1680156104f85780820380516001836020036101000a031916815260200191505b50858103845288818151815260200191508051906020019080838360005b83811015610531578082015181840152602081019050610516565b50505050905090810190601f16801561055e5780820380516001836020036101000a031916815260200191505b50858103835287818151815260200191508051906020019080838360005b8381101561059757808201518184015260208101905061057c565b50505050905090810190601f1680156105c45780820380516001836020036101000a031916815260200191505b50858103825286818151815260200191508051906020019080838360005b838110156105fd5780820151818401526020810190506105e2565b50505050905090810190601f16801561062a5780820380516001836020036101000a031916815260200191505b509a505050505050505050505060405180910390f35b6107036004803603604081101561065657600080fd5b81019080803590602001909291908035906020019064010000000081111561067d57600080fd5b82018360208201111561068f57600080fd5b803590602001918460018302840111640100000000831117156106b157600080fd5b91908080601f016020809104026020016040519081016040528093929190818152602001838380828437600081840152601f19601f82011690508083019250505050505050919291929050505061155d565b005b6109836004803603608081101561071b57600080fd5b810190808035906020019064010000000081111561073857600080fd5b82018360208201111561074a57600080fd5b8035906020019184600183028401116401000000008311171561076c57600080fd5b91908080601f016020809104026020016040519081016040528093929190818152602001838380828437600081840152601f19601f820116905080830192505050505050509192919290803590602001906401000000008111156107cf57600080fd5b8201836020820111156107e157600080fd5b8035906020019184600183028401116401000000008311171561080357600080fd5b91908080601f016020809104026020016040519081016040528093929190818152602001838380828437600081840152601f19601f8201169050808301925050505050505091929192908035906020019064010000000081111561086657600080fd5b82018360208201111561087857600080fd5b8035906020019184600183028401116401000000008311171561089a57600080fd5b91908080601f016020809104026020016040519081016040528093929190818152602001838380828437600081840152601f19601f820116905080830192505050505050509192919290803590602001906401000000008111156108fd57600080fd5b82018360208201111561090f57600080fd5b8035906020019184600183028401116401000000008311171561093157600080fd5b91908080601f016020809104026020016040519081016040528093929190818152602001838380828437600081840152601f19601f82011690508083019250505050505050919291929050505061160c565b6040518082815260200191505060405180910390f35b6109e5600480360360408110156109af57600080fd5b81019080803573ffffffffffffffffffffffffffffffffffffffff169060200190929190803590602001909291905050506117e0565b6040518080602001828103825283818151815260200191508051906020019060200280838360005b83811015610a28578082015181840152602081019050610a0d565b505050509050019250505060405180910390f35b610a8860048036036040811015610a5257600080fd5b8101908080359060200190929190803573ffffffffffffffffffffffffffffffffffffffff1690602001909291905050506119ea565b604051808215151515815260200191505060405180910390f35b610b6560048036036040811015610ab857600080fd5b810190808035906020019092919080359060200190640100000000811115610adf57600080fd5b820183602082011115610af157600080fd5b80359060200191846001830284011164010000000083111715610b1357600080fd5b91908080601f016020809104026020016040519081016040528093929190818152602001838380828437600081840152601f19601f820116905080830192505050505050509192919290505050611aca565b005b610b9d60048036036040811015610b7d57600080fd5b810190808035906020019092919080359060200190929190505050611b79565b005b610bd560048036036040811015610bb557600080fd5b810190808035906020019092919080359060200190929190505050611c3d565b005b610bdf611d01565b6040518082815260200191505060405180910390f35b610c2160048036036020811015610c0b57600080fd5b8101908080359060200190929190505050611d07565b6040518080602001828103825283818151815260200191508051906020019080838360005b83811015610c61578082015181840152602081019050610c46565b50505050905090810190601f168015610c8e5780820380516001836020036101000a031916815260200191505b509250505060405180910390f35b610cde60048036036020811015610cb257600080fd5b81019080803573ffffffffffffffffffffffffffffffffffffffff169060200190929190505050611e3f565b604051808215151515815260200191505060405180910390f35b610d2460048036036020811015610d0e57600080fd5b8101908080359060200190929190505050611ee4565b604051808273ffffffffffffffffffffffffffffffffffffffff1673ffffffffffffffffffffffffffffffffffffffff16815260200191505060405180910390f35b610e2960048036036040811015610d7c57600080fd5b810190808035906020019092919080359060200190640100000000811115610da357600080fd5b820183602082011115610db557600080fd5b80359060200191846001830284011164010000000083111715610dd757600080fd5b91908080601f016020809104026020016040519081016040528093929190818152602001838380828437600081840152601f19601f820116905080830192505050505050509192919290505050611f24565b005b6060816001548110610e3c57600080fd5b823273ffffffffffffffffffffffffffffffffffffffff166002600083815260200190815260200160002060000160009054906101000a900473ffffffffffffffffffffffffffffffffffffffff1673ffffffffffffffffffffffffffffffffffffffff1614610eab57600080fd5b600260008581526020019081526020016000206002018054600181600116156101000203166002900480601f016020809104026020016040519081016040528092919081815260200182805460018160011615610100020316600290048015610f555780601f10610f2a57610100808354040283529160200191610f55565b820191906000526020600020905b815481529060010190602001808311610f3857829003601f168201915b505050505092505050919050565b6060816001548110610f7457600080fd5b823273ffffffffffffffffffffffffffffffffffffffff166002600083815260200190815260200160002060000160009054906101000a900473ffffffffffffffffffffffffffffffffffffffff1673ffffffffffffffffffffffffffffffffffffffff1614610fe357600080fd5b600260008581526020019081526020016000206003018054600181600116156101000203166002900480601f01602080910402602001604051908101604052809291908181526020018280546001816001161561010002031660029004801561108d5780601f106110625761010080835404028352916020019161108d565b820191906000526020600020905b81548152906001019060200180831161107057829003601f168201915b505050505092505050919050565b60608160015481106110ac57600080fd5b823273ffffffffffffffffffffffffffffffffffffffff166002600083815260200190815260200160002060000160009054906101000a900473ffffffffffffffffffffffffffffffffffffffff1673ffffffffffffffffffffffffffffffffffffffff161461111b57600080fd5b600260008581526020019081526020016000206005018054600181600116156101000203166002900480601f0160208091040260200160405190810160405280929190818152602001828054600181600116156101000203166002900480156111c55780601f1061119a576101008083540402835291602001916111c5565b820191906000526020600020905b8154815290600101906020018083116111a857829003601f168201915b505050505092505050919050565b60006001548210156111e857600190506111ed565b600090505b919050565b81600154811061120157600080fd5b823273ffffffffffffffffffffffffffffffffffffffff166002600083815260200190815260200160002060000160009054906101000a900473ffffffffffffffffffffffffffffffffffffffff1673ffffffffffffffffffffffffffffffffffffffff161461127057600080fd5b8260026000868152602001908152602001600020600201908051906020019061129a929190611fd3565b5050505050565b60026020528060005260406000206000915090508060000160009054906101000a900473ffffffffffffffffffffffffffffffffffffffff1690806001015490806002018054600181600116156101000203166002900480601f0160208091040260200160405190810160405280929190818152602001828054600181600116156101000203166002900480156113795780601f1061134e57610100808354040283529160200191611379565b820191906000526020600020905b81548152906001019060200180831161135c57829003601f168201915b505050505090806003018054600181600116156101000203166002900480601f0160208091040260200160405190810160405280929190818152602001828054600181600116156101000203166002900480156114175780601f106113ec57610100808354040283529160200191611417565b820191906000526020600020905b8154815290600101906020018083116113fa57829003601f168201915b505050505090806004018054600181600116156101000203166002900480601f0160208091040260200160405190810160405280929190818152602001828054600181600116156101000203166002900480156114b55780601f1061148a576101008083540402835291602001916114b5565b820191906000526020600020905b81548152906001019060200180831161149857829003601f168201915b505050505090806005018054600181600116156101000203166002900480601f0160208091040260200160405190810160405280929190818152602001828054600181600116156101000203166002900480156115535780601f1061152857610100808354040283529160200191611553565b820191906000526020600020905b81548152906001019060200180831161153657829003601f168201915b5050505050905086565b81600154811061156c57600080fd5b823273ffffffffffffffffffffffffffffffffffffffff166002600083815260200190815260200160002060000160009054906101000a900473ffffffffffffffffffffffffffffffffffffffff1673ffffffffffffffffffffffffffffffffffffffff16146115db57600080fd5b82600260008681526020019081526020016000206005019080519060200190611605929190611fd3565b5050505050565b6000806001600081548092919060010191905055905061162a612053565b8181602001818152505033816000019073ffffffffffffffffffffffffffffffffffffffff16908173ffffffffffffffffffffffffffffffffffffffff1681525050868160400181905250858160600181905250848160800181905250838160a00181905250806002600084815260200190815260200160002060008201518160000160006101000a81548173ffffffffffffffffffffffffffffffffffffffff021916908373ffffffffffffffffffffffffffffffffffffffff16021790555060208201518160010155604082015181600201908051906020019061171192919061209f565b50606082015181600301908051906020019061172e92919061209f565b50608082015181600401908051906020019061174b92919061209f565b5060a082015181600501908051906020019061176892919061209f565b509050507fb55041fe4dcd54aef60f3845c4c4450c733c19a22ccdd69a3d1bc03e7073490a8160000151604051808273ffffffffffffffffffffffffffffffffffffffff1673ffffffffffffffffffffffffffffffffffffffff16815260200191505060405180910390a18192505050949350505050565b606080826040519080825280602002602001820160405280156118125781602001602082028038833980820191505090505b509050600080905060008090505b6000809054906101000a900473ffffffffffffffffffffffffffffffffffffffff1673ffffffffffffffffffffffffffffffffffffffff16637988d0566040518163ffffffff1660e01b815260040160206040518083038186803b15801561188757600080fd5b505afa15801561189b573d6000803e3d6000fd5b505050506040513d60208110156118b157600080fd5b81019080805190602001909291905050508110156119de576000809054906101000a900473ffffffffffffffffffffffffffffffffffffffff1673ffffffffffffffffffffffffffffffffffffffff16630224ad4482886040518363ffffffff1660e01b8152600401808381526020018273ffffffffffffffffffffffffffffffffffffffff1673ffffffffffffffffffffffffffffffffffffffff1681526020019250505060206040518083038186803b15801561196f57600080fd5b505afa158015611983573d6000803e3d6000fd5b505050506040513d602081101561199957600080fd5b8101908080519060200190929190505050156119d157808383815181106119bc57fe5b60200260200101818152505081806001019250505b8080600101915050611820565b50819250505092915050565b600080600090505b600154811015611abe5760006002600083815260200190815260200160002090508373ffffffffffffffffffffffffffffffffffffffff168160000160009054906101000a900473ffffffffffffffffffffffffffffffffffffffff1673ffffffffffffffffffffffffffffffffffffffff161415611ab0576001151581600601600087815260200190815260200160002060009054906101000a900460ff1615151415611aa557600192505050611ac4565b600092505050611ac4565b5080806001019150506119f2565b50600090505b92915050565b816001548110611ad957600080fd5b823273ffffffffffffffffffffffffffffffffffffffff166002600083815260200190815260200160002060000160009054906101000a900473ffffffffffffffffffffffffffffffffffffffff1673ffffffffffffffffffffffffffffffffffffffff1614611b4857600080fd5b82600260008681526020019081526020016000206004019080519060200190611b72929190611fd3565b5050505050565b816001548110611b8857600080fd5b823273ffffffffffffffffffffffffffffffffffffffff166002600083815260200190815260200160002060000160009054906101000a900473ffffffffffffffffffffffffffffffffffffffff1673ffffffffffffffffffffffffffffffffffffffff1614611bf757600080fd5b600060026000868152602001908152602001600020600601600085815260200190815260200160002060006101000a81548160ff02191690831515021790555050505050565b816001548110611c4c57600080fd5b823273ffffffffffffffffffffffffffffffffffffffff166002600083815260200190815260200160002060000160009054906101000a900473ffffffffffffffffffffffffffffffffffffffff1673ffffffffffffffffffffffffffffffffffffffff1614611cbb57600080fd5b600160026000868152602001908152602001600020600601600085815260200190815260200160002060006101000a81548160ff02191690831515021790555050505050565b60015481565b6060816001548110611d1857600080fd5b823273ffffffffffffffffffffffffffffffffffffffff166002600083815260200190815260200160002060000160009054906101000a900473ffffffffffffffffffffffffffffffffffffffff1673ffffffffffffffffffffffffffffffffffffffff1614611d8757600080fd5b600260008581526020019081526020016000206004018054600181600116156101000203166002900480601f016020809104026020016040519081016040528092919081815260200182805460018160011615610100020316600290048015611e315780601f10611e0657610100808354040283529160200191611e31565b820191906000526020600020905b815481529060010190602001808311611e1457829003601f168201915b505050505092505050919050565b600080600090505b600154811015611ed95760006002600083815260200190815260200160002090508373ffffffffffffffffffffffffffffffffffffffff168160000160009054906101000a900473ffffffffffffffffffffffffffffffffffffffff1673ffffffffffffffffffffffffffffffffffffffff161415611ecb57600192505050611edf565b508080600101915050611e47565b50600090505b919050565b60006002600083815260200190815260200160002060000160009054906101000a900473ffffffffffffffffffffffffffffffffffffffff169050919050565b816001548110611f3357600080fd5b823273ffffffffffffffffffffffffffffffffffffffff166002600083815260200190815260200160002060000160009054906101000a900473ffffffffffffffffffffffffffffffffffffffff1673ffffffffffffffffffffffffffffffffffffffff1614611fa257600080fd5b82600260008681526020019081526020016000206003019080519060200190611fcc929190611fd3565b5050505050565b828054600181600116156101000203166002900490600052602060002090601f016020900481019282601f1061201457805160ff1916838001178555612042565b82800160010185558215612042579182015b82811115612041578251825591602001919060010190612026565b5b50905061204f919061211f565b5090565b6040518060c00160405280600073ffffffffffffffffffffffffffffffffffffffff16815260200160008152602001606081526020016060815260200160608152602001606081525090565b828054600181600116156101000203166002900490600052602060002090601f016020900481019282601f106120e057805160ff191683800117855561210e565b8280016001018555821561210e579182015b8281111561210d5782518255916020019190600101906120f2565b5b50905061211b919061211f565b5090565b61214191905b8082111561213d576000816000905550600101612125565b5090565b9056fea265627a7a723158201c454d534a354ad69046175d22f50e682def302ea8ca16d49bb759270ae113aa64736f6c63430005110032",
  "source": "pragma solidity ^0.5.0;\n\nimport \"./EHR.sol\";\n\ncontract Nurse {\n    \n    EHR ehrContract;\n\n    constructor(EHR ehrAddress) public {\n        ehrContract = ehrAddress;\n  }\n\n    struct nurse {\n        address owner;\n        uint256 nurseId;\n        string firstName;\n        string lastName;\n        string emailAddress;\n        string dob;\n \n        mapping(uint256 => bool) patients;\n        mapping(uint256 => bool) records;\n    }\n\n    uint256 public numNurses = 0;\n    mapping(uint256 => nurse) public nurses;\n\n    // function to create nurse\n    function create(string memory _firstName, string memory _lastName, string memory _emailAddress, string memory _dob) public returns(uint256) {\n\n        uint256 newNurseId = numNurses++;\n\n        nurse memory newNurse;\n        newNurse.nurseId = newNurseId;\n        newNurse.owner = msg.sender;\n        newNurse.firstName = _firstName;\n        newNurse.lastName = _lastName;\n        newNurse.emailAddress = _emailAddress;\n        newNurse.dob = _dob;\n\n        nurses[newNurseId] = newNurse;\n        emit NurseAdded(newNurse.owner);\n        return newNurseId;\n    }\n\n    /********* EVENTS *********/\n\n    event NurseAdded(address nurseAddress);\n\n    /********* MODIFIERS *********/\n\n    modifier ownerOnly(uint256 nurseId) {\n        require(nurses[nurseId].owner == tx.origin);\n        _;\n    }\n\n    modifier validNurseId(uint256 nurseId) {\n        require(nurseId < numNurses);\n        _;\n    }\n\n\n    /********* FUNCTIONS *********/\n    function registerPatient(uint256 nurseId, uint256 patientId) public validNurseId(nurseId) ownerOnly(nurseId) {\n        nurses[nurseId].patients[patientId] = true;\n    }\n\n    function unregisterPatient(uint256 nurseId, uint256 patientId) public validNurseId(nurseId) ownerOnly(nurseId) {\n        nurses[nurseId].patients[patientId] = false;\n    }\n\n    function isValidNurseId(uint256 nurseId) public view returns (bool) {\n        if (nurseId < numNurses) {\n            return true;\n        } else {\n            return false;\n        }\n    }\n\n    function isSender(address owner) public view returns(bool) {\n        for (uint i = 0; i < numNurses; i++) {\n            nurse storage temp = nurses[i];\n            if (temp.owner == owner) {\n                return true;\n            }\n        }\n\n        return false;\n    }\n\n    function isPatientInListOfPatients(uint256 patientId, address owner) public view returns(bool) {\n        for (uint i = 0; i < numNurses; i++) {\n            nurse storage temp = nurses[i];\n            if (temp.owner == owner) {\n                if (temp.patients[patientId] == true) {\n                    return true;\n                } else {\n                    return false;\n                }\n            }\n        }\n\n        return false;\n    }\n\n    // get doctor's address from their id (used in medicalChain numberOfRecordByNurse function)\n    function getNurseAddressFromNurseId(uint256 nurseId) public view returns (address) {\n        return nurses[nurseId].owner;\n    }\n\n    // Nurse: View all records belonging to this patient\n  // Returns all the recordIds\n  function nurseViewAllRecords(address patientAddress, uint256 patientNoOfRecords) public view returns (uint256[] memory) {\n    uint256[] memory patientRecordsId = new uint256[](patientNoOfRecords);\n    uint256 indexTracker = 0;\n    for (uint256 i = 0; i < ehrContract.numEHR(); i++) {\n        // record belongs to patient calling it\n        if (ehrContract.isRecordBelongToPatient(i, patientAddress)) {\n          patientRecordsId[indexTracker] = i;\n          indexTracker++;\n        }\n      }\n\n      return patientRecordsId;\n  }\n\n\n    /********* GETTERS & SETTERS *********/\n\n    function getFirstName(uint256 nurseId) public view validNurseId(nurseId) ownerOnly(nurseId) returns(string memory) {\n        return nurses[nurseId].firstName;\n    }\n\n    function setFirstName(uint256 nurseId, string memory _firstName) public validNurseId(nurseId) ownerOnly(nurseId) {\n        nurses[nurseId].firstName = _firstName;\n    }\n\n    function getLastName(uint256 nurseId) public view validNurseId(nurseId) ownerOnly(nurseId) returns(string memory) {\n        return nurses[nurseId].lastName;\n    }\n\n    function setLastName(uint256 nurseId, string memory _lastName) public validNurseId(nurseId) ownerOnly(nurseId) {\n        nurses[nurseId].lastName = _lastName;\n    }\n\n    function getEmailAddress(uint256 nurseId) public view validNurseId(nurseId) ownerOnly(nurseId) returns(string memory) {\n        return nurses[nurseId].emailAddress;\n    }\n\n    function setEmailAddress(uint256 nurseId, string memory _emailAddress) public validNurseId(nurseId) ownerOnly(nurseId) {\n        nurses[nurseId].emailAddress = _emailAddress;\n    }\n\n    function getDob(uint256 nurseId) public view validNurseId(nurseId) ownerOnly(nurseId) returns(string memory) {\n        return nurses[nurseId].dob;\n    }\n\n    function setDob(uint256 nurseId, string memory _dob) public validNurseId(nurseId) ownerOnly(nurseId) {\n        nurses[nurseId].dob = _dob;\n    }\n}",
  "sourcePath": "/Users/tohdekai/is4302-project-medical-chain/contracts/Nurse.sol",
  "compiler": {
    "name": "solc",
    "version": "0.5.17+commit.d19bba13.Emscripten.clang"
  },
  "schemaVersion": "3.4.11",
  "updatedAt": "2023-04-10T04:11:32.773Z",
  "devdoc": {
    "methods": {}
  },
  "userdoc": {
    "methods": {
      "getFirstName(uint256)": {
        "notice": "******* GETTERS & SETTERS ********"
      },
      "registerPatient(uint256,uint256)": {
        "notice": "******* FUNCTIONS ********"
      }
    }
  }
}