{
  "contractName": "Patient",
  "abi": [
    {
      "inputs": [
        {
          "internalType": "contract EHR",
          "name": "ehrAddress",
          "type": "address"
        }
      ],
      "payable": false,
      "stateMutability": "nonpayable",
      "type": "constructor"
    },
    {
      "anonymous": false,
      "inputs": [],
      "name": "AddressDoesNotBelongToAnyPatient",
      "type": "event"
    },
    {
      "anonymous": false,
      "inputs": [],
      "name": "GivingDoctorAccess",
      "type": "event"
    },
    {
      "anonymous": false,
      "inputs": [
        {
          "indexed": false,
          "internalType": "address",
          "name": "patientAddress",
          "type": "address"
        }
      ],
      "name": "PatientAdded",
      "type": "event"
    },
    {
      "anonymous": false,
      "inputs": [
        {
          "indexed": false,
          "internalType": "uint256",
          "name": "a",
          "type": "uint256"
        }
      ],
      "name": "printValue",
      "type": "event"
    },
    {
      "anonymous": false,
      "inputs": [],
      "name": "testTrigger",
      "type": "event"
    },
    {
      "constant": true,
      "inputs": [],
      "name": "numPatients",
      "outputs": [
        {
          "internalType": "uint256",
          "name": "",
          "type": "uint256"
        }
      ],
      "payable": false,
      "stateMutability": "view",
      "type": "function"
    },
    {
      "constant": true,
      "inputs": [
        {
          "internalType": "uint256",
          "name": "",
          "type": "uint256"
        }
      ],
      "name": "patients",
      "outputs": [
        {
          "internalType": "uint256",
          "name": "patientId",
          "type": "uint256"
        },
        {
          "internalType": "address",
          "name": "owner",
          "type": "address"
        },
        {
          "internalType": "string",
          "name": "firstName",
          "type": "string"
        },
        {
          "internalType": "string",
          "name": "lastName",
          "type": "string"
        },
        {
          "internalType": "string",
          "name": "emailAddress",
          "type": "string"
        },
        {
          "internalType": "string",
          "name": "dob",
          "type": "string"
        },
        {
          "internalType": "bool",
          "name": "approvedResearcher",
          "type": "bool"
        },
        {
          "internalType": "uint256",
          "name": "recordsCount",
          "type": "uint256"
        },
        {
          "internalType": "uint256",
          "name": "acknowledgedRecordsCount",
          "type": "uint256"
        },
        {
          "internalType": "address",
          "name": "secondaryUser",
          "type": "address"
        }
      ],
      "payable": false,
      "stateMutability": "view",
      "type": "function"
    },
    {
      "constant": false,
      "inputs": [
        {
          "internalType": "string",
          "name": "_firstName",
          "type": "string"
        },
        {
          "internalType": "string",
          "name": "_lastName",
          "type": "string"
        },
        {
          "internalType": "string",
          "name": "_emailAddress",
          "type": "string"
        },
        {
          "internalType": "string",
          "name": "_dob",
          "type": "string"
        },
        {
          "internalType": "bool",
          "name": "_approvedResearcher",
          "type": "bool"
        },
        {
          "internalType": "address",
          "name": "_secondaryUser",
          "type": "address"
        }
      ],
      "name": "create",
      "outputs": [
        {
          "internalType": "uint256",
          "name": "",
          "type": "uint256"
        }
      ],
      "payable": false,
      "stateMutability": "nonpayable",
      "type": "function"
    },
    {
      "constant": true,
      "inputs": [
        {
          "internalType": "uint256",
          "name": "patientId",
          "type": "uint256"
        }
      ],
      "name": "isValidPatientId",
      "outputs": [
        {
          "internalType": "bool",
          "name": "",
          "type": "bool"
        }
      ],
      "payable": false,
      "stateMutability": "view",
      "type": "function"
    },
    {
      "constant": true,
      "inputs": [
        {
          "internalType": "uint256",
          "name": "patientId",
          "type": "uint256"
        },
        {
          "internalType": "address",
          "name": "doctorAddress",
          "type": "address"
        }
      ],
      "name": "isApprovedDoctor",
      "outputs": [
        {
          "internalType": "bool",
          "name": "",
          "type": "bool"
        }
      ],
      "payable": false,
      "stateMutability": "view",
      "type": "function"
    },
    {
      "constant": true,
      "inputs": [
        {
          "internalType": "uint256",
          "name": "patientId",
          "type": "uint256"
        },
        {
          "internalType": "address",
          "name": "nurseAddress",
          "type": "address"
        }
      ],
      "name": "isApprovedNurse",
      "outputs": [
        {
          "internalType": "bool",
          "name": "",
          "type": "bool"
        }
      ],
      "payable": false,
      "stateMutability": "view",
      "type": "function"
    },
    {
      "constant": true,
      "inputs": [
        {
          "internalType": "address",
          "name": "owner",
          "type": "address"
        }
      ],
      "name": "isSender",
      "outputs": [
        {
          "internalType": "bool",
          "name": "",
          "type": "bool"
        }
      ],
      "payable": false,
      "stateMutability": "view",
      "type": "function"
    },
    {
      "constant": true,
      "inputs": [],
      "name": "getResearchPatients",
      "outputs": [
        {
          "internalType": "uint256[]",
          "name": "",
          "type": "uint256[]"
        }
      ],
      "payable": false,
      "stateMutability": "view",
      "type": "function"
    },
    {
      "constant": false,
      "inputs": [
        {
          "internalType": "uint256",
          "name": "patientId",
          "type": "uint256"
        },
        {
          "internalType": "uint256",
          "name": "recordId",
          "type": "uint256"
        }
      ],
      "name": "signOffRecord",
      "outputs": [],
      "payable": false,
      "stateMutability": "nonpayable",
      "type": "function"
    },
    {
      "constant": true,
      "inputs": [
        {
          "internalType": "address",
          "name": "patientAddress",
          "type": "address"
        }
      ],
      "name": "getPatientIdFromPatientAddress",
      "outputs": [
        {
          "internalType": "uint256",
          "name": "",
          "type": "uint256"
        }
      ],
      "payable": false,
      "stateMutability": "view",
      "type": "function"
    },
    {
      "constant": true,
      "inputs": [
        {
          "internalType": "uint256",
          "name": "patientId",
          "type": "uint256"
        }
      ],
      "name": "viewAllRecords",
      "outputs": [
        {
          "internalType": "uint256[]",
          "name": "",
          "type": "uint256[]"
        }
      ],
      "payable": false,
      "stateMutability": "view",
      "type": "function"
    },
    {
      "constant": true,
      "inputs": [
        {
          "internalType": "uint256",
          "name": "patientId",
          "type": "uint256"
        }
      ],
      "name": "practitionerViewAllRecords",
      "outputs": [
        {
          "internalType": "uint256[]",
          "name": "",
          "type": "uint256[]"
        }
      ],
      "payable": false,
      "stateMutability": "view",
      "type": "function"
    },
    {
      "constant": true,
      "inputs": [
        {
          "internalType": "uint256",
          "name": "patientId",
          "type": "uint256"
        }
      ],
      "name": "viewAllAcknowledgedRecords",
      "outputs": [
        {
          "internalType": "uint256[]",
          "name": "",
          "type": "uint256[]"
        }
      ],
      "payable": false,
      "stateMutability": "view",
      "type": "function"
    },
    {
      "constant": true,
      "inputs": [
        {
          "internalType": "uint256",
          "name": "patientId",
          "type": "uint256"
        },
        {
          "internalType": "address",
          "name": "doctorAddress",
          "type": "address"
        }
      ],
      "name": "viewRecordsByDoctor",
      "outputs": [
        {
          "internalType": "uint256[]",
          "name": "",
          "type": "uint256[]"
        }
      ],
      "payable": false,
      "stateMutability": "view",
      "type": "function"
    },
    {
      "constant": true,
      "inputs": [
        {
          "internalType": "uint256",
          "name": "patientId",
          "type": "uint256"
        },
        {
          "internalType": "address",
          "name": "doctorAddress",
          "type": "address"
        }
      ],
      "name": "numberOfRecordByDoctor",
      "outputs": [
        {
          "internalType": "uint256",
          "name": "",
          "type": "uint256"
        }
      ],
      "payable": false,
      "stateMutability": "view",
      "type": "function"
    },
    {
      "constant": true,
      "inputs": [
        {
          "internalType": "uint256",
          "name": "patientId",
          "type": "uint256"
        },
        {
          "internalType": "enum EHR.RecordType",
          "name": "recordType",
          "type": "uint8"
        }
      ],
      "name": "viewRecordsByRecordType",
      "outputs": [
        {
          "internalType": "uint256[]",
          "name": "",
          "type": "uint256[]"
        }
      ],
      "payable": false,
      "stateMutability": "view",
      "type": "function"
    },
    {
      "constant": true,
      "inputs": [
        {
          "internalType": "uint256",
          "name": "patientId",
          "type": "uint256"
        },
        {
          "internalType": "enum EHR.RecordType",
          "name": "recordType",
          "type": "uint8"
        }
      ],
      "name": "numberOfRecordType",
      "outputs": [
        {
          "internalType": "uint256",
          "name": "",
          "type": "uint256"
        }
      ],
      "payable": false,
      "stateMutability": "view",
      "type": "function"
    },
    {
      "constant": true,
      "inputs": [
        {
          "internalType": "uint256",
          "name": "patientId",
          "type": "uint256"
        },
        {
          "internalType": "uint256",
          "name": "recordId",
          "type": "uint256"
        }
      ],
      "name": "isRecordAcknowledged",
      "outputs": [
        {
          "internalType": "bool",
          "name": "",
          "type": "bool"
        }
      ],
      "payable": false,
      "stateMutability": "view",
      "type": "function"
    },
    {
      "constant": false,
      "inputs": [
        {
          "internalType": "uint256",
          "name": "patientId",
          "type": "uint256"
        },
        {
          "internalType": "address",
          "name": "doctorAddress",
          "type": "address"
        }
      ],
      "name": "giveDoctorAccess",
      "outputs": [],
      "payable": false,
      "stateMutability": "nonpayable",
      "type": "function"
    },
    {
      "constant": false,
      "inputs": [
        {
          "internalType": "uint256",
          "name": "patientId",
          "type": "uint256"
        },
        {
          "internalType": "address",
          "name": "doctorAddress",
          "type": "address"
        }
      ],
      "name": "removeDoctorAccess",
      "outputs": [],
      "payable": false,
      "stateMutability": "nonpayable",
      "type": "function"
    },
    {
      "constant": false,
      "inputs": [
        {
          "internalType": "uint256",
          "name": "patientId",
          "type": "uint256"
        },
        {
          "internalType": "address",
          "name": "nurseAddress",
          "type": "address"
        }
      ],
      "name": "giveNurseAccess",
      "outputs": [],
      "payable": false,
      "stateMutability": "nonpayable",
      "type": "function"
    },
    {
      "constant": false,
      "inputs": [
        {
          "internalType": "uint256",
          "name": "patientId",
          "type": "uint256"
        },
        {
          "internalType": "address",
          "name": "nurseAddress",
          "type": "address"
        }
      ],
      "name": "removeNurseAccess",
      "outputs": [],
      "payable": false,
      "stateMutability": "nonpayable",
      "type": "function"
    },
    {
      "constant": false,
      "inputs": [
        {
          "internalType": "uint256",
          "name": "patientId",
          "type": "uint256"
        },
        {
          "internalType": "uint256",
          "name": "recordId",
          "type": "uint256"
        }
      ],
      "name": "addEhr",
      "outputs": [],
      "payable": false,
      "stateMutability": "nonpayable",
      "type": "function"
    },
    {
      "constant": false,
      "inputs": [
        {
          "internalType": "uint256",
          "name": "patientId",
          "type": "uint256"
        }
      ],
      "name": "giveResearcherAccess",
      "outputs": [],
      "payable": false,
      "stateMutability": "nonpayable",
      "type": "function"
    },
    {
      "constant": true,
      "inputs": [
        {
          "internalType": "uint256",
          "name": "patientId",
          "type": "uint256"
        }
      ],
      "name": "practitionerGetRecordsCount",
      "outputs": [
        {
          "internalType": "uint256",
          "name": "",
          "type": "uint256"
        }
      ],
      "payable": false,
      "stateMutability": "view",
      "type": "function"
    },
    {
      "constant": true,
      "inputs": [
        {
          "internalType": "uint256",
          "name": "patientId",
          "type": "uint256"
        }
      ],
      "name": "getFirstName",
      "outputs": [
        {
          "internalType": "string",
          "name": "",
          "type": "string"
        }
      ],
      "payable": false,
      "stateMutability": "view",
      "type": "function"
    },
    {
      "constant": false,
      "inputs": [
        {
          "internalType": "uint256",
          "name": "patientId",
          "type": "uint256"
        },
        {
          "internalType": "string",
          "name": "_firstName",
          "type": "string"
        }
      ],
      "name": "setFirstName",
      "outputs": [],
      "payable": false,
      "stateMutability": "nonpayable",
      "type": "function"
    },
    {
      "constant": true,
      "inputs": [
        {
          "internalType": "uint256",
          "name": "patientId",
          "type": "uint256"
        }
      ],
      "name": "getLastName",
      "outputs": [
        {
          "internalType": "string",
          "name": "",
          "type": "string"
        }
      ],
      "payable": false,
      "stateMutability": "view",
      "type": "function"
    },
    {
      "constant": false,
      "inputs": [
        {
          "internalType": "uint256",
          "name": "patientId",
          "type": "uint256"
        },
        {
          "internalType": "string",
          "name": "_lastName",
          "type": "string"
        }
      ],
      "name": "setLastName",
      "outputs": [],
      "payable": false,
      "stateMutability": "nonpayable",
      "type": "function"
    },
    {
      "constant": true,
      "inputs": [
        {
          "internalType": "uint256",
          "name": "patientId",
          "type": "uint256"
        }
      ],
      "name": "getEmailAddress",
      "outputs": [
        {
          "internalType": "string",
          "name": "",
          "type": "string"
        }
      ],
      "payable": false,
      "stateMutability": "view",
      "type": "function"
    },
    {
      "constant": false,
      "inputs": [
        {
          "internalType": "uint256",
          "name": "patientId",
          "type": "uint256"
        },
        {
          "internalType": "string",
          "name": "_emailAddress",
          "type": "string"
        }
      ],
      "name": "setEmailAddress",
      "outputs": [],
      "payable": false,
      "stateMutability": "nonpayable",
      "type": "function"
    },
    {
      "constant": true,
      "inputs": [
        {
          "internalType": "uint256",
          "name": "patientId",
          "type": "uint256"
        }
      ],
      "name": "getDob",
      "outputs": [
        {
          "internalType": "string",
          "name": "",
          "type": "string"
        }
      ],
      "payable": false,
      "stateMutability": "view",
      "type": "function"
    },
    {
      "constant": false,
      "inputs": [
        {
          "internalType": "uint256",
          "name": "patientId",
          "type": "uint256"
        },
        {
          "internalType": "string",
          "name": "_dob",
          "type": "string"
        }
      ],
      "name": "setDob",
      "outputs": [],
      "payable": false,
      "stateMutability": "nonpayable",
      "type": "function"
    },
    {
      "constant": true,
      "inputs": [
        {
          "internalType": "uint256",
          "name": "patientId",
          "type": "uint256"
        },
        {
          "internalType": "address",
          "name": "doctorAddress",
          "type": "address"
        }
      ],
      "name": "isDoctorApproved",
      "outputs": [
        {
          "internalType": "bool",
          "name": "",
          "type": "bool"
        }
      ],
      "payable": false,
      "stateMutability": "view",
      "type": "function"
    },
    {
      "constant": true,
      "inputs": [
        {
          "internalType": "uint256",
          "name": "patientId",
          "type": "uint256"
        },
        {
          "internalType": "address",
          "name": "nurseAddress",
          "type": "address"
        }
      ],
      "name": "isNurseApproved",
      "outputs": [
        {
          "internalType": "bool",
          "name": "",
          "type": "bool"
        }
      ],
      "payable": false,
      "stateMutability": "view",
      "type": "function"
    },
    {
      "constant": true,
      "inputs": [
        {
          "internalType": "uint256",
          "name": "patientId",
          "type": "uint256"
        }
      ],
      "name": "getApprovedReseacher",
      "outputs": [
        {
          "internalType": "bool",
          "name": "",
          "type": "bool"
        }
      ],
      "payable": false,
      "stateMutability": "view",
      "type": "function"
    },
    {
      "constant": false,
      "inputs": [
        {
          "internalType": "uint256",
          "name": "patientId",
          "type": "uint256"
        },
        {
          "internalType": "bool",
          "name": "_approvedResearcher",
          "type": "bool"
        }
      ],
      "name": "setApprovedResearcher",
      "outputs": [],
      "payable": false,
      "stateMutability": "nonpayable",
      "type": "function"
    },
    {
      "constant": true,
      "inputs": [
        {
          "internalType": "uint256",
          "name": "patientId",
          "type": "uint256"
        }
      ],
      "name": "getRecordsCount",
      "outputs": [
        {
          "internalType": "uint256",
          "name": "",
          "type": "uint256"
        }
      ],
      "payable": false,
      "stateMutability": "view",
      "type": "function"
    },
    {
      "constant": false,
      "inputs": [
        {
          "internalType": "uint256",
          "name": "patientId",
          "type": "uint256"
        },
        {
          "internalType": "uint256",
          "name": "_recordsCount",
          "type": "uint256"
        }
      ],
      "name": "setRecordsCount",
      "outputs": [],
      "payable": false,
      "stateMutability": "nonpayable",
      "type": "function"
    },
    {
      "constant": true,
      "inputs": [
        {
          "internalType": "uint256",
          "name": "patientId",
          "type": "uint256"
        }
      ],
      "name": "getAcknowledgedRecordsCount",
      "outputs": [
        {
          "internalType": "uint256",
          "name": "",
          "type": "uint256"
        }
      ],
      "payable": false,
      "stateMutability": "view",
      "type": "function"
    },
    {
      "constant": false,
      "inputs": [
        {
          "internalType": "uint256",
          "name": "patientId",
          "type": "uint256"
        },
        {
          "internalType": "uint256",
          "name": "_acknowledgedRecordsCount",
          "type": "uint256"
        }
      ],
      "name": "setAcknowledgedRecordsCount",
      "outputs": [],
      "payable": false,
      "stateMutability": "nonpayable",
      "type": "function"
    },
    {
      "constant": true,
      "inputs": [
        {
          "internalType": "uint256",
          "name": "patientId",
          "type": "uint256"
        }
      ],
      "name": "getSecondaryUser",
      "outputs": [
        {
          "internalType": "address",
          "name": "",
          "type": "address"
        }
      ],
      "payable": false,
      "stateMutability": "view",
      "type": "function"
    },
    {
      "constant": false,
      "inputs": [
        {
          "internalType": "uint256",
          "name": "patientId",
          "type": "uint256"
        },
        {
          "internalType": "address",
          "name": "_secondaryUser",
          "type": "address"
        }
      ],
      "name": "setSecondaryUser",
      "outputs": [],
      "payable": false,
      "stateMutability": "nonpayable",
      "type": "function"
    },
    {
      "constant": true,
      "inputs": [
        {
          "internalType": "uint256",
          "name": "patientId",
          "type": "uint256"
        }
      ],
      "name": "getData",
      "outputs": [
        {
          "internalType": "uint256",
          "name": "id",
          "type": "uint256"
        },
        {
          "internalType": "string",
          "name": "firstName",
          "type": "string"
        },
        {
          "internalType": "string",
          "name": "lastName",
          "type": "string"
        },
        {
          "internalType": "string",
          "name": "emailAddress",
          "type": "string"
        },
        {
          "internalType": "string",
          "name": "dob",
          "type": "string"
        }
      ],
      "payable": false,
      "stateMutability": "view",
      "type": "function"
    },
    {
      "constant": true,
      "inputs": [
        {
          "internalType": "uint256",
          "name": "patientId",
          "type": "uint256"
        }
      ],
      "name": "getPatientAddress",
      "outputs": [
        {
          "internalType": "address",
          "name": "",
          "type": "address"
        }
      ],
      "payable": false,
      "stateMutability": "view",
      "type": "function"
    }
  ],
  "bytecode": "0x608060405260006001553480156200001657600080fd5b50604051620059ab380380620059ab833981810160405260208110156200003c57600080fd5b8101908080519060200190929190505050806000806101000a81548173ffffffffffffffffffffffffffffffffffffffff021916908373ffffffffffffffffffffffffffffffffffffffff1602179055505061590d806200009e6000396000f3fe608060405234801561001057600080fd5b506004361061027f5760003560e01c80637a2c3d7e1161015c578063a605e44d116100ce578063d87ce24211610087578063d87ce2421461186b578063e31e750c146118b9578063e384346314611960578063eb8a79b0146119bc578063fb3bf348146119f6578063fcda42c714611a145761027f565b8063a605e44d1461163b578063b01df3511461167d578063babef8f6146116e3578063bb4182c314611749578063c412e7ba14611797578063cd4db77d146117fd5761027f565b8063942377191161012057806394237719146113ad5780639ebd51f8146114305780639f95d9c6146114f5578063a3005b491461155b578063a3f477f4146115b3578063a533e1f8146115eb5761027f565b80637a2c3d7e14611037578063834fa06e146110865780638a9ab60e146110cc5780638fa3b5c71461110457806393119a831461113c5761027f565b80633a17f75a116101f55780635470e804116101b95780635470e80414610b8857806356e9af3a14610bd657806369019cc814610e965780636f8288df14610ef85780636faaecaa14610f3057806371f26a5c14610f725761027f565b80633a17f75a1461094a578063416939d314610a0f578063452c300914610a515780634976b3b514610a9f5780634b65437814610b425761027f565b8063174029f611610247578063174029f6146106385780631bcec2e8146106df5780632013fd1e146107625780632363b0ff14610809578063303c96721461088c57806336b7a09c146108ba5761027f565b80630178fe3f14610284578063067be5dc14610476578063097ee8cd146104c457806311fc621d14610532578063172a56c114610591575b600080fd5b6102b06004803603602081101561029a57600080fd5b8101908080359060200190929190505050611ad9565b6040518086815260200180602001806020018060200180602001858103855289818151815260200191508051906020019080838360005b838110156103025780820151818401526020810190506102e7565b50505050905090810190601f16801561032f5780820380516001836020036101000a031916815260200191505b50858103845288818151815260200191508051906020019080838360005b8381101561036857808201518184015260208101905061034d565b50505050905090810190601f1680156103955780820380516001836020036101000a031916815260200191505b50858103835287818151815260200191508051906020019080838360005b838110156103ce5780820151818401526020810190506103b3565b50505050905090810190601f1680156103fb5780820380516001836020036101000a031916815260200191505b50858103825286818151815260200191508051906020019080838360005b83811015610434578082015181840152602081019050610419565b50505050905090810190601f1680156104615780820380516001836020036101000a031916815260200191505b50995050505050505050505060405180910390f35b6104c26004803603604081101561048c57600080fd5b8101908080359060200190929190803573ffffffffffffffffffffffffffffffffffffffff169060200190929190505050611dd3565b005b6104f0600480360360208110156104da57600080fd5b8101908080359060200190929190505050611f78565b604051808273ffffffffffffffffffffffffffffffffffffffff1673ffffffffffffffffffffffffffffffffffffffff16815260200191505060405180910390f35b61053a612031565b6040518080602001828103825283818151815260200191508051906020019060200280838360005b8381101561057d578082015181840152602081019050610562565b505050509050019250505060405180910390f35b6105bd600480360360208110156105a757600080fd5b8101908080359060200190929190505050612133565b6040518080602001828103825283818151815260200191508051906020019080838360005b838110156105fd5780820151818401526020810190506105e2565b50505050905090810190601f16801561062a5780820380516001836020036101000a031916815260200191505b509250505060405180910390f35b6106646004803603602081101561064e57600080fd5b8101908080359060200190929190505050612320565b6040518080602001828103825283818151815260200191508051906020019080838360005b838110156106a4578082015181840152602081019050610689565b50505050905090810190601f1680156106d15780820380516001836020036101000a031916815260200191505b509250505060405180910390f35b61070b600480360360208110156106f557600080fd5b810190808035906020019092919050505061250d565b6040518080602001828103825283818151815260200191508051906020019060200280838360005b8381101561074e578082015181840152602081019050610733565b505050509050019250505060405180910390f35b61078e6004803603602081101561077857600080fd5b8101908080359060200190929190505050612730565b6040518080602001828103825283818151815260200191508051906020019080838360005b838110156107ce5780820151818401526020810190506107b3565b50505050905090810190601f1680156107fb5780820380516001836020036101000a031916815260200191505b509250505060405180910390f35b6108356004803603602081101561081f57600080fd5b810190808035906020019092919050505061291d565b6040518080602001828103825283818151815260200191508051906020019060200280838360005b8381101561087857808201518184015260208101905061085d565b505050509050019250505060405180910390f35b6108b8600480360360208110156108a257600080fd5b8101908080359060200190929190505050612b3c565b005b6108f3600480360360408110156108d057600080fd5b8101908080359060200190929190803560ff169060200190929190505050612ca3565b6040518080602001828103825283818151815260200191508051906020019060200280838360005b8381101561093657808201518184015260208101905061091b565b505050509050019250505060405180910390f35b610a0d6004803603604081101561096057600080fd5b81019080803590602001909291908035906020019064010000000081111561098757600080fd5b82018360208201111561099957600080fd5b803590602001918460018302840111640100000000831117156109bb57600080fd5b91908080601f016020809104026020016040519081016040528093929190818152602001838380828437600081840152601f19601f820116905080830192505050505050509192919290505050612e39565b005b610a3b60048036036020811015610a2557600080fd5b8101908080359060200190929190505050612f9d565b6040518082815260200191505060405180910390f35b610a9d60048036036040811015610a6757600080fd5b8101908080359060200190929190803573ffffffffffffffffffffffffffffffffffffffff1690602001909291905050506130f2565b005b610aeb60048036036040811015610ab557600080fd5b8101908080359060200190929190803573ffffffffffffffffffffffffffffffffffffffff169060200190929190505050613280565b6040518080602001828103825283818151815260200191508051906020019060200280838360005b83811015610b2e578082015181840152602081019050610b13565b505050509050019250505060405180910390f35b610b6e60048036036020811015610b5857600080fd5b8101908080359060200190929190505050613434565b604051808215151515815260200191505060405180910390f35b610bd460048036036040811015610b9e57600080fd5b8101908080359060200190929190803573ffffffffffffffffffffffffffffffffffffffff169060200190929190505050613453565b005b610e80600480360360c0811015610bec57600080fd5b8101908080359060200190640100000000811115610c0957600080fd5b820183602082011115610c1b57600080fd5b80359060200191846001830284011164010000000083111715610c3d57600080fd5b91908080601f016020809104026020016040519081016040528093929190818152602001838380828437600081840152601f19601f82011690508083019250505050505050919291929080359060200190640100000000811115610ca057600080fd5b820183602082011115610cb257600080fd5b80359060200191846001830284011164010000000083111715610cd457600080fd5b91908080601f016020809104026020016040519081016040528093929190818152602001838380828437600081840152601f19601f82011690508083019250505050505050919291929080359060200190640100000000811115610d3757600080fd5b820183602082011115610d4957600080fd5b80359060200191846001830284011164010000000083111715610d6b57600080fd5b91908080601f016020809104026020016040519081016040528093929190818152602001838380828437600081840152601f19601f82011690508083019250505050505050919291929080359060200190640100000000811115610dce57600080fd5b820183602082011115610de057600080fd5b80359060200191846001830284011164010000000083111715610e0257600080fd5b91908080601f016020809104026020016040519081016040528093929190818152602001838380828437600081840152601f19601f820116905080830192505050505050509192919290803515159060200190929190803573ffffffffffffffffffffffffffffffffffffffff1690602001909291905050506135f8565b6040518082815260200191505060405180910390f35b610ee260048036036040811015610eac57600080fd5b8101908080359060200190929190803573ffffffffffffffffffffffffffffffffffffffff16906020019092919050505061380b565b6040518082815260200191505060405180910390f35b610f2e60048036036040811015610f0e57600080fd5b810190808035906020019092919080359060200190929190505050613956565b005b610f5c60048036036020811015610f4657600080fd5b8101908080359060200190929190505050613aaa565b6040518082815260200191505060405180910390f35b61103560048036036040811015610f8857600080fd5b810190808035906020019092919080359060200190640100000000811115610faf57600080fd5b820183602082011115610fc157600080fd5b80359060200191846001830284011164010000000083111715610fe357600080fd5b91908080601f016020809104026020016040519081016040528093929190818152602001838380828437600081840152601f19601f820116905080830192505050505050509192919290505050613bff565b005b6110706004803603604081101561104d57600080fd5b8101908080359060200190929190803560ff169060200190929190505050613d63565b6040518082815260200191505060405180910390f35b6110b26004803603602081101561109c57600080fd5b8101908080359060200190929190505050613e96565b604051808215151515815260200191505060405180910390f35b611102600480360360408110156110e257600080fd5b810190808035906020019092919080359060200190929190505050613f3c565b005b61113a6004803603604081101561111a57600080fd5b810190808035906020019092919080359060200190929190505050614090565b005b6111686004803603602081101561115257600080fd5b8101908080359060200190929190505050614173565b604051808b81526020018a73ffffffffffffffffffffffffffffffffffffffff1673ffffffffffffffffffffffffffffffffffffffff16815260200180602001806020018060200180602001891515151581526020018881526020018781526020018673ffffffffffffffffffffffffffffffffffffffff1673ffffffffffffffffffffffffffffffffffffffff16815260200185810385528d818151815260200191508051906020019080838360005b83811015611234578082015181840152602081019050611219565b50505050905090810190601f1680156112615780820380516001836020036101000a031916815260200191505b5085810384528c818151815260200191508051906020019080838360005b8381101561129a57808201518184015260208101905061127f565b50505050905090810190601f1680156112c75780820380516001836020036101000a031916815260200191505b5085810383528b818151815260200191508051906020019080838360005b838110156113005780820151818401526020810190506112e5565b50505050905090810190601f16801561132d5780820380516001836020036101000a031916815260200191505b5085810382528a818151815260200191508051906020019080838360005b8381101561136657808201518184015260208101905061134b565b50505050905090810190601f1680156113935780820380516001836020036101000a031916815260200191505b509e50505050505050505050505050505060405180910390f35b6113d9600480360360208110156113c357600080fd5b8101908080359060200190929190505050614474565b6040518080602001828103825283818151815260200191508051906020019060200280838360005b8381101561141c578082015181840152602081019050611401565b505050509050019250505060405180910390f35b6114f36004803603604081101561144657600080fd5b81019080803590602001909291908035906020019064010000000081111561146d57600080fd5b82018360208201111561147f57600080fd5b803590602001918460018302840111640100000000831117156114a157600080fd5b91908080601f016020809104026020016040519081016040528093929190818152602001838380828437600081840152601f19601f820116905080830192505050505050509192919290505050614693565b005b6115416004803603604081101561150b57600080fd5b8101908080359060200190929190803573ffffffffffffffffffffffffffffffffffffffff1690602001909291905050506147f7565b604051808215151515815260200191505060405180910390f35b61159d6004803603602081101561157157600080fd5b81019080803573ffffffffffffffffffffffffffffffffffffffff169060200190929190505050614862565b6040518082815260200191505060405180910390f35b6115e9600480360360408110156115c957600080fd5b8101908080359060200190929190803590602001909291905050506148fb565b005b6116216004803603604081101561160157600080fd5b8101908080359060200190929190803590602001909291905050506149f1565b604051808215151515815260200191505060405180910390f35b6116676004803603602081101561165157600080fd5b8101908080359060200190929190505050614b65565b6040518082815260200191505060405180910390f35b6116c96004803603604081101561169357600080fd5b8101908080359060200190929190803573ffffffffffffffffffffffffffffffffffffffff169060200190929190505050614c80565b604051808215151515815260200191505060405180910390f35b61172f600480360360408110156116f957600080fd5b8101908080359060200190929190803573ffffffffffffffffffffffffffffffffffffffff169060200190929190505050614ceb565b604051808215151515815260200191505060405180910390f35b6117956004803603604081101561175f57600080fd5b8101908080359060200190929190803573ffffffffffffffffffffffffffffffffffffffff169060200190929190505050614d56565b005b6117e3600480360360408110156117ad57600080fd5b8101908080359060200190929190803573ffffffffffffffffffffffffffffffffffffffff169060200190929190505050614efb565b604051808215151515815260200191505060405180910390f35b6118296004803603602081101561181357600080fd5b8101908080359060200190929190505050614f66565b604051808273ffffffffffffffffffffffffffffffffffffffff1673ffffffffffffffffffffffffffffffffffffffff16815260200191505060405180910390f35b6118b76004803603604081101561188157600080fd5b8101908080359060200190929190803573ffffffffffffffffffffffffffffffffffffffff1690602001909291905050506150db565b005b6118e5600480360360208110156118cf57600080fd5b8101908080359060200190929190505050615280565b6040518080602001828103825283818151815260200191508051906020019080838360005b8381101561192557808201518184015260208101905061190a565b50505050905090810190601f1680156119525780820380516001836020036101000a031916815260200191505b509250505060405180910390f35b6119a26004803603602081101561197657600080fd5b81019080803573ffffffffffffffffffffffffffffffffffffffff16906020019092919050505061546d565b604051808215151515815260200191505060405180910390f35b6119f4600480360360408110156119d257600080fd5b810190808035906020019092919080351515906020019092919050505061550b565b005b6119fe615672565b6040518082815260200191505060405180910390f35b611ad760048036036040811015611a2a57600080fd5b810190808035906020019092919080359060200190640100000000811115611a5157600080fd5b820183602082011115611a6357600080fd5b80359060200191846001830284011164010000000083111715611a8557600080fd5b91908080601f016020809104026020016040519081016040528093929190818152602001838380828437600081840152601f19601f820116905080830192505050505050509192919290505050615678565b005b600060608060608060026000878152602001908152602001600020600001546002600088815260200190815260200160002060020160026000898152602001908152602001600020600301600260008a8152602001908152602001600020600401600260008b8152602001908152602001600020600501838054600181600116156101000203166002900480601f016020809104026020016040519081016040528092919081815260200182805460018160011615610100020316600290048015611be55780601f10611bba57610100808354040283529160200191611be5565b820191906000526020600020905b815481529060010190602001808311611bc857829003601f168201915b50505050509350828054600181600116156101000203166002900480601f016020809104026020016040519081016040528092919081815260200182805460018160011615610100020316600290048015611c815780601f10611c5657610100808354040283529160200191611c81565b820191906000526020600020905b815481529060010190602001808311611c6457829003601f168201915b50505050509250818054600181600116156101000203166002900480601f016020809104026020016040519081016040528092919081815260200182805460018160011615610100020316600290048015611d1d5780601f10611cf257610100808354040283529160200191611d1d565b820191906000526020600020905b815481529060010190602001808311611d0057829003601f168201915b50505050509150808054600181600116156101000203166002900480601f016020809104026020016040519081016040528092919081815260200182805460018160011615610100020316600290048015611db95780601f10611d8e57610100808354040283529160200191611db9565b820191906000526020600020905b815481529060010190602001808311611d9c57829003601f168201915b505050505090509450945094509450945091939590929450565b816001548110611e4b576040517f08c379a00000000000000000000000000000000000000000000000000000000081526004018080602001828103825260138152602001807f496e76616c69642070617469656e74204964210000000000000000000000000081525060200191505060405180910390fd5b823273ffffffffffffffffffffffffffffffffffffffff166002600083815260200190815260200160002060010160009054906101000a900473ffffffffffffffffffffffffffffffffffffffff1673ffffffffffffffffffffffffffffffffffffffff1614611f06576040517f08c379a00000000000000000000000000000000000000000000000000000000081526004018080602001828103825260298152602001806158826029913960400191505060405180910390fd5b60016002600086815260200190815260200160002060070160008573ffffffffffffffffffffffffffffffffffffffff1673ffffffffffffffffffffffffffffffffffffffff16815260200190815260200160002060006101000a81548160ff02191690831515021790555050505050565b6000816001548110611ff2576040517f08c379a00000000000000000000000000000000000000000000000000000000081526004018080602001828103825260138152602001807f496e76616c69642070617469656e74204964210000000000000000000000000081525060200191505060405180910390fd5b6002600084815260200190815260200160002060010160009054906101000a900473ffffffffffffffffffffffffffffffffffffffff16915050919050565b6060600080905060008090505b600154811015612087576002600082815260200190815260200160002060060160009054906101000a900460ff161561207a5781806001019250505b808060010191505061203e565b506060816040519080825280602002602001820160405280156120b95781602001602082028038833980820191505090505b509050600080905060008090505b600154811015612129576002600082815260200190815260200160002060060160009054906101000a900460ff161561211c578083838151811061210757fe5b60200260200101818152505081806001019250505b80806001019150506120c7565b5081935050505090565b60608160015481106121ad576040517f08c379a00000000000000000000000000000000000000000000000000000000081526004018080602001828103825260138152602001807f496e76616c69642070617469656e74204964210000000000000000000000000081525060200191505060405180910390fd5b823273ffffffffffffffffffffffffffffffffffffffff166002600083815260200190815260200160002060010160009054906101000a900473ffffffffffffffffffffffffffffffffffffffff1673ffffffffffffffffffffffffffffffffffffffff1614612268576040517f08c379a00000000000000000000000000000000000000000000000000000000081526004018080602001828103825260298152602001806158826029913960400191505060405180910390fd5b600260008581526020019081526020016000206002018054600181600116156101000203166002900480601f0160208091040260200160405190810160405280929190818152602001828054600181600116156101000203166002900480156123125780601f106122e757610100808354040283529160200191612312565b820191906000526020600020905b8154815290600101906020018083116122f557829003601f168201915b505050505092505050919050565b606081600154811061239a576040517f08c379a00000000000000000000000000000000000000000000000000000000081526004018080602001828103825260138152602001807f496e76616c69642070617469656e74204964210000000000000000000000000081525060200191505060405180910390fd5b823273ffffffffffffffffffffffffffffffffffffffff166002600083815260200190815260200160002060010160009054906101000a900473ffffffffffffffffffffffffffffffffffffffff1673ffffffffffffffffffffffffffffffffffffffff1614612455576040517f08c379a00000000000000000000000000000000000000000000000000000000081526004018080602001828103825260298152602001806158826029913960400191505060405180910390fd5b600260008581526020019081526020016000206003018054600181600116156101000203166002900480601f0160208091040260200160405190810160405280929190818152602001828054600181600116156101000203166002900480156124ff5780601f106124d4576101008083540402835291602001916124ff565b820191906000526020600020905b8154815290600101906020018083116124e257829003601f168201915b505050505092505050919050565b60608061251983613aaa565b6040519080825280602002602001820160405280156125475781602001602082028038833980820191505090505b509050600080905060008090505b6000809054906101000a900473ffffffffffffffffffffffffffffffffffffffff1673ffffffffffffffffffffffffffffffffffffffff16637988d0566040518163ffffffff1660e01b815260040160206040518083038186803b1580156125bc57600080fd5b505afa1580156125d0573d6000803e3d6000fd5b505050506040513d60208110156125e657600080fd5b8101908080519060200190929190505050811015612725576000809054906101000a900473ffffffffffffffffffffffffffffffffffffffff1673ffffffffffffffffffffffffffffffffffffffff16630224ad4482336040518363ffffffff1660e01b8152600401808381526020018273ffffffffffffffffffffffffffffffffffffffff1673ffffffffffffffffffffffffffffffffffffffff1681526020019250505060206040518083038186803b1580156126a457600080fd5b505afa1580156126b8573d6000803e3d6000fd5b505050506040513d60208110156126ce57600080fd5b810190808051906020019092919050505080156126f157506126f085826149f1565b5b15612718578083838151811061270357fe5b60200260200101818152505081806001019250505b8080600101915050612555565b508192505050919050565b60608160015481106127aa576040517f08c379a00000000000000000000000000000000000000000000000000000000081526004018080602001828103825260138152602001807f496e76616c69642070617469656e74204964210000000000000000000000000081525060200191505060405180910390fd5b823273ffffffffffffffffffffffffffffffffffffffff166002600083815260200190815260200160002060010160009054906101000a900473ffffffffffffffffffffffffffffffffffffffff1673ffffffffffffffffffffffffffffffffffffffff1614612865576040517f08c379a00000000000000000000000000000000000000000000000000000000081526004018080602001828103825260298152602001806158826029913960400191505060405180910390fd5b600260008581526020019081526020016000206005018054600181600116156101000203166002900480601f01602080910402602001604051908101604052809291908181526020018280546001816001161561010002031660029004801561290f5780601f106128e45761010080835404028352916020019161290f565b820191906000526020600020905b8154815290600101906020018083116128f257829003601f168201915b505050505092505050919050565b60608061292983614b65565b6040519080825280602002602001820160405280156129575781602001602082028038833980820191505090505b5090506000809050600061296a85611f78565b905060008090505b6000809054906101000a900473ffffffffffffffffffffffffffffffffffffffff1673ffffffffffffffffffffffffffffffffffffffff16637988d0566040518163ffffffff1660e01b815260040160206040518083038186803b1580156129d957600080fd5b505afa1580156129ed573d6000803e3d6000fd5b505050506040513d6020811015612a0357600080fd5b8101908080519060200190929190505050811015612b30576000809054906101000a900473ffffffffffffffffffffffffffffffffffffffff1673ffffffffffffffffffffffffffffffffffffffff16630224ad4482846040518363ffffffff1660e01b8152600401808381526020018273ffffffffffffffffffffffffffffffffffffffff1673ffffffffffffffffffffffffffffffffffffffff1681526020019250505060206040518083038186803b158015612ac157600080fd5b505afa158015612ad5573d6000803e3d6000fd5b505050506040513d6020811015612aeb57600080fd5b810190808051906020019092919050505015612b235780848481518110612b0e57fe5b60200260200101818152505082806001019350505b8080600101915050612972565b50829350505050919050565b806001548110612bb4576040517f08c379a00000000000000000000000000000000000000000000000000000000081526004018080602001828103825260138152602001807f496e76616c69642070617469656e74204964210000000000000000000000000081525060200191505060405180910390fd5b813273ffffffffffffffffffffffffffffffffffffffff166002600083815260200190815260200160002060010160009054906101000a900473ffffffffffffffffffffffffffffffffffffffff1673ffffffffffffffffffffffffffffffffffffffff1614612c6f576040517f08c379a00000000000000000000000000000000000000000000000000000000081526004018080602001828103825260298152602001806158826029913960400191505060405180910390fd5b60016002600085815260200190815260200160002060060160006101000a81548160ff021916908315150217905550505050565b606080612caf84614474565b90506000612cbc85612f9d565b90506060612cca8686613d63565b604051908082528060200260200182016040528015612cf85781602001602082028038833980820191505090505b509050600080905060008090505b83811015612e2b576000809054906101000a900473ffffffffffffffffffffffffffffffffffffffff1673ffffffffffffffffffffffffffffffffffffffff1663fc60b121868381518110612d5757fe5b6020026020010151896040518363ffffffff1660e01b815260040180838152602001826007811115612d8557fe5b60ff1681526020019250505060206040518083038186803b158015612da957600080fd5b505afa158015612dbd573d6000803e3d6000fd5b505050506040513d6020811015612dd357600080fd5b810190808051906020019092919050505015612e1e57848181518110612df557fe5b6020026020010151838381518110612e0957fe5b60200260200101818152505081806001019250505b8080600101915050612d06565b508194505050505092915050565b816001548110612eb1576040517f08c379a00000000000000000000000000000000000000000000000000000000081526004018080602001828103825260138152602001807f496e76616c69642070617469656e74204964210000000000000000000000000081525060200191505060405180910390fd5b823273ffffffffffffffffffffffffffffffffffffffff166002600083815260200190815260200160002060010160009054906101000a900473ffffffffffffffffffffffffffffffffffffffff1673ffffffffffffffffffffffffffffffffffffffff1614612f6c576040517f08c379a00000000000000000000000000000000000000000000000000000000081526004018080602001828103825260298152602001806158826029913960400191505060405180910390fd5b82600260008681526020019081526020016000206002019080519060200190612f969291906157dc565b5050505050565b6000816001548110613017576040517f08c379a00000000000000000000000000000000000000000000000000000000081526004018080602001828103825260138152602001807f496e76616c69642070617469656e74204964210000000000000000000000000081525060200191505060405180910390fd5b823273ffffffffffffffffffffffffffffffffffffffff166002600083815260200190815260200160002060010160009054906101000a900473ffffffffffffffffffffffffffffffffffffffff1673ffffffffffffffffffffffffffffffffffffffff16146130d2576040517f08c379a00000000000000000000000000000000000000000000000000000000081526004018080602001828103825260298152602001806158826029913960400191505060405180910390fd5b60026000858152602001908152602001600020600a015492505050919050565b81600154811061316a576040517f08c379a00000000000000000000000000000000000000000000000000000000081526004018080602001828103825260138152602001807f496e76616c69642070617469656e74204964210000000000000000000000000081525060200191505060405180910390fd5b823273ffffffffffffffffffffffffffffffffffffffff166002600083815260200190815260200160002060010160009054906101000a900473ffffffffffffffffffffffffffffffffffffffff1673ffffffffffffffffffffffffffffffffffffffff1614613225576040517f08c379a00000000000000000000000000000000000000000000000000000000081526004018080602001828103825260298152602001806158826029913960400191505060405180910390fd5b8260026000868152602001908152602001600020600c0160006101000a81548173ffffffffffffffffffffffffffffffffffffffff021916908373ffffffffffffffffffffffffffffffffffffffff16021790555050505050565b60608061328c84614474565b9050600061329985612f9d565b905060606132a7868661380b565b6040519080825280602002602001820160405280156132d55781602001602082028038833980820191505090505b509050600080905060008090505b83811015613426576000809054906101000a900473ffffffffffffffffffffffffffffffffffffffff1673ffffffffffffffffffffffffffffffffffffffff1663d3b94f5086838151811061333457fe5b6020026020010151896040518363ffffffff1660e01b8152600401808381526020018273ffffffffffffffffffffffffffffffffffffffff1673ffffffffffffffffffffffffffffffffffffffff1681526020019250505060206040518083038186803b1580156133a457600080fd5b505afa1580156133b8573d6000803e3d6000fd5b505050506040513d60208110156133ce57600080fd5b810190808051906020019092919050505015613419578481815181106133f057fe5b602002602001015183838151811061340457fe5b60200260200101818152505081806001019250505b80806001019150506132e3565b508194505050505092915050565b6000600154821015613449576001905061344e565b600090505b919050565b8160015481106134cb576040517f08c379a00000000000000000000000000000000000000000000000000000000081526004018080602001828103825260138152602001807f496e76616c69642070617469656e74204964210000000000000000000000000081525060200191505060405180910390fd5b823273ffffffffffffffffffffffffffffffffffffffff166002600083815260200190815260200160002060010160009054906101000a900473ffffffffffffffffffffffffffffffffffffffff1673ffffffffffffffffffffffffffffffffffffffff1614613586576040517f08c379a00000000000000000000000000000000000000000000000000000000081526004018080602001828103825260298152602001806158826029913960400191505060405180910390fd5b60016002600086815260200190815260200160002060080160008573ffffffffffffffffffffffffffffffffffffffff1673ffffffffffffffffffffffffffffffffffffffff16815260200190815260200160002060006101000a81548160ff02191690831515021790555050505050565b60007f868b6f447f7bdd79ca557746d89e4f760059d6e9c1b631ae924af6140b576c3f60405160405180910390a16000600160008154809291906001019190505590506000600260008381526020019081526020016000209050818160000181905550338160010160006101000a81548173ffffffffffffffffffffffffffffffffffffffff021916908373ffffffffffffffffffffffffffffffffffffffff160217905550888160020190805190602001906136b69291906157dc565b50878160030190805190602001906136cf9291906157dc565b50868160040190805190602001906136e89291906157dc565b50858160050190805190602001906137019291906157dc565b50848160060160006101000a81548160ff021916908315150217905550600081600a0181905550600081600b01819055508381600c0160006101000a81548173ffffffffffffffffffffffffffffffffffffffff021916908373ffffffffffffffffffffffffffffffffffffffff1602179055507fa58cff07db0adda3ab7a40bd2f18ab57210bf38391a52ffd2e8eee6b8bdec71a8160010160009054906101000a900473ffffffffffffffffffffffffffffffffffffffff16604051808273ffffffffffffffffffffffffffffffffffffffff1673ffffffffffffffffffffffffffffffffffffffff16815260200191505060405180910390a181925050509695505050505050565b6000606061381884614474565b9050600061382585612f9d565b9050600080905060008090505b82811015613949576000809054906101000a900473ffffffffffffffffffffffffffffffffffffffff1673ffffffffffffffffffffffffffffffffffffffff1663d3b94f5085838151811061388357fe5b6020026020010151886040518363ffffffff1660e01b8152600401808381526020018273ffffffffffffffffffffffffffffffffffffffff1673ffffffffffffffffffffffffffffffffffffffff1681526020019250505060206040518083038186803b1580156138f357600080fd5b505afa158015613907573d6000803e3d6000fd5b505050506040513d602081101561391d57600080fd5b81019080805190602001909291905050501561393c5781806001019250505b8080600101915050613832565b5080935050505092915050565b8160015481106139ce576040517f08c379a00000000000000000000000000000000000000000000000000000000081526004018080602001828103825260138152602001807f496e76616c69642070617469656e74204964210000000000000000000000000081525060200191505060405180910390fd5b823273ffffffffffffffffffffffffffffffffffffffff166002600083815260200190815260200160002060010160009054906101000a900473ffffffffffffffffffffffffffffffffffffffff1673ffffffffffffffffffffffffffffffffffffffff1614613a89576040517f08c379a00000000000000000000000000000000000000000000000000000000081526004018080602001828103825260298152602001806158826029913960400191505060405180910390fd5b8260026000868152602001908152602001600020600b018190555050505050565b6000816001548110613b24576040517f08c379a00000000000000000000000000000000000000000000000000000000081526004018080602001828103825260138152602001807f496e76616c69642070617469656e74204964210000000000000000000000000081525060200191505060405180910390fd5b823273ffffffffffffffffffffffffffffffffffffffff166002600083815260200190815260200160002060010160009054906101000a900473ffffffffffffffffffffffffffffffffffffffff1673ffffffffffffffffffffffffffffffffffffffff1614613bdf576040517f08c379a00000000000000000000000000000000000000000000000000000000081526004018080602001828103825260298152602001806158826029913960400191505060405180910390fd5b60026000858152602001908152602001600020600b015492505050919050565b816001548110613c77576040517f08c379a00000000000000000000000000000000000000000000000000000000081526004018080602001828103825260138152602001807f496e76616c69642070617469656e74204964210000000000000000000000000081525060200191505060405180910390fd5b823273ffffffffffffffffffffffffffffffffffffffff166002600083815260200190815260200160002060010160009054906101000a900473ffffffffffffffffffffffffffffffffffffffff1673ffffffffffffffffffffffffffffffffffffffff1614613d32576040517f08c379a00000000000000000000000000000000000000000000000000000000081526004018080602001828103825260298152602001806158826029913960400191505060405180910390fd5b82600260008681526020019081526020016000206005019080519060200190613d5c9291906157dc565b5050505050565b60006060613d7084614474565b90506000613d7d85612f9d565b9050600080905060008090505b82811015613e89576000848281518110613da057fe5b602002602001015190506000809054906101000a900473ffffffffffffffffffffffffffffffffffffffff1673ffffffffffffffffffffffffffffffffffffffff1663fc60b12182896040518363ffffffff1660e01b815260040180838152602001826007811115613e0e57fe5b60ff1681526020019250505060206040518083038186803b158015613e3257600080fd5b505afa158015613e46573d6000803e3d6000fd5b505050506040513d6020811015613e5c57600080fd5b810190808051906020019092919050505015613e7b5782806001019350505b508080600101915050613d8a565b5080935050505092915050565b6000816001548110613f10576040517f08c379a00000000000000000000000000000000000000000000000000000000081526004018080602001828103825260138152602001807f496e76616c69642070617469656e74204964210000000000000000000000000081525060200191505060405180910390fd5b6002600084815260200190815260200160002060060160009054906101000a900460ff16915050919050565b816001548110613fb4576040517f08c379a00000000000000000000000000000000000000000000000000000000081526004018080602001828103825260138152602001807f496e76616c69642070617469656e74204964210000000000000000000000000081525060200191505060405180910390fd5b823273ffffffffffffffffffffffffffffffffffffffff166002600083815260200190815260200160002060010160009054906101000a900473ffffffffffffffffffffffffffffffffffffffff1673ffffffffffffffffffffffffffffffffffffffff161461406f576040517f08c379a00000000000000000000000000000000000000000000000000000000081526004018080602001828103825260298152602001806158826029913960400191505060405180910390fd5b8260026000868152602001908152602001600020600a018190555050505050565b816001548110614108576040517f08c379a00000000000000000000000000000000000000000000000000000000081526004018080602001828103825260138152602001807f496e76616c69642070617469656e74204964210000000000000000000000000081525060200191505060405180910390fd5b600060026000858152602001908152602001600020600901600084815260200190815260200160002060006101000a81548160ff02191690831515021790555060026000848152602001908152602001600020600a0160008154809291906001019190505550505050565b60026020528060005260406000206000915090508060000154908060010160009054906101000a900473ffffffffffffffffffffffffffffffffffffffff1690806002018054600181600116156101000203166002900480601f01602080910402602001604051908101604052809291908181526020018280546001816001161561010002031660029004801561424b5780601f106142205761010080835404028352916020019161424b565b820191906000526020600020905b81548152906001019060200180831161422e57829003601f168201915b505050505090806003018054600181600116156101000203166002900480601f0160208091040260200160405190810160405280929190818152602001828054600181600116156101000203166002900480156142e95780601f106142be576101008083540402835291602001916142e9565b820191906000526020600020905b8154815290600101906020018083116142cc57829003601f168201915b505050505090806004018054600181600116156101000203166002900480601f0160208091040260200160405190810160405280929190818152602001828054600181600116156101000203166002900480156143875780601f1061435c57610100808354040283529160200191614387565b820191906000526020600020905b81548152906001019060200180831161436a57829003601f168201915b505050505090806005018054600181600116156101000203166002900480601f0160208091040260200160405190810160405280929190818152602001828054600181600116156101000203166002900480156144255780601f106143fa57610100808354040283529160200191614425565b820191906000526020600020905b81548152906001019060200180831161440857829003601f168201915b5050505050908060060160009054906101000a900460ff169080600a01549080600b01549080600c0160009054906101000a900473ffffffffffffffffffffffffffffffffffffffff1690508a565b60608061448083612f9d565b6040519080825280602002602001820160405280156144ae5781602001602082028038833980820191505090505b509050600080905060006144c185611f78565b905060008090505b6000809054906101000a900473ffffffffffffffffffffffffffffffffffffffff1673ffffffffffffffffffffffffffffffffffffffff16637988d0566040518163ffffffff1660e01b815260040160206040518083038186803b15801561453057600080fd5b505afa158015614544573d6000803e3d6000fd5b505050506040513d602081101561455a57600080fd5b8101908080519060200190929190505050811015614687576000809054906101000a900473ffffffffffffffffffffffffffffffffffffffff1673ffffffffffffffffffffffffffffffffffffffff16630224ad4482846040518363ffffffff1660e01b8152600401808381526020018273ffffffffffffffffffffffffffffffffffffffff1673ffffffffffffffffffffffffffffffffffffffff1681526020019250505060206040518083038186803b15801561461857600080fd5b505afa15801561462c573d6000803e3d6000fd5b505050506040513d602081101561464257600080fd5b81019080805190602001909291905050501561467a578084848151811061466557fe5b60200260200101818152505082806001019350505b80806001019150506144c9565b50829350505050919050565b81600154811061470b576040517f08c379a00000000000000000000000000000000000000000000000000000000081526004018080602001828103825260138152602001807f496e76616c69642070617469656e74204964210000000000000000000000000081525060200191505060405180910390fd5b823273ffffffffffffffffffffffffffffffffffffffff166002600083815260200190815260200160002060010160009054906101000a900473ffffffffffffffffffffffffffffffffffffffff1673ffffffffffffffffffffffffffffffffffffffff16146147c6576040517f08c379a00000000000000000000000000000000000000000000000000000000081526004018080602001828103825260298152602001806158826029913960400191505060405180910390fd5b826002600086815260200190815260200160002060040190805190602001906147f09291906157dc565b5050505050565b60006002600084815260200190815260200160002060080160008373ffffffffffffffffffffffffffffffffffffffff1673ffffffffffffffffffffffffffffffffffffffff16815260200190815260200160002060009054906101000a900460ff16905092915050565b600080600090505b6001548110156148f4578273ffffffffffffffffffffffffffffffffffffffff166002600083815260200190815260200160002060010160009054906101000a900473ffffffffffffffffffffffffffffffffffffffff1673ffffffffffffffffffffffffffffffffffffffff1614156148e757809150506148f6565b808060010191505061486a565b505b919050565b600160026000848152602001908152602001600020600901600083815260200190815260200160002060006101000a81548160ff02191690831515021790555060026000838152602001908152602001600020600b01600081548092919060010191905055506000809054906101000a900473ffffffffffffffffffffffffffffffffffffffff1673ffffffffffffffffffffffffffffffffffffffff16638664d5f3826040518263ffffffff1660e01b815260040180828152602001915050600060405180830381600087803b1580156149d557600080fd5b505af11580156149e9573d6000803e3d6000fd5b505050505050565b6000826001548110614a6b576040517f08c379a00000000000000000000000000000000000000000000000000000000081526004018080602001828103825260138152602001807f496e76616c69642070617469656e74204964210000000000000000000000000081525060200191505060405180910390fd5b833273ffffffffffffffffffffffffffffffffffffffff166002600083815260200190815260200160002060010160009054906101000a900473ffffffffffffffffffffffffffffffffffffffff1673ffffffffffffffffffffffffffffffffffffffff1614614b26576040517f08c379a00000000000000000000000000000000000000000000000000000000081526004018080602001828103825260298152602001806158826029913960400191505060405180910390fd5b60026000868152602001908152602001600020600901600085815260200190815260200160002060009054906101000a900460ff169250505092915050565b6000816001548110614bdf576040517f08c379a00000000000000000000000000000000000000000000000000000000081526004018080602001828103825260138152602001807f496e76616c69642070617469656e74204964210000000000000000000000000081525060200191505060405180910390fd5b823260011515614bef8383614c80565b15151480614c0a575060011515614c068383614efb565b1515145b614c5f576040517f08c379a000000000000000000000000000000000000000000000000000000000815260040180806020018281038252602e8152602001806158ab602e913960400191505060405180910390fd5b60026000868152602001908152602001600020600a01549350505050919050565b60006002600084815260200190815260200160002060070160008373ffffffffffffffffffffffffffffffffffffffff1673ffffffffffffffffffffffffffffffffffffffff16815260200190815260200160002060009054906101000a900460ff16905092915050565b60006002600084815260200190815260200160002060070160008373ffffffffffffffffffffffffffffffffffffffff1673ffffffffffffffffffffffffffffffffffffffff16815260200190815260200160002060009054906101000a900460ff16905092915050565b816001548110614dce576040517f08c379a00000000000000000000000000000000000000000000000000000000081526004018080602001828103825260138152602001807f496e76616c69642070617469656e74204964210000000000000000000000000081525060200191505060405180910390fd5b823273ffffffffffffffffffffffffffffffffffffffff166002600083815260200190815260200160002060010160009054906101000a900473ffffffffffffffffffffffffffffffffffffffff1673ffffffffffffffffffffffffffffffffffffffff1614614e89576040517f08c379a00000000000000000000000000000000000000000000000000000000081526004018080602001828103825260298152602001806158826029913960400191505060405180910390fd5b60006002600086815260200190815260200160002060070160008573ffffffffffffffffffffffffffffffffffffffff1673ffffffffffffffffffffffffffffffffffffffff16815260200190815260200160002060006101000a81548160ff02191690831515021790555050505050565b60006002600084815260200190815260200160002060080160008373ffffffffffffffffffffffffffffffffffffffff1673ffffffffffffffffffffffffffffffffffffffff16815260200190815260200160002060009054906101000a900460ff16905092915050565b6000816001548110614fe0576040517f08c379a00000000000000000000000000000000000000000000000000000000081526004018080602001828103825260138152602001807f496e76616c69642070617469656e74204964210000000000000000000000000081525060200191505060405180910390fd5b823273ffffffffffffffffffffffffffffffffffffffff166002600083815260200190815260200160002060010160009054906101000a900473ffffffffffffffffffffffffffffffffffffffff1673ffffffffffffffffffffffffffffffffffffffff161461509b576040517f08c379a00000000000000000000000000000000000000000000000000000000081526004018080602001828103825260298152602001806158826029913960400191505060405180910390fd5b60026000858152602001908152602001600020600c0160009054906101000a900473ffffffffffffffffffffffffffffffffffffffff1692505050919050565b816001548110615153576040517f08c379a00000000000000000000000000000000000000000000000000000000081526004018080602001828103825260138152602001807f496e76616c69642070617469656e74204964210000000000000000000000000081525060200191505060405180910390fd5b823273ffffffffffffffffffffffffffffffffffffffff166002600083815260200190815260200160002060010160009054906101000a900473ffffffffffffffffffffffffffffffffffffffff1673ffffffffffffffffffffffffffffffffffffffff161461520e576040517f08c379a00000000000000000000000000000000000000000000000000000000081526004018080602001828103825260298152602001806158826029913960400191505060405180910390fd5b60006002600086815260200190815260200160002060080160008573ffffffffffffffffffffffffffffffffffffffff1673ffffffffffffffffffffffffffffffffffffffff16815260200190815260200160002060006101000a81548160ff02191690831515021790555050505050565b60608160015481106152fa576040517f08c379a00000000000000000000000000000000000000000000000000000000081526004018080602001828103825260138152602001807f496e76616c69642070617469656e74204964210000000000000000000000000081525060200191505060405180910390fd5b823273ffffffffffffffffffffffffffffffffffffffff166002600083815260200190815260200160002060010160009054906101000a900473ffffffffffffffffffffffffffffffffffffffff1673ffffffffffffffffffffffffffffffffffffffff16146153b5576040517f08c379a00000000000000000000000000000000000000000000000000000000081526004018080602001828103825260298152602001806158826029913960400191505060405180910390fd5b600260008581526020019081526020016000206004018054600181600116156101000203166002900480601f01602080910402602001604051908101604052809291908181526020018280546001816001161561010002031660029004801561545f5780601f106154345761010080835404028352916020019161545f565b820191906000526020600020905b81548152906001019060200180831161544257829003601f168201915b505050505092505050919050565b600080600090505b600154811015615500578273ffffffffffffffffffffffffffffffffffffffff166002600083815260200190815260200160002060010160009054906101000a900473ffffffffffffffffffffffffffffffffffffffff1673ffffffffffffffffffffffffffffffffffffffff1614156154f3576001915050615506565b8080600101915050615475565b50600090505b919050565b816001548110615583576040517f08c379a00000000000000000000000000000000000000000000000000000000081526004018080602001828103825260138152602001807f496e76616c69642070617469656e74204964210000000000000000000000000081525060200191505060405180910390fd5b823273ffffffffffffffffffffffffffffffffffffffff166002600083815260200190815260200160002060010160009054906101000a900473ffffffffffffffffffffffffffffffffffffffff1673ffffffffffffffffffffffffffffffffffffffff161461563e576040517f08c379a00000000000000000000000000000000000000000000000000000000081526004018080602001828103825260298152602001806158826029913960400191505060405180910390fd5b826002600086815260200190815260200160002060060160006101000a81548160ff02191690831515021790555050505050565b60015481565b8160015481106156f0576040517f08c379a00000000000000000000000000000000000000000000000000000000081526004018080602001828103825260138152602001807f496e76616c69642070617469656e74204964210000000000000000000000000081525060200191505060405180910390fd5b823273ffffffffffffffffffffffffffffffffffffffff166002600083815260200190815260200160002060010160009054906101000a900473ffffffffffffffffffffffffffffffffffffffff1673ffffffffffffffffffffffffffffffffffffffff16146157ab576040517f08c379a00000000000000000000000000000000000000000000000000000000081526004018080602001828103825260298152602001806158826029913960400191505060405180910390fd5b826002600086815260200190815260200160002060030190805190602001906157d59291906157dc565b5050505050565b828054600181600116156101000203166002900490600052602060002090601f016020900481019282601f1061581d57805160ff191683800117855561584b565b8280016001018555821561584b579182015b8281111561584a57825182559160200191906001019061582f565b5b509050615858919061585c565b5090565b61587e91905b8082111561587a576000816000905550600101615862565b5090565b9056fe43757272656e742075736572206973206e6f742074686520696e74656e6465642070617469656e742150726163746974696f6e6572206973206e6f7420696e2070617469656e74277320617070726f766564206c697374a265627a7a723158207f6ffa5ee5b2fe2723380b8dd5385da1f7d22636741edf53b3b1a9075da490d164736f6c63430005110032",
  "source": "pragma solidity ^0.5.0;\n\nimport \"./EHR.sol\";\n\ncontract Patient {\n\n    EHR ehrContract;\n\n    constructor(EHR ehrAddress) public {\n        ehrContract = ehrAddress;\n  }\n\n    struct patient {\n        uint256 patientId;\n        address owner;\n        string firstName;\n        string lastName;\n        string emailAddress;\n        string dob;\n        bool approvedResearcher;\n        mapping(address => bool) approvedDoctors;\n        mapping(address => bool) approvedNurses;\n        mapping(uint256 => bool) records;\n        uint256 recordsCount;\n        uint256 acknowledgedRecordsCount;\n        address secondaryUser;\n    }\n\n    uint256 public numPatients = 0;\n    mapping(uint256 => patient) public patients;\n\n    // function to create patient\n    // TO CHECK FOR DUPLICATE ADDRESS, WHETHER SECONDARYUSER IS A REGISTERED PATIENT\n    function create(string memory _firstName, string memory _lastName, string memory _emailAddress, string memory _dob, bool _approvedResearcher, address _secondaryUser) public returns(uint256) {\n\n        emit testTrigger();\n\n        uint256 newPatientId = numPatients++;\n\n        patient storage newPatient = patients[newPatientId];\n        newPatient.patientId = newPatientId;\n        newPatient.owner = msg.sender;\n        newPatient.firstName = _firstName;\n        newPatient.lastName = _lastName;\n        newPatient.emailAddress = _emailAddress;\n        newPatient.dob = _dob;\n        newPatient.approvedResearcher = _approvedResearcher;\n        newPatient.recordsCount = 0;\n        newPatient.acknowledgedRecordsCount = 0;\n        newPatient.secondaryUser = _secondaryUser;\n\n        emit PatientAdded(newPatient.owner);\n        return newPatientId;\n    }\n\n    /********* EVENTS *********/\n\n    event AddressDoesNotBelongToAnyPatient();\n    event PatientAdded(address patientAddress);\n    event GivingDoctorAccess();\n    event printValue(uint256 a);\n    event testTrigger();\n\n    /********* MODIFIERS *********/\n\n    modifier ownerOnly(uint256 patientId) {\n        require(patients[patientId].owner == tx.origin, \"Current user is not the intended patient!\");\n        _;\n    }\n\n    modifier validPatientId(uint256 patientId) {\n        require(patientId < numPatients, \"Invalid patient Id!\");\n        _;\n    }\n\n    modifier isApprovedDoctorOrNurse(uint256 patientId, address practitionerAddress) {\n        require(isApprovedDoctor(patientId, practitionerAddress) == true || isApprovedNurse(patientId, practitionerAddress) == true, \"Practitioner is not in patient's approved list\");\n        _;\n    }\n\n\n    /********* FUNCTIONS *********/\n\n    function isValidPatientId(uint256 patientId) public view returns (bool) {\n        if (patientId < numPatients) {\n            return true;\n        } else {\n            return false;\n        }\n    }\n\n    function isApprovedDoctor(uint256 patientId, address doctorAddress) public view returns (bool) {\n        return patients[patientId].approvedDoctors[doctorAddress];\n    }\n\n    function isApprovedNurse(uint256 patientId, address nurseAddress) public view returns (bool) {\n        return patients[patientId].approvedNurses[nurseAddress];\n    }\n\n    // Loop through existing senders to check if address is a sender\n    function isSender(address owner) public view returns(bool) {\n        for (uint i = 0; i < numPatients; i++) {\n            // patient storage temp = patients[i];\n            if (patients[i].owner == owner) {\n                return true;\n            }\n        }\n\n        return false;\n    }\n\n    // Populate this logic here\n    function getResearchPatients() public view returns (uint256[] memory) {\n\n        uint256 size = 0;\n\n        // Get size since array size not mutable\n        for (uint i = 0; i < numPatients; i++) {\n            if (patients[i].approvedResearcher) {\n                size++;\n            }\n        }\n\n        uint256[] memory result = new uint256[](size);\n        uint256 count = 0;\n\n        // Loop through patients and feed approved into array\n        for (uint i = 0; i < numPatients; i++) {\n            if (patients[i].approvedResearcher) {\n                result[count] = i;\n                count++;\n            }\n        }\n        return result;\n    }\n\n    // Patient verify record\n    function signOffRecord(uint256 patientId, uint256 recordId) public {\n        patients[patientId].records[recordId] = true;\n        patients[patientId].acknowledgedRecordsCount++;\n        ehrContract.patientSignOff(recordId);\n    }\n\n    // get patient's id from their address (used in medicalChain patientAcknowledgeRecord function)\n    function getPatientIdFromPatientAddress(address patientAddress) public view returns (uint256) {\n        for (uint i = 0; i < numPatients; i++) {\n            if (patients[i].owner == patientAddress) {\n                return i;\n            }\n        }\n    }\n\n    function viewAllRecords(uint256 patientId) public view returns (uint256[] memory) {\n        // uint256 patientNoOfRecords = getRecordsCount(patientId);\n        uint256[] memory patientRecordsId = new uint256[](getRecordsCount(patientId));\n        uint256 indexTracker = 0;\n        address patientAddress = getPatientAddress(patientId);\n        for (uint256 i = 0; i < ehrContract.numEHR(); i++) {\n            if (ehrContract.isRecordBelongToPatient(i, patientAddress)) {\n                patientRecordsId[indexTracker] = i;\n                indexTracker++;\n            }\n        }\n\n    return patientRecordsId;\n    }\n\n    function practitionerViewAllRecords(uint256 patientId) public view returns (uint256[] memory) {\n        // uint256 patientNoOfRecords = getRecordsCount(patientId);\n        uint256[] memory patientRecordsId = new uint256[](practitionerGetRecordsCount(patientId));\n        uint256 indexTracker = 0;\n        address patientAddress = getPatientAddress(patientId);\n        for (uint256 i = 0; i < ehrContract.numEHR(); i++) {\n            if (ehrContract.isRecordBelongToPatient(i, patientAddress)) {\n                patientRecordsId[indexTracker] = i;\n                indexTracker++;\n            }\n        }\n\n    return patientRecordsId;\n    }\n\n    // Patient: View all records (acknowledged and not acknowledged)\n  function viewAllAcknowledgedRecords(uint256 patientId) public view returns (uint256[] memory) {\n    // uint256 patientNoOfAcknowledgedRecords = getAcknowledgedRecordsCount(patientId);\n    uint256[] memory patientAcknowledgedRecordsId = new uint256[](getAcknowledgedRecordsCount(patientId));\n    uint256 indexTracker = 0;\n    for (uint256 i = 0; i < ehrContract.numEHR(); i++) {\n      // record belongs to patient calling it AND whether the record is acknowledged\n      if (ehrContract.isRecordBelongToPatient(i, msg.sender) && isRecordAcknowledged(patientId, i)) {\n        patientAcknowledgedRecordsId[indexTracker] = i;\n        indexTracker++;\n      }\n    }\n\n    return patientAcknowledgedRecordsId;\n  }\n\n  // Patient: View all records issued by certain doctor\n  function viewRecordsByDoctor(uint256 patientId, address doctorAddress) public view returns (uint256[] memory) {\n    uint256[] memory patientRecordsId = viewAllRecords(patientId);\n    uint256 noOfPatientRecords = getRecordsCount(patientId);\n    // uint256 noOfDoctorRecords = numberOfRecordByDoctor(patientId, patientAddress, doctorAddress);\n    uint256[] memory patientRecordsIdFiltered = new uint256[](numberOfRecordByDoctor(patientId, doctorAddress));\n    uint256 indexTracker = 0;\n    for (uint256 i = 0; i < noOfPatientRecords; i++) {\n    //   uint256 currentRecordId = patientRecordsId[i];\n      if (ehrContract.doesRecordMatchDoctorAddress(patientRecordsId[i], doctorAddress)) {\n        patientRecordsIdFiltered[indexTracker] = patientRecordsId[i];\n        indexTracker++;\n      }\n    }\n\n      return patientRecordsIdFiltered;\n  }\n\n    // Patient: Helper function to check how many records fulfilling the given doctor id\n  function numberOfRecordByDoctor(uint256 patientId, address doctorAddress) public view returns(uint256) { // change on what you need to return\n    uint256[] memory patientRecordsId = viewAllRecords(patientId);\n    uint256 noOfPatientRecords = getRecordsCount(patientId);\n    uint256 noOfRecordsByDoctorId = 0;\n    for (uint256 i = 0; i < noOfPatientRecords; i++) {\n    //   uint256 currentRecordId = patientRecordsId[i];\n      if (ehrContract.doesRecordMatchDoctorAddress(patientRecordsId[i], doctorAddress)) {\n        noOfRecordsByDoctorId++;\n      }\n    }\n\n    return noOfRecordsByDoctorId;\n}\n\n    // Patient: Filter records by record type\n  function viewRecordsByRecordType(uint256 patientId, EHR.RecordType recordType) public view returns (uint256[] memory) {\n    uint256[] memory patientRecordsId = viewAllRecords(patientId);\n    uint256 noOfPatientRecords = getRecordsCount(patientId);\n    // uint256 noOfFilteredRecords = numberOfRecordType(patientId, patientAddress, recordType);\n    uint256[] memory patientRecordsIdFiltered = new uint256[](numberOfRecordType(patientId, recordType));\n    uint256 indexTracker = 0;\n    for (uint256 i = 0; i < noOfPatientRecords; i++) {\n    //   uint256 currentRecordId = patientRecordsId[i];\n      if (ehrContract.doesRecordMatchRecordType(patientRecordsId[i], recordType)) {\n        patientRecordsIdFiltered[indexTracker] = patientRecordsId[i];\n        indexTracker++;\n      }\n    }\n\n    return patientRecordsIdFiltered;\n  }\n\n    // Patient: Helper function to check how many records fulfilling the given record type for a patient\n  function numberOfRecordType(uint256 patientId, EHR.RecordType recordType) public view returns(uint256) { // change on what you need to return\n    uint256[] memory patientRecordsId = viewAllRecords(patientId);\n    uint256 noOfPatientRecords = getRecordsCount(patientId);\n    uint256 noOfRecordsMatchingRecordType = 0;\n    for (uint256 i = 0; i < noOfPatientRecords; i++) {\n      uint256 currentRecordId = patientRecordsId[i];\n      if (ehrContract.doesRecordMatchRecordType(currentRecordId, recordType)) {\n        noOfRecordsMatchingRecordType++;\n      }\n    }\n\n    return noOfRecordsMatchingRecordType;\n}\n\n\n    // checked the record is acknowledged by patient\n    function isRecordAcknowledged(uint256 patientId, uint256 recordId) public view validPatientId(patientId) ownerOnly(patientId) returns(bool) {\n        return patients[patientId].records[recordId];\n    }\n\n    function giveDoctorAccess(uint256 patientId, address doctorAddress) public validPatientId(patientId) ownerOnly(patientId) {\n        patients[patientId].approvedDoctors[doctorAddress] = true;\n    }\n\n    function removeDoctorAccess(uint256 patientId, address doctorAddress) public validPatientId(patientId) ownerOnly(patientId) {\n        patients[patientId].approvedDoctors[doctorAddress] = false;\n    }\n\n    function giveNurseAccess(uint256 patientId, address nurseAddress) public validPatientId(patientId) ownerOnly(patientId) {\n        patients[patientId].approvedNurses[nurseAddress] = true;\n    }\n\n    function removeNurseAccess(uint256 patientId, address nurseAddress) public validPatientId(patientId) ownerOnly(patientId) {\n        patients[patientId].approvedNurses[nurseAddress] = false;\n    }\n\n    function addEhr(uint256 patientId, uint256 recordId) public validPatientId(patientId) {\n        patients[patientId].records[recordId] = false;\n        patients[patientId].recordsCount++;\n    }\n\n    function giveResearcherAccess(uint256 patientId) public validPatientId(patientId) ownerOnly(patientId) {\n        patients[patientId].approvedResearcher = true;\n    }\n\n    function practitionerGetRecordsCount(uint256 patientId) public view validPatientId(patientId) isApprovedDoctorOrNurse(patientId, tx.origin) returns(uint256) {\n        return patients[patientId].recordsCount;\n    }\n\n\n\n    /********* GETTERS & SETTERS *********/\n\n    function getFirstName(uint256 patientId) public view validPatientId(patientId) ownerOnly(patientId) returns(string memory) {\n        return patients[patientId].firstName;\n    }\n\n    function setFirstName(uint256 patientId, string memory _firstName) public validPatientId(patientId) ownerOnly(patientId)  {\n        patients[patientId].firstName = _firstName;\n    }\n\n    function getLastName(uint256 patientId) public view validPatientId(patientId) ownerOnly(patientId) returns(string memory) {\n        return patients[patientId].lastName;\n    }\n\n    function setLastName(uint256 patientId, string memory _lastName) public validPatientId(patientId) ownerOnly(patientId)  {\n        patients[patientId].lastName = _lastName;\n    }\n\n    function getEmailAddress(uint256 patientId) public view validPatientId(patientId) ownerOnly(patientId) returns(string memory) {\n        // emit testTrigger();\n        return patients[patientId].emailAddress;\n    }\n\n    function setEmailAddress(uint256 patientId, string memory _emailAddress) public validPatientId(patientId) ownerOnly(patientId) {\n        patients[patientId].emailAddress = _emailAddress;\n    }\n\n    function getDob(uint256 patientId) public view  validPatientId(patientId) ownerOnly(patientId) returns(string memory) {\n        return patients[patientId].dob;\n    }\n\n    function setDob(uint256 patientId, string memory _dob) public validPatientId(patientId) ownerOnly(patientId) {\n        patients[patientId].dob = _dob;\n    }\n\n    function isDoctorApproved(uint256 patientId, address doctorAddress) public view returns(bool) {\n        return patients[patientId].approvedDoctors[doctorAddress];\n    }\n\n    function isNurseApproved(uint256 patientId, address nurseAddress) public view returns(bool) {\n        return patients[patientId].approvedNurses[nurseAddress];\n    }\n\n    function getApprovedReseacher(uint256 patientId) public view  validPatientId(patientId) returns(bool) {\n        return patients[patientId].approvedResearcher;\n    }\n\n    function setApprovedResearcher(uint256 patientId, bool _approvedResearcher) public validPatientId(patientId) ownerOnly(patientId) {\n        patients[patientId].approvedResearcher = _approvedResearcher;\n    }\n\n    function getRecordsCount(uint256 patientId) public view validPatientId(patientId) ownerOnly(patientId) returns(uint256) {\n        return patients[patientId].recordsCount;\n    }\n    \n    function setRecordsCount(uint256 patientId, uint256 _recordsCount) public validPatientId(patientId) ownerOnly(patientId) {\n        patients[patientId].recordsCount = _recordsCount;\n    }\n\n    function getAcknowledgedRecordsCount(uint256 patientId) public view validPatientId(patientId) ownerOnly(patientId) returns(uint256) {\n        return patients[patientId].acknowledgedRecordsCount;\n    }\n    \n    function setAcknowledgedRecordsCount(uint256 patientId, uint256 _acknowledgedRecordsCount) public validPatientId(patientId) ownerOnly(patientId) {\n        patients[patientId].acknowledgedRecordsCount = _acknowledgedRecordsCount;\n    }\n\n    function getSecondaryUser(uint256 patientId) public view validPatientId(patientId) ownerOnly(patientId) returns(address) {\n        return patients[patientId].secondaryUser;\n    }\n\n    function setSecondaryUser(uint256 patientId, address _secondaryUser) public validPatientId(patientId) ownerOnly(patientId)  {\n        patients[patientId].secondaryUser = _secondaryUser;\n    }\n\n    function getData(uint256 patientId) public view returns(uint256 id,\n        string memory firstName,\n        string memory lastName,\n        string memory emailAddress,\n        string memory dob) {\n        return (patients[patientId].patientId, patients[patientId].firstName, patients[patientId].lastName, patients[patientId].emailAddress, patients[patientId].dob);\n    }\n\n    function getPatientAddress(uint256 patientId) public view validPatientId(patientId) returns(address) {\n        return patients[patientId].owner;\n    }\n}\n\n/************************* Removed! Nurse can't issue record! *************************/\n// // Patient: View all records issued by certain nurse\n//   function viewRecordsByNurse(uint256 patientId, address nurseAddress) public view returns (uint256[] memory) {\n//     uint256[] memory patientRecordsId = viewAllRecords(patientId);\n//     uint256 noOfPatientRecords = getRecordsCount(patientId);\n//     // uint256 noOfNurseRecords = numberOfRecordByNurse(patientId, patientAddress, nurseAddress);\n//     uint256[] memory patientRecordsIdFiltered = new uint256[](numberOfRecordByNurse(patientId, nurseAddress));\n//     uint256 indexTracker = 0;\n//     for (uint256 i = 0; i < noOfPatientRecords; i++) {\n//     //   uint256 currentRecordId = patientRecordsId[i];\n//       if (ehrContract.doesRecordMatchDoctorAddress(patientRecordsId[i], nurseAddress)) {\n//         patientRecordsIdFiltered[indexTracker] = patientRecordsId[i];\n//         indexTracker++;\n//       }\n//     }\n//       return patientRecordsIdFiltered;\n//   }\n\n// // Patient: Helper function to check how many records fulfilling the given nurse id\n//   function numberOfRecordByNurse(uint256 patientId, address nurseAddress) public view returns(uint256) { // change on what you need to return\n//     uint256[] memory patientRecordsId = viewAllRecords(patientId);\n//     uint256 noOfPatientRecords = getRecordsCount(patientId);\n//     uint256 noOfRecordsByNurseId = 0;\n//     for (uint256 i = 0; i < noOfPatientRecords; i++) {\n//       uint256 currentRecordId = patientRecordsId[i];\n//       if (ehrContract.doesRecordMatchDoctorAddress(currentRecordId, nurseAddress)) {\n//         noOfRecordsByNurseId++;\n//       }\n//     }\n\n//     return noOfRecordsByNurseId;\n//   }",
  "sourcePath": "/Users/aaronf/IS4302/is4302-project-medical-chain/contracts/Patient.sol",
  "compiler": {
    "name": "solc",
    "version": "0.5.17+commit.d19bba13.Emscripten.clang"
  },
  "schemaVersion": "3.4.11",
  "updatedAt": "2023-04-10T05:02:01.021Z",
  "devdoc": {
    "methods": {}
  },
  "userdoc": {
    "methods": {
      "getFirstName(uint256)": {
        "notice": "******* GETTERS & SETTERS ********"
      },
      "isValidPatientId(uint256)": {
        "notice": "******* FUNCTIONS ********"
      }
    }
  }
}