{
  "contractName": "Patient",
  "abi": [
    {
      "constant": true,
      "inputs": [],
      "name": "numPatients",
      "outputs": [
        {
          "internalType": "uint256",
          "name": "",
          "type": "uint256"
        }
      ],
      "payable": false,
      "stateMutability": "view",
      "type": "function"
    },
    {
      "constant": true,
      "inputs": [
        {
          "internalType": "uint256",
          "name": "",
          "type": "uint256"
        }
      ],
      "name": "patients",
      "outputs": [
        {
          "internalType": "uint256",
          "name": "patientId",
          "type": "uint256"
        },
        {
          "internalType": "address",
          "name": "owner",
          "type": "address"
        },
        {
          "internalType": "string",
          "name": "firstName",
          "type": "string"
        },
        {
          "internalType": "string",
          "name": "lastName",
          "type": "string"
        },
        {
          "internalType": "string",
          "name": "emailAddress",
          "type": "string"
        },
        {
          "internalType": "string",
          "name": "dob",
          "type": "string"
        },
        {
          "internalType": "address",
          "name": "secondaryUser",
          "type": "address"
        }
      ],
      "payable": false,
      "stateMutability": "view",
      "type": "function"
    },
    {
      "constant": false,
      "inputs": [
        {
          "internalType": "string",
          "name": "_firstName",
          "type": "string"
        },
        {
          "internalType": "string",
          "name": "_lastName",
          "type": "string"
        },
        {
          "internalType": "string",
          "name": "_emailAddress",
          "type": "string"
        },
        {
          "internalType": "string",
          "name": "_dob",
          "type": "string"
        },
        {
          "internalType": "address",
          "name": "_secondaryUser",
          "type": "address"
        }
      ],
      "name": "create",
      "outputs": [
        {
          "internalType": "uint256",
          "name": "",
          "type": "uint256"
        }
      ],
      "payable": false,
      "stateMutability": "nonpayable",
      "type": "function"
    },
    {
      "constant": true,
      "inputs": [
        {
          "internalType": "uint256",
          "name": "patientId",
          "type": "uint256"
        },
        {
          "internalType": "address",
          "name": "doctorAddress",
          "type": "address"
        }
      ],
      "name": "isApprovedDoctor",
      "outputs": [
        {
          "internalType": "bool",
          "name": "",
          "type": "bool"
        }
      ],
      "payable": false,
      "stateMutability": "view",
      "type": "function"
    },
    {
      "constant": true,
      "inputs": [
        {
          "internalType": "uint256",
          "name": "patientId",
          "type": "uint256"
        },
        {
          "internalType": "address",
          "name": "nurseAddress",
          "type": "address"
        }
      ],
      "name": "isApprovedNurse",
      "outputs": [
        {
          "internalType": "bool",
          "name": "",
          "type": "bool"
        }
      ],
      "payable": false,
      "stateMutability": "view",
      "type": "function"
    },
    {
      "constant": true,
      "inputs": [
        {
          "internalType": "address",
          "name": "owner",
          "type": "address"
        }
      ],
      "name": "isSender",
      "outputs": [
        {
          "internalType": "bool",
          "name": "",
          "type": "bool"
        }
      ],
      "payable": false,
      "stateMutability": "view",
      "type": "function"
    },
    {
      "constant": false,
      "inputs": [
        {
          "internalType": "uint256",
          "name": "patientId",
          "type": "uint256"
        },
        {
          "internalType": "address",
          "name": "doctorAddress",
          "type": "address"
        }
      ],
      "name": "giveDoctorAccess",
      "outputs": [],
      "payable": false,
      "stateMutability": "nonpayable",
      "type": "function"
    },
    {
      "constant": false,
      "inputs": [
        {
          "internalType": "uint256",
          "name": "patientId",
          "type": "uint256"
        },
        {
          "internalType": "address",
          "name": "doctorAddress",
          "type": "address"
        }
      ],
      "name": "removeDoctorAccess",
      "outputs": [],
      "payable": false,
      "stateMutability": "nonpayable",
      "type": "function"
    },
    {
      "constant": false,
      "inputs": [
        {
          "internalType": "uint256",
          "name": "patientId",
          "type": "uint256"
        },
        {
          "internalType": "address",
          "name": "nurseAddress",
          "type": "address"
        }
      ],
      "name": "giveNurseAccess",
      "outputs": [],
      "payable": false,
      "stateMutability": "nonpayable",
      "type": "function"
    },
    {
      "constant": false,
      "inputs": [
        {
          "internalType": "uint256",
          "name": "patientId",
          "type": "uint256"
        },
        {
          "internalType": "address",
          "name": "nurseAddress",
          "type": "address"
        }
      ],
      "name": "removeNurseAccess",
      "outputs": [],
      "payable": false,
      "stateMutability": "nonpayable",
      "type": "function"
    },
    {
      "constant": true,
      "inputs": [
        {
          "internalType": "uint256",
          "name": "patientId",
          "type": "uint256"
        }
      ],
      "name": "getFirstName",
      "outputs": [
        {
          "internalType": "string",
          "name": "",
          "type": "string"
        }
      ],
      "payable": false,
      "stateMutability": "view",
      "type": "function"
    },
    {
      "constant": false,
      "inputs": [
        {
          "internalType": "uint256",
          "name": "patientId",
          "type": "uint256"
        },
        {
          "internalType": "string",
          "name": "_firstName",
          "type": "string"
        }
      ],
      "name": "setFirstName",
      "outputs": [],
      "payable": false,
      "stateMutability": "nonpayable",
      "type": "function"
    },
    {
      "constant": true,
      "inputs": [
        {
          "internalType": "uint256",
          "name": "patientId",
          "type": "uint256"
        }
      ],
      "name": "getLastName",
      "outputs": [
        {
          "internalType": "string",
          "name": "",
          "type": "string"
        }
      ],
      "payable": false,
      "stateMutability": "view",
      "type": "function"
    },
    {
      "constant": false,
      "inputs": [
        {
          "internalType": "uint256",
          "name": "patientId",
          "type": "uint256"
        },
        {
          "internalType": "string",
          "name": "_lastName",
          "type": "string"
        }
      ],
      "name": "setLastName",
      "outputs": [],
      "payable": false,
      "stateMutability": "nonpayable",
      "type": "function"
    },
    {
      "constant": true,
      "inputs": [
        {
          "internalType": "uint256",
          "name": "patientId",
          "type": "uint256"
        }
      ],
      "name": "getEmailAddress",
      "outputs": [
        {
          "internalType": "string",
          "name": "",
          "type": "string"
        }
      ],
      "payable": false,
      "stateMutability": "view",
      "type": "function"
    },
    {
      "constant": false,
      "inputs": [
        {
          "internalType": "uint256",
          "name": "patientId",
          "type": "uint256"
        },
        {
          "internalType": "string",
          "name": "_emailAddress",
          "type": "string"
        }
      ],
      "name": "setEmailAddress",
      "outputs": [],
      "payable": false,
      "stateMutability": "nonpayable",
      "type": "function"
    },
    {
      "constant": true,
      "inputs": [
        {
          "internalType": "uint256",
          "name": "patientId",
          "type": "uint256"
        }
      ],
      "name": "getDob",
      "outputs": [
        {
          "internalType": "string",
          "name": "",
          "type": "string"
        }
      ],
      "payable": false,
      "stateMutability": "view",
      "type": "function"
    },
    {
      "constant": false,
      "inputs": [
        {
          "internalType": "uint256",
          "name": "patientId",
          "type": "uint256"
        },
        {
          "internalType": "string",
          "name": "_dob",
          "type": "string"
        }
      ],
      "name": "setDob",
      "outputs": [],
      "payable": false,
      "stateMutability": "nonpayable",
      "type": "function"
    },
    {
      "constant": true,
      "inputs": [
        {
          "internalType": "uint256",
          "name": "patientId",
          "type": "uint256"
        }
      ],
      "name": "getSecondaryUser",
      "outputs": [
        {
          "internalType": "address",
          "name": "",
          "type": "address"
        }
      ],
      "payable": false,
      "stateMutability": "view",
      "type": "function"
    },
    {
      "constant": false,
      "inputs": [
        {
          "internalType": "uint256",
          "name": "patientId",
          "type": "uint256"
        },
        {
          "internalType": "address",
          "name": "_secondaryUser",
          "type": "address"
        }
      ],
      "name": "setSecondaryUser",
      "outputs": [],
      "payable": false,
      "stateMutability": "nonpayable",
      "type": "function"
    }
  ],
  "bytecode": "0x60806040526000805534801561001457600080fd5b50612284806100246000396000f3fe608060405234801561001057600080fd5b506004361061012c5760003560e01c80639ebd51f8116100ad578063d87ce24211610071578063d87ce24214610cf3578063e31e750c14610d41578063e384346314610de8578063fb3bf34814610e44578063fcda42c714610e625761012c565b80639ebd51f814610aa6578063b01df35114610b6b578063bb4182c314610bd1578063c412e7ba14610c1f578063cd4db77d14610c855761012c565b80633a17f75a116100f45780633a17f75a14610628578063452c3009146106ed5780635470e8041461073b57806371f26a5c1461078957806393119a831461084e5761012c565b8063067be5dc14610131578063096637501461017f578063172a56c114610433578063174029f6146104da5780632013fd1e14610581575b600080fd5b61017d6004803603604081101561014757600080fd5b8101908080359060200190929190803573ffffffffffffffffffffffffffffffffffffffff169060200190929190505050610f27565b005b61041d600480360360a081101561019557600080fd5b81019080803590602001906401000000008111156101b257600080fd5b8201836020820111156101c457600080fd5b803590602001918460018302840111640100000000831117156101e657600080fd5b91908080601f016020809104026020016040519081016040528093929190818152602001838380828437600081840152601f19601f8201169050808301925050505050505091929192908035906020019064010000000081111561024957600080fd5b82018360208201111561025b57600080fd5b8035906020019184600183028401116401000000008311171561027d57600080fd5b91908080601f016020809104026020016040519081016040528093929190818152602001838380828437600081840152601f19601f820116905080830192505050505050509192919290803590602001906401000000008111156102e057600080fd5b8201836020820111156102f257600080fd5b8035906020019184600183028401116401000000008311171561031457600080fd5b91908080601f016020809104026020016040519081016040528093929190818152602001838380828437600081840152601f19601f8201169050808301925050505050505091929192908035906020019064010000000081111561037757600080fd5b82018360208201111561038957600080fd5b803590602001918460018302840111640100000000831117156103ab57600080fd5b91908080601f016020809104026020016040519081016040528093929190818152602001838380828437600081840152601f19601f820116905080830192505050505050509192919290803573ffffffffffffffffffffffffffffffffffffffff169060200190929190505050611016565b6040518082815260200191505060405180910390f35b61045f6004803603602081101561044957600080fd5b8101908080359060200190929190505050611143565b6040518080602001828103825283818151815260200191508051906020019080838360005b8381101561049f578082015181840152602081019050610484565b50505050905090810190601f1680156104cc5780820380516001836020036101000a031916815260200191505b509250505060405180910390f35b610506600480360360208110156104f057600080fd5b810190808035906020019092919050505061127b565b6040518080602001828103825283818151815260200191508051906020019080838360005b8381101561054657808201518184015260208101905061052b565b50505050905090810190601f1680156105735780820380516001836020036101000a031916815260200191505b509250505060405180910390f35b6105ad6004803603602081101561059757600080fd5b81019080803590602001909291905050506113b3565b6040518080602001828103825283818151815260200191508051906020019080838360005b838110156105ed5780820151818401526020810190506105d2565b50505050905090810190601f16801561061a5780820380516001836020036101000a031916815260200191505b509250505060405180910390f35b6106eb6004803603604081101561063e57600080fd5b81019080803590602001909291908035906020019064010000000081111561066557600080fd5b82018360208201111561067757600080fd5b8035906020019184600183028401116401000000008311171561069957600080fd5b91908080601f016020809104026020016040519081016040528093929190818152602001838380828437600081840152601f19601f8201169050808301925050505050505091929192905050506114eb565b005b6107396004803603604081101561070357600080fd5b8101908080359060200190929190803573ffffffffffffffffffffffffffffffffffffffff16906020019092919050505061159a565b005b6107876004803603604081101561075157600080fd5b8101908080359060200190929190803573ffffffffffffffffffffffffffffffffffffffff169060200190929190505050611673565b005b61084c6004803603604081101561079f57600080fd5b8101908080359060200190929190803590602001906401000000008111156107c657600080fd5b8201836020820111156107d857600080fd5b803590602001918460018302840111640100000000831117156107fa57600080fd5b91908080601f016020809104026020016040519081016040528093929190818152602001838380828437600081840152601f19601f820116905080830192505050505050509192919290505050611762565b005b61087a6004803603602081101561086457600080fd5b8101908080359060200190929190505050611811565b604051808881526020018773ffffffffffffffffffffffffffffffffffffffff1673ffffffffffffffffffffffffffffffffffffffff168152602001806020018060200180602001806020018673ffffffffffffffffffffffffffffffffffffffff1673ffffffffffffffffffffffffffffffffffffffff16815260200185810385528a818151815260200191508051906020019080838360005b83811015610930578082015181840152602081019050610915565b50505050905090810190601f16801561095d5780820380516001836020036101000a031916815260200191505b50858103845289818151815260200191508051906020019080838360005b8381101561099657808201518184015260208101905061097b565b50505050905090810190601f1680156109c35780820380516001836020036101000a031916815260200191505b50858103835288818151815260200191508051906020019080838360005b838110156109fc5780820151818401526020810190506109e1565b50505050905090810190601f168015610a295780820380516001836020036101000a031916815260200191505b50858103825287818151815260200191508051906020019080838360005b83811015610a62578082015181840152602081019050610a47565b50505050905090810190601f168015610a8f5780820380516001836020036101000a031916815260200191505b509b50505050505050505050505060405180910390f35b610b6960048036036040811015610abc57600080fd5b810190808035906020019092919080359060200190640100000000811115610ae357600080fd5b820183602082011115610af557600080fd5b80359060200191846001830284011164010000000083111715610b1757600080fd5b91908080601f016020809104026020016040519081016040528093929190818152602001838380828437600081840152601f19601f820116905080830192505050505050509192919290505050611af3565b005b610bb760048036036040811015610b8157600080fd5b8101908080359060200190929190803573ffffffffffffffffffffffffffffffffffffffff169060200190929190505050611ba2565b604051808215151515815260200191505060405180910390f35b610c1d60048036036040811015610be757600080fd5b8101908080359060200190929190803573ffffffffffffffffffffffffffffffffffffffff169060200190929190505050611c0d565b005b610c6b60048036036040811015610c3557600080fd5b8101908080359060200190929190803573ffffffffffffffffffffffffffffffffffffffff169060200190929190505050611cfd565b604051808215151515815260200191505060405180910390f35b610cb160048036036020811015610c9b57600080fd5b8101908080359060200190929190505050611d68565b604051808273ffffffffffffffffffffffffffffffffffffffff1673ffffffffffffffffffffffffffffffffffffffff16815260200191505060405180910390f35b610d3f60048036036040811015610d0957600080fd5b8101908080359060200190929190803573ffffffffffffffffffffffffffffffffffffffff169060200190929190505050611e28565b005b610d6d60048036036020811015610d5757600080fd5b8101908080359060200190929190505050611f18565b6040518080602001828103825283818151815260200191508051906020019080838360005b83811015610dad578082015181840152602081019050610d92565b50505050905090810190601f168015610dda5780820380516001836020036101000a031916815260200191505b509250505060405180910390f35b610e2a60048036036020811015610dfe57600080fd5b81019080803573ffffffffffffffffffffffffffffffffffffffff169060200190929190505050612050565b604051808215151515815260200191505060405180910390f35b610e4c6120f5565b6040518082815260200191505060405180910390f35b610f2560048036036040811015610e7857600080fd5b810190808035906020019092919080359060200190640100000000811115610e9f57600080fd5b820183602082011115610eb157600080fd5b80359060200191846001830284011164010000000083111715610ed357600080fd5b91908080601f016020809104026020016040519081016040528093929190818152602001838380828437600081840152601f19601f8201169050808301925050505050505091929192905050506120fb565b005b816000548110610f3657600080fd5b823273ffffffffffffffffffffffffffffffffffffffff166001600083815260200190815260200160002060010160009054906101000a900473ffffffffffffffffffffffffffffffffffffffff1673ffffffffffffffffffffffffffffffffffffffff1614610fa557600080fd5b600180600086815260200190815260200160002060060160008573ffffffffffffffffffffffffffffffffffffffff1673ffffffffffffffffffffffffffffffffffffffff16815260200190815260200160002060006101000a81548160ff02191690831515021790555050505050565b6000806000808154809291906001019190505590506000600160008381526020019081526020016000209050818160000181905550338160010160006101000a81548173ffffffffffffffffffffffffffffffffffffffff021916908373ffffffffffffffffffffffffffffffffffffffff160217905550878160020190805190602001906110a69291906121aa565b50868160030190805190602001906110bf9291906121aa565b50858160040190805190602001906110d89291906121aa565b50848160050190805190602001906110f19291906121aa565b50838160090160006101000a81548173ffffffffffffffffffffffffffffffffffffffff021916908373ffffffffffffffffffffffffffffffffffffffff160217905550819250505095945050505050565b606081600054811061115457600080fd5b823273ffffffffffffffffffffffffffffffffffffffff166001600083815260200190815260200160002060010160009054906101000a900473ffffffffffffffffffffffffffffffffffffffff1673ffffffffffffffffffffffffffffffffffffffff16146111c357600080fd5b600160008581526020019081526020016000206002018054600181600116156101000203166002900480601f01602080910402602001604051908101604052809291908181526020018280546001816001161561010002031660029004801561126d5780601f106112425761010080835404028352916020019161126d565b820191906000526020600020905b81548152906001019060200180831161125057829003601f168201915b505050505092505050919050565b606081600054811061128c57600080fd5b823273ffffffffffffffffffffffffffffffffffffffff166001600083815260200190815260200160002060010160009054906101000a900473ffffffffffffffffffffffffffffffffffffffff1673ffffffffffffffffffffffffffffffffffffffff16146112fb57600080fd5b600160008581526020019081526020016000206003018054600181600116156101000203166002900480601f0160208091040260200160405190810160405280929190818152602001828054600181600116156101000203166002900480156113a55780601f1061137a576101008083540402835291602001916113a5565b820191906000526020600020905b81548152906001019060200180831161138857829003601f168201915b505050505092505050919050565b60608160005481106113c457600080fd5b823273ffffffffffffffffffffffffffffffffffffffff166001600083815260200190815260200160002060010160009054906101000a900473ffffffffffffffffffffffffffffffffffffffff1673ffffffffffffffffffffffffffffffffffffffff161461143357600080fd5b600160008581526020019081526020016000206005018054600181600116156101000203166002900480601f0160208091040260200160405190810160405280929190818152602001828054600181600116156101000203166002900480156114dd5780601f106114b2576101008083540402835291602001916114dd565b820191906000526020600020905b8154815290600101906020018083116114c057829003601f168201915b505050505092505050919050565b8160005481106114fa57600080fd5b823273ffffffffffffffffffffffffffffffffffffffff166001600083815260200190815260200160002060010160009054906101000a900473ffffffffffffffffffffffffffffffffffffffff1673ffffffffffffffffffffffffffffffffffffffff161461156957600080fd5b826001600086815260200190815260200160002060020190805190602001906115939291906121aa565b5050505050565b8160005481106115a957600080fd5b823273ffffffffffffffffffffffffffffffffffffffff166001600083815260200190815260200160002060010160009054906101000a900473ffffffffffffffffffffffffffffffffffffffff1673ffffffffffffffffffffffffffffffffffffffff161461161857600080fd5b826001600086815260200190815260200160002060090160006101000a81548173ffffffffffffffffffffffffffffffffffffffff021916908373ffffffffffffffffffffffffffffffffffffffff16021790555050505050565b81600054811061168257600080fd5b823273ffffffffffffffffffffffffffffffffffffffff166001600083815260200190815260200160002060010160009054906101000a900473ffffffffffffffffffffffffffffffffffffffff1673ffffffffffffffffffffffffffffffffffffffff16146116f157600080fd5b600180600086815260200190815260200160002060070160008573ffffffffffffffffffffffffffffffffffffffff1673ffffffffffffffffffffffffffffffffffffffff16815260200190815260200160002060006101000a81548160ff02191690831515021790555050505050565b81600054811061177157600080fd5b823273ffffffffffffffffffffffffffffffffffffffff166001600083815260200190815260200160002060010160009054906101000a900473ffffffffffffffffffffffffffffffffffffffff1673ffffffffffffffffffffffffffffffffffffffff16146117e057600080fd5b8260016000868152602001908152602001600020600501908051906020019061180a9291906121aa565b5050505050565b60016020528060005260406000206000915090508060000154908060010160009054906101000a900473ffffffffffffffffffffffffffffffffffffffff1690806002018054600181600116156101000203166002900480601f0160208091040260200160405190810160405280929190818152602001828054600181600116156101000203166002900480156118e95780601f106118be576101008083540402835291602001916118e9565b820191906000526020600020905b8154815290600101906020018083116118cc57829003601f168201915b505050505090806003018054600181600116156101000203166002900480601f0160208091040260200160405190810160405280929190818152602001828054600181600116156101000203166002900480156119875780601f1061195c57610100808354040283529160200191611987565b820191906000526020600020905b81548152906001019060200180831161196a57829003601f168201915b505050505090806004018054600181600116156101000203166002900480601f016020809104026020016040519081016040528092919081815260200182805460018160011615610100020316600290048015611a255780601f106119fa57610100808354040283529160200191611a25565b820191906000526020600020905b815481529060010190602001808311611a0857829003601f168201915b505050505090806005018054600181600116156101000203166002900480601f016020809104026020016040519081016040528092919081815260200182805460018160011615610100020316600290048015611ac35780601f10611a9857610100808354040283529160200191611ac3565b820191906000526020600020905b815481529060010190602001808311611aa657829003601f168201915b5050505050908060090160009054906101000a900473ffffffffffffffffffffffffffffffffffffffff16905087565b816000548110611b0257600080fd5b823273ffffffffffffffffffffffffffffffffffffffff166001600083815260200190815260200160002060010160009054906101000a900473ffffffffffffffffffffffffffffffffffffffff1673ffffffffffffffffffffffffffffffffffffffff1614611b7157600080fd5b82600160008681526020019081526020016000206004019080519060200190611b9b9291906121aa565b5050505050565b60006001600084815260200190815260200160002060060160008373ffffffffffffffffffffffffffffffffffffffff1673ffffffffffffffffffffffffffffffffffffffff16815260200190815260200160002060009054906101000a900460ff16905092915050565b816000548110611c1c57600080fd5b823273ffffffffffffffffffffffffffffffffffffffff166001600083815260200190815260200160002060010160009054906101000a900473ffffffffffffffffffffffffffffffffffffffff1673ffffffffffffffffffffffffffffffffffffffff1614611c8b57600080fd5b60006001600086815260200190815260200160002060060160008573ffffffffffffffffffffffffffffffffffffffff1673ffffffffffffffffffffffffffffffffffffffff16815260200190815260200160002060006101000a81548160ff02191690831515021790555050505050565b60006001600084815260200190815260200160002060070160008373ffffffffffffffffffffffffffffffffffffffff1673ffffffffffffffffffffffffffffffffffffffff16815260200190815260200160002060009054906101000a900460ff16905092915050565b6000816000548110611d7957600080fd5b823273ffffffffffffffffffffffffffffffffffffffff166001600083815260200190815260200160002060010160009054906101000a900473ffffffffffffffffffffffffffffffffffffffff1673ffffffffffffffffffffffffffffffffffffffff1614611de857600080fd5b6001600085815260200190815260200160002060090160009054906101000a900473ffffffffffffffffffffffffffffffffffffffff1692505050919050565b816000548110611e3757600080fd5b823273ffffffffffffffffffffffffffffffffffffffff166001600083815260200190815260200160002060010160009054906101000a900473ffffffffffffffffffffffffffffffffffffffff1673ffffffffffffffffffffffffffffffffffffffff1614611ea657600080fd5b60006001600086815260200190815260200160002060070160008573ffffffffffffffffffffffffffffffffffffffff1673ffffffffffffffffffffffffffffffffffffffff16815260200190815260200160002060006101000a81548160ff02191690831515021790555050505050565b6060816000548110611f2957600080fd5b823273ffffffffffffffffffffffffffffffffffffffff166001600083815260200190815260200160002060010160009054906101000a900473ffffffffffffffffffffffffffffffffffffffff1673ffffffffffffffffffffffffffffffffffffffff1614611f9857600080fd5b600160008581526020019081526020016000206004018054600181600116156101000203166002900480601f0160208091040260200160405190810160405280929190818152602001828054600181600116156101000203166002900480156120425780601f1061201757610100808354040283529160200191612042565b820191906000526020600020905b81548152906001019060200180831161202557829003601f168201915b505050505092505050919050565b600080600090505b6000548110156120ea5760006001600083815260200190815260200160002090508373ffffffffffffffffffffffffffffffffffffffff168160010160009054906101000a900473ffffffffffffffffffffffffffffffffffffffff1673ffffffffffffffffffffffffffffffffffffffff1614156120dc576001925050506120f0565b508080600101915050612058565b50600090505b919050565b60005481565b81600054811061210a57600080fd5b823273ffffffffffffffffffffffffffffffffffffffff166001600083815260200190815260200160002060010160009054906101000a900473ffffffffffffffffffffffffffffffffffffffff1673ffffffffffffffffffffffffffffffffffffffff161461217957600080fd5b826001600086815260200190815260200160002060030190805190602001906121a39291906121aa565b5050505050565b828054600181600116156101000203166002900490600052602060002090601f016020900481019282601f106121eb57805160ff1916838001178555612219565b82800160010185558215612219579182015b828111156122185782518255916020019190600101906121fd565b5b509050612226919061222a565b5090565b61224c91905b80821115612248576000816000905550600101612230565b5090565b9056fea265627a7a72315820271318561cf5a1b547aa2a0c99726d01e414c2c13fee99f87a2d6287c976f5f664736f6c63430005110032",
  "source": "pragma solidity ^0.5.0;\n\ncontract Patient {\n\n    struct patient {\n        uint256 patientId;\n        address owner;\n        string firstName;\n        string lastName;\n        string emailAddress;\n        string dob;\n        mapping(address => bool) approvedDoctors;\n        mapping(address => bool) approvedNurses;\n        mapping(address => bool) records;\n        address secondaryUser;\n    }\n\n    uint256 public numPatients = 0;\n    mapping(uint256 => patient) public patients;\n\n    // function to create patient\n    function create(string memory _firstName, string memory _lastName, string memory _emailAddress, string memory _dob, address _secondaryUser) public returns(uint256) {\n\n        uint256 newPatientId = numPatients++;\n\n        patient storage newPatient = patients[newPatientId];\n        newPatient.patientId = newPatientId;\n        newPatient.owner = msg.sender;\n        newPatient.firstName = _firstName;\n        newPatient.lastName = _lastName;\n        newPatient.emailAddress = _emailAddress;\n        newPatient.dob = _dob;\n        newPatient.secondaryUser = _secondaryUser;\n\n        return newPatientId;\n    }\n\n    // Modifiers\n\n    modifier ownerOnly(uint256 patientId) {\n        require(patients[patientId].owner == tx.origin);\n        _;\n    }\n\n    modifier validPatientId(uint256 patientId) {\n        require(patientId < numPatients);\n        _;\n    }\n\n    // Functions\n\n    // function patientExists(uint256 patientId) public view validPatientId(patientId) returns(bool) {\n    //     return patientId < numPatients;\n    // }\n\n    // function senderIsPatient(uint256 patientId) public view validPatientId(patientId) returns(bool) {\n    //     return patients[patientId].owner == tx.origin;\n    // }\n\n    function isApprovedDoctor(uint256 patientId, address doctorAddress) public view returns (bool) {\n        return patients[patientId].approvedDoctors[doctorAddress];\n    }\n\n    function isApprovedNurse(uint256 patientId, address nurseAddress) public view returns (bool) {\n        return patients[patientId].approvedNurses[nurseAddress];\n    }\n\n    // Loop through existing senders to check if address is a sender\n    function isSender(address owner) public view returns(bool) {\n        for (uint i = 0; i < numPatients; i++) {\n            patient storage temp = patients[i];\n            if (temp.owner == owner) {\n                return true;\n            }\n        }\n\n        return false;\n    }\n\n    function giveDoctorAccess(uint256 patientId, address doctorAddress) public validPatientId(patientId) ownerOnly(patientId) {\n        patients[patientId].approvedDoctors[doctorAddress] = true;\n    }\n\n    function removeDoctorAccess(uint256 patientId, address doctorAddress) public validPatientId(patientId) ownerOnly(patientId) {\n        patients[patientId].approvedDoctors[doctorAddress] = false;\n    }\n\n    function giveNurseAccess(uint256 patientId, address nurseAddress) public validPatientId(patientId) ownerOnly(patientId) {\n        patients[patientId].approvedNurses[nurseAddress] = true;\n    }\n\n    function removeNurseAccess(uint256 patientId, address nurseAddress) public validPatientId(patientId) ownerOnly(patientId) {\n        patients[patientId].approvedNurses[nurseAddress] = false;\n    }\n\n    // Getters and setters\n\n    function getFirstName(uint256 patientId) public view validPatientId(patientId) ownerOnly(patientId) returns(string memory) {\n        return patients[patientId].firstName;\n    }\n\n    function setFirstName(uint256 patientId, string memory _firstName) public validPatientId(patientId) ownerOnly(patientId)  {\n        patients[patientId].firstName = _firstName;\n    }\n\n    function getLastName(uint256 patientId) public view validPatientId(patientId) ownerOnly(patientId) returns(string memory) {\n        return patients[patientId].lastName;\n    }\n\n    function setLastName(uint256 patientId, string memory _lastName) public validPatientId(patientId) ownerOnly(patientId)  {\n        patients[patientId].lastName = _lastName;\n    }\n\n    function getEmailAddress(uint256 patientId) public view validPatientId(patientId) ownerOnly(patientId) returns(string memory) {\n        return patients[patientId].emailAddress;\n    }\n\n    function setEmailAddress(uint256 patientId, string memory _emailAddress) public validPatientId(patientId) ownerOnly(patientId) {\n        patients[patientId].emailAddress = _emailAddress;\n    }\n\n    function getDob(uint256 patientId) public view  validPatientId(patientId) ownerOnly(patientId) returns(string memory) {\n        return patients[patientId].dob;\n    }\n\n    function setDob(uint256 patientId, string memory _dob) public validPatientId(patientId) ownerOnly(patientId) {\n        patients[patientId].dob = _dob;\n    }\n\n    function getSecondaryUser(uint256 patientId) public view validPatientId(patientId) ownerOnly(patientId) returns(address) {\n        return patients[patientId].secondaryUser;\n    }\n\n    function setSecondaryUser(uint256 patientId, address _secondaryUser) public validPatientId(patientId) ownerOnly(patientId)  {\n        patients[patientId].secondaryUser = _secondaryUser;\n    }\n}",
  "sourcePath": "/Users/seantan/Documents/Code/School/IS4302/project/contracts/Patient.sol",
  "compiler": {
    "name": "solc",
    "version": "0.5.17+commit.d19bba13.Emscripten.clang"
  },
  "schemaVersion": "3.4.11",
  "updatedAt": "2023-03-27T06:43:09.526Z",
  "devdoc": {
    "methods": {}
  },
  "userdoc": {
    "methods": {}
  }
}