{
  "contractName": "Patient",
  "abi": [
    {
      "inputs": [
        {
          "internalType": "contract EHR",
          "name": "ehrAddress",
          "type": "address"
        }
      ],
      "payable": false,
      "stateMutability": "nonpayable",
      "type": "constructor"
    },
    {
      "anonymous": false,
      "inputs": [],
      "name": "AddressDoesNotBelongToAnyPatient",
      "type": "event"
    },
    {
      "anonymous": false,
      "inputs": [],
      "name": "GivingDoctorAccess",
      "type": "event"
    },
    {
      "anonymous": false,
      "inputs": [
        {
          "indexed": false,
          "internalType": "address",
          "name": "patientAddress",
          "type": "address"
        }
      ],
      "name": "PatientAdded",
      "type": "event"
    },
    {
      "anonymous": false,
      "inputs": [
        {
          "indexed": false,
          "internalType": "uint256",
          "name": "a",
          "type": "uint256"
        }
      ],
      "name": "printValue",
      "type": "event"
    },
    {
      "anonymous": false,
      "inputs": [],
      "name": "testTrigger",
      "type": "event"
    },
    {
      "constant": true,
      "inputs": [],
      "name": "numPatients",
      "outputs": [
        {
          "internalType": "uint256",
          "name": "",
          "type": "uint256"
        }
      ],
      "payable": false,
      "stateMutability": "view",
      "type": "function"
    },
    {
      "constant": true,
      "inputs": [
        {
          "internalType": "uint256",
          "name": "",
          "type": "uint256"
        }
      ],
      "name": "patients",
      "outputs": [
        {
          "internalType": "uint256",
          "name": "patientId",
          "type": "uint256"
        },
        {
          "internalType": "address",
          "name": "owner",
          "type": "address"
        },
        {
          "internalType": "string",
          "name": "firstName",
          "type": "string"
        },
        {
          "internalType": "string",
          "name": "lastName",
          "type": "string"
        },
        {
          "internalType": "string",
          "name": "emailAddress",
          "type": "string"
        },
        {
          "internalType": "string",
          "name": "dob",
          "type": "string"
        },
        {
          "internalType": "bool",
          "name": "approvedResearcher",
          "type": "bool"
        },
        {
          "internalType": "uint256",
          "name": "recordsCount",
          "type": "uint256"
        },
        {
          "internalType": "uint256",
          "name": "acknowledgedRecordsCount",
          "type": "uint256"
        },
        {
          "internalType": "address",
          "name": "secondaryUser",
          "type": "address"
        }
      ],
      "payable": false,
      "stateMutability": "view",
      "type": "function"
    },
    {
      "constant": false,
      "inputs": [
        {
          "internalType": "string",
          "name": "_firstName",
          "type": "string"
        },
        {
          "internalType": "string",
          "name": "_lastName",
          "type": "string"
        },
        {
          "internalType": "string",
          "name": "_emailAddress",
          "type": "string"
        },
        {
          "internalType": "string",
          "name": "_dob",
          "type": "string"
        },
        {
          "internalType": "bool",
          "name": "_approvedResearcher",
          "type": "bool"
        },
        {
          "internalType": "address",
          "name": "_secondaryUser",
          "type": "address"
        }
      ],
      "name": "create",
      "outputs": [
        {
          "internalType": "uint256",
          "name": "",
          "type": "uint256"
        }
      ],
      "payable": false,
      "stateMutability": "nonpayable",
      "type": "function"
    },
    {
      "constant": true,
      "inputs": [
        {
          "internalType": "uint256",
          "name": "patientId",
          "type": "uint256"
        }
      ],
      "name": "isValidPatientId",
      "outputs": [
        {
          "internalType": "bool",
          "name": "",
          "type": "bool"
        }
      ],
      "payable": false,
      "stateMutability": "view",
      "type": "function"
    },
    {
      "constant": true,
      "inputs": [
        {
          "internalType": "uint256",
          "name": "patientId",
          "type": "uint256"
        },
        {
          "internalType": "address",
          "name": "doctorAddress",
          "type": "address"
        }
      ],
      "name": "isApprovedDoctor",
      "outputs": [
        {
          "internalType": "bool",
          "name": "",
          "type": "bool"
        }
      ],
      "payable": false,
      "stateMutability": "view",
      "type": "function"
    },
    {
      "constant": true,
      "inputs": [
        {
          "internalType": "uint256",
          "name": "patientId",
          "type": "uint256"
        },
        {
          "internalType": "address",
          "name": "nurseAddress",
          "type": "address"
        }
      ],
      "name": "isApprovedNurse",
      "outputs": [
        {
          "internalType": "bool",
          "name": "",
          "type": "bool"
        }
      ],
      "payable": false,
      "stateMutability": "view",
      "type": "function"
    },
    {
      "constant": true,
      "inputs": [
        {
          "internalType": "address",
          "name": "owner",
          "type": "address"
        }
      ],
      "name": "isSender",
      "outputs": [
        {
          "internalType": "bool",
          "name": "",
          "type": "bool"
        }
      ],
      "payable": false,
      "stateMutability": "view",
      "type": "function"
    },
    {
      "constant": true,
      "inputs": [],
      "name": "getResearchPatients",
      "outputs": [
        {
          "internalType": "uint256[]",
          "name": "",
          "type": "uint256[]"
        }
      ],
      "payable": false,
      "stateMutability": "view",
      "type": "function"
    },
    {
      "constant": false,
      "inputs": [
        {
          "internalType": "uint256",
          "name": "patientId",
          "type": "uint256"
        },
        {
          "internalType": "uint256",
          "name": "recordId",
          "type": "uint256"
        }
      ],
      "name": "signOffRecord",
      "outputs": [],
      "payable": false,
      "stateMutability": "nonpayable",
      "type": "function"
    },
    {
      "constant": true,
      "inputs": [
        {
          "internalType": "address",
          "name": "patientAddress",
          "type": "address"
        }
      ],
      "name": "getPatientIdFromPatientAddress",
      "outputs": [
        {
          "internalType": "uint256",
          "name": "",
          "type": "uint256"
        }
      ],
      "payable": false,
      "stateMutability": "view",
      "type": "function"
    },
    {
      "constant": true,
      "inputs": [
        {
          "internalType": "uint256",
          "name": "patientId",
          "type": "uint256"
        }
      ],
      "name": "viewAllRecords",
      "outputs": [
        {
          "internalType": "uint256[]",
          "name": "",
          "type": "uint256[]"
        }
      ],
      "payable": false,
      "stateMutability": "view",
      "type": "function"
    },
    {
      "constant": true,
      "inputs": [
        {
          "internalType": "uint256",
          "name": "patientId",
          "type": "uint256"
        }
      ],
      "name": "viewAllAcknowledgedRecords",
      "outputs": [
        {
          "internalType": "uint256[]",
          "name": "",
          "type": "uint256[]"
        }
      ],
      "payable": false,
      "stateMutability": "view",
      "type": "function"
    },
    {
      "constant": true,
      "inputs": [
        {
          "internalType": "uint256",
          "name": "patientId",
          "type": "uint256"
        },
        {
          "internalType": "address",
          "name": "doctorAddress",
          "type": "address"
        }
      ],
      "name": "viewRecordsByDoctor",
      "outputs": [
        {
          "internalType": "uint256[]",
          "name": "",
          "type": "uint256[]"
        }
      ],
      "payable": false,
      "stateMutability": "view",
      "type": "function"
    },
    {
      "constant": true,
      "inputs": [
        {
          "internalType": "uint256",
          "name": "patientId",
          "type": "uint256"
        },
        {
          "internalType": "address",
          "name": "doctorAddress",
          "type": "address"
        }
      ],
      "name": "numberOfRecordByDoctor",
      "outputs": [
        {
          "internalType": "uint256",
          "name": "",
          "type": "uint256"
        }
      ],
      "payable": false,
      "stateMutability": "view",
      "type": "function"
    },
    {
      "constant": true,
      "inputs": [
        {
          "internalType": "uint256",
          "name": "patientId",
          "type": "uint256"
        },
        {
          "internalType": "enum EHR.RecordType",
          "name": "recordType",
          "type": "uint8"
        }
      ],
      "name": "viewRecordsByRecordType",
      "outputs": [
        {
          "internalType": "uint256[]",
          "name": "",
          "type": "uint256[]"
        }
      ],
      "payable": false,
      "stateMutability": "view",
      "type": "function"
    },
    {
      "constant": true,
      "inputs": [
        {
          "internalType": "uint256",
          "name": "patientId",
          "type": "uint256"
        },
        {
          "internalType": "enum EHR.RecordType",
          "name": "recordType",
          "type": "uint8"
        }
      ],
      "name": "numberOfRecordType",
      "outputs": [
        {
          "internalType": "uint256",
          "name": "",
          "type": "uint256"
        }
      ],
      "payable": false,
      "stateMutability": "view",
      "type": "function"
    },
    {
      "constant": true,
      "inputs": [
        {
          "internalType": "uint256",
          "name": "patientId",
          "type": "uint256"
        },
        {
          "internalType": "uint256",
          "name": "recordId",
          "type": "uint256"
        }
      ],
      "name": "isRecordAcknowledged",
      "outputs": [
        {
          "internalType": "bool",
          "name": "",
          "type": "bool"
        }
      ],
      "payable": false,
      "stateMutability": "view",
      "type": "function"
    },
    {
      "constant": false,
      "inputs": [
        {
          "internalType": "uint256",
          "name": "patientId",
          "type": "uint256"
        },
        {
          "internalType": "address",
          "name": "doctorAddress",
          "type": "address"
        }
      ],
      "name": "giveDoctorAccess",
      "outputs": [],
      "payable": false,
      "stateMutability": "nonpayable",
      "type": "function"
    },
    {
      "constant": false,
      "inputs": [
        {
          "internalType": "uint256",
          "name": "patientId",
          "type": "uint256"
        },
        {
          "internalType": "address",
          "name": "doctorAddress",
          "type": "address"
        }
      ],
      "name": "removeDoctorAccess",
      "outputs": [],
      "payable": false,
      "stateMutability": "nonpayable",
      "type": "function"
    },
    {
      "constant": false,
      "inputs": [
        {
          "internalType": "uint256",
          "name": "patientId",
          "type": "uint256"
        },
        {
          "internalType": "address",
          "name": "nurseAddress",
          "type": "address"
        }
      ],
      "name": "giveNurseAccess",
      "outputs": [],
      "payable": false,
      "stateMutability": "nonpayable",
      "type": "function"
    },
    {
      "constant": false,
      "inputs": [
        {
          "internalType": "uint256",
          "name": "patientId",
          "type": "uint256"
        },
        {
          "internalType": "address",
          "name": "nurseAddress",
          "type": "address"
        }
      ],
      "name": "removeNurseAccess",
      "outputs": [],
      "payable": false,
      "stateMutability": "nonpayable",
      "type": "function"
    },
    {
      "constant": false,
      "inputs": [
        {
          "internalType": "uint256",
          "name": "patientId",
          "type": "uint256"
        },
        {
          "internalType": "uint256",
          "name": "recordId",
          "type": "uint256"
        }
      ],
      "name": "addEHR",
      "outputs": [],
      "payable": false,
      "stateMutability": "nonpayable",
      "type": "function"
    },
    {
      "constant": false,
      "inputs": [
        {
          "internalType": "uint256",
          "name": "patientId",
          "type": "uint256"
        },
        {
          "internalType": "uint256",
          "name": "recordId",
          "type": "uint256"
        }
      ],
      "name": "removeEHR",
      "outputs": [],
      "payable": false,
      "stateMutability": "nonpayable",
      "type": "function"
    },
    {
      "constant": false,
      "inputs": [
        {
          "internalType": "uint256",
          "name": "patientId",
          "type": "uint256"
        }
      ],
      "name": "giveResearcherAccess",
      "outputs": [],
      "payable": false,
      "stateMutability": "nonpayable",
      "type": "function"
    },
    {
      "constant": true,
      "inputs": [
        {
          "internalType": "uint256",
          "name": "patientId",
          "type": "uint256"
        }
      ],
      "name": "practitionerGetRecordsCount",
      "outputs": [
        {
          "internalType": "uint256",
          "name": "",
          "type": "uint256"
        }
      ],
      "payable": false,
      "stateMutability": "view",
      "type": "function"
    },
    {
      "constant": true,
      "inputs": [
        {
          "internalType": "uint256",
          "name": "patientId",
          "type": "uint256"
        }
      ],
      "name": "getFirstName",
      "outputs": [
        {
          "internalType": "string",
          "name": "",
          "type": "string"
        }
      ],
      "payable": false,
      "stateMutability": "view",
      "type": "function"
    },
    {
      "constant": false,
      "inputs": [
        {
          "internalType": "uint256",
          "name": "patientId",
          "type": "uint256"
        },
        {
          "internalType": "string",
          "name": "_firstName",
          "type": "string"
        }
      ],
      "name": "setFirstName",
      "outputs": [],
      "payable": false,
      "stateMutability": "nonpayable",
      "type": "function"
    },
    {
      "constant": true,
      "inputs": [
        {
          "internalType": "uint256",
          "name": "patientId",
          "type": "uint256"
        }
      ],
      "name": "getLastName",
      "outputs": [
        {
          "internalType": "string",
          "name": "",
          "type": "string"
        }
      ],
      "payable": false,
      "stateMutability": "view",
      "type": "function"
    },
    {
      "constant": false,
      "inputs": [
        {
          "internalType": "uint256",
          "name": "patientId",
          "type": "uint256"
        },
        {
          "internalType": "string",
          "name": "_lastName",
          "type": "string"
        }
      ],
      "name": "setLastName",
      "outputs": [],
      "payable": false,
      "stateMutability": "nonpayable",
      "type": "function"
    },
    {
      "constant": true,
      "inputs": [
        {
          "internalType": "uint256",
          "name": "patientId",
          "type": "uint256"
        }
      ],
      "name": "getEmailAddress",
      "outputs": [
        {
          "internalType": "string",
          "name": "",
          "type": "string"
        }
      ],
      "payable": false,
      "stateMutability": "view",
      "type": "function"
    },
    {
      "constant": false,
      "inputs": [
        {
          "internalType": "uint256",
          "name": "patientId",
          "type": "uint256"
        },
        {
          "internalType": "string",
          "name": "_emailAddress",
          "type": "string"
        }
      ],
      "name": "setEmailAddress",
      "outputs": [],
      "payable": false,
      "stateMutability": "nonpayable",
      "type": "function"
    },
    {
      "constant": true,
      "inputs": [
        {
          "internalType": "uint256",
          "name": "patientId",
          "type": "uint256"
        }
      ],
      "name": "getDob",
      "outputs": [
        {
          "internalType": "string",
          "name": "",
          "type": "string"
        }
      ],
      "payable": false,
      "stateMutability": "view",
      "type": "function"
    },
    {
      "constant": false,
      "inputs": [
        {
          "internalType": "uint256",
          "name": "patientId",
          "type": "uint256"
        },
        {
          "internalType": "string",
          "name": "_dob",
          "type": "string"
        }
      ],
      "name": "setDob",
      "outputs": [],
      "payable": false,
      "stateMutability": "nonpayable",
      "type": "function"
    },
    {
      "constant": true,
      "inputs": [
        {
          "internalType": "uint256",
          "name": "patientId",
          "type": "uint256"
        },
        {
          "internalType": "address",
          "name": "doctorAddress",
          "type": "address"
        }
      ],
      "name": "isDoctorApproved",
      "outputs": [
        {
          "internalType": "bool",
          "name": "",
          "type": "bool"
        }
      ],
      "payable": false,
      "stateMutability": "view",
      "type": "function"
    },
    {
      "constant": true,
      "inputs": [
        {
          "internalType": "uint256",
          "name": "patientId",
          "type": "uint256"
        },
        {
          "internalType": "address",
          "name": "nurseAddress",
          "type": "address"
        }
      ],
      "name": "isNurseApproved",
      "outputs": [
        {
          "internalType": "bool",
          "name": "",
          "type": "bool"
        }
      ],
      "payable": false,
      "stateMutability": "view",
      "type": "function"
    },
    {
      "constant": true,
      "inputs": [
        {
          "internalType": "uint256",
          "name": "patientId",
          "type": "uint256"
        }
      ],
      "name": "getApprovedReseacher",
      "outputs": [
        {
          "internalType": "bool",
          "name": "",
          "type": "bool"
        }
      ],
      "payable": false,
      "stateMutability": "view",
      "type": "function"
    },
    {
      "constant": false,
      "inputs": [
        {
          "internalType": "uint256",
          "name": "patientId",
          "type": "uint256"
        },
        {
          "internalType": "bool",
          "name": "_approvedResearcher",
          "type": "bool"
        }
      ],
      "name": "setApprovedResearcher",
      "outputs": [],
      "payable": false,
      "stateMutability": "nonpayable",
      "type": "function"
    },
    {
      "constant": true,
      "inputs": [
        {
          "internalType": "uint256",
          "name": "patientId",
          "type": "uint256"
        }
      ],
      "name": "getRecordsCount",
      "outputs": [
        {
          "internalType": "uint256",
          "name": "",
          "type": "uint256"
        }
      ],
      "payable": false,
      "stateMutability": "view",
      "type": "function"
    },
    {
      "constant": false,
      "inputs": [
        {
          "internalType": "uint256",
          "name": "patientId",
          "type": "uint256"
        },
        {
          "internalType": "uint256",
          "name": "_recordsCount",
          "type": "uint256"
        }
      ],
      "name": "setRecordsCount",
      "outputs": [],
      "payable": false,
      "stateMutability": "nonpayable",
      "type": "function"
    },
    {
      "constant": true,
      "inputs": [
        {
          "internalType": "uint256",
          "name": "patientId",
          "type": "uint256"
        }
      ],
      "name": "getAcknowledgedRecordsCount",
      "outputs": [
        {
          "internalType": "uint256",
          "name": "",
          "type": "uint256"
        }
      ],
      "payable": false,
      "stateMutability": "view",
      "type": "function"
    },
    {
      "constant": false,
      "inputs": [
        {
          "internalType": "uint256",
          "name": "patientId",
          "type": "uint256"
        },
        {
          "internalType": "uint256",
          "name": "_acknowledgedRecordsCount",
          "type": "uint256"
        }
      ],
      "name": "setAcknowledgedRecordsCount",
      "outputs": [],
      "payable": false,
      "stateMutability": "nonpayable",
      "type": "function"
    },
    {
      "constant": true,
      "inputs": [
        {
          "internalType": "uint256",
          "name": "patientId",
          "type": "uint256"
        }
      ],
      "name": "getSecondaryUser",
      "outputs": [
        {
          "internalType": "address",
          "name": "",
          "type": "address"
        }
      ],
      "payable": false,
      "stateMutability": "view",
      "type": "function"
    },
    {
      "constant": false,
      "inputs": [
        {
          "internalType": "uint256",
          "name": "patientId",
          "type": "uint256"
        },
        {
          "internalType": "address",
          "name": "_secondaryUser",
          "type": "address"
        }
      ],
      "name": "setSecondaryUser",
      "outputs": [],
      "payable": false,
      "stateMutability": "nonpayable",
      "type": "function"
    },
    {
      "constant": true,
      "inputs": [
        {
          "internalType": "uint256",
          "name": "patientId",
          "type": "uint256"
        }
      ],
      "name": "getData",
      "outputs": [
        {
          "internalType": "uint256",
          "name": "id",
          "type": "uint256"
        },
        {
          "internalType": "string",
          "name": "firstName",
          "type": "string"
        },
        {
          "internalType": "string",
          "name": "lastName",
          "type": "string"
        },
        {
          "internalType": "string",
          "name": "emailAddress",
          "type": "string"
        },
        {
          "internalType": "string",
          "name": "dob",
          "type": "string"
        }
      ],
      "payable": false,
      "stateMutability": "view",
      "type": "function"
    },
    {
      "constant": true,
      "inputs": [
        {
          "internalType": "uint256",
          "name": "patientId",
          "type": "uint256"
        }
      ],
      "name": "getPatientAddress",
      "outputs": [
        {
          "internalType": "address",
          "name": "",
          "type": "address"
        }
      ],
      "payable": false,
      "stateMutability": "view",
      "type": "function"
    }
  ],
  "bytecode": "0x608060405260006001553480156200001657600080fd5b50604051620057eb380380620057eb833981810160405260208110156200003c57600080fd5b8101908080519060200190929190505050806000806101000a81548173ffffffffffffffffffffffffffffffffffffffff021916908373ffffffffffffffffffffffffffffffffffffffff1602179055505061574d806200009e6000396000f3fe608060405234801561001057600080fd5b506004361061027f5760003560e01c8063834fa06e1161015c578063b01df351116100ce578063d87ce24211610087578063d87ce24214611820578063e31e750c1461186e578063e384346314611915578063eb8a79b014611971578063fb3bf348146119ab578063fcda42c7146119c95761027f565b8063b01df351146115fa578063babef8f614611660578063bb4182c3146116c6578063c412e7ba14611714578063c7be8aad1461177a578063cd4db77d146117b25761027f565b80639ebd51f8116101205780639ebd51f8146113ad5780639f95d9c614611472578063a3005b49146114d8578063a3f477f414611530578063a533e1f814611568578063a605e44d146115b85761027f565b8063834fa06e1461100357806385cd3461146110495780638a9ab60e1461108157806393119a83146110b9578063942377191461132a5761027f565b8063416939d3116101f557806356e9af3a116101b957806356e9af3a14610b5357806369019cc814610e135780636f8288df14610e755780636faaecaa14610ead57806371f26a5c14610eef5780637a2c3d7e14610fb45761027f565b8063416939d31461098c578063452c3009146109ce5780634976b3b514610a1c5780634b65437814610abf5780635470e80414610b055761027f565b8063174029f611610247578063174029f6146106385780631bcec2e8146106df5780632013fd1e14610762578063303c96721461080957806336b7a09c146108375780633a17f75a146108c75761027f565b80630178fe3f14610284578063067be5dc14610476578063097ee8cd146104c457806311fc621d14610532578063172a56c114610591575b600080fd5b6102b06004803603602081101561029a57600080fd5b8101908080359060200190929190505050611a8e565b6040518086815260200180602001806020018060200180602001858103855289818151815260200191508051906020019080838360005b838110156103025780820151818401526020810190506102e7565b50505050905090810190601f16801561032f5780820380516001836020036101000a031916815260200191505b50858103845288818151815260200191508051906020019080838360005b8381101561036857808201518184015260208101905061034d565b50505050905090810190601f1680156103955780820380516001836020036101000a031916815260200191505b50858103835287818151815260200191508051906020019080838360005b838110156103ce5780820151818401526020810190506103b3565b50505050905090810190601f1680156103fb5780820380516001836020036101000a031916815260200191505b50858103825286818151815260200191508051906020019080838360005b83811015610434578082015181840152602081019050610419565b50505050905090810190601f1680156104615780820380516001836020036101000a031916815260200191505b50995050505050505050505060405180910390f35b6104c26004803603604081101561048c57600080fd5b8101908080359060200190929190803573ffffffffffffffffffffffffffffffffffffffff169060200190929190505050611d88565b005b6104f0600480360360208110156104da57600080fd5b8101908080359060200190929190505050611f2d565b604051808273ffffffffffffffffffffffffffffffffffffffff1673ffffffffffffffffffffffffffffffffffffffff16815260200191505060405180910390f35b61053a611fe6565b6040518080602001828103825283818151815260200191508051906020019060200280838360005b8381101561057d578082015181840152602081019050610562565b505050509050019250505060405180910390f35b6105bd600480360360208110156105a757600080fd5b81019080803590602001909291905050506120e8565b6040518080602001828103825283818151815260200191508051906020019080838360005b838110156105fd5780820151818401526020810190506105e2565b50505050905090810190601f16801561062a5780820380516001836020036101000a031916815260200191505b509250505060405180910390f35b6106646004803603602081101561064e57600080fd5b81019080803590602001909291905050506122d5565b6040518080602001828103825283818151815260200191508051906020019080838360005b838110156106a4578082015181840152602081019050610689565b50505050905090810190601f1680156106d15780820380516001836020036101000a031916815260200191505b509250505060405180910390f35b61070b600480360360208110156106f557600080fd5b81019080803590602001909291905050506124c2565b6040518080602001828103825283818151815260200191508051906020019060200280838360005b8381101561074e578082015181840152602081019050610733565b505050509050019250505060405180910390f35b61078e6004803603602081101561077857600080fd5b81019080803590602001909291905050506126e5565b6040518080602001828103825283818151815260200191508051906020019080838360005b838110156107ce5780820151818401526020810190506107b3565b50505050905090810190601f1680156107fb5780820380516001836020036101000a031916815260200191505b509250505060405180910390f35b6108356004803603602081101561081f57600080fd5b81019080803590602001909291905050506128d2565b005b6108706004803603604081101561084d57600080fd5b8101908080359060200190929190803560ff169060200190929190505050612a39565b6040518080602001828103825283818151815260200191508051906020019060200280838360005b838110156108b3578082015181840152602081019050610898565b505050509050019250505060405180910390f35b61098a600480360360408110156108dd57600080fd5b81019080803590602001909291908035906020019064010000000081111561090457600080fd5b82018360208201111561091657600080fd5b8035906020019184600183028401116401000000008311171561093857600080fd5b91908080601f016020809104026020016040519081016040528093929190818152602001838380828437600081840152601f19601f820116905080830192505050505050509192919290505050612bcf565b005b6109b8600480360360208110156109a257600080fd5b8101908080359060200190929190505050612d33565b6040518082815260200191505060405180910390f35b610a1a600480360360408110156109e457600080fd5b8101908080359060200190929190803573ffffffffffffffffffffffffffffffffffffffff169060200190929190505050612dcc565b005b610a6860048036036040811015610a3257600080fd5b8101908080359060200190929190803573ffffffffffffffffffffffffffffffffffffffff169060200190929190505050612f5a565b6040518080602001828103825283818151815260200191508051906020019060200280838360005b83811015610aab578082015181840152602081019050610a90565b505050509050019250505060405180910390f35b610aeb60048036036020811015610ad557600080fd5b810190808035906020019092919050505061310e565b604051808215151515815260200191505060405180910390f35b610b5160048036036040811015610b1b57600080fd5b8101908080359060200190929190803573ffffffffffffffffffffffffffffffffffffffff16906020019092919050505061312d565b005b610dfd600480360360c0811015610b6957600080fd5b8101908080359060200190640100000000811115610b8657600080fd5b820183602082011115610b9857600080fd5b80359060200191846001830284011164010000000083111715610bba57600080fd5b91908080601f016020809104026020016040519081016040528093929190818152602001838380828437600081840152601f19601f82011690508083019250505050505050919291929080359060200190640100000000811115610c1d57600080fd5b820183602082011115610c2f57600080fd5b80359060200191846001830284011164010000000083111715610c5157600080fd5b91908080601f016020809104026020016040519081016040528093929190818152602001838380828437600081840152601f19601f82011690508083019250505050505050919291929080359060200190640100000000811115610cb457600080fd5b820183602082011115610cc657600080fd5b80359060200191846001830284011164010000000083111715610ce857600080fd5b91908080601f016020809104026020016040519081016040528093929190818152602001838380828437600081840152601f19601f82011690508083019250505050505050919291929080359060200190640100000000811115610d4b57600080fd5b820183602082011115610d5d57600080fd5b80359060200191846001830284011164010000000083111715610d7f57600080fd5b91908080601f016020809104026020016040519081016040528093929190818152602001838380828437600081840152601f19601f820116905080830192505050505050509192919290803515159060200190929190803573ffffffffffffffffffffffffffffffffffffffff1690602001909291905050506132d2565b6040518082815260200191505060405180910390f35b610e5f60048036036040811015610e2957600080fd5b8101908080359060200190929190803573ffffffffffffffffffffffffffffffffffffffff169060200190929190505050613584565b6040518082815260200191505060405180910390f35b610eab60048036036040811015610e8b57600080fd5b8101908080359060200190929190803590602001909291905050506136cf565b005b610ed960048036036020811015610ec357600080fd5b8101908080359060200190929190505050613823565b6040518082815260200191505060405180910390f35b610fb260048036036040811015610f0557600080fd5b810190808035906020019092919080359060200190640100000000811115610f2c57600080fd5b820183602082011115610f3e57600080fd5b80359060200191846001830284011164010000000083111715610f6057600080fd5b91908080601f016020809104026020016040519081016040528093929190818152602001838380828437600081840152601f19601f820116905080830192505050505050509192919290505050613978565b005b610fed60048036036040811015610fca57600080fd5b8101908080359060200190929190803560ff169060200190929190505050613adc565b6040518082815260200191505060405180910390f35b61102f6004803603602081101561101957600080fd5b8101908080359060200190929190505050613c0f565b604051808215151515815260200191505060405180910390f35b61107f6004803603604081101561105f57600080fd5b810190808035906020019092919080359060200190929190505050613cb5565b005b6110b76004803603604081101561109757600080fd5b810190808035906020019092919080359060200190929190505050613d98565b005b6110e5600480360360208110156110cf57600080fd5b8101908080359060200190929190505050613eec565b604051808b81526020018a73ffffffffffffffffffffffffffffffffffffffff1673ffffffffffffffffffffffffffffffffffffffff16815260200180602001806020018060200180602001891515151581526020018881526020018781526020018673ffffffffffffffffffffffffffffffffffffffff1673ffffffffffffffffffffffffffffffffffffffff16815260200185810385528d818151815260200191508051906020019080838360005b838110156111b1578082015181840152602081019050611196565b50505050905090810190601f1680156111de5780820380516001836020036101000a031916815260200191505b5085810384528c818151815260200191508051906020019080838360005b838110156112175780820151818401526020810190506111fc565b50505050905090810190601f1680156112445780820380516001836020036101000a031916815260200191505b5085810383528b818151815260200191508051906020019080838360005b8381101561127d578082015181840152602081019050611262565b50505050905090810190601f1680156112aa5780820380516001836020036101000a031916815260200191505b5085810382528a818151815260200191508051906020019080838360005b838110156112e35780820151818401526020810190506112c8565b50505050905090810190601f1680156113105780820380516001836020036101000a031916815260200191505b509e50505050505050505050505050505060405180910390f35b6113566004803603602081101561134057600080fd5b81019080803590602001909291905050506141ed565b6040518080602001828103825283818151815260200191508051906020019060200280838360005b8381101561139957808201518184015260208101905061137e565b505050509050019250505060405180910390f35b611470600480360360408110156113c357600080fd5b8101908080359060200190929190803590602001906401000000008111156113ea57600080fd5b8201836020820111156113fc57600080fd5b8035906020019184600183028401116401000000008311171561141e57600080fd5b91908080601f016020809104026020016040519081016040528093929190818152602001838380828437600081840152601f19601f82011690508083019250505050505050919291929050505061440c565b005b6114be6004803603604081101561148857600080fd5b8101908080359060200190929190803573ffffffffffffffffffffffffffffffffffffffff169060200190929190505050614570565b604051808215151515815260200191505060405180910390f35b61151a600480360360208110156114ee57600080fd5b81019080803573ffffffffffffffffffffffffffffffffffffffff1690602001909291905050506145db565b6040518082815260200191505060405180910390f35b6115666004803603604081101561154657600080fd5b810190808035906020019092919080359060200190929190505050614697565b005b61159e6004803603604081101561157e57600080fd5b81019080803590602001909291908035906020019092919050505061474d565b604051808215151515815260200191505060405180910390f35b6115e4600480360360208110156115ce57600080fd5b81019080803590602001909291905050506148c1565b6040518082815260200191505060405180910390f35b6116466004803603604081101561161057600080fd5b8101908080359060200190929190803573ffffffffffffffffffffffffffffffffffffffff1690602001909291905050506149dc565b604051808215151515815260200191505060405180910390f35b6116ac6004803603604081101561167657600080fd5b8101908080359060200190929190803573ffffffffffffffffffffffffffffffffffffffff169060200190929190505050614a47565b604051808215151515815260200191505060405180910390f35b611712600480360360408110156116dc57600080fd5b8101908080359060200190929190803573ffffffffffffffffffffffffffffffffffffffff169060200190929190505050614ab2565b005b6117606004803603604081101561172a57600080fd5b8101908080359060200190929190803573ffffffffffffffffffffffffffffffffffffffff169060200190929190505050614c57565b604051808215151515815260200191505060405180910390f35b6117b06004803603604081101561179057600080fd5b810190808035906020019092919080359060200190929190505050614cc2565b005b6117de600480360360208110156117c857600080fd5b8101908080359060200190929190505050614da6565b604051808273ffffffffffffffffffffffffffffffffffffffff1673ffffffffffffffffffffffffffffffffffffffff16815260200191505060405180910390f35b61186c6004803603604081101561183657600080fd5b8101908080359060200190929190803573ffffffffffffffffffffffffffffffffffffffff169060200190929190505050614f1b565b005b61189a6004803603602081101561188457600080fd5b81019080803590602001909291905050506150c0565b6040518080602001828103825283818151815260200191508051906020019080838360005b838110156118da5780820151818401526020810190506118bf565b50505050905090810190601f1680156119075780820380516001836020036101000a031916815260200191505b509250505060405180910390f35b6119576004803603602081101561192b57600080fd5b81019080803573ffffffffffffffffffffffffffffffffffffffff1690602001909291905050506152ad565b604051808215151515815260200191505060405180910390f35b6119a96004803603604081101561198757600080fd5b810190808035906020019092919080351515906020019092919050505061534b565b005b6119b36154b2565b6040518082815260200191505060405180910390f35b611a8c600480360360408110156119df57600080fd5b810190808035906020019092919080359060200190640100000000811115611a0657600080fd5b820183602082011115611a1857600080fd5b80359060200191846001830284011164010000000083111715611a3a57600080fd5b91908080601f016020809104026020016040519081016040528093929190818152602001838380828437600081840152601f19601f8201169050808301925050505050505091929192905050506154b8565b005b600060608060608060026000878152602001908152602001600020600001546002600088815260200190815260200160002060020160026000898152602001908152602001600020600301600260008a8152602001908152602001600020600401600260008b8152602001908152602001600020600501838054600181600116156101000203166002900480601f016020809104026020016040519081016040528092919081815260200182805460018160011615610100020316600290048015611b9a5780601f10611b6f57610100808354040283529160200191611b9a565b820191906000526020600020905b815481529060010190602001808311611b7d57829003601f168201915b50505050509350828054600181600116156101000203166002900480601f016020809104026020016040519081016040528092919081815260200182805460018160011615610100020316600290048015611c365780601f10611c0b57610100808354040283529160200191611c36565b820191906000526020600020905b815481529060010190602001808311611c1957829003601f168201915b50505050509250818054600181600116156101000203166002900480601f016020809104026020016040519081016040528092919081815260200182805460018160011615610100020316600290048015611cd25780601f10611ca757610100808354040283529160200191611cd2565b820191906000526020600020905b815481529060010190602001808311611cb557829003601f168201915b50505050509150808054600181600116156101000203166002900480601f016020809104026020016040519081016040528092919081815260200182805460018160011615610100020316600290048015611d6e5780601f10611d4357610100808354040283529160200191611d6e565b820191906000526020600020905b815481529060010190602001808311611d5157829003601f168201915b505050505090509450945094509450945091939590929450565b816001548110611e00576040517f08c379a00000000000000000000000000000000000000000000000000000000081526004018080602001828103825260138152602001807f496e76616c69642070617469656e74204964210000000000000000000000000081525060200191505060405180910390fd5b823273ffffffffffffffffffffffffffffffffffffffff166002600083815260200190815260200160002060010160009054906101000a900473ffffffffffffffffffffffffffffffffffffffff1673ffffffffffffffffffffffffffffffffffffffff1614611ebb576040517f08c379a00000000000000000000000000000000000000000000000000000000081526004018080602001828103825260298152602001806156c26029913960400191505060405180910390fd5b60016002600086815260200190815260200160002060070160008573ffffffffffffffffffffffffffffffffffffffff1673ffffffffffffffffffffffffffffffffffffffff16815260200190815260200160002060006101000a81548160ff02191690831515021790555050505050565b6000816001548110611fa7576040517f08c379a00000000000000000000000000000000000000000000000000000000081526004018080602001828103825260138152602001807f496e76616c69642070617469656e74204964210000000000000000000000000081525060200191505060405180910390fd5b6002600084815260200190815260200160002060010160009054906101000a900473ffffffffffffffffffffffffffffffffffffffff16915050919050565b6060600080905060008090505b60015481101561203c576002600082815260200190815260200160002060060160009054906101000a900460ff161561202f5781806001019250505b8080600101915050611ff3565b5060608160405190808252806020026020018201604052801561206e5781602001602082028038833980820191505090505b509050600080905060008090505b6001548110156120de576002600082815260200190815260200160002060060160009054906101000a900460ff16156120d157808383815181106120bc57fe5b60200260200101818152505081806001019250505b808060010191505061207c565b5081935050505090565b6060816001548110612162576040517f08c379a00000000000000000000000000000000000000000000000000000000081526004018080602001828103825260138152602001807f496e76616c69642070617469656e74204964210000000000000000000000000081525060200191505060405180910390fd5b823273ffffffffffffffffffffffffffffffffffffffff166002600083815260200190815260200160002060010160009054906101000a900473ffffffffffffffffffffffffffffffffffffffff1673ffffffffffffffffffffffffffffffffffffffff161461221d576040517f08c379a00000000000000000000000000000000000000000000000000000000081526004018080602001828103825260298152602001806156c26029913960400191505060405180910390fd5b600260008581526020019081526020016000206002018054600181600116156101000203166002900480601f0160208091040260200160405190810160405280929190818152602001828054600181600116156101000203166002900480156122c75780601f1061229c576101008083540402835291602001916122c7565b820191906000526020600020905b8154815290600101906020018083116122aa57829003601f168201915b505050505092505050919050565b606081600154811061234f576040517f08c379a00000000000000000000000000000000000000000000000000000000081526004018080602001828103825260138152602001807f496e76616c69642070617469656e74204964210000000000000000000000000081525060200191505060405180910390fd5b823273ffffffffffffffffffffffffffffffffffffffff166002600083815260200190815260200160002060010160009054906101000a900473ffffffffffffffffffffffffffffffffffffffff1673ffffffffffffffffffffffffffffffffffffffff161461240a576040517f08c379a00000000000000000000000000000000000000000000000000000000081526004018080602001828103825260298152602001806156c26029913960400191505060405180910390fd5b600260008581526020019081526020016000206003018054600181600116156101000203166002900480601f0160208091040260200160405190810160405280929190818152602001828054600181600116156101000203166002900480156124b45780601f10612489576101008083540402835291602001916124b4565b820191906000526020600020905b81548152906001019060200180831161249757829003601f168201915b505050505092505050919050565b6060806124ce83613823565b6040519080825280602002602001820160405280156124fc5781602001602082028038833980820191505090505b509050600080905060008090505b6000809054906101000a900473ffffffffffffffffffffffffffffffffffffffff1673ffffffffffffffffffffffffffffffffffffffff16637988d0566040518163ffffffff1660e01b815260040160206040518083038186803b15801561257157600080fd5b505afa158015612585573d6000803e3d6000fd5b505050506040513d602081101561259b57600080fd5b81019080805190602001909291905050508110156126da576000809054906101000a900473ffffffffffffffffffffffffffffffffffffffff1673ffffffffffffffffffffffffffffffffffffffff16630224ad4482336040518363ffffffff1660e01b8152600401808381526020018273ffffffffffffffffffffffffffffffffffffffff1673ffffffffffffffffffffffffffffffffffffffff1681526020019250505060206040518083038186803b15801561265957600080fd5b505afa15801561266d573d6000803e3d6000fd5b505050506040513d602081101561268357600080fd5b810190808051906020019092919050505080156126a657506126a5858261474d565b5b156126cd57808383815181106126b857fe5b60200260200101818152505081806001019250505b808060010191505061250a565b508192505050919050565b606081600154811061275f576040517f08c379a00000000000000000000000000000000000000000000000000000000081526004018080602001828103825260138152602001807f496e76616c69642070617469656e74204964210000000000000000000000000081525060200191505060405180910390fd5b823273ffffffffffffffffffffffffffffffffffffffff166002600083815260200190815260200160002060010160009054906101000a900473ffffffffffffffffffffffffffffffffffffffff1673ffffffffffffffffffffffffffffffffffffffff161461281a576040517f08c379a00000000000000000000000000000000000000000000000000000000081526004018080602001828103825260298152602001806156c26029913960400191505060405180910390fd5b600260008581526020019081526020016000206005018054600181600116156101000203166002900480601f0160208091040260200160405190810160405280929190818152602001828054600181600116156101000203166002900480156128c45780601f10612899576101008083540402835291602001916128c4565b820191906000526020600020905b8154815290600101906020018083116128a757829003601f168201915b505050505092505050919050565b80600154811061294a576040517f08c379a00000000000000000000000000000000000000000000000000000000081526004018080602001828103825260138152602001807f496e76616c69642070617469656e74204964210000000000000000000000000081525060200191505060405180910390fd5b813273ffffffffffffffffffffffffffffffffffffffff166002600083815260200190815260200160002060010160009054906101000a900473ffffffffffffffffffffffffffffffffffffffff1673ffffffffffffffffffffffffffffffffffffffff1614612a05576040517f08c379a00000000000000000000000000000000000000000000000000000000081526004018080602001828103825260298152602001806156c26029913960400191505060405180910390fd5b60016002600085815260200190815260200160002060060160006101000a81548160ff021916908315150217905550505050565b606080612a45846141ed565b90506000612a5285612d33565b90506060612a608686613adc565b604051908082528060200260200182016040528015612a8e5781602001602082028038833980820191505090505b509050600080905060008090505b83811015612bc1576000809054906101000a900473ffffffffffffffffffffffffffffffffffffffff1673ffffffffffffffffffffffffffffffffffffffff1663fc60b121868381518110612aed57fe5b6020026020010151896040518363ffffffff1660e01b815260040180838152602001826007811115612b1b57fe5b60ff1681526020019250505060206040518083038186803b158015612b3f57600080fd5b505afa158015612b53573d6000803e3d6000fd5b505050506040513d6020811015612b6957600080fd5b810190808051906020019092919050505015612bb457848181518110612b8b57fe5b6020026020010151838381518110612b9f57fe5b60200260200101818152505081806001019250505b8080600101915050612a9c565b508194505050505092915050565b816001548110612c47576040517f08c379a00000000000000000000000000000000000000000000000000000000081526004018080602001828103825260138152602001807f496e76616c69642070617469656e74204964210000000000000000000000000081525060200191505060405180910390fd5b823273ffffffffffffffffffffffffffffffffffffffff166002600083815260200190815260200160002060010160009054906101000a900473ffffffffffffffffffffffffffffffffffffffff1673ffffffffffffffffffffffffffffffffffffffff1614612d02576040517f08c379a00000000000000000000000000000000000000000000000000000000081526004018080602001828103825260298152602001806156c26029913960400191505060405180910390fd5b82600260008681526020019081526020016000206002019080519060200190612d2c92919061561c565b5050505050565b6000816001548110612dad576040517f08c379a00000000000000000000000000000000000000000000000000000000081526004018080602001828103825260138152602001807f496e76616c69642070617469656e74204964210000000000000000000000000081525060200191505060405180910390fd5b60026000848152602001908152602001600020600a0154915050919050565b816001548110612e44576040517f08c379a00000000000000000000000000000000000000000000000000000000081526004018080602001828103825260138152602001807f496e76616c69642070617469656e74204964210000000000000000000000000081525060200191505060405180910390fd5b823273ffffffffffffffffffffffffffffffffffffffff166002600083815260200190815260200160002060010160009054906101000a900473ffffffffffffffffffffffffffffffffffffffff1673ffffffffffffffffffffffffffffffffffffffff1614612eff576040517f08c379a00000000000000000000000000000000000000000000000000000000081526004018080602001828103825260298152602001806156c26029913960400191505060405180910390fd5b8260026000868152602001908152602001600020600c0160006101000a81548173ffffffffffffffffffffffffffffffffffffffff021916908373ffffffffffffffffffffffffffffffffffffffff16021790555050505050565b606080612f66846141ed565b90506000612f7385612d33565b90506060612f818686613584565b604051908082528060200260200182016040528015612faf5781602001602082028038833980820191505090505b509050600080905060008090505b83811015613100576000809054906101000a900473ffffffffffffffffffffffffffffffffffffffff1673ffffffffffffffffffffffffffffffffffffffff1663d3b94f5086838151811061300e57fe5b6020026020010151896040518363ffffffff1660e01b8152600401808381526020018273ffffffffffffffffffffffffffffffffffffffff1673ffffffffffffffffffffffffffffffffffffffff1681526020019250505060206040518083038186803b15801561307e57600080fd5b505afa158015613092573d6000803e3d6000fd5b505050506040513d60208110156130a857600080fd5b8101908080519060200190929190505050156130f3578481815181106130ca57fe5b60200260200101518383815181106130de57fe5b60200260200101818152505081806001019250505b8080600101915050612fbd565b508194505050505092915050565b60006001548210156131235760019050613128565b600090505b919050565b8160015481106131a5576040517f08c379a00000000000000000000000000000000000000000000000000000000081526004018080602001828103825260138152602001807f496e76616c69642070617469656e74204964210000000000000000000000000081525060200191505060405180910390fd5b823273ffffffffffffffffffffffffffffffffffffffff166002600083815260200190815260200160002060010160009054906101000a900473ffffffffffffffffffffffffffffffffffffffff1673ffffffffffffffffffffffffffffffffffffffff1614613260576040517f08c379a00000000000000000000000000000000000000000000000000000000081526004018080602001828103825260298152602001806156c26029913960400191505060405180910390fd5b60016002600086815260200190815260200160002060080160008573ffffffffffffffffffffffffffffffffffffffff1673ffffffffffffffffffffffffffffffffffffffff16815260200190815260200160002060006101000a81548160ff02191690831515021790555050505050565b6000337fffffffffffffffffffffffffffffffffffffffffffffffffffffffffffffffff6132ff826145db565b14613372576040517f08c379a000000000000000000000000000000000000000000000000000000000815260040180806020018281038252601b8152602001807f50617469656e7420616c7265616479207265676973746572656421000000000081525060200191505060405180910390fd5b7f868b6f447f7bdd79ca557746d89e4f760059d6e9c1b631ae924af6140b576c3f60405160405180910390a16000600160008154809291906001019190505590506000600260008381526020019081526020016000209050818160000181905550338160010160006101000a81548173ffffffffffffffffffffffffffffffffffffffff021916908373ffffffffffffffffffffffffffffffffffffffff1602179055508981600201908051906020019061342e92919061561c565b508881600301908051906020019061344792919061561c565b508781600401908051906020019061346092919061561c565b508681600501908051906020019061347992919061561c565b50858160060160006101000a81548160ff021916908315150217905550600081600a0181905550600081600b01819055508481600c0160006101000a81548173ffffffffffffffffffffffffffffffffffffffff021916908373ffffffffffffffffffffffffffffffffffffffff1602179055507fa58cff07db0adda3ab7a40bd2f18ab57210bf38391a52ffd2e8eee6b8bdec71a8160010160009054906101000a900473ffffffffffffffffffffffffffffffffffffffff16604051808273ffffffffffffffffffffffffffffffffffffffff1673ffffffffffffffffffffffffffffffffffffffff16815260200191505060405180910390a18193505050509695505050505050565b60006060613591846141ed565b9050600061359e85612d33565b9050600080905060008090505b828110156136c2576000809054906101000a900473ffffffffffffffffffffffffffffffffffffffff1673ffffffffffffffffffffffffffffffffffffffff1663d3b94f508583815181106135fc57fe5b6020026020010151886040518363ffffffff1660e01b8152600401808381526020018273ffffffffffffffffffffffffffffffffffffffff1673ffffffffffffffffffffffffffffffffffffffff1681526020019250505060206040518083038186803b15801561366c57600080fd5b505afa158015613680573d6000803e3d6000fd5b505050506040513d602081101561369657600080fd5b8101908080519060200190929190505050156136b55781806001019250505b80806001019150506135ab565b5080935050505092915050565b816001548110613747576040517f08c379a00000000000000000000000000000000000000000000000000000000081526004018080602001828103825260138152602001807f496e76616c69642070617469656e74204964210000000000000000000000000081525060200191505060405180910390fd5b823273ffffffffffffffffffffffffffffffffffffffff166002600083815260200190815260200160002060010160009054906101000a900473ffffffffffffffffffffffffffffffffffffffff1673ffffffffffffffffffffffffffffffffffffffff1614613802576040517f08c379a00000000000000000000000000000000000000000000000000000000081526004018080602001828103825260298152602001806156c26029913960400191505060405180910390fd5b8260026000868152602001908152602001600020600b018190555050505050565b600081600154811061389d576040517f08c379a00000000000000000000000000000000000000000000000000000000081526004018080602001828103825260138152602001807f496e76616c69642070617469656e74204964210000000000000000000000000081525060200191505060405180910390fd5b823273ffffffffffffffffffffffffffffffffffffffff166002600083815260200190815260200160002060010160009054906101000a900473ffffffffffffffffffffffffffffffffffffffff1673ffffffffffffffffffffffffffffffffffffffff1614613958576040517f08c379a00000000000000000000000000000000000000000000000000000000081526004018080602001828103825260298152602001806156c26029913960400191505060405180910390fd5b60026000858152602001908152602001600020600b015492505050919050565b8160015481106139f0576040517f08c379a00000000000000000000000000000000000000000000000000000000081526004018080602001828103825260138152602001807f496e76616c69642070617469656e74204964210000000000000000000000000081525060200191505060405180910390fd5b823273ffffffffffffffffffffffffffffffffffffffff166002600083815260200190815260200160002060010160009054906101000a900473ffffffffffffffffffffffffffffffffffffffff1673ffffffffffffffffffffffffffffffffffffffff1614613aab576040517f08c379a00000000000000000000000000000000000000000000000000000000081526004018080602001828103825260298152602001806156c26029913960400191505060405180910390fd5b82600260008681526020019081526020016000206005019080519060200190613ad592919061561c565b5050505050565b60006060613ae9846141ed565b90506000613af685612d33565b9050600080905060008090505b82811015613c02576000848281518110613b1957fe5b602002602001015190506000809054906101000a900473ffffffffffffffffffffffffffffffffffffffff1673ffffffffffffffffffffffffffffffffffffffff1663fc60b12182896040518363ffffffff1660e01b815260040180838152602001826007811115613b8757fe5b60ff1681526020019250505060206040518083038186803b158015613bab57600080fd5b505afa158015613bbf573d6000803e3d6000fd5b505050506040513d6020811015613bd557600080fd5b810190808051906020019092919050505015613bf45782806001019350505b508080600101915050613b03565b5080935050505092915050565b6000816001548110613c89576040517f08c379a00000000000000000000000000000000000000000000000000000000081526004018080602001828103825260138152602001807f496e76616c69642070617469656e74204964210000000000000000000000000081525060200191505060405180910390fd5b6002600084815260200190815260200160002060060160009054906101000a900460ff16915050919050565b816001548110613d2d576040517f08c379a00000000000000000000000000000000000000000000000000000000081526004018080602001828103825260138152602001807f496e76616c69642070617469656e74204964210000000000000000000000000081525060200191505060405180910390fd5b600160026000858152602001908152602001600020600901600084815260200190815260200160002060006101000a81548160ff02191690831515021790555060026000848152602001908152602001600020600a0160008154809291906001019190505550505050565b816001548110613e10576040517f08c379a00000000000000000000000000000000000000000000000000000000081526004018080602001828103825260138152602001807f496e76616c69642070617469656e74204964210000000000000000000000000081525060200191505060405180910390fd5b823273ffffffffffffffffffffffffffffffffffffffff166002600083815260200190815260200160002060010160009054906101000a900473ffffffffffffffffffffffffffffffffffffffff1673ffffffffffffffffffffffffffffffffffffffff1614613ecb576040517f08c379a00000000000000000000000000000000000000000000000000000000081526004018080602001828103825260298152602001806156c26029913960400191505060405180910390fd5b8260026000868152602001908152602001600020600a018190555050505050565b60026020528060005260406000206000915090508060000154908060010160009054906101000a900473ffffffffffffffffffffffffffffffffffffffff1690806002018054600181600116156101000203166002900480601f016020809104026020016040519081016040528092919081815260200182805460018160011615610100020316600290048015613fc45780601f10613f9957610100808354040283529160200191613fc4565b820191906000526020600020905b815481529060010190602001808311613fa757829003601f168201915b505050505090806003018054600181600116156101000203166002900480601f0160208091040260200160405190810160405280929190818152602001828054600181600116156101000203166002900480156140625780601f1061403757610100808354040283529160200191614062565b820191906000526020600020905b81548152906001019060200180831161404557829003601f168201915b505050505090806004018054600181600116156101000203166002900480601f0160208091040260200160405190810160405280929190818152602001828054600181600116156101000203166002900480156141005780601f106140d557610100808354040283529160200191614100565b820191906000526020600020905b8154815290600101906020018083116140e357829003601f168201915b505050505090806005018054600181600116156101000203166002900480601f01602080910402602001604051908101604052809291908181526020018280546001816001161561010002031660029004801561419e5780601f106141735761010080835404028352916020019161419e565b820191906000526020600020905b81548152906001019060200180831161418157829003601f168201915b5050505050908060060160009054906101000a900460ff169080600a01549080600b01549080600c0160009054906101000a900473ffffffffffffffffffffffffffffffffffffffff1690508a565b6060806141f983612d33565b6040519080825280602002602001820160405280156142275781602001602082028038833980820191505090505b5090506000809050600061423a85611f2d565b905060008090505b6000809054906101000a900473ffffffffffffffffffffffffffffffffffffffff1673ffffffffffffffffffffffffffffffffffffffff16637988d0566040518163ffffffff1660e01b815260040160206040518083038186803b1580156142a957600080fd5b505afa1580156142bd573d6000803e3d6000fd5b505050506040513d60208110156142d357600080fd5b8101908080519060200190929190505050811015614400576000809054906101000a900473ffffffffffffffffffffffffffffffffffffffff1673ffffffffffffffffffffffffffffffffffffffff16630224ad4482846040518363ffffffff1660e01b8152600401808381526020018273ffffffffffffffffffffffffffffffffffffffff1673ffffffffffffffffffffffffffffffffffffffff1681526020019250505060206040518083038186803b15801561439157600080fd5b505afa1580156143a5573d6000803e3d6000fd5b505050506040513d60208110156143bb57600080fd5b8101908080519060200190929190505050156143f357808484815181106143de57fe5b60200260200101818152505082806001019350505b8080600101915050614242565b50829350505050919050565b816001548110614484576040517f08c379a00000000000000000000000000000000000000000000000000000000081526004018080602001828103825260138152602001807f496e76616c69642070617469656e74204964210000000000000000000000000081525060200191505060405180910390fd5b823273ffffffffffffffffffffffffffffffffffffffff166002600083815260200190815260200160002060010160009054906101000a900473ffffffffffffffffffffffffffffffffffffffff1673ffffffffffffffffffffffffffffffffffffffff161461453f576040517f08c379a00000000000000000000000000000000000000000000000000000000081526004018080602001828103825260298152602001806156c26029913960400191505060405180910390fd5b8260026000868152602001908152602001600020600401908051906020019061456992919061561c565b5050505050565b60006002600084815260200190815260200160002060080160008373ffffffffffffffffffffffffffffffffffffffff1673ffffffffffffffffffffffffffffffffffffffff16815260200190815260200160002060009054906101000a900460ff16905092915050565b600080600090505b60015481101561466d578273ffffffffffffffffffffffffffffffffffffffff166002600083815260200190815260200160002060010160009054906101000a900473ffffffffffffffffffffffffffffffffffffffff1673ffffffffffffffffffffffffffffffffffffffff1614156146605780915050614692565b80806001019150506145e3565b507fffffffffffffffffffffffffffffffffffffffffffffffffffffffffffffffff90505b919050565b60026000838152602001908152602001600020600b01600081548092919060010191905055506000809054906101000a900473ffffffffffffffffffffffffffffffffffffffff1673ffffffffffffffffffffffffffffffffffffffff16638664d5f3826040518263ffffffff1660e01b815260040180828152602001915050600060405180830381600087803b15801561473157600080fd5b505af1158015614745573d6000803e3d6000fd5b505050505050565b60008260015481106147c7576040517f08c379a00000000000000000000000000000000000000000000000000000000081526004018080602001828103825260138152602001807f496e76616c69642070617469656e74204964210000000000000000000000000081525060200191505060405180910390fd5b833273ffffffffffffffffffffffffffffffffffffffff166002600083815260200190815260200160002060010160009054906101000a900473ffffffffffffffffffffffffffffffffffffffff1673ffffffffffffffffffffffffffffffffffffffff1614614882576040517f08c379a00000000000000000000000000000000000000000000000000000000081526004018080602001828103825260298152602001806156c26029913960400191505060405180910390fd5b60026000868152602001908152602001600020600901600085815260200190815260200160002060009054906101000a900460ff169250505092915050565b600081600154811061493b576040517f08c379a00000000000000000000000000000000000000000000000000000000081526004018080602001828103825260138152602001807f496e76616c69642070617469656e74204964210000000000000000000000000081525060200191505060405180910390fd5b82326001151561494b83836149dc565b151514806149665750600115156149628383614c57565b1515145b6149bb576040517f08c379a000000000000000000000000000000000000000000000000000000000815260040180806020018281038252602e8152602001806156eb602e913960400191505060405180910390fd5b60026000868152602001908152602001600020600a01549350505050919050565b60006002600084815260200190815260200160002060070160008373ffffffffffffffffffffffffffffffffffffffff1673ffffffffffffffffffffffffffffffffffffffff16815260200190815260200160002060009054906101000a900460ff16905092915050565b60006002600084815260200190815260200160002060070160008373ffffffffffffffffffffffffffffffffffffffff1673ffffffffffffffffffffffffffffffffffffffff16815260200190815260200160002060009054906101000a900460ff16905092915050565b816001548110614b2a576040517f08c379a00000000000000000000000000000000000000000000000000000000081526004018080602001828103825260138152602001807f496e76616c69642070617469656e74204964210000000000000000000000000081525060200191505060405180910390fd5b823273ffffffffffffffffffffffffffffffffffffffff166002600083815260200190815260200160002060010160009054906101000a900473ffffffffffffffffffffffffffffffffffffffff1673ffffffffffffffffffffffffffffffffffffffff1614614be5576040517f08c379a00000000000000000000000000000000000000000000000000000000081526004018080602001828103825260298152602001806156c26029913960400191505060405180910390fd5b60006002600086815260200190815260200160002060070160008573ffffffffffffffffffffffffffffffffffffffff1673ffffffffffffffffffffffffffffffffffffffff16815260200190815260200160002060006101000a81548160ff02191690831515021790555050505050565b60006002600084815260200190815260200160002060080160008373ffffffffffffffffffffffffffffffffffffffff1673ffffffffffffffffffffffffffffffffffffffff16815260200190815260200160002060009054906101000a900460ff16905092915050565b816001548110614d3a576040517f08c379a00000000000000000000000000000000000000000000000000000000081526004018080602001828103825260138152602001807f496e76616c69642070617469656e74204964210000000000000000000000000081525060200191505060405180910390fd5b600060026000858152602001908152602001600020600901600084815260200190815260200160002060006101000a81548160ff02191690831515021790555060026000848152602001908152602001600020600a016000815480929190600190039190505550505050565b6000816001548110614e20576040517f08c379a00000000000000000000000000000000000000000000000000000000081526004018080602001828103825260138152602001807f496e76616c69642070617469656e74204964210000000000000000000000000081525060200191505060405180910390fd5b823273ffffffffffffffffffffffffffffffffffffffff166002600083815260200190815260200160002060010160009054906101000a900473ffffffffffffffffffffffffffffffffffffffff1673ffffffffffffffffffffffffffffffffffffffff1614614edb576040517f08c379a00000000000000000000000000000000000000000000000000000000081526004018080602001828103825260298152602001806156c26029913960400191505060405180910390fd5b60026000858152602001908152602001600020600c0160009054906101000a900473ffffffffffffffffffffffffffffffffffffffff1692505050919050565b816001548110614f93576040517f08c379a00000000000000000000000000000000000000000000000000000000081526004018080602001828103825260138152602001807f496e76616c69642070617469656e74204964210000000000000000000000000081525060200191505060405180910390fd5b823273ffffffffffffffffffffffffffffffffffffffff166002600083815260200190815260200160002060010160009054906101000a900473ffffffffffffffffffffffffffffffffffffffff1673ffffffffffffffffffffffffffffffffffffffff161461504e576040517f08c379a00000000000000000000000000000000000000000000000000000000081526004018080602001828103825260298152602001806156c26029913960400191505060405180910390fd5b60006002600086815260200190815260200160002060080160008573ffffffffffffffffffffffffffffffffffffffff1673ffffffffffffffffffffffffffffffffffffffff16815260200190815260200160002060006101000a81548160ff02191690831515021790555050505050565b606081600154811061513a576040517f08c379a00000000000000000000000000000000000000000000000000000000081526004018080602001828103825260138152602001807f496e76616c69642070617469656e74204964210000000000000000000000000081525060200191505060405180910390fd5b823273ffffffffffffffffffffffffffffffffffffffff166002600083815260200190815260200160002060010160009054906101000a900473ffffffffffffffffffffffffffffffffffffffff1673ffffffffffffffffffffffffffffffffffffffff16146151f5576040517f08c379a00000000000000000000000000000000000000000000000000000000081526004018080602001828103825260298152602001806156c26029913960400191505060405180910390fd5b600260008581526020019081526020016000206004018054600181600116156101000203166002900480601f01602080910402602001604051908101604052809291908181526020018280546001816001161561010002031660029004801561529f5780601f106152745761010080835404028352916020019161529f565b820191906000526020600020905b81548152906001019060200180831161528257829003601f168201915b505050505092505050919050565b600080600090505b600154811015615340578273ffffffffffffffffffffffffffffffffffffffff166002600083815260200190815260200160002060010160009054906101000a900473ffffffffffffffffffffffffffffffffffffffff1673ffffffffffffffffffffffffffffffffffffffff161415615333576001915050615346565b80806001019150506152b5565b50600090505b919050565b8160015481106153c3576040517f08c379a00000000000000000000000000000000000000000000000000000000081526004018080602001828103825260138152602001807f496e76616c69642070617469656e74204964210000000000000000000000000081525060200191505060405180910390fd5b823273ffffffffffffffffffffffffffffffffffffffff166002600083815260200190815260200160002060010160009054906101000a900473ffffffffffffffffffffffffffffffffffffffff1673ffffffffffffffffffffffffffffffffffffffff161461547e576040517f08c379a00000000000000000000000000000000000000000000000000000000081526004018080602001828103825260298152602001806156c26029913960400191505060405180910390fd5b826002600086815260200190815260200160002060060160006101000a81548160ff02191690831515021790555050505050565b60015481565b816001548110615530576040517f08c379a00000000000000000000000000000000000000000000000000000000081526004018080602001828103825260138152602001807f496e76616c69642070617469656e74204964210000000000000000000000000081525060200191505060405180910390fd5b823273ffffffffffffffffffffffffffffffffffffffff166002600083815260200190815260200160002060010160009054906101000a900473ffffffffffffffffffffffffffffffffffffffff1673ffffffffffffffffffffffffffffffffffffffff16146155eb576040517f08c379a00000000000000000000000000000000000000000000000000000000081526004018080602001828103825260298152602001806156c26029913960400191505060405180910390fd5b8260026000868152602001908152602001600020600301908051906020019061561592919061561c565b5050505050565b828054600181600116156101000203166002900490600052602060002090601f016020900481019282601f1061565d57805160ff191683800117855561568b565b8280016001018555821561568b579182015b8281111561568a57825182559160200191906001019061566f565b5b509050615698919061569c565b5090565b6156be91905b808211156156ba5760008160009055506001016156a2565b5090565b9056fe43757272656e742075736572206973206e6f742074686520696e74656e6465642070617469656e742150726163746974696f6e6572206973206e6f7420696e2070617469656e74277320617070726f766564206c697374a265627a7a72315820555feee880d042183b98aafa09805636d5aca6ea40657a9b56c78a8ea189089c64736f6c63430005110032",
  "source": "pragma solidity ^0.5.0;\n\nimport \"./EHR.sol\";\n\ncontract Patient {\n\n    EHR ehrContract;\n\n    constructor(EHR ehrAddress) public {\n        ehrContract = ehrAddress;\n  }\n\n    struct patient {\n        uint256 patientId;\n        address owner;\n        string firstName;\n        string lastName;\n        string emailAddress;\n        string dob;\n        bool approvedResearcher;\n        mapping(address => bool) approvedDoctors;\n        mapping(address => bool) approvedNurses;\n        mapping(uint256 => bool) records;\n        uint256 recordsCount;\n        uint256 acknowledgedRecordsCount;\n        address secondaryUser;\n    }\n\n    uint256 public numPatients = 0;\n    mapping(uint256 => patient) public patients;\n\n    // function to create patient\n    // TO CHECK FOR DUPLICATE ADDRESS, WHETHER SECONDARYUSER IS A REGISTERED PATIENT\n    function create(string memory _firstName, string memory _lastName, string memory _emailAddress, string memory _dob, bool _approvedResearcher, address _secondaryUser) isPatientAlreadyRegistered(msg.sender) public returns(uint256) {\n\n        emit testTrigger();\n\n        uint256 newPatientId = numPatients++;\n\n        patient storage newPatient = patients[newPatientId];\n        newPatient.patientId = newPatientId;\n        newPatient.owner = msg.sender;\n        newPatient.firstName = _firstName;\n        newPatient.lastName = _lastName;\n        newPatient.emailAddress = _emailAddress;\n        newPatient.dob = _dob;\n        newPatient.approvedResearcher = _approvedResearcher;\n        newPatient.recordsCount = 0;\n        newPatient.acknowledgedRecordsCount = 0;\n        newPatient.secondaryUser = _secondaryUser;\n\n        emit PatientAdded(newPatient.owner);\n        return newPatientId;\n    }\n\n    /********* EVENTS *********/\n\n    event AddressDoesNotBelongToAnyPatient();\n    event PatientAdded(address patientAddress);\n    event GivingDoctorAccess();\n    event printValue(uint256 a);\n    event testTrigger();\n\n    /********* MODIFIERS *********/\n\n    modifier ownerOnly(uint256 patientId) {\n        require(patients[patientId].owner == tx.origin, \"Current user is not the intended patient!\");\n        _;\n    }\n\n    modifier validPatientId(uint256 patientId) {\n        require(patientId < numPatients, \"Invalid patient Id!\");\n        _;\n    }\n\n    modifier isApprovedDoctorOrNurse(uint256 patientId, address practitionerAddress) {\n        require(isApprovedDoctor(patientId, practitionerAddress) == true || isApprovedNurse(patientId, practitionerAddress) == true, \"Practitioner is not in patient's approved list\");\n        _;\n    }\n\n    modifier isPatientAlreadyRegistered(address patientAddress) {\n        require(getPatientIdFromPatientAddress(patientAddress) == uint256(-1), \"Patient already registered!\");\n        _;\n    }\n\n    /********* FUNCTIONS *********/\n\n    function isValidPatientId(uint256 patientId) public view returns (bool) {\n        if (patientId < numPatients) {\n            return true;\n        } else {\n            return false;\n        }\n    }\n\n    function isApprovedDoctor(uint256 patientId, address doctorAddress) public view returns (bool) {\n        return patients[patientId].approvedDoctors[doctorAddress];\n    }\n\n    function isApprovedNurse(uint256 patientId, address nurseAddress) public view returns (bool) {\n        return patients[patientId].approvedNurses[nurseAddress];\n    }\n\n    // Loop through existing senders to check if address is a sender\n    function isSender(address owner) public view returns(bool) {\n        for (uint i = 0; i < numPatients; i++) {\n            // patient storage temp = patients[i];\n            if (patients[i].owner == owner) {\n                return true;\n            }\n        }\n\n        return false;\n    }\n\n    // Populate this logic here\n    function getResearchPatients() public view returns (uint256[] memory) {\n\n        uint256 size = 0;\n\n        // Get size since array size not mutable\n        for (uint i = 0; i < numPatients; i++) {\n            if (patients[i].approvedResearcher) {\n                size++;\n            }\n        }\n\n        uint256[] memory result = new uint256[](size);\n        uint256 count = 0;\n\n        // Loop through patients and feed approved into array\n        for (uint i = 0; i < numPatients; i++) {\n            if (patients[i].approvedResearcher) {\n                result[count] = i;\n                count++;\n            }\n        }\n\n\n        // testing\n        // result[0] = 0;\n        // result[1] = 1;\n        // result[2] = 2;\n        return result;\n    }\n\n    // Patient verify record\n    function signOffRecord(uint256 patientId, uint256 recordId) public {\n        patients[patientId].acknowledgedRecordsCount++;\n        ehrContract.patientSignOff(recordId);\n    }\n\n    // get patient's id from their address (used in medicalChain patientAcknowledgeRecord function)\n    function getPatientIdFromPatientAddress(address patientAddress) public view returns (uint256) {\n        for (uint i = 0; i < numPatients; i++) {\n            if (patients[i].owner == patientAddress) {\n                return i;\n            }\n        }\n        return uint256(-1);\n    }\n\n    function viewAllRecords(uint256 patientId) public view returns (uint256[] memory) {\n        // uint256 patientNoOfRecords = getRecordsCount(patientId);\n        uint256[] memory patientRecordsId = new uint256[](getRecordsCount(patientId));\n        uint256 indexTracker = 0;\n        address patientAddress = getPatientAddress(patientId);\n        for (uint256 i = 0; i < ehrContract.numEHR(); i++) {\n            if (ehrContract.isRecordBelongToPatient(i, patientAddress)) {\n                patientRecordsId[indexTracker] = i;\n                indexTracker++;\n            }\n        }\n\n    return patientRecordsId;\n    }\n\n    // function practitionerViewAllRecords(uint256 patientId) public view returns (uint256[] memory) {\n    //     // uint256 patientNoOfRecords = getRecordsCount(patientId);\n    //     uint256[] memory patientRecordsId = new uint256[](practitionerGetRecordsCount(patientId));\n    //     uint256 indexTracker = 0;\n    //     address patientAddress = getPatientAddress(patientId);\n    //     for (uint256 i = 0; i < ehrContract.numEHR(); i++) {\n    //         if (ehrContract.isRecordBelongToPatient(i, patientAddress)) {\n    //             patientRecordsId[indexTracker] = i;\n    //             indexTracker++;\n    //         }\n    //     }\n\n    // return patientRecordsId;\n    // }\n\n    // Patient: View all records (acknowledged and not acknowledged)\n  function viewAllAcknowledgedRecords(uint256 patientId) public view returns (uint256[] memory) {\n    // uint256 patientNoOfAcknowledgedRecords = getAcknowledgedRecordsCount(patientId);\n    uint256[] memory patientAcknowledgedRecordsId = new uint256[](getAcknowledgedRecordsCount(patientId));\n    uint256 indexTracker = 0;\n    for (uint256 i = 0; i < ehrContract.numEHR(); i++) {\n      // record belongs to patient calling it AND whether the record is acknowledged\n      if (ehrContract.isRecordBelongToPatient(i, msg.sender) && isRecordAcknowledged(patientId, i)) {\n        patientAcknowledgedRecordsId[indexTracker] = i;\n        indexTracker++;\n      }\n    }\n\n    return patientAcknowledgedRecordsId;\n  }\n\n  // Patient: View all records issued by certain doctor\n  function viewRecordsByDoctor(uint256 patientId, address doctorAddress) public view returns (uint256[] memory) {\n    uint256[] memory patientRecordsId = viewAllRecords(patientId);\n    uint256 noOfPatientRecords = getRecordsCount(patientId);\n    // uint256 noOfDoctorRecords = numberOfRecordByDoctor(patientId, patientAddress, doctorAddress);\n    uint256[] memory patientRecordsIdFiltered = new uint256[](numberOfRecordByDoctor(patientId, doctorAddress));\n    uint256 indexTracker = 0;\n    for (uint256 i = 0; i < noOfPatientRecords; i++) {\n    //   uint256 currentRecordId = patientRecordsId[i];\n      if (ehrContract.doesRecordMatchDoctorAddress(patientRecordsId[i], doctorAddress)) {\n        patientRecordsIdFiltered[indexTracker] = patientRecordsId[i];\n        indexTracker++;\n      }\n    }\n\n      return patientRecordsIdFiltered;\n  }\n\n    // Patient: Helper function to check how many records fulfilling the given doctor id\n  function numberOfRecordByDoctor(uint256 patientId, address doctorAddress) public view returns(uint256) { // change on what you need to return\n    uint256[] memory patientRecordsId = viewAllRecords(patientId);\n    uint256 noOfPatientRecords = getRecordsCount(patientId);\n    uint256 noOfRecordsByDoctorId = 0;\n    for (uint256 i = 0; i < noOfPatientRecords; i++) {\n    //   uint256 currentRecordId = patientRecordsId[i];\n      if (ehrContract.doesRecordMatchDoctorAddress(patientRecordsId[i], doctorAddress)) {\n        noOfRecordsByDoctorId++;\n      }\n    }\n\n    return noOfRecordsByDoctorId;\n}\n\n    // Patient: Filter records by record type\n  function viewRecordsByRecordType(uint256 patientId, EHR.RecordType recordType) public view returns (uint256[] memory) {\n    uint256[] memory patientRecordsId = viewAllRecords(patientId);\n    uint256 noOfPatientRecords = getRecordsCount(patientId);\n    // uint256 noOfFilteredRecords = numberOfRecordType(patientId, patientAddress, recordType);\n    uint256[] memory patientRecordsIdFiltered = new uint256[](numberOfRecordType(patientId, recordType));\n    uint256 indexTracker = 0;\n    for (uint256 i = 0; i < noOfPatientRecords; i++) {\n    //   uint256 currentRecordId = patientRecordsId[i];\n      if (ehrContract.doesRecordMatchRecordType(patientRecordsId[i], recordType)) {\n        patientRecordsIdFiltered[indexTracker] = patientRecordsId[i];\n        indexTracker++;\n      }\n    }\n\n    return patientRecordsIdFiltered;\n  }\n\n    // Patient: Helper function to check how many records fulfilling the given record type for a patient\n  function numberOfRecordType(uint256 patientId, EHR.RecordType recordType) public view returns(uint256) { // change on what you need to return\n    uint256[] memory patientRecordsId = viewAllRecords(patientId);\n    uint256 noOfPatientRecords = getRecordsCount(patientId);\n    uint256 noOfRecordsMatchingRecordType = 0;\n    for (uint256 i = 0; i < noOfPatientRecords; i++) {\n      uint256 currentRecordId = patientRecordsId[i];\n      if (ehrContract.doesRecordMatchRecordType(currentRecordId, recordType)) {\n        noOfRecordsMatchingRecordType++;\n      }\n    }\n\n    return noOfRecordsMatchingRecordType;\n}\n\n\n    // checked the record is acknowledged by patient\n    function isRecordAcknowledged(uint256 patientId, uint256 recordId) public view validPatientId(patientId) ownerOnly(patientId) returns(bool) {\n        return patients[patientId].records[recordId];\n    }\n\n    function giveDoctorAccess(uint256 patientId, address doctorAddress) public validPatientId(patientId) ownerOnly(patientId) {\n        patients[patientId].approvedDoctors[doctorAddress] = true;\n    }\n\n    function removeDoctorAccess(uint256 patientId, address doctorAddress) public validPatientId(patientId) ownerOnly(patientId) {\n        patients[patientId].approvedDoctors[doctorAddress] = false;\n    }\n\n    function giveNurseAccess(uint256 patientId, address nurseAddress) public validPatientId(patientId) ownerOnly(patientId) {\n        patients[patientId].approvedNurses[nurseAddress] = true;\n    }\n\n    function removeNurseAccess(uint256 patientId, address nurseAddress) public validPatientId(patientId) ownerOnly(patientId) {\n        patients[patientId].approvedNurses[nurseAddress] = false;\n    }\n\n    function addEHR(uint256 patientId, uint256 recordId) public validPatientId(patientId) {\n        patients[patientId].records[recordId] = true;\n        patients[patientId].recordsCount++;\n    }\n\n    function removeEHR(uint256 patientId, uint256 recordId) public validPatientId(patientId) {\n        patients[patientId].records[recordId] = false;\n        patients[patientId].recordsCount--;\n    }\n\n    function giveResearcherAccess(uint256 patientId) public validPatientId(patientId) ownerOnly(patientId) {\n        patients[patientId].approvedResearcher = true;\n    }\n\n    function practitionerGetRecordsCount(uint256 patientId) public view validPatientId(patientId) isApprovedDoctorOrNurse(patientId, tx.origin) returns(uint256) {\n        return patients[patientId].recordsCount;\n    }\n\n\n\n    /********* GETTERS & SETTERS *********/\n\n    function getFirstName(uint256 patientId) public view validPatientId(patientId) ownerOnly(patientId) returns(string memory) {\n        return patients[patientId].firstName;\n    }\n\n    function setFirstName(uint256 patientId, string memory _firstName) public validPatientId(patientId) ownerOnly(patientId)  {\n        patients[patientId].firstName = _firstName;\n    }\n\n    function getLastName(uint256 patientId) public view validPatientId(patientId) ownerOnly(patientId) returns(string memory) {\n        return patients[patientId].lastName;\n    }\n\n    function setLastName(uint256 patientId, string memory _lastName) public validPatientId(patientId) ownerOnly(patientId)  {\n        patients[patientId].lastName = _lastName;\n    }\n\n    function getEmailAddress(uint256 patientId) public view validPatientId(patientId) ownerOnly(patientId) returns(string memory) {\n        // emit testTrigger();\n        return patients[patientId].emailAddress;\n    }\n\n    function setEmailAddress(uint256 patientId, string memory _emailAddress) public validPatientId(patientId) ownerOnly(patientId) {\n        patients[patientId].emailAddress = _emailAddress;\n    }\n\n    function getDob(uint256 patientId) public view  validPatientId(patientId) ownerOnly(patientId) returns(string memory) {\n        return patients[patientId].dob;\n    }\n\n    function setDob(uint256 patientId, string memory _dob) public validPatientId(patientId) ownerOnly(patientId) {\n        patients[patientId].dob = _dob;\n    }\n\n    function isDoctorApproved(uint256 patientId, address doctorAddress) public view returns(bool) {\n        return patients[patientId].approvedDoctors[doctorAddress];\n    }\n\n    function isNurseApproved(uint256 patientId, address nurseAddress) public view returns(bool) {\n        return patients[patientId].approvedNurses[nurseAddress];\n    }\n\n    function getApprovedReseacher(uint256 patientId) public view  validPatientId(patientId) returns(bool) {\n        return patients[patientId].approvedResearcher;\n    }\n\n    function setApprovedResearcher(uint256 patientId, bool _approvedResearcher) public validPatientId(patientId) ownerOnly(patientId) {\n        patients[patientId].approvedResearcher = _approvedResearcher;\n    }\n\n    function getRecordsCount(uint256 patientId) public view validPatientId(patientId) returns(uint256) {\n        return patients[patientId].recordsCount;\n    }\n    \n    function setRecordsCount(uint256 patientId, uint256 _recordsCount) public validPatientId(patientId) ownerOnly(patientId) {\n        patients[patientId].recordsCount = _recordsCount;\n    }\n\n    function getAcknowledgedRecordsCount(uint256 patientId) public view validPatientId(patientId) ownerOnly(patientId) returns(uint256) {\n        return patients[patientId].acknowledgedRecordsCount;\n    }\n    \n    function setAcknowledgedRecordsCount(uint256 patientId, uint256 _acknowledgedRecordsCount) public validPatientId(patientId) ownerOnly(patientId) {\n        patients[patientId].acknowledgedRecordsCount = _acknowledgedRecordsCount;\n    }\n\n    function getSecondaryUser(uint256 patientId) public view validPatientId(patientId) ownerOnly(patientId) returns(address) {\n        return patients[patientId].secondaryUser;\n    }\n\n    function setSecondaryUser(uint256 patientId, address _secondaryUser) public validPatientId(patientId) ownerOnly(patientId)  {\n        patients[patientId].secondaryUser = _secondaryUser;\n    }\n\n    function getData(uint256 patientId) public view returns(uint256 id,\n        string memory firstName,\n        string memory lastName,\n        string memory emailAddress,\n        string memory dob) {\n        return (patients[patientId].patientId, patients[patientId].firstName, patients[patientId].lastName, patients[patientId].emailAddress, patients[patientId].dob);\n    }\n\n    function getPatientAddress(uint256 patientId) public view validPatientId(patientId) returns(address) {\n        return patients[patientId].owner;\n    }\n}\n\n/************************* Removed! Nurse can't issue record! *************************/\n// // Patient: View all records issued by certain nurse\n//   function viewRecordsByNurse(uint256 patientId, address nurseAddress) public view returns (uint256[] memory) {\n//     uint256[] memory patientRecordsId = viewAllRecords(patientId);\n//     uint256 noOfPatientRecords = getRecordsCount(patientId);\n//     // uint256 noOfNurseRecords = numberOfRecordByNurse(patientId, patientAddress, nurseAddress);\n//     uint256[] memory patientRecordsIdFiltered = new uint256[](numberOfRecordByNurse(patientId, nurseAddress));\n//     uint256 indexTracker = 0;\n//     for (uint256 i = 0; i < noOfPatientRecords; i++) {\n//     //   uint256 currentRecordId = patientRecordsId[i];\n//       if (ehrContract.doesRecordMatchDoctorAddress(patientRecordsId[i], nurseAddress)) {\n//         patientRecordsIdFiltered[indexTracker] = patientRecordsId[i];\n//         indexTracker++;\n//       }\n//     }\n//       return patientRecordsIdFiltered;\n//   }\n\n// // Patient: Helper function to check how many records fulfilling the given nurse id\n//   function numberOfRecordByNurse(uint256 patientId, address nurseAddress) public view returns(uint256) { // change on what you need to return\n//     uint256[] memory patientRecordsId = viewAllRecords(patientId);\n//     uint256 noOfPatientRecords = getRecordsCount(patientId);\n//     uint256 noOfRecordsByNurseId = 0;\n//     for (uint256 i = 0; i < noOfPatientRecords; i++) {\n//       uint256 currentRecordId = patientRecordsId[i];\n//       if (ehrContract.doesRecordMatchDoctorAddress(currentRecordId, nurseAddress)) {\n//         noOfRecordsByNurseId++;\n//       }\n//     }\n\n//     return noOfRecordsByNurseId;\n//   }",
  "sourcePath": "/Users/aaronf/IS4302/is4302-project-medical-chain/contracts/Patient.sol",
  "compiler": {
    "name": "solc",
    "version": "0.5.17+commit.d19bba13.Emscripten.clang"
  },
  "schemaVersion": "3.4.11",
  "updatedAt": "2023-04-10T08:50:27.783Z",
  "networkType": "ethereum",
  "devdoc": {
    "methods": {}
  },
  "userdoc": {
    "methods": {
      "getFirstName(uint256)": {
        "notice": "******* GETTERS & SETTERS ********"
      },
      "isValidPatientId(uint256)": {
        "notice": "******* FUNCTIONS ********"
      }
    }
  }
}