{
  "contractName": "Patient",
  "abi": [
    {
      "inputs": [
        {
          "internalType": "contract EHR",
          "name": "ehrAddress",
          "type": "address"
        }
      ],
      "payable": false,
      "stateMutability": "nonpayable",
      "type": "constructor"
    },
    {
      "anonymous": false,
      "inputs": [],
      "name": "AddressDoesNotBelongToAnyPatient",
      "type": "event"
    },
    {
      "anonymous": false,
      "inputs": [],
      "name": "GivingDoctorAccess",
      "type": "event"
    },
    {
      "anonymous": false,
      "inputs": [
        {
          "indexed": false,
          "internalType": "address",
          "name": "patientAddress",
          "type": "address"
        }
      ],
      "name": "PatientAdded",
      "type": "event"
    },
    {
      "anonymous": false,
      "inputs": [
        {
          "indexed": false,
          "internalType": "uint256",
          "name": "a",
          "type": "uint256"
        }
      ],
      "name": "printValue",
      "type": "event"
    },
    {
      "anonymous": false,
      "inputs": [],
      "name": "testTrigger",
      "type": "event"
    },
    {
      "constant": true,
      "inputs": [],
      "name": "numPatients",
      "outputs": [
        {
          "internalType": "uint256",
          "name": "",
          "type": "uint256"
        }
      ],
      "payable": false,
      "stateMutability": "view",
      "type": "function"
    },
    {
      "constant": true,
      "inputs": [
        {
          "internalType": "uint256",
          "name": "",
          "type": "uint256"
        }
      ],
      "name": "patients",
      "outputs": [
        {
          "internalType": "uint256",
          "name": "patientId",
          "type": "uint256"
        },
        {
          "internalType": "address",
          "name": "owner",
          "type": "address"
        },
        {
          "internalType": "string",
          "name": "firstName",
          "type": "string"
        },
        {
          "internalType": "string",
          "name": "lastName",
          "type": "string"
        },
        {
          "internalType": "string",
          "name": "emailAddress",
          "type": "string"
        },
        {
          "internalType": "string",
          "name": "dob",
          "type": "string"
        },
        {
          "internalType": "bool",
          "name": "approvedResearcher",
          "type": "bool"
        },
        {
          "internalType": "uint256",
          "name": "recordsCount",
          "type": "uint256"
        },
        {
          "internalType": "uint256",
          "name": "acknowledgedRecordsCount",
          "type": "uint256"
        },
        {
          "internalType": "address",
          "name": "secondaryUser",
          "type": "address"
        }
      ],
      "payable": false,
      "stateMutability": "view",
      "type": "function"
    },
    {
      "constant": false,
      "inputs": [
        {
          "internalType": "string",
          "name": "_firstName",
          "type": "string"
        },
        {
          "internalType": "string",
          "name": "_lastName",
          "type": "string"
        },
        {
          "internalType": "string",
          "name": "_emailAddress",
          "type": "string"
        },
        {
          "internalType": "string",
          "name": "_dob",
          "type": "string"
        },
        {
          "internalType": "bool",
          "name": "_approvedResearcher",
          "type": "bool"
        },
        {
          "internalType": "address",
          "name": "_secondaryUser",
          "type": "address"
        }
      ],
      "name": "create",
      "outputs": [
        {
          "internalType": "uint256",
          "name": "",
          "type": "uint256"
        }
      ],
      "payable": false,
      "stateMutability": "nonpayable",
      "type": "function"
    },
    {
      "constant": true,
      "inputs": [
        {
          "internalType": "uint256",
          "name": "patientId",
          "type": "uint256"
        }
      ],
      "name": "isValidPatientId",
      "outputs": [
        {
          "internalType": "bool",
          "name": "",
          "type": "bool"
        }
      ],
      "payable": false,
      "stateMutability": "view",
      "type": "function"
    },
    {
      "constant": true,
      "inputs": [
        {
          "internalType": "uint256",
          "name": "patientId",
          "type": "uint256"
        },
        {
          "internalType": "address",
          "name": "doctorAddress",
          "type": "address"
        }
      ],
      "name": "isApprovedDoctor",
      "outputs": [
        {
          "internalType": "bool",
          "name": "",
          "type": "bool"
        }
      ],
      "payable": false,
      "stateMutability": "view",
      "type": "function"
    },
    {
      "constant": true,
      "inputs": [
        {
          "internalType": "uint256",
          "name": "patientId",
          "type": "uint256"
        },
        {
          "internalType": "address",
          "name": "nurseAddress",
          "type": "address"
        }
      ],
      "name": "isApprovedNurse",
      "outputs": [
        {
          "internalType": "bool",
          "name": "",
          "type": "bool"
        }
      ],
      "payable": false,
      "stateMutability": "view",
      "type": "function"
    },
    {
      "constant": true,
      "inputs": [
        {
          "internalType": "address",
          "name": "owner",
          "type": "address"
        }
      ],
      "name": "isSender",
      "outputs": [
        {
          "internalType": "bool",
          "name": "",
          "type": "bool"
        }
      ],
      "payable": false,
      "stateMutability": "view",
      "type": "function"
    },
    {
      "constant": true,
      "inputs": [],
      "name": "getResearchPatients",
      "outputs": [
        {
          "internalType": "uint256[]",
          "name": "",
          "type": "uint256[]"
        }
      ],
      "payable": false,
      "stateMutability": "view",
      "type": "function"
    },
    {
      "constant": false,
      "inputs": [
        {
          "internalType": "uint256",
          "name": "patientId",
          "type": "uint256"
        },
        {
          "internalType": "uint256",
          "name": "recordId",
          "type": "uint256"
        }
      ],
      "name": "signOffRecord",
      "outputs": [],
      "payable": false,
      "stateMutability": "nonpayable",
      "type": "function"
    },
    {
      "constant": true,
      "inputs": [
        {
          "internalType": "address",
          "name": "patientAddress",
          "type": "address"
        }
      ],
      "name": "getPatientIdFromPatientAddress",
      "outputs": [
        {
          "internalType": "uint256",
          "name": "",
          "type": "uint256"
        }
      ],
      "payable": false,
      "stateMutability": "view",
      "type": "function"
    },
    {
      "constant": true,
      "inputs": [
        {
          "internalType": "uint256",
          "name": "patientId",
          "type": "uint256"
        },
        {
          "internalType": "address",
          "name": "patientAddress",
          "type": "address"
        }
      ],
      "name": "viewAllRecords",
      "outputs": [
        {
          "internalType": "uint256[]",
          "name": "",
          "type": "uint256[]"
        }
      ],
      "payable": false,
      "stateMutability": "view",
      "type": "function"
    },
    {
      "constant": true,
      "inputs": [
        {
          "internalType": "uint256",
          "name": "patientId",
          "type": "uint256"
        }
      ],
      "name": "viewAllAcknowledgedRecords",
      "outputs": [
        {
          "internalType": "uint256[]",
          "name": "",
          "type": "uint256[]"
        }
      ],
      "payable": false,
      "stateMutability": "view",
      "type": "function"
    },
    {
      "constant": true,
      "inputs": [
        {
          "internalType": "uint256",
          "name": "patientId",
          "type": "uint256"
        },
        {
          "internalType": "address",
          "name": "patientAddress",
          "type": "address"
        },
        {
          "internalType": "address",
          "name": "doctorAddress",
          "type": "address"
        }
      ],
      "name": "viewRecordsByDoctor",
      "outputs": [
        {
          "internalType": "uint256[]",
          "name": "",
          "type": "uint256[]"
        }
      ],
      "payable": false,
      "stateMutability": "view",
      "type": "function"
    },
    {
      "constant": true,
      "inputs": [
        {
          "internalType": "uint256",
          "name": "patientId",
          "type": "uint256"
        },
        {
          "internalType": "address",
          "name": "patientAddress",
          "type": "address"
        },
        {
          "internalType": "address",
          "name": "doctorAddress",
          "type": "address"
        }
      ],
      "name": "numberOfRecordByDoctor",
      "outputs": [
        {
          "internalType": "uint256",
          "name": "",
          "type": "uint256"
        }
      ],
      "payable": false,
      "stateMutability": "view",
      "type": "function"
    },
    {
      "constant": true,
      "inputs": [
        {
          "internalType": "uint256",
          "name": "patientId",
          "type": "uint256"
        },
        {
          "internalType": "address",
          "name": "patientAddress",
          "type": "address"
        },
        {
          "internalType": "address",
          "name": "nurseAddress",
          "type": "address"
        }
      ],
      "name": "viewRecordsByNurse",
      "outputs": [
        {
          "internalType": "uint256[]",
          "name": "",
          "type": "uint256[]"
        }
      ],
      "payable": false,
      "stateMutability": "view",
      "type": "function"
    },
    {
      "constant": true,
      "inputs": [
        {
          "internalType": "uint256",
          "name": "patientId",
          "type": "uint256"
        },
        {
          "internalType": "address",
          "name": "patientAddress",
          "type": "address"
        },
        {
          "internalType": "address",
          "name": "nurseAddress",
          "type": "address"
        }
      ],
      "name": "numberOfRecordByNurse",
      "outputs": [
        {
          "internalType": "uint256",
          "name": "",
          "type": "uint256"
        }
      ],
      "payable": false,
      "stateMutability": "view",
      "type": "function"
    },
    {
      "constant": true,
      "inputs": [
        {
          "internalType": "uint256",
          "name": "patientId",
          "type": "uint256"
        },
        {
          "internalType": "address",
          "name": "patientAddress",
          "type": "address"
        },
        {
          "internalType": "enum EHR.RecordType",
          "name": "recordType",
          "type": "uint8"
        }
      ],
      "name": "viewRecordsByRecordType",
      "outputs": [
        {
          "internalType": "uint256[]",
          "name": "",
          "type": "uint256[]"
        }
      ],
      "payable": false,
      "stateMutability": "view",
      "type": "function"
    },
    {
      "constant": true,
      "inputs": [
        {
          "internalType": "uint256",
          "name": "patientId",
          "type": "uint256"
        },
        {
          "internalType": "address",
          "name": "patientAddress",
          "type": "address"
        },
        {
          "internalType": "enum EHR.RecordType",
          "name": "recordType",
          "type": "uint8"
        }
      ],
      "name": "numberOfRecordType",
      "outputs": [
        {
          "internalType": "uint256",
          "name": "",
          "type": "uint256"
        }
      ],
      "payable": false,
      "stateMutability": "view",
      "type": "function"
    },
    {
      "constant": true,
      "inputs": [
        {
          "internalType": "uint256",
          "name": "patientId",
          "type": "uint256"
        },
        {
          "internalType": "uint256",
          "name": "recordId",
          "type": "uint256"
        }
      ],
      "name": "isRecordAcknowledged",
      "outputs": [
        {
          "internalType": "bool",
          "name": "",
          "type": "bool"
        }
      ],
      "payable": false,
      "stateMutability": "view",
      "type": "function"
    },
    {
      "constant": false,
      "inputs": [
        {
          "internalType": "uint256",
          "name": "patientId",
          "type": "uint256"
        },
        {
          "internalType": "address",
          "name": "doctorAddress",
          "type": "address"
        }
      ],
      "name": "giveDoctorAccess",
      "outputs": [],
      "payable": false,
      "stateMutability": "nonpayable",
      "type": "function"
    },
    {
      "constant": false,
      "inputs": [
        {
          "internalType": "uint256",
          "name": "patientId",
          "type": "uint256"
        },
        {
          "internalType": "address",
          "name": "doctorAddress",
          "type": "address"
        }
      ],
      "name": "removeDoctorAccess",
      "outputs": [],
      "payable": false,
      "stateMutability": "nonpayable",
      "type": "function"
    },
    {
      "constant": false,
      "inputs": [
        {
          "internalType": "uint256",
          "name": "patientId",
          "type": "uint256"
        },
        {
          "internalType": "address",
          "name": "nurseAddress",
          "type": "address"
        }
      ],
      "name": "giveNurseAccess",
      "outputs": [],
      "payable": false,
      "stateMutability": "nonpayable",
      "type": "function"
    },
    {
      "constant": false,
      "inputs": [
        {
          "internalType": "uint256",
          "name": "patientId",
          "type": "uint256"
        },
        {
          "internalType": "address",
          "name": "nurseAddress",
          "type": "address"
        }
      ],
      "name": "removeNurseAccess",
      "outputs": [],
      "payable": false,
      "stateMutability": "nonpayable",
      "type": "function"
    },
    {
      "constant": false,
      "inputs": [
        {
          "internalType": "uint256",
          "name": "patientId",
          "type": "uint256"
        },
        {
          "internalType": "uint256",
          "name": "recordId",
          "type": "uint256"
        }
      ],
      "name": "addEhr",
      "outputs": [],
      "payable": false,
      "stateMutability": "nonpayable",
      "type": "function"
    },
    {
      "constant": false,
      "inputs": [
        {
          "internalType": "uint256",
          "name": "patientId",
          "type": "uint256"
        }
      ],
      "name": "giveResearcherAccess",
      "outputs": [],
      "payable": false,
      "stateMutability": "nonpayable",
      "type": "function"
    },
    {
      "constant": true,
      "inputs": [
        {
          "internalType": "uint256",
          "name": "patientId",
          "type": "uint256"
        }
      ],
      "name": "getFirstName",
      "outputs": [
        {
          "internalType": "string",
          "name": "",
          "type": "string"
        }
      ],
      "payable": false,
      "stateMutability": "view",
      "type": "function"
    },
    {
      "constant": false,
      "inputs": [
        {
          "internalType": "uint256",
          "name": "patientId",
          "type": "uint256"
        },
        {
          "internalType": "string",
          "name": "_firstName",
          "type": "string"
        }
      ],
      "name": "setFirstName",
      "outputs": [],
      "payable": false,
      "stateMutability": "nonpayable",
      "type": "function"
    },
    {
      "constant": true,
      "inputs": [
        {
          "internalType": "uint256",
          "name": "patientId",
          "type": "uint256"
        }
      ],
      "name": "getLastName",
      "outputs": [
        {
          "internalType": "string",
          "name": "",
          "type": "string"
        }
      ],
      "payable": false,
      "stateMutability": "view",
      "type": "function"
    },
    {
      "constant": false,
      "inputs": [
        {
          "internalType": "uint256",
          "name": "patientId",
          "type": "uint256"
        },
        {
          "internalType": "string",
          "name": "_lastName",
          "type": "string"
        }
      ],
      "name": "setLastName",
      "outputs": [],
      "payable": false,
      "stateMutability": "nonpayable",
      "type": "function"
    },
    {
      "constant": true,
      "inputs": [
        {
          "internalType": "uint256",
          "name": "patientId",
          "type": "uint256"
        }
      ],
      "name": "getEmailAddress",
      "outputs": [
        {
          "internalType": "string",
          "name": "",
          "type": "string"
        }
      ],
      "payable": false,
      "stateMutability": "view",
      "type": "function"
    },
    {
      "constant": false,
      "inputs": [
        {
          "internalType": "uint256",
          "name": "patientId",
          "type": "uint256"
        },
        {
          "internalType": "string",
          "name": "_emailAddress",
          "type": "string"
        }
      ],
      "name": "setEmailAddress",
      "outputs": [],
      "payable": false,
      "stateMutability": "nonpayable",
      "type": "function"
    },
    {
      "constant": true,
      "inputs": [
        {
          "internalType": "uint256",
          "name": "patientId",
          "type": "uint256"
        }
      ],
      "name": "getDob",
      "outputs": [
        {
          "internalType": "string",
          "name": "",
          "type": "string"
        }
      ],
      "payable": false,
      "stateMutability": "view",
      "type": "function"
    },
    {
      "constant": false,
      "inputs": [
        {
          "internalType": "uint256",
          "name": "patientId",
          "type": "uint256"
        },
        {
          "internalType": "string",
          "name": "_dob",
          "type": "string"
        }
      ],
      "name": "setDob",
      "outputs": [],
      "payable": false,
      "stateMutability": "nonpayable",
      "type": "function"
    },
    {
      "constant": true,
      "inputs": [
        {
          "internalType": "uint256",
          "name": "patientId",
          "type": "uint256"
        },
        {
          "internalType": "address",
          "name": "doctorAddress",
          "type": "address"
        }
      ],
      "name": "isDoctorApproved",
      "outputs": [
        {
          "internalType": "bool",
          "name": "",
          "type": "bool"
        }
      ],
      "payable": false,
      "stateMutability": "view",
      "type": "function"
    },
    {
      "constant": true,
      "inputs": [
        {
          "internalType": "uint256",
          "name": "patientId",
          "type": "uint256"
        },
        {
          "internalType": "address",
          "name": "nurseAddress",
          "type": "address"
        }
      ],
      "name": "isNurseApproved",
      "outputs": [
        {
          "internalType": "bool",
          "name": "",
          "type": "bool"
        }
      ],
      "payable": false,
      "stateMutability": "view",
      "type": "function"
    },
    {
      "constant": true,
      "inputs": [
        {
          "internalType": "uint256",
          "name": "patientId",
          "type": "uint256"
        }
      ],
      "name": "getApprovedReseacher",
      "outputs": [
        {
          "internalType": "bool",
          "name": "",
          "type": "bool"
        }
      ],
      "payable": false,
      "stateMutability": "view",
      "type": "function"
    },
    {
      "constant": false,
      "inputs": [
        {
          "internalType": "uint256",
          "name": "patientId",
          "type": "uint256"
        },
        {
          "internalType": "bool",
          "name": "_approvedResearcher",
          "type": "bool"
        }
      ],
      "name": "setApprovedResearcher",
      "outputs": [],
      "payable": false,
      "stateMutability": "nonpayable",
      "type": "function"
    },
    {
      "constant": true,
      "inputs": [
        {
          "internalType": "uint256",
          "name": "patientId",
          "type": "uint256"
        }
      ],
      "name": "getRecordsCount",
      "outputs": [
        {
          "internalType": "uint256",
          "name": "",
          "type": "uint256"
        }
      ],
      "payable": false,
      "stateMutability": "view",
      "type": "function"
    },
    {
      "constant": false,
      "inputs": [
        {
          "internalType": "uint256",
          "name": "patientId",
          "type": "uint256"
        },
        {
          "internalType": "uint256",
          "name": "_recordsCount",
          "type": "uint256"
        }
      ],
      "name": "setRecordsCount",
      "outputs": [],
      "payable": false,
      "stateMutability": "nonpayable",
      "type": "function"
    },
    {
      "constant": true,
      "inputs": [
        {
          "internalType": "uint256",
          "name": "patientId",
          "type": "uint256"
        }
      ],
      "name": "getAcknowledgedRecordsCount",
      "outputs": [
        {
          "internalType": "uint256",
          "name": "",
          "type": "uint256"
        }
      ],
      "payable": false,
      "stateMutability": "view",
      "type": "function"
    },
    {
      "constant": false,
      "inputs": [
        {
          "internalType": "uint256",
          "name": "patientId",
          "type": "uint256"
        },
        {
          "internalType": "uint256",
          "name": "_acknowledgedRecordsCount",
          "type": "uint256"
        }
      ],
      "name": "setAcknowledgedRecordsCount",
      "outputs": [],
      "payable": false,
      "stateMutability": "nonpayable",
      "type": "function"
    },
    {
      "constant": true,
      "inputs": [
        {
          "internalType": "uint256",
          "name": "patientId",
          "type": "uint256"
        }
      ],
      "name": "getSecondaryUser",
      "outputs": [
        {
          "internalType": "address",
          "name": "",
          "type": "address"
        }
      ],
      "payable": false,
      "stateMutability": "view",
      "type": "function"
    },
    {
      "constant": false,
      "inputs": [
        {
          "internalType": "uint256",
          "name": "patientId",
          "type": "uint256"
        },
        {
          "internalType": "address",
          "name": "_secondaryUser",
          "type": "address"
        }
      ],
      "name": "setSecondaryUser",
      "outputs": [],
      "payable": false,
      "stateMutability": "nonpayable",
      "type": "function"
    },
    {
      "constant": true,
      "inputs": [
        {
          "internalType": "uint256",
          "name": "patientId",
          "type": "uint256"
        }
      ],
      "name": "getData",
      "outputs": [
        {
          "internalType": "uint256",
          "name": "id",
          "type": "uint256"
        },
        {
          "internalType": "string",
          "name": "firstName",
          "type": "string"
        },
        {
          "internalType": "string",
          "name": "lastName",
          "type": "string"
        },
        {
          "internalType": "string",
          "name": "emailAddress",
          "type": "string"
        },
        {
          "internalType": "string",
          "name": "dob",
          "type": "string"
        }
      ],
      "payable": false,
      "stateMutability": "view",
      "type": "function"
    },
    {
      "constant": true,
      "inputs": [
        {
          "internalType": "uint256",
          "name": "patientId",
          "type": "uint256"
        }
      ],
      "name": "getPatientAddress",
      "outputs": [
        {
          "internalType": "address",
          "name": "",
          "type": "address"
        }
      ],
      "payable": false,
      "stateMutability": "view",
      "type": "function"
    }
  ],
  "bytecode": "0x608060405260006001553480156200001657600080fd5b5060405162005b9d38038062005b9d833981810160405260208110156200003c57600080fd5b8101908080519060200190929190505050806000806101000a81548173ffffffffffffffffffffffffffffffffffffffff021916908373ffffffffffffffffffffffffffffffffffffffff16021790555050615aff806200009e6000396000f3fe608060405234801561001057600080fd5b506004361061027f5760003560e01c80638fa3b5c71161015c578063c412e7ba116100ce578063e2cbef6111610087578063e2cbef611461196a578063e31e750c146119d9578063e384346314611a80578063eb8a79b014611adc578063fb3bf34814611b16578063fcda42c714611b345761027f565b8063c412e7ba14611640578063cc7282fd146116a6578063cd4db77d14611769578063d423a100146117d7578063d87ce2421461189a578063de8bce05146118e85761027f565b8063a3005b4911610120578063a3005b4914611446578063a3f477f41461149e578063a533e1f8146114d6578063b01df35114611526578063babef8f61461158c578063bb4182c3146115f25761027f565b80638fa3b5c714610fc257806393119a8314610ffa5780639ab4e6241461126b5780639ebd51f81461131b5780639f95d9c6146113e05761027f565b8063416939d3116101f55780636f8288df116101b95780636f8288df14610d835780636faaecaa14610dbb57806371f26a5c14610dfd578063759fd82a14610ec2578063834fa06e14610f445780638a9ab60e14610f8a5761027f565b8063416939d31461099f578063452c3009146109e15780634b65437814610a2f5780635470e80414610a7557806356e9af3a14610ac35761027f565b8063172a56c111610247578063172a56c114610634578063174029f6146106db5780631bcec2e8146107825780632013fd1e14610805578063303c9672146108ac5780633a17f75a146108da5761027f565b80630178fe3f14610284578063067be5dc14610476578063092db902146104c4578063097ee8cd1461056757806311fc621d146105d5575b600080fd5b6102b06004803603602081101561029a57600080fd5b8101908080359060200190929190505050611bf9565b6040518086815260200180602001806020018060200180602001858103855289818151815260200191508051906020019080838360005b838110156103025780820151818401526020810190506102e7565b50505050905090810190601f16801561032f5780820380516001836020036101000a031916815260200191505b50858103845288818151815260200191508051906020019080838360005b8381101561036857808201518184015260208101905061034d565b50505050905090810190601f1680156103955780820380516001836020036101000a031916815260200191505b50858103835287818151815260200191508051906020019080838360005b838110156103ce5780820151818401526020810190506103b3565b50505050905090810190601f1680156103fb5780820380516001836020036101000a031916815260200191505b50858103825286818151815260200191508051906020019080838360005b83811015610434578082015181840152602081019050610419565b50505050905090810190601f1680156104615780820380516001836020036101000a031916815260200191505b50995050505050505050505060405180910390f35b6104c26004803603604081101561048c57600080fd5b8101908080359060200190929190803573ffffffffffffffffffffffffffffffffffffffff169060200190929190505050611ef3565b005b610510600480360360408110156104da57600080fd5b8101908080359060200190929190803573ffffffffffffffffffffffffffffffffffffffff169060200190929190505050612098565b6040518080602001828103825283818151815260200191508051906020019060200280838360005b83811015610553578082015181840152602081019050610538565b505050509050019250505060405180910390f35b6105936004803603602081101561057d57600080fd5b81019080803590602001909291905050506122b1565b604051808273ffffffffffffffffffffffffffffffffffffffff1673ffffffffffffffffffffffffffffffffffffffff16815260200191505060405180910390f35b6105dd61236a565b6040518080602001828103825283818151815260200191508051906020019060200280838360005b83811015610620578082015181840152602081019050610605565b505050509050019250505060405180910390f35b6106606004803603602081101561064a57600080fd5b810190808035906020019092919050505061246c565b6040518080602001828103825283818151815260200191508051906020019080838360005b838110156106a0578082015181840152602081019050610685565b50505050905090810190601f1680156106cd5780820380516001836020036101000a031916815260200191505b509250505060405180910390f35b610707600480360360208110156106f157600080fd5b8101908080359060200190929190505050612659565b6040518080602001828103825283818151815260200191508051906020019080838360005b8381101561074757808201518184015260208101905061072c565b50505050905090810190601f1680156107745780820380516001836020036101000a031916815260200191505b509250505060405180910390f35b6107ae6004803603602081101561079857600080fd5b8101908080359060200190929190505050612846565b6040518080602001828103825283818151815260200191508051906020019060200280838360005b838110156107f15780820151818401526020810190506107d6565b505050509050019250505060405180910390f35b6108316004803603602081101561081b57600080fd5b8101908080359060200190929190505050612a70565b6040518080602001828103825283818151815260200191508051906020019080838360005b83811015610871578082015181840152602081019050610856565b50505050905090810190601f16801561089e5780820380516001836020036101000a031916815260200191505b509250505060405180910390f35b6108d8600480360360208110156108c257600080fd5b8101908080359060200190929190505050612c5d565b005b61099d600480360360408110156108f057600080fd5b81019080803590602001909291908035906020019064010000000081111561091757600080fd5b82018360208201111561092957600080fd5b8035906020019184600183028401116401000000008311171561094b57600080fd5b91908080601f016020809104026020016040519081016040528093929190818152602001838380828437600081840152601f19601f820116905080830192505050505050509192919290505050612dc4565b005b6109cb600480360360208110156109b557600080fd5b8101908080359060200190929190505050612f28565b6040518082815260200191505060405180910390f35b610a2d600480360360408110156109f757600080fd5b8101908080359060200190929190803573ffffffffffffffffffffffffffffffffffffffff16906020019092919050505061307d565b005b610a5b60048036036020811015610a4557600080fd5b810190808035906020019092919050505061320b565b604051808215151515815260200191505060405180910390f35b610ac160048036036040811015610a8b57600080fd5b8101908080359060200190929190803573ffffffffffffffffffffffffffffffffffffffff16906020019092919050505061322a565b005b610d6d600480360360c0811015610ad957600080fd5b8101908080359060200190640100000000811115610af657600080fd5b820183602082011115610b0857600080fd5b80359060200191846001830284011164010000000083111715610b2a57600080fd5b91908080601f016020809104026020016040519081016040528093929190818152602001838380828437600081840152601f19601f82011690508083019250505050505050919291929080359060200190640100000000811115610b8d57600080fd5b820183602082011115610b9f57600080fd5b80359060200191846001830284011164010000000083111715610bc157600080fd5b91908080601f016020809104026020016040519081016040528093929190818152602001838380828437600081840152601f19601f82011690508083019250505050505050919291929080359060200190640100000000811115610c2457600080fd5b820183602082011115610c3657600080fd5b80359060200191846001830284011164010000000083111715610c5857600080fd5b91908080601f016020809104026020016040519081016040528093929190818152602001838380828437600081840152601f19601f82011690508083019250505050505050919291929080359060200190640100000000811115610cbb57600080fd5b820183602082011115610ccd57600080fd5b80359060200191846001830284011164010000000083111715610cef57600080fd5b91908080601f016020809104026020016040519081016040528093929190818152602001838380828437600081840152601f19601f820116905080830192505050505050509192919290803515159060200190929190803573ffffffffffffffffffffffffffffffffffffffff1690602001909291905050506133cf565b6040518082815260200191505060405180910390f35b610db960048036036040811015610d9957600080fd5b8101908080359060200190929190803590602001909291905050506135e2565b005b610de760048036036020811015610dd157600080fd5b8101908080359060200190929190505050613736565b6040518082815260200191505060405180910390f35b610ec060048036036040811015610e1357600080fd5b810190808035906020019092919080359060200190640100000000811115610e3a57600080fd5b820183602082011115610e4c57600080fd5b80359060200191846001830284011164010000000083111715610e6e57600080fd5b91908080601f016020809104026020016040519081016040528093929190818152602001838380828437600081840152601f19601f82011690508083019250505050505050919291929050505061388b565b005b610f2e60048036036060811015610ed857600080fd5b8101908080359060200190929190803573ffffffffffffffffffffffffffffffffffffffff169060200190929190803573ffffffffffffffffffffffffffffffffffffffff1690602001909291905050506139ef565b6040518082815260200191505060405180910390f35b610f7060048036036020811015610f5a57600080fd5b8101908080359060200190929190505050613b42565b604051808215151515815260200191505060405180910390f35b610fc060048036036040811015610fa057600080fd5b810190808035906020019092919080359060200190929190505050613be8565b005b610ff860048036036040811015610fd857600080fd5b810190808035906020019092919080359060200190929190505050613d3c565b005b6110266004803603602081101561101057600080fd5b8101908080359060200190929190505050613e1f565b604051808b81526020018a73ffffffffffffffffffffffffffffffffffffffff1673ffffffffffffffffffffffffffffffffffffffff16815260200180602001806020018060200180602001891515151581526020018881526020018781526020018673ffffffffffffffffffffffffffffffffffffffff1673ffffffffffffffffffffffffffffffffffffffff16815260200185810385528d818151815260200191508051906020019080838360005b838110156110f25780820151818401526020810190506110d7565b50505050905090810190601f16801561111f5780820380516001836020036101000a031916815260200191505b5085810384528c818151815260200191508051906020019080838360005b8381101561115857808201518184015260208101905061113d565b50505050905090810190601f1680156111855780820380516001836020036101000a031916815260200191505b5085810383528b818151815260200191508051906020019080838360005b838110156111be5780820151818401526020810190506111a3565b50505050905090810190601f1680156111eb5780820380516001836020036101000a031916815260200191505b5085810382528a818151815260200191508051906020019080838360005b83811015611224578082015181840152602081019050611209565b50505050905090810190601f1680156112515780820380516001836020036101000a031916815260200191505b509e50505050505050505050505050505060405180910390f35b6112c46004803603606081101561128157600080fd5b8101908080359060200190929190803573ffffffffffffffffffffffffffffffffffffffff169060200190929190803560ff169060200190929190505050614120565b6040518080602001828103825283818151815260200191508051906020019060200280838360005b838110156113075780820151818401526020810190506112ec565b505050509050019250505060405180910390f35b6113de6004803603604081101561133157600080fd5b81019080803590602001909291908035906020019064010000000081111561135857600080fd5b82018360208201111561136a57600080fd5b8035906020019184600183028401116401000000008311171561138c57600080fd5b91908080601f016020809104026020016040519081016040528093929190818152602001838380828437600081840152601f19601f8201169050808301925050505050505091929192905050506142af565b005b61142c600480360360408110156113f657600080fd5b8101908080359060200190929190803573ffffffffffffffffffffffffffffffffffffffff169060200190929190505050614413565b604051808215151515815260200191505060405180910390f35b6114886004803603602081101561145c57600080fd5b81019080803573ffffffffffffffffffffffffffffffffffffffff16906020019092919050505061447e565b6040518082815260200191505060405180910390f35b6114d4600480360360408110156114b457600080fd5b810190808035906020019092919080359060200190929190505050614517565b005b61150c600480360360408110156114ec57600080fd5b810190808035906020019092919080359060200190929190505050614742565b604051808215151515815260200191505060405180910390f35b6115726004803603604081101561153c57600080fd5b8101908080359060200190929190803573ffffffffffffffffffffffffffffffffffffffff1690602001909291905050506148b6565b604051808215151515815260200191505060405180910390f35b6115d8600480360360408110156115a257600080fd5b8101908080359060200190929190803573ffffffffffffffffffffffffffffffffffffffff169060200190929190505050614921565b604051808215151515815260200191505060405180910390f35b61163e6004803603604081101561160857600080fd5b8101908080359060200190929190803573ffffffffffffffffffffffffffffffffffffffff16906020019092919050505061498c565b005b61168c6004803603604081101561165657600080fd5b8101908080359060200190929190803573ffffffffffffffffffffffffffffffffffffffff169060200190929190505050614b31565b604051808215151515815260200191505060405180910390f35b611712600480360360608110156116bc57600080fd5b8101908080359060200190929190803573ffffffffffffffffffffffffffffffffffffffff169060200190929190803573ffffffffffffffffffffffffffffffffffffffff169060200190929190505050614b9c565b6040518080602001828103825283818151815260200191508051906020019060200280838360005b8381101561175557808201518184015260208101905061173a565b505050509050019250505060405180910390f35b6117956004803603602081101561177f57600080fd5b8101908080359060200190929190505050614d4c565b604051808273ffffffffffffffffffffffffffffffffffffffff1673ffffffffffffffffffffffffffffffffffffffff16815260200191505060405180910390f35b611843600480360360608110156117ed57600080fd5b8101908080359060200190929190803573ffffffffffffffffffffffffffffffffffffffff169060200190929190803573ffffffffffffffffffffffffffffffffffffffff169060200190929190505050614ec1565b6040518080602001828103825283818151815260200191508051906020019060200280838360005b8381101561188657808201518184015260208101905061186b565b505050509050019250505060405180910390f35b6118e6600480360360408110156118b057600080fd5b8101908080359060200190929190803573ffffffffffffffffffffffffffffffffffffffff169060200190929190505050615071565b005b611954600480360360608110156118fe57600080fd5b8101908080359060200190929190803573ffffffffffffffffffffffffffffffffffffffff169060200190929190803573ffffffffffffffffffffffffffffffffffffffff169060200190929190505050615216565b6040518082815260200191505060405180910390f35b6119c36004803603606081101561198057600080fd5b8101908080359060200190929190803573ffffffffffffffffffffffffffffffffffffffff169060200190929190803560ff169060200190929190505050615369565b6040518082815260200191505060405180910390f35b611a05600480360360208110156119ef57600080fd5b810190808035906020019092919050505061549e565b6040518080602001828103825283818151815260200191508051906020019080838360005b83811015611a45578082015181840152602081019050611a2a565b50505050905090810190601f168015611a725780820380516001836020036101000a031916815260200191505b509250505060405180910390f35b611ac260048036036020811015611a9657600080fd5b81019080803573ffffffffffffffffffffffffffffffffffffffff16906020019092919050505061568b565b604051808215151515815260200191505060405180910390f35b611b1460048036036040811015611af257600080fd5b8101908080359060200190929190803515159060200190929190505050615730565b005b611b1e615897565b6040518082815260200191505060405180910390f35b611bf760048036036040811015611b4a57600080fd5b810190808035906020019092919080359060200190640100000000811115611b7157600080fd5b820183602082011115611b8357600080fd5b80359060200191846001830284011164010000000083111715611ba557600080fd5b91908080601f016020809104026020016040519081016040528093929190818152602001838380828437600081840152601f19601f82011690508083019250505050505050919291929050505061589d565b005b600060608060608060026000878152602001908152602001600020600001546002600088815260200190815260200160002060020160026000898152602001908152602001600020600301600260008a8152602001908152602001600020600401600260008b8152602001908152602001600020600501838054600181600116156101000203166002900480601f016020809104026020016040519081016040528092919081815260200182805460018160011615610100020316600290048015611d055780601f10611cda57610100808354040283529160200191611d05565b820191906000526020600020905b815481529060010190602001808311611ce857829003601f168201915b50505050509350828054600181600116156101000203166002900480601f016020809104026020016040519081016040528092919081815260200182805460018160011615610100020316600290048015611da15780601f10611d7657610100808354040283529160200191611da1565b820191906000526020600020905b815481529060010190602001808311611d8457829003601f168201915b50505050509250818054600181600116156101000203166002900480601f016020809104026020016040519081016040528092919081815260200182805460018160011615610100020316600290048015611e3d5780601f10611e1257610100808354040283529160200191611e3d565b820191906000526020600020905b815481529060010190602001808311611e2057829003601f168201915b50505050509150808054600181600116156101000203166002900480601f016020809104026020016040519081016040528092919081815260200182805460018160011615610100020316600290048015611ed95780601f10611eae57610100808354040283529160200191611ed9565b820191906000526020600020905b815481529060010190602001808311611ebc57829003601f168201915b505050505090509450945094509450945091939590929450565b816001548110611f6b576040517f08c379a00000000000000000000000000000000000000000000000000000000081526004018080602001828103825260138152602001807f496e76616c69642070617469656e74204964210000000000000000000000000081525060200191505060405180910390fd5b823273ffffffffffffffffffffffffffffffffffffffff166002600083815260200190815260200160002060010160009054906101000a900473ffffffffffffffffffffffffffffffffffffffff1673ffffffffffffffffffffffffffffffffffffffff1614612026576040517f08c379a0000000000000000000000000000000000000000000000000000000008152600401808060200182810382526024815260200180615aa76024913960400191505060405180910390fd5b60016002600086815260200190815260200160002060070160008573ffffffffffffffffffffffffffffffffffffffff1673ffffffffffffffffffffffffffffffffffffffff16815260200190815260200160002060006101000a81548160ff02191690831515021790555050505050565b606060006120a584612f28565b90506060816040519080825280602002602001820160405280156120d85781602001602082028038833980820191505090505b509050600080905060008090505b6000809054906101000a900473ffffffffffffffffffffffffffffffffffffffff1673ffffffffffffffffffffffffffffffffffffffff16637988d0566040518163ffffffff1660e01b815260040160206040518083038186803b15801561214d57600080fd5b505afa158015612161573d6000803e3d6000fd5b505050506040513d602081101561217757600080fd5b81019080805190602001909291905050508110156122a4576000809054906101000a900473ffffffffffffffffffffffffffffffffffffffff1673ffffffffffffffffffffffffffffffffffffffff16630224ad4482886040518363ffffffff1660e01b8152600401808381526020018273ffffffffffffffffffffffffffffffffffffffff1673ffffffffffffffffffffffffffffffffffffffff1681526020019250505060206040518083038186803b15801561223557600080fd5b505afa158015612249573d6000803e3d6000fd5b505050506040513d602081101561225f57600080fd5b810190808051906020019092919050505015612297578083838151811061228257fe5b60200260200101818152505081806001019250505b80806001019150506120e6565b5081935050505092915050565b600081600154811061232b576040517f08c379a00000000000000000000000000000000000000000000000000000000081526004018080602001828103825260138152602001807f496e76616c69642070617469656e74204964210000000000000000000000000081525060200191505060405180910390fd5b6002600084815260200190815260200160002060010160009054906101000a900473ffffffffffffffffffffffffffffffffffffffff16915050919050565b6060600080905060008090505b6001548110156123c0576002600082815260200190815260200160002060060160009054906101000a900460ff16156123b35781806001019250505b8080600101915050612377565b506060816040519080825280602002602001820160405280156123f25781602001602082028038833980820191505090505b509050600080905060008090505b600154811015612462576002600082815260200190815260200160002060060160009054906101000a900460ff1615612455578083838151811061244057fe5b60200260200101818152505081806001019250505b8080600101915050612400565b5081935050505090565b60608160015481106124e6576040517f08c379a00000000000000000000000000000000000000000000000000000000081526004018080602001828103825260138152602001807f496e76616c69642070617469656e74204964210000000000000000000000000081525060200191505060405180910390fd5b823273ffffffffffffffffffffffffffffffffffffffff166002600083815260200190815260200160002060010160009054906101000a900473ffffffffffffffffffffffffffffffffffffffff1673ffffffffffffffffffffffffffffffffffffffff16146125a1576040517f08c379a0000000000000000000000000000000000000000000000000000000008152600401808060200182810382526024815260200180615aa76024913960400191505060405180910390fd5b600260008581526020019081526020016000206002018054600181600116156101000203166002900480601f01602080910402602001604051908101604052809291908181526020018280546001816001161561010002031660029004801561264b5780601f106126205761010080835404028352916020019161264b565b820191906000526020600020905b81548152906001019060200180831161262e57829003601f168201915b505050505092505050919050565b60608160015481106126d3576040517f08c379a00000000000000000000000000000000000000000000000000000000081526004018080602001828103825260138152602001807f496e76616c69642070617469656e74204964210000000000000000000000000081525060200191505060405180910390fd5b823273ffffffffffffffffffffffffffffffffffffffff166002600083815260200190815260200160002060010160009054906101000a900473ffffffffffffffffffffffffffffffffffffffff1673ffffffffffffffffffffffffffffffffffffffff161461278e576040517f08c379a0000000000000000000000000000000000000000000000000000000008152600401808060200182810382526024815260200180615aa76024913960400191505060405180910390fd5b600260008581526020019081526020016000206003018054600181600116156101000203166002900480601f0160208091040260200160405190810160405280929190818152602001828054600181600116156101000203166002900480156128385780601f1061280d57610100808354040283529160200191612838565b820191906000526020600020905b81548152906001019060200180831161281b57829003601f168201915b505050505092505050919050565b6060600061285383613736565b90506060816040519080825280602002602001820160405280156128865781602001602082028038833980820191505090505b509050600080905060008090505b6000809054906101000a900473ffffffffffffffffffffffffffffffffffffffff1673ffffffffffffffffffffffffffffffffffffffff16637988d0566040518163ffffffff1660e01b815260040160206040518083038186803b1580156128fb57600080fd5b505afa15801561290f573d6000803e3d6000fd5b505050506040513d602081101561292557600080fd5b8101908080519060200190929190505050811015612a64576000809054906101000a900473ffffffffffffffffffffffffffffffffffffffff1673ffffffffffffffffffffffffffffffffffffffff16630224ad4482336040518363ffffffff1660e01b8152600401808381526020018273ffffffffffffffffffffffffffffffffffffffff1673ffffffffffffffffffffffffffffffffffffffff1681526020019250505060206040518083038186803b1580156129e357600080fd5b505afa1580156129f7573d6000803e3d6000fd5b505050506040513d6020811015612a0d57600080fd5b81019080805190602001909291905050508015612a305750612a2f8682614742565b5b15612a575780838381518110612a4257fe5b60200260200101818152505081806001019250505b8080600101915050612894565b50819350505050919050565b6060816001548110612aea576040517f08c379a00000000000000000000000000000000000000000000000000000000081526004018080602001828103825260138152602001807f496e76616c69642070617469656e74204964210000000000000000000000000081525060200191505060405180910390fd5b823273ffffffffffffffffffffffffffffffffffffffff166002600083815260200190815260200160002060010160009054906101000a900473ffffffffffffffffffffffffffffffffffffffff1673ffffffffffffffffffffffffffffffffffffffff1614612ba5576040517f08c379a0000000000000000000000000000000000000000000000000000000008152600401808060200182810382526024815260200180615aa76024913960400191505060405180910390fd5b600260008581526020019081526020016000206005018054600181600116156101000203166002900480601f016020809104026020016040519081016040528092919081815260200182805460018160011615610100020316600290048015612c4f5780601f10612c2457610100808354040283529160200191612c4f565b820191906000526020600020905b815481529060010190602001808311612c3257829003601f168201915b505050505092505050919050565b806001548110612cd5576040517f08c379a00000000000000000000000000000000000000000000000000000000081526004018080602001828103825260138152602001807f496e76616c69642070617469656e74204964210000000000000000000000000081525060200191505060405180910390fd5b813273ffffffffffffffffffffffffffffffffffffffff166002600083815260200190815260200160002060010160009054906101000a900473ffffffffffffffffffffffffffffffffffffffff1673ffffffffffffffffffffffffffffffffffffffff1614612d90576040517f08c379a0000000000000000000000000000000000000000000000000000000008152600401808060200182810382526024815260200180615aa76024913960400191505060405180910390fd5b60016002600085815260200190815260200160002060060160006101000a81548160ff021916908315150217905550505050565b816001548110612e3c576040517f08c379a00000000000000000000000000000000000000000000000000000000081526004018080602001828103825260138152602001807f496e76616c69642070617469656e74204964210000000000000000000000000081525060200191505060405180910390fd5b823273ffffffffffffffffffffffffffffffffffffffff166002600083815260200190815260200160002060010160009054906101000a900473ffffffffffffffffffffffffffffffffffffffff1673ffffffffffffffffffffffffffffffffffffffff1614612ef7576040517f08c379a0000000000000000000000000000000000000000000000000000000008152600401808060200182810382526024815260200180615aa76024913960400191505060405180910390fd5b82600260008681526020019081526020016000206002019080519060200190612f21929190615a01565b5050505050565b6000816001548110612fa2576040517f08c379a00000000000000000000000000000000000000000000000000000000081526004018080602001828103825260138152602001807f496e76616c69642070617469656e74204964210000000000000000000000000081525060200191505060405180910390fd5b823273ffffffffffffffffffffffffffffffffffffffff166002600083815260200190815260200160002060010160009054906101000a900473ffffffffffffffffffffffffffffffffffffffff1673ffffffffffffffffffffffffffffffffffffffff161461305d576040517f08c379a0000000000000000000000000000000000000000000000000000000008152600401808060200182810382526024815260200180615aa76024913960400191505060405180910390fd5b60026000858152602001908152602001600020600a015492505050919050565b8160015481106130f5576040517f08c379a00000000000000000000000000000000000000000000000000000000081526004018080602001828103825260138152602001807f496e76616c69642070617469656e74204964210000000000000000000000000081525060200191505060405180910390fd5b823273ffffffffffffffffffffffffffffffffffffffff166002600083815260200190815260200160002060010160009054906101000a900473ffffffffffffffffffffffffffffffffffffffff1673ffffffffffffffffffffffffffffffffffffffff16146131b0576040517f08c379a0000000000000000000000000000000000000000000000000000000008152600401808060200182810382526024815260200180615aa76024913960400191505060405180910390fd5b8260026000868152602001908152602001600020600c0160006101000a81548173ffffffffffffffffffffffffffffffffffffffff021916908373ffffffffffffffffffffffffffffffffffffffff16021790555050505050565b60006001548210156132205760019050613225565b600090505b919050565b8160015481106132a2576040517f08c379a00000000000000000000000000000000000000000000000000000000081526004018080602001828103825260138152602001807f496e76616c69642070617469656e74204964210000000000000000000000000081525060200191505060405180910390fd5b823273ffffffffffffffffffffffffffffffffffffffff166002600083815260200190815260200160002060010160009054906101000a900473ffffffffffffffffffffffffffffffffffffffff1673ffffffffffffffffffffffffffffffffffffffff161461335d576040517f08c379a0000000000000000000000000000000000000000000000000000000008152600401808060200182810382526024815260200180615aa76024913960400191505060405180910390fd5b60016002600086815260200190815260200160002060080160008573ffffffffffffffffffffffffffffffffffffffff1673ffffffffffffffffffffffffffffffffffffffff16815260200190815260200160002060006101000a81548160ff02191690831515021790555050505050565b60007f868b6f447f7bdd79ca557746d89e4f760059d6e9c1b631ae924af6140b576c3f60405160405180910390a16000600160008154809291906001019190505590506000600260008381526020019081526020016000209050818160000181905550338160010160006101000a81548173ffffffffffffffffffffffffffffffffffffffff021916908373ffffffffffffffffffffffffffffffffffffffff1602179055508881600201908051906020019061348d929190615a01565b50878160030190805190602001906134a6929190615a01565b50868160040190805190602001906134bf929190615a01565b50858160050190805190602001906134d8929190615a01565b50848160060160006101000a81548160ff021916908315150217905550600081600a0181905550600081600b01819055508381600c0160006101000a81548173ffffffffffffffffffffffffffffffffffffffff021916908373ffffffffffffffffffffffffffffffffffffffff1602179055507fa58cff07db0adda3ab7a40bd2f18ab57210bf38391a52ffd2e8eee6b8bdec71a8160010160009054906101000a900473ffffffffffffffffffffffffffffffffffffffff16604051808273ffffffffffffffffffffffffffffffffffffffff1673ffffffffffffffffffffffffffffffffffffffff16815260200191505060405180910390a181925050509695505050505050565b81600154811061365a576040517f08c379a00000000000000000000000000000000000000000000000000000000081526004018080602001828103825260138152602001807f496e76616c69642070617469656e74204964210000000000000000000000000081525060200191505060405180910390fd5b823273ffffffffffffffffffffffffffffffffffffffff166002600083815260200190815260200160002060010160009054906101000a900473ffffffffffffffffffffffffffffffffffffffff1673ffffffffffffffffffffffffffffffffffffffff1614613715576040517f08c379a0000000000000000000000000000000000000000000000000000000008152600401808060200182810382526024815260200180615aa76024913960400191505060405180910390fd5b8260026000868152602001908152602001600020600b018190555050505050565b60008160015481106137b0576040517f08c379a00000000000000000000000000000000000000000000000000000000081526004018080602001828103825260138152602001807f496e76616c69642070617469656e74204964210000000000000000000000000081525060200191505060405180910390fd5b823273ffffffffffffffffffffffffffffffffffffffff166002600083815260200190815260200160002060010160009054906101000a900473ffffffffffffffffffffffffffffffffffffffff1673ffffffffffffffffffffffffffffffffffffffff161461386b576040517f08c379a0000000000000000000000000000000000000000000000000000000008152600401808060200182810382526024815260200180615aa76024913960400191505060405180910390fd5b60026000858152602001908152602001600020600b015492505050919050565b816001548110613903576040517f08c379a00000000000000000000000000000000000000000000000000000000081526004018080602001828103825260138152602001807f496e76616c69642070617469656e74204964210000000000000000000000000081525060200191505060405180910390fd5b823273ffffffffffffffffffffffffffffffffffffffff166002600083815260200190815260200160002060010160009054906101000a900473ffffffffffffffffffffffffffffffffffffffff1673ffffffffffffffffffffffffffffffffffffffff16146139be576040517f08c379a0000000000000000000000000000000000000000000000000000000008152600401808060200182810382526024815260200180615aa76024913960400191505060405180910390fd5b826002600086815260200190815260200160002060050190805190602001906139e8929190615a01565b5050505050565b600060606139fd8585612098565b90506000613a0a86612f28565b9050600080905060008090505b82811015613b34576000848281518110613a2d57fe5b602002602001015190506000809054906101000a900473ffffffffffffffffffffffffffffffffffffffff1673ffffffffffffffffffffffffffffffffffffffff1663bcfa64af82896040518363ffffffff1660e01b8152600401808381526020018273ffffffffffffffffffffffffffffffffffffffff1673ffffffffffffffffffffffffffffffffffffffff1681526020019250505060206040518083038186803b158015613add57600080fd5b505afa158015613af1573d6000803e3d6000fd5b505050506040513d6020811015613b0757600080fd5b810190808051906020019092919050505015613b265782806001019350505b508080600101915050613a17565b508093505050509392505050565b6000816001548110613bbc576040517f08c379a00000000000000000000000000000000000000000000000000000000081526004018080602001828103825260138152602001807f496e76616c69642070617469656e74204964210000000000000000000000000081525060200191505060405180910390fd5b6002600084815260200190815260200160002060060160009054906101000a900460ff16915050919050565b816001548110613c60576040517f08c379a00000000000000000000000000000000000000000000000000000000081526004018080602001828103825260138152602001807f496e76616c69642070617469656e74204964210000000000000000000000000081525060200191505060405180910390fd5b823273ffffffffffffffffffffffffffffffffffffffff166002600083815260200190815260200160002060010160009054906101000a900473ffffffffffffffffffffffffffffffffffffffff1673ffffffffffffffffffffffffffffffffffffffff1614613d1b576040517f08c379a0000000000000000000000000000000000000000000000000000000008152600401808060200182810382526024815260200180615aa76024913960400191505060405180910390fd5b8260026000868152602001908152602001600020600a018190555050505050565b816001548110613db4576040517f08c379a00000000000000000000000000000000000000000000000000000000081526004018080602001828103825260138152602001807f496e76616c69642070617469656e74204964210000000000000000000000000081525060200191505060405180910390fd5b600060026000858152602001908152602001600020600901600084815260200190815260200160002060006101000a81548160ff02191690831515021790555060026000848152602001908152602001600020600a0160008154809291906001019190505550505050565b60026020528060005260406000206000915090508060000154908060010160009054906101000a900473ffffffffffffffffffffffffffffffffffffffff1690806002018054600181600116156101000203166002900480601f016020809104026020016040519081016040528092919081815260200182805460018160011615610100020316600290048015613ef75780601f10613ecc57610100808354040283529160200191613ef7565b820191906000526020600020905b815481529060010190602001808311613eda57829003601f168201915b505050505090806003018054600181600116156101000203166002900480601f016020809104026020016040519081016040528092919081815260200182805460018160011615610100020316600290048015613f955780601f10613f6a57610100808354040283529160200191613f95565b820191906000526020600020905b815481529060010190602001808311613f7857829003601f168201915b505050505090806004018054600181600116156101000203166002900480601f0160208091040260200160405190810160405280929190818152602001828054600181600116156101000203166002900480156140335780601f1061400857610100808354040283529160200191614033565b820191906000526020600020905b81548152906001019060200180831161401657829003601f168201915b505050505090806005018054600181600116156101000203166002900480601f0160208091040260200160405190810160405280929190818152602001828054600181600116156101000203166002900480156140d15780601f106140a6576101008083540402835291602001916140d1565b820191906000526020600020905b8154815290600101906020018083116140b457829003601f168201915b5050505050908060060160009054906101000a900460ff169080600a01549080600b01549080600c0160009054906101000a900473ffffffffffffffffffffffffffffffffffffffff1690508a565b60608061412d8585612098565b9050600061413a86612f28565b90506000614149878787615369565b905060608160405190808252806020026020018201604052801561417c5781602001602082028038833980820191505090505b509050600080905060008090505b848110156142a25760008682815181106141a057fe5b602002602001015190506000809054906101000a900473ffffffffffffffffffffffffffffffffffffffff1673ffffffffffffffffffffffffffffffffffffffff1663fc60b121828b6040518363ffffffff1660e01b81526004018083815260200182600781111561420e57fe5b60ff1681526020019250505060206040518083038186803b15801561423257600080fd5b505afa158015614246573d6000803e3d6000fd5b505050506040513d602081101561425c57600080fd5b810190808051906020019092919050505015614294578084848151811061427f57fe5b60200260200101818152505082806001019350505b50808060010191505061418a565b5050505050509392505050565b816001548110614327576040517f08c379a00000000000000000000000000000000000000000000000000000000081526004018080602001828103825260138152602001807f496e76616c69642070617469656e74204964210000000000000000000000000081525060200191505060405180910390fd5b823273ffffffffffffffffffffffffffffffffffffffff166002600083815260200190815260200160002060010160009054906101000a900473ffffffffffffffffffffffffffffffffffffffff1673ffffffffffffffffffffffffffffffffffffffff16146143e2576040517f08c379a0000000000000000000000000000000000000000000000000000000008152600401808060200182810382526024815260200180615aa76024913960400191505060405180910390fd5b8260026000868152602001908152602001600020600401908051906020019061440c929190615a01565b5050505050565b60006002600084815260200190815260200160002060080160008373ffffffffffffffffffffffffffffffffffffffff1673ffffffffffffffffffffffffffffffffffffffff16815260200190815260200160002060009054906101000a900460ff16905092915050565b600080600090505b600154811015614510578273ffffffffffffffffffffffffffffffffffffffff166002600083815260200190815260200160002060010160009054906101000a900473ffffffffffffffffffffffffffffffffffffffff1673ffffffffffffffffffffffffffffffffffffffff1614156145035780915050614512565b8080600101915050614486565b505b919050565b81600154811061458f576040517f08c379a00000000000000000000000000000000000000000000000000000000081526004018080602001828103825260138152602001807f496e76616c69642070617469656e74204964210000000000000000000000000081525060200191505060405180910390fd5b823273ffffffffffffffffffffffffffffffffffffffff166002600083815260200190815260200160002060010160009054906101000a900473ffffffffffffffffffffffffffffffffffffffff1673ffffffffffffffffffffffffffffffffffffffff161461464a576040517f08c379a0000000000000000000000000000000000000000000000000000000008152600401808060200182810382526024815260200180615aa76024913960400191505060405180910390fd5b600160026000868152602001908152602001600020600901600085815260200190815260200160002060006101000a81548160ff02191690831515021790555060026000858152602001908152602001600020600b01600081548092919060010191905055506000809054906101000a900473ffffffffffffffffffffffffffffffffffffffff1673ffffffffffffffffffffffffffffffffffffffff16638664d5f3846040518263ffffffff1660e01b815260040180828152602001915050600060405180830381600087803b15801561472457600080fd5b505af1158015614738573d6000803e3d6000fd5b5050505050505050565b60008260015481106147bc576040517f08c379a00000000000000000000000000000000000000000000000000000000081526004018080602001828103825260138152602001807f496e76616c69642070617469656e74204964210000000000000000000000000081525060200191505060405180910390fd5b833273ffffffffffffffffffffffffffffffffffffffff166002600083815260200190815260200160002060010160009054906101000a900473ffffffffffffffffffffffffffffffffffffffff1673ffffffffffffffffffffffffffffffffffffffff1614614877576040517f08c379a0000000000000000000000000000000000000000000000000000000008152600401808060200182810382526024815260200180615aa76024913960400191505060405180910390fd5b60026000868152602001908152602001600020600901600085815260200190815260200160002060009054906101000a900460ff169250505092915050565b60006002600084815260200190815260200160002060070160008373ffffffffffffffffffffffffffffffffffffffff1673ffffffffffffffffffffffffffffffffffffffff16815260200190815260200160002060009054906101000a900460ff16905092915050565b60006002600084815260200190815260200160002060070160008373ffffffffffffffffffffffffffffffffffffffff1673ffffffffffffffffffffffffffffffffffffffff16815260200190815260200160002060009054906101000a900460ff16905092915050565b816001548110614a04576040517f08c379a00000000000000000000000000000000000000000000000000000000081526004018080602001828103825260138152602001807f496e76616c69642070617469656e74204964210000000000000000000000000081525060200191505060405180910390fd5b823273ffffffffffffffffffffffffffffffffffffffff166002600083815260200190815260200160002060010160009054906101000a900473ffffffffffffffffffffffffffffffffffffffff1673ffffffffffffffffffffffffffffffffffffffff1614614abf576040517f08c379a0000000000000000000000000000000000000000000000000000000008152600401808060200182810382526024815260200180615aa76024913960400191505060405180910390fd5b60006002600086815260200190815260200160002060070160008573ffffffffffffffffffffffffffffffffffffffff1673ffffffffffffffffffffffffffffffffffffffff16815260200190815260200160002060006101000a81548160ff02191690831515021790555050505050565b60006002600084815260200190815260200160002060080160008373ffffffffffffffffffffffffffffffffffffffff1673ffffffffffffffffffffffffffffffffffffffff16815260200190815260200160002060009054906101000a900460ff16905092915050565b606080614ba98585612098565b90506000614bb686612f28565b90506000614bc5878787615216565b9050606081604051908082528060200260200182016040528015614bf85781602001602082028038833980820191505090505b509050600080905060008090505b84811015614d3c576000868281518110614c1c57fe5b602002602001015190506000809054906101000a900473ffffffffffffffffffffffffffffffffffffffff1673ffffffffffffffffffffffffffffffffffffffff1663bcfa64af828b6040518363ffffffff1660e01b8152600401808381526020018273ffffffffffffffffffffffffffffffffffffffff1673ffffffffffffffffffffffffffffffffffffffff1681526020019250505060206040518083038186803b158015614ccc57600080fd5b505afa158015614ce0573d6000803e3d6000fd5b505050506040513d6020811015614cf657600080fd5b810190808051906020019092919050505015614d2e5780848481518110614d1957fe5b60200260200101818152505082806001019350505b508080600101915050614c06565b5081955050505050509392505050565b6000816001548110614dc6576040517f08c379a00000000000000000000000000000000000000000000000000000000081526004018080602001828103825260138152602001807f496e76616c69642070617469656e74204964210000000000000000000000000081525060200191505060405180910390fd5b823273ffffffffffffffffffffffffffffffffffffffff166002600083815260200190815260200160002060010160009054906101000a900473ffffffffffffffffffffffffffffffffffffffff1673ffffffffffffffffffffffffffffffffffffffff1614614e81576040517f08c379a0000000000000000000000000000000000000000000000000000000008152600401808060200182810382526024815260200180615aa76024913960400191505060405180910390fd5b60026000858152602001908152602001600020600c0160009054906101000a900473ffffffffffffffffffffffffffffffffffffffff1692505050919050565b606080614ece8585612098565b90506000614edb86612f28565b90506000614eea8787876139ef565b9050606081604051908082528060200260200182016040528015614f1d5781602001602082028038833980820191505090505b509050600080905060008090505b84811015615061576000868281518110614f4157fe5b602002602001015190506000809054906101000a900473ffffffffffffffffffffffffffffffffffffffff1673ffffffffffffffffffffffffffffffffffffffff1663bcfa64af828b6040518363ffffffff1660e01b8152600401808381526020018273ffffffffffffffffffffffffffffffffffffffff1673ffffffffffffffffffffffffffffffffffffffff1681526020019250505060206040518083038186803b158015614ff157600080fd5b505afa158015615005573d6000803e3d6000fd5b505050506040513d602081101561501b57600080fd5b810190808051906020019092919050505015615053578084848151811061503e57fe5b60200260200101818152505082806001019350505b508080600101915050614f2b565b5081955050505050509392505050565b8160015481106150e9576040517f08c379a00000000000000000000000000000000000000000000000000000000081526004018080602001828103825260138152602001807f496e76616c69642070617469656e74204964210000000000000000000000000081525060200191505060405180910390fd5b823273ffffffffffffffffffffffffffffffffffffffff166002600083815260200190815260200160002060010160009054906101000a900473ffffffffffffffffffffffffffffffffffffffff1673ffffffffffffffffffffffffffffffffffffffff16146151a4576040517f08c379a0000000000000000000000000000000000000000000000000000000008152600401808060200182810382526024815260200180615aa76024913960400191505060405180910390fd5b60006002600086815260200190815260200160002060080160008573ffffffffffffffffffffffffffffffffffffffff1673ffffffffffffffffffffffffffffffffffffffff16815260200190815260200160002060006101000a81548160ff02191690831515021790555050505050565b600060606152248585612098565b9050600061523186612f28565b9050600080905060008090505b8281101561535b57600084828151811061525457fe5b602002602001015190506000809054906101000a900473ffffffffffffffffffffffffffffffffffffffff1673ffffffffffffffffffffffffffffffffffffffff1663bcfa64af82896040518363ffffffff1660e01b8152600401808381526020018273ffffffffffffffffffffffffffffffffffffffff1673ffffffffffffffffffffffffffffffffffffffff1681526020019250505060206040518083038186803b15801561530457600080fd5b505afa158015615318573d6000803e3d6000fd5b505050506040513d602081101561532e57600080fd5b81019080805190602001909291905050501561534d5782806001019350505b50808060010191505061523e565b508093505050509392505050565b600060606153778585612098565b9050600061538486612f28565b9050600080905060008090505b828110156154905760008482815181106153a757fe5b602002602001015190506000809054906101000a900473ffffffffffffffffffffffffffffffffffffffff1673ffffffffffffffffffffffffffffffffffffffff1663fc60b12182896040518363ffffffff1660e01b81526004018083815260200182600781111561541557fe5b60ff1681526020019250505060206040518083038186803b15801561543957600080fd5b505afa15801561544d573d6000803e3d6000fd5b505050506040513d602081101561546357600080fd5b8101908080519060200190929190505050156154825782806001019350505b508080600101915050615391565b508093505050509392505050565b6060816001548110615518576040517f08c379a00000000000000000000000000000000000000000000000000000000081526004018080602001828103825260138152602001807f496e76616c69642070617469656e74204964210000000000000000000000000081525060200191505060405180910390fd5b823273ffffffffffffffffffffffffffffffffffffffff166002600083815260200190815260200160002060010160009054906101000a900473ffffffffffffffffffffffffffffffffffffffff1673ffffffffffffffffffffffffffffffffffffffff16146155d3576040517f08c379a0000000000000000000000000000000000000000000000000000000008152600401808060200182810382526024815260200180615aa76024913960400191505060405180910390fd5b600260008581526020019081526020016000206004018054600181600116156101000203166002900480601f01602080910402602001604051908101604052809291908181526020018280546001816001161561010002031660029004801561567d5780601f106156525761010080835404028352916020019161567d565b820191906000526020600020905b81548152906001019060200180831161566057829003601f168201915b505050505092505050919050565b600080600090505b6001548110156157255760006002600083815260200190815260200160002090508373ffffffffffffffffffffffffffffffffffffffff168160010160009054906101000a900473ffffffffffffffffffffffffffffffffffffffff1673ffffffffffffffffffffffffffffffffffffffff1614156157175760019250505061572b565b508080600101915050615693565b50600090505b919050565b8160015481106157a8576040517f08c379a00000000000000000000000000000000000000000000000000000000081526004018080602001828103825260138152602001807f496e76616c69642070617469656e74204964210000000000000000000000000081525060200191505060405180910390fd5b823273ffffffffffffffffffffffffffffffffffffffff166002600083815260200190815260200160002060010160009054906101000a900473ffffffffffffffffffffffffffffffffffffffff1673ffffffffffffffffffffffffffffffffffffffff1614615863576040517f08c379a0000000000000000000000000000000000000000000000000000000008152600401808060200182810382526024815260200180615aa76024913960400191505060405180910390fd5b826002600086815260200190815260200160002060060160006101000a81548160ff02191690831515021790555050505050565b60015481565b816001548110615915576040517f08c379a00000000000000000000000000000000000000000000000000000000081526004018080602001828103825260138152602001807f496e76616c69642070617469656e74204964210000000000000000000000000081525060200191505060405180910390fd5b823273ffffffffffffffffffffffffffffffffffffffff166002600083815260200190815260200160002060010160009054906101000a900473ffffffffffffffffffffffffffffffffffffffff1673ffffffffffffffffffffffffffffffffffffffff16146159d0576040517f08c379a0000000000000000000000000000000000000000000000000000000008152600401808060200182810382526024815260200180615aa76024913960400191505060405180910390fd5b826002600086815260200190815260200160002060030190805190602001906159fa929190615a01565b5050505050565b828054600181600116156101000203166002900490600052602060002090601f016020900481019282601f10615a4257805160ff1916838001178555615a70565b82800160010185558215615a70579182015b82811115615a6f578251825591602001919060010190615a54565b5b509050615a7d9190615a81565b5090565b615aa391905b80821115615a9f576000816000905550600101615a87565b5090565b9056fe4f6e6c792070617469656e742063616e2063616c6c20746869732066756e6374696f6e21a265627a7a72315820b8deab1c0d99d4580c9c38d8f549738efdc861d46cb420c64adc18c6d39a57a264736f6c63430005110032",
  "source": "pragma solidity ^0.5.0;\n\nimport \"./EHR.sol\";\n\ncontract Patient {\n\n    EHR ehrContract;\n\n    constructor(EHR ehrAddress) public {\n        ehrContract = ehrAddress;\n  }\n\n    struct patient {\n        uint256 patientId;\n        address owner;\n        string firstName;\n        string lastName;\n        string emailAddress;\n        string dob;\n        bool approvedResearcher;\n        mapping(address => bool) approvedDoctors;\n        mapping(address => bool) approvedNurses;\n        mapping(uint256 => bool) records;\n        uint256 recordsCount;\n        uint256 acknowledgedRecordsCount;\n        address secondaryUser;\n    }\n\n    uint256 public numPatients = 0;\n    mapping(uint256 => patient) public patients;\n\n    // function to create patient\n    function create(string memory _firstName, string memory _lastName, string memory _emailAddress, string memory _dob, bool _approvedResearcher, address _secondaryUser) public returns(uint256) {\n\n        emit testTrigger();\n\n        uint256 newPatientId = numPatients++;\n\n        patient storage newPatient = patients[newPatientId];\n        newPatient.patientId = newPatientId;\n        newPatient.owner = msg.sender;\n        newPatient.firstName = _firstName;\n        newPatient.lastName = _lastName;\n        newPatient.emailAddress = _emailAddress;\n        newPatient.dob = _dob;\n        newPatient.approvedResearcher = _approvedResearcher;\n        newPatient.recordsCount = 0;\n        newPatient.acknowledgedRecordsCount = 0;\n        newPatient.secondaryUser = _secondaryUser;\n\n        emit PatientAdded(newPatient.owner);\n        return newPatientId;\n    }\n\n    /********* EVENTS *********/\n\n    event AddressDoesNotBelongToAnyPatient();\n    event PatientAdded(address patientAddress);\n    event GivingDoctorAccess();\n    event printValue(uint256 a);\n    event testTrigger();\n\n    /********* MODIFIERS *********/\n\n    modifier ownerOnly(uint256 patientId) {\n        require(patients[patientId].owner == tx.origin, \"Only patient can call this function!\");\n        _;\n    }\n\n    modifier validPatientId(uint256 patientId) {\n        require(patientId < numPatients, \"Invalid patient Id!\");\n        _;\n    }\n\n\n    /********* FUNCTIONS *********/\n\n    function isValidPatientId(uint256 patientId) public view returns (bool) {\n        if (patientId < numPatients) {\n            return true;\n        } else {\n            return false;\n        }\n    }\n\n    function isApprovedDoctor(uint256 patientId, address doctorAddress) public view returns (bool) {\n        return patients[patientId].approvedDoctors[doctorAddress];\n    }\n\n    function isApprovedNurse(uint256 patientId, address nurseAddress) public view returns (bool) {\n        return patients[patientId].approvedNurses[nurseAddress];\n    }\n\n    // Loop through existing senders to check if address is a sender\n    function isSender(address owner) public view returns(bool) {\n        for (uint i = 0; i < numPatients; i++) {\n            patient storage temp = patients[i];\n            if (temp.owner == owner) {\n                return true;\n            }\n        }\n\n        return false;\n    }\n\n    // Populate this logic here\n    function getResearchPatients() public view returns (uint256[] memory) {\n\n        uint256 size = 0;\n\n        // Get size since array size not mutable\n        for (uint i = 0; i < numPatients; i++) {\n            if (patients[i].approvedResearcher) {\n                size++;\n            }\n        }\n\n        uint256[] memory result = new uint256[](size);\n        uint256 count = 0;\n\n        // Loop through patients and feed approved into array\n        for (uint i = 0; i < numPatients; i++) {\n            if (patients[i].approvedResearcher) {\n                result[count] = i;\n                count++;\n            }\n        }\n        return result;\n    }\n\n    // Patient verify record\n    function signOffRecord(uint256 patientId, uint256 recordId) public validPatientId(patientId) ownerOnly(patientId) {\n        patients[patientId].records[recordId] = true;\n        patients[patientId].acknowledgedRecordsCount++;\n        ehrContract.patientSignOff(recordId);\n    }\n\n    // get patient's id from their address (used in medicalChain patientAcknowledgeRecord function)\n    function getPatientIdFromPatientAddress(address patientAddress) public view returns (uint256) {\n        for (uint i = 0; i < numPatients; i++) {\n            if (patients[i].owner == patientAddress) {\n                return i;\n            }\n        }\n    }\n\n    function viewAllRecords(uint256 patientId, address patientAddress) public view returns (uint256[] memory) {\n        uint256 patientNoOfRecords = getRecordsCount(patientId);\n        uint256[] memory patientRecordsId = new uint256[](patientNoOfRecords);\n        uint256 indexTracker = 0;\n        for (uint256 i = 0; i < ehrContract.numEHR(); i++) {\n            if (ehrContract.isRecordBelongToPatient(i, patientAddress)) {\n                patientRecordsId[indexTracker] = i;\n                indexTracker++;\n            }\n        }\n\n    return patientRecordsId;\n    }\n\n    // Patient: View all records (acknowledged and not acknowledged)\n  function viewAllAcknowledgedRecords(uint256 patientId) public view returns (uint256[] memory) {\n    uint256 patientNoOfAcknowledgedRecords = getAcknowledgedRecordsCount(patientId);\n    uint256[] memory patientAcknowledgedRecordsId = new uint256[](patientNoOfAcknowledgedRecords);\n    uint256 indexTracker = 0;\n    for (uint256 i = 0; i < ehrContract.numEHR(); i++) {\n      // record belongs to patient calling it AND whether the record is acknowledged\n      if (ehrContract.isRecordBelongToPatient(i, msg.sender) && isRecordAcknowledged(patientId, i)) {\n        patientAcknowledgedRecordsId[indexTracker] = i;\n        indexTracker++;\n      }\n    }\n\n    return patientAcknowledgedRecordsId;\n  }\n\n  // Patient: View all records issued by certain doctor\n  function viewRecordsByDoctor(uint256 patientId, address patientAddress, address doctorAddress) public view returns (uint256[] memory) {\n    uint256[] memory patientRecordsId = viewAllRecords(patientId, patientAddress);\n    uint256 noOfPatientRecords = getRecordsCount(patientId);\n    uint256 noOfDoctorRecords = numberOfRecordByDoctor(patientId, patientAddress, doctorAddress);\n    uint256[] memory patientRecordsIdFiltered = new uint256[](noOfDoctorRecords);\n    uint256 indexTracker = 0;\n    for (uint256 i = 0; i < noOfPatientRecords; i++) {\n      uint256 currentRecordId = patientRecordsId[i];\n      if (ehrContract.doesRecordMatchPractitionerAddress(currentRecordId, doctorAddress)) {\n        patientRecordsIdFiltered[indexTracker] = currentRecordId;\n        indexTracker++;\n      }\n    }\n\n      return patientRecordsIdFiltered;\n  }\n\n    // Patient: Helper function to check how many records fulfilling the given doctor id\n  function numberOfRecordByDoctor(uint256 patientId, address patientAddress, address doctorAddress) public view returns(uint256) { // change on what you need to return\n    uint256[] memory patientRecordsId = viewAllRecords(patientId, patientAddress);\n    uint256 noOfPatientRecords = getRecordsCount(patientId);\n    uint256 noOfRecordsByDoctorId = 0;\n    for (uint256 i = 0; i < noOfPatientRecords; i++) {\n      uint256 currentRecordId = patientRecordsId[i];\n      if (ehrContract.doesRecordMatchPractitionerAddress(currentRecordId, doctorAddress)) {\n        noOfRecordsByDoctorId++;\n      }\n    }\n\n    return noOfRecordsByDoctorId;\n}\n\n// Patient: View all records issued by certain nurse\n  function viewRecordsByNurse(uint256 patientId, address patientAddress, address nurseAddress) public view returns (uint256[] memory) {\n    uint256[] memory patientRecordsId = viewAllRecords(patientId, patientAddress);\n    uint256 noOfPatientRecords = getRecordsCount(patientId);\n    uint256 noOfNurseRecords = numberOfRecordByNurse(patientId, patientAddress, nurseAddress);\n    uint256[] memory patientRecordsIdFiltered = new uint256[](noOfNurseRecords);\n    uint256 indexTracker = 0;\n    for (uint256 i = 0; i < noOfPatientRecords; i++) {\n      uint256 currentRecordId = patientRecordsId[i];\n      if (ehrContract.doesRecordMatchPractitionerAddress(currentRecordId, nurseAddress)) {\n        patientRecordsIdFiltered[indexTracker] = currentRecordId;\n        indexTracker++;\n      }\n    }\n      return patientRecordsIdFiltered;\n  }\n\n// Patient: Helper function to check how many records fulfilling the given nurse id\n  function numberOfRecordByNurse(uint256 patientId, address patientAddress, address nurseAddress) public view returns(uint256) { // change on what you need to return\n    uint256[] memory patientRecordsId = viewAllRecords(patientId, patientAddress);\n    uint256 noOfPatientRecords = getRecordsCount(patientId);\n    uint256 noOfRecordsByNurseId = 0;\n    for (uint256 i = 0; i < noOfPatientRecords; i++) {\n      uint256 currentRecordId = patientRecordsId[i];\n      if (ehrContract.doesRecordMatchPractitionerAddress(currentRecordId, nurseAddress)) {\n        noOfRecordsByNurseId++;\n      }\n    }\n\n    return noOfRecordsByNurseId;\n  }\n\n    // Patient: Filter records by record type\n  function viewRecordsByRecordType(uint256 patientId, address patientAddress, EHR.RecordType recordType) public view returns (uint256[] memory) {\n    uint256[] memory patientRecordsId = viewAllRecords(patientId, patientAddress);\n    uint256 noOfPatientRecords = getRecordsCount(patientId);\n    uint256 noOfFilteredRecords = numberOfRecordType(patientId, patientAddress, recordType);\n    uint256[] memory patientRecordsIdFiltered = new uint256[](noOfFilteredRecords);\n    uint256 indexTracker = 0;\n    for (uint256 i = 0; i < noOfPatientRecords; i++) {\n      uint256 currentRecordId = patientRecordsId[i];\n      if (ehrContract.doesRecordMatchRecordType(currentRecordId, recordType)) {\n        patientRecordsIdFiltered[indexTracker] = currentRecordId;\n        indexTracker++;\n      }\n    }\n  }\n\n    // Patient: Helper function to check how many records fulfilling the given record type for a patient\n  function numberOfRecordType(uint256 patientId, address patientAddress, EHR.RecordType recordType) public view returns(uint256){ // change on what you need to return\n    uint256[] memory patientRecordsId = viewAllRecords(patientId, patientAddress);\n    uint256 noOfPatientRecords = getRecordsCount(patientId);\n    uint256 noOfRecordsMatchingRecordType = 0;\n    for (uint256 i = 0; i < noOfPatientRecords; i++) {\n      uint256 currentRecordId = patientRecordsId[i];\n      if (ehrContract.doesRecordMatchRecordType(currentRecordId, recordType)) {\n        noOfRecordsMatchingRecordType++;\n      }\n    }\n\n    return noOfRecordsMatchingRecordType;\n}\n\n\n    // checked the record is acknowledged by patient\n    function isRecordAcknowledged(uint256 patientId, uint256 recordId) public view validPatientId(patientId) ownerOnly(patientId) returns(bool) {\n        return patients[patientId].records[recordId];\n    }\n\n    function giveDoctorAccess(uint256 patientId, address doctorAddress) public validPatientId(patientId) ownerOnly(patientId) {\n        // emit GivingDoctorAccess();\n        patients[patientId].approvedDoctors[doctorAddress] = true;\n    }\n\n    function removeDoctorAccess(uint256 patientId, address doctorAddress) public validPatientId(patientId) ownerOnly(patientId) {\n        patients[patientId].approvedDoctors[doctorAddress] = false;\n    }\n\n    function giveNurseAccess(uint256 patientId, address nurseAddress) public validPatientId(patientId) ownerOnly(patientId) {\n        patients[patientId].approvedNurses[nurseAddress] = true;\n    }\n\n    function removeNurseAccess(uint256 patientId, address nurseAddress) public validPatientId(patientId) ownerOnly(patientId) {\n        patients[patientId].approvedNurses[nurseAddress] = false;\n    }\n\n    function addEhr(uint256 patientId, uint256 recordId) public validPatientId(patientId) {\n        patients[patientId].records[recordId] = false;\n        patients[patientId].recordsCount++;\n    }\n\n    function giveResearcherAccess(uint256 patientId) public validPatientId(patientId) ownerOnly(patientId) {\n        patients[patientId].approvedResearcher = true;\n    }\n\n\n\n    /********* GETTERS & SETTERS *********/\n\n    function getFirstName(uint256 patientId) public view validPatientId(patientId) ownerOnly(patientId) returns(string memory) {\n        return patients[patientId].firstName;\n    }\n\n    function setFirstName(uint256 patientId, string memory _firstName) public validPatientId(patientId) ownerOnly(patientId)  {\n        patients[patientId].firstName = _firstName;\n    }\n\n    function getLastName(uint256 patientId) public view validPatientId(patientId) ownerOnly(patientId) returns(string memory) {\n        return patients[patientId].lastName;\n    }\n\n    function setLastName(uint256 patientId, string memory _lastName) public validPatientId(patientId) ownerOnly(patientId)  {\n        patients[patientId].lastName = _lastName;\n    }\n\n    function getEmailAddress(uint256 patientId) public view validPatientId(patientId) ownerOnly(patientId) returns(string memory) {\n        // emit testTrigger();\n        return patients[patientId].emailAddress;\n    }\n\n    function setEmailAddress(uint256 patientId, string memory _emailAddress) public validPatientId(patientId) ownerOnly(patientId) {\n        patients[patientId].emailAddress = _emailAddress;\n    }\n\n    function getDob(uint256 patientId) public view  validPatientId(patientId) ownerOnly(patientId) returns(string memory) {\n        return patients[patientId].dob;\n    }\n\n    function setDob(uint256 patientId, string memory _dob) public validPatientId(patientId) ownerOnly(patientId) {\n        patients[patientId].dob = _dob;\n    }\n\n    function isDoctorApproved(uint256 patientId, address doctorAddress) public view returns(bool) {\n        return patients[patientId].approvedDoctors[doctorAddress];\n    }\n\n    function isNurseApproved(uint256 patientId, address nurseAddress) public view returns(bool) {\n        return patients[patientId].approvedNurses[nurseAddress];\n    }\n\n    function getApprovedReseacher(uint256 patientId) public view  validPatientId(patientId) returns(bool) {\n        return patients[patientId].approvedResearcher;\n    }\n\n    function setApprovedResearcher(uint256 patientId, bool _approvedResearcher) public validPatientId(patientId) ownerOnly(patientId) {\n        patients[patientId].approvedResearcher = _approvedResearcher;\n    }\n\n    function getRecordsCount(uint256 patientId) public view validPatientId(patientId) ownerOnly(patientId) returns(uint256) {\n        return patients[patientId].recordsCount;\n    }\n    \n    function setRecordsCount(uint256 patientId, uint256 _recordsCount) public validPatientId(patientId) ownerOnly(patientId) {\n        patients[patientId].recordsCount = _recordsCount;\n    }\n\n    function getAcknowledgedRecordsCount(uint256 patientId) public view validPatientId(patientId) ownerOnly(patientId) returns(uint256) {\n        return patients[patientId].acknowledgedRecordsCount;\n    }\n    \n    function setAcknowledgedRecordsCount(uint256 patientId, uint256 _acknowledgedRecordsCount) public validPatientId(patientId) ownerOnly(patientId) {\n        patients[patientId].acknowledgedRecordsCount = _acknowledgedRecordsCount;\n    }\n\n    function getSecondaryUser(uint256 patientId) public view validPatientId(patientId) ownerOnly(patientId) returns(address) {\n        return patients[patientId].secondaryUser;\n    }\n\n    function setSecondaryUser(uint256 patientId, address _secondaryUser) public validPatientId(patientId) ownerOnly(patientId)  {\n        patients[patientId].secondaryUser = _secondaryUser;\n    }\n\n    function getData(uint256 patientId) public view returns(uint256 id,\n        string memory firstName,\n        string memory lastName,\n        string memory emailAddress,\n        string memory dob) {\n        return (patients[patientId].patientId, patients[patientId].firstName, patients[patientId].lastName, patients[patientId].emailAddress, patients[patientId].dob);\n    }\n\n    function getPatientAddress(uint256 patientId) public view validPatientId(patientId) returns(address) {\n        return patients[patientId].owner;\n    }\n}",
  "sourcePath": "/Users/aaronf/IS4302/Project/is4302-project-medical-chain/contracts/Patient.sol",
  "compiler": {
    "name": "solc",
    "version": "0.5.17+commit.d19bba13.Emscripten.clang"
  },
  "schemaVersion": "3.4.11",
  "updatedAt": "2023-04-09T10:47:32.465Z",
  "devdoc": {
    "methods": {}
  },
  "userdoc": {
    "methods": {
      "getFirstName(uint256)": {
        "notice": "******* GETTERS & SETTERS ********"
      },
      "isValidPatientId(uint256)": {
        "notice": "******* FUNCTIONS ********"
      }
    }
  }
}