{
  "contractName": "Patient",
  "abi": [
    {
      "anonymous": false,
      "inputs": [],
      "name": "AddressDoesNotBelongToAnyPatient",
      "type": "event"
    },
    {
      "constant": true,
      "inputs": [],
      "name": "numPatients",
      "outputs": [
        {
          "internalType": "uint256",
          "name": "",
          "type": "uint256"
        }
      ],
      "payable": false,
      "stateMutability": "view",
      "type": "function"
    },
    {
      "constant": true,
      "inputs": [
        {
          "internalType": "uint256",
          "name": "",
          "type": "uint256"
        }
      ],
      "name": "patients",
      "outputs": [
        {
          "internalType": "uint256",
          "name": "patientId",
          "type": "uint256"
        },
        {
          "internalType": "address",
          "name": "owner",
          "type": "address"
        },
        {
          "internalType": "string",
          "name": "firstName",
          "type": "string"
        },
        {
          "internalType": "string",
          "name": "lastName",
          "type": "string"
        },
        {
          "internalType": "string",
          "name": "emailAddress",
          "type": "string"
        },
        {
          "internalType": "string",
          "name": "dob",
          "type": "string"
        },
        {
          "internalType": "bool",
          "name": "approvedResearcher",
          "type": "bool"
        },
        {
          "internalType": "address",
          "name": "secondaryUser",
          "type": "address"
        }
      ],
      "payable": false,
      "stateMutability": "view",
      "type": "function"
    },
    {
      "constant": false,
      "inputs": [
        {
          "internalType": "string",
          "name": "_firstName",
          "type": "string"
        },
        {
          "internalType": "string",
          "name": "_lastName",
          "type": "string"
        },
        {
          "internalType": "string",
          "name": "_emailAddress",
          "type": "string"
        },
        {
          "internalType": "string",
          "name": "_dob",
          "type": "string"
        },
        {
          "internalType": "bool",
          "name": "_approvedResearcher",
          "type": "bool"
        },
        {
          "internalType": "address",
          "name": "_secondaryUser",
          "type": "address"
        }
      ],
      "name": "create",
      "outputs": [
        {
          "internalType": "uint256",
          "name": "",
          "type": "uint256"
        }
      ],
      "payable": false,
      "stateMutability": "nonpayable",
      "type": "function"
    },
    {
      "constant": true,
      "inputs": [
        {
          "internalType": "uint256",
          "name": "patientId",
          "type": "uint256"
        },
        {
          "internalType": "address",
          "name": "doctorAddress",
          "type": "address"
        }
      ],
      "name": "isApprovedDoctor",
      "outputs": [
        {
          "internalType": "bool",
          "name": "",
          "type": "bool"
        }
      ],
      "payable": false,
      "stateMutability": "view",
      "type": "function"
    },
    {
      "constant": true,
      "inputs": [
        {
          "internalType": "uint256",
          "name": "patientId",
          "type": "uint256"
        },
        {
          "internalType": "address",
          "name": "nurseAddress",
          "type": "address"
        }
      ],
      "name": "isApprovedNurse",
      "outputs": [
        {
          "internalType": "bool",
          "name": "",
          "type": "bool"
        }
      ],
      "payable": false,
      "stateMutability": "view",
      "type": "function"
    },
    {
      "constant": true,
      "inputs": [],
      "name": "getResearchPatients",
      "outputs": [
        {
          "internalType": "uint256[]",
          "name": "",
          "type": "uint256[]"
        }
      ],
      "payable": false,
      "stateMutability": "view",
      "type": "function"
    },
    {
      "constant": false,
      "inputs": [
        {
          "internalType": "uint256",
          "name": "patientId",
          "type": "uint256"
        },
        {
          "internalType": "uint256",
          "name": "recordId",
          "type": "uint256"
        }
      ],
      "name": "signOffRecord",
      "outputs": [],
      "payable": false,
      "stateMutability": "nonpayable",
      "type": "function"
    },
    {
      "constant": false,
      "inputs": [
        {
          "internalType": "address",
          "name": "patientAddress",
          "type": "address"
        }
      ],
      "name": "getPatientIdFromPatientAddress",
      "outputs": [
        {
          "internalType": "uint256",
          "name": "",
          "type": "uint256"
        }
      ],
      "payable": false,
      "stateMutability": "nonpayable",
      "type": "function"
    },
    {
      "constant": true,
      "inputs": [
        {
          "internalType": "address",
          "name": "owner",
          "type": "address"
        }
      ],
      "name": "isSender",
      "outputs": [
        {
          "internalType": "bool",
          "name": "",
          "type": "bool"
        }
      ],
      "payable": false,
      "stateMutability": "view",
      "type": "function"
    },
    {
      "constant": false,
      "inputs": [
        {
          "internalType": "uint256",
          "name": "patientId",
          "type": "uint256"
        },
        {
          "internalType": "address",
          "name": "doctorAddress",
          "type": "address"
        }
      ],
      "name": "giveDoctorAccess",
      "outputs": [],
      "payable": false,
      "stateMutability": "nonpayable",
      "type": "function"
    },
    {
      "constant": false,
      "inputs": [
        {
          "internalType": "uint256",
          "name": "patientId",
          "type": "uint256"
        },
        {
          "internalType": "address",
          "name": "doctorAddress",
          "type": "address"
        }
      ],
      "name": "removeDoctorAccess",
      "outputs": [],
      "payable": false,
      "stateMutability": "nonpayable",
      "type": "function"
    },
    {
      "constant": false,
      "inputs": [
        {
          "internalType": "uint256",
          "name": "patientId",
          "type": "uint256"
        },
        {
          "internalType": "address",
          "name": "nurseAddress",
          "type": "address"
        }
      ],
      "name": "giveNurseAccess",
      "outputs": [],
      "payable": false,
      "stateMutability": "nonpayable",
      "type": "function"
    },
    {
      "constant": false,
      "inputs": [
        {
          "internalType": "uint256",
          "name": "patientId",
          "type": "uint256"
        },
        {
          "internalType": "address",
          "name": "nurseAddress",
          "type": "address"
        }
      ],
      "name": "removeNurseAccess",
      "outputs": [],
      "payable": false,
      "stateMutability": "nonpayable",
      "type": "function"
    },
    {
      "constant": true,
      "inputs": [
        {
          "internalType": "uint256",
          "name": "patientId",
          "type": "uint256"
        }
      ],
      "name": "getFirstName",
      "outputs": [
        {
          "internalType": "string",
          "name": "",
          "type": "string"
        }
      ],
      "payable": false,
      "stateMutability": "view",
      "type": "function"
    },
    {
      "constant": false,
      "inputs": [
        {
          "internalType": "uint256",
          "name": "patientId",
          "type": "uint256"
        },
        {
          "internalType": "string",
          "name": "_firstName",
          "type": "string"
        }
      ],
      "name": "setFirstName",
      "outputs": [],
      "payable": false,
      "stateMutability": "nonpayable",
      "type": "function"
    },
    {
      "constant": true,
      "inputs": [
        {
          "internalType": "uint256",
          "name": "patientId",
          "type": "uint256"
        }
      ],
      "name": "getLastName",
      "outputs": [
        {
          "internalType": "string",
          "name": "",
          "type": "string"
        }
      ],
      "payable": false,
      "stateMutability": "view",
      "type": "function"
    },
    {
      "constant": false,
      "inputs": [
        {
          "internalType": "uint256",
          "name": "patientId",
          "type": "uint256"
        },
        {
          "internalType": "string",
          "name": "_lastName",
          "type": "string"
        }
      ],
      "name": "setLastName",
      "outputs": [],
      "payable": false,
      "stateMutability": "nonpayable",
      "type": "function"
    },
    {
      "constant": true,
      "inputs": [
        {
          "internalType": "uint256",
          "name": "patientId",
          "type": "uint256"
        }
      ],
      "name": "getEmailAddress",
      "outputs": [
        {
          "internalType": "string",
          "name": "",
          "type": "string"
        }
      ],
      "payable": false,
      "stateMutability": "view",
      "type": "function"
    },
    {
      "constant": false,
      "inputs": [
        {
          "internalType": "uint256",
          "name": "patientId",
          "type": "uint256"
        },
        {
          "internalType": "string",
          "name": "_emailAddress",
          "type": "string"
        }
      ],
      "name": "setEmailAddress",
      "outputs": [],
      "payable": false,
      "stateMutability": "nonpayable",
      "type": "function"
    },
    {
      "constant": true,
      "inputs": [
        {
          "internalType": "uint256",
          "name": "patientId",
          "type": "uint256"
        }
      ],
      "name": "getDob",
      "outputs": [
        {
          "internalType": "string",
          "name": "",
          "type": "string"
        }
      ],
      "payable": false,
      "stateMutability": "view",
      "type": "function"
    },
    {
      "constant": false,
      "inputs": [
        {
          "internalType": "uint256",
          "name": "patientId",
          "type": "uint256"
        },
        {
          "internalType": "string",
          "name": "_dob",
          "type": "string"
        }
      ],
      "name": "setDob",
      "outputs": [],
      "payable": false,
      "stateMutability": "nonpayable",
      "type": "function"
    },
    {
      "constant": true,
      "inputs": [
        {
          "internalType": "uint256",
          "name": "patientId",
          "type": "uint256"
        }
      ],
      "name": "getApprovedReseacher",
      "outputs": [
        {
          "internalType": "bool",
          "name": "",
          "type": "bool"
        }
      ],
      "payable": false,
      "stateMutability": "view",
      "type": "function"
    },
    {
      "constant": false,
      "inputs": [
        {
          "internalType": "uint256",
          "name": "patientId",
          "type": "uint256"
        },
        {
          "internalType": "bool",
          "name": "_approvedResearcher",
          "type": "bool"
        }
      ],
      "name": "setApprovedResearcher",
      "outputs": [],
      "payable": false,
      "stateMutability": "nonpayable",
      "type": "function"
    },
    {
      "constant": true,
      "inputs": [
        {
          "internalType": "uint256",
          "name": "patientId",
          "type": "uint256"
        }
      ],
      "name": "getSecondaryUser",
      "outputs": [
        {
          "internalType": "address",
          "name": "",
          "type": "address"
        }
      ],
      "payable": false,
      "stateMutability": "view",
      "type": "function"
    },
    {
      "constant": false,
      "inputs": [
        {
          "internalType": "uint256",
          "name": "patientId",
          "type": "uint256"
        },
        {
          "internalType": "address",
          "name": "_secondaryUser",
          "type": "address"
        }
      ],
      "name": "setSecondaryUser",
      "outputs": [],
      "payable": false,
      "stateMutability": "nonpayable",
      "type": "function"
    },
    {
      "constant": true,
      "inputs": [
        {
          "internalType": "uint256",
          "name": "patientId",
          "type": "uint256"
        }
      ],
      "name": "getData",
      "outputs": [
        {
          "internalType": "uint256",
          "name": "id",
          "type": "uint256"
        },
        {
          "internalType": "string",
          "name": "firstName",
          "type": "string"
        },
        {
          "internalType": "string",
          "name": "lastName",
          "type": "string"
        },
        {
          "internalType": "string",
          "name": "emailAddress",
          "type": "string"
        },
        {
          "internalType": "string",
          "name": "dob",
          "type": "string"
        }
      ],
      "payable": false,
      "stateMutability": "view",
      "type": "function"
    }
  ],
  "bytecode": "0x60806040526000805534801561001457600080fd5b50612d01806100246000396000f3fe608060405234801561001057600080fd5b506004361061018e5760003560e01c80639ebd51f8116100de578063cd4db77d11610097578063e384346311610071578063e384346314611188578063eb8a79b0146111e4578063fb3bf3481461121e578063fcda42c71461123c5761018e565b8063cd4db77d14611025578063d87ce24214611093578063e31e750c146110e15761018e565b80639ebd51f814610db6578063a3005b4914610e7b578063a3f477f414610ed3578063b01df35114610f0b578063bb4182c314610f71578063c412e7ba14610fbf5761018e565b80633a17f75a1161014b57806356e9af3a1161012557806356e9af3a1461078857806371f26a5c14610a48578063834fa06e14610b0d57806393119a8314610b535761018e565b80633a17f75a14610627578063452c3009146106ec5780635470e8041461073a5761018e565b80630178fe3f14610193578063067be5dc1461038557806311fc621d146103d3578063172a56c114610432578063174029f6146104d95780632013fd1e14610580575b600080fd5b6101bf600480360360208110156101a957600080fd5b8101908080359060200190929190505050611301565b6040518086815260200180602001806020018060200180602001858103855289818151815260200191508051906020019080838360005b838110156102115780820151818401526020810190506101f6565b50505050905090810190601f16801561023e5780820380516001836020036101000a031916815260200191505b50858103845288818151815260200191508051906020019080838360005b8381101561027757808201518184015260208101905061025c565b50505050905090810190601f1680156102a45780820380516001836020036101000a031916815260200191505b50858103835287818151815260200191508051906020019080838360005b838110156102dd5780820151818401526020810190506102c2565b50505050905090810190601f16801561030a5780820380516001836020036101000a031916815260200191505b50858103825286818151815260200191508051906020019080838360005b83811015610343578082015181840152602081019050610328565b50505050905090810190601f1680156103705780820380516001836020036101000a031916815260200191505b50995050505050505050505060405180910390f35b6103d16004803603604081101561039b57600080fd5b8101908080359060200190929190803573ffffffffffffffffffffffffffffffffffffffff1690602001909291905050506115fb565b005b6103db6116ea565b6040518080602001828103825283818151815260200191508051906020019060200280838360005b8381101561041e578082015181840152602081019050610403565b505050509050019250505060405180910390f35b61045e6004803603602081101561044857600080fd5b81019080803590602001909291905050506117ec565b6040518080602001828103825283818151815260200191508051906020019080838360005b8381101561049e578082015181840152602081019050610483565b50505050905090810190601f1680156104cb5780820380516001836020036101000a031916815260200191505b509250505060405180910390f35b610505600480360360208110156104ef57600080fd5b8101908080359060200190929190505050611924565b6040518080602001828103825283818151815260200191508051906020019080838360005b8381101561054557808201518184015260208101905061052a565b50505050905090810190601f1680156105725780820380516001836020036101000a031916815260200191505b509250505060405180910390f35b6105ac6004803603602081101561059657600080fd5b8101908080359060200190929190505050611a5c565b6040518080602001828103825283818151815260200191508051906020019080838360005b838110156105ec5780820151818401526020810190506105d1565b50505050905090810190601f1680156106195780820380516001836020036101000a031916815260200191505b509250505060405180910390f35b6106ea6004803603604081101561063d57600080fd5b81019080803590602001909291908035906020019064010000000081111561066457600080fd5b82018360208201111561067657600080fd5b8035906020019184600183028401116401000000008311171561069857600080fd5b91908080601f016020809104026020016040519081016040528093929190818152602001838380828437600081840152601f19601f820116905080830192505050505050509192919290505050611b94565b005b6107386004803603604081101561070257600080fd5b8101908080359060200190929190803573ffffffffffffffffffffffffffffffffffffffff169060200190929190505050611c43565b005b6107866004803603604081101561075057600080fd5b8101908080359060200190929190803573ffffffffffffffffffffffffffffffffffffffff169060200190929190505050611d1c565b005b610a32600480360360c081101561079e57600080fd5b81019080803590602001906401000000008111156107bb57600080fd5b8201836020820111156107cd57600080fd5b803590602001918460018302840111640100000000831117156107ef57600080fd5b91908080601f016020809104026020016040519081016040528093929190818152602001838380828437600081840152601f19601f8201169050808301925050505050505091929192908035906020019064010000000081111561085257600080fd5b82018360208201111561086457600080fd5b8035906020019184600183028401116401000000008311171561088657600080fd5b91908080601f016020809104026020016040519081016040528093929190818152602001838380828437600081840152601f19601f820116905080830192505050505050509192919290803590602001906401000000008111156108e957600080fd5b8201836020820111156108fb57600080fd5b8035906020019184600183028401116401000000008311171561091d57600080fd5b91908080601f016020809104026020016040519081016040528093929190818152602001838380828437600081840152601f19601f8201169050808301925050505050505091929192908035906020019064010000000081111561098057600080fd5b82018360208201111561099257600080fd5b803590602001918460018302840111640100000000831117156109b457600080fd5b91908080601f016020809104026020016040519081016040528093929190818152602001838380828437600081840152601f19601f820116905080830192505050505050509192919290803515159060200190929190803573ffffffffffffffffffffffffffffffffffffffff169060200190929190505050611e0b565b6040518082815260200191505060405180910390f35b610b0b60048036036040811015610a5e57600080fd5b810190808035906020019092919080359060200190640100000000811115610a8557600080fd5b820183602082011115610a9757600080fd5b80359060200191846001830284011164010000000083111715610ab957600080fd5b91908080601f016020809104026020016040519081016040528093929190818152602001838380828437600081840152601f19601f820116905080830192505050505050509192919290505050611f55565b005b610b3960048036036020811015610b2357600080fd5b8101908080359060200190929190505050612004565b604051808215151515815260200191505060405180910390f35b610b7f60048036036020811015610b6957600080fd5b8101908080359060200190929190505050612041565b604051808981526020018873ffffffffffffffffffffffffffffffffffffffff1673ffffffffffffffffffffffffffffffffffffffff16815260200180602001806020018060200180602001871515151581526020018673ffffffffffffffffffffffffffffffffffffffff1673ffffffffffffffffffffffffffffffffffffffff16815260200185810385528b818151815260200191508051906020019080838360005b83811015610c3f578082015181840152602081019050610c24565b50505050905090810190601f168015610c6c5780820380516001836020036101000a031916815260200191505b5085810384528a818151815260200191508051906020019080838360005b83811015610ca5578082015181840152602081019050610c8a565b50505050905090810190601f168015610cd25780820380516001836020036101000a031916815260200191505b50858103835289818151815260200191508051906020019080838360005b83811015610d0b578082015181840152602081019050610cf0565b50505050905090810190601f168015610d385780820380516001836020036101000a031916815260200191505b50858103825288818151815260200191508051906020019080838360005b83811015610d71578082015181840152602081019050610d56565b50505050905090810190601f168015610d9e5780820380516001836020036101000a031916815260200191505b509c5050505050505050505050505060405180910390f35b610e7960048036036040811015610dcc57600080fd5b810190808035906020019092919080359060200190640100000000811115610df357600080fd5b820183602082011115610e0557600080fd5b80359060200191846001830284011164010000000083111715610e2757600080fd5b91908080601f016020809104026020016040519081016040528093929190818152602001838380828437600081840152601f19601f820116905080830192505050505050509192919290505050612336565b005b610ebd60048036036020811015610e9157600080fd5b81019080803573ffffffffffffffffffffffffffffffffffffffff1690602001909291905050506123e5565b6040518082815260200191505060405180910390f35b610f0960048036036040811015610ee957600080fd5b8101908080359060200190929190803590602001909291905050506124aa565b005b610f5760048036036040811015610f2157600080fd5b8101908080359060200190929190803573ffffffffffffffffffffffffffffffffffffffff16906020019092919050505061256d565b604051808215151515815260200191505060405180910390f35b610fbd60048036036040811015610f8757600080fd5b8101908080359060200190929190803573ffffffffffffffffffffffffffffffffffffffff1690602001909291905050506125d8565b005b61100b60048036036040811015610fd557600080fd5b8101908080359060200190929190803573ffffffffffffffffffffffffffffffffffffffff1690602001909291905050506126c8565b604051808215151515815260200191505060405180910390f35b6110516004803603602081101561103b57600080fd5b8101908080359060200190929190505050612733565b604051808273ffffffffffffffffffffffffffffffffffffffff1673ffffffffffffffffffffffffffffffffffffffff16815260200191505060405180910390f35b6110df600480360360408110156110a957600080fd5b8101908080359060200190929190803573ffffffffffffffffffffffffffffffffffffffff1690602001909291905050506127f3565b005b61110d600480360360208110156110f757600080fd5b81019080803590602001909291905050506128e3565b6040518080602001828103825283818151815260200191508051906020019080838360005b8381101561114d578082015181840152602081019050611132565b50505050905090810190601f16801561117a5780820380516001836020036101000a031916815260200191505b509250505060405180910390f35b6111ca6004803603602081101561119e57600080fd5b81019080803573ffffffffffffffffffffffffffffffffffffffff169060200190929190505050612a1b565b604051808215151515815260200191505060405180910390f35b61121c600480360360408110156111fa57600080fd5b8101908080359060200190929190803515159060200190929190505050612ac0565b005b611226612b72565b6040518082815260200191505060405180910390f35b6112ff6004803603604081101561125257600080fd5b81019080803590602001909291908035906020019064010000000081111561127957600080fd5b82018360208201111561128b57600080fd5b803590602001918460018302840111640100000000831117156112ad57600080fd5b91908080601f016020809104026020016040519081016040528093929190818152602001838380828437600081840152601f19601f820116905080830192505050505050509192919290505050612b78565b005b600060608060608060016000878152602001908152602001600020600001546001600088815260200190815260200160002060020160016000898152602001908152602001600020600301600160008a8152602001908152602001600020600401600160008b8152602001908152602001600020600501838054600181600116156101000203166002900480601f01602080910402602001604051908101604052809291908181526020018280546001816001161561010002031660029004801561140d5780601f106113e25761010080835404028352916020019161140d565b820191906000526020600020905b8154815290600101906020018083116113f057829003601f168201915b50505050509350828054600181600116156101000203166002900480601f0160208091040260200160405190810160405280929190818152602001828054600181600116156101000203166002900480156114a95780601f1061147e576101008083540402835291602001916114a9565b820191906000526020600020905b81548152906001019060200180831161148c57829003601f168201915b50505050509250818054600181600116156101000203166002900480601f0160208091040260200160405190810160405280929190818152602001828054600181600116156101000203166002900480156115455780601f1061151a57610100808354040283529160200191611545565b820191906000526020600020905b81548152906001019060200180831161152857829003601f168201915b50505050509150808054600181600116156101000203166002900480601f0160208091040260200160405190810160405280929190818152602001828054600181600116156101000203166002900480156115e15780601f106115b6576101008083540402835291602001916115e1565b820191906000526020600020905b8154815290600101906020018083116115c457829003601f168201915b505050505090509450945094509450945091939590929450565b81600054811061160a57600080fd5b823273ffffffffffffffffffffffffffffffffffffffff166001600083815260200190815260200160002060010160009054906101000a900473ffffffffffffffffffffffffffffffffffffffff1673ffffffffffffffffffffffffffffffffffffffff161461167957600080fd5b600180600086815260200190815260200160002060070160008573ffffffffffffffffffffffffffffffffffffffff1673ffffffffffffffffffffffffffffffffffffffff16815260200190815260200160002060006101000a81548160ff02191690831515021790555050505050565b6060600080905060008090505b600054811015611740576001600082815260200190815260200160002060060160009054906101000a900460ff16156117335781806001019250505b80806001019150506116f7565b506060816040519080825280602002602001820160405280156117725781602001602082028038833980820191505090505b509050600080905060008090505b6000548110156117e2576001600082815260200190815260200160002060060160009054906101000a900460ff16156117d557808383815181106117c057fe5b60200260200101818152505081806001019250505b8080600101915050611780565b5081935050505090565b60608160005481106117fd57600080fd5b823273ffffffffffffffffffffffffffffffffffffffff166001600083815260200190815260200160002060010160009054906101000a900473ffffffffffffffffffffffffffffffffffffffff1673ffffffffffffffffffffffffffffffffffffffff161461186c57600080fd5b600160008581526020019081526020016000206002018054600181600116156101000203166002900480601f0160208091040260200160405190810160405280929190818152602001828054600181600116156101000203166002900480156119165780601f106118eb57610100808354040283529160200191611916565b820191906000526020600020905b8154815290600101906020018083116118f957829003601f168201915b505050505092505050919050565b606081600054811061193557600080fd5b823273ffffffffffffffffffffffffffffffffffffffff166001600083815260200190815260200160002060010160009054906101000a900473ffffffffffffffffffffffffffffffffffffffff1673ffffffffffffffffffffffffffffffffffffffff16146119a457600080fd5b600160008581526020019081526020016000206003018054600181600116156101000203166002900480601f016020809104026020016040519081016040528092919081815260200182805460018160011615610100020316600290048015611a4e5780601f10611a2357610100808354040283529160200191611a4e565b820191906000526020600020905b815481529060010190602001808311611a3157829003601f168201915b505050505092505050919050565b6060816000548110611a6d57600080fd5b823273ffffffffffffffffffffffffffffffffffffffff166001600083815260200190815260200160002060010160009054906101000a900473ffffffffffffffffffffffffffffffffffffffff1673ffffffffffffffffffffffffffffffffffffffff1614611adc57600080fd5b600160008581526020019081526020016000206005018054600181600116156101000203166002900480601f016020809104026020016040519081016040528092919081815260200182805460018160011615610100020316600290048015611b865780601f10611b5b57610100808354040283529160200191611b86565b820191906000526020600020905b815481529060010190602001808311611b6957829003601f168201915b505050505092505050919050565b816000548110611ba357600080fd5b823273ffffffffffffffffffffffffffffffffffffffff166001600083815260200190815260200160002060010160009054906101000a900473ffffffffffffffffffffffffffffffffffffffff1673ffffffffffffffffffffffffffffffffffffffff1614611c1257600080fd5b82600160008681526020019081526020016000206002019080519060200190611c3c929190612c27565b5050505050565b816000548110611c5257600080fd5b823273ffffffffffffffffffffffffffffffffffffffff166001600083815260200190815260200160002060010160009054906101000a900473ffffffffffffffffffffffffffffffffffffffff1673ffffffffffffffffffffffffffffffffffffffff1614611cc157600080fd5b8260016000868152602001908152602001600020600a0160006101000a81548173ffffffffffffffffffffffffffffffffffffffff021916908373ffffffffffffffffffffffffffffffffffffffff16021790555050505050565b816000548110611d2b57600080fd5b823273ffffffffffffffffffffffffffffffffffffffff166001600083815260200190815260200160002060010160009054906101000a900473ffffffffffffffffffffffffffffffffffffffff1673ffffffffffffffffffffffffffffffffffffffff1614611d9a57600080fd5b600180600086815260200190815260200160002060080160008573ffffffffffffffffffffffffffffffffffffffff1673ffffffffffffffffffffffffffffffffffffffff16815260200190815260200160002060006101000a81548160ff02191690831515021790555050505050565b6000806000808154809291906001019190505590506000600160008381526020019081526020016000209050818160000181905550338160010160006101000a81548173ffffffffffffffffffffffffffffffffffffffff021916908373ffffffffffffffffffffffffffffffffffffffff16021790555088816002019080519060200190611e9b929190612c27565b5087816003019080519060200190611eb4929190612c27565b5086816004019080519060200190611ecd929190612c27565b5085816005019080519060200190611ee6929190612c27565b50848160060160006101000a81548160ff0219169083151502179055508381600a0160006101000a81548173ffffffffffffffffffffffffffffffffffffffff021916908373ffffffffffffffffffffffffffffffffffffffff16021790555081925050509695505050505050565b816000548110611f6457600080fd5b823273ffffffffffffffffffffffffffffffffffffffff166001600083815260200190815260200160002060010160009054906101000a900473ffffffffffffffffffffffffffffffffffffffff1673ffffffffffffffffffffffffffffffffffffffff1614611fd357600080fd5b82600160008681526020019081526020016000206005019080519060200190611ffd929190612c27565b5050505050565b600081600054811061201557600080fd5b6001600084815260200190815260200160002060060160009054906101000a900460ff16915050919050565b60016020528060005260406000206000915090508060000154908060010160009054906101000a900473ffffffffffffffffffffffffffffffffffffffff1690806002018054600181600116156101000203166002900480601f0160208091040260200160405190810160405280929190818152602001828054600181600116156101000203166002900480156121195780601f106120ee57610100808354040283529160200191612119565b820191906000526020600020905b8154815290600101906020018083116120fc57829003601f168201915b505050505090806003018054600181600116156101000203166002900480601f0160208091040260200160405190810160405280929190818152602001828054600181600116156101000203166002900480156121b75780601f1061218c576101008083540402835291602001916121b7565b820191906000526020600020905b81548152906001019060200180831161219a57829003601f168201915b505050505090806004018054600181600116156101000203166002900480601f0160208091040260200160405190810160405280929190818152602001828054600181600116156101000203166002900480156122555780601f1061222a57610100808354040283529160200191612255565b820191906000526020600020905b81548152906001019060200180831161223857829003601f168201915b505050505090806005018054600181600116156101000203166002900480601f0160208091040260200160405190810160405280929190818152602001828054600181600116156101000203166002900480156122f35780601f106122c8576101008083540402835291602001916122f3565b820191906000526020600020905b8154815290600101906020018083116122d657829003601f168201915b5050505050908060060160009054906101000a900460ff169080600a0160009054906101000a900473ffffffffffffffffffffffffffffffffffffffff16905088565b81600054811061234557600080fd5b823273ffffffffffffffffffffffffffffffffffffffff166001600083815260200190815260200160002060010160009054906101000a900473ffffffffffffffffffffffffffffffffffffffff1673ffffffffffffffffffffffffffffffffffffffff16146123b457600080fd5b826001600086815260200190815260200160002060040190805190602001906123de929190612c27565b5050505050565b600080600090505b600054811015612477578273ffffffffffffffffffffffffffffffffffffffff166001600083815260200190815260200160002060010160009054906101000a900473ffffffffffffffffffffffffffffffffffffffff1673ffffffffffffffffffffffffffffffffffffffff16141561246a57809150506124a5565b80806001019150506123ed565b507fc88870c479cded8a8c5471cc359d97b7f31584fb54237660d567c3bbde8b26f860405160405180910390a15b919050565b8160005481106124b957600080fd5b823273ffffffffffffffffffffffffffffffffffffffff166001600083815260200190815260200160002060010160009054906101000a900473ffffffffffffffffffffffffffffffffffffffff1673ffffffffffffffffffffffffffffffffffffffff161461252857600080fd5b6001806000868152602001908152602001600020600901600085815260200190815260200160002060006101000a81548160ff02191690831515021790555050505050565b60006001600084815260200190815260200160002060070160008373ffffffffffffffffffffffffffffffffffffffff1673ffffffffffffffffffffffffffffffffffffffff16815260200190815260200160002060009054906101000a900460ff16905092915050565b8160005481106125e757600080fd5b823273ffffffffffffffffffffffffffffffffffffffff166001600083815260200190815260200160002060010160009054906101000a900473ffffffffffffffffffffffffffffffffffffffff1673ffffffffffffffffffffffffffffffffffffffff161461265657600080fd5b60006001600086815260200190815260200160002060070160008573ffffffffffffffffffffffffffffffffffffffff1673ffffffffffffffffffffffffffffffffffffffff16815260200190815260200160002060006101000a81548160ff02191690831515021790555050505050565b60006001600084815260200190815260200160002060080160008373ffffffffffffffffffffffffffffffffffffffff1673ffffffffffffffffffffffffffffffffffffffff16815260200190815260200160002060009054906101000a900460ff16905092915050565b600081600054811061274457600080fd5b823273ffffffffffffffffffffffffffffffffffffffff166001600083815260200190815260200160002060010160009054906101000a900473ffffffffffffffffffffffffffffffffffffffff1673ffffffffffffffffffffffffffffffffffffffff16146127b357600080fd5b60016000858152602001908152602001600020600a0160009054906101000a900473ffffffffffffffffffffffffffffffffffffffff1692505050919050565b81600054811061280257600080fd5b823273ffffffffffffffffffffffffffffffffffffffff166001600083815260200190815260200160002060010160009054906101000a900473ffffffffffffffffffffffffffffffffffffffff1673ffffffffffffffffffffffffffffffffffffffff161461287157600080fd5b60006001600086815260200190815260200160002060080160008573ffffffffffffffffffffffffffffffffffffffff1673ffffffffffffffffffffffffffffffffffffffff16815260200190815260200160002060006101000a81548160ff02191690831515021790555050505050565b60608160005481106128f457600080fd5b823273ffffffffffffffffffffffffffffffffffffffff166001600083815260200190815260200160002060010160009054906101000a900473ffffffffffffffffffffffffffffffffffffffff1673ffffffffffffffffffffffffffffffffffffffff161461296357600080fd5b600160008581526020019081526020016000206004018054600181600116156101000203166002900480601f016020809104026020016040519081016040528092919081815260200182805460018160011615610100020316600290048015612a0d5780601f106129e257610100808354040283529160200191612a0d565b820191906000526020600020905b8154815290600101906020018083116129f057829003601f168201915b505050505092505050919050565b600080600090505b600054811015612ab55760006001600083815260200190815260200160002090508373ffffffffffffffffffffffffffffffffffffffff168160010160009054906101000a900473ffffffffffffffffffffffffffffffffffffffff1673ffffffffffffffffffffffffffffffffffffffff161415612aa757600192505050612abb565b508080600101915050612a23565b50600090505b919050565b816000548110612acf57600080fd5b823273ffffffffffffffffffffffffffffffffffffffff166001600083815260200190815260200160002060010160009054906101000a900473ffffffffffffffffffffffffffffffffffffffff1673ffffffffffffffffffffffffffffffffffffffff1614612b3e57600080fd5b826001600086815260200190815260200160002060060160006101000a81548160ff02191690831515021790555050505050565b60005481565b816000548110612b8757600080fd5b823273ffffffffffffffffffffffffffffffffffffffff166001600083815260200190815260200160002060010160009054906101000a900473ffffffffffffffffffffffffffffffffffffffff1673ffffffffffffffffffffffffffffffffffffffff1614612bf657600080fd5b82600160008681526020019081526020016000206003019080519060200190612c20929190612c27565b5050505050565b828054600181600116156101000203166002900490600052602060002090601f016020900481019282601f10612c6857805160ff1916838001178555612c96565b82800160010185558215612c96579182015b82811115612c95578251825591602001919060010190612c7a565b5b509050612ca39190612ca7565b5090565b612cc991905b80821115612cc5576000816000905550600101612cad565b5090565b9056fea265627a7a7231582054342b82f719675d17aead897e2674c0b03234a6f2317d657578c9216e31603464736f6c63430005110032",
  "source": "pragma solidity ^0.5.0;\n\ncontract Patient {\n\n    struct patient {\n        uint256 patientId;\n        address owner;\n        string firstName;\n        string lastName;\n        string emailAddress;\n        string dob;\n        bool approvedResearcher;\n        mapping(address => bool) approvedDoctors;\n        mapping(address => bool) approvedNurses;\n        mapping(uint256 => bool) records;\n        address secondaryUser;\n    }\n\n    uint256 public numPatients = 0;\n    mapping(uint256 => patient) public patients;\n\n    // function to create patient\n    function create(string memory _firstName, string memory _lastName, string memory _emailAddress, string memory _dob, bool _approvedResearcher, address _secondaryUser) public returns(uint256) {\n\n        uint256 newPatientId = numPatients++;\n\n        patient storage newPatient = patients[newPatientId];\n        newPatient.patientId = newPatientId;\n        newPatient.owner = msg.sender;\n        newPatient.firstName = _firstName;\n        newPatient.lastName = _lastName;\n        newPatient.emailAddress = _emailAddress;\n        newPatient.dob = _dob;\n        newPatient.approvedResearcher = _approvedResearcher;\n        newPatient.secondaryUser = _secondaryUser;\n\n        return newPatientId;\n    }\n\n    /********* EVENTS *********/\n\n    event AddressDoesNotBelongToAnyPatient();\n\n    /********* MODIFIERS *********/\n\n    modifier ownerOnly(uint256 patientId) {\n        require(patients[patientId].owner == tx.origin);\n        _;\n    }\n\n    modifier validPatientId(uint256 patientId) {\n        require(patientId < numPatients);\n        _;\n    }\n\n\n    /********* FUNCTIONS *********/\n\n    function isApprovedDoctor(uint256 patientId, address doctorAddress) public view returns (bool) {\n        return patients[patientId].approvedDoctors[doctorAddress];\n    }\n\n    function isApprovedNurse(uint256 patientId, address nurseAddress) public view returns (bool) {\n        return patients[patientId].approvedNurses[nurseAddress];\n    }\n\n    // Populate this logic here\n    function getResearchPatients() public view returns (uint256[] memory) {\n\n        uint256 size = 0;\n\n        // Get size since array size not mutable\n        for (uint i = 0; i < numPatients; i++) {\n            if (patients[i].approvedResearcher) {\n                size++;\n            }\n        }\n\n        uint256[] memory result = new uint256[](size);\n        uint256 count = 0;\n\n        // Loop through patients and feed approved into array\n        for (uint i = 0; i < numPatients; i++) {\n            if (patients[i].approvedResearcher) {\n                result[count] = i;\n                count++;\n            }\n        }\n\n        return result;\n    }\n\n    // Patient verify record\n    function signOffRecord(uint256 patientId, uint256 recordId) public validPatientId(patientId) ownerOnly(patientId) {\n        patients[patientId].records[recordId] = true;\n    }\n\n    // get patient's id from their address (used in medicalChain patientAcknowledgeRecord function)\n    function getPatientIdFromPatientAddress(address patientAddress) public returns (uint256) {\n        for (uint i = 0; i < numPatients; i++) {\n            if (patients[i].owner == patientAddress) {\n                return i;\n            }\n        }\n        emit AddressDoesNotBelongToAnyPatient();\n    }\n\n    // Loop through existing senders to check if address is a sender\n    function isSender(address owner) public view returns(bool) {\n        for (uint i = 0; i < numPatients; i++) {\n            patient storage temp = patients[i];\n            if (temp.owner == owner) {\n                return true;\n            }\n        }\n\n        return false;\n    }\n\n    function giveDoctorAccess(uint256 patientId, address doctorAddress) public validPatientId(patientId) ownerOnly(patientId) {\n        patients[patientId].approvedDoctors[doctorAddress] = true;\n    }\n\n    function removeDoctorAccess(uint256 patientId, address doctorAddress) public validPatientId(patientId) ownerOnly(patientId) {\n        patients[patientId].approvedDoctors[doctorAddress] = false;\n    }\n\n    function giveNurseAccess(uint256 patientId, address nurseAddress) public validPatientId(patientId) ownerOnly(patientId) {\n        patients[patientId].approvedNurses[nurseAddress] = true;\n    }\n\n    function removeNurseAccess(uint256 patientId, address nurseAddress) public validPatientId(patientId) ownerOnly(patientId) {\n        patients[patientId].approvedNurses[nurseAddress] = false;\n    }\n\n\n    /********* GETTERS & SETTERS *********/\n\n    function getFirstName(uint256 patientId) public view validPatientId(patientId) ownerOnly(patientId) returns(string memory) {\n        return patients[patientId].firstName;\n    }\n\n    function setFirstName(uint256 patientId, string memory _firstName) public validPatientId(patientId) ownerOnly(patientId)  {\n        patients[patientId].firstName = _firstName;\n    }\n\n    function getLastName(uint256 patientId) public view validPatientId(patientId) ownerOnly(patientId) returns(string memory) {\n        return patients[patientId].lastName;\n    }\n\n    function setLastName(uint256 patientId, string memory _lastName) public validPatientId(patientId) ownerOnly(patientId)  {\n        patients[patientId].lastName = _lastName;\n    }\n\n    function getEmailAddress(uint256 patientId) public view validPatientId(patientId) ownerOnly(patientId) returns(string memory) {\n        return patients[patientId].emailAddress;\n    }\n\n    function setEmailAddress(uint256 patientId, string memory _emailAddress) public validPatientId(patientId) ownerOnly(patientId) {\n        patients[patientId].emailAddress = _emailAddress;\n    }\n\n    function getDob(uint256 patientId) public view  validPatientId(patientId) ownerOnly(patientId) returns(string memory) {\n        return patients[patientId].dob;\n    }\n\n    function setDob(uint256 patientId, string memory _dob) public validPatientId(patientId) ownerOnly(patientId) {\n        patients[patientId].dob = _dob;\n    }\n\n    function getApprovedReseacher(uint256 patientId) public view  validPatientId(patientId) returns(bool) {\n        return patients[patientId].approvedResearcher;\n    }\n\n    function setApprovedResearcher(uint256 patientId, bool _approvedResearcher) public validPatientId(patientId) ownerOnly(patientId) {\n        patients[patientId].approvedResearcher = _approvedResearcher;\n    }\n\n    function getSecondaryUser(uint256 patientId) public view validPatientId(patientId) ownerOnly(patientId) returns(address) {\n        return patients[patientId].secondaryUser;\n    }\n\n    function setSecondaryUser(uint256 patientId, address _secondaryUser) public validPatientId(patientId) ownerOnly(patientId)  {\n        patients[patientId].secondaryUser = _secondaryUser;\n    }\n\n    function getData(uint256 patientId) public view returns(uint256 id,\n        string memory firstName,\n        string memory lastName,\n        string memory emailAddress,\n        string memory dob) {\n        return (patients[patientId].patientId, patients[patientId].firstName, patients[patientId].lastName, patients[patientId].emailAddress, patients[patientId].dob);\n    }\n}",
  "sourcePath": "/Users/seantan/Documents/Code/School/IS4302/project/contracts/Patient.sol",
  "compiler": {
    "name": "solc",
    "version": "0.5.17+commit.d19bba13.Emscripten.clang"
  },
  "schemaVersion": "3.4.13",
  "updatedAt": "2023-04-01T08:55:50.563Z",
  "networkType": "ethereum",
  "devdoc": {
    "methods": {}
  },
  "userdoc": {
    "methods": {
      "getFirstName(uint256)": {
        "notice": "******* GETTERS & SETTERS ********"
      },
      "isApprovedDoctor(uint256,address)": {
        "notice": "******* FUNCTIONS ********"
      }
    }
  }
}