{
  "contractName": "Researcher",
  "abi": [
    {
      "anonymous": false,
      "inputs": [
        {
          "indexed": false,
          "internalType": "address",
          "name": "researcherAddress",
          "type": "address"
        }
      ],
      "name": "ResearcherAdded",
      "type": "event"
    },
    {
      "constant": true,
      "inputs": [],
      "name": "numResearchers",
      "outputs": [
        {
          "internalType": "uint256",
          "name": "",
          "type": "uint256"
        }
      ],
      "payable": false,
      "stateMutability": "view",
      "type": "function"
    },
    {
      "constant": true,
      "inputs": [
        {
          "internalType": "uint256",
          "name": "",
          "type": "uint256"
        }
      ],
      "name": "researchers",
      "outputs": [
        {
          "internalType": "uint256",
          "name": "researcherId",
          "type": "uint256"
        },
        {
          "internalType": "address",
          "name": "owner",
          "type": "address"
        },
        {
          "internalType": "string",
          "name": "firstName",
          "type": "string"
        },
        {
          "internalType": "string",
          "name": "lastName",
          "type": "string"
        },
        {
          "internalType": "string",
          "name": "emailAddress",
          "type": "string"
        },
        {
          "internalType": "string",
          "name": "dob",
          "type": "string"
        }
      ],
      "payable": false,
      "stateMutability": "view",
      "type": "function"
    },
    {
      "constant": false,
      "inputs": [
        {
          "internalType": "string",
          "name": "_firstName",
          "type": "string"
        },
        {
          "internalType": "string",
          "name": "_lastName",
          "type": "string"
        },
        {
          "internalType": "string",
          "name": "_emailAddress",
          "type": "string"
        },
        {
          "internalType": "string",
          "name": "_dob",
          "type": "string"
        }
      ],
      "name": "create",
      "outputs": [
        {
          "internalType": "uint256",
          "name": "",
          "type": "uint256"
        }
      ],
      "payable": false,
      "stateMutability": "nonpayable",
      "type": "function"
    },
    {
      "constant": true,
      "inputs": [
        {
          "internalType": "address",
          "name": "owner",
          "type": "address"
        }
      ],
      "name": "isSender",
      "outputs": [
        {
          "internalType": "bool",
          "name": "",
          "type": "bool"
        }
      ],
      "payable": false,
      "stateMutability": "view",
      "type": "function"
    },
    {
      "constant": true,
      "inputs": [
        {
          "internalType": "uint256",
          "name": "researcherId",
          "type": "uint256"
        }
      ],
      "name": "getFirstName",
      "outputs": [
        {
          "internalType": "string",
          "name": "",
          "type": "string"
        }
      ],
      "payable": false,
      "stateMutability": "view",
      "type": "function"
    },
    {
      "constant": false,
      "inputs": [
        {
          "internalType": "uint256",
          "name": "researcherId",
          "type": "uint256"
        },
        {
          "internalType": "string",
          "name": "_firstName",
          "type": "string"
        }
      ],
      "name": "setFirstName",
      "outputs": [],
      "payable": false,
      "stateMutability": "nonpayable",
      "type": "function"
    },
    {
      "constant": true,
      "inputs": [
        {
          "internalType": "uint256",
          "name": "researcherId",
          "type": "uint256"
        }
      ],
      "name": "getLastName",
      "outputs": [
        {
          "internalType": "string",
          "name": "",
          "type": "string"
        }
      ],
      "payable": false,
      "stateMutability": "view",
      "type": "function"
    },
    {
      "constant": false,
      "inputs": [
        {
          "internalType": "uint256",
          "name": "researcherId",
          "type": "uint256"
        },
        {
          "internalType": "string",
          "name": "_lastName",
          "type": "string"
        }
      ],
      "name": "setLastName",
      "outputs": [],
      "payable": false,
      "stateMutability": "nonpayable",
      "type": "function"
    },
    {
      "constant": true,
      "inputs": [
        {
          "internalType": "uint256",
          "name": "researcherId",
          "type": "uint256"
        }
      ],
      "name": "getEmailAddress",
      "outputs": [
        {
          "internalType": "string",
          "name": "",
          "type": "string"
        }
      ],
      "payable": false,
      "stateMutability": "view",
      "type": "function"
    },
    {
      "constant": false,
      "inputs": [
        {
          "internalType": "uint256",
          "name": "researcherId",
          "type": "uint256"
        },
        {
          "internalType": "string",
          "name": "_emailAddress",
          "type": "string"
        }
      ],
      "name": "setEmailAddress",
      "outputs": [],
      "payable": false,
      "stateMutability": "nonpayable",
      "type": "function"
    },
    {
      "constant": true,
      "inputs": [
        {
          "internalType": "uint256",
          "name": "researcherId",
          "type": "uint256"
        }
      ],
      "name": "getDob",
      "outputs": [
        {
          "internalType": "string",
          "name": "",
          "type": "string"
        }
      ],
      "payable": false,
      "stateMutability": "view",
      "type": "function"
    },
    {
      "constant": false,
      "inputs": [
        {
          "internalType": "uint256",
          "name": "researcherId",
          "type": "uint256"
        },
        {
          "internalType": "string",
          "name": "_dob",
          "type": "string"
        }
      ],
      "name": "setDob",
      "outputs": [],
      "payable": false,
      "stateMutability": "nonpayable",
      "type": "function"
    }
  ],
  "bytecode": "0x60806040526000805534801561001457600080fd5b50611a18806100246000396000f3fe608060405234801561001057600080fd5b50600436106100b45760003560e01c806378ff6ee31161007157806378ff6ee3146104565780639ebd51f8146106ea578063c51a978d146107af578063e31e750c146109d4578063e384346314610a7b578063fcda42c714610ad7576100b4565b8063172a56c1146100b9578063174029f6146101605780632013fd1e14610207578063308f9c4f146102ae5780633a17f75a146102cc57806371f26a5c14610391575b600080fd5b6100e5600480360360208110156100cf57600080fd5b8101908080359060200190929190505050610b9c565b6040518080602001828103825283818151815260200191508051906020019080838360005b8381101561012557808201518184015260208101905061010a565b50505050905090810190601f1680156101525780820380516001836020036101000a031916815260200191505b509250505060405180910390f35b61018c6004803603602081101561017657600080fd5b8101908080359060200190929190505050610cd4565b6040518080602001828103825283818151815260200191508051906020019080838360005b838110156101cc5780820151818401526020810190506101b1565b50505050905090810190601f1680156101f95780820380516001836020036101000a031916815260200191505b509250505060405180910390f35b6102336004803603602081101561021d57600080fd5b8101908080359060200190929190505050610e0c565b6040518080602001828103825283818151815260200191508051906020019080838360005b83811015610273578082015181840152602081019050610258565b50505050905090810190601f1680156102a05780820380516001836020036101000a031916815260200191505b509250505060405180910390f35b6102b6610f44565b6040518082815260200191505060405180910390f35b61038f600480360360408110156102e257600080fd5b81019080803590602001909291908035906020019064010000000081111561030957600080fd5b82018360208201111561031b57600080fd5b8035906020019184600183028401116401000000008311171561033d57600080fd5b91908080601f016020809104026020016040519081016040528093929190818152602001838380828437600081840152601f19601f820116905080830192505050505050509192919290505050610f4a565b005b610454600480360360408110156103a757600080fd5b8101908080359060200190929190803590602001906401000000008111156103ce57600080fd5b8201836020820111156103e057600080fd5b8035906020019184600183028401116401000000008311171561040257600080fd5b91908080601f016020809104026020016040519081016040528093929190818152602001838380828437600081840152601f19601f820116905080830192505050505050509192919290505050610ff9565b005b6106d46004803603608081101561046c57600080fd5b810190808035906020019064010000000081111561048957600080fd5b82018360208201111561049b57600080fd5b803590602001918460018302840111640100000000831117156104bd57600080fd5b91908080601f016020809104026020016040519081016040528093929190818152602001838380828437600081840152601f19601f8201169050808301925050505050505091929192908035906020019064010000000081111561052057600080fd5b82018360208201111561053257600080fd5b8035906020019184600183028401116401000000008311171561055457600080fd5b91908080601f016020809104026020016040519081016040528093929190818152602001838380828437600081840152601f19601f820116905080830192505050505050509192919290803590602001906401000000008111156105b757600080fd5b8201836020820111156105c957600080fd5b803590602001918460018302840111640100000000831117156105eb57600080fd5b91908080601f016020809104026020016040519081016040528093929190818152602001838380828437600081840152601f19601f8201169050808301925050505050505091929192908035906020019064010000000081111561064e57600080fd5b82018360208201111561066057600080fd5b8035906020019184600183028401116401000000008311171561068257600080fd5b91908080601f016020809104026020016040519081016040528093929190818152602001838380828437600081840152601f19601f8201169050808301925050505050505091929192905050506110a8565b6040518082815260200191505060405180910390f35b6107ad6004803603604081101561070057600080fd5b81019080803590602001909291908035906020019064010000000081111561072757600080fd5b82018360208201111561073957600080fd5b8035906020019184600183028401116401000000008311171561075b57600080fd5b91908080601f016020809104026020016040519081016040528093929190818152602001838380828437600081840152601f19601f82011690508083019250505050505050919291929050505061127b565b005b6107db600480360360208110156107c557600080fd5b810190808035906020019092919050505061132a565b604051808781526020018673ffffffffffffffffffffffffffffffffffffffff1673ffffffffffffffffffffffffffffffffffffffff16815260200180602001806020018060200180602001858103855289818151815260200191508051906020019080838360005b8381101561085f578082015181840152602081019050610844565b50505050905090810190601f16801561088c5780820380516001836020036101000a031916815260200191505b50858103845288818151815260200191508051906020019080838360005b838110156108c55780820151818401526020810190506108aa565b50505050905090810190601f1680156108f25780820380516001836020036101000a031916815260200191505b50858103835287818151815260200191508051906020019080838360005b8381101561092b578082015181840152602081019050610910565b50505050905090810190601f1680156109585780820380516001836020036101000a031916815260200191505b50858103825286818151815260200191508051906020019080838360005b83811015610991578082015181840152602081019050610976565b50505050905090810190601f1680156109be5780820380516001836020036101000a031916815260200191505b509a505050505050505050505060405180910390f35b610a00600480360360208110156109ea57600080fd5b81019080803590602001909291905050506115e6565b6040518080602001828103825283818151815260200191508051906020019080838360005b83811015610a40578082015181840152602081019050610a25565b50505050905090810190601f168015610a6d5780820380516001836020036101000a031916815260200191505b509250505060405180910390f35b610abd60048036036020811015610a9157600080fd5b81019080803573ffffffffffffffffffffffffffffffffffffffff16906020019092919050505061171e565b604051808215151515815260200191505060405180910390f35b610b9a60048036036040811015610aed57600080fd5b810190808035906020019092919080359060200190640100000000811115610b1457600080fd5b820183602082011115610b2657600080fd5b80359060200191846001830284011164010000000083111715610b4857600080fd5b91908080601f016020809104026020016040519081016040528093929190818152602001838380828437600081840152601f19601f8201169050808301925050505050505091929192905050506117c3565b005b6060816000548110610bad57600080fd5b823273ffffffffffffffffffffffffffffffffffffffff166001600083815260200190815260200160002060010160009054906101000a900473ffffffffffffffffffffffffffffffffffffffff1673ffffffffffffffffffffffffffffffffffffffff1614610c1c57600080fd5b600160008581526020019081526020016000206002018054600181600116156101000203166002900480601f016020809104026020016040519081016040528092919081815260200182805460018160011615610100020316600290048015610cc65780601f10610c9b57610100808354040283529160200191610cc6565b820191906000526020600020905b815481529060010190602001808311610ca957829003601f168201915b505050505092505050919050565b6060816000548110610ce557600080fd5b823273ffffffffffffffffffffffffffffffffffffffff166001600083815260200190815260200160002060010160009054906101000a900473ffffffffffffffffffffffffffffffffffffffff1673ffffffffffffffffffffffffffffffffffffffff1614610d5457600080fd5b600160008581526020019081526020016000206003018054600181600116156101000203166002900480601f016020809104026020016040519081016040528092919081815260200182805460018160011615610100020316600290048015610dfe5780601f10610dd357610100808354040283529160200191610dfe565b820191906000526020600020905b815481529060010190602001808311610de157829003601f168201915b505050505092505050919050565b6060816000548110610e1d57600080fd5b823273ffffffffffffffffffffffffffffffffffffffff166001600083815260200190815260200160002060010160009054906101000a900473ffffffffffffffffffffffffffffffffffffffff1673ffffffffffffffffffffffffffffffffffffffff1614610e8c57600080fd5b600160008581526020019081526020016000206005018054600181600116156101000203166002900480601f016020809104026020016040519081016040528092919081815260200182805460018160011615610100020316600290048015610f365780601f10610f0b57610100808354040283529160200191610f36565b820191906000526020600020905b815481529060010190602001808311610f1957829003601f168201915b505050505092505050919050565b60005481565b816000548110610f5957600080fd5b823273ffffffffffffffffffffffffffffffffffffffff166001600083815260200190815260200160002060010160009054906101000a900473ffffffffffffffffffffffffffffffffffffffff1673ffffffffffffffffffffffffffffffffffffffff1614610fc857600080fd5b82600160008681526020019081526020016000206002019080519060200190610ff2929190611872565b5050505050565b81600054811061100857600080fd5b823273ffffffffffffffffffffffffffffffffffffffff166001600083815260200190815260200160002060010160009054906101000a900473ffffffffffffffffffffffffffffffffffffffff1673ffffffffffffffffffffffffffffffffffffffff161461107757600080fd5b826001600086815260200190815260200160002060050190805190602001906110a1929190611872565b5050505050565b6000806000808154809291906001019190505590506110c56118f2565b8181600001818152505033816020019073ffffffffffffffffffffffffffffffffffffffff16908173ffffffffffffffffffffffffffffffffffffffff1681525050868160400181905250858160600181905250848160800181905250838160a0018190525080600160008481526020019081526020016000206000820151816000015560208201518160010160006101000a81548173ffffffffffffffffffffffffffffffffffffffff021916908373ffffffffffffffffffffffffffffffffffffffff16021790555060408201518160020190805190602001906111ac92919061193e565b5060608201518160030190805190602001906111c992919061193e565b5060808201518160040190805190602001906111e692919061193e565b5060a082015181600501908051906020019061120392919061193e565b509050507f534d4d16bc7e767235008f9a9e169fbf0e98449b93263dd503c94a69fa20f3e98160200151604051808273ffffffffffffffffffffffffffffffffffffffff1673ffffffffffffffffffffffffffffffffffffffff16815260200191505060405180910390a18192505050949350505050565b81600054811061128a57600080fd5b823273ffffffffffffffffffffffffffffffffffffffff166001600083815260200190815260200160002060010160009054906101000a900473ffffffffffffffffffffffffffffffffffffffff1673ffffffffffffffffffffffffffffffffffffffff16146112f957600080fd5b82600160008681526020019081526020016000206004019080519060200190611323929190611872565b5050505050565b60016020528060005260406000206000915090508060000154908060010160009054906101000a900473ffffffffffffffffffffffffffffffffffffffff1690806002018054600181600116156101000203166002900480601f0160208091040260200160405190810160405280929190818152602001828054600181600116156101000203166002900480156114025780601f106113d757610100808354040283529160200191611402565b820191906000526020600020905b8154815290600101906020018083116113e557829003601f168201915b505050505090806003018054600181600116156101000203166002900480601f0160208091040260200160405190810160405280929190818152602001828054600181600116156101000203166002900480156114a05780601f10611475576101008083540402835291602001916114a0565b820191906000526020600020905b81548152906001019060200180831161148357829003601f168201915b505050505090806004018054600181600116156101000203166002900480601f01602080910402602001604051908101604052809291908181526020018280546001816001161561010002031660029004801561153e5780601f106115135761010080835404028352916020019161153e565b820191906000526020600020905b81548152906001019060200180831161152157829003601f168201915b505050505090806005018054600181600116156101000203166002900480601f0160208091040260200160405190810160405280929190818152602001828054600181600116156101000203166002900480156115dc5780601f106115b1576101008083540402835291602001916115dc565b820191906000526020600020905b8154815290600101906020018083116115bf57829003601f168201915b5050505050905086565b60608160005481106115f757600080fd5b823273ffffffffffffffffffffffffffffffffffffffff166001600083815260200190815260200160002060010160009054906101000a900473ffffffffffffffffffffffffffffffffffffffff1673ffffffffffffffffffffffffffffffffffffffff161461166657600080fd5b600160008581526020019081526020016000206004018054600181600116156101000203166002900480601f0160208091040260200160405190810160405280929190818152602001828054600181600116156101000203166002900480156117105780601f106116e557610100808354040283529160200191611710565b820191906000526020600020905b8154815290600101906020018083116116f357829003601f168201915b505050505092505050919050565b600080600090505b6000548110156117b85760006001600083815260200190815260200160002090508373ffffffffffffffffffffffffffffffffffffffff168160010160009054906101000a900473ffffffffffffffffffffffffffffffffffffffff1673ffffffffffffffffffffffffffffffffffffffff1614156117aa576001925050506117be565b508080600101915050611726565b50600090505b919050565b8160005481106117d257600080fd5b823273ffffffffffffffffffffffffffffffffffffffff166001600083815260200190815260200160002060010160009054906101000a900473ffffffffffffffffffffffffffffffffffffffff1673ffffffffffffffffffffffffffffffffffffffff161461184157600080fd5b8260016000868152602001908152602001600020600301908051906020019061186b929190611872565b5050505050565b828054600181600116156101000203166002900490600052602060002090601f016020900481019282601f106118b357805160ff19168380011785556118e1565b828001600101855582156118e1579182015b828111156118e05782518255916020019190600101906118c5565b5b5090506118ee91906119be565b5090565b6040518060c0016040528060008152602001600073ffffffffffffffffffffffffffffffffffffffff168152602001606081526020016060815260200160608152602001606081525090565b828054600181600116156101000203166002900490600052602060002090601f016020900481019282601f1061197f57805160ff19168380011785556119ad565b828001600101855582156119ad579182015b828111156119ac578251825591602001919060010190611991565b5b5090506119ba91906119be565b5090565b6119e091905b808211156119dc5760008160009055506001016119c4565b5090565b9056fea265627a7a72315820ebcd62020403214ad8311007573d28a13b85efd6785abe7a43b6e9ad7f927d0564736f6c63430005110032",
  "source": "pragma solidity ^0.5.0;\n\ncontract Researcher {\n\n    struct researcher {\n        uint256 researcherId;\n        address owner;\n        string firstName;\n        string lastName;\n        string emailAddress;\n        string dob;\n    }\n\n    uint256 public numResearchers = 0;\n    mapping(uint256 => researcher) public researchers;\n\n    // function to create patient\n    function create(string memory _firstName, string memory _lastName, string memory _emailAddress, string memory _dob) public returns(uint256) {\n\n        uint256 newResearcherId = numResearchers++;\n\n        researcher memory newResearcher;\n        newResearcher.researcherId = newResearcherId;\n        newResearcher.owner = msg.sender;\n        newResearcher.firstName = _firstName;\n        newResearcher.lastName = _lastName;\n        newResearcher.emailAddress = _emailAddress;\n        newResearcher.dob = _dob;\n\n        researchers[newResearcherId] = newResearcher;\n        emit ResearcherAdded(newResearcher.owner);\n        return newResearcherId;\n    }\n\n\n    /********* EVENTS *********/\n\n    event ResearcherAdded(address researcherAddress);\n\n    /********* MODIFIERS *********/\n\n    modifier ownerOnly(uint256 researcherId) {\n        require(researchers[researcherId].owner == tx.origin);\n        _;\n    }\n\n    modifier validResearcherId(uint256 researcherId) {\n        require(researcherId < numResearchers);\n        _;\n    }\n\n\n    /********* FUNCTIONS *********/\n\n    // Loop through existing senders to check if address is a sender\n    function isSender(address owner) public view returns(bool) {\n        for (uint i = 0; i < numResearchers; i++) {\n            researcher storage temp = researchers[i];\n            if (temp.owner == owner) {\n                return true;\n            }\n        }\n\n        return false;\n    }\n    \n\n    /********* GETTERS & SETTERS *********/\n\n    function getFirstName(uint256 researcherId) public view validResearcherId(researcherId) ownerOnly(researcherId) returns(string memory) {\n        return researchers[researcherId].firstName;\n    }\n\n    function setFirstName(uint256 researcherId, string memory _firstName) public validResearcherId(researcherId) ownerOnly(researcherId)  {\n        researchers[researcherId].firstName = _firstName;\n    }\n\n    function getLastName(uint256 researcherId) public view validResearcherId(researcherId) ownerOnly(researcherId) returns(string memory) {\n        return researchers[researcherId].lastName;\n    }\n\n    function setLastName(uint256 researcherId, string memory _lastName) public validResearcherId(researcherId) ownerOnly(researcherId)  {\n        researchers[researcherId].lastName = _lastName;\n    }\n\n    function getEmailAddress(uint256 researcherId) public view validResearcherId(researcherId) ownerOnly(researcherId) returns(string memory) {\n        return researchers[researcherId].emailAddress;\n    }\n\n    function setEmailAddress(uint256 researcherId, string memory _emailAddress) public validResearcherId(researcherId) ownerOnly(researcherId) {\n        researchers[researcherId].emailAddress = _emailAddress;\n    }\n\n    function getDob(uint256 researcherId) public view  validResearcherId(researcherId) ownerOnly(researcherId) returns(string memory) {\n        return researchers[researcherId].dob;\n    }\n\n    function setDob(uint256 researcherId, string memory _dob) public validResearcherId(researcherId) ownerOnly(researcherId) {\n        researchers[researcherId].dob = _dob;\n    }\n\n}",
  "sourcePath": "/Users/aaronf/IS4302/is4302-project-medical-chain/contracts/Researcher.sol",
  "compiler": {
    "name": "solc",
    "version": "0.5.17+commit.d19bba13.Emscripten.clang"
  },
  "schemaVersion": "3.4.11",
  "updatedAt": "2023-04-08T14:22:53.916Z",
  "networkType": "ethereum",
  "devdoc": {
    "methods": {}
  },
  "userdoc": {
    "methods": {
      "getFirstName(uint256)": {
        "notice": "******* GETTERS & SETTERS ********"
      },
      "isSender(address)": {
        "notice": "******* FUNCTIONS ********"
      }
    }
  }
}